{
	"data": {
		"bytecode": {
			"linkReferences": {},
			"object": "60806040525f805f6101000a81548160ff021916908360ff1602179055505f8060016101000a81548160ff021916908360ff1602179055503480156041575f80fd5b5060f08061004e5f395ff3fe6080604052348015600e575f80fd5b50600436106030575f3560e01c806310cd83c014603457806333d1c2fc14604e575b5f80fd5b603a6068565b6040516045919060a3565b60405180910390f35b60546078565b604051605f919060a3565b60405180910390f35b5f8054906101000a900460ff1681565b5f60019054906101000a900460ff1681565b5f60ff82169050919050565b609d81608a565b82525050565b5f60208201905060b45f8301846096565b9291505056fea26469706673582212201c8111a0f29b328a171da6d20ae5a83b40389089d32695f4e0de194fd514623964736f6c634300081a0033",
			"opcodes": "PUSH1 0x80 PUSH1 0x40 MSTORE PUSH0 DUP1 PUSH0 PUSH2 0x100 EXP DUP2 SLOAD DUP2 PUSH1 0xFF MUL NOT AND SWAP1 DUP4 PUSH1 0xFF AND MUL OR SWAP1 SSTORE POP PUSH0 DUP1 PUSH1 0x1 PUSH2 0x100 EXP DUP2 SLOAD DUP2 PUSH1 0xFF MUL NOT AND SWAP1 DUP4 PUSH1 0xFF AND MUL OR SWAP1 SSTORE POP CALLVALUE DUP1 ISZERO PUSH1 0x41 JUMPI PUSH0 DUP1 REVERT JUMPDEST POP PUSH1 0xF0 DUP1 PUSH2 0x4E PUSH0 CODECOPY PUSH0 RETURN INVALID PUSH1 0x80 PUSH1 0x40 MSTORE CALLVALUE DUP1 ISZERO PUSH1 0xE JUMPI PUSH0 DUP1 REVERT JUMPDEST POP PUSH1 0x4 CALLDATASIZE LT PUSH1 0x30 JUMPI PUSH0 CALLDATALOAD PUSH1 0xE0 SHR DUP1 PUSH4 0x10CD83C0 EQ PUSH1 0x34 JUMPI DUP1 PUSH4 0x33D1C2FC EQ PUSH1 0x4E JUMPI JUMPDEST PUSH0 DUP1 REVERT JUMPDEST PUSH1 0x3A PUSH1 0x68 JUMP JUMPDEST PUSH1 0x40 MLOAD PUSH1 0x45 SWAP2 SWAP1 PUSH1 0xA3 JUMP JUMPDEST PUSH1 0x40 MLOAD DUP1 SWAP2 SUB SWAP1 RETURN JUMPDEST PUSH1 0x54 PUSH1 0x78 JUMP JUMPDEST PUSH1 0x40 MLOAD PUSH1 0x5F SWAP2 SWAP1 PUSH1 0xA3 JUMP JUMPDEST PUSH1 0x40 MLOAD DUP1 SWAP2 SUB SWAP1 RETURN JUMPDEST PUSH0 DUP1 SLOAD SWAP1 PUSH2 0x100 EXP SWAP1 DIV PUSH1 0xFF AND DUP2 JUMP JUMPDEST PUSH0 PUSH1 0x1 SWAP1 SLOAD SWAP1 PUSH2 0x100 EXP SWAP1 DIV PUSH1 0xFF AND DUP2 JUMP JUMPDEST PUSH0 PUSH1 0xFF DUP3 AND SWAP1 POP SWAP2 SWAP1 POP JUMP JUMPDEST PUSH1 0x9D DUP2 PUSH1 0x8A JUMP JUMPDEST DUP3 MSTORE POP POP JUMP JUMPDEST PUSH0 PUSH1 0x20 DUP3 ADD SWAP1 POP PUSH1 0xB4 PUSH0 DUP4 ADD DUP5 PUSH1 0x96 JUMP JUMPDEST SWAP3 SWAP2 POP POP JUMP INVALID LOG2 PUSH5 0x6970667358 0x22 SLT KECCAK256 SHR DUP2 GT LOG0 CALLCODE SWAP12 ORIGIN DUP11 OR SAR 0xA6 0xD2 EXP 0xE5 0xA8 EXTCODESIZE BLOCKHASH CODESIZE SWAP1 DUP10 0xD3 0x26 SWAP6 DELEGATECALL 0xE0 0xDE NOT 0x4F 0xD5 EQ PUSH3 0x396473 PUSH16 0x6C634300081A00330000000000000000 "
		},
		"gasEstimates": {
			"creation": {
				"codeDepositCost": "48000",
				"executionCost": "48678",
				"totalCost": "96678"
			},
			"external": {
				"question1()": "2441",
				"question2()": "2516"
			}
		},
		"methodIdentifiers": {
			"question1()": "10cd83c0",
			"question2()": "33d1c2fc"
		}
	},
	"abi": [
		{
			"inputs": [],
			"name": "question1",
			"outputs": [
				{
					"internalType": "uint8",
					"name": "",
					"type": "uint8"
				}
			],
			"stateMutability": "view",
			"type": "function"
		},
		{
			"inputs": [],
			"name": "question2",
			"outputs": [
				{
					"internalType": "uint8",
					"name": "",
					"type": "uint8"
				}
			],
			"stateMutability": "view",
			"type": "function"
		}
	]
}