{
	"contracts/PersonsContract.sol": {
		"Person": {
			"abi": [
				{
					"inputs": [
						{
							"internalType": "address",
							"name": "",
							"type": "address"
						}
					],
					"name": "Personcontract",
					"outputs": [
						{
							"internalType": "string",
							"name": "name",
							"type": "string"
						},
						{
							"internalType": "uint32",
							"name": "age",
							"type": "uint32"
						},
						{
							"internalType": "address",
							"name": "add",
							"type": "address"
						}
					],
					"stateMutability": "view",
					"type": "function"
				},
				{
					"inputs": [],
					"name": "getPersonDetails",
					"outputs": [
						{
							"internalType": "string",
							"name": "",
							"type": "string"
						},
						{
							"internalType": "uint32",
							"name": "",
							"type": "uint32"
						},
						{
							"internalType": "address",
							"name": "",
							"type": "address"
						}
					],
					"stateMutability": "view",
					"type": "function"
				},
				{
					"inputs": [],
					"name": "p1",
					"outputs": [
						{
							"internalType": "string",
							"name": "name",
							"type": "string"
						},
						{
							"internalType": "uint32",
							"name": "age",
							"type": "uint32"
						},
						{
							"internalType": "address",
							"name": "add",
							"type": "address"
						}
					],
					"stateMutability": "view",
					"type": "function"
				},
				{
					"inputs": [
						{
							"internalType": "string",
							"name": "_name",
							"type": "string"
						},
						{
							"internalType": "uint32",
							"name": "_age",
							"type": "uint32"
						}
					],
					"name": "setPerson",
					"outputs": [],
					"stateMutability": "nonpayable",
					"type": "function"
				}
			],
			"devdoc": {
				"kind": "dev",
				"methods": {},
				"version": 1
			},
			"evm": {
				"assembly": "    /* \"contracts/PersonsContract.sol\":68:603  contract Person{... */\n  mstore(0x40, 0x80)\n  callvalue\n  dup1\n  iszero\n  tag_1\n  jumpi\n  0x00\n  dup1\n  revert\ntag_1:\n  pop\n  dataSize(sub_0)\n  dup1\n  dataOffset(sub_0)\n  0x00\n  codecopy\n  0x00\n  return\nstop\n\nsub_0: assembly {\n        /* \"contracts/PersonsContract.sol\":68:603  contract Person{... */\n      mstore(0x40, 0x80)\n      callvalue\n      dup1\n      iszero\n      tag_1\n      jumpi\n      0x00\n      dup1\n      revert\n    tag_1:\n      pop\n      jumpi(tag_2, lt(calldatasize, 0x04))\n      shr(0xe0, calldataload(0x00))\n      dup1\n      0x2748663e\n      eq\n      tag_3\n      jumpi\n      dup1\n      0xa1f94f54\n      eq\n      tag_4\n      jumpi\n      dup1\n      0xc2a2747b\n      eq\n      tag_5\n      jumpi\n      dup1\n      0xd781a3a5\n      eq\n      tag_6\n      jumpi\n    tag_2:\n      0x00\n      dup1\n      revert\n        /* \"contracts/PersonsContract.sol\":334:472  function setPerson(string memory _name,uint32 _age) public {... */\n    tag_3:\n      tag_7\n      0x04\n      dup1\n      calldatasize\n      sub\n      dup2\n      add\n      swap1\n      tag_8\n      swap2\n      swap1\n      tag_9\n      jump\t// in\n    tag_8:\n      tag_10\n      jump\t// in\n    tag_7:\n      stop\n        /* \"contracts/PersonsContract.sol\":203:250  mapping (address=>person) public Personcontract */\n    tag_4:\n      tag_11\n      0x04\n      dup1\n      calldatasize\n      sub\n      dup2\n      add\n      swap1\n      tag_12\n      swap2\n      swap1\n      tag_13\n      jump\t// in\n    tag_12:\n      tag_14\n      jump\t// in\n    tag_11:\n      mload(0x40)\n      tag_15\n      swap4\n      swap3\n      swap2\n      swap1\n      tag_16\n      jump\t// in\n    tag_15:\n      mload(0x40)\n      dup1\n      swap2\n      sub\n      swap1\n      return\n        /* \"contracts/PersonsContract.sol\":181:197  person public p1 */\n    tag_5:\n      tag_17\n      tag_18\n      jump\t// in\n    tag_17:\n      mload(0x40)\n      tag_19\n      swap4\n      swap3\n      swap2\n      swap1\n      tag_16\n      jump\t// in\n    tag_19:\n      mload(0x40)\n      dup1\n      swap2\n      sub\n      swap1\n      return\n        /* \"contracts/PersonsContract.sol\":477:601  function getPersonDetails() public view returns(string memory,uint32,address){... */\n    tag_6:\n      tag_20\n      tag_21\n      jump\t// in\n    tag_20:\n      mload(0x40)\n      tag_22\n      swap4\n      swap3\n      swap2\n      swap1\n      tag_16\n      jump\t// in\n    tag_22:\n      mload(0x40)\n      dup1\n      swap2\n      sub\n      swap1\n      return\n        /* \"contracts/PersonsContract.sol\":334:472  function setPerson(string memory _name,uint32 _age) public {... */\n    tag_10:\n        /* \"contracts/PersonsContract.sol\":411:416  _name */\n      dup2\n        /* \"contracts/PersonsContract.sol\":403:405  p1 */\n      0x00\n        /* \"contracts/PersonsContract.sol\":403:410  p1.name */\n      dup1\n      add\n        /* \"contracts/PersonsContract.sol\":403:416  p1.name=_name */\n      swap1\n      dup2\n      tag_24\n      swap2\n      swap1\n      tag_25\n      jump\t// in\n    tag_24:\n      pop\n        /* \"contracts/PersonsContract.sol\":433:437  _age */\n      dup1\n        /* \"contracts/PersonsContract.sol\":426:428  p1 */\n      0x00\n        /* \"contracts/PersonsContract.sol\":426:432  p1.age */\n      0x01\n      add\n      0x00\n        /* \"contracts/PersonsContract.sol\":426:437  p1.age=_age */\n      0x0100\n      exp\n      dup2\n      sload\n      dup2\n      0xffffffff\n      mul\n      not\n      and\n      swap1\n      dup4\n      0xffffffff\n      and\n      mul\n      or\n      swap1\n      sstore\n      pop\n        /* \"contracts/PersonsContract.sol\":455:465  msg.sender */\n      caller\n        /* \"contracts/PersonsContract.sol\":447:449  p1 */\n      0x00\n        /* \"contracts/PersonsContract.sol\":447:453  p1.add */\n      0x01\n      add\n      0x04\n        /* \"contracts/PersonsContract.sol\":447:465  p1.add= msg.sender */\n      0x0100\n      exp\n      dup2\n      sload\n      dup2\n      0xffffffffffffffffffffffffffffffffffffffff\n      mul\n      not\n      and\n      swap1\n      dup4\n      0xffffffffffffffffffffffffffffffffffffffff\n      and\n      mul\n      or\n      swap1\n      sstore\n      pop\n        /* \"contracts/PersonsContract.sol\":334:472  function setPerson(string memory _name,uint32 _age) public {... */\n      pop\n      pop\n      jump\t// out\n        /* \"contracts/PersonsContract.sol\":203:250  mapping (address=>person) public Personcontract */\n    tag_14:\n      mstore(0x20, 0x02)\n      dup1\n      0x00\n      mstore\n      keccak256(0x00, 0x40)\n      0x00\n      swap2\n      pop\n      swap1\n      pop\n      dup1\n      0x00\n      add\n      dup1\n      sload\n      tag_26\n      swap1\n      tag_27\n      jump\t// in\n    tag_26:\n      dup1\n      0x1f\n      add\n      0x20\n      dup1\n      swap2\n      div\n      mul\n      0x20\n      add\n      mload(0x40)\n      swap1\n      dup2\n      add\n      0x40\n      mstore\n      dup1\n      swap3\n      swap2\n      swap1\n      dup2\n      dup2\n      mstore\n      0x20\n      add\n      dup3\n      dup1\n      sload\n      tag_28\n      swap1\n      tag_27\n      jump\t// in\n    tag_28:\n      dup1\n      iszero\n      tag_29\n      jumpi\n      dup1\n      0x1f\n      lt\n      tag_30\n      jumpi\n      0x0100\n      dup1\n      dup4\n      sload\n      div\n      mul\n      dup4\n      mstore\n      swap2\n      0x20\n      add\n      swap2\n      jump(tag_29)\n    tag_30:\n      dup3\n      add\n      swap2\n      swap1\n      0x00\n      mstore\n      keccak256(0x00, 0x20)\n      swap1\n    tag_31:\n      dup2\n      sload\n      dup2\n      mstore\n      swap1\n      0x01\n      add\n      swap1\n      0x20\n      add\n      dup1\n      dup4\n      gt\n      tag_31\n      jumpi\n      dup3\n      swap1\n      sub\n      0x1f\n      and\n      dup3\n      add\n      swap2\n    tag_29:\n      pop\n      pop\n      pop\n      pop\n      pop\n      swap1\n      dup1\n      0x01\n      add\n      0x00\n      swap1\n      sload\n      swap1\n      0x0100\n      exp\n      swap1\n      div\n      0xffffffff\n      and\n      swap1\n      dup1\n      0x01\n      add\n      0x04\n      swap1\n      sload\n      swap1\n      0x0100\n      exp\n      swap1\n      div\n      0xffffffffffffffffffffffffffffffffffffffff\n      and\n      swap1\n      pop\n      dup4\n      jump\t// out\n        /* \"contracts/PersonsContract.sol\":181:197  person public p1 */\n    tag_18:\n      0x00\n      dup1\n      0x00\n      add\n      dup1\n      sload\n      tag_32\n      swap1\n      tag_27\n      jump\t// in\n    tag_32:\n      dup1\n      0x1f\n      add\n      0x20\n      dup1\n      swap2\n      div\n      mul\n      0x20\n      add\n      mload(0x40)\n      swap1\n      dup2\n      add\n      0x40\n      mstore\n      dup1\n      swap3\n      swap2\n      swap1\n      dup2\n      dup2\n      mstore\n      0x20\n      add\n      dup3\n      dup1\n      sload\n      tag_33\n      swap1\n      tag_27\n      jump\t// in\n    tag_33:\n      dup1\n      iszero\n      tag_34\n      jumpi\n      dup1\n      0x1f\n      lt\n      tag_35\n      jumpi\n      0x0100\n      dup1\n      dup4\n      sload\n      div\n      mul\n      dup4\n      mstore\n      swap2\n      0x20\n      add\n      swap2\n      jump(tag_34)\n    tag_35:\n      dup3\n      add\n      swap2\n      swap1\n      0x00\n      mstore\n      keccak256(0x00, 0x20)\n      swap1\n    tag_36:\n      dup2\n      sload\n      dup2\n      mstore\n      swap1\n      0x01\n      add\n      swap1\n      0x20\n      add\n      dup1\n      dup4\n      gt\n      tag_36\n      jumpi\n      dup3\n      swap1\n      sub\n      0x1f\n      and\n      dup3\n      add\n      swap2\n    tag_34:\n      pop\n      pop\n      pop\n      pop\n      pop\n      swap1\n      dup1\n      0x01\n      add\n      0x00\n      swap1\n      sload\n      swap1\n      0x0100\n      exp\n      swap1\n      div\n      0xffffffff\n      and\n      swap1\n      dup1\n      0x01\n      add\n      0x04\n      swap1\n      sload\n      swap1\n      0x0100\n      exp\n      swap1\n      div\n      0xffffffffffffffffffffffffffffffffffffffff\n      and\n      swap1\n      pop\n      dup4\n      jump\t// out\n        /* \"contracts/PersonsContract.sol\":477:601  function getPersonDetails() public view returns(string memory,uint32,address){... */\n    tag_21:\n        /* \"contracts/PersonsContract.sol\":525:538  string memory */\n      0x60\n        /* \"contracts/PersonsContract.sol\":539:545  uint32 */\n      0x00\n        /* \"contracts/PersonsContract.sol\":546:553  address */\n      dup1\n        /* \"contracts/PersonsContract.sol\":572:574  p1 */\n      0x00\n        /* \"contracts/PersonsContract.sol\":572:579  p1.name */\n      dup1\n      add\n        /* \"contracts/PersonsContract.sol\":580:582  p1 */\n      0x00\n        /* \"contracts/PersonsContract.sol\":580:586  p1.age */\n      0x01\n      add\n      0x00\n      swap1\n      sload\n      swap1\n      0x0100\n      exp\n      swap1\n      div\n      0xffffffff\n      and\n        /* \"contracts/PersonsContract.sol\":587:589  p1 */\n      0x00\n        /* \"contracts/PersonsContract.sol\":587:593  p1.add */\n      0x01\n      add\n      0x04\n      swap1\n      sload\n      swap1\n      0x0100\n      exp\n      swap1\n      div\n      0xffffffffffffffffffffffffffffffffffffffff\n      and\n        /* \"contracts/PersonsContract.sol\":564:594  return (p1.name,p1.age,p1.add) */\n      dup3\n      dup1\n      sload\n      tag_38\n      swap1\n      tag_27\n      jump\t// in\n    tag_38:\n      dup1\n      0x1f\n      add\n      0x20\n      dup1\n      swap2\n      div\n      mul\n      0x20\n      add\n      mload(0x40)\n      swap1\n      dup2\n      add\n      0x40\n      mstore\n      dup1\n      swap3\n      swap2\n      swap1\n      dup2\n      dup2\n      mstore\n      0x20\n      add\n      dup3\n      dup1\n      sload\n      tag_39\n      swap1\n      tag_27\n      jump\t// in\n    tag_39:\n      dup1\n      iszero\n      tag_40\n      jumpi\n      dup1\n      0x1f\n      lt\n      tag_41\n      jumpi\n      0x0100\n      dup1\n      dup4\n      sload\n      div\n      mul\n      dup4\n      mstore\n      swap2\n      0x20\n      add\n      swap2\n      jump(tag_40)\n    tag_41:\n      dup3\n      add\n      swap2\n      swap1\n      0x00\n      mstore\n      keccak256(0x00, 0x20)\n      swap1\n    tag_42:\n      dup2\n      sload\n      dup2\n      mstore\n      swap1\n      0x01\n      add\n      swap1\n      0x20\n      add\n      dup1\n      dup4\n      gt\n      tag_42\n      jumpi\n      dup3\n      swap1\n      sub\n      0x1f\n      and\n      dup3\n      add\n      swap2\n    tag_40:\n      pop\n      pop\n      pop\n      pop\n      pop\n      swap3\n      pop\n      swap3\n      pop\n      swap3\n      pop\n      swap3\n      pop\n        /* \"contracts/PersonsContract.sol\":477:601  function getPersonDetails() public view returns(string memory,uint32,address){... */\n      swap1\n      swap2\n      swap3\n      jump\t// out\n        /* \"#utility.yul\":7:82   */\n    tag_43:\n        /* \"#utility.yul\":40:46   */\n      0x00\n        /* \"#utility.yul\":73:75   */\n      0x40\n        /* \"#utility.yul\":67:76   */\n      mload\n        /* \"#utility.yul\":57:76   */\n      swap1\n      pop\n        /* \"#utility.yul\":7:82   */\n      swap1\n      jump\t// out\n        /* \"#utility.yul\":88:205   */\n    tag_44:\n        /* \"#utility.yul\":197:198   */\n      0x00\n        /* \"#utility.yul\":194:195   */\n      dup1\n        /* \"#utility.yul\":187:199   */\n      revert\n        /* \"#utility.yul\":211:328   */\n    tag_45:\n        /* \"#utility.yul\":320:321   */\n      0x00\n        /* \"#utility.yul\":317:318   */\n      dup1\n        /* \"#utility.yul\":310:322   */\n      revert\n        /* \"#utility.yul\":334:451   */\n    tag_46:\n        /* \"#utility.yul\":443:444   */\n      0x00\n        /* \"#utility.yul\":440:441   */\n      dup1\n        /* \"#utility.yul\":433:445   */\n      revert\n        /* \"#utility.yul\":457:574   */\n    tag_47:\n        /* \"#utility.yul\":566:567   */\n      0x00\n        /* \"#utility.yul\":563:564   */\n      dup1\n        /* \"#utility.yul\":556:568   */\n      revert\n        /* \"#utility.yul\":580:682   */\n    tag_48:\n        /* \"#utility.yul\":621:627   */\n      0x00\n        /* \"#utility.yul\":672:674   */\n      0x1f\n        /* \"#utility.yul\":668:675   */\n      not\n        /* \"#utility.yul\":663:665   */\n      0x1f\n        /* \"#utility.yul\":656:661   */\n      dup4\n        /* \"#utility.yul\":652:666   */\n      add\n        /* \"#utility.yul\":648:676   */\n      and\n        /* \"#utility.yul\":638:676   */\n      swap1\n      pop\n        /* \"#utility.yul\":580:682   */\n      swap2\n      swap1\n      pop\n      jump\t// out\n        /* \"#utility.yul\":688:868   */\n    tag_49:\n        /* \"#utility.yul\":736:813   */\n      0x4e487b7100000000000000000000000000000000000000000000000000000000\n        /* \"#utility.yul\":733:734   */\n      0x00\n        /* \"#utility.yul\":726:814   */\n      mstore\n        /* \"#utility.yul\":833:837   */\n      0x41\n        /* \"#utility.yul\":830:831   */\n      0x04\n        /* \"#utility.yul\":823:838   */\n      mstore\n        /* \"#utility.yul\":857:861   */\n      0x24\n        /* \"#utility.yul\":854:855   */\n      0x00\n        /* \"#utility.yul\":847:862   */\n      revert\n        /* \"#utility.yul\":874:1155   */\n    tag_50:\n        /* \"#utility.yul\":957:984   */\n      tag_95\n        /* \"#utility.yul\":979:983   */\n      dup3\n        /* \"#utility.yul\":957:984   */\n      tag_48\n      jump\t// in\n    tag_95:\n        /* \"#utility.yul\":949:955   */\n      dup2\n        /* \"#utility.yul\":945:985   */\n      add\n        /* \"#utility.yul\":1087:1093   */\n      dup2\n        /* \"#utility.yul\":1075:1085   */\n      dup2\n        /* \"#utility.yul\":1072:1094   */\n      lt\n        /* \"#utility.yul\":1051:1069   */\n      0xffffffffffffffff\n        /* \"#utility.yul\":1039:1049   */\n      dup3\n        /* \"#utility.yul\":1036:1070   */\n      gt\n        /* \"#utility.yul\":1033:1095   */\n      or\n        /* \"#utility.yul\":1030:1118   */\n      iszero\n      tag_96\n      jumpi\n        /* \"#utility.yul\":1098:1116   */\n      tag_97\n      tag_49\n      jump\t// in\n    tag_97:\n        /* \"#utility.yul\":1030:1118   */\n    tag_96:\n        /* \"#utility.yul\":1138:1148   */\n      dup1\n        /* \"#utility.yul\":1134:1136   */\n      0x40\n        /* \"#utility.yul\":1127:1149   */\n      mstore\n        /* \"#utility.yul\":917:1155   */\n      pop\n        /* \"#utility.yul\":874:1155   */\n      pop\n      pop\n      jump\t// out\n        /* \"#utility.yul\":1161:1290   */\n    tag_51:\n        /* \"#utility.yul\":1195:1201   */\n      0x00\n        /* \"#utility.yul\":1222:1242   */\n      tag_99\n      tag_43\n      jump\t// in\n    tag_99:\n        /* \"#utility.yul\":1212:1242   */\n      swap1\n      pop\n        /* \"#utility.yul\":1251:1284   */\n      tag_100\n        /* \"#utility.yul\":1279:1283   */\n      dup3\n        /* \"#utility.yul\":1271:1277   */\n      dup3\n        /* \"#utility.yul\":1251:1284   */\n      tag_50\n      jump\t// in\n    tag_100:\n        /* \"#utility.yul\":1161:1290   */\n      swap2\n      swap1\n      pop\n      jump\t// out\n        /* \"#utility.yul\":1296:1604   */\n    tag_52:\n        /* \"#utility.yul\":1358:1362   */\n      0x00\n        /* \"#utility.yul\":1448:1466   */\n      0xffffffffffffffff\n        /* \"#utility.yul\":1440:1446   */\n      dup3\n        /* \"#utility.yul\":1437:1467   */\n      gt\n        /* \"#utility.yul\":1434:1490   */\n      iszero\n      tag_102\n      jumpi\n        /* \"#utility.yul\":1470:1488   */\n      tag_103\n      tag_49\n      jump\t// in\n    tag_103:\n        /* \"#utility.yul\":1434:1490   */\n    tag_102:\n        /* \"#utility.yul\":1508:1537   */\n      tag_104\n        /* \"#utility.yul\":1530:1536   */\n      dup3\n        /* \"#utility.yul\":1508:1537   */\n      tag_48\n      jump\t// in\n    tag_104:\n        /* \"#utility.yul\":1500:1537   */\n      swap1\n      pop\n        /* \"#utility.yul\":1592:1596   */\n      0x20\n        /* \"#utility.yul\":1586:1590   */\n      dup2\n        /* \"#utility.yul\":1582:1597   */\n      add\n        /* \"#utility.yul\":1574:1597   */\n      swap1\n      pop\n        /* \"#utility.yul\":1296:1604   */\n      swap2\n      swap1\n      pop\n      jump\t// out\n        /* \"#utility.yul\":1610:1756   */\n    tag_53:\n        /* \"#utility.yul\":1707:1713   */\n      dup3\n        /* \"#utility.yul\":1702:1705   */\n      dup2\n        /* \"#utility.yul\":1697:1700   */\n      dup4\n        /* \"#utility.yul\":1684:1714   */\n      calldatacopy\n        /* \"#utility.yul\":1748:1749   */\n      0x00\n        /* \"#utility.yul\":1739:1745   */\n      dup4\n        /* \"#utility.yul\":1734:1737   */\n      dup4\n        /* \"#utility.yul\":1730:1746   */\n      add\n        /* \"#utility.yul\":1723:1750   */\n      mstore\n        /* \"#utility.yul\":1610:1756   */\n      pop\n      pop\n      pop\n      jump\t// out\n        /* \"#utility.yul\":1762:2187   */\n    tag_54:\n        /* \"#utility.yul\":1840:1845   */\n      0x00\n        /* \"#utility.yul\":1865:1931   */\n      tag_107\n        /* \"#utility.yul\":1881:1930   */\n      tag_108\n        /* \"#utility.yul\":1923:1929   */\n      dup5\n        /* \"#utility.yul\":1881:1930   */\n      tag_52\n      jump\t// in\n    tag_108:\n        /* \"#utility.yul\":1865:1931   */\n      tag_51\n      jump\t// in\n    tag_107:\n        /* \"#utility.yul\":1856:1931   */\n      swap1\n      pop\n        /* \"#utility.yul\":1954:1960   */\n      dup3\n        /* \"#utility.yul\":1947:1952   */\n      dup2\n        /* \"#utility.yul\":1940:1961   */\n      mstore\n        /* \"#utility.yul\":1992:1996   */\n      0x20\n        /* \"#utility.yul\":1985:1990   */\n      dup2\n        /* \"#utility.yul\":1981:1997   */\n      add\n        /* \"#utility.yul\":2030:2033   */\n      dup5\n        /* \"#utility.yul\":2021:2027   */\n      dup5\n        /* \"#utility.yul\":2016:2019   */\n      dup5\n        /* \"#utility.yul\":2012:2028   */\n      add\n        /* \"#utility.yul\":2009:2034   */\n      gt\n        /* \"#utility.yul\":2006:2118   */\n      iszero\n      tag_109\n      jumpi\n        /* \"#utility.yul\":2037:2116   */\n      tag_110\n      tag_47\n      jump\t// in\n    tag_110:\n        /* \"#utility.yul\":2006:2118   */\n    tag_109:\n        /* \"#utility.yul\":2127:2181   */\n      tag_111\n        /* \"#utility.yul\":2174:2180   */\n      dup5\n        /* \"#utility.yul\":2169:2172   */\n      dup3\n        /* \"#utility.yul\":2164:2167   */\n      dup6\n        /* \"#utility.yul\":2127:2181   */\n      tag_53\n      jump\t// in\n    tag_111:\n        /* \"#utility.yul\":1846:2187   */\n      pop\n        /* \"#utility.yul\":1762:2187   */\n      swap4\n      swap3\n      pop\n      pop\n      pop\n      jump\t// out\n        /* \"#utility.yul\":2207:2547   */\n    tag_55:\n        /* \"#utility.yul\":2263:2268   */\n      0x00\n        /* \"#utility.yul\":2312:2315   */\n      dup3\n        /* \"#utility.yul\":2305:2309   */\n      0x1f\n        /* \"#utility.yul\":2297:2303   */\n      dup4\n        /* \"#utility.yul\":2293:2310   */\n      add\n        /* \"#utility.yul\":2289:2316   */\n      slt\n        /* \"#utility.yul\":2279:2401   */\n      tag_113\n      jumpi\n        /* \"#utility.yul\":2320:2399   */\n      tag_114\n      tag_46\n      jump\t// in\n    tag_114:\n        /* \"#utility.yul\":2279:2401   */\n    tag_113:\n        /* \"#utility.yul\":2437:2443   */\n      dup2\n        /* \"#utility.yul\":2424:2444   */\n      calldataload\n        /* \"#utility.yul\":2462:2541   */\n      tag_115\n        /* \"#utility.yul\":2537:2540   */\n      dup5\n        /* \"#utility.yul\":2529:2535   */\n      dup3\n        /* \"#utility.yul\":2522:2526   */\n      0x20\n        /* \"#utility.yul\":2514:2520   */\n      dup7\n        /* \"#utility.yul\":2510:2527   */\n      add\n        /* \"#utility.yul\":2462:2541   */\n      tag_54\n      jump\t// in\n    tag_115:\n        /* \"#utility.yul\":2453:2541   */\n      swap2\n      pop\n        /* \"#utility.yul\":2269:2547   */\n      pop\n        /* \"#utility.yul\":2207:2547   */\n      swap3\n      swap2\n      pop\n      pop\n      jump\t// out\n        /* \"#utility.yul\":2553:2646   */\n    tag_56:\n        /* \"#utility.yul\":2589:2596   */\n      0x00\n        /* \"#utility.yul\":2629:2639   */\n      0xffffffff\n        /* \"#utility.yul\":2622:2627   */\n      dup3\n        /* \"#utility.yul\":2618:2640   */\n      and\n        /* \"#utility.yul\":2607:2640   */\n      swap1\n      pop\n        /* \"#utility.yul\":2553:2646   */\n      swap2\n      swap1\n      pop\n      jump\t// out\n        /* \"#utility.yul\":2652:2772   */\n    tag_57:\n        /* \"#utility.yul\":2724:2747   */\n      tag_118\n        /* \"#utility.yul\":2741:2746   */\n      dup2\n        /* \"#utility.yul\":2724:2747   */\n      tag_56\n      jump\t// in\n    tag_118:\n        /* \"#utility.yul\":2717:2722   */\n      dup2\n        /* \"#utility.yul\":2714:2748   */\n      eq\n        /* \"#utility.yul\":2704:2766   */\n      tag_119\n      jumpi\n        /* \"#utility.yul\":2762:2763   */\n      0x00\n        /* \"#utility.yul\":2759:2760   */\n      dup1\n        /* \"#utility.yul\":2752:2764   */\n      revert\n        /* \"#utility.yul\":2704:2766   */\n    tag_119:\n        /* \"#utility.yul\":2652:2772   */\n      pop\n      jump\t// out\n        /* \"#utility.yul\":2778:2915   */\n    tag_58:\n        /* \"#utility.yul\":2823:2828   */\n      0x00\n        /* \"#utility.yul\":2861:2867   */\n      dup2\n        /* \"#utility.yul\":2848:2868   */\n      calldataload\n        /* \"#utility.yul\":2839:2868   */\n      swap1\n      pop\n        /* \"#utility.yul\":2877:2909   */\n      tag_121\n        /* \"#utility.yul\":2903:2908   */\n      dup2\n        /* \"#utility.yul\":2877:2909   */\n      tag_57\n      jump\t// in\n    tag_121:\n        /* \"#utility.yul\":2778:2915   */\n      swap3\n      swap2\n      pop\n      pop\n      jump\t// out\n        /* \"#utility.yul\":2921:3573   */\n    tag_9:\n        /* \"#utility.yul\":2998:3004   */\n      0x00\n        /* \"#utility.yul\":3006:3012   */\n      dup1\n        /* \"#utility.yul\":3055:3057   */\n      0x40\n        /* \"#utility.yul\":3043:3052   */\n      dup4\n        /* \"#utility.yul\":3034:3041   */\n      dup6\n        /* \"#utility.yul\":3030:3053   */\n      sub\n        /* \"#utility.yul\":3026:3058   */\n      slt\n        /* \"#utility.yul\":3023:3142   */\n      iszero\n      tag_123\n      jumpi\n        /* \"#utility.yul\":3061:3140   */\n      tag_124\n      tag_44\n      jump\t// in\n    tag_124:\n        /* \"#utility.yul\":3023:3142   */\n    tag_123:\n        /* \"#utility.yul\":3209:3210   */\n      0x00\n        /* \"#utility.yul\":3198:3207   */\n      dup4\n        /* \"#utility.yul\":3194:3211   */\n      add\n        /* \"#utility.yul\":3181:3212   */\n      calldataload\n        /* \"#utility.yul\":3239:3257   */\n      0xffffffffffffffff\n        /* \"#utility.yul\":3231:3237   */\n      dup2\n        /* \"#utility.yul\":3228:3258   */\n      gt\n        /* \"#utility.yul\":3225:3342   */\n      iszero\n      tag_125\n      jumpi\n        /* \"#utility.yul\":3261:3340   */\n      tag_126\n      tag_45\n      jump\t// in\n    tag_126:\n        /* \"#utility.yul\":3225:3342   */\n    tag_125:\n        /* \"#utility.yul\":3366:3429   */\n      tag_127\n        /* \"#utility.yul\":3421:3428   */\n      dup6\n        /* \"#utility.yul\":3412:3418   */\n      dup3\n        /* \"#utility.yul\":3401:3410   */\n      dup7\n        /* \"#utility.yul\":3397:3419   */\n      add\n        /* \"#utility.yul\":3366:3429   */\n      tag_55\n      jump\t// in\n    tag_127:\n        /* \"#utility.yul\":3356:3429   */\n      swap3\n      pop\n        /* \"#utility.yul\":3152:3439   */\n      pop\n        /* \"#utility.yul\":3478:3480   */\n      0x20\n        /* \"#utility.yul\":3504:3556   */\n      tag_128\n        /* \"#utility.yul\":3548:3555   */\n      dup6\n        /* \"#utility.yul\":3539:3545   */\n      dup3\n        /* \"#utility.yul\":3528:3537   */\n      dup7\n        /* \"#utility.yul\":3524:3546   */\n      add\n        /* \"#utility.yul\":3504:3556   */\n      tag_58\n      jump\t// in\n    tag_128:\n        /* \"#utility.yul\":3494:3556   */\n      swap2\n      pop\n        /* \"#utility.yul\":3449:3566   */\n      pop\n        /* \"#utility.yul\":2921:3573   */\n      swap3\n      pop\n      swap3\n      swap1\n      pop\n      jump\t// out\n        /* \"#utility.yul\":3579:3705   */\n    tag_59:\n        /* \"#utility.yul\":3616:3623   */\n      0x00\n        /* \"#utility.yul\":3656:3698   */\n      0xffffffffffffffffffffffffffffffffffffffff\n        /* \"#utility.yul\":3649:3654   */\n      dup3\n        /* \"#utility.yul\":3645:3699   */\n      and\n        /* \"#utility.yul\":3634:3699   */\n      swap1\n      pop\n        /* \"#utility.yul\":3579:3705   */\n      swap2\n      swap1\n      pop\n      jump\t// out\n        /* \"#utility.yul\":3711:3807   */\n    tag_60:\n        /* \"#utility.yul\":3748:3755   */\n      0x00\n        /* \"#utility.yul\":3777:3801   */\n      tag_131\n        /* \"#utility.yul\":3795:3800   */\n      dup3\n        /* \"#utility.yul\":3777:3801   */\n      tag_59\n      jump\t// in\n    tag_131:\n        /* \"#utility.yul\":3766:3801   */\n      swap1\n      pop\n        /* \"#utility.yul\":3711:3807   */\n      swap2\n      swap1\n      pop\n      jump\t// out\n        /* \"#utility.yul\":3813:3935   */\n    tag_61:\n        /* \"#utility.yul\":3886:3910   */\n      tag_133\n        /* \"#utility.yul\":3904:3909   */\n      dup2\n        /* \"#utility.yul\":3886:3910   */\n      tag_60\n      jump\t// in\n    tag_133:\n        /* \"#utility.yul\":3879:3884   */\n      dup2\n        /* \"#utility.yul\":3876:3911   */\n      eq\n        /* \"#utility.yul\":3866:3929   */\n      tag_134\n      jumpi\n        /* \"#utility.yul\":3925:3926   */\n      0x00\n        /* \"#utility.yul\":3922:3923   */\n      dup1\n        /* \"#utility.yul\":3915:3927   */\n      revert\n        /* \"#utility.yul\":3866:3929   */\n    tag_134:\n        /* \"#utility.yul\":3813:3935   */\n      pop\n      jump\t// out\n        /* \"#utility.yul\":3941:4080   */\n    tag_62:\n        /* \"#utility.yul\":3987:3992   */\n      0x00\n        /* \"#utility.yul\":4025:4031   */\n      dup2\n        /* \"#utility.yul\":4012:4032   */\n      calldataload\n        /* \"#utility.yul\":4003:4032   */\n      swap1\n      pop\n        /* \"#utility.yul\":4041:4074   */\n      tag_136\n        /* \"#utility.yul\":4068:4073   */\n      dup2\n        /* \"#utility.yul\":4041:4074   */\n      tag_61\n      jump\t// in\n    tag_136:\n        /* \"#utility.yul\":3941:4080   */\n      swap3\n      swap2\n      pop\n      pop\n      jump\t// out\n        /* \"#utility.yul\":4086:4415   */\n    tag_13:\n        /* \"#utility.yul\":4145:4151   */\n      0x00\n        /* \"#utility.yul\":4194:4196   */\n      0x20\n        /* \"#utility.yul\":4182:4191   */\n      dup3\n        /* \"#utility.yul\":4173:4180   */\n      dup5\n        /* \"#utility.yul\":4169:4192   */\n      sub\n        /* \"#utility.yul\":4165:4197   */\n      slt\n        /* \"#utility.yul\":4162:4281   */\n      iszero\n      tag_138\n      jumpi\n        /* \"#utility.yul\":4200:4279   */\n      tag_139\n      tag_44\n      jump\t// in\n    tag_139:\n        /* \"#utility.yul\":4162:4281   */\n    tag_138:\n        /* \"#utility.yul\":4320:4321   */\n      0x00\n        /* \"#utility.yul\":4345:4398   */\n      tag_140\n        /* \"#utility.yul\":4390:4397   */\n      dup5\n        /* \"#utility.yul\":4381:4387   */\n      dup3\n        /* \"#utility.yul\":4370:4379   */\n      dup6\n        /* \"#utility.yul\":4366:4388   */\n      add\n        /* \"#utility.yul\":4345:4398   */\n      tag_62\n      jump\t// in\n    tag_140:\n        /* \"#utility.yul\":4335:4398   */\n      swap2\n      pop\n        /* \"#utility.yul\":4291:4408   */\n      pop\n        /* \"#utility.yul\":4086:4415   */\n      swap3\n      swap2\n      pop\n      pop\n      jump\t// out\n        /* \"#utility.yul\":4421:4520   */\n    tag_63:\n        /* \"#utility.yul\":4473:4479   */\n      0x00\n        /* \"#utility.yul\":4507:4512   */\n      dup2\n        /* \"#utility.yul\":4501:4513   */\n      mload\n        /* \"#utility.yul\":4491:4513   */\n      swap1\n      pop\n        /* \"#utility.yul\":4421:4520   */\n      swap2\n      swap1\n      pop\n      jump\t// out\n        /* \"#utility.yul\":4526:4695   */\n    tag_64:\n        /* \"#utility.yul\":4610:4621   */\n      0x00\n        /* \"#utility.yul\":4644:4650   */\n      dup3\n        /* \"#utility.yul\":4639:4642   */\n      dup3\n        /* \"#utility.yul\":4632:4651   */\n      mstore\n        /* \"#utility.yul\":4684:4688   */\n      0x20\n        /* \"#utility.yul\":4679:4682   */\n      dup3\n        /* \"#utility.yul\":4675:4689   */\n      add\n        /* \"#utility.yul\":4660:4689   */\n      swap1\n      pop\n        /* \"#utility.yul\":4526:4695   */\n      swap3\n      swap2\n      pop\n      pop\n      jump\t// out\n        /* \"#utility.yul\":4701:4947   */\n    tag_65:\n        /* \"#utility.yul\":4782:4783   */\n      0x00\n        /* \"#utility.yul\":4792:4905   */\n    tag_144:\n        /* \"#utility.yul\":4806:4812   */\n      dup4\n        /* \"#utility.yul\":4803:4804   */\n      dup2\n        /* \"#utility.yul\":4800:4813   */\n      lt\n        /* \"#utility.yul\":4792:4905   */\n      iszero\n      tag_146\n      jumpi\n        /* \"#utility.yul\":4891:4892   */\n      dup1\n        /* \"#utility.yul\":4886:4889   */\n      dup3\n        /* \"#utility.yul\":4882:4893   */\n      add\n        /* \"#utility.yul\":4876:4894   */\n      mload\n        /* \"#utility.yul\":4872:4873   */\n      dup2\n        /* \"#utility.yul\":4867:4870   */\n      dup5\n        /* \"#utility.yul\":4863:4874   */\n      add\n        /* \"#utility.yul\":4856:4895   */\n      mstore\n        /* \"#utility.yul\":4828:4830   */\n      0x20\n        /* \"#utility.yul\":4825:4826   */\n      dup2\n        /* \"#utility.yul\":4821:4831   */\n      add\n        /* \"#utility.yul\":4816:4831   */\n      swap1\n      pop\n        /* \"#utility.yul\":4792:4905   */\n      jump(tag_144)\n    tag_146:\n        /* \"#utility.yul\":4939:4940   */\n      0x00\n        /* \"#utility.yul\":4930:4936   */\n      dup5\n        /* \"#utility.yul\":4925:4928   */\n      dup5\n        /* \"#utility.yul\":4921:4937   */\n      add\n        /* \"#utility.yul\":4914:4941   */\n      mstore\n        /* \"#utility.yul\":4763:4947   */\n      pop\n        /* \"#utility.yul\":4701:4947   */\n      pop\n      pop\n      pop\n      jump\t// out\n        /* \"#utility.yul\":4953:5330   */\n    tag_66:\n        /* \"#utility.yul\":5041:5044   */\n      0x00\n        /* \"#utility.yul\":5069:5108   */\n      tag_148\n        /* \"#utility.yul\":5102:5107   */\n      dup3\n        /* \"#utility.yul\":5069:5108   */\n      tag_63\n      jump\t// in\n    tag_148:\n        /* \"#utility.yul\":5124:5195   */\n      tag_149\n        /* \"#utility.yul\":5188:5194   */\n      dup2\n        /* \"#utility.yul\":5183:5186   */\n      dup6\n        /* \"#utility.yul\":5124:5195   */\n      tag_64\n      jump\t// in\n    tag_149:\n        /* \"#utility.yul\":5117:5195   */\n      swap4\n      pop\n        /* \"#utility.yul\":5204:5269   */\n      tag_150\n        /* \"#utility.yul\":5262:5268   */\n      dup2\n        /* \"#utility.yul\":5257:5260   */\n      dup6\n        /* \"#utility.yul\":5250:5254   */\n      0x20\n        /* \"#utility.yul\":5243:5248   */\n      dup7\n        /* \"#utility.yul\":5239:5255   */\n      add\n        /* \"#utility.yul\":5204:5269   */\n      tag_65\n      jump\t// in\n    tag_150:\n        /* \"#utility.yul\":5294:5323   */\n      tag_151\n        /* \"#utility.yul\":5316:5322   */\n      dup2\n        /* \"#utility.yul\":5294:5323   */\n      tag_48\n      jump\t// in\n    tag_151:\n        /* \"#utility.yul\":5289:5292   */\n      dup5\n        /* \"#utility.yul\":5285:5324   */\n      add\n        /* \"#utility.yul\":5278:5324   */\n      swap2\n      pop\n        /* \"#utility.yul\":5045:5330   */\n      pop\n        /* \"#utility.yul\":4953:5330   */\n      swap3\n      swap2\n      pop\n      pop\n      jump\t// out\n        /* \"#utility.yul\":5336:5451   */\n    tag_67:\n        /* \"#utility.yul\":5421:5444   */\n      tag_153\n        /* \"#utility.yul\":5438:5443   */\n      dup2\n        /* \"#utility.yul\":5421:5444   */\n      tag_56\n      jump\t// in\n    tag_153:\n        /* \"#utility.yul\":5416:5419   */\n      dup3\n        /* \"#utility.yul\":5409:5445   */\n      mstore\n        /* \"#utility.yul\":5336:5451   */\n      pop\n      pop\n      jump\t// out\n        /* \"#utility.yul\":5457:5575   */\n    tag_68:\n        /* \"#utility.yul\":5544:5568   */\n      tag_155\n        /* \"#utility.yul\":5562:5567   */\n      dup2\n        /* \"#utility.yul\":5544:5568   */\n      tag_60\n      jump\t// in\n    tag_155:\n        /* \"#utility.yul\":5539:5542   */\n      dup3\n        /* \"#utility.yul\":5532:5569   */\n      mstore\n        /* \"#utility.yul\":5457:5575   */\n      pop\n      pop\n      jump\t// out\n        /* \"#utility.yul\":5581:6110   */\n    tag_16:\n        /* \"#utility.yul\":5748:5752   */\n      0x00\n        /* \"#utility.yul\":5786:5788   */\n      0x60\n        /* \"#utility.yul\":5775:5784   */\n      dup3\n        /* \"#utility.yul\":5771:5789   */\n      add\n        /* \"#utility.yul\":5763:5789   */\n      swap1\n      pop\n        /* \"#utility.yul\":5835:5844   */\n      dup2\n        /* \"#utility.yul\":5829:5833   */\n      dup2\n        /* \"#utility.yul\":5825:5845   */\n      sub\n        /* \"#utility.yul\":5821:5822   */\n      0x00\n        /* \"#utility.yul\":5810:5819   */\n      dup4\n        /* \"#utility.yul\":5806:5823   */\n      add\n        /* \"#utility.yul\":5799:5846   */\n      mstore\n        /* \"#utility.yul\":5863:5941   */\n      tag_157\n        /* \"#utility.yul\":5936:5940   */\n      dup2\n        /* \"#utility.yul\":5927:5933   */\n      dup7\n        /* \"#utility.yul\":5863:5941   */\n      tag_66\n      jump\t// in\n    tag_157:\n        /* \"#utility.yul\":5855:5941   */\n      swap1\n      pop\n        /* \"#utility.yul\":5951:6021   */\n      tag_158\n        /* \"#utility.yul\":6017:6019   */\n      0x20\n        /* \"#utility.yul\":6006:6015   */\n      dup4\n        /* \"#utility.yul\":6002:6020   */\n      add\n        /* \"#utility.yul\":5993:5999   */\n      dup6\n        /* \"#utility.yul\":5951:6021   */\n      tag_67\n      jump\t// in\n    tag_158:\n        /* \"#utility.yul\":6031:6103   */\n      tag_159\n        /* \"#utility.yul\":6099:6101   */\n      0x40\n        /* \"#utility.yul\":6088:6097   */\n      dup4\n        /* \"#utility.yul\":6084:6102   */\n      add\n        /* \"#utility.yul\":6075:6081   */\n      dup5\n        /* \"#utility.yul\":6031:6103   */\n      tag_68\n      jump\t// in\n    tag_159:\n        /* \"#utility.yul\":5581:6110   */\n      swap5\n      swap4\n      pop\n      pop\n      pop\n      pop\n      jump\t// out\n        /* \"#utility.yul\":6116:6296   */\n    tag_69:\n        /* \"#utility.yul\":6164:6241   */\n      0x4e487b7100000000000000000000000000000000000000000000000000000000\n        /* \"#utility.yul\":6161:6162   */\n      0x00\n        /* \"#utility.yul\":6154:6242   */\n      mstore\n        /* \"#utility.yul\":6261:6265   */\n      0x22\n        /* \"#utility.yul\":6258:6259   */\n      0x04\n        /* \"#utility.yul\":6251:6266   */\n      mstore\n        /* \"#utility.yul\":6285:6289   */\n      0x24\n        /* \"#utility.yul\":6282:6283   */\n      0x00\n        /* \"#utility.yul\":6275:6290   */\n      revert\n        /* \"#utility.yul\":6302:6622   */\n    tag_27:\n        /* \"#utility.yul\":6346:6352   */\n      0x00\n        /* \"#utility.yul\":6383:6384   */\n      0x02\n        /* \"#utility.yul\":6377:6381   */\n      dup3\n        /* \"#utility.yul\":6373:6385   */\n      div\n        /* \"#utility.yul\":6363:6385   */\n      swap1\n      pop\n        /* \"#utility.yul\":6430:6431   */\n      0x01\n        /* \"#utility.yul\":6424:6428   */\n      dup3\n        /* \"#utility.yul\":6420:6432   */\n      and\n        /* \"#utility.yul\":6451:6469   */\n      dup1\n        /* \"#utility.yul\":6441:6522   */\n      tag_162\n      jumpi\n        /* \"#utility.yul\":6507:6511   */\n      0x7f\n        /* \"#utility.yul\":6499:6505   */\n      dup3\n        /* \"#utility.yul\":6495:6512   */\n      and\n        /* \"#utility.yul\":6485:6512   */\n      swap2\n      pop\n        /* \"#utility.yul\":6441:6522   */\n    tag_162:\n        /* \"#utility.yul\":6569:6571   */\n      0x20\n        /* \"#utility.yul\":6561:6567   */\n      dup3\n        /* \"#utility.yul\":6558:6572   */\n      lt\n        /* \"#utility.yul\":6538:6556   */\n      dup2\n        /* \"#utility.yul\":6535:6573   */\n      sub\n        /* \"#utility.yul\":6532:6616   */\n      tag_163\n      jumpi\n        /* \"#utility.yul\":6588:6606   */\n      tag_164\n      tag_69\n      jump\t// in\n    tag_164:\n        /* \"#utility.yul\":6532:6616   */\n    tag_163:\n        /* \"#utility.yul\":6353:6622   */\n      pop\n        /* \"#utility.yul\":6302:6622   */\n      swap2\n      swap1\n      pop\n      jump\t// out\n        /* \"#utility.yul\":6628:6769   */\n    tag_70:\n        /* \"#utility.yul\":6677:6681   */\n      0x00\n        /* \"#utility.yul\":6700:6703   */\n      dup2\n        /* \"#utility.yul\":6692:6703   */\n      swap1\n      pop\n        /* \"#utility.yul\":6723:6726   */\n      dup2\n        /* \"#utility.yul\":6720:6721   */\n      0x00\n        /* \"#utility.yul\":6713:6727   */\n      mstore\n        /* \"#utility.yul\":6757:6761   */\n      0x20\n        /* \"#utility.yul\":6754:6755   */\n      0x00\n        /* \"#utility.yul\":6744:6762   */\n      keccak256\n        /* \"#utility.yul\":6736:6762   */\n      swap1\n      pop\n        /* \"#utility.yul\":6628:6769   */\n      swap2\n      swap1\n      pop\n      jump\t// out\n        /* \"#utility.yul\":6775:6868   */\n    tag_71:\n        /* \"#utility.yul\":6812:6818   */\n      0x00\n        /* \"#utility.yul\":6859:6861   */\n      0x20\n        /* \"#utility.yul\":6854:6856   */\n      0x1f\n        /* \"#utility.yul\":6847:6852   */\n      dup4\n        /* \"#utility.yul\":6843:6857   */\n      add\n        /* \"#utility.yul\":6839:6862   */\n      div\n        /* \"#utility.yul\":6829:6862   */\n      swap1\n      pop\n        /* \"#utility.yul\":6775:6868   */\n      swap2\n      swap1\n      pop\n      jump\t// out\n        /* \"#utility.yul\":6874:6981   */\n    tag_72:\n        /* \"#utility.yul\":6918:6926   */\n      0x00\n        /* \"#utility.yul\":6968:6973   */\n      dup3\n        /* \"#utility.yul\":6962:6966   */\n      dup3\n        /* \"#utility.yul\":6958:6974   */\n      shl\n        /* \"#utility.yul\":6937:6974   */\n      swap1\n      pop\n        /* \"#utility.yul\":6874:6981   */\n      swap3\n      swap2\n      pop\n      pop\n      jump\t// out\n        /* \"#utility.yul\":6987:7380   */\n    tag_73:\n        /* \"#utility.yul\":7056:7062   */\n      0x00\n        /* \"#utility.yul\":7106:7107   */\n      0x08\n        /* \"#utility.yul\":7094:7104   */\n      dup4\n        /* \"#utility.yul\":7090:7108   */\n      mul\n        /* \"#utility.yul\":7129:7226   */\n      tag_169\n        /* \"#utility.yul\":7159:7225   */\n      0xffffffffffffffffffffffffffffffffffffffffffffffffffffffffffffffff\n        /* \"#utility.yul\":7148:7157   */\n      dup3\n        /* \"#utility.yul\":7129:7226   */\n      tag_72\n      jump\t// in\n    tag_169:\n        /* \"#utility.yul\":7247:7286   */\n      tag_170\n        /* \"#utility.yul\":7277:7285   */\n      dup7\n        /* \"#utility.yul\":7266:7275   */\n      dup4\n        /* \"#utility.yul\":7247:7286   */\n      tag_72\n      jump\t// in\n    tag_170:\n        /* \"#utility.yul\":7235:7286   */\n      swap6\n      pop\n        /* \"#utility.yul\":7319:7323   */\n      dup1\n        /* \"#utility.yul\":7315:7324   */\n      not\n        /* \"#utility.yul\":7308:7313   */\n      dup5\n        /* \"#utility.yul\":7304:7325   */\n      and\n        /* \"#utility.yul\":7295:7325   */\n      swap4\n      pop\n        /* \"#utility.yul\":7368:7372   */\n      dup1\n        /* \"#utility.yul\":7358:7366   */\n      dup7\n        /* \"#utility.yul\":7354:7373   */\n      and\n        /* \"#utility.yul\":7347:7352   */\n      dup5\n        /* \"#utility.yul\":7344:7374   */\n      or\n        /* \"#utility.yul\":7334:7374   */\n      swap3\n      pop\n        /* \"#utility.yul\":7063:7380   */\n      pop\n      pop\n        /* \"#utility.yul\":6987:7380   */\n      swap4\n      swap3\n      pop\n      pop\n      pop\n      jump\t// out\n        /* \"#utility.yul\":7386:7463   */\n    tag_74:\n        /* \"#utility.yul\":7423:7430   */\n      0x00\n        /* \"#utility.yul\":7452:7457   */\n      dup2\n        /* \"#utility.yul\":7441:7457   */\n      swap1\n      pop\n        /* \"#utility.yul\":7386:7463   */\n      swap2\n      swap1\n      pop\n      jump\t// out\n        /* \"#utility.yul\":7469:7529   */\n    tag_75:\n        /* \"#utility.yul\":7497:7500   */\n      0x00\n        /* \"#utility.yul\":7518:7523   */\n      dup2\n        /* \"#utility.yul\":7511:7523   */\n      swap1\n      pop\n        /* \"#utility.yul\":7469:7529   */\n      swap2\n      swap1\n      pop\n      jump\t// out\n        /* \"#utility.yul\":7535:7677   */\n    tag_76:\n        /* \"#utility.yul\":7585:7594   */\n      0x00\n        /* \"#utility.yul\":7618:7671   */\n      tag_174\n        /* \"#utility.yul\":7636:7670   */\n      tag_175\n        /* \"#utility.yul\":7645:7669   */\n      tag_176\n        /* \"#utility.yul\":7663:7668   */\n      dup5\n        /* \"#utility.yul\":7645:7669   */\n      tag_74\n      jump\t// in\n    tag_176:\n        /* \"#utility.yul\":7636:7670   */\n      tag_75\n      jump\t// in\n    tag_175:\n        /* \"#utility.yul\":7618:7671   */\n      tag_74\n      jump\t// in\n    tag_174:\n        /* \"#utility.yul\":7605:7671   */\n      swap1\n      pop\n        /* \"#utility.yul\":7535:7677   */\n      swap2\n      swap1\n      pop\n      jump\t// out\n        /* \"#utility.yul\":7683:7758   */\n    tag_77:\n        /* \"#utility.yul\":7726:7729   */\n      0x00\n        /* \"#utility.yul\":7747:7752   */\n      dup2\n        /* \"#utility.yul\":7740:7752   */\n      swap1\n      pop\n        /* \"#utility.yul\":7683:7758   */\n      swap2\n      swap1\n      pop\n      jump\t// out\n        /* \"#utility.yul\":7764:8033   */\n    tag_78:\n        /* \"#utility.yul\":7874:7913   */\n      tag_179\n        /* \"#utility.yul\":7905:7912   */\n      dup4\n        /* \"#utility.yul\":7874:7913   */\n      tag_76\n      jump\t// in\n    tag_179:\n        /* \"#utility.yul\":7935:8026   */\n      tag_180\n        /* \"#utility.yul\":7984:8025   */\n      tag_181\n        /* \"#utility.yul\":8008:8024   */\n      dup3\n        /* \"#utility.yul\":7984:8025   */\n      tag_77\n      jump\t// in\n    tag_181:\n        /* \"#utility.yul\":7976:7982   */\n      dup5\n        /* \"#utility.yul\":7969:7973   */\n      dup5\n        /* \"#utility.yul\":7963:7974   */\n      sload\n        /* \"#utility.yul\":7935:8026   */\n      tag_73\n      jump\t// in\n    tag_180:\n        /* \"#utility.yul\":7929:7933   */\n      dup3\n        /* \"#utility.yul\":7922:8027   */\n      sstore\n        /* \"#utility.yul\":7840:8033   */\n      pop\n        /* \"#utility.yul\":7764:8033   */\n      pop\n      pop\n      pop\n      jump\t// out\n        /* \"#utility.yul\":8039:8112   */\n    tag_79:\n        /* \"#utility.yul\":8084:8087   */\n      0x00\n        /* \"#utility.yul\":8039:8112   */\n      swap1\n      jump\t// out\n        /* \"#utility.yul\":8118:8307   */\n    tag_80:\n        /* \"#utility.yul\":8195:8227   */\n      tag_184\n      tag_79\n      jump\t// in\n    tag_184:\n        /* \"#utility.yul\":8236:8301   */\n      tag_185\n        /* \"#utility.yul\":8294:8300   */\n      dup2\n        /* \"#utility.yul\":8286:8292   */\n      dup5\n        /* \"#utility.yul\":8280:8284   */\n      dup5\n        /* \"#utility.yul\":8236:8301   */\n      tag_78\n      jump\t// in\n    tag_185:\n        /* \"#utility.yul\":8171:8307   */\n      pop\n        /* \"#utility.yul\":8118:8307   */\n      pop\n      pop\n      jump\t// out\n        /* \"#utility.yul\":8313:8499   */\n    tag_81:\n        /* \"#utility.yul\":8373:8493   */\n    tag_187:\n        /* \"#utility.yul\":8390:8393   */\n      dup2\n        /* \"#utility.yul\":8383:8388   */\n      dup2\n        /* \"#utility.yul\":8380:8394   */\n      lt\n        /* \"#utility.yul\":8373:8493   */\n      iszero\n      tag_189\n      jumpi\n        /* \"#utility.yul\":8444:8483   */\n      tag_190\n        /* \"#utility.yul\":8481:8482   */\n      0x00\n        /* \"#utility.yul\":8474:8479   */\n      dup3\n        /* \"#utility.yul\":8444:8483   */\n      tag_80\n      jump\t// in\n    tag_190:\n        /* \"#utility.yul\":8417:8418   */\n      0x01\n        /* \"#utility.yul\":8410:8415   */\n      dup2\n        /* \"#utility.yul\":8406:8419   */\n      add\n        /* \"#utility.yul\":8397:8419   */\n      swap1\n      pop\n        /* \"#utility.yul\":8373:8493   */\n      jump(tag_187)\n    tag_189:\n        /* \"#utility.yul\":8313:8499   */\n      pop\n      pop\n      jump\t// out\n        /* \"#utility.yul\":8505:9048   */\n    tag_82:\n        /* \"#utility.yul\":8606:8608   */\n      0x1f\n        /* \"#utility.yul\":8601:8604   */\n      dup3\n        /* \"#utility.yul\":8598:8609   */\n      gt\n        /* \"#utility.yul\":8595:9041   */\n      iszero\n      tag_192\n      jumpi\n        /* \"#utility.yul\":8640:8678   */\n      tag_193\n        /* \"#utility.yul\":8672:8677   */\n      dup2\n        /* \"#utility.yul\":8640:8678   */\n      tag_70\n      jump\t// in\n    tag_193:\n        /* \"#utility.yul\":8724:8753   */\n      tag_194\n        /* \"#utility.yul\":8742:8752   */\n      dup5\n        /* \"#utility.yul\":8724:8753   */\n      tag_71\n      jump\t// in\n    tag_194:\n        /* \"#utility.yul\":8714:8722   */\n      dup2\n        /* \"#utility.yul\":8710:8754   */\n      add\n        /* \"#utility.yul\":8907:8909   */\n      0x20\n        /* \"#utility.yul\":8895:8905   */\n      dup6\n        /* \"#utility.yul\":8892:8910   */\n      lt\n        /* \"#utility.yul\":8889:8938   */\n      iszero\n      tag_195\n      jumpi\n        /* \"#utility.yul\":8928:8936   */\n      dup2\n        /* \"#utility.yul\":8913:8936   */\n      swap1\n      pop\n        /* \"#utility.yul\":8889:8938   */\n    tag_195:\n        /* \"#utility.yul\":8951:9031   */\n      tag_196\n        /* \"#utility.yul\":9007:9029   */\n      tag_197\n        /* \"#utility.yul\":9025:9028   */\n      dup6\n        /* \"#utility.yul\":9007:9029   */\n      tag_71\n      jump\t// in\n    tag_197:\n        /* \"#utility.yul\":8997:9005   */\n      dup4\n        /* \"#utility.yul\":8993:9030   */\n      add\n        /* \"#utility.yul\":8980:8991   */\n      dup3\n        /* \"#utility.yul\":8951:9031   */\n      tag_81\n      jump\t// in\n    tag_196:\n        /* \"#utility.yul\":8610:9041   */\n      pop\n      pop\n        /* \"#utility.yul\":8595:9041   */\n    tag_192:\n        /* \"#utility.yul\":8505:9048   */\n      pop\n      pop\n      pop\n      jump\t// out\n        /* \"#utility.yul\":9054:9171   */\n    tag_83:\n        /* \"#utility.yul\":9108:9116   */\n      0x00\n        /* \"#utility.yul\":9158:9163   */\n      dup3\n        /* \"#utility.yul\":9152:9156   */\n      dup3\n        /* \"#utility.yul\":9148:9164   */\n      shr\n        /* \"#utility.yul\":9127:9164   */\n      swap1\n      pop\n        /* \"#utility.yul\":9054:9171   */\n      swap3\n      swap2\n      pop\n      pop\n      jump\t// out\n        /* \"#utility.yul\":9177:9346   */\n    tag_84:\n        /* \"#utility.yul\":9221:9227   */\n      0x00\n        /* \"#utility.yul\":9254:9305   */\n      tag_200\n        /* \"#utility.yul\":9302:9303   */\n      0x00\n        /* \"#utility.yul\":9298:9304   */\n      not\n        /* \"#utility.yul\":9290:9295   */\n      dup5\n        /* \"#utility.yul\":9287:9288   */\n      0x08\n        /* \"#utility.yul\":9283:9296   */\n      mul\n        /* \"#utility.yul\":9254:9305   */\n      tag_83\n      jump\t// in\n    tag_200:\n        /* \"#utility.yul\":9250:9306   */\n      not\n        /* \"#utility.yul\":9335:9339   */\n      dup1\n        /* \"#utility.yul\":9329:9333   */\n      dup4\n        /* \"#utility.yul\":9325:9340   */\n      and\n        /* \"#utility.yul\":9315:9340   */\n      swap2\n      pop\n        /* \"#utility.yul\":9228:9346   */\n      pop\n        /* \"#utility.yul\":9177:9346   */\n      swap3\n      swap2\n      pop\n      pop\n      jump\t// out\n        /* \"#utility.yul\":9351:9646   */\n    tag_85:\n        /* \"#utility.yul\":9427:9431   */\n      0x00\n        /* \"#utility.yul\":9573:9602   */\n      tag_202\n        /* \"#utility.yul\":9598:9601   */\n      dup4\n        /* \"#utility.yul\":9592:9596   */\n      dup4\n        /* \"#utility.yul\":9573:9602   */\n      tag_84\n      jump\t// in\n    tag_202:\n        /* \"#utility.yul\":9565:9602   */\n      swap2\n      pop\n        /* \"#utility.yul\":9635:9638   */\n      dup3\n        /* \"#utility.yul\":9632:9633   */\n      0x02\n        /* \"#utility.yul\":9628:9639   */\n      mul\n        /* \"#utility.yul\":9622:9626   */\n      dup3\n        /* \"#utility.yul\":9619:9640   */\n      or\n        /* \"#utility.yul\":9611:9640   */\n      swap1\n      pop\n        /* \"#utility.yul\":9351:9646   */\n      swap3\n      swap2\n      pop\n      pop\n      jump\t// out\n        /* \"#utility.yul\":9651:11046   */\n    tag_25:\n        /* \"#utility.yul\":9768:9805   */\n      tag_204\n        /* \"#utility.yul\":9801:9804   */\n      dup3\n        /* \"#utility.yul\":9768:9805   */\n      tag_63\n      jump\t// in\n    tag_204:\n        /* \"#utility.yul\":9870:9888   */\n      0xffffffffffffffff\n        /* \"#utility.yul\":9862:9868   */\n      dup2\n        /* \"#utility.yul\":9859:9889   */\n      gt\n        /* \"#utility.yul\":9856:9912   */\n      iszero\n      tag_205\n      jumpi\n        /* \"#utility.yul\":9892:9910   */\n      tag_206\n      tag_49\n      jump\t// in\n    tag_206:\n        /* \"#utility.yul\":9856:9912   */\n    tag_205:\n        /* \"#utility.yul\":9936:9974   */\n      tag_207\n        /* \"#utility.yul\":9968:9972   */\n      dup3\n        /* \"#utility.yul\":9962:9973   */\n      sload\n        /* \"#utility.yul\":9936:9974   */\n      tag_27\n      jump\t// in\n    tag_207:\n        /* \"#utility.yul\":10021:10088   */\n      tag_208\n        /* \"#utility.yul\":10081:10087   */\n      dup3\n        /* \"#utility.yul\":10073:10079   */\n      dup3\n        /* \"#utility.yul\":10067:10071   */\n      dup6\n        /* \"#utility.yul\":10021:10088   */\n      tag_82\n      jump\t// in\n    tag_208:\n        /* \"#utility.yul\":10115:10116   */\n      0x00\n        /* \"#utility.yul\":10139:10143   */\n      0x20\n        /* \"#utility.yul\":10126:10143   */\n      swap1\n      pop\n        /* \"#utility.yul\":10171:10173   */\n      0x1f\n        /* \"#utility.yul\":10163:10169   */\n      dup4\n        /* \"#utility.yul\":10160:10174   */\n      gt\n        /* \"#utility.yul\":10188:10189   */\n      0x01\n        /* \"#utility.yul\":10183:10801   */\n      dup2\n      eq\n      tag_210\n      jumpi\n        /* \"#utility.yul\":10845:10846   */\n      0x00\n        /* \"#utility.yul\":10862:10868   */\n      dup5\n        /* \"#utility.yul\":10859:10936   */\n      iszero\n      tag_211\n      jumpi\n        /* \"#utility.yul\":10911:10920   */\n      dup3\n        /* \"#utility.yul\":10906:10909   */\n      dup8\n        /* \"#utility.yul\":10902:10921   */\n      add\n        /* \"#utility.yul\":10896:10922   */\n      mload\n        /* \"#utility.yul\":10887:10922   */\n      swap1\n      pop\n        /* \"#utility.yul\":10859:10936   */\n    tag_211:\n        /* \"#utility.yul\":10962:11029   */\n      tag_212\n        /* \"#utility.yul\":11022:11028   */\n      dup6\n        /* \"#utility.yul\":11015:11020   */\n      dup3\n        /* \"#utility.yul\":10962:11029   */\n      tag_85\n      jump\t// in\n    tag_212:\n        /* \"#utility.yul\":10956:10960   */\n      dup7\n        /* \"#utility.yul\":10949:11030   */\n      sstore\n        /* \"#utility.yul\":10818:11040   */\n      pop\n        /* \"#utility.yul\":10153:11040   */\n      jump(tag_209)\n        /* \"#utility.yul\":10183:10801   */\n    tag_210:\n        /* \"#utility.yul\":10235:10239   */\n      0x1f\n        /* \"#utility.yul\":10231:10240   */\n      not\n        /* \"#utility.yul\":10223:10229   */\n      dup5\n        /* \"#utility.yul\":10219:10241   */\n      and\n        /* \"#utility.yul\":10269:10306   */\n      tag_213\n        /* \"#utility.yul\":10301:10305   */\n      dup7\n        /* \"#utility.yul\":10269:10306   */\n      tag_70\n      jump\t// in\n    tag_213:\n        /* \"#utility.yul\":10328:10329   */\n      0x00\n        /* \"#utility.yul\":10342:10550   */\n    tag_214:\n        /* \"#utility.yul\":10356:10363   */\n      dup3\n        /* \"#utility.yul\":10353:10354   */\n      dup2\n        /* \"#utility.yul\":10350:10364   */\n      lt\n        /* \"#utility.yul\":10342:10550   */\n      iszero\n      tag_216\n      jumpi\n        /* \"#utility.yul\":10435:10444   */\n      dup5\n        /* \"#utility.yul\":10430:10433   */\n      dup10\n        /* \"#utility.yul\":10426:10445   */\n      add\n        /* \"#utility.yul\":10420:10446   */\n      mload\n        /* \"#utility.yul\":10412:10418   */\n      dup3\n        /* \"#utility.yul\":10405:10447   */\n      sstore\n        /* \"#utility.yul\":10486:10487   */\n      0x01\n        /* \"#utility.yul\":10478:10484   */\n      dup3\n        /* \"#utility.yul\":10474:10488   */\n      add\n        /* \"#utility.yul\":10464:10488   */\n      swap2\n      pop\n        /* \"#utility.yul\":10533:10535   */\n      0x20\n        /* \"#utility.yul\":10522:10531   */\n      dup6\n        /* \"#utility.yul\":10518:10536   */\n      add\n        /* \"#utility.yul\":10505:10536   */\n      swap5\n      pop\n        /* \"#utility.yul\":10379:10383   */\n      0x20\n        /* \"#utility.yul\":10376:10377   */\n      dup2\n        /* \"#utility.yul\":10372:10384   */\n      add\n        /* \"#utility.yul\":10367:10384   */\n      swap1\n      pop\n        /* \"#utility.yul\":10342:10550   */\n      jump(tag_214)\n    tag_216:\n        /* \"#utility.yul\":10578:10584   */\n      dup7\n        /* \"#utility.yul\":10569:10576   */\n      dup4\n        /* \"#utility.yul\":10566:10585   */\n      lt\n        /* \"#utility.yul\":10563:10742   */\n      iszero\n      tag_217\n      jumpi\n        /* \"#utility.yul\":10636:10645   */\n      dup5\n        /* \"#utility.yul\":10631:10634   */\n      dup10\n        /* \"#utility.yul\":10627:10646   */\n      add\n        /* \"#utility.yul\":10621:10647   */\n      mload\n        /* \"#utility.yul\":10679:10727   */\n      tag_218\n        /* \"#utility.yul\":10721:10725   */\n      0x1f\n        /* \"#utility.yul\":10713:10719   */\n      dup10\n        /* \"#utility.yul\":10709:10726   */\n      and\n        /* \"#utility.yul\":10698:10707   */\n      dup3\n        /* \"#utility.yul\":10679:10727   */\n      tag_84\n      jump\t// in\n    tag_218:\n        /* \"#utility.yul\":10671:10677   */\n      dup4\n        /* \"#utility.yul\":10664:10728   */\n      sstore\n        /* \"#utility.yul\":10586:10742   */\n      pop\n        /* \"#utility.yul\":10563:10742   */\n    tag_217:\n        /* \"#utility.yul\":10788:10789   */\n      0x01\n        /* \"#utility.yul\":10784:10785   */\n      0x02\n        /* \"#utility.yul\":10776:10782   */\n      dup9\n        /* \"#utility.yul\":10772:10786   */\n      mul\n        /* \"#utility.yul\":10768:10790   */\n      add\n        /* \"#utility.yul\":10762:10766   */\n      dup9\n        /* \"#utility.yul\":10755:10791   */\n      sstore\n        /* \"#utility.yul\":10190:10801   */\n      pop\n      pop\n      pop\n        /* \"#utility.yul\":10153:11040   */\n    tag_209:\n      pop\n        /* \"#utility.yul\":9743:11046   */\n      pop\n      pop\n      pop\n        /* \"#utility.yul\":9651:11046   */\n      pop\n      pop\n      jump\t// out\n\n    auxdata: 0xa2646970667358221220595b781f946ba30a20c79c03a96f1bf0b243834a358985503ec3322275f70be764736f6c63430008130033\n}\n",
				"bytecode": {
					"linkReferences": {},
					"object": "608060405234801561001057600080fd5b50610a61806100206000396000f3fe608060405234801561001057600080fd5b506004361061004c5760003560e01c80632748663e14610051578063a1f94f541461006d578063c2a2747b1461009f578063d781a3a5146100bf575b600080fd5b61006b60048036038101906100669190610581565b6100df565b005b6100876004803603810190610082919061063b565b61015d565b60405161009693929190610705565b60405180910390f35b6100a761023f565b6040516100b693929190610705565b60405180910390f35b6100c761030f565b6040516100d693929190610705565b60405180910390f35b816000800190816100f09190610959565b5080600060010160006101000a81548163ffffffff021916908363ffffffff16021790555033600060010160046101000a81548173ffffffffffffffffffffffffffffffffffffffff021916908373ffffffffffffffffffffffffffffffffffffffff1602179055505050565b600260205280600052604060002060009150905080600001805461018090610772565b80601f01602080910402602001604051908101604052809291908181526020018280546101ac90610772565b80156101f95780601f106101ce576101008083540402835291602001916101f9565b820191906000526020600020905b8154815290600101906020018083116101dc57829003601f168201915b5050505050908060010160009054906101000a900463ffffffff16908060010160049054906101000a900473ffffffffffffffffffffffffffffffffffffffff16905083565b600080600001805461025090610772565b80601f016020809104026020016040519081016040528092919081815260200182805461027c90610772565b80156102c95780601f1061029e576101008083540402835291602001916102c9565b820191906000526020600020905b8154815290600101906020018083116102ac57829003601f168201915b5050505050908060010160009054906101000a900463ffffffff16908060010160049054906101000a900473ffffffffffffffffffffffffffffffffffffffff16905083565b606060008060008001600060010160009054906101000a900463ffffffff16600060010160049054906101000a900473ffffffffffffffffffffffffffffffffffffffff1682805461036090610772565b80601f016020809104026020016040519081016040528092919081815260200182805461038c90610772565b80156103d95780601f106103ae576101008083540402835291602001916103d9565b820191906000526020600020905b8154815290600101906020018083116103bc57829003601f168201915b50505050509250925092509250909192565b6000604051905090565b600080fd5b600080fd5b600080fd5b600080fd5b6000601f19601f8301169050919050565b7f4e487b7100000000000000000000000000000000000000000000000000000000600052604160045260246000fd5b61045282610409565b810181811067ffffffffffffffff821117156104715761047061041a565b5b80604052505050565b60006104846103eb565b90506104908282610449565b919050565b600067ffffffffffffffff8211156104b0576104af61041a565b5b6104b982610409565b9050602081019050919050565b82818337600083830152505050565b60006104e86104e384610495565b61047a565b90508281526020810184848401111561050457610503610404565b5b61050f8482856104c6565b509392505050565b600082601f83011261052c5761052b6103ff565b5b813561053c8482602086016104d5565b91505092915050565b600063ffffffff82169050919050565b61055e81610545565b811461056957600080fd5b50565b60008135905061057b81610555565b92915050565b60008060408385031215610598576105976103f5565b5b600083013567ffffffffffffffff8111156105b6576105b56103fa565b5b6105c285828601610517565b92505060206105d38582860161056c565b9150509250929050565b600073ffffffffffffffffffffffffffffffffffffffff82169050919050565b6000610608826105dd565b9050919050565b610618816105fd565b811461062357600080fd5b50565b6000813590506106358161060f565b92915050565b600060208284031215610651576106506103f5565b5b600061065f84828501610626565b91505092915050565b600081519050919050565b600082825260208201905092915050565b60005b838110156106a2578082015181840152602081019050610687565b60008484015250505050565b60006106b982610668565b6106c38185610673565b93506106d3818560208601610684565b6106dc81610409565b840191505092915050565b6106f081610545565b82525050565b6106ff816105fd565b82525050565b6000606082019050818103600083015261071f81866106ae565b905061072e60208301856106e7565b61073b60408301846106f6565b949350505050565b7f4e487b7100000000000000000000000000000000000000000000000000000000600052602260045260246000fd5b6000600282049050600182168061078a57607f821691505b60208210810361079d5761079c610743565b5b50919050565b60008190508160005260206000209050919050565b60006020601f8301049050919050565b600082821b905092915050565b6000600883026108057fffffffffffffffffffffffffffffffffffffffffffffffffffffffffffffffff826107c8565b61080f86836107c8565b95508019841693508086168417925050509392505050565b6000819050919050565b6000819050919050565b600061085661085161084c84610827565b610831565b610827565b9050919050565b6000819050919050565b6108708361083b565b61088461087c8261085d565b8484546107d5565b825550505050565b600090565b61089961088c565b6108a4818484610867565b505050565b5b818110156108c8576108bd600082610891565b6001810190506108aa565b5050565b601f82111561090d576108de816107a3565b6108e7846107b8565b810160208510156108f6578190505b61090a610902856107b8565b8301826108a9565b50505b505050565b600082821c905092915050565b600061093060001984600802610912565b1980831691505092915050565b6000610949838361091f565b9150826002028217905092915050565b61096282610668565b67ffffffffffffffff81111561097b5761097a61041a565b5b6109858254610772565b6109908282856108cc565b600060209050601f8311600181146109c357600084156109b1578287015190505b6109bb858261093d565b865550610a23565b601f1984166109d1866107a3565b60005b828110156109f9578489015182556001820191506020850194506020810190506109d4565b86831015610a165784890151610a12601f89168261091f565b8355505b6001600288020188555050505b50505050505056fea2646970667358221220595b781f946ba30a20c79c03a96f1bf0b243834a358985503ec3322275f70be764736f6c63430008130033",
					"opcodes": "PUSH1 0x80 PUSH1 0x40 MSTORE CALLVALUE DUP1 ISZERO PUSH2 0x10 JUMPI PUSH1 0x0 DUP1 REVERT JUMPDEST POP PUSH2 0xA61 DUP1 PUSH2 0x20 PUSH1 0x0 CODECOPY PUSH1 0x0 RETURN INVALID PUSH1 0x80 PUSH1 0x40 MSTORE CALLVALUE DUP1 ISZERO PUSH2 0x10 JUMPI PUSH1 0x0 DUP1 REVERT JUMPDEST POP PUSH1 0x4 CALLDATASIZE LT PUSH2 0x4C JUMPI PUSH1 0x0 CALLDATALOAD PUSH1 0xE0 SHR DUP1 PUSH4 0x2748663E EQ PUSH2 0x51 JUMPI DUP1 PUSH4 0xA1F94F54 EQ PUSH2 0x6D JUMPI DUP1 PUSH4 0xC2A2747B EQ PUSH2 0x9F JUMPI DUP1 PUSH4 0xD781A3A5 EQ PUSH2 0xBF JUMPI JUMPDEST PUSH1 0x0 DUP1 REVERT JUMPDEST PUSH2 0x6B PUSH1 0x4 DUP1 CALLDATASIZE SUB DUP2 ADD SWAP1 PUSH2 0x66 SWAP2 SWAP1 PUSH2 0x581 JUMP JUMPDEST PUSH2 0xDF JUMP JUMPDEST STOP JUMPDEST PUSH2 0x87 PUSH1 0x4 DUP1 CALLDATASIZE SUB DUP2 ADD SWAP1 PUSH2 0x82 SWAP2 SWAP1 PUSH2 0x63B JUMP JUMPDEST PUSH2 0x15D JUMP JUMPDEST PUSH1 0x40 MLOAD PUSH2 0x96 SWAP4 SWAP3 SWAP2 SWAP1 PUSH2 0x705 JUMP JUMPDEST PUSH1 0x40 MLOAD DUP1 SWAP2 SUB SWAP1 RETURN JUMPDEST PUSH2 0xA7 PUSH2 0x23F JUMP JUMPDEST PUSH1 0x40 MLOAD PUSH2 0xB6 SWAP4 SWAP3 SWAP2 SWAP1 PUSH2 0x705 JUMP JUMPDEST PUSH1 0x40 MLOAD DUP1 SWAP2 SUB SWAP1 RETURN JUMPDEST PUSH2 0xC7 PUSH2 0x30F JUMP JUMPDEST PUSH1 0x40 MLOAD PUSH2 0xD6 SWAP4 SWAP3 SWAP2 SWAP1 PUSH2 0x705 JUMP JUMPDEST PUSH1 0x40 MLOAD DUP1 SWAP2 SUB SWAP1 RETURN JUMPDEST DUP2 PUSH1 0x0 DUP1 ADD SWAP1 DUP2 PUSH2 0xF0 SWAP2 SWAP1 PUSH2 0x959 JUMP JUMPDEST POP DUP1 PUSH1 0x0 PUSH1 0x1 ADD PUSH1 0x0 PUSH2 0x100 EXP DUP2 SLOAD DUP2 PUSH4 0xFFFFFFFF MUL NOT AND SWAP1 DUP4 PUSH4 0xFFFFFFFF AND MUL OR SWAP1 SSTORE POP CALLER PUSH1 0x0 PUSH1 0x1 ADD PUSH1 0x4 PUSH2 0x100 EXP DUP2 SLOAD DUP2 PUSH20 0xFFFFFFFFFFFFFFFFFFFFFFFFFFFFFFFFFFFFFFFF MUL NOT AND SWAP1 DUP4 PUSH20 0xFFFFFFFFFFFFFFFFFFFFFFFFFFFFFFFFFFFFFFFF AND MUL OR SWAP1 SSTORE POP POP POP JUMP JUMPDEST PUSH1 0x2 PUSH1 0x20 MSTORE DUP1 PUSH1 0x0 MSTORE PUSH1 0x40 PUSH1 0x0 KECCAK256 PUSH1 0x0 SWAP2 POP SWAP1 POP DUP1 PUSH1 0x0 ADD DUP1 SLOAD PUSH2 0x180 SWAP1 PUSH2 0x772 JUMP JUMPDEST DUP1 PUSH1 0x1F ADD PUSH1 0x20 DUP1 SWAP2 DIV MUL PUSH1 0x20 ADD PUSH1 0x40 MLOAD SWAP1 DUP2 ADD PUSH1 0x40 MSTORE DUP1 SWAP3 SWAP2 SWAP1 DUP2 DUP2 MSTORE PUSH1 0x20 ADD DUP3 DUP1 SLOAD PUSH2 0x1AC SWAP1 PUSH2 0x772 JUMP JUMPDEST DUP1 ISZERO PUSH2 0x1F9 JUMPI DUP1 PUSH1 0x1F LT PUSH2 0x1CE JUMPI PUSH2 0x100 DUP1 DUP4 SLOAD DIV MUL DUP4 MSTORE SWAP2 PUSH1 0x20 ADD SWAP2 PUSH2 0x1F9 JUMP JUMPDEST DUP3 ADD SWAP2 SWAP1 PUSH1 0x0 MSTORE PUSH1 0x20 PUSH1 0x0 KECCAK256 SWAP1 JUMPDEST DUP2 SLOAD DUP2 MSTORE SWAP1 PUSH1 0x1 ADD SWAP1 PUSH1 0x20 ADD DUP1 DUP4 GT PUSH2 0x1DC JUMPI DUP3 SWAP1 SUB PUSH1 0x1F AND DUP3 ADD SWAP2 JUMPDEST POP POP POP POP POP SWAP1 DUP1 PUSH1 0x1 ADD PUSH1 0x0 SWAP1 SLOAD SWAP1 PUSH2 0x100 EXP SWAP1 DIV PUSH4 0xFFFFFFFF AND SWAP1 DUP1 PUSH1 0x1 ADD PUSH1 0x4 SWAP1 SLOAD SWAP1 PUSH2 0x100 EXP SWAP1 DIV PUSH20 0xFFFFFFFFFFFFFFFFFFFFFFFFFFFFFFFFFFFFFFFF AND SWAP1 POP DUP4 JUMP JUMPDEST PUSH1 0x0 DUP1 PUSH1 0x0 ADD DUP1 SLOAD PUSH2 0x250 SWAP1 PUSH2 0x772 JUMP JUMPDEST DUP1 PUSH1 0x1F ADD PUSH1 0x20 DUP1 SWAP2 DIV MUL PUSH1 0x20 ADD PUSH1 0x40 MLOAD SWAP1 DUP2 ADD PUSH1 0x40 MSTORE DUP1 SWAP3 SWAP2 SWAP1 DUP2 DUP2 MSTORE PUSH1 0x20 ADD DUP3 DUP1 SLOAD PUSH2 0x27C SWAP1 PUSH2 0x772 JUMP JUMPDEST DUP1 ISZERO PUSH2 0x2C9 JUMPI DUP1 PUSH1 0x1F LT PUSH2 0x29E JUMPI PUSH2 0x100 DUP1 DUP4 SLOAD DIV MUL DUP4 MSTORE SWAP2 PUSH1 0x20 ADD SWAP2 PUSH2 0x2C9 JUMP JUMPDEST DUP3 ADD SWAP2 SWAP1 PUSH1 0x0 MSTORE PUSH1 0x20 PUSH1 0x0 KECCAK256 SWAP1 JUMPDEST DUP2 SLOAD DUP2 MSTORE SWAP1 PUSH1 0x1 ADD SWAP1 PUSH1 0x20 ADD DUP1 DUP4 GT PUSH2 0x2AC JUMPI DUP3 SWAP1 SUB PUSH1 0x1F AND DUP3 ADD SWAP2 JUMPDEST POP POP POP POP POP SWAP1 DUP1 PUSH1 0x1 ADD PUSH1 0x0 SWAP1 SLOAD SWAP1 PUSH2 0x100 EXP SWAP1 DIV PUSH4 0xFFFFFFFF AND SWAP1 DUP1 PUSH1 0x1 ADD PUSH1 0x4 SWAP1 SLOAD SWAP1 PUSH2 0x100 EXP SWAP1 DIV PUSH20 0xFFFFFFFFFFFFFFFFFFFFFFFFFFFFFFFFFFFFFFFF AND SWAP1 POP DUP4 JUMP JUMPDEST PUSH1 0x60 PUSH1 0x0 DUP1 PUSH1 0x0 DUP1 ADD PUSH1 0x0 PUSH1 0x1 ADD PUSH1 0x0 SWAP1 SLOAD SWAP1 PUSH2 0x100 EXP SWAP1 DIV PUSH4 0xFFFFFFFF AND PUSH1 0x0 PUSH1 0x1 ADD PUSH1 0x4 SWAP1 SLOAD SWAP1 PUSH2 0x100 EXP SWAP1 DIV PUSH20 0xFFFFFFFFFFFFFFFFFFFFFFFFFFFFFFFFFFFFFFFF AND DUP3 DUP1 SLOAD PUSH2 0x360 SWAP1 PUSH2 0x772 JUMP JUMPDEST DUP1 PUSH1 0x1F ADD PUSH1 0x20 DUP1 SWAP2 DIV MUL PUSH1 0x20 ADD PUSH1 0x40 MLOAD SWAP1 DUP2 ADD PUSH1 0x40 MSTORE DUP1 SWAP3 SWAP2 SWAP1 DUP2 DUP2 MSTORE PUSH1 0x20 ADD DUP3 DUP1 SLOAD PUSH2 0x38C SWAP1 PUSH2 0x772 JUMP JUMPDEST DUP1 ISZERO PUSH2 0x3D9 JUMPI DUP1 PUSH1 0x1F LT PUSH2 0x3AE JUMPI PUSH2 0x100 DUP1 DUP4 SLOAD DIV MUL DUP4 MSTORE SWAP2 PUSH1 0x20 ADD SWAP2 PUSH2 0x3D9 JUMP JUMPDEST DUP3 ADD SWAP2 SWAP1 PUSH1 0x0 MSTORE PUSH1 0x20 PUSH1 0x0 KECCAK256 SWAP1 JUMPDEST DUP2 SLOAD DUP2 MSTORE SWAP1 PUSH1 0x1 ADD SWAP1 PUSH1 0x20 ADD DUP1 DUP4 GT PUSH2 0x3BC JUMPI DUP3 SWAP1 SUB PUSH1 0x1F AND DUP3 ADD SWAP2 JUMPDEST POP POP POP POP POP SWAP3 POP SWAP3 POP SWAP3 POP SWAP3 POP SWAP1 SWAP2 SWAP3 JUMP JUMPDEST PUSH1 0x0 PUSH1 0x40 MLOAD SWAP1 POP SWAP1 JUMP JUMPDEST PUSH1 0x0 DUP1 REVERT JUMPDEST PUSH1 0x0 DUP1 REVERT JUMPDEST PUSH1 0x0 DUP1 REVERT JUMPDEST PUSH1 0x0 DUP1 REVERT JUMPDEST PUSH1 0x0 PUSH1 0x1F NOT PUSH1 0x1F DUP4 ADD AND SWAP1 POP SWAP2 SWAP1 POP JUMP JUMPDEST PUSH32 0x4E487B7100000000000000000000000000000000000000000000000000000000 PUSH1 0x0 MSTORE PUSH1 0x41 PUSH1 0x4 MSTORE PUSH1 0x24 PUSH1 0x0 REVERT JUMPDEST PUSH2 0x452 DUP3 PUSH2 0x409 JUMP JUMPDEST DUP2 ADD DUP2 DUP2 LT PUSH8 0xFFFFFFFFFFFFFFFF DUP3 GT OR ISZERO PUSH2 0x471 JUMPI PUSH2 0x470 PUSH2 0x41A JUMP JUMPDEST JUMPDEST DUP1 PUSH1 0x40 MSTORE POP POP POP JUMP JUMPDEST PUSH1 0x0 PUSH2 0x484 PUSH2 0x3EB JUMP JUMPDEST SWAP1 POP PUSH2 0x490 DUP3 DUP3 PUSH2 0x449 JUMP JUMPDEST SWAP2 SWAP1 POP JUMP JUMPDEST PUSH1 0x0 PUSH8 0xFFFFFFFFFFFFFFFF DUP3 GT ISZERO PUSH2 0x4B0 JUMPI PUSH2 0x4AF PUSH2 0x41A JUMP JUMPDEST JUMPDEST PUSH2 0x4B9 DUP3 PUSH2 0x409 JUMP JUMPDEST SWAP1 POP PUSH1 0x20 DUP2 ADD SWAP1 POP SWAP2 SWAP1 POP JUMP JUMPDEST DUP3 DUP2 DUP4 CALLDATACOPY PUSH1 0x0 DUP4 DUP4 ADD MSTORE POP POP POP JUMP JUMPDEST PUSH1 0x0 PUSH2 0x4E8 PUSH2 0x4E3 DUP5 PUSH2 0x495 JUMP JUMPDEST PUSH2 0x47A JUMP JUMPDEST SWAP1 POP DUP3 DUP2 MSTORE PUSH1 0x20 DUP2 ADD DUP5 DUP5 DUP5 ADD GT ISZERO PUSH2 0x504 JUMPI PUSH2 0x503 PUSH2 0x404 JUMP JUMPDEST JUMPDEST PUSH2 0x50F DUP5 DUP3 DUP6 PUSH2 0x4C6 JUMP JUMPDEST POP SWAP4 SWAP3 POP POP POP JUMP JUMPDEST PUSH1 0x0 DUP3 PUSH1 0x1F DUP4 ADD SLT PUSH2 0x52C JUMPI PUSH2 0x52B PUSH2 0x3FF JUMP JUMPDEST JUMPDEST DUP2 CALLDATALOAD PUSH2 0x53C DUP5 DUP3 PUSH1 0x20 DUP7 ADD PUSH2 0x4D5 JUMP JUMPDEST SWAP2 POP POP SWAP3 SWAP2 POP POP JUMP JUMPDEST PUSH1 0x0 PUSH4 0xFFFFFFFF DUP3 AND SWAP1 POP SWAP2 SWAP1 POP JUMP JUMPDEST PUSH2 0x55E DUP2 PUSH2 0x545 JUMP JUMPDEST DUP2 EQ PUSH2 0x569 JUMPI PUSH1 0x0 DUP1 REVERT JUMPDEST POP JUMP JUMPDEST PUSH1 0x0 DUP2 CALLDATALOAD SWAP1 POP PUSH2 0x57B DUP2 PUSH2 0x555 JUMP JUMPDEST SWAP3 SWAP2 POP POP JUMP JUMPDEST PUSH1 0x0 DUP1 PUSH1 0x40 DUP4 DUP6 SUB SLT ISZERO PUSH2 0x598 JUMPI PUSH2 0x597 PUSH2 0x3F5 JUMP JUMPDEST JUMPDEST PUSH1 0x0 DUP4 ADD CALLDATALOAD PUSH8 0xFFFFFFFFFFFFFFFF DUP2 GT ISZERO PUSH2 0x5B6 JUMPI PUSH2 0x5B5 PUSH2 0x3FA JUMP JUMPDEST JUMPDEST PUSH2 0x5C2 DUP6 DUP3 DUP7 ADD PUSH2 0x517 JUMP JUMPDEST SWAP3 POP POP PUSH1 0x20 PUSH2 0x5D3 DUP6 DUP3 DUP7 ADD PUSH2 0x56C JUMP JUMPDEST SWAP2 POP POP SWAP3 POP SWAP3 SWAP1 POP JUMP JUMPDEST PUSH1 0x0 PUSH20 0xFFFFFFFFFFFFFFFFFFFFFFFFFFFFFFFFFFFFFFFF DUP3 AND SWAP1 POP SWAP2 SWAP1 POP JUMP JUMPDEST PUSH1 0x0 PUSH2 0x608 DUP3 PUSH2 0x5DD JUMP JUMPDEST SWAP1 POP SWAP2 SWAP1 POP JUMP JUMPDEST PUSH2 0x618 DUP2 PUSH2 0x5FD JUMP JUMPDEST DUP2 EQ PUSH2 0x623 JUMPI PUSH1 0x0 DUP1 REVERT JUMPDEST POP JUMP JUMPDEST PUSH1 0x0 DUP2 CALLDATALOAD SWAP1 POP PUSH2 0x635 DUP2 PUSH2 0x60F JUMP JUMPDEST SWAP3 SWAP2 POP POP JUMP JUMPDEST PUSH1 0x0 PUSH1 0x20 DUP3 DUP5 SUB SLT ISZERO PUSH2 0x651 JUMPI PUSH2 0x650 PUSH2 0x3F5 JUMP JUMPDEST JUMPDEST PUSH1 0x0 PUSH2 0x65F DUP5 DUP3 DUP6 ADD PUSH2 0x626 JUMP JUMPDEST SWAP2 POP POP SWAP3 SWAP2 POP POP JUMP JUMPDEST PUSH1 0x0 DUP2 MLOAD SWAP1 POP SWAP2 SWAP1 POP JUMP JUMPDEST PUSH1 0x0 DUP3 DUP3 MSTORE PUSH1 0x20 DUP3 ADD SWAP1 POP SWAP3 SWAP2 POP POP JUMP JUMPDEST PUSH1 0x0 JUMPDEST DUP4 DUP2 LT ISZERO PUSH2 0x6A2 JUMPI DUP1 DUP3 ADD MLOAD DUP2 DUP5 ADD MSTORE PUSH1 0x20 DUP2 ADD SWAP1 POP PUSH2 0x687 JUMP JUMPDEST PUSH1 0x0 DUP5 DUP5 ADD MSTORE POP POP POP POP JUMP JUMPDEST PUSH1 0x0 PUSH2 0x6B9 DUP3 PUSH2 0x668 JUMP JUMPDEST PUSH2 0x6C3 DUP2 DUP6 PUSH2 0x673 JUMP JUMPDEST SWAP4 POP PUSH2 0x6D3 DUP2 DUP6 PUSH1 0x20 DUP7 ADD PUSH2 0x684 JUMP JUMPDEST PUSH2 0x6DC DUP2 PUSH2 0x409 JUMP JUMPDEST DUP5 ADD SWAP2 POP POP SWAP3 SWAP2 POP POP JUMP JUMPDEST PUSH2 0x6F0 DUP2 PUSH2 0x545 JUMP JUMPDEST DUP3 MSTORE POP POP JUMP JUMPDEST PUSH2 0x6FF DUP2 PUSH2 0x5FD JUMP JUMPDEST DUP3 MSTORE POP POP JUMP JUMPDEST PUSH1 0x0 PUSH1 0x60 DUP3 ADD SWAP1 POP DUP2 DUP2 SUB PUSH1 0x0 DUP4 ADD MSTORE PUSH2 0x71F DUP2 DUP7 PUSH2 0x6AE JUMP JUMPDEST SWAP1 POP PUSH2 0x72E PUSH1 0x20 DUP4 ADD DUP6 PUSH2 0x6E7 JUMP JUMPDEST PUSH2 0x73B PUSH1 0x40 DUP4 ADD DUP5 PUSH2 0x6F6 JUMP JUMPDEST SWAP5 SWAP4 POP POP POP POP JUMP JUMPDEST PUSH32 0x4E487B7100000000000000000000000000000000000000000000000000000000 PUSH1 0x0 MSTORE PUSH1 0x22 PUSH1 0x4 MSTORE PUSH1 0x24 PUSH1 0x0 REVERT JUMPDEST PUSH1 0x0 PUSH1 0x2 DUP3 DIV SWAP1 POP PUSH1 0x1 DUP3 AND DUP1 PUSH2 0x78A JUMPI PUSH1 0x7F DUP3 AND SWAP2 POP JUMPDEST PUSH1 0x20 DUP3 LT DUP2 SUB PUSH2 0x79D JUMPI PUSH2 0x79C PUSH2 0x743 JUMP JUMPDEST JUMPDEST POP SWAP2 SWAP1 POP JUMP JUMPDEST PUSH1 0x0 DUP2 SWAP1 POP DUP2 PUSH1 0x0 MSTORE PUSH1 0x20 PUSH1 0x0 KECCAK256 SWAP1 POP SWAP2 SWAP1 POP JUMP JUMPDEST PUSH1 0x0 PUSH1 0x20 PUSH1 0x1F DUP4 ADD DIV SWAP1 POP SWAP2 SWAP1 POP JUMP JUMPDEST PUSH1 0x0 DUP3 DUP3 SHL SWAP1 POP SWAP3 SWAP2 POP POP JUMP JUMPDEST PUSH1 0x0 PUSH1 0x8 DUP4 MUL PUSH2 0x805 PUSH32 0xFFFFFFFFFFFFFFFFFFFFFFFFFFFFFFFFFFFFFFFFFFFFFFFFFFFFFFFFFFFFFFFF DUP3 PUSH2 0x7C8 JUMP JUMPDEST PUSH2 0x80F DUP7 DUP4 PUSH2 0x7C8 JUMP JUMPDEST SWAP6 POP DUP1 NOT DUP5 AND SWAP4 POP DUP1 DUP7 AND DUP5 OR SWAP3 POP POP POP SWAP4 SWAP3 POP POP POP JUMP JUMPDEST PUSH1 0x0 DUP2 SWAP1 POP SWAP2 SWAP1 POP JUMP JUMPDEST PUSH1 0x0 DUP2 SWAP1 POP SWAP2 SWAP1 POP JUMP JUMPDEST PUSH1 0x0 PUSH2 0x856 PUSH2 0x851 PUSH2 0x84C DUP5 PUSH2 0x827 JUMP JUMPDEST PUSH2 0x831 JUMP JUMPDEST PUSH2 0x827 JUMP JUMPDEST SWAP1 POP SWAP2 SWAP1 POP JUMP JUMPDEST PUSH1 0x0 DUP2 SWAP1 POP SWAP2 SWAP1 POP JUMP JUMPDEST PUSH2 0x870 DUP4 PUSH2 0x83B JUMP JUMPDEST PUSH2 0x884 PUSH2 0x87C DUP3 PUSH2 0x85D JUMP JUMPDEST DUP5 DUP5 SLOAD PUSH2 0x7D5 JUMP JUMPDEST DUP3 SSTORE POP POP POP POP JUMP JUMPDEST PUSH1 0x0 SWAP1 JUMP JUMPDEST PUSH2 0x899 PUSH2 0x88C JUMP JUMPDEST PUSH2 0x8A4 DUP2 DUP5 DUP5 PUSH2 0x867 JUMP JUMPDEST POP POP POP JUMP JUMPDEST JUMPDEST DUP2 DUP2 LT ISZERO PUSH2 0x8C8 JUMPI PUSH2 0x8BD PUSH1 0x0 DUP3 PUSH2 0x891 JUMP JUMPDEST PUSH1 0x1 DUP2 ADD SWAP1 POP PUSH2 0x8AA JUMP JUMPDEST POP POP JUMP JUMPDEST PUSH1 0x1F DUP3 GT ISZERO PUSH2 0x90D JUMPI PUSH2 0x8DE DUP2 PUSH2 0x7A3 JUMP JUMPDEST PUSH2 0x8E7 DUP5 PUSH2 0x7B8 JUMP JUMPDEST DUP2 ADD PUSH1 0x20 DUP6 LT ISZERO PUSH2 0x8F6 JUMPI DUP2 SWAP1 POP JUMPDEST PUSH2 0x90A PUSH2 0x902 DUP6 PUSH2 0x7B8 JUMP JUMPDEST DUP4 ADD DUP3 PUSH2 0x8A9 JUMP JUMPDEST POP POP JUMPDEST POP POP POP JUMP JUMPDEST PUSH1 0x0 DUP3 DUP3 SHR SWAP1 POP SWAP3 SWAP2 POP POP JUMP JUMPDEST PUSH1 0x0 PUSH2 0x930 PUSH1 0x0 NOT DUP5 PUSH1 0x8 MUL PUSH2 0x912 JUMP JUMPDEST NOT DUP1 DUP4 AND SWAP2 POP POP SWAP3 SWAP2 POP POP JUMP JUMPDEST PUSH1 0x0 PUSH2 0x949 DUP4 DUP4 PUSH2 0x91F JUMP JUMPDEST SWAP2 POP DUP3 PUSH1 0x2 MUL DUP3 OR SWAP1 POP SWAP3 SWAP2 POP POP JUMP JUMPDEST PUSH2 0x962 DUP3 PUSH2 0x668 JUMP JUMPDEST PUSH8 0xFFFFFFFFFFFFFFFF DUP2 GT ISZERO PUSH2 0x97B JUMPI PUSH2 0x97A PUSH2 0x41A JUMP JUMPDEST JUMPDEST PUSH2 0x985 DUP3 SLOAD PUSH2 0x772 JUMP JUMPDEST PUSH2 0x990 DUP3 DUP3 DUP6 PUSH2 0x8CC JUMP JUMPDEST PUSH1 0x0 PUSH1 0x20 SWAP1 POP PUSH1 0x1F DUP4 GT PUSH1 0x1 DUP2 EQ PUSH2 0x9C3 JUMPI PUSH1 0x0 DUP5 ISZERO PUSH2 0x9B1 JUMPI DUP3 DUP8 ADD MLOAD SWAP1 POP JUMPDEST PUSH2 0x9BB DUP6 DUP3 PUSH2 0x93D JUMP JUMPDEST DUP7 SSTORE POP PUSH2 0xA23 JUMP JUMPDEST PUSH1 0x1F NOT DUP5 AND PUSH2 0x9D1 DUP7 PUSH2 0x7A3 JUMP JUMPDEST PUSH1 0x0 JUMPDEST DUP3 DUP2 LT ISZERO PUSH2 0x9F9 JUMPI DUP5 DUP10 ADD MLOAD DUP3 SSTORE PUSH1 0x1 DUP3 ADD SWAP2 POP PUSH1 0x20 DUP6 ADD SWAP5 POP PUSH1 0x20 DUP2 ADD SWAP1 POP PUSH2 0x9D4 JUMP JUMPDEST DUP7 DUP4 LT ISZERO PUSH2 0xA16 JUMPI DUP5 DUP10 ADD MLOAD PUSH2 0xA12 PUSH1 0x1F DUP10 AND DUP3 PUSH2 0x91F JUMP JUMPDEST DUP4 SSTORE POP JUMPDEST PUSH1 0x1 PUSH1 0x2 DUP9 MUL ADD DUP9 SSTORE POP POP POP JUMPDEST POP POP POP POP POP POP JUMP INVALID LOG2 PUSH5 0x6970667358 0x22 SLT KECCAK256 MSIZE JUMPDEST PUSH25 0x1F946BA30A20C79C03A96F1BF0B243834A358985503EC33222 PUSH22 0xF70BE764736F6C634300081300330000000000000000 "
				},
				"gasEstimates": {
					"creation": {
						"codeDepositCost": "531400",
						"executionCost": "568",
						"totalCost": "531968"
					},
					"external": {
						"Personcontract(address)": "infinite",
						"getPersonDetails()": "infinite",
						"p1()": "infinite",
						"setPerson(string,uint32)": "infinite"
					}
				},
				"methodIdentifiers": {
					"Personcontract(address)": "a1f94f54",
					"getPersonDetails()": "d781a3a5",
					"p1()": "c2a2747b",
					"setPerson(string,uint32)": "2748663e"
				}
			},
			"storageLayout": {
				"storage": [
					{
						"astId": 11,
						"contract": "contracts/PersonsContract.sol:Person",
						"label": "p1",
						"offset": 0,
						"slot": "0",
						"type": "t_struct(person)8_storage"
					},
					{
						"astId": 16,
						"contract": "contracts/PersonsContract.sol:Person",
						"label": "Personcontract",
						"offset": 0,
						"slot": "2",
						"type": "t_mapping(t_address,t_struct(person)8_storage)"
					}
				],
				"types": {
					"t_address": {
						"encoding": "inplace",
						"label": "address",
						"numberOfBytes": "20"
					},
					"t_mapping(t_address,t_struct(person)8_storage)": {
						"encoding": "mapping",
						"key": "t_address",
						"label": "mapping(address => struct Person.person)",
						"numberOfBytes": "32",
						"value": "t_struct(person)8_storage"
					},
					"t_string_storage": {
						"encoding": "bytes",
						"label": "string",
						"numberOfBytes": "32"
					},
					"t_struct(person)8_storage": {
						"encoding": "inplace",
						"label": "struct Person.person",
						"members": [
							{
								"astId": 3,
								"contract": "contracts/PersonsContract.sol:Person",
								"label": "name",
								"offset": 0,
								"slot": "0",
								"type": "t_string_storage"
							},
							{
								"astId": 5,
								"contract": "contracts/PersonsContract.sol:Person",
								"label": "age",
								"offset": 0,
								"slot": "1",
								"type": "t_uint32"
							},
							{
								"astId": 7,
								"contract": "contracts/PersonsContract.sol:Person",
								"label": "add",
								"offset": 4,
								"slot": "1",
								"type": "t_address"
							}
						],
						"numberOfBytes": "64"
					},
					"t_uint32": {
						"encoding": "inplace",
						"label": "uint32",
						"numberOfBytes": "4"
					}
				}
			},
			"userdoc": {
				"kind": "user",
				"methods": {},
				"version": 1
			}
		}
	}
}