{
	"contracts/Project_AU.sol": {
		"smart_manager": {
			"abi": [
				{
					"inputs": [],
					"stateMutability": "nonpayable",
					"type": "constructor"
				},
				{
					"inputs": [],
					"name": "balance",
					"outputs": [
						{
							"internalType": "uint256",
							"name": "",
							"type": "uint256"
						}
					],
					"stateMutability": "view",
					"type": "function"
				},
				{
					"inputs": [
						{
							"internalType": "bytes",
							"name": "",
							"type": "bytes"
						}
					],
					"name": "checkUpkeep",
					"outputs": [
						{
							"internalType": "bool",
							"name": "upkeepNeeded",
							"type": "bool"
						},
						{
							"internalType": "bytes",
							"name": "performData",
							"type": "bytes"
						}
					],
					"stateMutability": "view",
					"type": "function"
				},
				{
					"inputs": [],
					"name": "count",
					"outputs": [
						{
							"internalType": "uint256",
							"name": "",
							"type": "uint256"
						}
					],
					"stateMutability": "view",
					"type": "function"
				},
				{
					"inputs": [],
					"name": "deposite",
					"outputs": [],
					"stateMutability": "payable",
					"type": "function"
				},
				{
					"inputs": [],
					"name": "getDescription",
					"outputs": [
						{
							"internalType": "string",
							"name": "",
							"type": "string"
						}
					],
					"stateMutability": "view",
					"type": "function"
				},
				{
					"inputs": [],
					"name": "getLatestPrice",
					"outputs": [
						{
							"internalType": "int256",
							"name": "",
							"type": "int256"
						}
					],
					"stateMutability": "view",
					"type": "function"
				},
				{
					"inputs": [],
					"name": "lastSeenPrice",
					"outputs": [
						{
							"internalType": "int256",
							"name": "",
							"type": "int256"
						}
					],
					"stateMutability": "view",
					"type": "function"
				},
				{
					"inputs": [
						{
							"internalType": "bytes",
							"name": "performData",
							"type": "bytes"
						}
					],
					"name": "performUpkeep",
					"outputs": [],
					"stateMutability": "nonpayable",
					"type": "function"
				},
				{
					"inputs": [],
					"name": "withdraw",
					"outputs": [],
					"stateMutability": "payable",
					"type": "function"
				}
			],
			"devdoc": {
				"kind": "dev",
				"methods": {},
				"version": 1
			},
			"evm": {
				"assembly": "    /* \"contracts/Project_AU.sol\":838:2969  contract smart_manager {... */\n  mstore(0x40, 0x80)\n    /* \"contracts/Project_AU.sol\":1088:1089  1 */\n  0x01\n    /* \"contracts/Project_AU.sol\":1065:1089  uint256 public count = 1 */\n  0x03\n  sstore\n    /* \"contracts/Project_AU.sol\":1100:1249  constructor() {... */\n  callvalue\n  dup1\n  iszero\n  tag_1\n  jumpi\n  0x00\n  dup1\n  revert\ntag_1:\n  pop\n    /* \"contracts/Project_AU.sol\":1157:1199  0x694AA1769357215DE4FAC081bf1f309aDC325306 */\n  0x694aa1769357215de4fac081bf1f309adc325306\n    /* \"contracts/Project_AU.sol\":1124:1132  dataFeed */\n  0x01\n  0x00\n    /* \"contracts/Project_AU.sol\":1124:1200  dataFeed = AggregatorV3Interface(0x694AA1769357215DE4FAC081bf1f309aDC325306) */\n  0x0100\n  exp\n  dup2\n  sload\n  dup2\n  0xffffffffffffffffffffffffffffffffffffffff\n  mul\n  not\n  and\n  swap1\n  dup4\n  0xffffffffffffffffffffffffffffffffffffffff\n  and\n  mul\n  or\n  swap1\n  sstore\n  pop\n    /* \"contracts/Project_AU.sol\":1226:1242  getLatestPrice() */\n  tag_4\n    /* \"contracts/Project_AU.sol\":1226:1240  getLatestPrice */\n  shl(0x20, tag_5)\n    /* \"contracts/Project_AU.sol\":1226:1242  getLatestPrice() */\n  0x20\n  shr\n  jump\t// in\ntag_4:\n    /* \"contracts/Project_AU.sol\":1210:1223  lastSeenPrice */\n  0x02\n    /* \"contracts/Project_AU.sol\":1210:1242  lastSeenPrice = getLatestPrice() */\n  dup2\n  swap1\n  sstore\n  pop\n    /* \"contracts/Project_AU.sol\":838:2969  contract smart_manager {... */\n  jump(tag_6)\n    /* \"contracts/Project_AU.sol\":1927:2224  function getLatestPrice() public view returns (int) {... */\ntag_5:\n    /* \"contracts/Project_AU.sol\":1974:1977  int */\n  0x00\n    /* \"contracts/Project_AU.sol\":2037:2046  int price */\n  dup1\n    /* \"contracts/Project_AU.sol\":2169:2177  dataFeed */\n  0x01\n  0x00\n  swap1\n  sload\n  swap1\n  0x0100\n  exp\n  swap1\n  div\n  0xffffffffffffffffffffffffffffffffffffffff\n  and\n    /* \"contracts/Project_AU.sol\":2169:2193  dataFeed.latestRoundData */\n  0xffffffffffffffffffffffffffffffffffffffff\n  and\n  0xfeaf968c\n    /* \"contracts/Project_AU.sol\":2169:2195  dataFeed.latestRoundData() */\n  mload(0x40)\n  dup2\n  0xffffffff\n  and\n  0xe0\n  shl\n  dup2\n  mstore\n  0x04\n  add\n  0xa0\n  mload(0x40)\n  dup1\n  dup4\n  sub\n  dup2\n  dup7\n  gas\n  staticcall\n  iszero\n  dup1\n  iszero\n  tag_9\n  jumpi\n  returndatasize\n  0x00\n  dup1\n  returndatacopy\n  revert(0x00, returndatasize)\ntag_9:\n  pop\n  pop\n  pop\n  pop\n  mload(0x40)\n  returndatasize\n  not(0x1f)\n  0x1f\n  dup3\n  add\n  and\n  dup3\n  add\n  dup1\n  0x40\n  mstore\n  pop\n  dup2\n  add\n  swap1\n  tag_10\n  swap2\n  swap1\n  tag_11\n  jump\t// in\ntag_10:\n    /* \"contracts/Project_AU.sol\":1989:2195  (... */\n  pop\n  pop\n  pop\n  swap2\n  pop\n  pop\n    /* \"contracts/Project_AU.sol\":2212:2217  price */\n  dup1\n    /* \"contracts/Project_AU.sol\":2205:2217  return price */\n  swap2\n  pop\n  pop\n    /* \"contracts/Project_AU.sol\":1927:2224  function getLatestPrice() public view returns (int) {... */\n  swap1\n  jump\t// out\n    /* \"#utility.yul\":88:205   */\ntag_13:\n    /* \"#utility.yul\":197:198   */\n  0x00\n    /* \"#utility.yul\":194:195   */\n  dup1\n    /* \"#utility.yul\":187:199   */\n  revert\n    /* \"#utility.yul\":334:439   */\ntag_15:\n    /* \"#utility.yul\":370:377   */\n  0x00\n    /* \"#utility.yul\":410:432   */\n  0xffffffffffffffffffff\n    /* \"#utility.yul\":403:408   */\n  dup3\n    /* \"#utility.yul\":399:433   */\n  and\n    /* \"#utility.yul\":388:433   */\n  swap1\n  pop\n    /* \"#utility.yul\":334:439   */\n  swap2\n  swap1\n  pop\n  jump\t// out\n    /* \"#utility.yul\":445:565   */\ntag_16:\n    /* \"#utility.yul\":517:540   */\n  tag_30\n    /* \"#utility.yul\":534:539   */\n  dup2\n    /* \"#utility.yul\":517:540   */\n  tag_15\n  jump\t// in\ntag_30:\n    /* \"#utility.yul\":510:515   */\n  dup2\n    /* \"#utility.yul\":507:541   */\n  eq\n    /* \"#utility.yul\":497:559   */\n  tag_31\n  jumpi\n    /* \"#utility.yul\":555:556   */\n  0x00\n    /* \"#utility.yul\":552:553   */\n  dup1\n    /* \"#utility.yul\":545:557   */\n  revert\n    /* \"#utility.yul\":497:559   */\ntag_31:\n    /* \"#utility.yul\":445:565   */\n  pop\n  jump\t// out\n    /* \"#utility.yul\":571:712   */\ntag_17:\n    /* \"#utility.yul\":627:632   */\n  0x00\n    /* \"#utility.yul\":658:664   */\n  dup2\n    /* \"#utility.yul\":652:665   */\n  mload\n    /* \"#utility.yul\":643:665   */\n  swap1\n  pop\n    /* \"#utility.yul\":674:706   */\n  tag_33\n    /* \"#utility.yul\":700:705   */\n  dup2\n    /* \"#utility.yul\":674:706   */\n  tag_16\n  jump\t// in\ntag_33:\n    /* \"#utility.yul\":571:712   */\n  swap3\n  swap2\n  pop\n  pop\n  jump\t// out\n    /* \"#utility.yul\":718:794   */\ntag_18:\n    /* \"#utility.yul\":754:761   */\n  0x00\n    /* \"#utility.yul\":783:788   */\n  dup2\n    /* \"#utility.yul\":772:788   */\n  swap1\n  pop\n    /* \"#utility.yul\":718:794   */\n  swap2\n  swap1\n  pop\n  jump\t// out\n    /* \"#utility.yul\":800:920   */\ntag_19:\n    /* \"#utility.yul\":872:895   */\n  tag_36\n    /* \"#utility.yul\":889:894   */\n  dup2\n    /* \"#utility.yul\":872:895   */\n  tag_18\n  jump\t// in\ntag_36:\n    /* \"#utility.yul\":865:870   */\n  dup2\n    /* \"#utility.yul\":862:896   */\n  eq\n    /* \"#utility.yul\":852:914   */\n  tag_37\n  jumpi\n    /* \"#utility.yul\":910:911   */\n  0x00\n    /* \"#utility.yul\":907:908   */\n  dup1\n    /* \"#utility.yul\":900:912   */\n  revert\n    /* \"#utility.yul\":852:914   */\ntag_37:\n    /* \"#utility.yul\":800:920   */\n  pop\n  jump\t// out\n    /* \"#utility.yul\":926:1067   */\ntag_20:\n    /* \"#utility.yul\":982:987   */\n  0x00\n    /* \"#utility.yul\":1013:1019   */\n  dup2\n    /* \"#utility.yul\":1007:1020   */\n  mload\n    /* \"#utility.yul\":998:1020   */\n  swap1\n  pop\n    /* \"#utility.yul\":1029:1061   */\n  tag_39\n    /* \"#utility.yul\":1055:1060   */\n  dup2\n    /* \"#utility.yul\":1029:1061   */\n  tag_19\n  jump\t// in\ntag_39:\n    /* \"#utility.yul\":926:1067   */\n  swap3\n  swap2\n  pop\n  pop\n  jump\t// out\n    /* \"#utility.yul\":1073:1150   */\ntag_21:\n    /* \"#utility.yul\":1110:1117   */\n  0x00\n    /* \"#utility.yul\":1139:1144   */\n  dup2\n    /* \"#utility.yul\":1128:1144   */\n  swap1\n  pop\n    /* \"#utility.yul\":1073:1150   */\n  swap2\n  swap1\n  pop\n  jump\t// out\n    /* \"#utility.yul\":1156:1278   */\ntag_22:\n    /* \"#utility.yul\":1229:1253   */\n  tag_42\n    /* \"#utility.yul\":1247:1252   */\n  dup2\n    /* \"#utility.yul\":1229:1253   */\n  tag_21\n  jump\t// in\ntag_42:\n    /* \"#utility.yul\":1222:1227   */\n  dup2\n    /* \"#utility.yul\":1219:1254   */\n  eq\n    /* \"#utility.yul\":1209:1272   */\n  tag_43\n  jumpi\n    /* \"#utility.yul\":1268:1269   */\n  0x00\n    /* \"#utility.yul\":1265:1266   */\n  dup1\n    /* \"#utility.yul\":1258:1270   */\n  revert\n    /* \"#utility.yul\":1209:1272   */\ntag_43:\n    /* \"#utility.yul\":1156:1278   */\n  pop\n  jump\t// out\n    /* \"#utility.yul\":1284:1427   */\ntag_23:\n    /* \"#utility.yul\":1341:1346   */\n  0x00\n    /* \"#utility.yul\":1372:1378   */\n  dup2\n    /* \"#utility.yul\":1366:1379   */\n  mload\n    /* \"#utility.yul\":1357:1379   */\n  swap1\n  pop\n    /* \"#utility.yul\":1388:1421   */\n  tag_45\n    /* \"#utility.yul\":1415:1420   */\n  dup2\n    /* \"#utility.yul\":1388:1421   */\n  tag_22\n  jump\t// in\ntag_45:\n    /* \"#utility.yul\":1284:1427   */\n  swap3\n  swap2\n  pop\n  pop\n  jump\t// out\n    /* \"#utility.yul\":1433:2404   */\ntag_11:\n    /* \"#utility.yul\":1536:1542   */\n  0x00\n    /* \"#utility.yul\":1544:1550   */\n  dup1\n    /* \"#utility.yul\":1552:1558   */\n  0x00\n    /* \"#utility.yul\":1560:1566   */\n  dup1\n    /* \"#utility.yul\":1568:1574   */\n  0x00\n    /* \"#utility.yul\":1617:1620   */\n  0xa0\n    /* \"#utility.yul\":1605:1614   */\n  dup7\n    /* \"#utility.yul\":1596:1603   */\n  dup9\n    /* \"#utility.yul\":1592:1615   */\n  sub\n    /* \"#utility.yul\":1588:1621   */\n  slt\n    /* \"#utility.yul\":1585:1705   */\n  iszero\n  tag_47\n  jumpi\n    /* \"#utility.yul\":1624:1703   */\n  tag_48\n  tag_13\n  jump\t// in\ntag_48:\n    /* \"#utility.yul\":1585:1705   */\ntag_47:\n    /* \"#utility.yul\":1744:1745   */\n  0x00\n    /* \"#utility.yul\":1769:1832   */\n  tag_49\n    /* \"#utility.yul\":1824:1831   */\n  dup9\n    /* \"#utility.yul\":1815:1821   */\n  dup3\n    /* \"#utility.yul\":1804:1813   */\n  dup10\n    /* \"#utility.yul\":1800:1822   */\n  add\n    /* \"#utility.yul\":1769:1832   */\n  tag_17\n  jump\t// in\ntag_49:\n    /* \"#utility.yul\":1759:1832   */\n  swap6\n  pop\n    /* \"#utility.yul\":1715:1842   */\n  pop\n    /* \"#utility.yul\":1881:1883   */\n  0x20\n    /* \"#utility.yul\":1907:1970   */\n  tag_50\n    /* \"#utility.yul\":1962:1969   */\n  dup9\n    /* \"#utility.yul\":1953:1959   */\n  dup3\n    /* \"#utility.yul\":1942:1951   */\n  dup10\n    /* \"#utility.yul\":1938:1960   */\n  add\n    /* \"#utility.yul\":1907:1970   */\n  tag_20\n  jump\t// in\ntag_50:\n    /* \"#utility.yul\":1897:1970   */\n  swap5\n  pop\n    /* \"#utility.yul\":1852:1980   */\n  pop\n    /* \"#utility.yul\":2019:2021   */\n  0x40\n    /* \"#utility.yul\":2045:2109   */\n  tag_51\n    /* \"#utility.yul\":2101:2108   */\n  dup9\n    /* \"#utility.yul\":2092:2098   */\n  dup3\n    /* \"#utility.yul\":2081:2090   */\n  dup10\n    /* \"#utility.yul\":2077:2099   */\n  add\n    /* \"#utility.yul\":2045:2109   */\n  tag_23\n  jump\t// in\ntag_51:\n    /* \"#utility.yul\":2035:2109   */\n  swap4\n  pop\n    /* \"#utility.yul\":1990:2119   */\n  pop\n    /* \"#utility.yul\":2158:2160   */\n  0x60\n    /* \"#utility.yul\":2184:2248   */\n  tag_52\n    /* \"#utility.yul\":2240:2247   */\n  dup9\n    /* \"#utility.yul\":2231:2237   */\n  dup3\n    /* \"#utility.yul\":2220:2229   */\n  dup10\n    /* \"#utility.yul\":2216:2238   */\n  add\n    /* \"#utility.yul\":2184:2248   */\n  tag_23\n  jump\t// in\ntag_52:\n    /* \"#utility.yul\":2174:2248   */\n  swap3\n  pop\n    /* \"#utility.yul\":2129:2258   */\n  pop\n    /* \"#utility.yul\":2297:2300   */\n  0x80\n    /* \"#utility.yul\":2324:2387   */\n  tag_53\n    /* \"#utility.yul\":2379:2386   */\n  dup9\n    /* \"#utility.yul\":2370:2376   */\n  dup3\n    /* \"#utility.yul\":2359:2368   */\n  dup10\n    /* \"#utility.yul\":2355:2377   */\n  add\n    /* \"#utility.yul\":2324:2387   */\n  tag_17\n  jump\t// in\ntag_53:\n    /* \"#utility.yul\":2314:2387   */\n  swap2\n  pop\n    /* \"#utility.yul\":2268:2397   */\n  pop\n    /* \"#utility.yul\":1433:2404   */\n  swap3\n  swap6\n  pop\n  swap3\n  swap6\n  swap1\n  swap4\n  pop\n  jump\t// out\n    /* \"contracts/Project_AU.sol\":838:2969  contract smart_manager {... */\ntag_6:\n  dataSize(sub_0)\n  dup1\n  dataOffset(sub_0)\n  0x00\n  codecopy\n  0x00\n  return\nstop\n\nsub_0: assembly {\n        /* \"contracts/Project_AU.sol\":838:2969  contract smart_manager {... */\n      mstore(0x40, 0x80)\n      jumpi(tag_1, lt(calldatasize, 0x04))\n      shr(0xe0, calldataload(0x00))\n      dup1\n      0x59448016\n      gt\n      tag_11\n      jumpi\n      dup1\n      0x59448016\n      eq\n      tag_6\n      jumpi\n      dup1\n      0x6e04ff0d\n      eq\n      tag_7\n      jumpi\n      dup1\n      0x8e15f473\n      eq\n      tag_8\n      jumpi\n      dup1\n      0xa50ec326\n      eq\n      tag_9\n      jumpi\n      dup1\n      0xb69ef8a8\n      eq\n      tag_10\n      jumpi\n      jump(tag_1)\n    tag_11:\n      dup1\n      0x06661abd\n      eq\n      tag_2\n      jumpi\n      dup1\n      0x1a092541\n      eq\n      tag_3\n      jumpi\n      dup1\n      0x3ccfd60b\n      eq\n      tag_4\n      jumpi\n      dup1\n      0x4585e33b\n      eq\n      tag_5\n      jumpi\n    tag_1:\n      0x00\n      dup1\n      revert\n        /* \"contracts/Project_AU.sol\":1065:1089  uint256 public count = 1 */\n    tag_2:\n      callvalue\n      dup1\n      iszero\n      tag_12\n      jumpi\n      0x00\n      dup1\n      revert\n    tag_12:\n      pop\n      tag_13\n      tag_14\n      jump\t// in\n    tag_13:\n      mload(0x40)\n      tag_15\n      swap2\n      swap1\n      tag_16\n      jump\t// in\n    tag_15:\n      mload(0x40)\n      dup1\n      swap2\n      sub\n      swap1\n      return\n        /* \"contracts/Project_AU.sol\":1809:1917  function getDescription() public view returns (string memory) {... */\n    tag_3:\n      callvalue\n      dup1\n      iszero\n      tag_17\n      jumpi\n      0x00\n      dup1\n      revert\n    tag_17:\n      pop\n      tag_18\n      tag_19\n      jump\t// in\n    tag_18:\n      mload(0x40)\n      tag_20\n      swap2\n      swap1\n      tag_21\n      jump\t// in\n    tag_20:\n      mload(0x40)\n      dup1\n      swap2\n      sub\n      swap1\n      return\n        /* \"contracts/Project_AU.sol\":1436:1696  function withdraw() public payable {... */\n    tag_4:\n      tag_22\n      tag_23\n      jump\t// in\n    tag_22:\n      stop\n        /* \"contracts/Project_AU.sol\":2557:2967  function performUpkeep(bytes calldata performData) external {... */\n    tag_5:\n      callvalue\n      dup1\n      iszero\n      tag_24\n      jumpi\n      0x00\n      dup1\n      revert\n    tag_24:\n      pop\n      tag_25\n      0x04\n      dup1\n      calldatasize\n      sub\n      dup2\n      add\n      swap1\n      tag_26\n      swap2\n      swap1\n      tag_27\n      jump\t// in\n    tag_26:\n      tag_28\n      jump\t// in\n    tag_25:\n      stop\n        /* \"contracts/Project_AU.sol\":1035:1059  int public lastSeenPrice */\n    tag_6:\n      callvalue\n      dup1\n      iszero\n      tag_29\n      jumpi\n      0x00\n      dup1\n      revert\n    tag_29:\n      pop\n      tag_30\n      tag_31\n      jump\t// in\n    tag_30:\n      mload(0x40)\n      tag_32\n      swap2\n      swap1\n      tag_33\n      jump\t// in\n    tag_32:\n      mload(0x40)\n      dup1\n      swap2\n      sub\n      swap1\n      return\n        /* \"contracts/Project_AU.sol\":2234:2547  function checkUpkeep(bytes calldata /*checkData*/) external view returns (bool upkeepNeeded, bytes memory performData) {... */\n    tag_7:\n      callvalue\n      dup1\n      iszero\n      tag_34\n      jumpi\n      0x00\n      dup1\n      revert\n    tag_34:\n      pop\n      tag_35\n      0x04\n      dup1\n      calldatasize\n      sub\n      dup2\n      add\n      swap1\n      tag_36\n      swap2\n      swap1\n      tag_27\n      jump\t// in\n    tag_36:\n      tag_37\n      jump\t// in\n    tag_35:\n      mload(0x40)\n      tag_38\n      swap3\n      swap2\n      swap1\n      tag_39\n      jump\t// in\n    tag_38:\n      mload(0x40)\n      dup1\n      swap2\n      sub\n      swap1\n      return\n        /* \"contracts/Project_AU.sol\":1927:2224  function getLatestPrice() public view returns (int) {... */\n    tag_8:\n      callvalue\n      dup1\n      iszero\n      tag_40\n      jumpi\n      0x00\n      dup1\n      revert\n    tag_40:\n      pop\n      tag_41\n      tag_42\n      jump\t// in\n    tag_41:\n      mload(0x40)\n      tag_43\n      swap2\n      swap1\n      tag_33\n      jump\t// in\n    tag_43:\n      mload(0x40)\n      dup1\n      swap2\n      sub\n      swap1\n      return\n        /* \"contracts/Project_AU.sol\":1259:1426  function deposite() public payable {... */\n    tag_9:\n      tag_44\n      tag_45\n      jump\t// in\n    tag_44:\n      stop\n        /* \"contracts/Project_AU.sol\":1706:1799  function balance() public view returns (uint256) {... */\n    tag_10:\n      callvalue\n      dup1\n      iszero\n      tag_46\n      jumpi\n      0x00\n      dup1\n      revert\n    tag_46:\n      pop\n      tag_47\n      tag_48\n      jump\t// in\n    tag_47:\n      mload(0x40)\n      tag_49\n      swap2\n      swap1\n      tag_16\n      jump\t// in\n    tag_49:\n      mload(0x40)\n      dup1\n      swap2\n      sub\n      swap1\n      return\n        /* \"contracts/Project_AU.sol\":1065:1089  uint256 public count = 1 */\n    tag_14:\n      sload(0x03)\n      dup2\n      jump\t// out\n        /* \"contracts/Project_AU.sol\":1809:1917  function getDescription() public view returns (string memory) {... */\n    tag_19:\n        /* \"contracts/Project_AU.sol\":1856:1869  string memory */\n      0x60\n        /* \"contracts/Project_AU.sol\":1888:1896  dataFeed */\n      0x01\n      0x00\n      swap1\n      sload\n      swap1\n      0x0100\n      exp\n      swap1\n      div\n      0xffffffffffffffffffffffffffffffffffffffff\n      and\n        /* \"contracts/Project_AU.sol\":1888:1908  dataFeed.description */\n      0xffffffffffffffffffffffffffffffffffffffff\n      and\n      0x7284e416\n        /* \"contracts/Project_AU.sol\":1888:1910  dataFeed.description() */\n      mload(0x40)\n      dup2\n      0xffffffff\n      and\n      0xe0\n      shl\n      dup2\n      mstore\n      0x04\n      add\n      0x00\n      mload(0x40)\n      dup1\n      dup4\n      sub\n      dup2\n      dup7\n      gas\n      staticcall\n      iszero\n      dup1\n      iszero\n      tag_52\n      jumpi\n      returndatasize\n      0x00\n      dup1\n      returndatacopy\n      revert(0x00, returndatasize)\n    tag_52:\n      pop\n      pop\n      pop\n      pop\n      mload(0x40)\n      returndatasize\n      0x00\n      dup3\n      returndatacopy\n      returndatasize\n      not(0x1f)\n      0x1f\n      dup3\n      add\n      and\n      dup3\n      add\n      dup1\n      0x40\n      mstore\n      pop\n      dup2\n      add\n      swap1\n      tag_53\n      swap2\n      swap1\n      tag_54\n      jump\t// in\n    tag_53:\n        /* \"contracts/Project_AU.sol\":1881:1910  return dataFeed.description() */\n      swap1\n      pop\n        /* \"contracts/Project_AU.sol\":1809:1917  function getDescription() public view returns (string memory) {... */\n      swap1\n      jump\t// out\n        /* \"contracts/Project_AU.sol\":1436:1696  function withdraw() public payable {... */\n    tag_23:\n        /* \"contracts/Project_AU.sol\":1512:1513  0 */\n      0x00\n        /* \"contracts/Project_AU.sol\":1489:1497  balances */\n      dup1\n        /* \"contracts/Project_AU.sol\":1489:1509  balances[msg.sender] */\n      0x00\n        /* \"contracts/Project_AU.sol\":1498:1508  msg.sender */\n      caller\n        /* \"contracts/Project_AU.sol\":1489:1509  balances[msg.sender] */\n      0xffffffffffffffffffffffffffffffffffffffff\n      and\n      0xffffffffffffffffffffffffffffffffffffffff\n      and\n      dup2\n      mstore\n      0x20\n      add\n      swap1\n      dup2\n      mstore\n      0x20\n      add\n      0x00\n      keccak256\n      sload\n        /* \"contracts/Project_AU.sol\":1489:1513  balances[msg.sender] > 0 */\n      gt\n        /* \"contracts/Project_AU.sol\":1481:1555  require(balances[msg.sender] > 0, \"Sorry you are not allowed to withdraw\") */\n      tag_56\n      jumpi\n      mload(0x40)\n      0x08c379a000000000000000000000000000000000000000000000000000000000\n      dup2\n      mstore\n      0x04\n      add\n      tag_57\n      swap1\n      tag_58\n      jump\t// in\n    tag_57:\n      mload(0x40)\n      dup1\n      swap2\n      sub\n      swap1\n      revert\n    tag_56:\n        /* \"contracts/Project_AU.sol\":1573:1583  msg.sender */\n      caller\n        /* \"contracts/Project_AU.sol\":1565:1593  payable(msg.sender).transfer */\n      0xffffffffffffffffffffffffffffffffffffffff\n      and\n        /* \"contracts/Project_AU.sol\":1565:1615  payable(msg.sender).transfer(balances[msg.sender]) */\n      0x08fc\n        /* \"contracts/Project_AU.sol\":1594:1602  balances */\n      0x00\n        /* \"contracts/Project_AU.sol\":1594:1614  balances[msg.sender] */\n      dup1\n        /* \"contracts/Project_AU.sol\":1603:1613  msg.sender */\n      caller\n        /* \"contracts/Project_AU.sol\":1594:1614  balances[msg.sender] */\n      0xffffffffffffffffffffffffffffffffffffffff\n      and\n      0xffffffffffffffffffffffffffffffffffffffff\n      and\n      dup2\n      mstore\n      0x20\n      add\n      swap1\n      dup2\n      mstore\n      0x20\n      add\n      0x00\n      keccak256\n      sload\n        /* \"contracts/Project_AU.sol\":1565:1615  payable(msg.sender).transfer(balances[msg.sender]) */\n      swap1\n      dup2\n      iszero\n      mul\n      swap1\n      mload(0x40)\n      0x00\n      mload(0x40)\n      dup1\n      dup4\n      sub\n      dup2\n      dup6\n      dup9\n      dup9\n      call\n      swap4\n      pop\n      pop\n      pop\n      pop\n      iszero\n      dup1\n      iszero\n      tag_60\n      jumpi\n      returndatasize\n      0x00\n      dup1\n      returndatacopy\n      revert(0x00, returndatasize)\n    tag_60:\n      pop\n        /* \"contracts/Project_AU.sol\":1648:1649  0 */\n      0x00\n        /* \"contracts/Project_AU.sol\":1625:1633  balances */\n      dup1\n        /* \"contracts/Project_AU.sol\":1625:1645  balances[msg.sender] */\n      0x00\n        /* \"contracts/Project_AU.sol\":1634:1644  msg.sender */\n      caller\n        /* \"contracts/Project_AU.sol\":1625:1645  balances[msg.sender] */\n      0xffffffffffffffffffffffffffffffffffffffff\n      and\n      0xffffffffffffffffffffffffffffffffffffffff\n      and\n      dup2\n      mstore\n      0x20\n      add\n      swap1\n      dup2\n      mstore\n      0x20\n      add\n      0x00\n      keccak256\n        /* \"contracts/Project_AU.sol\":1625:1649  balances[msg.sender] = 0 */\n      dup2\n      swap1\n      sstore\n      pop\n        /* \"contracts/Project_AU.sol\":1436:1696  function withdraw() public payable {... */\n      jump\t// out\n        /* \"contracts/Project_AU.sol\":2557:2967  function performUpkeep(bytes calldata performData) external {... */\n    tag_28:\n        /* \"contracts/Project_AU.sol\":2627:2642  int latestPrice */\n      0x00\n        /* \"contracts/Project_AU.sol\":2645:2661  getLatestPrice() */\n      tag_62\n        /* \"contracts/Project_AU.sol\":2645:2659  getLatestPrice */\n      tag_42\n        /* \"contracts/Project_AU.sol\":2645:2661  getLatestPrice() */\n      jump\t// in\n    tag_62:\n        /* \"contracts/Project_AU.sol\":2627:2661  int latestPrice = getLatestPrice() */\n      swap1\n      pop\n        /* \"contracts/Project_AU.sol\":2770:2783  lastSeenPrice */\n      sload(0x02)\n        /* \"contracts/Project_AU.sol\":2756:2767  latestPrice */\n      dup2\n        /* \"contracts/Project_AU.sol\":2756:2783  latestPrice > lastSeenPrice */\n      sgt\n        /* \"contracts/Project_AU.sol\":2752:2961  if (latestPrice > lastSeenPrice) {... */\n      iszero\n      tag_63\n      jumpi\n        /* \"contracts/Project_AU.sol\":2848:2849  1 */\n      0x01\n        /* \"contracts/Project_AU.sol\":2839:2844  count */\n      0x03\n      0x00\n        /* \"contracts/Project_AU.sol\":2839:2849  count += 1 */\n      dup3\n      dup3\n      sload\n      tag_64\n      swap2\n      swap1\n      tag_65\n      jump\t// in\n    tag_64:\n      swap3\n      pop\n      pop\n      dup2\n      swap1\n      sstore\n      pop\n        /* \"contracts/Project_AU.sol\":2939:2950  latestPrice */\n      dup1\n        /* \"contracts/Project_AU.sol\":2923:2936  lastSeenPrice */\n      0x02\n        /* \"contracts/Project_AU.sol\":2923:2950  lastSeenPrice = latestPrice */\n      dup2\n      swap1\n      sstore\n      pop\n        /* \"contracts/Project_AU.sol\":2752:2961  if (latestPrice > lastSeenPrice) {... */\n    tag_63:\n        /* \"contracts/Project_AU.sol\":2617:2967  {... */\n      pop\n        /* \"contracts/Project_AU.sol\":2557:2967  function performUpkeep(bytes calldata performData) external {... */\n      pop\n      pop\n      jump\t// out\n        /* \"contracts/Project_AU.sol\":1035:1059  int public lastSeenPrice */\n    tag_31:\n      sload(0x02)\n      dup2\n      jump\t// out\n        /* \"contracts/Project_AU.sol\":2234:2547  function checkUpkeep(bytes calldata /*checkData*/) external view returns (bool upkeepNeeded, bytes memory performData) {... */\n    tag_37:\n        /* \"contracts/Project_AU.sol\":2308:2325  bool upkeepNeeded */\n      0x00\n        /* \"contracts/Project_AU.sol\":2327:2351  bytes memory performData */\n      0x60\n        /* \"contracts/Project_AU.sol\":2363:2378  int latestPrice */\n      0x00\n        /* \"contracts/Project_AU.sol\":2381:2397  getLatestPrice() */\n      tag_67\n        /* \"contracts/Project_AU.sol\":2381:2395  getLatestPrice */\n      tag_42\n        /* \"contracts/Project_AU.sol\":2381:2397  getLatestPrice() */\n      jump\t// in\n    tag_67:\n        /* \"contracts/Project_AU.sol\":2363:2397  int latestPrice = getLatestPrice() */\n      swap1\n      pop\n        /* \"contracts/Project_AU.sol\":2436:2449  lastSeenPrice */\n      sload(0x02)\n        /* \"contracts/Project_AU.sol\":2422:2433  latestPrice */\n      dup2\n        /* \"contracts/Project_AU.sol\":2422:2449  latestPrice > lastSeenPrice */\n      sgt\n        /* \"contracts/Project_AU.sol\":2407:2449  upkeepNeeded = latestPrice > lastSeenPrice */\n      swap3\n      pop\n        /* \"contracts/Project_AU.sol\":2484:2495  latestPrice */\n      dup1\n        /* \"contracts/Project_AU.sol\":2473:2496  abi.encode(latestPrice) */\n      add(0x20, mload(0x40))\n      tag_68\n      swap2\n      swap1\n      tag_33\n      jump\t// in\n    tag_68:\n      mload(0x40)\n      0x20\n      dup2\n      dup4\n      sub\n      sub\n      dup2\n      mstore\n      swap1\n      0x40\n      mstore\n        /* \"contracts/Project_AU.sol\":2459:2496  performData = abi.encode(latestPrice) */\n      swap2\n      pop\n        /* \"contracts/Project_AU.sol\":2506:2540  return (upkeepNeeded, performData) */\n      pop\n        /* \"contracts/Project_AU.sol\":2234:2547  function checkUpkeep(bytes calldata /*checkData*/) external view returns (bool upkeepNeeded, bytes memory performData) {... */\n      swap3\n      pop\n      swap3\n      swap1\n      pop\n      jump\t// out\n        /* \"contracts/Project_AU.sol\":1927:2224  function getLatestPrice() public view returns (int) {... */\n    tag_42:\n        /* \"contracts/Project_AU.sol\":1974:1977  int */\n      0x00\n        /* \"contracts/Project_AU.sol\":2037:2046  int price */\n      dup1\n        /* \"contracts/Project_AU.sol\":2169:2177  dataFeed */\n      0x01\n      0x00\n      swap1\n      sload\n      swap1\n      0x0100\n      exp\n      swap1\n      div\n      0xffffffffffffffffffffffffffffffffffffffff\n      and\n        /* \"contracts/Project_AU.sol\":2169:2193  dataFeed.latestRoundData */\n      0xffffffffffffffffffffffffffffffffffffffff\n      and\n      0xfeaf968c\n        /* \"contracts/Project_AU.sol\":2169:2195  dataFeed.latestRoundData() */\n      mload(0x40)\n      dup2\n      0xffffffff\n      and\n      0xe0\n      shl\n      dup2\n      mstore\n      0x04\n      add\n      0xa0\n      mload(0x40)\n      dup1\n      dup4\n      sub\n      dup2\n      dup7\n      gas\n      staticcall\n      iszero\n      dup1\n      iszero\n      tag_71\n      jumpi\n      returndatasize\n      0x00\n      dup1\n      returndatacopy\n      revert(0x00, returndatasize)\n    tag_71:\n      pop\n      pop\n      pop\n      pop\n      mload(0x40)\n      returndatasize\n      not(0x1f)\n      0x1f\n      dup3\n      add\n      and\n      dup3\n      add\n      dup1\n      0x40\n      mstore\n      pop\n      dup2\n      add\n      swap1\n      tag_72\n      swap2\n      swap1\n      tag_73\n      jump\t// in\n    tag_72:\n        /* \"contracts/Project_AU.sol\":1989:2195  (... */\n      pop\n      pop\n      pop\n      swap2\n      pop\n      pop\n        /* \"contracts/Project_AU.sol\":2212:2217  price */\n      dup1\n        /* \"contracts/Project_AU.sol\":2205:2217  return price */\n      swap2\n      pop\n      pop\n        /* \"contracts/Project_AU.sol\":1927:2224  function getLatestPrice() public view returns (int) {... */\n      swap1\n      jump\t// out\n        /* \"contracts/Project_AU.sol\":1259:1426  function deposite() public payable {... */\n    tag_45:\n        /* \"contracts/Project_AU.sol\":1324:1325  0 */\n      0x00\n        /* \"contracts/Project_AU.sol\":1312:1321  msg.value */\n      callvalue\n        /* \"contracts/Project_AU.sol\":1312:1325  msg.value > 0 */\n      gt\n        /* \"contracts/Project_AU.sol\":1304:1377  require(msg.value > 0, \"Sorry you don't have enough balance to Deposite\") */\n      tag_75\n      jumpi\n      mload(0x40)\n      0x08c379a000000000000000000000000000000000000000000000000000000000\n      dup2\n      mstore\n      0x04\n      add\n      tag_76\n      swap1\n      tag_77\n      jump\t// in\n    tag_76:\n      mload(0x40)\n      dup1\n      swap2\n      sub\n      swap1\n      revert\n    tag_75:\n        /* \"contracts/Project_AU.sol\":1410:1419  msg.value */\n      callvalue\n        /* \"contracts/Project_AU.sol\":1387:1395  balances */\n      0x00\n        /* \"contracts/Project_AU.sol\":1387:1407  balances[msg.sender] */\n      dup1\n        /* \"contracts/Project_AU.sol\":1396:1406  msg.sender */\n      caller\n        /* \"contracts/Project_AU.sol\":1387:1407  balances[msg.sender] */\n      0xffffffffffffffffffffffffffffffffffffffff\n      and\n      0xffffffffffffffffffffffffffffffffffffffff\n      and\n      dup2\n      mstore\n      0x20\n      add\n      swap1\n      dup2\n      mstore\n      0x20\n      add\n      0x00\n      keccak256\n        /* \"contracts/Project_AU.sol\":1387:1419  balances[msg.sender] = msg.value */\n      dup2\n      swap1\n      sstore\n      pop\n        /* \"contracts/Project_AU.sol\":1259:1426  function deposite() public payable {... */\n      jump\t// out\n        /* \"contracts/Project_AU.sol\":1706:1799  function balance() public view returns (uint256) {... */\n    tag_48:\n        /* \"contracts/Project_AU.sol\":1746:1753  uint256 */\n      0x00\n        /* \"contracts/Project_AU.sol\":1772:1780  balances */\n      dup1\n        /* \"contracts/Project_AU.sol\":1772:1792  balances[msg.sender] */\n      0x00\n        /* \"contracts/Project_AU.sol\":1781:1791  msg.sender */\n      caller\n        /* \"contracts/Project_AU.sol\":1772:1792  balances[msg.sender] */\n      0xffffffffffffffffffffffffffffffffffffffff\n      and\n      0xffffffffffffffffffffffffffffffffffffffff\n      and\n      dup2\n      mstore\n      0x20\n      add\n      swap1\n      dup2\n      mstore\n      0x20\n      add\n      0x00\n      keccak256\n      sload\n        /* \"contracts/Project_AU.sol\":1765:1792  return balances[msg.sender] */\n      swap1\n      pop\n        /* \"contracts/Project_AU.sol\":1706:1799  function balance() public view returns (uint256) {... */\n      swap1\n      jump\t// out\n        /* \"#utility.yul\":7:84   */\n    tag_79:\n        /* \"#utility.yul\":44:51   */\n      0x00\n        /* \"#utility.yul\":73:78   */\n      dup2\n        /* \"#utility.yul\":62:78   */\n      swap1\n      pop\n        /* \"#utility.yul\":7:84   */\n      swap2\n      swap1\n      pop\n      jump\t// out\n        /* \"#utility.yul\":90:208   */\n    tag_80:\n        /* \"#utility.yul\":177:201   */\n      tag_122\n        /* \"#utility.yul\":195:200   */\n      dup2\n        /* \"#utility.yul\":177:201   */\n      tag_79\n      jump\t// in\n    tag_122:\n        /* \"#utility.yul\":172:175   */\n      dup3\n        /* \"#utility.yul\":165:202   */\n      mstore\n        /* \"#utility.yul\":90:208   */\n      pop\n      pop\n      jump\t// out\n        /* \"#utility.yul\":214:436   */\n    tag_16:\n        /* \"#utility.yul\":307:311   */\n      0x00\n        /* \"#utility.yul\":345:347   */\n      0x20\n        /* \"#utility.yul\":334:343   */\n      dup3\n        /* \"#utility.yul\":330:348   */\n      add\n        /* \"#utility.yul\":322:348   */\n      swap1\n      pop\n        /* \"#utility.yul\":358:429   */\n      tag_124\n        /* \"#utility.yul\":426:427   */\n      0x00\n        /* \"#utility.yul\":415:424   */\n      dup4\n        /* \"#utility.yul\":411:428   */\n      add\n        /* \"#utility.yul\":402:408   */\n      dup5\n        /* \"#utility.yul\":358:429   */\n      tag_80\n      jump\t// in\n    tag_124:\n        /* \"#utility.yul\":214:436   */\n      swap3\n      swap2\n      pop\n      pop\n      jump\t// out\n        /* \"#utility.yul\":442:541   */\n    tag_81:\n        /* \"#utility.yul\":494:500   */\n      0x00\n        /* \"#utility.yul\":528:533   */\n      dup2\n        /* \"#utility.yul\":522:534   */\n      mload\n        /* \"#utility.yul\":512:534   */\n      swap1\n      pop\n        /* \"#utility.yul\":442:541   */\n      swap2\n      swap1\n      pop\n      jump\t// out\n        /* \"#utility.yul\":547:716   */\n    tag_82:\n        /* \"#utility.yul\":631:642   */\n      0x00\n        /* \"#utility.yul\":665:671   */\n      dup3\n        /* \"#utility.yul\":660:663   */\n      dup3\n        /* \"#utility.yul\":653:672   */\n      mstore\n        /* \"#utility.yul\":705:709   */\n      0x20\n        /* \"#utility.yul\":700:703   */\n      dup3\n        /* \"#utility.yul\":696:710   */\n      add\n        /* \"#utility.yul\":681:710   */\n      swap1\n      pop\n        /* \"#utility.yul\":547:716   */\n      swap3\n      swap2\n      pop\n      pop\n      jump\t// out\n        /* \"#utility.yul\":722:968   */\n    tag_83:\n        /* \"#utility.yul\":803:804   */\n      0x00\n        /* \"#utility.yul\":813:926   */\n    tag_128:\n        /* \"#utility.yul\":827:833   */\n      dup4\n        /* \"#utility.yul\":824:825   */\n      dup2\n        /* \"#utility.yul\":821:834   */\n      lt\n        /* \"#utility.yul\":813:926   */\n      iszero\n      tag_130\n      jumpi\n        /* \"#utility.yul\":912:913   */\n      dup1\n        /* \"#utility.yul\":907:910   */\n      dup3\n        /* \"#utility.yul\":903:914   */\n      add\n        /* \"#utility.yul\":897:915   */\n      mload\n        /* \"#utility.yul\":893:894   */\n      dup2\n        /* \"#utility.yul\":888:891   */\n      dup5\n        /* \"#utility.yul\":884:895   */\n      add\n        /* \"#utility.yul\":877:916   */\n      mstore\n        /* \"#utility.yul\":849:851   */\n      0x20\n        /* \"#utility.yul\":846:847   */\n      dup2\n        /* \"#utility.yul\":842:852   */\n      add\n        /* \"#utility.yul\":837:852   */\n      swap1\n      pop\n        /* \"#utility.yul\":813:926   */\n      jump(tag_128)\n    tag_130:\n        /* \"#utility.yul\":960:961   */\n      0x00\n        /* \"#utility.yul\":951:957   */\n      dup5\n        /* \"#utility.yul\":946:949   */\n      dup5\n        /* \"#utility.yul\":942:958   */\n      add\n        /* \"#utility.yul\":935:962   */\n      mstore\n        /* \"#utility.yul\":784:968   */\n      pop\n        /* \"#utility.yul\":722:968   */\n      pop\n      pop\n      pop\n      jump\t// out\n        /* \"#utility.yul\":974:1076   */\n    tag_84:\n        /* \"#utility.yul\":1015:1021   */\n      0x00\n        /* \"#utility.yul\":1066:1068   */\n      0x1f\n        /* \"#utility.yul\":1062:1069   */\n      not\n        /* \"#utility.yul\":1057:1059   */\n      0x1f\n        /* \"#utility.yul\":1050:1055   */\n      dup4\n        /* \"#utility.yul\":1046:1060   */\n      add\n        /* \"#utility.yul\":1042:1070   */\n      and\n        /* \"#utility.yul\":1032:1070   */\n      swap1\n      pop\n        /* \"#utility.yul\":974:1076   */\n      swap2\n      swap1\n      pop\n      jump\t// out\n        /* \"#utility.yul\":1082:1459   */\n    tag_85:\n        /* \"#utility.yul\":1170:1173   */\n      0x00\n        /* \"#utility.yul\":1198:1237   */\n      tag_133\n        /* \"#utility.yul\":1231:1236   */\n      dup3\n        /* \"#utility.yul\":1198:1237   */\n      tag_81\n      jump\t// in\n    tag_133:\n        /* \"#utility.yul\":1253:1324   */\n      tag_134\n        /* \"#utility.yul\":1317:1323   */\n      dup2\n        /* \"#utility.yul\":1312:1315   */\n      dup6\n        /* \"#utility.yul\":1253:1324   */\n      tag_82\n      jump\t// in\n    tag_134:\n        /* \"#utility.yul\":1246:1324   */\n      swap4\n      pop\n        /* \"#utility.yul\":1333:1398   */\n      tag_135\n        /* \"#utility.yul\":1391:1397   */\n      dup2\n        /* \"#utility.yul\":1386:1389   */\n      dup6\n        /* \"#utility.yul\":1379:1383   */\n      0x20\n        /* \"#utility.yul\":1372:1377   */\n      dup7\n        /* \"#utility.yul\":1368:1384   */\n      add\n        /* \"#utility.yul\":1333:1398   */\n      tag_83\n      jump\t// in\n    tag_135:\n        /* \"#utility.yul\":1423:1452   */\n      tag_136\n        /* \"#utility.yul\":1445:1451   */\n      dup2\n        /* \"#utility.yul\":1423:1452   */\n      tag_84\n      jump\t// in\n    tag_136:\n        /* \"#utility.yul\":1418:1421   */\n      dup5\n        /* \"#utility.yul\":1414:1453   */\n      add\n        /* \"#utility.yul\":1407:1453   */\n      swap2\n      pop\n        /* \"#utility.yul\":1174:1459   */\n      pop\n        /* \"#utility.yul\":1082:1459   */\n      swap3\n      swap2\n      pop\n      pop\n      jump\t// out\n        /* \"#utility.yul\":1465:1778   */\n    tag_21:\n        /* \"#utility.yul\":1578:1582   */\n      0x00\n        /* \"#utility.yul\":1616:1618   */\n      0x20\n        /* \"#utility.yul\":1605:1614   */\n      dup3\n        /* \"#utility.yul\":1601:1619   */\n      add\n        /* \"#utility.yul\":1593:1619   */\n      swap1\n      pop\n        /* \"#utility.yul\":1665:1674   */\n      dup2\n        /* \"#utility.yul\":1659:1663   */\n      dup2\n        /* \"#utility.yul\":1655:1675   */\n      sub\n        /* \"#utility.yul\":1651:1652   */\n      0x00\n        /* \"#utility.yul\":1640:1649   */\n      dup4\n        /* \"#utility.yul\":1636:1653   */\n      add\n        /* \"#utility.yul\":1629:1676   */\n      mstore\n        /* \"#utility.yul\":1693:1771   */\n      tag_138\n        /* \"#utility.yul\":1766:1770   */\n      dup2\n        /* \"#utility.yul\":1757:1763   */\n      dup5\n        /* \"#utility.yul\":1693:1771   */\n      tag_85\n      jump\t// in\n    tag_138:\n        /* \"#utility.yul\":1685:1771   */\n      swap1\n      pop\n        /* \"#utility.yul\":1465:1778   */\n      swap3\n      swap2\n      pop\n      pop\n      jump\t// out\n        /* \"#utility.yul\":1784:1859   */\n    tag_86:\n        /* \"#utility.yul\":1817:1823   */\n      0x00\n        /* \"#utility.yul\":1850:1852   */\n      0x40\n        /* \"#utility.yul\":1844:1853   */\n      mload\n        /* \"#utility.yul\":1834:1853   */\n      swap1\n      pop\n        /* \"#utility.yul\":1784:1859   */\n      swap1\n      jump\t// out\n        /* \"#utility.yul\":1865:1982   */\n    tag_87:\n        /* \"#utility.yul\":1974:1975   */\n      0x00\n        /* \"#utility.yul\":1971:1972   */\n      dup1\n        /* \"#utility.yul\":1964:1976   */\n      revert\n        /* \"#utility.yul\":1988:2105   */\n    tag_88:\n        /* \"#utility.yul\":2097:2098   */\n      0x00\n        /* \"#utility.yul\":2094:2095   */\n      dup1\n        /* \"#utility.yul\":2087:2099   */\n      revert\n        /* \"#utility.yul\":2111:2228   */\n    tag_89:\n        /* \"#utility.yul\":2220:2221   */\n      0x00\n        /* \"#utility.yul\":2217:2218   */\n      dup1\n        /* \"#utility.yul\":2210:2222   */\n      revert\n        /* \"#utility.yul\":2234:2351   */\n    tag_90:\n        /* \"#utility.yul\":2343:2344   */\n      0x00\n        /* \"#utility.yul\":2340:2341   */\n      dup1\n        /* \"#utility.yul\":2333:2345   */\n      revert\n        /* \"#utility.yul\":2357:2474   */\n    tag_91:\n        /* \"#utility.yul\":2466:2467   */\n      0x00\n        /* \"#utility.yul\":2463:2464   */\n      dup1\n        /* \"#utility.yul\":2456:2468   */\n      revert\n        /* \"#utility.yul\":2493:3045   */\n    tag_92:\n        /* \"#utility.yul\":2550:2558   */\n      0x00\n        /* \"#utility.yul\":2560:2566   */\n      dup1\n        /* \"#utility.yul\":2610:2613   */\n      dup4\n        /* \"#utility.yul\":2603:2607   */\n      0x1f\n        /* \"#utility.yul\":2595:2601   */\n      dup5\n        /* \"#utility.yul\":2591:2608   */\n      add\n        /* \"#utility.yul\":2587:2614   */\n      slt\n        /* \"#utility.yul\":2577:2699   */\n      tag_146\n      jumpi\n        /* \"#utility.yul\":2618:2697   */\n      tag_147\n      tag_89\n      jump\t// in\n    tag_147:\n        /* \"#utility.yul\":2577:2699   */\n    tag_146:\n        /* \"#utility.yul\":2731:2737   */\n      dup3\n        /* \"#utility.yul\":2718:2738   */\n      calldataload\n        /* \"#utility.yul\":2708:2738   */\n      swap1\n      pop\n        /* \"#utility.yul\":2761:2779   */\n      0xffffffffffffffff\n        /* \"#utility.yul\":2753:2759   */\n      dup2\n        /* \"#utility.yul\":2750:2780   */\n      gt\n        /* \"#utility.yul\":2747:2864   */\n      iszero\n      tag_148\n      jumpi\n        /* \"#utility.yul\":2783:2862   */\n      tag_149\n      tag_90\n      jump\t// in\n    tag_149:\n        /* \"#utility.yul\":2747:2864   */\n    tag_148:\n        /* \"#utility.yul\":2897:2901   */\n      0x20\n        /* \"#utility.yul\":2889:2895   */\n      dup4\n        /* \"#utility.yul\":2885:2902   */\n      add\n        /* \"#utility.yul\":2873:2902   */\n      swap2\n      pop\n        /* \"#utility.yul\":2951:2954   */\n      dup4\n        /* \"#utility.yul\":2943:2947   */\n      0x01\n        /* \"#utility.yul\":2935:2941   */\n      dup3\n        /* \"#utility.yul\":2931:2948   */\n      mul\n        /* \"#utility.yul\":2921:2929   */\n      dup4\n        /* \"#utility.yul\":2917:2949   */\n      add\n        /* \"#utility.yul\":2914:2955   */\n      gt\n        /* \"#utility.yul\":2911:3039   */\n      iszero\n      tag_150\n      jumpi\n        /* \"#utility.yul\":2958:3037   */\n      tag_151\n      tag_91\n      jump\t// in\n    tag_151:\n        /* \"#utility.yul\":2911:3039   */\n    tag_150:\n        /* \"#utility.yul\":2493:3045   */\n      swap3\n      pop\n      swap3\n      swap1\n      pop\n      jump\t// out\n        /* \"#utility.yul\":3051:3578   */\n    tag_27:\n        /* \"#utility.yul\":3121:3127   */\n      0x00\n        /* \"#utility.yul\":3129:3135   */\n      dup1\n        /* \"#utility.yul\":3178:3180   */\n      0x20\n        /* \"#utility.yul\":3166:3175   */\n      dup4\n        /* \"#utility.yul\":3157:3164   */\n      dup6\n        /* \"#utility.yul\":3153:3176   */\n      sub\n        /* \"#utility.yul\":3149:3181   */\n      slt\n        /* \"#utility.yul\":3146:3265   */\n      iszero\n      tag_153\n      jumpi\n        /* \"#utility.yul\":3184:3263   */\n      tag_154\n      tag_87\n      jump\t// in\n    tag_154:\n        /* \"#utility.yul\":3146:3265   */\n    tag_153:\n        /* \"#utility.yul\":3332:3333   */\n      0x00\n        /* \"#utility.yul\":3321:3330   */\n      dup4\n        /* \"#utility.yul\":3317:3334   */\n      add\n        /* \"#utility.yul\":3304:3335   */\n      calldataload\n        /* \"#utility.yul\":3362:3380   */\n      0xffffffffffffffff\n        /* \"#utility.yul\":3354:3360   */\n      dup2\n        /* \"#utility.yul\":3351:3381   */\n      gt\n        /* \"#utility.yul\":3348:3465   */\n      iszero\n      tag_155\n      jumpi\n        /* \"#utility.yul\":3384:3463   */\n      tag_156\n      tag_88\n      jump\t// in\n    tag_156:\n        /* \"#utility.yul\":3348:3465   */\n    tag_155:\n        /* \"#utility.yul\":3497:3561   */\n      tag_157\n        /* \"#utility.yul\":3553:3560   */\n      dup6\n        /* \"#utility.yul\":3544:3550   */\n      dup3\n        /* \"#utility.yul\":3533:3542   */\n      dup7\n        /* \"#utility.yul\":3529:3551   */\n      add\n        /* \"#utility.yul\":3497:3561   */\n      tag_92\n      jump\t// in\n    tag_157:\n        /* \"#utility.yul\":3479:3561   */\n      swap3\n      pop\n      swap3\n      pop\n        /* \"#utility.yul\":3275:3571   */\n      pop\n        /* \"#utility.yul\":3051:3578   */\n      swap3\n      pop\n      swap3\n      swap1\n      pop\n      jump\t// out\n        /* \"#utility.yul\":3584:3660   */\n    tag_93:\n        /* \"#utility.yul\":3620:3627   */\n      0x00\n        /* \"#utility.yul\":3649:3654   */\n      dup2\n        /* \"#utility.yul\":3638:3654   */\n      swap1\n      pop\n        /* \"#utility.yul\":3584:3660   */\n      swap2\n      swap1\n      pop\n      jump\t// out\n        /* \"#utility.yul\":3666:3781   */\n    tag_94:\n        /* \"#utility.yul\":3751:3774   */\n      tag_160\n        /* \"#utility.yul\":3768:3773   */\n      dup2\n        /* \"#utility.yul\":3751:3774   */\n      tag_93\n      jump\t// in\n    tag_160:\n        /* \"#utility.yul\":3746:3749   */\n      dup3\n        /* \"#utility.yul\":3739:3775   */\n      mstore\n        /* \"#utility.yul\":3666:3781   */\n      pop\n      pop\n      jump\t// out\n        /* \"#utility.yul\":3787:4005   */\n    tag_33:\n        /* \"#utility.yul\":3878:3882   */\n      0x00\n        /* \"#utility.yul\":3916:3918   */\n      0x20\n        /* \"#utility.yul\":3905:3914   */\n      dup3\n        /* \"#utility.yul\":3901:3919   */\n      add\n        /* \"#utility.yul\":3893:3919   */\n      swap1\n      pop\n        /* \"#utility.yul\":3929:3998   */\n      tag_162\n        /* \"#utility.yul\":3995:3996   */\n      0x00\n        /* \"#utility.yul\":3984:3993   */\n      dup4\n        /* \"#utility.yul\":3980:3997   */\n      add\n        /* \"#utility.yul\":3971:3977   */\n      dup5\n        /* \"#utility.yul\":3929:3998   */\n      tag_94\n      jump\t// in\n    tag_162:\n        /* \"#utility.yul\":3787:4005   */\n      swap3\n      swap2\n      pop\n      pop\n      jump\t// out\n        /* \"#utility.yul\":4011:4101   */\n    tag_95:\n        /* \"#utility.yul\":4045:4052   */\n      0x00\n        /* \"#utility.yul\":4088:4093   */\n      dup2\n        /* \"#utility.yul\":4081:4094   */\n      iszero\n        /* \"#utility.yul\":4074:4095   */\n      iszero\n        /* \"#utility.yul\":4063:4095   */\n      swap1\n      pop\n        /* \"#utility.yul\":4011:4101   */\n      swap2\n      swap1\n      pop\n      jump\t// out\n        /* \"#utility.yul\":4107:4216   */\n    tag_96:\n        /* \"#utility.yul\":4188:4209   */\n      tag_165\n        /* \"#utility.yul\":4203:4208   */\n      dup2\n        /* \"#utility.yul\":4188:4209   */\n      tag_95\n      jump\t// in\n    tag_165:\n        /* \"#utility.yul\":4183:4186   */\n      dup3\n        /* \"#utility.yul\":4176:4210   */\n      mstore\n        /* \"#utility.yul\":4107:4216   */\n      pop\n      pop\n      jump\t// out\n        /* \"#utility.yul\":4222:4320   */\n    tag_97:\n        /* \"#utility.yul\":4273:4279   */\n      0x00\n        /* \"#utility.yul\":4307:4312   */\n      dup2\n        /* \"#utility.yul\":4301:4313   */\n      mload\n        /* \"#utility.yul\":4291:4313   */\n      swap1\n      pop\n        /* \"#utility.yul\":4222:4320   */\n      swap2\n      swap1\n      pop\n      jump\t// out\n        /* \"#utility.yul\":4326:4494   */\n    tag_98:\n        /* \"#utility.yul\":4409:4420   */\n      0x00\n        /* \"#utility.yul\":4443:4449   */\n      dup3\n        /* \"#utility.yul\":4438:4441   */\n      dup3\n        /* \"#utility.yul\":4431:4450   */\n      mstore\n        /* \"#utility.yul\":4483:4487   */\n      0x20\n        /* \"#utility.yul\":4478:4481   */\n      dup3\n        /* \"#utility.yul\":4474:4488   */\n      add\n        /* \"#utility.yul\":4459:4488   */\n      swap1\n      pop\n        /* \"#utility.yul\":4326:4494   */\n      swap3\n      swap2\n      pop\n      pop\n      jump\t// out\n        /* \"#utility.yul\":4500:4873   */\n    tag_99:\n        /* \"#utility.yul\":4586:4589   */\n      0x00\n        /* \"#utility.yul\":4614:4652   */\n      tag_169\n        /* \"#utility.yul\":4646:4651   */\n      dup3\n        /* \"#utility.yul\":4614:4652   */\n      tag_97\n      jump\t// in\n    tag_169:\n        /* \"#utility.yul\":4668:4738   */\n      tag_170\n        /* \"#utility.yul\":4731:4737   */\n      dup2\n        /* \"#utility.yul\":4726:4729   */\n      dup6\n        /* \"#utility.yul\":4668:4738   */\n      tag_98\n      jump\t// in\n    tag_170:\n        /* \"#utility.yul\":4661:4738   */\n      swap4\n      pop\n        /* \"#utility.yul\":4747:4812   */\n      tag_171\n        /* \"#utility.yul\":4805:4811   */\n      dup2\n        /* \"#utility.yul\":4800:4803   */\n      dup6\n        /* \"#utility.yul\":4793:4797   */\n      0x20\n        /* \"#utility.yul\":4786:4791   */\n      dup7\n        /* \"#utility.yul\":4782:4798   */\n      add\n        /* \"#utility.yul\":4747:4812   */\n      tag_83\n      jump\t// in\n    tag_171:\n        /* \"#utility.yul\":4837:4866   */\n      tag_172\n        /* \"#utility.yul\":4859:4865   */\n      dup2\n        /* \"#utility.yul\":4837:4866   */\n      tag_84\n      jump\t// in\n    tag_172:\n        /* \"#utility.yul\":4832:4835   */\n      dup5\n        /* \"#utility.yul\":4828:4867   */\n      add\n        /* \"#utility.yul\":4821:4867   */\n      swap2\n      pop\n        /* \"#utility.yul\":4590:4873   */\n      pop\n        /* \"#utility.yul\":4500:4873   */\n      swap3\n      swap2\n      pop\n      pop\n      jump\t// out\n        /* \"#utility.yul\":4879:5286   */\n    tag_39:\n        /* \"#utility.yul\":5012:5016   */\n      0x00\n        /* \"#utility.yul\":5050:5052   */\n      0x40\n        /* \"#utility.yul\":5039:5048   */\n      dup3\n        /* \"#utility.yul\":5035:5053   */\n      add\n        /* \"#utility.yul\":5027:5053   */\n      swap1\n      pop\n        /* \"#utility.yul\":5063:5128   */\n      tag_174\n        /* \"#utility.yul\":5125:5126   */\n      0x00\n        /* \"#utility.yul\":5114:5123   */\n      dup4\n        /* \"#utility.yul\":5110:5127   */\n      add\n        /* \"#utility.yul\":5101:5107   */\n      dup6\n        /* \"#utility.yul\":5063:5128   */\n      tag_96\n      jump\t// in\n    tag_174:\n        /* \"#utility.yul\":5175:5184   */\n      dup2\n        /* \"#utility.yul\":5169:5173   */\n      dup2\n        /* \"#utility.yul\":5165:5185   */\n      sub\n        /* \"#utility.yul\":5160:5162   */\n      0x20\n        /* \"#utility.yul\":5149:5158   */\n      dup4\n        /* \"#utility.yul\":5145:5163   */\n      add\n        /* \"#utility.yul\":5138:5186   */\n      mstore\n        /* \"#utility.yul\":5203:5279   */\n      tag_175\n        /* \"#utility.yul\":5274:5278   */\n      dup2\n        /* \"#utility.yul\":5265:5271   */\n      dup5\n        /* \"#utility.yul\":5203:5279   */\n      tag_99\n      jump\t// in\n    tag_175:\n        /* \"#utility.yul\":5195:5279   */\n      swap1\n      pop\n        /* \"#utility.yul\":4879:5286   */\n      swap4\n      swap3\n      pop\n      pop\n      pop\n      jump\t// out\n        /* \"#utility.yul\":5292:5409   */\n    tag_100:\n        /* \"#utility.yul\":5401:5402   */\n      0x00\n        /* \"#utility.yul\":5398:5399   */\n      dup1\n        /* \"#utility.yul\":5391:5403   */\n      revert\n        /* \"#utility.yul\":5415:5595   */\n    tag_101:\n        /* \"#utility.yul\":5463:5540   */\n      0x4e487b7100000000000000000000000000000000000000000000000000000000\n        /* \"#utility.yul\":5460:5461   */\n      0x00\n        /* \"#utility.yul\":5453:5541   */\n      mstore\n        /* \"#utility.yul\":5560:5564   */\n      0x41\n        /* \"#utility.yul\":5557:5558   */\n      0x04\n        /* \"#utility.yul\":5550:5565   */\n      mstore\n        /* \"#utility.yul\":5584:5588   */\n      0x24\n        /* \"#utility.yul\":5581:5582   */\n      0x00\n        /* \"#utility.yul\":5574:5589   */\n      revert\n        /* \"#utility.yul\":5601:5882   */\n    tag_102:\n        /* \"#utility.yul\":5684:5711   */\n      tag_179\n        /* \"#utility.yul\":5706:5710   */\n      dup3\n        /* \"#utility.yul\":5684:5711   */\n      tag_84\n      jump\t// in\n    tag_179:\n        /* \"#utility.yul\":5676:5682   */\n      dup2\n        /* \"#utility.yul\":5672:5712   */\n      add\n        /* \"#utility.yul\":5814:5820   */\n      dup2\n        /* \"#utility.yul\":5802:5812   */\n      dup2\n        /* \"#utility.yul\":5799:5821   */\n      lt\n        /* \"#utility.yul\":5778:5796   */\n      0xffffffffffffffff\n        /* \"#utility.yul\":5766:5776   */\n      dup3\n        /* \"#utility.yul\":5763:5797   */\n      gt\n        /* \"#utility.yul\":5760:5822   */\n      or\n        /* \"#utility.yul\":5757:5845   */\n      iszero\n      tag_180\n      jumpi\n        /* \"#utility.yul\":5825:5843   */\n      tag_181\n      tag_101\n      jump\t// in\n    tag_181:\n        /* \"#utility.yul\":5757:5845   */\n    tag_180:\n        /* \"#utility.yul\":5865:5875   */\n      dup1\n        /* \"#utility.yul\":5861:5863   */\n      0x40\n        /* \"#utility.yul\":5854:5876   */\n      mstore\n        /* \"#utility.yul\":5644:5882   */\n      pop\n        /* \"#utility.yul\":5601:5882   */\n      pop\n      pop\n      jump\t// out\n        /* \"#utility.yul\":5888:6017   */\n    tag_103:\n        /* \"#utility.yul\":5922:5928   */\n      0x00\n        /* \"#utility.yul\":5949:5969   */\n      tag_183\n      tag_86\n      jump\t// in\n    tag_183:\n        /* \"#utility.yul\":5939:5969   */\n      swap1\n      pop\n        /* \"#utility.yul\":5978:6011   */\n      tag_184\n        /* \"#utility.yul\":6006:6010   */\n      dup3\n        /* \"#utility.yul\":5998:6004   */\n      dup3\n        /* \"#utility.yul\":5978:6011   */\n      tag_102\n      jump\t// in\n    tag_184:\n        /* \"#utility.yul\":5888:6017   */\n      swap2\n      swap1\n      pop\n      jump\t// out\n        /* \"#utility.yul\":6023:6331   */\n    tag_104:\n        /* \"#utility.yul\":6085:6089   */\n      0x00\n        /* \"#utility.yul\":6175:6193   */\n      0xffffffffffffffff\n        /* \"#utility.yul\":6167:6173   */\n      dup3\n        /* \"#utility.yul\":6164:6194   */\n      gt\n        /* \"#utility.yul\":6161:6217   */\n      iszero\n      tag_186\n      jumpi\n        /* \"#utility.yul\":6197:6215   */\n      tag_187\n      tag_101\n      jump\t// in\n    tag_187:\n        /* \"#utility.yul\":6161:6217   */\n    tag_186:\n        /* \"#utility.yul\":6235:6264   */\n      tag_188\n        /* \"#utility.yul\":6257:6263   */\n      dup3\n        /* \"#utility.yul\":6235:6264   */\n      tag_84\n      jump\t// in\n    tag_188:\n        /* \"#utility.yul\":6227:6264   */\n      swap1\n      pop\n        /* \"#utility.yul\":6319:6323   */\n      0x20\n        /* \"#utility.yul\":6313:6317   */\n      dup2\n        /* \"#utility.yul\":6309:6324   */\n      add\n        /* \"#utility.yul\":6301:6324   */\n      swap1\n      pop\n        /* \"#utility.yul\":6023:6331   */\n      swap2\n      swap1\n      pop\n      jump\t// out\n        /* \"#utility.yul\":6337:6771   */\n    tag_105:\n        /* \"#utility.yul\":6426:6431   */\n      0x00\n        /* \"#utility.yul\":6451:6517   */\n      tag_190\n        /* \"#utility.yul\":6467:6516   */\n      tag_191\n        /* \"#utility.yul\":6509:6515   */\n      dup5\n        /* \"#utility.yul\":6467:6516   */\n      tag_104\n      jump\t// in\n    tag_191:\n        /* \"#utility.yul\":6451:6517   */\n      tag_103\n      jump\t// in\n    tag_190:\n        /* \"#utility.yul\":6442:6517   */\n      swap1\n      pop\n        /* \"#utility.yul\":6540:6546   */\n      dup3\n        /* \"#utility.yul\":6533:6538   */\n      dup2\n        /* \"#utility.yul\":6526:6547   */\n      mstore\n        /* \"#utility.yul\":6578:6582   */\n      0x20\n        /* \"#utility.yul\":6571:6576   */\n      dup2\n        /* \"#utility.yul\":6567:6583   */\n      add\n        /* \"#utility.yul\":6616:6619   */\n      dup5\n        /* \"#utility.yul\":6607:6613   */\n      dup5\n        /* \"#utility.yul\":6602:6605   */\n      dup5\n        /* \"#utility.yul\":6598:6614   */\n      add\n        /* \"#utility.yul\":6595:6620   */\n      gt\n        /* \"#utility.yul\":6592:6704   */\n      iszero\n      tag_192\n      jumpi\n        /* \"#utility.yul\":6623:6702   */\n      tag_193\n      tag_100\n      jump\t// in\n    tag_193:\n        /* \"#utility.yul\":6592:6704   */\n    tag_192:\n        /* \"#utility.yul\":6713:6765   */\n      tag_194\n        /* \"#utility.yul\":6758:6764   */\n      dup5\n        /* \"#utility.yul\":6753:6756   */\n      dup3\n        /* \"#utility.yul\":6748:6751   */\n      dup6\n        /* \"#utility.yul\":6713:6765   */\n      tag_83\n      jump\t// in\n    tag_194:\n        /* \"#utility.yul\":6432:6771   */\n      pop\n        /* \"#utility.yul\":6337:6771   */\n      swap4\n      swap3\n      pop\n      pop\n      pop\n      jump\t// out\n        /* \"#utility.yul\":6791:7146   */\n    tag_106:\n        /* \"#utility.yul\":6858:6863   */\n      0x00\n        /* \"#utility.yul\":6907:6910   */\n      dup3\n        /* \"#utility.yul\":6900:6904   */\n      0x1f\n        /* \"#utility.yul\":6892:6898   */\n      dup4\n        /* \"#utility.yul\":6888:6905   */\n      add\n        /* \"#utility.yul\":6884:6911   */\n      slt\n        /* \"#utility.yul\":6874:6996   */\n      tag_196\n      jumpi\n        /* \"#utility.yul\":6915:6994   */\n      tag_197\n      tag_89\n      jump\t// in\n    tag_197:\n        /* \"#utility.yul\":6874:6996   */\n    tag_196:\n        /* \"#utility.yul\":7025:7031   */\n      dup2\n        /* \"#utility.yul\":7019:7032   */\n      mload\n        /* \"#utility.yul\":7050:7140   */\n      tag_198\n        /* \"#utility.yul\":7136:7139   */\n      dup5\n        /* \"#utility.yul\":7128:7134   */\n      dup3\n        /* \"#utility.yul\":7121:7125   */\n      0x20\n        /* \"#utility.yul\":7113:7119   */\n      dup7\n        /* \"#utility.yul\":7109:7126   */\n      add\n        /* \"#utility.yul\":7050:7140   */\n      tag_105\n      jump\t// in\n    tag_198:\n        /* \"#utility.yul\":7041:7140   */\n      swap2\n      pop\n        /* \"#utility.yul\":6864:7146   */\n      pop\n        /* \"#utility.yul\":6791:7146   */\n      swap3\n      swap2\n      pop\n      pop\n      jump\t// out\n        /* \"#utility.yul\":7152:7676   */\n    tag_54:\n        /* \"#utility.yul\":7232:7238   */\n      0x00\n        /* \"#utility.yul\":7281:7283   */\n      0x20\n        /* \"#utility.yul\":7269:7278   */\n      dup3\n        /* \"#utility.yul\":7260:7267   */\n      dup5\n        /* \"#utility.yul\":7256:7279   */\n      sub\n        /* \"#utility.yul\":7252:7284   */\n      slt\n        /* \"#utility.yul\":7249:7368   */\n      iszero\n      tag_200\n      jumpi\n        /* \"#utility.yul\":7287:7366   */\n      tag_201\n      tag_87\n      jump\t// in\n    tag_201:\n        /* \"#utility.yul\":7249:7368   */\n    tag_200:\n        /* \"#utility.yul\":7428:7429   */\n      0x00\n        /* \"#utility.yul\":7417:7426   */\n      dup3\n        /* \"#utility.yul\":7413:7430   */\n      add\n        /* \"#utility.yul\":7407:7431   */\n      mload\n        /* \"#utility.yul\":7458:7476   */\n      0xffffffffffffffff\n        /* \"#utility.yul\":7450:7456   */\n      dup2\n        /* \"#utility.yul\":7447:7477   */\n      gt\n        /* \"#utility.yul\":7444:7561   */\n      iszero\n      tag_202\n      jumpi\n        /* \"#utility.yul\":7480:7559   */\n      tag_203\n      tag_88\n      jump\t// in\n    tag_203:\n        /* \"#utility.yul\":7444:7561   */\n    tag_202:\n        /* \"#utility.yul\":7585:7659   */\n      tag_204\n        /* \"#utility.yul\":7651:7658   */\n      dup5\n        /* \"#utility.yul\":7642:7648   */\n      dup3\n        /* \"#utility.yul\":7631:7640   */\n      dup6\n        /* \"#utility.yul\":7627:7649   */\n      add\n        /* \"#utility.yul\":7585:7659   */\n      tag_106\n      jump\t// in\n    tag_204:\n        /* \"#utility.yul\":7575:7659   */\n      swap2\n      pop\n        /* \"#utility.yul\":7378:7669   */\n      pop\n        /* \"#utility.yul\":7152:7676   */\n      swap3\n      swap2\n      pop\n      pop\n      jump\t// out\n        /* \"#utility.yul\":7682:7906   */\n    tag_107:\n        /* \"#utility.yul\":7822:7856   */\n      0x536f72727920796f7520617265206e6f7420616c6c6f77656420746f20776974\n        /* \"#utility.yul\":7818:7819   */\n      0x00\n        /* \"#utility.yul\":7810:7816   */\n      dup3\n        /* \"#utility.yul\":7806:7820   */\n      add\n        /* \"#utility.yul\":7799:7857   */\n      mstore\n        /* \"#utility.yul\":7891:7898   */\n      0x6864726177000000000000000000000000000000000000000000000000000000\n        /* \"#utility.yul\":7886:7888   */\n      0x20\n        /* \"#utility.yul\":7878:7884   */\n      dup3\n        /* \"#utility.yul\":7874:7889   */\n      add\n        /* \"#utility.yul\":7867:7899   */\n      mstore\n        /* \"#utility.yul\":7682:7906   */\n      pop\n      jump\t// out\n        /* \"#utility.yul\":7912:8278   */\n    tag_108:\n        /* \"#utility.yul\":8054:8057   */\n      0x00\n        /* \"#utility.yul\":8075:8142   */\n      tag_207\n        /* \"#utility.yul\":8139:8141   */\n      0x25\n        /* \"#utility.yul\":8134:8137   */\n      dup4\n        /* \"#utility.yul\":8075:8142   */\n      tag_82\n      jump\t// in\n    tag_207:\n        /* \"#utility.yul\":8068:8142   */\n      swap2\n      pop\n        /* \"#utility.yul\":8151:8244   */\n      tag_208\n        /* \"#utility.yul\":8240:8243   */\n      dup3\n        /* \"#utility.yul\":8151:8244   */\n      tag_107\n      jump\t// in\n    tag_208:\n        /* \"#utility.yul\":8269:8271   */\n      0x40\n        /* \"#utility.yul\":8264:8267   */\n      dup3\n        /* \"#utility.yul\":8260:8272   */\n      add\n        /* \"#utility.yul\":8253:8272   */\n      swap1\n      pop\n        /* \"#utility.yul\":7912:8278   */\n      swap2\n      swap1\n      pop\n      jump\t// out\n        /* \"#utility.yul\":8284:8703   */\n    tag_58:\n        /* \"#utility.yul\":8450:8454   */\n      0x00\n        /* \"#utility.yul\":8488:8490   */\n      0x20\n        /* \"#utility.yul\":8477:8486   */\n      dup3\n        /* \"#utility.yul\":8473:8491   */\n      add\n        /* \"#utility.yul\":8465:8491   */\n      swap1\n      pop\n        /* \"#utility.yul\":8537:8546   */\n      dup2\n        /* \"#utility.yul\":8531:8535   */\n      dup2\n        /* \"#utility.yul\":8527:8547   */\n      sub\n        /* \"#utility.yul\":8523:8524   */\n      0x00\n        /* \"#utility.yul\":8512:8521   */\n      dup4\n        /* \"#utility.yul\":8508:8525   */\n      add\n        /* \"#utility.yul\":8501:8548   */\n      mstore\n        /* \"#utility.yul\":8565:8696   */\n      tag_210\n        /* \"#utility.yul\":8691:8695   */\n      dup2\n        /* \"#utility.yul\":8565:8696   */\n      tag_108\n      jump\t// in\n    tag_210:\n        /* \"#utility.yul\":8557:8696   */\n      swap1\n      pop\n        /* \"#utility.yul\":8284:8703   */\n      swap2\n      swap1\n      pop\n      jump\t// out\n        /* \"#utility.yul\":8709:8889   */\n    tag_109:\n        /* \"#utility.yul\":8757:8834   */\n      0x4e487b7100000000000000000000000000000000000000000000000000000000\n        /* \"#utility.yul\":8754:8755   */\n      0x00\n        /* \"#utility.yul\":8747:8835   */\n      mstore\n        /* \"#utility.yul\":8854:8858   */\n      0x11\n        /* \"#utility.yul\":8851:8852   */\n      0x04\n        /* \"#utility.yul\":8844:8859   */\n      mstore\n        /* \"#utility.yul\":8878:8882   */\n      0x24\n        /* \"#utility.yul\":8875:8876   */\n      0x00\n        /* \"#utility.yul\":8868:8883   */\n      revert\n        /* \"#utility.yul\":8895:9086   */\n    tag_65:\n        /* \"#utility.yul\":8935:8938   */\n      0x00\n        /* \"#utility.yul\":8954:8974   */\n      tag_213\n        /* \"#utility.yul\":8972:8973   */\n      dup3\n        /* \"#utility.yul\":8954:8974   */\n      tag_79\n      jump\t// in\n    tag_213:\n        /* \"#utility.yul\":8949:8974   */\n      swap2\n      pop\n        /* \"#utility.yul\":8988:9008   */\n      tag_214\n        /* \"#utility.yul\":9006:9007   */\n      dup4\n        /* \"#utility.yul\":8988:9008   */\n      tag_79\n      jump\t// in\n    tag_214:\n        /* \"#utility.yul\":8983:9008   */\n      swap3\n      pop\n        /* \"#utility.yul\":9031:9032   */\n      dup3\n        /* \"#utility.yul\":9028:9029   */\n      dup3\n        /* \"#utility.yul\":9024:9033   */\n      add\n        /* \"#utility.yul\":9017:9033   */\n      swap1\n      pop\n        /* \"#utility.yul\":9052:9055   */\n      dup1\n        /* \"#utility.yul\":9049:9050   */\n      dup3\n        /* \"#utility.yul\":9046:9056   */\n      gt\n        /* \"#utility.yul\":9043:9079   */\n      iszero\n      tag_215\n      jumpi\n        /* \"#utility.yul\":9059:9077   */\n      tag_216\n      tag_109\n      jump\t// in\n    tag_216:\n        /* \"#utility.yul\":9043:9079   */\n    tag_215:\n        /* \"#utility.yul\":8895:9086   */\n      swap3\n      swap2\n      pop\n      pop\n      jump\t// out\n        /* \"#utility.yul\":9092:9197   */\n    tag_110:\n        /* \"#utility.yul\":9128:9135   */\n      0x00\n        /* \"#utility.yul\":9168:9190   */\n      0xffffffffffffffffffff\n        /* \"#utility.yul\":9161:9166   */\n      dup3\n        /* \"#utility.yul\":9157:9191   */\n      and\n        /* \"#utility.yul\":9146:9191   */\n      swap1\n      pop\n        /* \"#utility.yul\":9092:9197   */\n      swap2\n      swap1\n      pop\n      jump\t// out\n        /* \"#utility.yul\":9203:9323   */\n    tag_111:\n        /* \"#utility.yul\":9275:9298   */\n      tag_219\n        /* \"#utility.yul\":9292:9297   */\n      dup2\n        /* \"#utility.yul\":9275:9298   */\n      tag_110\n      jump\t// in\n    tag_219:\n        /* \"#utility.yul\":9268:9273   */\n      dup2\n        /* \"#utility.yul\":9265:9299   */\n      eq\n        /* \"#utility.yul\":9255:9317   */\n      tag_220\n      jumpi\n        /* \"#utility.yul\":9313:9314   */\n      0x00\n        /* \"#utility.yul\":9310:9311   */\n      dup1\n        /* \"#utility.yul\":9303:9315   */\n      revert\n        /* \"#utility.yul\":9255:9317   */\n    tag_220:\n        /* \"#utility.yul\":9203:9323   */\n      pop\n      jump\t// out\n        /* \"#utility.yul\":9329:9470   */\n    tag_112:\n        /* \"#utility.yul\":9385:9390   */\n      0x00\n        /* \"#utility.yul\":9416:9422   */\n      dup2\n        /* \"#utility.yul\":9410:9423   */\n      mload\n        /* \"#utility.yul\":9401:9423   */\n      swap1\n      pop\n        /* \"#utility.yul\":9432:9464   */\n      tag_222\n        /* \"#utility.yul\":9458:9463   */\n      dup2\n        /* \"#utility.yul\":9432:9464   */\n      tag_111\n      jump\t// in\n    tag_222:\n        /* \"#utility.yul\":9329:9470   */\n      swap3\n      swap2\n      pop\n      pop\n      jump\t// out\n        /* \"#utility.yul\":9476:9596   */\n    tag_113:\n        /* \"#utility.yul\":9548:9571   */\n      tag_224\n        /* \"#utility.yul\":9565:9570   */\n      dup2\n        /* \"#utility.yul\":9548:9571   */\n      tag_93\n      jump\t// in\n    tag_224:\n        /* \"#utility.yul\":9541:9546   */\n      dup2\n        /* \"#utility.yul\":9538:9572   */\n      eq\n        /* \"#utility.yul\":9528:9590   */\n      tag_225\n      jumpi\n        /* \"#utility.yul\":9586:9587   */\n      0x00\n        /* \"#utility.yul\":9583:9584   */\n      dup1\n        /* \"#utility.yul\":9576:9588   */\n      revert\n        /* \"#utility.yul\":9528:9590   */\n    tag_225:\n        /* \"#utility.yul\":9476:9596   */\n      pop\n      jump\t// out\n        /* \"#utility.yul\":9602:9743   */\n    tag_114:\n        /* \"#utility.yul\":9658:9663   */\n      0x00\n        /* \"#utility.yul\":9689:9695   */\n      dup2\n        /* \"#utility.yul\":9683:9696   */\n      mload\n        /* \"#utility.yul\":9674:9696   */\n      swap1\n      pop\n        /* \"#utility.yul\":9705:9737   */\n      tag_227\n        /* \"#utility.yul\":9731:9736   */\n      dup2\n        /* \"#utility.yul\":9705:9737   */\n      tag_113\n      jump\t// in\n    tag_227:\n        /* \"#utility.yul\":9602:9743   */\n      swap3\n      swap2\n      pop\n      pop\n      jump\t// out\n        /* \"#utility.yul\":9749:9871   */\n    tag_115:\n        /* \"#utility.yul\":9822:9846   */\n      tag_229\n        /* \"#utility.yul\":9840:9845   */\n      dup2\n        /* \"#utility.yul\":9822:9846   */\n      tag_79\n      jump\t// in\n    tag_229:\n        /* \"#utility.yul\":9815:9820   */\n      dup2\n        /* \"#utility.yul\":9812:9847   */\n      eq\n        /* \"#utility.yul\":9802:9865   */\n      tag_230\n      jumpi\n        /* \"#utility.yul\":9861:9862   */\n      0x00\n        /* \"#utility.yul\":9858:9859   */\n      dup1\n        /* \"#utility.yul\":9851:9863   */\n      revert\n        /* \"#utility.yul\":9802:9865   */\n    tag_230:\n        /* \"#utility.yul\":9749:9871   */\n      pop\n      jump\t// out\n        /* \"#utility.yul\":9877:10020   */\n    tag_116:\n        /* \"#utility.yul\":9934:9939   */\n      0x00\n        /* \"#utility.yul\":9965:9971   */\n      dup2\n        /* \"#utility.yul\":9959:9972   */\n      mload\n        /* \"#utility.yul\":9950:9972   */\n      swap1\n      pop\n        /* \"#utility.yul\":9981:10014   */\n      tag_232\n        /* \"#utility.yul\":10008:10013   */\n      dup2\n        /* \"#utility.yul\":9981:10014   */\n      tag_115\n      jump\t// in\n    tag_232:\n        /* \"#utility.yul\":9877:10020   */\n      swap3\n      swap2\n      pop\n      pop\n      jump\t// out\n        /* \"#utility.yul\":10026:10997   */\n    tag_73:\n        /* \"#utility.yul\":10129:10135   */\n      0x00\n        /* \"#utility.yul\":10137:10143   */\n      dup1\n        /* \"#utility.yul\":10145:10151   */\n      0x00\n        /* \"#utility.yul\":10153:10159   */\n      dup1\n        /* \"#utility.yul\":10161:10167   */\n      0x00\n        /* \"#utility.yul\":10210:10213   */\n      0xa0\n        /* \"#utility.yul\":10198:10207   */\n      dup7\n        /* \"#utility.yul\":10189:10196   */\n      dup9\n        /* \"#utility.yul\":10185:10208   */\n      sub\n        /* \"#utility.yul\":10181:10214   */\n      slt\n        /* \"#utility.yul\":10178:10298   */\n      iszero\n      tag_234\n      jumpi\n        /* \"#utility.yul\":10217:10296   */\n      tag_235\n      tag_87\n      jump\t// in\n    tag_235:\n        /* \"#utility.yul\":10178:10298   */\n    tag_234:\n        /* \"#utility.yul\":10337:10338   */\n      0x00\n        /* \"#utility.yul\":10362:10425   */\n      tag_236\n        /* \"#utility.yul\":10417:10424   */\n      dup9\n        /* \"#utility.yul\":10408:10414   */\n      dup3\n        /* \"#utility.yul\":10397:10406   */\n      dup10\n        /* \"#utility.yul\":10393:10415   */\n      add\n        /* \"#utility.yul\":10362:10425   */\n      tag_112\n      jump\t// in\n    tag_236:\n        /* \"#utility.yul\":10352:10425   */\n      swap6\n      pop\n        /* \"#utility.yul\":10308:10435   */\n      pop\n        /* \"#utility.yul\":10474:10476   */\n      0x20\n        /* \"#utility.yul\":10500:10563   */\n      tag_237\n        /* \"#utility.yul\":10555:10562   */\n      dup9\n        /* \"#utility.yul\":10546:10552   */\n      dup3\n        /* \"#utility.yul\":10535:10544   */\n      dup10\n        /* \"#utility.yul\":10531:10553   */\n      add\n        /* \"#utility.yul\":10500:10563   */\n      tag_114\n      jump\t// in\n    tag_237:\n        /* \"#utility.yul\":10490:10563   */\n      swap5\n      pop\n        /* \"#utility.yul\":10445:10573   */\n      pop\n        /* \"#utility.yul\":10612:10614   */\n      0x40\n        /* \"#utility.yul\":10638:10702   */\n      tag_238\n        /* \"#utility.yul\":10694:10701   */\n      dup9\n        /* \"#utility.yul\":10685:10691   */\n      dup3\n        /* \"#utility.yul\":10674:10683   */\n      dup10\n        /* \"#utility.yul\":10670:10692   */\n      add\n        /* \"#utility.yul\":10638:10702   */\n      tag_116\n      jump\t// in\n    tag_238:\n        /* \"#utility.yul\":10628:10702   */\n      swap4\n      pop\n        /* \"#utility.yul\":10583:10712   */\n      pop\n        /* \"#utility.yul\":10751:10753   */\n      0x60\n        /* \"#utility.yul\":10777:10841   */\n      tag_239\n        /* \"#utility.yul\":10833:10840   */\n      dup9\n        /* \"#utility.yul\":10824:10830   */\n      dup3\n        /* \"#utility.yul\":10813:10822   */\n      dup10\n        /* \"#utility.yul\":10809:10831   */\n      add\n        /* \"#utility.yul\":10777:10841   */\n      tag_116\n      jump\t// in\n    tag_239:\n        /* \"#utility.yul\":10767:10841   */\n      swap3\n      pop\n        /* \"#utility.yul\":10722:10851   */\n      pop\n        /* \"#utility.yul\":10890:10893   */\n      0x80\n        /* \"#utility.yul\":10917:10980   */\n      tag_240\n        /* \"#utility.yul\":10972:10979   */\n      dup9\n        /* \"#utility.yul\":10963:10969   */\n      dup3\n        /* \"#utility.yul\":10952:10961   */\n      dup10\n        /* \"#utility.yul\":10948:10970   */\n      add\n        /* \"#utility.yul\":10917:10980   */\n      tag_112\n      jump\t// in\n    tag_240:\n        /* \"#utility.yul\":10907:10980   */\n      swap2\n      pop\n        /* \"#utility.yul\":10861:10990   */\n      pop\n        /* \"#utility.yul\":10026:10997   */\n      swap3\n      swap6\n      pop\n      swap3\n      swap6\n      swap1\n      swap4\n      pop\n      jump\t// out\n        /* \"#utility.yul\":11003:11237   */\n    tag_117:\n        /* \"#utility.yul\":11143:11177   */\n      0x536f72727920796f7520646f6e2774206861766520656e6f7567682062616c61\n        /* \"#utility.yul\":11139:11140   */\n      0x00\n        /* \"#utility.yul\":11131:11137   */\n      dup3\n        /* \"#utility.yul\":11127:11141   */\n      add\n        /* \"#utility.yul\":11120:11178   */\n      mstore\n        /* \"#utility.yul\":11212:11229   */\n      0x6e636520746f204465706f736974650000000000000000000000000000000000\n        /* \"#utility.yul\":11207:11209   */\n      0x20\n        /* \"#utility.yul\":11199:11205   */\n      dup3\n        /* \"#utility.yul\":11195:11210   */\n      add\n        /* \"#utility.yul\":11188:11230   */\n      mstore\n        /* \"#utility.yul\":11003:11237   */\n      pop\n      jump\t// out\n        /* \"#utility.yul\":11243:11609   */\n    tag_118:\n        /* \"#utility.yul\":11385:11388   */\n      0x00\n        /* \"#utility.yul\":11406:11473   */\n      tag_243\n        /* \"#utility.yul\":11470:11472   */\n      0x2f\n        /* \"#utility.yul\":11465:11468   */\n      dup4\n        /* \"#utility.yul\":11406:11473   */\n      tag_82\n      jump\t// in\n    tag_243:\n        /* \"#utility.yul\":11399:11473   */\n      swap2\n      pop\n        /* \"#utility.yul\":11482:11575   */\n      tag_244\n        /* \"#utility.yul\":11571:11574   */\n      dup3\n        /* \"#utility.yul\":11482:11575   */\n      tag_117\n      jump\t// in\n    tag_244:\n        /* \"#utility.yul\":11600:11602   */\n      0x40\n        /* \"#utility.yul\":11595:11598   */\n      dup3\n        /* \"#utility.yul\":11591:11603   */\n      add\n        /* \"#utility.yul\":11584:11603   */\n      swap1\n      pop\n        /* \"#utility.yul\":11243:11609   */\n      swap2\n      swap1\n      pop\n      jump\t// out\n        /* \"#utility.yul\":11615:12034   */\n    tag_77:\n        /* \"#utility.yul\":11781:11785   */\n      0x00\n        /* \"#utility.yul\":11819:11821   */\n      0x20\n        /* \"#utility.yul\":11808:11817   */\n      dup3\n        /* \"#utility.yul\":11804:11822   */\n      add\n        /* \"#utility.yul\":11796:11822   */\n      swap1\n      pop\n        /* \"#utility.yul\":11868:11877   */\n      dup2\n        /* \"#utility.yul\":11862:11866   */\n      dup2\n        /* \"#utility.yul\":11858:11878   */\n      sub\n        /* \"#utility.yul\":11854:11855   */\n      0x00\n        /* \"#utility.yul\":11843:11852   */\n      dup4\n        /* \"#utility.yul\":11839:11856   */\n      add\n        /* \"#utility.yul\":11832:11879   */\n      mstore\n        /* \"#utility.yul\":11896:12027   */\n      tag_246\n        /* \"#utility.yul\":12022:12026   */\n      dup2\n        /* \"#utility.yul\":11896:12027   */\n      tag_118\n      jump\t// in\n    tag_246:\n        /* \"#utility.yul\":11888:12027   */\n      swap1\n      pop\n        /* \"#utility.yul\":11615:12034   */\n      swap2\n      swap1\n      pop\n      jump\t// out\n\n    auxdata: 0xa2646970667358221220550f0613464f72f5ee3cb5052559f9e46177e227a4080702a4c2d2166328627b64736f6c63430008130033\n}\n",
				"bytecode": {
					"linkReferences": {},
					"object": "608060405260016003553480156200001657600080fd5b5073694aa1769357215de4fac081bf1f309adc325306600160006101000a81548173ffffffffffffffffffffffffffffffffffffffff021916908373ffffffffffffffffffffffffffffffffffffffff1602179055506200007c6200008860201b60201c565b60028190555062000276565b600080600160009054906101000a900473ffffffffffffffffffffffffffffffffffffffff1673ffffffffffffffffffffffffffffffffffffffff1663feaf968c6040518163ffffffff1660e01b815260040160a060405180830381865afa158015620000f9573d6000803e3d6000fd5b505050506040513d601f19601f820116820180604052508101906200011f9190620001ee565b5050509150508091505090565b600080fd5b600069ffffffffffffffffffff82169050919050565b620001528162000131565b81146200015e57600080fd5b50565b600081519050620001728162000147565b92915050565b6000819050919050565b6200018d8162000178565b81146200019957600080fd5b50565b600081519050620001ad8162000182565b92915050565b6000819050919050565b620001c881620001b3565b8114620001d457600080fd5b50565b600081519050620001e881620001bd565b92915050565b600080600080600060a086880312156200020d576200020c6200012c565b5b60006200021d8882890162000161565b955050602062000230888289016200019c565b94505060406200024388828901620001d7565b93505060606200025688828901620001d7565b9250506080620002698882890162000161565b9150509295509295909350565b610c7b80620002866000396000f3fe6080604052600436106100865760003560e01c8063594480161161005957806359448016146101145780636e04ff0d1461013f5780638e15f4731461017d578063a50ec326146101a8578063b69ef8a8146101b257610086565b806306661abd1461008b5780631a092541146100b65780633ccfd60b146100e15780634585e33b146100eb575b600080fd5b34801561009757600080fd5b506100a06101dd565b6040516100ad91906105d8565b60405180910390f35b3480156100c257600080fd5b506100cb6101e3565b6040516100d89190610683565b60405180910390f35b6100e9610280565b005b3480156100f757600080fd5b50610112600480360381019061010d919061071e565b6103cc565b005b34801561012057600080fd5b50610129610409565b6040516101369190610784565b60405180910390f35b34801561014b57600080fd5b506101666004803603810190610161919061071e565b61040f565b60405161017492919061080f565b60405180910390f35b34801561018957600080fd5b50610192610450565b60405161019f9190610784565b60405180910390f35b6101b06104f1565b005b3480156101be57600080fd5b506101c7610579565b6040516101d491906105d8565b60405180910390f35b60035481565b6060600160009054906101000a900473ffffffffffffffffffffffffffffffffffffffff1673ffffffffffffffffffffffffffffffffffffffff16637284e4166040518163ffffffff1660e01b8152600401600060405180830381865afa158015610252573d6000803e3d6000fd5b505050506040513d6000823e3d601f19601f8201168201806040525081019061027b9190610960565b905090565b60008060003373ffffffffffffffffffffffffffffffffffffffff1673ffffffffffffffffffffffffffffffffffffffff1681526020019081526020016000205411610301576040517f08c379a00000000000000000000000000000000000000000000000000000000081526004016102f890610a1b565b60405180910390fd5b3373ffffffffffffffffffffffffffffffffffffffff166108fc6000803373ffffffffffffffffffffffffffffffffffffffff1673ffffffffffffffffffffffffffffffffffffffff168152602001908152602001600020549081150290604051600060405180830381858888f19350505050158015610385573d6000803e3d6000fd5b5060008060003373ffffffffffffffffffffffffffffffffffffffff1673ffffffffffffffffffffffffffffffffffffffff16815260200190815260200160002081905550565b60006103d6610450565b9050600254811315610404576001600360008282546103f59190610a6a565b92505081905550806002819055505b505050565b60025481565b60006060600061041d610450565b905060025481139250806040516020016104379190610784565b6040516020818303038152906040529150509250929050565b600080600160009054906101000a900473ffffffffffffffffffffffffffffffffffffffff1673ffffffffffffffffffffffffffffffffffffffff1663feaf968c6040518163ffffffff1660e01b815260040160a060405180830381865afa1580156104c0573d6000803e3d6000fd5b505050506040513d601f19601f820116820180604052508101906104e49190610b38565b5050509150508091505090565b60003411610534576040517f08c379a000000000000000000000000000000000000000000000000000000000815260040161052b90610c25565b60405180910390fd5b346000803373ffffffffffffffffffffffffffffffffffffffff1673ffffffffffffffffffffffffffffffffffffffff16815260200190815260200160002081905550565b60008060003373ffffffffffffffffffffffffffffffffffffffff1673ffffffffffffffffffffffffffffffffffffffff16815260200190815260200160002054905090565b6000819050919050565b6105d2816105bf565b82525050565b60006020820190506105ed60008301846105c9565b92915050565b600081519050919050565b600082825260208201905092915050565b60005b8381101561062d578082015181840152602081019050610612565b60008484015250505050565b6000601f19601f8301169050919050565b6000610655826105f3565b61065f81856105fe565b935061066f81856020860161060f565b61067881610639565b840191505092915050565b6000602082019050818103600083015261069d818461064a565b905092915050565b6000604051905090565b600080fd5b600080fd5b600080fd5b600080fd5b600080fd5b60008083601f8401126106de576106dd6106b9565b5b8235905067ffffffffffffffff8111156106fb576106fa6106be565b5b602083019150836001820283011115610717576107166106c3565b5b9250929050565b60008060208385031215610735576107346106af565b5b600083013567ffffffffffffffff811115610753576107526106b4565b5b61075f858286016106c8565b92509250509250929050565b6000819050919050565b61077e8161076b565b82525050565b60006020820190506107996000830184610775565b92915050565b60008115159050919050565b6107b48161079f565b82525050565b600081519050919050565b600082825260208201905092915050565b60006107e1826107ba565b6107eb81856107c5565b93506107fb81856020860161060f565b61080481610639565b840191505092915050565b600060408201905061082460008301856107ab565b818103602083015261083681846107d6565b90509392505050565b600080fd5b7f4e487b7100000000000000000000000000000000000000000000000000000000600052604160045260246000fd5b61087c82610639565b810181811067ffffffffffffffff8211171561089b5761089a610844565b5b80604052505050565b60006108ae6106a5565b90506108ba8282610873565b919050565b600067ffffffffffffffff8211156108da576108d9610844565b5b6108e382610639565b9050602081019050919050565b60006109036108fe846108bf565b6108a4565b90508281526020810184848401111561091f5761091e61083f565b5b61092a84828561060f565b509392505050565b600082601f830112610947576109466106b9565b5b81516109578482602086016108f0565b91505092915050565b600060208284031215610976576109756106af565b5b600082015167ffffffffffffffff811115610994576109936106b4565b5b6109a084828501610932565b91505092915050565b7f536f72727920796f7520617265206e6f7420616c6c6f77656420746f2077697460008201527f6864726177000000000000000000000000000000000000000000000000000000602082015250565b6000610a056025836105fe565b9150610a10826109a9565b604082019050919050565b60006020820190508181036000830152610a34816109f8565b9050919050565b7f4e487b7100000000000000000000000000000000000000000000000000000000600052601160045260246000fd5b6000610a75826105bf565b9150610a80836105bf565b9250828201905080821115610a9857610a97610a3b565b5b92915050565b600069ffffffffffffffffffff82169050919050565b610abd81610a9e565b8114610ac857600080fd5b50565b600081519050610ada81610ab4565b92915050565b610ae98161076b565b8114610af457600080fd5b50565b600081519050610b0681610ae0565b92915050565b610b15816105bf565b8114610b2057600080fd5b50565b600081519050610b3281610b0c565b92915050565b600080600080600060a08688031215610b5457610b536106af565b5b6000610b6288828901610acb565b9550506020610b7388828901610af7565b9450506040610b8488828901610b23565b9350506060610b9588828901610b23565b9250506080610ba688828901610acb565b9150509295509295909350565b7f536f72727920796f7520646f6e2774206861766520656e6f7567682062616c6160008201527f6e636520746f204465706f736974650000000000000000000000000000000000602082015250565b6000610c0f602f836105fe565b9150610c1a82610bb3565b604082019050919050565b60006020820190508181036000830152610c3e81610c02565b905091905056fea2646970667358221220550f0613464f72f5ee3cb5052559f9e46177e227a4080702a4c2d2166328627b64736f6c63430008130033",
					"opcodes": "PUSH1 0x80 PUSH1 0x40 MSTORE PUSH1 0x1 PUSH1 0x3 SSTORE CALLVALUE DUP1 ISZERO PUSH3 0x16 JUMPI PUSH1 0x0 DUP1 REVERT JUMPDEST POP PUSH20 0x694AA1769357215DE4FAC081BF1F309ADC325306 PUSH1 0x1 PUSH1 0x0 PUSH2 0x100 EXP DUP2 SLOAD DUP2 PUSH20 0xFFFFFFFFFFFFFFFFFFFFFFFFFFFFFFFFFFFFFFFF MUL NOT AND SWAP1 DUP4 PUSH20 0xFFFFFFFFFFFFFFFFFFFFFFFFFFFFFFFFFFFFFFFF AND MUL OR SWAP1 SSTORE POP PUSH3 0x7C PUSH3 0x88 PUSH1 0x20 SHL PUSH1 0x20 SHR JUMP JUMPDEST PUSH1 0x2 DUP2 SWAP1 SSTORE POP PUSH3 0x276 JUMP JUMPDEST PUSH1 0x0 DUP1 PUSH1 0x1 PUSH1 0x0 SWAP1 SLOAD SWAP1 PUSH2 0x100 EXP SWAP1 DIV PUSH20 0xFFFFFFFFFFFFFFFFFFFFFFFFFFFFFFFFFFFFFFFF AND PUSH20 0xFFFFFFFFFFFFFFFFFFFFFFFFFFFFFFFFFFFFFFFF AND PUSH4 0xFEAF968C PUSH1 0x40 MLOAD DUP2 PUSH4 0xFFFFFFFF AND PUSH1 0xE0 SHL DUP2 MSTORE PUSH1 0x4 ADD PUSH1 0xA0 PUSH1 0x40 MLOAD DUP1 DUP4 SUB DUP2 DUP7 GAS STATICCALL ISZERO DUP1 ISZERO PUSH3 0xF9 JUMPI RETURNDATASIZE PUSH1 0x0 DUP1 RETURNDATACOPY RETURNDATASIZE PUSH1 0x0 REVERT JUMPDEST POP POP POP POP PUSH1 0x40 MLOAD RETURNDATASIZE PUSH1 0x1F NOT PUSH1 0x1F DUP3 ADD AND DUP3 ADD DUP1 PUSH1 0x40 MSTORE POP DUP2 ADD SWAP1 PUSH3 0x11F SWAP2 SWAP1 PUSH3 0x1EE JUMP JUMPDEST POP POP POP SWAP2 POP POP DUP1 SWAP2 POP POP SWAP1 JUMP JUMPDEST PUSH1 0x0 DUP1 REVERT JUMPDEST PUSH1 0x0 PUSH10 0xFFFFFFFFFFFFFFFFFFFF DUP3 AND SWAP1 POP SWAP2 SWAP1 POP JUMP JUMPDEST PUSH3 0x152 DUP2 PUSH3 0x131 JUMP JUMPDEST DUP2 EQ PUSH3 0x15E JUMPI PUSH1 0x0 DUP1 REVERT JUMPDEST POP JUMP JUMPDEST PUSH1 0x0 DUP2 MLOAD SWAP1 POP PUSH3 0x172 DUP2 PUSH3 0x147 JUMP JUMPDEST SWAP3 SWAP2 POP POP JUMP JUMPDEST PUSH1 0x0 DUP2 SWAP1 POP SWAP2 SWAP1 POP JUMP JUMPDEST PUSH3 0x18D DUP2 PUSH3 0x178 JUMP JUMPDEST DUP2 EQ PUSH3 0x199 JUMPI PUSH1 0x0 DUP1 REVERT JUMPDEST POP JUMP JUMPDEST PUSH1 0x0 DUP2 MLOAD SWAP1 POP PUSH3 0x1AD DUP2 PUSH3 0x182 JUMP JUMPDEST SWAP3 SWAP2 POP POP JUMP JUMPDEST PUSH1 0x0 DUP2 SWAP1 POP SWAP2 SWAP1 POP JUMP JUMPDEST PUSH3 0x1C8 DUP2 PUSH3 0x1B3 JUMP JUMPDEST DUP2 EQ PUSH3 0x1D4 JUMPI PUSH1 0x0 DUP1 REVERT JUMPDEST POP JUMP JUMPDEST PUSH1 0x0 DUP2 MLOAD SWAP1 POP PUSH3 0x1E8 DUP2 PUSH3 0x1BD JUMP JUMPDEST SWAP3 SWAP2 POP POP JUMP JUMPDEST PUSH1 0x0 DUP1 PUSH1 0x0 DUP1 PUSH1 0x0 PUSH1 0xA0 DUP7 DUP9 SUB SLT ISZERO PUSH3 0x20D JUMPI PUSH3 0x20C PUSH3 0x12C JUMP JUMPDEST JUMPDEST PUSH1 0x0 PUSH3 0x21D DUP9 DUP3 DUP10 ADD PUSH3 0x161 JUMP JUMPDEST SWAP6 POP POP PUSH1 0x20 PUSH3 0x230 DUP9 DUP3 DUP10 ADD PUSH3 0x19C JUMP JUMPDEST SWAP5 POP POP PUSH1 0x40 PUSH3 0x243 DUP9 DUP3 DUP10 ADD PUSH3 0x1D7 JUMP JUMPDEST SWAP4 POP POP PUSH1 0x60 PUSH3 0x256 DUP9 DUP3 DUP10 ADD PUSH3 0x1D7 JUMP JUMPDEST SWAP3 POP POP PUSH1 0x80 PUSH3 0x269 DUP9 DUP3 DUP10 ADD PUSH3 0x161 JUMP JUMPDEST SWAP2 POP POP SWAP3 SWAP6 POP SWAP3 SWAP6 SWAP1 SWAP4 POP JUMP JUMPDEST PUSH2 0xC7B DUP1 PUSH3 0x286 PUSH1 0x0 CODECOPY PUSH1 0x0 RETURN INVALID PUSH1 0x80 PUSH1 0x40 MSTORE PUSH1 0x4 CALLDATASIZE LT PUSH2 0x86 JUMPI PUSH1 0x0 CALLDATALOAD PUSH1 0xE0 SHR DUP1 PUSH4 0x59448016 GT PUSH2 0x59 JUMPI DUP1 PUSH4 0x59448016 EQ PUSH2 0x114 JUMPI DUP1 PUSH4 0x6E04FF0D EQ PUSH2 0x13F JUMPI DUP1 PUSH4 0x8E15F473 EQ PUSH2 0x17D JUMPI DUP1 PUSH4 0xA50EC326 EQ PUSH2 0x1A8 JUMPI DUP1 PUSH4 0xB69EF8A8 EQ PUSH2 0x1B2 JUMPI PUSH2 0x86 JUMP JUMPDEST DUP1 PUSH4 0x6661ABD EQ PUSH2 0x8B JUMPI DUP1 PUSH4 0x1A092541 EQ PUSH2 0xB6 JUMPI DUP1 PUSH4 0x3CCFD60B EQ PUSH2 0xE1 JUMPI DUP1 PUSH4 0x4585E33B EQ PUSH2 0xEB JUMPI JUMPDEST PUSH1 0x0 DUP1 REVERT JUMPDEST CALLVALUE DUP1 ISZERO PUSH2 0x97 JUMPI PUSH1 0x0 DUP1 REVERT JUMPDEST POP PUSH2 0xA0 PUSH2 0x1DD JUMP JUMPDEST PUSH1 0x40 MLOAD PUSH2 0xAD SWAP2 SWAP1 PUSH2 0x5D8 JUMP JUMPDEST PUSH1 0x40 MLOAD DUP1 SWAP2 SUB SWAP1 RETURN JUMPDEST CALLVALUE DUP1 ISZERO PUSH2 0xC2 JUMPI PUSH1 0x0 DUP1 REVERT JUMPDEST POP PUSH2 0xCB PUSH2 0x1E3 JUMP JUMPDEST PUSH1 0x40 MLOAD PUSH2 0xD8 SWAP2 SWAP1 PUSH2 0x683 JUMP JUMPDEST PUSH1 0x40 MLOAD DUP1 SWAP2 SUB SWAP1 RETURN JUMPDEST PUSH2 0xE9 PUSH2 0x280 JUMP JUMPDEST STOP JUMPDEST CALLVALUE DUP1 ISZERO PUSH2 0xF7 JUMPI PUSH1 0x0 DUP1 REVERT JUMPDEST POP PUSH2 0x112 PUSH1 0x4 DUP1 CALLDATASIZE SUB DUP2 ADD SWAP1 PUSH2 0x10D SWAP2 SWAP1 PUSH2 0x71E JUMP JUMPDEST PUSH2 0x3CC JUMP JUMPDEST STOP JUMPDEST CALLVALUE DUP1 ISZERO PUSH2 0x120 JUMPI PUSH1 0x0 DUP1 REVERT JUMPDEST POP PUSH2 0x129 PUSH2 0x409 JUMP JUMPDEST PUSH1 0x40 MLOAD PUSH2 0x136 SWAP2 SWAP1 PUSH2 0x784 JUMP JUMPDEST PUSH1 0x40 MLOAD DUP1 SWAP2 SUB SWAP1 RETURN JUMPDEST CALLVALUE DUP1 ISZERO PUSH2 0x14B JUMPI PUSH1 0x0 DUP1 REVERT JUMPDEST POP PUSH2 0x166 PUSH1 0x4 DUP1 CALLDATASIZE SUB DUP2 ADD SWAP1 PUSH2 0x161 SWAP2 SWAP1 PUSH2 0x71E JUMP JUMPDEST PUSH2 0x40F JUMP JUMPDEST PUSH1 0x40 MLOAD PUSH2 0x174 SWAP3 SWAP2 SWAP1 PUSH2 0x80F JUMP JUMPDEST PUSH1 0x40 MLOAD DUP1 SWAP2 SUB SWAP1 RETURN JUMPDEST CALLVALUE DUP1 ISZERO PUSH2 0x189 JUMPI PUSH1 0x0 DUP1 REVERT JUMPDEST POP PUSH2 0x192 PUSH2 0x450 JUMP JUMPDEST PUSH1 0x40 MLOAD PUSH2 0x19F SWAP2 SWAP1 PUSH2 0x784 JUMP JUMPDEST PUSH1 0x40 MLOAD DUP1 SWAP2 SUB SWAP1 RETURN JUMPDEST PUSH2 0x1B0 PUSH2 0x4F1 JUMP JUMPDEST STOP JUMPDEST CALLVALUE DUP1 ISZERO PUSH2 0x1BE JUMPI PUSH1 0x0 DUP1 REVERT JUMPDEST POP PUSH2 0x1C7 PUSH2 0x579 JUMP JUMPDEST PUSH1 0x40 MLOAD PUSH2 0x1D4 SWAP2 SWAP1 PUSH2 0x5D8 JUMP JUMPDEST PUSH1 0x40 MLOAD DUP1 SWAP2 SUB SWAP1 RETURN JUMPDEST PUSH1 0x3 SLOAD DUP2 JUMP JUMPDEST PUSH1 0x60 PUSH1 0x1 PUSH1 0x0 SWAP1 SLOAD SWAP1 PUSH2 0x100 EXP SWAP1 DIV PUSH20 0xFFFFFFFFFFFFFFFFFFFFFFFFFFFFFFFFFFFFFFFF AND PUSH20 0xFFFFFFFFFFFFFFFFFFFFFFFFFFFFFFFFFFFFFFFF AND PUSH4 0x7284E416 PUSH1 0x40 MLOAD DUP2 PUSH4 0xFFFFFFFF AND PUSH1 0xE0 SHL DUP2 MSTORE PUSH1 0x4 ADD PUSH1 0x0 PUSH1 0x40 MLOAD DUP1 DUP4 SUB DUP2 DUP7 GAS STATICCALL ISZERO DUP1 ISZERO PUSH2 0x252 JUMPI RETURNDATASIZE PUSH1 0x0 DUP1 RETURNDATACOPY RETURNDATASIZE PUSH1 0x0 REVERT JUMPDEST POP POP POP POP PUSH1 0x40 MLOAD RETURNDATASIZE PUSH1 0x0 DUP3 RETURNDATACOPY RETURNDATASIZE PUSH1 0x1F NOT PUSH1 0x1F DUP3 ADD AND DUP3 ADD DUP1 PUSH1 0x40 MSTORE POP DUP2 ADD SWAP1 PUSH2 0x27B SWAP2 SWAP1 PUSH2 0x960 JUMP JUMPDEST SWAP1 POP SWAP1 JUMP JUMPDEST PUSH1 0x0 DUP1 PUSH1 0x0 CALLER PUSH20 0xFFFFFFFFFFFFFFFFFFFFFFFFFFFFFFFFFFFFFFFF AND PUSH20 0xFFFFFFFFFFFFFFFFFFFFFFFFFFFFFFFFFFFFFFFF AND DUP2 MSTORE PUSH1 0x20 ADD SWAP1 DUP2 MSTORE PUSH1 0x20 ADD PUSH1 0x0 KECCAK256 SLOAD GT PUSH2 0x301 JUMPI PUSH1 0x40 MLOAD PUSH32 0x8C379A000000000000000000000000000000000000000000000000000000000 DUP2 MSTORE PUSH1 0x4 ADD PUSH2 0x2F8 SWAP1 PUSH2 0xA1B JUMP JUMPDEST PUSH1 0x40 MLOAD DUP1 SWAP2 SUB SWAP1 REVERT JUMPDEST CALLER PUSH20 0xFFFFFFFFFFFFFFFFFFFFFFFFFFFFFFFFFFFFFFFF AND PUSH2 0x8FC PUSH1 0x0 DUP1 CALLER PUSH20 0xFFFFFFFFFFFFFFFFFFFFFFFFFFFFFFFFFFFFFFFF AND PUSH20 0xFFFFFFFFFFFFFFFFFFFFFFFFFFFFFFFFFFFFFFFF AND DUP2 MSTORE PUSH1 0x20 ADD SWAP1 DUP2 MSTORE PUSH1 0x20 ADD PUSH1 0x0 KECCAK256 SLOAD SWAP1 DUP2 ISZERO MUL SWAP1 PUSH1 0x40 MLOAD PUSH1 0x0 PUSH1 0x40 MLOAD DUP1 DUP4 SUB DUP2 DUP6 DUP9 DUP9 CALL SWAP4 POP POP POP POP ISZERO DUP1 ISZERO PUSH2 0x385 JUMPI RETURNDATASIZE PUSH1 0x0 DUP1 RETURNDATACOPY RETURNDATASIZE PUSH1 0x0 REVERT JUMPDEST POP PUSH1 0x0 DUP1 PUSH1 0x0 CALLER PUSH20 0xFFFFFFFFFFFFFFFFFFFFFFFFFFFFFFFFFFFFFFFF AND PUSH20 0xFFFFFFFFFFFFFFFFFFFFFFFFFFFFFFFFFFFFFFFF AND DUP2 MSTORE PUSH1 0x20 ADD SWAP1 DUP2 MSTORE PUSH1 0x20 ADD PUSH1 0x0 KECCAK256 DUP2 SWAP1 SSTORE POP JUMP JUMPDEST PUSH1 0x0 PUSH2 0x3D6 PUSH2 0x450 JUMP JUMPDEST SWAP1 POP PUSH1 0x2 SLOAD DUP2 SGT ISZERO PUSH2 0x404 JUMPI PUSH1 0x1 PUSH1 0x3 PUSH1 0x0 DUP3 DUP3 SLOAD PUSH2 0x3F5 SWAP2 SWAP1 PUSH2 0xA6A JUMP JUMPDEST SWAP3 POP POP DUP2 SWAP1 SSTORE POP DUP1 PUSH1 0x2 DUP2 SWAP1 SSTORE POP JUMPDEST POP POP POP JUMP JUMPDEST PUSH1 0x2 SLOAD DUP2 JUMP JUMPDEST PUSH1 0x0 PUSH1 0x60 PUSH1 0x0 PUSH2 0x41D PUSH2 0x450 JUMP JUMPDEST SWAP1 POP PUSH1 0x2 SLOAD DUP2 SGT SWAP3 POP DUP1 PUSH1 0x40 MLOAD PUSH1 0x20 ADD PUSH2 0x437 SWAP2 SWAP1 PUSH2 0x784 JUMP JUMPDEST PUSH1 0x40 MLOAD PUSH1 0x20 DUP2 DUP4 SUB SUB DUP2 MSTORE SWAP1 PUSH1 0x40 MSTORE SWAP2 POP POP SWAP3 POP SWAP3 SWAP1 POP JUMP JUMPDEST PUSH1 0x0 DUP1 PUSH1 0x1 PUSH1 0x0 SWAP1 SLOAD SWAP1 PUSH2 0x100 EXP SWAP1 DIV PUSH20 0xFFFFFFFFFFFFFFFFFFFFFFFFFFFFFFFFFFFFFFFF AND PUSH20 0xFFFFFFFFFFFFFFFFFFFFFFFFFFFFFFFFFFFFFFFF AND PUSH4 0xFEAF968C PUSH1 0x40 MLOAD DUP2 PUSH4 0xFFFFFFFF AND PUSH1 0xE0 SHL DUP2 MSTORE PUSH1 0x4 ADD PUSH1 0xA0 PUSH1 0x40 MLOAD DUP1 DUP4 SUB DUP2 DUP7 GAS STATICCALL ISZERO DUP1 ISZERO PUSH2 0x4C0 JUMPI RETURNDATASIZE PUSH1 0x0 DUP1 RETURNDATACOPY RETURNDATASIZE PUSH1 0x0 REVERT JUMPDEST POP POP POP POP PUSH1 0x40 MLOAD RETURNDATASIZE PUSH1 0x1F NOT PUSH1 0x1F DUP3 ADD AND DUP3 ADD DUP1 PUSH1 0x40 MSTORE POP DUP2 ADD SWAP1 PUSH2 0x4E4 SWAP2 SWAP1 PUSH2 0xB38 JUMP JUMPDEST POP POP POP SWAP2 POP POP DUP1 SWAP2 POP POP SWAP1 JUMP JUMPDEST PUSH1 0x0 CALLVALUE GT PUSH2 0x534 JUMPI PUSH1 0x40 MLOAD PUSH32 0x8C379A000000000000000000000000000000000000000000000000000000000 DUP2 MSTORE PUSH1 0x4 ADD PUSH2 0x52B SWAP1 PUSH2 0xC25 JUMP JUMPDEST PUSH1 0x40 MLOAD DUP1 SWAP2 SUB SWAP1 REVERT JUMPDEST CALLVALUE PUSH1 0x0 DUP1 CALLER PUSH20 0xFFFFFFFFFFFFFFFFFFFFFFFFFFFFFFFFFFFFFFFF AND PUSH20 0xFFFFFFFFFFFFFFFFFFFFFFFFFFFFFFFFFFFFFFFF AND DUP2 MSTORE PUSH1 0x20 ADD SWAP1 DUP2 MSTORE PUSH1 0x20 ADD PUSH1 0x0 KECCAK256 DUP2 SWAP1 SSTORE POP JUMP JUMPDEST PUSH1 0x0 DUP1 PUSH1 0x0 CALLER PUSH20 0xFFFFFFFFFFFFFFFFFFFFFFFFFFFFFFFFFFFFFFFF AND PUSH20 0xFFFFFFFFFFFFFFFFFFFFFFFFFFFFFFFFFFFFFFFF AND DUP2 MSTORE PUSH1 0x20 ADD SWAP1 DUP2 MSTORE PUSH1 0x20 ADD PUSH1 0x0 KECCAK256 SLOAD SWAP1 POP SWAP1 JUMP JUMPDEST PUSH1 0x0 DUP2 SWAP1 POP SWAP2 SWAP1 POP JUMP JUMPDEST PUSH2 0x5D2 DUP2 PUSH2 0x5BF JUMP JUMPDEST DUP3 MSTORE POP POP JUMP JUMPDEST PUSH1 0x0 PUSH1 0x20 DUP3 ADD SWAP1 POP PUSH2 0x5ED PUSH1 0x0 DUP4 ADD DUP5 PUSH2 0x5C9 JUMP JUMPDEST SWAP3 SWAP2 POP POP JUMP JUMPDEST PUSH1 0x0 DUP2 MLOAD SWAP1 POP SWAP2 SWAP1 POP JUMP JUMPDEST PUSH1 0x0 DUP3 DUP3 MSTORE PUSH1 0x20 DUP3 ADD SWAP1 POP SWAP3 SWAP2 POP POP JUMP JUMPDEST PUSH1 0x0 JUMPDEST DUP4 DUP2 LT ISZERO PUSH2 0x62D JUMPI DUP1 DUP3 ADD MLOAD DUP2 DUP5 ADD MSTORE PUSH1 0x20 DUP2 ADD SWAP1 POP PUSH2 0x612 JUMP JUMPDEST PUSH1 0x0 DUP5 DUP5 ADD MSTORE POP POP POP POP JUMP JUMPDEST PUSH1 0x0 PUSH1 0x1F NOT PUSH1 0x1F DUP4 ADD AND SWAP1 POP SWAP2 SWAP1 POP JUMP JUMPDEST PUSH1 0x0 PUSH2 0x655 DUP3 PUSH2 0x5F3 JUMP JUMPDEST PUSH2 0x65F DUP2 DUP6 PUSH2 0x5FE JUMP JUMPDEST SWAP4 POP PUSH2 0x66F DUP2 DUP6 PUSH1 0x20 DUP7 ADD PUSH2 0x60F JUMP JUMPDEST PUSH2 0x678 DUP2 PUSH2 0x639 JUMP JUMPDEST DUP5 ADD SWAP2 POP POP SWAP3 SWAP2 POP POP JUMP JUMPDEST PUSH1 0x0 PUSH1 0x20 DUP3 ADD SWAP1 POP DUP2 DUP2 SUB PUSH1 0x0 DUP4 ADD MSTORE PUSH2 0x69D DUP2 DUP5 PUSH2 0x64A JUMP JUMPDEST SWAP1 POP SWAP3 SWAP2 POP POP JUMP JUMPDEST PUSH1 0x0 PUSH1 0x40 MLOAD SWAP1 POP SWAP1 JUMP JUMPDEST PUSH1 0x0 DUP1 REVERT JUMPDEST PUSH1 0x0 DUP1 REVERT JUMPDEST PUSH1 0x0 DUP1 REVERT JUMPDEST PUSH1 0x0 DUP1 REVERT JUMPDEST PUSH1 0x0 DUP1 REVERT JUMPDEST PUSH1 0x0 DUP1 DUP4 PUSH1 0x1F DUP5 ADD SLT PUSH2 0x6DE JUMPI PUSH2 0x6DD PUSH2 0x6B9 JUMP JUMPDEST JUMPDEST DUP3 CALLDATALOAD SWAP1 POP PUSH8 0xFFFFFFFFFFFFFFFF DUP2 GT ISZERO PUSH2 0x6FB JUMPI PUSH2 0x6FA PUSH2 0x6BE JUMP JUMPDEST JUMPDEST PUSH1 0x20 DUP4 ADD SWAP2 POP DUP4 PUSH1 0x1 DUP3 MUL DUP4 ADD GT ISZERO PUSH2 0x717 JUMPI PUSH2 0x716 PUSH2 0x6C3 JUMP JUMPDEST JUMPDEST SWAP3 POP SWAP3 SWAP1 POP JUMP JUMPDEST PUSH1 0x0 DUP1 PUSH1 0x20 DUP4 DUP6 SUB SLT ISZERO PUSH2 0x735 JUMPI PUSH2 0x734 PUSH2 0x6AF JUMP JUMPDEST JUMPDEST PUSH1 0x0 DUP4 ADD CALLDATALOAD PUSH8 0xFFFFFFFFFFFFFFFF DUP2 GT ISZERO PUSH2 0x753 JUMPI PUSH2 0x752 PUSH2 0x6B4 JUMP JUMPDEST JUMPDEST PUSH2 0x75F DUP6 DUP3 DUP7 ADD PUSH2 0x6C8 JUMP JUMPDEST SWAP3 POP SWAP3 POP POP SWAP3 POP SWAP3 SWAP1 POP JUMP JUMPDEST PUSH1 0x0 DUP2 SWAP1 POP SWAP2 SWAP1 POP JUMP JUMPDEST PUSH2 0x77E DUP2 PUSH2 0x76B JUMP JUMPDEST DUP3 MSTORE POP POP JUMP JUMPDEST PUSH1 0x0 PUSH1 0x20 DUP3 ADD SWAP1 POP PUSH2 0x799 PUSH1 0x0 DUP4 ADD DUP5 PUSH2 0x775 JUMP JUMPDEST SWAP3 SWAP2 POP POP JUMP JUMPDEST PUSH1 0x0 DUP2 ISZERO ISZERO SWAP1 POP SWAP2 SWAP1 POP JUMP JUMPDEST PUSH2 0x7B4 DUP2 PUSH2 0x79F JUMP JUMPDEST DUP3 MSTORE POP POP JUMP JUMPDEST PUSH1 0x0 DUP2 MLOAD SWAP1 POP SWAP2 SWAP1 POP JUMP JUMPDEST PUSH1 0x0 DUP3 DUP3 MSTORE PUSH1 0x20 DUP3 ADD SWAP1 POP SWAP3 SWAP2 POP POP JUMP JUMPDEST PUSH1 0x0 PUSH2 0x7E1 DUP3 PUSH2 0x7BA JUMP JUMPDEST PUSH2 0x7EB DUP2 DUP6 PUSH2 0x7C5 JUMP JUMPDEST SWAP4 POP PUSH2 0x7FB DUP2 DUP6 PUSH1 0x20 DUP7 ADD PUSH2 0x60F JUMP JUMPDEST PUSH2 0x804 DUP2 PUSH2 0x639 JUMP JUMPDEST DUP5 ADD SWAP2 POP POP SWAP3 SWAP2 POP POP JUMP JUMPDEST PUSH1 0x0 PUSH1 0x40 DUP3 ADD SWAP1 POP PUSH2 0x824 PUSH1 0x0 DUP4 ADD DUP6 PUSH2 0x7AB JUMP JUMPDEST DUP2 DUP2 SUB PUSH1 0x20 DUP4 ADD MSTORE PUSH2 0x836 DUP2 DUP5 PUSH2 0x7D6 JUMP JUMPDEST SWAP1 POP SWAP4 SWAP3 POP POP POP JUMP JUMPDEST PUSH1 0x0 DUP1 REVERT JUMPDEST PUSH32 0x4E487B7100000000000000000000000000000000000000000000000000000000 PUSH1 0x0 MSTORE PUSH1 0x41 PUSH1 0x4 MSTORE PUSH1 0x24 PUSH1 0x0 REVERT JUMPDEST PUSH2 0x87C DUP3 PUSH2 0x639 JUMP JUMPDEST DUP2 ADD DUP2 DUP2 LT PUSH8 0xFFFFFFFFFFFFFFFF DUP3 GT OR ISZERO PUSH2 0x89B JUMPI PUSH2 0x89A PUSH2 0x844 JUMP JUMPDEST JUMPDEST DUP1 PUSH1 0x40 MSTORE POP POP POP JUMP JUMPDEST PUSH1 0x0 PUSH2 0x8AE PUSH2 0x6A5 JUMP JUMPDEST SWAP1 POP PUSH2 0x8BA DUP3 DUP3 PUSH2 0x873 JUMP JUMPDEST SWAP2 SWAP1 POP JUMP JUMPDEST PUSH1 0x0 PUSH8 0xFFFFFFFFFFFFFFFF DUP3 GT ISZERO PUSH2 0x8DA JUMPI PUSH2 0x8D9 PUSH2 0x844 JUMP JUMPDEST JUMPDEST PUSH2 0x8E3 DUP3 PUSH2 0x639 JUMP JUMPDEST SWAP1 POP PUSH1 0x20 DUP2 ADD SWAP1 POP SWAP2 SWAP1 POP JUMP JUMPDEST PUSH1 0x0 PUSH2 0x903 PUSH2 0x8FE DUP5 PUSH2 0x8BF JUMP JUMPDEST PUSH2 0x8A4 JUMP JUMPDEST SWAP1 POP DUP3 DUP2 MSTORE PUSH1 0x20 DUP2 ADD DUP5 DUP5 DUP5 ADD GT ISZERO PUSH2 0x91F JUMPI PUSH2 0x91E PUSH2 0x83F JUMP JUMPDEST JUMPDEST PUSH2 0x92A DUP5 DUP3 DUP6 PUSH2 0x60F JUMP JUMPDEST POP SWAP4 SWAP3 POP POP POP JUMP JUMPDEST PUSH1 0x0 DUP3 PUSH1 0x1F DUP4 ADD SLT PUSH2 0x947 JUMPI PUSH2 0x946 PUSH2 0x6B9 JUMP JUMPDEST JUMPDEST DUP2 MLOAD PUSH2 0x957 DUP5 DUP3 PUSH1 0x20 DUP7 ADD PUSH2 0x8F0 JUMP JUMPDEST SWAP2 POP POP SWAP3 SWAP2 POP POP JUMP JUMPDEST PUSH1 0x0 PUSH1 0x20 DUP3 DUP5 SUB SLT ISZERO PUSH2 0x976 JUMPI PUSH2 0x975 PUSH2 0x6AF JUMP JUMPDEST JUMPDEST PUSH1 0x0 DUP3 ADD MLOAD PUSH8 0xFFFFFFFFFFFFFFFF DUP2 GT ISZERO PUSH2 0x994 JUMPI PUSH2 0x993 PUSH2 0x6B4 JUMP JUMPDEST JUMPDEST PUSH2 0x9A0 DUP5 DUP3 DUP6 ADD PUSH2 0x932 JUMP JUMPDEST SWAP2 POP POP SWAP3 SWAP2 POP POP JUMP JUMPDEST PUSH32 0x536F72727920796F7520617265206E6F7420616C6C6F77656420746F20776974 PUSH1 0x0 DUP3 ADD MSTORE PUSH32 0x6864726177000000000000000000000000000000000000000000000000000000 PUSH1 0x20 DUP3 ADD MSTORE POP JUMP JUMPDEST PUSH1 0x0 PUSH2 0xA05 PUSH1 0x25 DUP4 PUSH2 0x5FE JUMP JUMPDEST SWAP2 POP PUSH2 0xA10 DUP3 PUSH2 0x9A9 JUMP JUMPDEST PUSH1 0x40 DUP3 ADD SWAP1 POP SWAP2 SWAP1 POP JUMP JUMPDEST PUSH1 0x0 PUSH1 0x20 DUP3 ADD SWAP1 POP DUP2 DUP2 SUB PUSH1 0x0 DUP4 ADD MSTORE PUSH2 0xA34 DUP2 PUSH2 0x9F8 JUMP JUMPDEST SWAP1 POP SWAP2 SWAP1 POP JUMP JUMPDEST PUSH32 0x4E487B7100000000000000000000000000000000000000000000000000000000 PUSH1 0x0 MSTORE PUSH1 0x11 PUSH1 0x4 MSTORE PUSH1 0x24 PUSH1 0x0 REVERT JUMPDEST PUSH1 0x0 PUSH2 0xA75 DUP3 PUSH2 0x5BF JUMP JUMPDEST SWAP2 POP PUSH2 0xA80 DUP4 PUSH2 0x5BF JUMP JUMPDEST SWAP3 POP DUP3 DUP3 ADD SWAP1 POP DUP1 DUP3 GT ISZERO PUSH2 0xA98 JUMPI PUSH2 0xA97 PUSH2 0xA3B JUMP JUMPDEST JUMPDEST SWAP3 SWAP2 POP POP JUMP JUMPDEST PUSH1 0x0 PUSH10 0xFFFFFFFFFFFFFFFFFFFF DUP3 AND SWAP1 POP SWAP2 SWAP1 POP JUMP JUMPDEST PUSH2 0xABD DUP2 PUSH2 0xA9E JUMP JUMPDEST DUP2 EQ PUSH2 0xAC8 JUMPI PUSH1 0x0 DUP1 REVERT JUMPDEST POP JUMP JUMPDEST PUSH1 0x0 DUP2 MLOAD SWAP1 POP PUSH2 0xADA DUP2 PUSH2 0xAB4 JUMP JUMPDEST SWAP3 SWAP2 POP POP JUMP JUMPDEST PUSH2 0xAE9 DUP2 PUSH2 0x76B JUMP JUMPDEST DUP2 EQ PUSH2 0xAF4 JUMPI PUSH1 0x0 DUP1 REVERT JUMPDEST POP JUMP JUMPDEST PUSH1 0x0 DUP2 MLOAD SWAP1 POP PUSH2 0xB06 DUP2 PUSH2 0xAE0 JUMP JUMPDEST SWAP3 SWAP2 POP POP JUMP JUMPDEST PUSH2 0xB15 DUP2 PUSH2 0x5BF JUMP JUMPDEST DUP2 EQ PUSH2 0xB20 JUMPI PUSH1 0x0 DUP1 REVERT JUMPDEST POP JUMP JUMPDEST PUSH1 0x0 DUP2 MLOAD SWAP1 POP PUSH2 0xB32 DUP2 PUSH2 0xB0C JUMP JUMPDEST SWAP3 SWAP2 POP POP JUMP JUMPDEST PUSH1 0x0 DUP1 PUSH1 0x0 DUP1 PUSH1 0x0 PUSH1 0xA0 DUP7 DUP9 SUB SLT ISZERO PUSH2 0xB54 JUMPI PUSH2 0xB53 PUSH2 0x6AF JUMP JUMPDEST JUMPDEST PUSH1 0x0 PUSH2 0xB62 DUP9 DUP3 DUP10 ADD PUSH2 0xACB JUMP JUMPDEST SWAP6 POP POP PUSH1 0x20 PUSH2 0xB73 DUP9 DUP3 DUP10 ADD PUSH2 0xAF7 JUMP JUMPDEST SWAP5 POP POP PUSH1 0x40 PUSH2 0xB84 DUP9 DUP3 DUP10 ADD PUSH2 0xB23 JUMP JUMPDEST SWAP4 POP POP PUSH1 0x60 PUSH2 0xB95 DUP9 DUP3 DUP10 ADD PUSH2 0xB23 JUMP JUMPDEST SWAP3 POP POP PUSH1 0x80 PUSH2 0xBA6 DUP9 DUP3 DUP10 ADD PUSH2 0xACB JUMP JUMPDEST SWAP2 POP POP SWAP3 SWAP6 POP SWAP3 SWAP6 SWAP1 SWAP4 POP JUMP JUMPDEST PUSH32 0x536F72727920796F7520646F6E2774206861766520656E6F7567682062616C61 PUSH1 0x0 DUP3 ADD MSTORE PUSH32 0x6E636520746F204465706F736974650000000000000000000000000000000000 PUSH1 0x20 DUP3 ADD MSTORE POP JUMP JUMPDEST PUSH1 0x0 PUSH2 0xC0F PUSH1 0x2F DUP4 PUSH2 0x5FE JUMP JUMPDEST SWAP2 POP PUSH2 0xC1A DUP3 PUSH2 0xBB3 JUMP JUMPDEST PUSH1 0x40 DUP3 ADD SWAP1 POP SWAP2 SWAP1 POP JUMP JUMPDEST PUSH1 0x0 PUSH1 0x20 DUP3 ADD SWAP1 POP DUP2 DUP2 SUB PUSH1 0x0 DUP4 ADD MSTORE PUSH2 0xC3E DUP2 PUSH2 0xC02 JUMP JUMPDEST SWAP1 POP SWAP2 SWAP1 POP JUMP INVALID LOG2 PUSH5 0x6970667358 0x22 SLT KECCAK256 SSTORE 0xF MOD SGT CHAINID 0x4F PUSH19 0xF5EE3CB5052559F9E46177E227A4080702A4C2 0xD2 AND PUSH4 0x28627B64 PUSH20 0x6F6C634300081300330000000000000000000000 "
				},
				"gasEstimates": {
					"creation": {
						"codeDepositCost": "639000",
						"executionCost": "infinite",
						"totalCost": "infinite"
					},
					"external": {
						"balance()": "2614",
						"checkUpkeep(bytes)": "infinite",
						"count()": "2430",
						"deposite()": "22410",
						"getDescription()": "infinite",
						"getLatestPrice()": "infinite",
						"lastSeenPrice()": "2429",
						"performUpkeep(bytes)": "infinite",
						"withdraw()": "infinite"
					}
				},
				"methodIdentifiers": {
					"balance()": "b69ef8a8",
					"checkUpkeep(bytes)": "6e04ff0d",
					"count()": "06661abd",
					"deposite()": "a50ec326",
					"getDescription()": "1a092541",
					"getLatestPrice()": "8e15f473",
					"lastSeenPrice()": "59448016",
					"performUpkeep(bytes)": "4585e33b",
					"withdraw()": "3ccfd60b"
				}
			},
			"storageLayout": {
				"storage": [
					{
						"astId": 64,
						"contract": "contracts/Project_AU.sol:smart_manager",
						"label": "balances",
						"offset": 0,
						"slot": "0",
						"type": "t_mapping(t_address,t_uint256)"
					},
					{
						"astId": 67,
						"contract": "contracts/Project_AU.sol:smart_manager",
						"label": "dataFeed",
						"offset": 0,
						"slot": "1",
						"type": "t_contract(AggregatorV3Interface)45"
					},
					{
						"astId": 69,
						"contract": "contracts/Project_AU.sol:smart_manager",
						"label": "lastSeenPrice",
						"offset": 0,
						"slot": "2",
						"type": "t_int256"
					},
					{
						"astId": 72,
						"contract": "contracts/Project_AU.sol:smart_manager",
						"label": "count",
						"offset": 0,
						"slot": "3",
						"type": "t_uint256"
					}
				],
				"types": {
					"t_address": {
						"encoding": "inplace",
						"label": "address",
						"numberOfBytes": "20"
					},
					"t_contract(AggregatorV3Interface)45": {
						"encoding": "inplace",
						"label": "contract AggregatorV3Interface",
						"numberOfBytes": "20"
					},
					"t_int256": {
						"encoding": "inplace",
						"label": "int256",
						"numberOfBytes": "32"
					},
					"t_mapping(t_address,t_uint256)": {
						"encoding": "mapping",
						"key": "t_address",
						"label": "mapping(address => uint256)",
						"numberOfBytes": "32",
						"value": "t_uint256"
					},
					"t_uint256": {
						"encoding": "inplace",
						"label": "uint256",
						"numberOfBytes": "32"
					}
				}
			},
			"userdoc": {
				"kind": "user",
				"methods": {},
				"version": 1
			}
		}
	}
}