{
	"contracts/proxy.sol": {
		"ProxyContract": {
			"abi": [
				{
					"inputs": [],
					"stateMutability": "nonpayable",
					"type": "constructor"
				},
				{
					"stateMutability": "payable",
					"type": "fallback"
				},
				{
					"inputs": [
						{
							"internalType": "address",
							"name": "_impl",
							"type": "address"
						}
					],
					"name": "setImplementation",
					"outputs": [],
					"stateMutability": "nonpayable",
					"type": "function"
				},
				{
					"stateMutability": "payable",
					"type": "receive"
				}
			],
			"devdoc": {
				"kind": "dev",
				"methods": {},
				"version": 1
			},
			"evm": {
				"assembly": "    /* \"contracts/proxy.sol\":63:495  contract ProxyContract{... */\n  mstore(0x40, 0x80)\n    /* \"contracts/proxy.sol\":185:237  constructor(){... */\n  callvalue\n  dup1\n  iszero\n  tag_1\n  jumpi\n  0x00\n  dup1\n  revert\ntag_1:\n  pop\n    /* \"contracts/proxy.sol\":63:495  contract ProxyContract{... */\n  dataSize(sub_0)\n  dup1\n  dataOffset(sub_0)\n  0x00\n  codecopy\n  0x00\n  return\nstop\n\nsub_0: assembly {\n        /* \"contracts/proxy.sol\":63:495  contract ProxyContract{... */\n      mstore(0x40, 0x80)\n      jumpi(tag_1, lt(calldatasize, 0x04))\n      shr(0xe0, calldataload(0x00))\n      dup1\n      0xd784d426\n      eq\n      tag_3\n      jumpi\n      jump(tag_2)\n    tag_1:\n      jumpi(tag_2, calldatasize)\n      stop\n    tag_2:\n        /* \"contracts/proxy.sol\":372:384  bool success */\n      0x00\n        /* \"contracts/proxy.sol\":387:401  implementation */\n      dup1\n      0x00\n      swap1\n      sload\n      swap1\n      0x0100\n      exp\n      swap1\n      div\n      0xffffffffffffffffffffffffffffffffffffffff\n      and\n        /* \"contracts/proxy.sol\":387:414  implementation.delegatecall */\n      0xffffffffffffffffffffffffffffffffffffffff\n      and\n        /* \"contracts/proxy.sol\":415:423  msg.data */\n      0x00\n      calldatasize\n        /* \"contracts/proxy.sol\":387:424  implementation.delegatecall(msg.data) */\n      mload(0x40)\n      tag_8\n      swap3\n      swap2\n      swap1\n      tag_9\n      jump\t// in\n    tag_8:\n      0x00\n      mload(0x40)\n      dup1\n      dup4\n      sub\n      dup2\n      dup6\n      gas\n      delegatecall\n      swap2\n      pop\n      pop\n      returndatasize\n      dup1\n      0x00\n      dup2\n      eq\n      tag_12\n      jumpi\n      mload(0x40)\n      swap2\n      pop\n      and(add(returndatasize, 0x3f), not(0x1f))\n      dup3\n      add\n      0x40\n      mstore\n      returndatasize\n      dup3\n      mstore\n      returndatasize\n      0x00\n      0x20\n      dup5\n      add\n      returndatacopy\n      jump(tag_11)\n    tag_12:\n      0x60\n      swap2\n      pop\n    tag_11:\n      pop\n        /* \"contracts/proxy.sol\":371:424  (bool success,)=implementation.delegatecall(msg.data) */\n      pop\n      swap1\n      pop\n        /* \"contracts/proxy.sol\":442:449  success */\n      dup1\n        /* \"contracts/proxy.sol\":434:473  require(success, \"Delegatecall failed\") */\n      tag_13\n      jumpi\n      mload(0x40)\n      0x08c379a000000000000000000000000000000000000000000000000000000000\n      dup2\n      mstore\n      0x04\n      add\n      tag_14\n      swap1\n      tag_15\n      jump\t// in\n    tag_14:\n      mload(0x40)\n      dup1\n      swap2\n      sub\n      swap1\n      revert\n    tag_13:\n        /* \"contracts/proxy.sol\":361:480  {... */\n      stop\n        /* \"contracts/proxy.sol\":242:327  function setImplementation(address _impl) public{... */\n    tag_3:\n      callvalue\n      dup1\n      iszero\n      tag_16\n      jumpi\n      0x00\n      dup1\n      revert\n    tag_16:\n      pop\n      tag_17\n      0x04\n      dup1\n      calldatasize\n      sub\n      dup2\n      add\n      swap1\n      tag_18\n      swap2\n      swap1\n      tag_19\n      jump\t// in\n    tag_18:\n      tag_20\n      jump\t// in\n    tag_17:\n      stop\n    tag_20:\n        /* \"contracts/proxy.sol\":315:320  _impl */\n      dup1\n        /* \"contracts/proxy.sol\":300:314  implementation */\n      0x00\n      dup1\n        /* \"contracts/proxy.sol\":300:320  implementation=_impl */\n      0x0100\n      exp\n      dup2\n      sload\n      dup2\n      0xffffffffffffffffffffffffffffffffffffffff\n      mul\n      not\n      and\n      swap1\n      dup4\n      0xffffffffffffffffffffffffffffffffffffffff\n      and\n      mul\n      or\n      swap1\n      sstore\n      pop\n        /* \"contracts/proxy.sol\":242:327  function setImplementation(address _impl) public{... */\n      pop\n      jump\t// out\n        /* \"#utility.yul\":7:154   */\n    tag_22:\n        /* \"#utility.yul\":108:119   */\n      0x00\n        /* \"#utility.yul\":145:148   */\n      dup2\n        /* \"#utility.yul\":130:148   */\n      swap1\n      pop\n        /* \"#utility.yul\":7:154   */\n      swap3\n      swap2\n      pop\n      pop\n      jump\t// out\n        /* \"#utility.yul\":160:308   */\n    tag_23:\n        /* \"#utility.yul\":258:264   */\n      dup3\n        /* \"#utility.yul\":253:256   */\n      dup2\n        /* \"#utility.yul\":248:251   */\n      dup4\n        /* \"#utility.yul\":235:265   */\n      calldatacopy\n        /* \"#utility.yul\":299:300   */\n      0x00\n        /* \"#utility.yul\":290:296   */\n      dup4\n        /* \"#utility.yul\":285:288   */\n      dup4\n        /* \"#utility.yul\":281:297   */\n      add\n        /* \"#utility.yul\":274:301   */\n      mstore\n        /* \"#utility.yul\":160:308   */\n      pop\n      pop\n      pop\n      jump\t// out\n        /* \"#utility.yul\":336:663   */\n    tag_24:\n        /* \"#utility.yul\":450:453   */\n      0x00\n        /* \"#utility.yul\":471:559   */\n      tag_39\n        /* \"#utility.yul\":552:558   */\n      dup4\n        /* \"#utility.yul\":547:550   */\n      dup6\n        /* \"#utility.yul\":471:559   */\n      tag_22\n      jump\t// in\n    tag_39:\n        /* \"#utility.yul\":464:559   */\n      swap4\n      pop\n        /* \"#utility.yul\":569:625   */\n      tag_40\n        /* \"#utility.yul\":618:624   */\n      dup4\n        /* \"#utility.yul\":613:616   */\n      dup6\n        /* \"#utility.yul\":606:611   */\n      dup5\n        /* \"#utility.yul\":569:625   */\n      tag_23\n      jump\t// in\n    tag_40:\n        /* \"#utility.yul\":650:656   */\n      dup3\n        /* \"#utility.yul\":645:648   */\n      dup5\n        /* \"#utility.yul\":641:657   */\n      add\n        /* \"#utility.yul\":634:657   */\n      swap1\n      pop\n        /* \"#utility.yul\":336:663   */\n      swap4\n      swap3\n      pop\n      pop\n      pop\n      jump\t// out\n        /* \"#utility.yul\":669:960   */\n    tag_9:\n        /* \"#utility.yul\":809:812   */\n      0x00\n        /* \"#utility.yul\":831:934   */\n      tag_42\n        /* \"#utility.yul\":930:933   */\n      dup3\n        /* \"#utility.yul\":921:927   */\n      dup5\n        /* \"#utility.yul\":913:919   */\n      dup7\n        /* \"#utility.yul\":831:934   */\n      tag_24\n      jump\t// in\n    tag_42:\n        /* \"#utility.yul\":824:934   */\n      swap2\n      pop\n        /* \"#utility.yul\":951:954   */\n      dup2\n        /* \"#utility.yul\":944:954   */\n      swap1\n      pop\n        /* \"#utility.yul\":669:960   */\n      swap4\n      swap3\n      pop\n      pop\n      pop\n      jump\t// out\n        /* \"#utility.yul\":966:1135   */\n    tag_25:\n        /* \"#utility.yul\":1050:1061   */\n      0x00\n        /* \"#utility.yul\":1084:1090   */\n      dup3\n        /* \"#utility.yul\":1079:1082   */\n      dup3\n        /* \"#utility.yul\":1072:1091   */\n      mstore\n        /* \"#utility.yul\":1124:1128   */\n      0x20\n        /* \"#utility.yul\":1119:1122   */\n      dup3\n        /* \"#utility.yul\":1115:1129   */\n      add\n        /* \"#utility.yul\":1100:1129   */\n      swap1\n      pop\n        /* \"#utility.yul\":966:1135   */\n      swap3\n      swap2\n      pop\n      pop\n      jump\t// out\n        /* \"#utility.yul\":1141:1310   */\n    tag_26:\n        /* \"#utility.yul\":1281:1302   */\n      0x44656c656761746563616c6c206661696c656400000000000000000000000000\n        /* \"#utility.yul\":1277:1278   */\n      0x00\n        /* \"#utility.yul\":1269:1275   */\n      dup3\n        /* \"#utility.yul\":1265:1279   */\n      add\n        /* \"#utility.yul\":1258:1303   */\n      mstore\n        /* \"#utility.yul\":1141:1310   */\n      pop\n      jump\t// out\n        /* \"#utility.yul\":1316:1682   */\n    tag_27:\n        /* \"#utility.yul\":1458:1461   */\n      0x00\n        /* \"#utility.yul\":1479:1546   */\n      tag_46\n        /* \"#utility.yul\":1543:1545   */\n      0x13\n        /* \"#utility.yul\":1538:1541   */\n      dup4\n        /* \"#utility.yul\":1479:1546   */\n      tag_25\n      jump\t// in\n    tag_46:\n        /* \"#utility.yul\":1472:1546   */\n      swap2\n      pop\n        /* \"#utility.yul\":1555:1648   */\n      tag_47\n        /* \"#utility.yul\":1644:1647   */\n      dup3\n        /* \"#utility.yul\":1555:1648   */\n      tag_26\n      jump\t// in\n    tag_47:\n        /* \"#utility.yul\":1673:1675   */\n      0x20\n        /* \"#utility.yul\":1668:1671   */\n      dup3\n        /* \"#utility.yul\":1664:1676   */\n      add\n        /* \"#utility.yul\":1657:1676   */\n      swap1\n      pop\n        /* \"#utility.yul\":1316:1682   */\n      swap2\n      swap1\n      pop\n      jump\t// out\n        /* \"#utility.yul\":1688:2107   */\n    tag_15:\n        /* \"#utility.yul\":1854:1858   */\n      0x00\n        /* \"#utility.yul\":1892:1894   */\n      0x20\n        /* \"#utility.yul\":1881:1890   */\n      dup3\n        /* \"#utility.yul\":1877:1895   */\n      add\n        /* \"#utility.yul\":1869:1895   */\n      swap1\n      pop\n        /* \"#utility.yul\":1941:1950   */\n      dup2\n        /* \"#utility.yul\":1935:1939   */\n      dup2\n        /* \"#utility.yul\":1931:1951   */\n      sub\n        /* \"#utility.yul\":1927:1928   */\n      0x00\n        /* \"#utility.yul\":1916:1925   */\n      dup4\n        /* \"#utility.yul\":1912:1929   */\n      add\n        /* \"#utility.yul\":1905:1952   */\n      mstore\n        /* \"#utility.yul\":1969:2100   */\n      tag_49\n        /* \"#utility.yul\":2095:2099   */\n      dup2\n        /* \"#utility.yul\":1969:2100   */\n      tag_27\n      jump\t// in\n    tag_49:\n        /* \"#utility.yul\":1961:2100   */\n      swap1\n      pop\n        /* \"#utility.yul\":1688:2107   */\n      swap2\n      swap1\n      pop\n      jump\t// out\n        /* \"#utility.yul\":2194:2311   */\n    tag_29:\n        /* \"#utility.yul\":2303:2304   */\n      0x00\n        /* \"#utility.yul\":2300:2301   */\n      dup1\n        /* \"#utility.yul\":2293:2305   */\n      revert\n        /* \"#utility.yul\":2440:2566   */\n    tag_31:\n        /* \"#utility.yul\":2477:2484   */\n      0x00\n        /* \"#utility.yul\":2517:2559   */\n      0xffffffffffffffffffffffffffffffffffffffff\n        /* \"#utility.yul\":2510:2515   */\n      dup3\n        /* \"#utility.yul\":2506:2560   */\n      and\n        /* \"#utility.yul\":2495:2560   */\n      swap1\n      pop\n        /* \"#utility.yul\":2440:2566   */\n      swap2\n      swap1\n      pop\n      jump\t// out\n        /* \"#utility.yul\":2572:2668   */\n    tag_32:\n        /* \"#utility.yul\":2609:2616   */\n      0x00\n        /* \"#utility.yul\":2638:2662   */\n      tag_55\n        /* \"#utility.yul\":2656:2661   */\n      dup3\n        /* \"#utility.yul\":2638:2662   */\n      tag_31\n      jump\t// in\n    tag_55:\n        /* \"#utility.yul\":2627:2662   */\n      swap1\n      pop\n        /* \"#utility.yul\":2572:2668   */\n      swap2\n      swap1\n      pop\n      jump\t// out\n        /* \"#utility.yul\":2674:2796   */\n    tag_33:\n        /* \"#utility.yul\":2747:2771   */\n      tag_57\n        /* \"#utility.yul\":2765:2770   */\n      dup2\n        /* \"#utility.yul\":2747:2771   */\n      tag_32\n      jump\t// in\n    tag_57:\n        /* \"#utility.yul\":2740:2745   */\n      dup2\n        /* \"#utility.yul\":2737:2772   */\n      eq\n        /* \"#utility.yul\":2727:2790   */\n      tag_58\n      jumpi\n        /* \"#utility.yul\":2786:2787   */\n      0x00\n        /* \"#utility.yul\":2783:2784   */\n      dup1\n        /* \"#utility.yul\":2776:2788   */\n      revert\n        /* \"#utility.yul\":2727:2790   */\n    tag_58:\n        /* \"#utility.yul\":2674:2796   */\n      pop\n      jump\t// out\n        /* \"#utility.yul\":2802:2941   */\n    tag_34:\n        /* \"#utility.yul\":2848:2853   */\n      0x00\n        /* \"#utility.yul\":2886:2892   */\n      dup2\n        /* \"#utility.yul\":2873:2893   */\n      calldataload\n        /* \"#utility.yul\":2864:2893   */\n      swap1\n      pop\n        /* \"#utility.yul\":2902:2935   */\n      tag_60\n        /* \"#utility.yul\":2929:2934   */\n      dup2\n        /* \"#utility.yul\":2902:2935   */\n      tag_33\n      jump\t// in\n    tag_60:\n        /* \"#utility.yul\":2802:2941   */\n      swap3\n      swap2\n      pop\n      pop\n      jump\t// out\n        /* \"#utility.yul\":2947:3276   */\n    tag_19:\n        /* \"#utility.yul\":3006:3012   */\n      0x00\n        /* \"#utility.yul\":3055:3057   */\n      0x20\n        /* \"#utility.yul\":3043:3052   */\n      dup3\n        /* \"#utility.yul\":3034:3041   */\n      dup5\n        /* \"#utility.yul\":3030:3053   */\n      sub\n        /* \"#utility.yul\":3026:3058   */\n      slt\n        /* \"#utility.yul\":3023:3142   */\n      iszero\n      tag_62\n      jumpi\n        /* \"#utility.yul\":3061:3140   */\n      tag_63\n      tag_29\n      jump\t// in\n    tag_63:\n        /* \"#utility.yul\":3023:3142   */\n    tag_62:\n        /* \"#utility.yul\":3181:3182   */\n      0x00\n        /* \"#utility.yul\":3206:3259   */\n      tag_64\n        /* \"#utility.yul\":3251:3258   */\n      dup5\n        /* \"#utility.yul\":3242:3248   */\n      dup3\n        /* \"#utility.yul\":3231:3240   */\n      dup6\n        /* \"#utility.yul\":3227:3249   */\n      add\n        /* \"#utility.yul\":3206:3259   */\n      tag_34\n      jump\t// in\n    tag_64:\n        /* \"#utility.yul\":3196:3259   */\n      swap2\n      pop\n        /* \"#utility.yul\":3152:3269   */\n      pop\n        /* \"#utility.yul\":2947:3276   */\n      swap3\n      swap2\n      pop\n      pop\n      jump\t// out\n\n    auxdata: 0xa26469706673582212200fd062930fa925ebf1cb3588bb8b39f72a633de5b6604a0eec2c0f951865fb6d64736f6c634300081a0033\n}\n",
				"bytecode": {
					"linkReferences": {},
					"object": "6080604052348015600e575f80fd5b506102e88061001c5f395ff3fe608060405260043610610021575f3560e01c8063d784d426146100f357610028565b3661002857005b5f805f9054906101000a900473ffffffffffffffffffffffffffffffffffffffff1673ffffffffffffffffffffffffffffffffffffffff165f36604051610070929190610199565b5f60405180830381855af49150503d805f81146100a8576040519150601f19603f3d011682016040523d82523d5f602084013e6100ad565b606091505b50509050806100f1576040517f08c379a00000000000000000000000000000000000000000000000000000000081526004016100e89061020b565b60405180910390fd5b005b3480156100fe575f80fd5b5061011960048036038101906101149190610287565b61011b565b005b805f806101000a81548173ffffffffffffffffffffffffffffffffffffffff021916908373ffffffffffffffffffffffffffffffffffffffff16021790555050565b5f81905092915050565b828183375f83830152505050565b5f610180838561015d565b935061018d838584610167565b82840190509392505050565b5f6101a5828486610175565b91508190509392505050565b5f82825260208201905092915050565b7f44656c656761746563616c6c206661696c6564000000000000000000000000005f82015250565b5f6101f56013836101b1565b9150610200826101c1565b602082019050919050565b5f6020820190508181035f830152610222816101e9565b9050919050565b5f80fd5b5f73ffffffffffffffffffffffffffffffffffffffff82169050919050565b5f6102568261022d565b9050919050565b6102668161024c565b8114610270575f80fd5b50565b5f813590506102818161025d565b92915050565b5f6020828403121561029c5761029b610229565b5b5f6102a984828501610273565b9150509291505056fea26469706673582212200fd062930fa925ebf1cb3588bb8b39f72a633de5b6604a0eec2c0f951865fb6d64736f6c634300081a0033",
					"opcodes": "PUSH1 0x80 PUSH1 0x40 MSTORE CALLVALUE DUP1 ISZERO PUSH1 0xE JUMPI PUSH0 DUP1 REVERT JUMPDEST POP PUSH2 0x2E8 DUP1 PUSH2 0x1C PUSH0 CODECOPY PUSH0 RETURN INVALID PUSH1 0x80 PUSH1 0x40 MSTORE PUSH1 0x4 CALLDATASIZE LT PUSH2 0x21 JUMPI PUSH0 CALLDATALOAD PUSH1 0xE0 SHR DUP1 PUSH4 0xD784D426 EQ PUSH2 0xF3 JUMPI PUSH2 0x28 JUMP JUMPDEST CALLDATASIZE PUSH2 0x28 JUMPI STOP JUMPDEST PUSH0 DUP1 PUSH0 SWAP1 SLOAD SWAP1 PUSH2 0x100 EXP SWAP1 DIV PUSH20 0xFFFFFFFFFFFFFFFFFFFFFFFFFFFFFFFFFFFFFFFF AND PUSH20 0xFFFFFFFFFFFFFFFFFFFFFFFFFFFFFFFFFFFFFFFF AND PUSH0 CALLDATASIZE PUSH1 0x40 MLOAD PUSH2 0x70 SWAP3 SWAP2 SWAP1 PUSH2 0x199 JUMP JUMPDEST PUSH0 PUSH1 0x40 MLOAD DUP1 DUP4 SUB DUP2 DUP6 GAS DELEGATECALL SWAP2 POP POP RETURNDATASIZE DUP1 PUSH0 DUP2 EQ PUSH2 0xA8 JUMPI PUSH1 0x40 MLOAD SWAP2 POP PUSH1 0x1F NOT PUSH1 0x3F RETURNDATASIZE ADD AND DUP3 ADD PUSH1 0x40 MSTORE RETURNDATASIZE DUP3 MSTORE RETURNDATASIZE PUSH0 PUSH1 0x20 DUP5 ADD RETURNDATACOPY PUSH2 0xAD JUMP JUMPDEST PUSH1 0x60 SWAP2 POP JUMPDEST POP POP SWAP1 POP DUP1 PUSH2 0xF1 JUMPI PUSH1 0x40 MLOAD PUSH32 0x8C379A000000000000000000000000000000000000000000000000000000000 DUP2 MSTORE PUSH1 0x4 ADD PUSH2 0xE8 SWAP1 PUSH2 0x20B JUMP JUMPDEST PUSH1 0x40 MLOAD DUP1 SWAP2 SUB SWAP1 REVERT JUMPDEST STOP JUMPDEST CALLVALUE DUP1 ISZERO PUSH2 0xFE JUMPI PUSH0 DUP1 REVERT JUMPDEST POP PUSH2 0x119 PUSH1 0x4 DUP1 CALLDATASIZE SUB DUP2 ADD SWAP1 PUSH2 0x114 SWAP2 SWAP1 PUSH2 0x287 JUMP JUMPDEST PUSH2 0x11B JUMP JUMPDEST STOP JUMPDEST DUP1 PUSH0 DUP1 PUSH2 0x100 EXP DUP2 SLOAD DUP2 PUSH20 0xFFFFFFFFFFFFFFFFFFFFFFFFFFFFFFFFFFFFFFFF MUL NOT AND SWAP1 DUP4 PUSH20 0xFFFFFFFFFFFFFFFFFFFFFFFFFFFFFFFFFFFFFFFF AND MUL OR SWAP1 SSTORE POP POP JUMP JUMPDEST PUSH0 DUP2 SWAP1 POP SWAP3 SWAP2 POP POP JUMP JUMPDEST DUP3 DUP2 DUP4 CALLDATACOPY PUSH0 DUP4 DUP4 ADD MSTORE POP POP POP JUMP JUMPDEST PUSH0 PUSH2 0x180 DUP4 DUP6 PUSH2 0x15D JUMP JUMPDEST SWAP4 POP PUSH2 0x18D DUP4 DUP6 DUP5 PUSH2 0x167 JUMP JUMPDEST DUP3 DUP5 ADD SWAP1 POP SWAP4 SWAP3 POP POP POP JUMP JUMPDEST PUSH0 PUSH2 0x1A5 DUP3 DUP5 DUP7 PUSH2 0x175 JUMP JUMPDEST SWAP2 POP DUP2 SWAP1 POP SWAP4 SWAP3 POP POP POP JUMP JUMPDEST PUSH0 DUP3 DUP3 MSTORE PUSH1 0x20 DUP3 ADD SWAP1 POP SWAP3 SWAP2 POP POP JUMP JUMPDEST PUSH32 0x44656C656761746563616C6C206661696C656400000000000000000000000000 PUSH0 DUP3 ADD MSTORE POP JUMP JUMPDEST PUSH0 PUSH2 0x1F5 PUSH1 0x13 DUP4 PUSH2 0x1B1 JUMP JUMPDEST SWAP2 POP PUSH2 0x200 DUP3 PUSH2 0x1C1 JUMP JUMPDEST PUSH1 0x20 DUP3 ADD SWAP1 POP SWAP2 SWAP1 POP JUMP JUMPDEST PUSH0 PUSH1 0x20 DUP3 ADD SWAP1 POP DUP2 DUP2 SUB PUSH0 DUP4 ADD MSTORE PUSH2 0x222 DUP2 PUSH2 0x1E9 JUMP JUMPDEST SWAP1 POP SWAP2 SWAP1 POP JUMP JUMPDEST PUSH0 DUP1 REVERT JUMPDEST PUSH0 PUSH20 0xFFFFFFFFFFFFFFFFFFFFFFFFFFFFFFFFFFFFFFFF DUP3 AND SWAP1 POP SWAP2 SWAP1 POP JUMP JUMPDEST PUSH0 PUSH2 0x256 DUP3 PUSH2 0x22D JUMP JUMPDEST SWAP1 POP SWAP2 SWAP1 POP JUMP JUMPDEST PUSH2 0x266 DUP2 PUSH2 0x24C JUMP JUMPDEST DUP2 EQ PUSH2 0x270 JUMPI PUSH0 DUP1 REVERT JUMPDEST POP JUMP JUMPDEST PUSH0 DUP2 CALLDATALOAD SWAP1 POP PUSH2 0x281 DUP2 PUSH2 0x25D JUMP JUMPDEST SWAP3 SWAP2 POP POP JUMP JUMPDEST PUSH0 PUSH1 0x20 DUP3 DUP5 SUB SLT ISZERO PUSH2 0x29C JUMPI PUSH2 0x29B PUSH2 0x229 JUMP JUMPDEST JUMPDEST PUSH0 PUSH2 0x2A9 DUP5 DUP3 DUP6 ADD PUSH2 0x273 JUMP JUMPDEST SWAP2 POP POP SWAP3 SWAP2 POP POP JUMP INVALID LOG2 PUSH5 0x6970667358 0x22 SLT KECCAK256 0xF 0xD0 PUSH3 0x930FA9 0x25 0xEB CALL 0xCB CALLDATALOAD DUP9 0xBB DUP12 CODECOPY 0xF7 0x2A PUSH4 0x3DE5B660 BLOBBASEFEE 0xE 0xEC 0x2C 0xF SWAP6 XOR PUSH6 0xFB6D64736F6C PUSH4 0x4300081A STOP CALLER "
				},
				"gasEstimates": {
					"creation": {
						"codeDepositCost": "148800",
						"executionCost": "194",
						"totalCost": "148994"
					},
					"external": {
						"": "infinite",
						"setImplementation(address)": "24693"
					}
				},
				"methodIdentifiers": {
					"setImplementation(address)": "d784d426"
				}
			},
			"storageLayout": {
				"storage": [
					{
						"astId": 3,
						"contract": "contracts/proxy.sol:ProxyContract",
						"label": "implementation",
						"offset": 0,
						"slot": "0",
						"type": "t_address"
					}
				],
				"types": {
					"t_address": {
						"encoding": "inplace",
						"label": "address",
						"numberOfBytes": "20"
					}
				}
			},
			"userdoc": {
				"kind": "user",
				"methods": {},
				"version": 1
			}
		}
	}
}