{
	"contracts/PersonsContract.sol": {
		"Person": {
			"abi": [
				{
					"inputs": [
						{
							"internalType": "address",
							"name": "",
							"type": "address"
						}
					],
					"name": "Personcontract",
					"outputs": [
						{
							"internalType": "string",
							"name": "name",
							"type": "string"
						},
						{
							"internalType": "uint32",
							"name": "age",
							"type": "uint32"
						},
						{
							"internalType": "address",
							"name": "add",
							"type": "address"
						}
					],
					"stateMutability": "view",
					"type": "function"
				},
				{
					"inputs": [],
					"name": "getPersonDetails",
					"outputs": [
						{
							"internalType": "string",
							"name": "",
							"type": "string"
						},
						{
							"internalType": "uint32",
							"name": "",
							"type": "uint32"
						},
						{
							"internalType": "address",
							"name": "",
							"type": "address"
						}
					],
					"stateMutability": "view",
					"type": "function"
				},
				{
					"inputs": [],
					"name": "p1",
					"outputs": [
						{
							"internalType": "string",
							"name": "name",
							"type": "string"
						},
						{
							"internalType": "uint32",
							"name": "age",
							"type": "uint32"
						},
						{
							"internalType": "address",
							"name": "add",
							"type": "address"
						}
					],
					"stateMutability": "view",
					"type": "function"
				},
				{
					"inputs": [
						{
							"internalType": "string",
							"name": "_name",
							"type": "string"
						},
						{
							"internalType": "uint32",
							"name": "_age",
							"type": "uint32"
						}
					],
					"name": "setPerson",
					"outputs": [],
					"stateMutability": "nonpayable",
					"type": "function"
				}
			],
			"devdoc": {
				"kind": "dev",
				"methods": {},
				"version": 1
			},
			"evm": {
				"assembly": "    /* \"contracts/PersonsContract.sol\":68:603  contract Person{... */\n  mstore(0x40, 0x80)\n  callvalue\n  dup1\n  iszero\n  tag_1\n  jumpi\n  revert(0x00, 0x00)\ntag_1:\n  pop\n  dataSize(sub_0)\n  dup1\n  dataOffset(sub_0)\n  0x00\n  codecopy\n  0x00\n  return\nstop\n\nsub_0: assembly {\n        /* \"contracts/PersonsContract.sol\":68:603  contract Person{... */\n      mstore(0x40, 0x80)\n      callvalue\n      dup1\n      iszero\n      tag_1\n      jumpi\n      revert(0x00, 0x00)\n    tag_1:\n      pop\n      jumpi(tag_2, lt(calldatasize, 0x04))\n      shr(0xe0, calldataload(0x00))\n      dup1\n      0x2748663e\n      eq\n      tag_3\n      jumpi\n      dup1\n      0xa1f94f54\n      eq\n      tag_4\n      jumpi\n      dup1\n      0xc2a2747b\n      eq\n      tag_5\n      jumpi\n      dup1\n      0xd781a3a5\n      eq\n      tag_6\n      jumpi\n    tag_2:\n      revert(0x00, 0x00)\n        /* \"contracts/PersonsContract.sol\":334:472  function setPerson(string memory _name,uint32 _age) public {... */\n    tag_3:\n      tag_7\n      0x04\n      dup1\n      calldatasize\n      sub\n      dup2\n      add\n      swap1\n      tag_8\n      swap2\n      swap1\n      tag_9\n      jump\t// in\n    tag_8:\n      tag_10\n      jump\t// in\n    tag_7:\n      stop\n        /* \"contracts/PersonsContract.sol\":203:250  mapping (address=>person) public Personcontract */\n    tag_4:\n      tag_11\n      0x04\n      dup1\n      calldatasize\n      sub\n      dup2\n      add\n      swap1\n      tag_12\n      swap2\n      swap1\n      tag_13\n      jump\t// in\n    tag_12:\n      tag_14\n      jump\t// in\n    tag_11:\n      mload(0x40)\n      tag_15\n      swap4\n      swap3\n      swap2\n      swap1\n      tag_16\n      jump\t// in\n    tag_15:\n      mload(0x40)\n      dup1\n      swap2\n      sub\n      swap1\n      return\n        /* \"contracts/PersonsContract.sol\":181:197  person public p1 */\n    tag_5:\n      tag_17\n      tag_18\n      jump\t// in\n    tag_17:\n      mload(0x40)\n      tag_19\n      swap4\n      swap3\n      swap2\n      swap1\n      tag_16\n      jump\t// in\n    tag_19:\n      mload(0x40)\n      dup1\n      swap2\n      sub\n      swap1\n      return\n        /* \"contracts/PersonsContract.sol\":477:601  function getPersonDetails() public view returns(string memory,uint32,address){... */\n    tag_6:\n      tag_20\n      tag_21\n      jump\t// in\n    tag_20:\n      mload(0x40)\n      tag_22\n      swap4\n      swap3\n      swap2\n      swap1\n      tag_16\n      jump\t// in\n    tag_22:\n      mload(0x40)\n      dup1\n      swap2\n      sub\n      swap1\n      return\n        /* \"contracts/PersonsContract.sol\":334:472  function setPerson(string memory _name,uint32 _age) public {... */\n    tag_10:\n        /* \"contracts/PersonsContract.sol\":411:416  _name */\n      dup2\n        /* \"contracts/PersonsContract.sol\":403:405  p1 */\n      0x00\n        /* \"contracts/PersonsContract.sol\":403:410  p1.name */\n      0x00\n      add\n        /* \"contracts/PersonsContract.sol\":403:416  p1.name=_name */\n      swap1\n      dup2\n      tag_24\n      swap2\n      swap1\n      tag_25\n      jump\t// in\n    tag_24:\n      pop\n        /* \"contracts/PersonsContract.sol\":433:437  _age */\n      dup1\n        /* \"contracts/PersonsContract.sol\":426:428  p1 */\n      0x00\n        /* \"contracts/PersonsContract.sol\":426:432  p1.age */\n      0x01\n      add\n      0x00\n        /* \"contracts/PersonsContract.sol\":426:437  p1.age=_age */\n      0x0100\n      exp\n      dup2\n      sload\n      dup2\n      0xffffffff\n      mul\n      not\n      and\n      swap1\n      dup4\n      0xffffffff\n      and\n      mul\n      or\n      swap1\n      sstore\n      pop\n        /* \"contracts/PersonsContract.sol\":455:465  msg.sender */\n      caller\n        /* \"contracts/PersonsContract.sol\":447:449  p1 */\n      0x00\n        /* \"contracts/PersonsContract.sol\":447:453  p1.add */\n      0x01\n      add\n      0x04\n        /* \"contracts/PersonsContract.sol\":447:465  p1.add= msg.sender */\n      0x0100\n      exp\n      dup2\n      sload\n      dup2\n      0xffffffffffffffffffffffffffffffffffffffff\n      mul\n      not\n      and\n      swap1\n      dup4\n      0xffffffffffffffffffffffffffffffffffffffff\n      and\n      mul\n      or\n      swap1\n      sstore\n      pop\n        /* \"contracts/PersonsContract.sol\":334:472  function setPerson(string memory _name,uint32 _age) public {... */\n      pop\n      pop\n      jump\t// out\n        /* \"contracts/PersonsContract.sol\":203:250  mapping (address=>person) public Personcontract */\n    tag_14:\n      mstore(0x20, 0x02)\n      dup1\n      0x00\n      mstore\n      keccak256(0x00, 0x40)\n      0x00\n      swap2\n      pop\n      swap1\n      pop\n      dup1\n      0x00\n      add\n      dup1\n      sload\n      tag_26\n      swap1\n      tag_27\n      jump\t// in\n    tag_26:\n      dup1\n      0x1f\n      add\n      0x20\n      dup1\n      swap2\n      div\n      mul\n      0x20\n      add\n      mload(0x40)\n      swap1\n      dup2\n      add\n      0x40\n      mstore\n      dup1\n      swap3\n      swap2\n      swap1\n      dup2\n      dup2\n      mstore\n      0x20\n      add\n      dup3\n      dup1\n      sload\n      tag_28\n      swap1\n      tag_27\n      jump\t// in\n    tag_28:\n      dup1\n      iszero\n      tag_29\n      jumpi\n      dup1\n      0x1f\n      lt\n      tag_30\n      jumpi\n      0x0100\n      dup1\n      dup4\n      sload\n      div\n      mul\n      dup4\n      mstore\n      swap2\n      0x20\n      add\n      swap2\n      jump(tag_29)\n    tag_30:\n      dup3\n      add\n      swap2\n      swap1\n      0x00\n      mstore\n      keccak256(0x00, 0x20)\n      swap1\n    tag_31:\n      dup2\n      sload\n      dup2\n      mstore\n      swap1\n      0x01\n      add\n      swap1\n      0x20\n      add\n      dup1\n      dup4\n      gt\n      tag_31\n      jumpi\n      dup3\n      swap1\n      sub\n      0x1f\n      and\n      dup3\n      add\n      swap2\n    tag_29:\n      pop\n      pop\n      pop\n      pop\n      pop\n      swap1\n      dup1\n      0x01\n      add\n      0x00\n      swap1\n      sload\n      swap1\n      0x0100\n      exp\n      swap1\n      div\n      0xffffffff\n      and\n      swap1\n      dup1\n      0x01\n      add\n      0x04\n      swap1\n      sload\n      swap1\n      0x0100\n      exp\n      swap1\n      div\n      0xffffffffffffffffffffffffffffffffffffffff\n      and\n      swap1\n      pop\n      dup4\n      jump\t// out\n        /* \"contracts/PersonsContract.sol\":181:197  person public p1 */\n    tag_18:\n      0x00\n      dup1\n      0x00\n      add\n      dup1\n      sload\n      tag_32\n      swap1\n      tag_27\n      jump\t// in\n    tag_32:\n      dup1\n      0x1f\n      add\n      0x20\n      dup1\n      swap2\n      div\n      mul\n      0x20\n      add\n      mload(0x40)\n      swap1\n      dup2\n      add\n      0x40\n      mstore\n      dup1\n      swap3\n      swap2\n      swap1\n      dup2\n      dup2\n      mstore\n      0x20\n      add\n      dup3\n      dup1\n      sload\n      tag_33\n      swap1\n      tag_27\n      jump\t// in\n    tag_33:\n      dup1\n      iszero\n      tag_34\n      jumpi\n      dup1\n      0x1f\n      lt\n      tag_35\n      jumpi\n      0x0100\n      dup1\n      dup4\n      sload\n      div\n      mul\n      dup4\n      mstore\n      swap2\n      0x20\n      add\n      swap2\n      jump(tag_34)\n    tag_35:\n      dup3\n      add\n      swap2\n      swap1\n      0x00\n      mstore\n      keccak256(0x00, 0x20)\n      swap1\n    tag_36:\n      dup2\n      sload\n      dup2\n      mstore\n      swap1\n      0x01\n      add\n      swap1\n      0x20\n      add\n      dup1\n      dup4\n      gt\n      tag_36\n      jumpi\n      dup3\n      swap1\n      sub\n      0x1f\n      and\n      dup3\n      add\n      swap2\n    tag_34:\n      pop\n      pop\n      pop\n      pop\n      pop\n      swap1\n      dup1\n      0x01\n      add\n      0x00\n      swap1\n      sload\n      swap1\n      0x0100\n      exp\n      swap1\n      div\n      0xffffffff\n      and\n      swap1\n      dup1\n      0x01\n      add\n      0x04\n      swap1\n      sload\n      swap1\n      0x0100\n      exp\n      swap1\n      div\n      0xffffffffffffffffffffffffffffffffffffffff\n      and\n      swap1\n      pop\n      dup4\n      jump\t// out\n        /* \"contracts/PersonsContract.sol\":477:601  function getPersonDetails() public view returns(string memory,uint32,address){... */\n    tag_21:\n        /* \"contracts/PersonsContract.sol\":525:538  string memory */\n      0x60\n        /* \"contracts/PersonsContract.sol\":539:545  uint32 */\n      0x00\n        /* \"contracts/PersonsContract.sol\":546:553  address */\n      0x00\n        /* \"contracts/PersonsContract.sol\":572:574  p1 */\n      0x00\n        /* \"contracts/PersonsContract.sol\":572:579  p1.name */\n      0x00\n      add\n        /* \"contracts/PersonsContract.sol\":580:582  p1 */\n      0x00\n        /* \"contracts/PersonsContract.sol\":580:586  p1.age */\n      0x01\n      add\n      0x00\n      swap1\n      sload\n      swap1\n      0x0100\n      exp\n      swap1\n      div\n      0xffffffff\n      and\n        /* \"contracts/PersonsContract.sol\":587:589  p1 */\n      0x00\n        /* \"contracts/PersonsContract.sol\":587:593  p1.add */\n      0x01\n      add\n      0x04\n      swap1\n      sload\n      swap1\n      0x0100\n      exp\n      swap1\n      div\n      0xffffffffffffffffffffffffffffffffffffffff\n      and\n        /* \"contracts/PersonsContract.sol\":564:594  return (p1.name,p1.age,p1.add) */\n      dup3\n      dup1\n      sload\n      tag_38\n      swap1\n      tag_27\n      jump\t// in\n    tag_38:\n      dup1\n      0x1f\n      add\n      0x20\n      dup1\n      swap2\n      div\n      mul\n      0x20\n      add\n      mload(0x40)\n      swap1\n      dup2\n      add\n      0x40\n      mstore\n      dup1\n      swap3\n      swap2\n      swap1\n      dup2\n      dup2\n      mstore\n      0x20\n      add\n      dup3\n      dup1\n      sload\n      tag_39\n      swap1\n      tag_27\n      jump\t// in\n    tag_39:\n      dup1\n      iszero\n      tag_40\n      jumpi\n      dup1\n      0x1f\n      lt\n      tag_41\n      jumpi\n      0x0100\n      dup1\n      dup4\n      sload\n      div\n      mul\n      dup4\n      mstore\n      swap2\n      0x20\n      add\n      swap2\n      jump(tag_40)\n    tag_41:\n      dup3\n      add\n      swap2\n      swap1\n      0x00\n      mstore\n      keccak256(0x00, 0x20)\n      swap1\n    tag_42:\n      dup2\n      sload\n      dup2\n      mstore\n      swap1\n      0x01\n      add\n      swap1\n      0x20\n      add\n      dup1\n      dup4\n      gt\n      tag_42\n      jumpi\n      dup3\n      swap1\n      sub\n      0x1f\n      and\n      dup3\n      add\n      swap2\n    tag_40:\n      pop\n      pop\n      pop\n      pop\n      pop\n      swap3\n      pop\n      swap3\n      pop\n      swap3\n      pop\n      swap3\n      pop\n        /* \"contracts/PersonsContract.sol\":477:601  function getPersonDetails() public view returns(string memory,uint32,address){... */\n      swap1\n      swap2\n      swap3\n      jump\t// out\n        /* \"#utility.yul\":7:82   */\n    tag_43:\n        /* \"#utility.yul\":40:46   */\n      0x00\n        /* \"#utility.yul\":73:75   */\n      0x40\n        /* \"#utility.yul\":67:76   */\n      mload\n        /* \"#utility.yul\":57:76   */\n      swap1\n      pop\n        /* \"#utility.yul\":7:82   */\n      swap1\n      jump\t// out\n        /* \"#utility.yul\":88:205   */\n    tag_44:\n        /* \"#utility.yul\":197:198   */\n      0x00\n        /* \"#utility.yul\":194:195   */\n      0x00\n        /* \"#utility.yul\":187:199   */\n      revert\n        /* \"#utility.yul\":211:328   */\n    tag_45:\n        /* \"#utility.yul\":320:321   */\n      0x00\n        /* \"#utility.yul\":317:318   */\n      0x00\n        /* \"#utility.yul\":310:322   */\n      revert\n        /* \"#utility.yul\":334:451   */\n    tag_46:\n        /* \"#utility.yul\":443:444   */\n      0x00\n        /* \"#utility.yul\":440:441   */\n      0x00\n        /* \"#utility.yul\":433:445   */\n      revert\n        /* \"#utility.yul\":457:574   */\n    tag_47:\n        /* \"#utility.yul\":566:567   */\n      0x00\n        /* \"#utility.yul\":563:564   */\n      0x00\n        /* \"#utility.yul\":556:568   */\n      revert\n        /* \"#utility.yul\":580:682   */\n    tag_48:\n        /* \"#utility.yul\":621:627   */\n      0x00\n        /* \"#utility.yul\":672:674   */\n      0x1f\n        /* \"#utility.yul\":668:675   */\n      not\n        /* \"#utility.yul\":663:665   */\n      0x1f\n        /* \"#utility.yul\":656:661   */\n      dup4\n        /* \"#utility.yul\":652:666   */\n      add\n        /* \"#utility.yul\":648:676   */\n      and\n        /* \"#utility.yul\":638:676   */\n      swap1\n      pop\n        /* \"#utility.yul\":580:682   */\n      swap2\n      swap1\n      pop\n      jump\t// out\n        /* \"#utility.yul\":688:868   */\n    tag_49:\n        /* \"#utility.yul\":736:813   */\n      0x4e487b7100000000000000000000000000000000000000000000000000000000\n        /* \"#utility.yul\":733:734   */\n      0x00\n        /* \"#utility.yul\":726:814   */\n      mstore\n        /* \"#utility.yul\":833:837   */\n      0x41\n        /* \"#utility.yul\":830:831   */\n      0x04\n        /* \"#utility.yul\":823:838   */\n      mstore\n        /* \"#utility.yul\":857:861   */\n      0x24\n        /* \"#utility.yul\":854:855   */\n      0x00\n        /* \"#utility.yul\":847:862   */\n      revert\n        /* \"#utility.yul\":874:1155   */\n    tag_50:\n        /* \"#utility.yul\":957:984   */\n      tag_95\n        /* \"#utility.yul\":979:983   */\n      dup3\n        /* \"#utility.yul\":957:984   */\n      tag_48\n      jump\t// in\n    tag_95:\n        /* \"#utility.yul\":949:955   */\n      dup2\n        /* \"#utility.yul\":945:985   */\n      add\n        /* \"#utility.yul\":1087:1093   */\n      dup2\n        /* \"#utility.yul\":1075:1085   */\n      dup2\n        /* \"#utility.yul\":1072:1094   */\n      lt\n        /* \"#utility.yul\":1051:1069   */\n      0xffffffffffffffff\n        /* \"#utility.yul\":1039:1049   */\n      dup3\n        /* \"#utility.yul\":1036:1070   */\n      gt\n        /* \"#utility.yul\":1033:1095   */\n      or\n        /* \"#utility.yul\":1030:1118   */\n      iszero\n      tag_96\n      jumpi\n        /* \"#utility.yul\":1098:1116   */\n      tag_97\n      tag_49\n      jump\t// in\n    tag_97:\n        /* \"#utility.yul\":1030:1118   */\n    tag_96:\n        /* \"#utility.yul\":1138:1148   */\n      dup1\n        /* \"#utility.yul\":1134:1136   */\n      0x40\n        /* \"#utility.yul\":1127:1149   */\n      mstore\n        /* \"#utility.yul\":917:1155   */\n      pop\n        /* \"#utility.yul\":874:1155   */\n      pop\n      pop\n      jump\t// out\n        /* \"#utility.yul\":1161:1290   */\n    tag_51:\n        /* \"#utility.yul\":1195:1201   */\n      0x00\n        /* \"#utility.yul\":1222:1242   */\n      tag_99\n      tag_43\n      jump\t// in\n    tag_99:\n        /* \"#utility.yul\":1212:1242   */\n      swap1\n      pop\n        /* \"#utility.yul\":1251:1284   */\n      tag_100\n        /* \"#utility.yul\":1279:1283   */\n      dup3\n        /* \"#utility.yul\":1271:1277   */\n      dup3\n        /* \"#utility.yul\":1251:1284   */\n      tag_50\n      jump\t// in\n    tag_100:\n        /* \"#utility.yul\":1161:1290   */\n      swap2\n      swap1\n      pop\n      jump\t// out\n        /* \"#utility.yul\":1296:1604   */\n    tag_52:\n        /* \"#utility.yul\":1358:1362   */\n      0x00\n        /* \"#utility.yul\":1448:1466   */\n      0xffffffffffffffff\n        /* \"#utility.yul\":1440:1446   */\n      dup3\n        /* \"#utility.yul\":1437:1467   */\n      gt\n        /* \"#utility.yul\":1434:1490   */\n      iszero\n      tag_102\n      jumpi\n        /* \"#utility.yul\":1470:1488   */\n      tag_103\n      tag_49\n      jump\t// in\n    tag_103:\n        /* \"#utility.yul\":1434:1490   */\n    tag_102:\n        /* \"#utility.yul\":1508:1537   */\n      tag_104\n        /* \"#utility.yul\":1530:1536   */\n      dup3\n        /* \"#utility.yul\":1508:1537   */\n      tag_48\n      jump\t// in\n    tag_104:\n        /* \"#utility.yul\":1500:1537   */\n      swap1\n      pop\n        /* \"#utility.yul\":1592:1596   */\n      0x20\n        /* \"#utility.yul\":1586:1590   */\n      dup2\n        /* \"#utility.yul\":1582:1597   */\n      add\n        /* \"#utility.yul\":1574:1597   */\n      swap1\n      pop\n        /* \"#utility.yul\":1296:1604   */\n      swap2\n      swap1\n      pop\n      jump\t// out\n        /* \"#utility.yul\":1610:1758   */\n    tag_53:\n        /* \"#utility.yul\":1708:1714   */\n      dup3\n        /* \"#utility.yul\":1703:1706   */\n      dup2\n        /* \"#utility.yul\":1698:1701   */\n      dup4\n        /* \"#utility.yul\":1685:1715   */\n      calldatacopy\n        /* \"#utility.yul\":1749:1750   */\n      0x00\n        /* \"#utility.yul\":1740:1746   */\n      dup4\n        /* \"#utility.yul\":1735:1738   */\n      dup4\n        /* \"#utility.yul\":1731:1747   */\n      add\n        /* \"#utility.yul\":1724:1751   */\n      mstore\n        /* \"#utility.yul\":1610:1758   */\n      pop\n      pop\n      pop\n      jump\t// out\n        /* \"#utility.yul\":1764:2189   */\n    tag_54:\n        /* \"#utility.yul\":1842:1847   */\n      0x00\n        /* \"#utility.yul\":1867:1933   */\n      tag_107\n        /* \"#utility.yul\":1883:1932   */\n      tag_108\n        /* \"#utility.yul\":1925:1931   */\n      dup5\n        /* \"#utility.yul\":1883:1932   */\n      tag_52\n      jump\t// in\n    tag_108:\n        /* \"#utility.yul\":1867:1933   */\n      tag_51\n      jump\t// in\n    tag_107:\n        /* \"#utility.yul\":1858:1933   */\n      swap1\n      pop\n        /* \"#utility.yul\":1956:1962   */\n      dup3\n        /* \"#utility.yul\":1949:1954   */\n      dup2\n        /* \"#utility.yul\":1942:1963   */\n      mstore\n        /* \"#utility.yul\":1994:1998   */\n      0x20\n        /* \"#utility.yul\":1987:1992   */\n      dup2\n        /* \"#utility.yul\":1983:1999   */\n      add\n        /* \"#utility.yul\":2032:2035   */\n      dup5\n        /* \"#utility.yul\":2023:2029   */\n      dup5\n        /* \"#utility.yul\":2018:2021   */\n      dup5\n        /* \"#utility.yul\":2014:2030   */\n      add\n        /* \"#utility.yul\":2011:2036   */\n      gt\n        /* \"#utility.yul\":2008:2120   */\n      iszero\n      tag_109\n      jumpi\n        /* \"#utility.yul\":2039:2118   */\n      tag_110\n      tag_47\n      jump\t// in\n    tag_110:\n        /* \"#utility.yul\":2008:2120   */\n    tag_109:\n        /* \"#utility.yul\":2129:2183   */\n      tag_111\n        /* \"#utility.yul\":2176:2182   */\n      dup5\n        /* \"#utility.yul\":2171:2174   */\n      dup3\n        /* \"#utility.yul\":2166:2169   */\n      dup6\n        /* \"#utility.yul\":2129:2183   */\n      tag_53\n      jump\t// in\n    tag_111:\n        /* \"#utility.yul\":1848:2189   */\n      pop\n        /* \"#utility.yul\":1764:2189   */\n      swap4\n      swap3\n      pop\n      pop\n      pop\n      jump\t// out\n        /* \"#utility.yul\":2209:2549   */\n    tag_55:\n        /* \"#utility.yul\":2265:2270   */\n      0x00\n        /* \"#utility.yul\":2314:2317   */\n      dup3\n        /* \"#utility.yul\":2307:2311   */\n      0x1f\n        /* \"#utility.yul\":2299:2305   */\n      dup4\n        /* \"#utility.yul\":2295:2312   */\n      add\n        /* \"#utility.yul\":2291:2318   */\n      slt\n        /* \"#utility.yul\":2281:2403   */\n      tag_113\n      jumpi\n        /* \"#utility.yul\":2322:2401   */\n      tag_114\n      tag_46\n      jump\t// in\n    tag_114:\n        /* \"#utility.yul\":2281:2403   */\n    tag_113:\n        /* \"#utility.yul\":2439:2445   */\n      dup2\n        /* \"#utility.yul\":2426:2446   */\n      calldataload\n        /* \"#utility.yul\":2464:2543   */\n      tag_115\n        /* \"#utility.yul\":2539:2542   */\n      dup5\n        /* \"#utility.yul\":2531:2537   */\n      dup3\n        /* \"#utility.yul\":2524:2528   */\n      0x20\n        /* \"#utility.yul\":2516:2522   */\n      dup7\n        /* \"#utility.yul\":2512:2529   */\n      add\n        /* \"#utility.yul\":2464:2543   */\n      tag_54\n      jump\t// in\n    tag_115:\n        /* \"#utility.yul\":2455:2543   */\n      swap2\n      pop\n        /* \"#utility.yul\":2271:2549   */\n      pop\n        /* \"#utility.yul\":2209:2549   */\n      swap3\n      swap2\n      pop\n      pop\n      jump\t// out\n        /* \"#utility.yul\":2555:2648   */\n    tag_56:\n        /* \"#utility.yul\":2591:2598   */\n      0x00\n        /* \"#utility.yul\":2631:2641   */\n      0xffffffff\n        /* \"#utility.yul\":2624:2629   */\n      dup3\n        /* \"#utility.yul\":2620:2642   */\n      and\n        /* \"#utility.yul\":2609:2642   */\n      swap1\n      pop\n        /* \"#utility.yul\":2555:2648   */\n      swap2\n      swap1\n      pop\n      jump\t// out\n        /* \"#utility.yul\":2654:2774   */\n    tag_57:\n        /* \"#utility.yul\":2726:2749   */\n      tag_118\n        /* \"#utility.yul\":2743:2748   */\n      dup2\n        /* \"#utility.yul\":2726:2749   */\n      tag_56\n      jump\t// in\n    tag_118:\n        /* \"#utility.yul\":2719:2724   */\n      dup2\n        /* \"#utility.yul\":2716:2750   */\n      eq\n        /* \"#utility.yul\":2706:2768   */\n      tag_119\n      jumpi\n        /* \"#utility.yul\":2764:2765   */\n      0x00\n        /* \"#utility.yul\":2761:2762   */\n      0x00\n        /* \"#utility.yul\":2754:2766   */\n      revert\n        /* \"#utility.yul\":2706:2768   */\n    tag_119:\n        /* \"#utility.yul\":2654:2774   */\n      pop\n      jump\t// out\n        /* \"#utility.yul\":2780:2917   */\n    tag_58:\n        /* \"#utility.yul\":2825:2830   */\n      0x00\n        /* \"#utility.yul\":2863:2869   */\n      dup2\n        /* \"#utility.yul\":2850:2870   */\n      calldataload\n        /* \"#utility.yul\":2841:2870   */\n      swap1\n      pop\n        /* \"#utility.yul\":2879:2911   */\n      tag_121\n        /* \"#utility.yul\":2905:2910   */\n      dup2\n        /* \"#utility.yul\":2879:2911   */\n      tag_57\n      jump\t// in\n    tag_121:\n        /* \"#utility.yul\":2780:2917   */\n      swap3\n      swap2\n      pop\n      pop\n      jump\t// out\n        /* \"#utility.yul\":2923:3575   */\n    tag_9:\n        /* \"#utility.yul\":3000:3006   */\n      0x00\n        /* \"#utility.yul\":3008:3014   */\n      0x00\n        /* \"#utility.yul\":3057:3059   */\n      0x40\n        /* \"#utility.yul\":3045:3054   */\n      dup4\n        /* \"#utility.yul\":3036:3043   */\n      dup6\n        /* \"#utility.yul\":3032:3055   */\n      sub\n        /* \"#utility.yul\":3028:3060   */\n      slt\n        /* \"#utility.yul\":3025:3144   */\n      iszero\n      tag_123\n      jumpi\n        /* \"#utility.yul\":3063:3142   */\n      tag_124\n      tag_44\n      jump\t// in\n    tag_124:\n        /* \"#utility.yul\":3025:3144   */\n    tag_123:\n        /* \"#utility.yul\":3211:3212   */\n      0x00\n        /* \"#utility.yul\":3200:3209   */\n      dup4\n        /* \"#utility.yul\":3196:3213   */\n      add\n        /* \"#utility.yul\":3183:3214   */\n      calldataload\n        /* \"#utility.yul\":3241:3259   */\n      0xffffffffffffffff\n        /* \"#utility.yul\":3233:3239   */\n      dup2\n        /* \"#utility.yul\":3230:3260   */\n      gt\n        /* \"#utility.yul\":3227:3344   */\n      iszero\n      tag_125\n      jumpi\n        /* \"#utility.yul\":3263:3342   */\n      tag_126\n      tag_45\n      jump\t// in\n    tag_126:\n        /* \"#utility.yul\":3227:3344   */\n    tag_125:\n        /* \"#utility.yul\":3368:3431   */\n      tag_127\n        /* \"#utility.yul\":3423:3430   */\n      dup6\n        /* \"#utility.yul\":3414:3420   */\n      dup3\n        /* \"#utility.yul\":3403:3412   */\n      dup7\n        /* \"#utility.yul\":3399:3421   */\n      add\n        /* \"#utility.yul\":3368:3431   */\n      tag_55\n      jump\t// in\n    tag_127:\n        /* \"#utility.yul\":3358:3431   */\n      swap3\n      pop\n        /* \"#utility.yul\":3154:3441   */\n      pop\n        /* \"#utility.yul\":3480:3482   */\n      0x20\n        /* \"#utility.yul\":3506:3558   */\n      tag_128\n        /* \"#utility.yul\":3550:3557   */\n      dup6\n        /* \"#utility.yul\":3541:3547   */\n      dup3\n        /* \"#utility.yul\":3530:3539   */\n      dup7\n        /* \"#utility.yul\":3526:3548   */\n      add\n        /* \"#utility.yul\":3506:3558   */\n      tag_58\n      jump\t// in\n    tag_128:\n        /* \"#utility.yul\":3496:3558   */\n      swap2\n      pop\n        /* \"#utility.yul\":3451:3568   */\n      pop\n        /* \"#utility.yul\":2923:3575   */\n      swap3\n      pop\n      swap3\n      swap1\n      pop\n      jump\t// out\n        /* \"#utility.yul\":3581:3707   */\n    tag_59:\n        /* \"#utility.yul\":3618:3625   */\n      0x00\n        /* \"#utility.yul\":3658:3700   */\n      0xffffffffffffffffffffffffffffffffffffffff\n        /* \"#utility.yul\":3651:3656   */\n      dup3\n        /* \"#utility.yul\":3647:3701   */\n      and\n        /* \"#utility.yul\":3636:3701   */\n      swap1\n      pop\n        /* \"#utility.yul\":3581:3707   */\n      swap2\n      swap1\n      pop\n      jump\t// out\n        /* \"#utility.yul\":3713:3809   */\n    tag_60:\n        /* \"#utility.yul\":3750:3757   */\n      0x00\n        /* \"#utility.yul\":3779:3803   */\n      tag_131\n        /* \"#utility.yul\":3797:3802   */\n      dup3\n        /* \"#utility.yul\":3779:3803   */\n      tag_59\n      jump\t// in\n    tag_131:\n        /* \"#utility.yul\":3768:3803   */\n      swap1\n      pop\n        /* \"#utility.yul\":3713:3809   */\n      swap2\n      swap1\n      pop\n      jump\t// out\n        /* \"#utility.yul\":3815:3937   */\n    tag_61:\n        /* \"#utility.yul\":3888:3912   */\n      tag_133\n        /* \"#utility.yul\":3906:3911   */\n      dup2\n        /* \"#utility.yul\":3888:3912   */\n      tag_60\n      jump\t// in\n    tag_133:\n        /* \"#utility.yul\":3881:3886   */\n      dup2\n        /* \"#utility.yul\":3878:3913   */\n      eq\n        /* \"#utility.yul\":3868:3931   */\n      tag_134\n      jumpi\n        /* \"#utility.yul\":3927:3928   */\n      0x00\n        /* \"#utility.yul\":3924:3925   */\n      0x00\n        /* \"#utility.yul\":3917:3929   */\n      revert\n        /* \"#utility.yul\":3868:3931   */\n    tag_134:\n        /* \"#utility.yul\":3815:3937   */\n      pop\n      jump\t// out\n        /* \"#utility.yul\":3943:4082   */\n    tag_62:\n        /* \"#utility.yul\":3989:3994   */\n      0x00\n        /* \"#utility.yul\":4027:4033   */\n      dup2\n        /* \"#utility.yul\":4014:4034   */\n      calldataload\n        /* \"#utility.yul\":4005:4034   */\n      swap1\n      pop\n        /* \"#utility.yul\":4043:4076   */\n      tag_136\n        /* \"#utility.yul\":4070:4075   */\n      dup2\n        /* \"#utility.yul\":4043:4076   */\n      tag_61\n      jump\t// in\n    tag_136:\n        /* \"#utility.yul\":3943:4082   */\n      swap3\n      swap2\n      pop\n      pop\n      jump\t// out\n        /* \"#utility.yul\":4088:4417   */\n    tag_13:\n        /* \"#utility.yul\":4147:4153   */\n      0x00\n        /* \"#utility.yul\":4196:4198   */\n      0x20\n        /* \"#utility.yul\":4184:4193   */\n      dup3\n        /* \"#utility.yul\":4175:4182   */\n      dup5\n        /* \"#utility.yul\":4171:4194   */\n      sub\n        /* \"#utility.yul\":4167:4199   */\n      slt\n        /* \"#utility.yul\":4164:4283   */\n      iszero\n      tag_138\n      jumpi\n        /* \"#utility.yul\":4202:4281   */\n      tag_139\n      tag_44\n      jump\t// in\n    tag_139:\n        /* \"#utility.yul\":4164:4283   */\n    tag_138:\n        /* \"#utility.yul\":4322:4323   */\n      0x00\n        /* \"#utility.yul\":4347:4400   */\n      tag_140\n        /* \"#utility.yul\":4392:4399   */\n      dup5\n        /* \"#utility.yul\":4383:4389   */\n      dup3\n        /* \"#utility.yul\":4372:4381   */\n      dup6\n        /* \"#utility.yul\":4368:4390   */\n      add\n        /* \"#utility.yul\":4347:4400   */\n      tag_62\n      jump\t// in\n    tag_140:\n        /* \"#utility.yul\":4337:4400   */\n      swap2\n      pop\n        /* \"#utility.yul\":4293:4410   */\n      pop\n        /* \"#utility.yul\":4088:4417   */\n      swap3\n      swap2\n      pop\n      pop\n      jump\t// out\n        /* \"#utility.yul\":4423:4522   */\n    tag_63:\n        /* \"#utility.yul\":4475:4481   */\n      0x00\n        /* \"#utility.yul\":4509:4514   */\n      dup2\n        /* \"#utility.yul\":4503:4515   */\n      mload\n        /* \"#utility.yul\":4493:4515   */\n      swap1\n      pop\n        /* \"#utility.yul\":4423:4522   */\n      swap2\n      swap1\n      pop\n      jump\t// out\n        /* \"#utility.yul\":4528:4697   */\n    tag_64:\n        /* \"#utility.yul\":4612:4623   */\n      0x00\n        /* \"#utility.yul\":4646:4652   */\n      dup3\n        /* \"#utility.yul\":4641:4644   */\n      dup3\n        /* \"#utility.yul\":4634:4653   */\n      mstore\n        /* \"#utility.yul\":4686:4690   */\n      0x20\n        /* \"#utility.yul\":4681:4684   */\n      dup3\n        /* \"#utility.yul\":4677:4691   */\n      add\n        /* \"#utility.yul\":4662:4691   */\n      swap1\n      pop\n        /* \"#utility.yul\":4528:4697   */\n      swap3\n      swap2\n      pop\n      pop\n      jump\t// out\n        /* \"#utility.yul\":4703:4842   */\n    tag_65:\n        /* \"#utility.yul\":4792:4798   */\n      dup3\n        /* \"#utility.yul\":4787:4790   */\n      dup2\n        /* \"#utility.yul\":4782:4785   */\n      dup4\n        /* \"#utility.yul\":4776:4799   */\n      mcopy\n        /* \"#utility.yul\":4833:4834   */\n      0x00\n        /* \"#utility.yul\":4824:4830   */\n      dup4\n        /* \"#utility.yul\":4819:4822   */\n      dup4\n        /* \"#utility.yul\":4815:4831   */\n      add\n        /* \"#utility.yul\":4808:4835   */\n      mstore\n        /* \"#utility.yul\":4703:4842   */\n      pop\n      pop\n      pop\n      jump\t// out\n        /* \"#utility.yul\":4848:5225   */\n    tag_66:\n        /* \"#utility.yul\":4936:4939   */\n      0x00\n        /* \"#utility.yul\":4964:5003   */\n      tag_145\n        /* \"#utility.yul\":4997:5002   */\n      dup3\n        /* \"#utility.yul\":4964:5003   */\n      tag_63\n      jump\t// in\n    tag_145:\n        /* \"#utility.yul\":5019:5090   */\n      tag_146\n        /* \"#utility.yul\":5083:5089   */\n      dup2\n        /* \"#utility.yul\":5078:5081   */\n      dup6\n        /* \"#utility.yul\":5019:5090   */\n      tag_64\n      jump\t// in\n    tag_146:\n        /* \"#utility.yul\":5012:5090   */\n      swap4\n      pop\n        /* \"#utility.yul\":5099:5164   */\n      tag_147\n        /* \"#utility.yul\":5157:5163   */\n      dup2\n        /* \"#utility.yul\":5152:5155   */\n      dup6\n        /* \"#utility.yul\":5145:5149   */\n      0x20\n        /* \"#utility.yul\":5138:5143   */\n      dup7\n        /* \"#utility.yul\":5134:5150   */\n      add\n        /* \"#utility.yul\":5099:5164   */\n      tag_65\n      jump\t// in\n    tag_147:\n        /* \"#utility.yul\":5189:5218   */\n      tag_148\n        /* \"#utility.yul\":5211:5217   */\n      dup2\n        /* \"#utility.yul\":5189:5218   */\n      tag_48\n      jump\t// in\n    tag_148:\n        /* \"#utility.yul\":5184:5187   */\n      dup5\n        /* \"#utility.yul\":5180:5219   */\n      add\n        /* \"#utility.yul\":5173:5219   */\n      swap2\n      pop\n        /* \"#utility.yul\":4940:5225   */\n      pop\n        /* \"#utility.yul\":4848:5225   */\n      swap3\n      swap2\n      pop\n      pop\n      jump\t// out\n        /* \"#utility.yul\":5231:5346   */\n    tag_67:\n        /* \"#utility.yul\":5316:5339   */\n      tag_150\n        /* \"#utility.yul\":5333:5338   */\n      dup2\n        /* \"#utility.yul\":5316:5339   */\n      tag_56\n      jump\t// in\n    tag_150:\n        /* \"#utility.yul\":5311:5314   */\n      dup3\n        /* \"#utility.yul\":5304:5340   */\n      mstore\n        /* \"#utility.yul\":5231:5346   */\n      pop\n      pop\n      jump\t// out\n        /* \"#utility.yul\":5352:5470   */\n    tag_68:\n        /* \"#utility.yul\":5439:5463   */\n      tag_152\n        /* \"#utility.yul\":5457:5462   */\n      dup2\n        /* \"#utility.yul\":5439:5463   */\n      tag_60\n      jump\t// in\n    tag_152:\n        /* \"#utility.yul\":5434:5437   */\n      dup3\n        /* \"#utility.yul\":5427:5464   */\n      mstore\n        /* \"#utility.yul\":5352:5470   */\n      pop\n      pop\n      jump\t// out\n        /* \"#utility.yul\":5476:6005   */\n    tag_16:\n        /* \"#utility.yul\":5643:5647   */\n      0x00\n        /* \"#utility.yul\":5681:5683   */\n      0x60\n        /* \"#utility.yul\":5670:5679   */\n      dup3\n        /* \"#utility.yul\":5666:5684   */\n      add\n        /* \"#utility.yul\":5658:5684   */\n      swap1\n      pop\n        /* \"#utility.yul\":5730:5739   */\n      dup2\n        /* \"#utility.yul\":5724:5728   */\n      dup2\n        /* \"#utility.yul\":5720:5740   */\n      sub\n        /* \"#utility.yul\":5716:5717   */\n      0x00\n        /* \"#utility.yul\":5705:5714   */\n      dup4\n        /* \"#utility.yul\":5701:5718   */\n      add\n        /* \"#utility.yul\":5694:5741   */\n      mstore\n        /* \"#utility.yul\":5758:5836   */\n      tag_154\n        /* \"#utility.yul\":5831:5835   */\n      dup2\n        /* \"#utility.yul\":5822:5828   */\n      dup7\n        /* \"#utility.yul\":5758:5836   */\n      tag_66\n      jump\t// in\n    tag_154:\n        /* \"#utility.yul\":5750:5836   */\n      swap1\n      pop\n        /* \"#utility.yul\":5846:5916   */\n      tag_155\n        /* \"#utility.yul\":5912:5914   */\n      0x20\n        /* \"#utility.yul\":5901:5910   */\n      dup4\n        /* \"#utility.yul\":5897:5915   */\n      add\n        /* \"#utility.yul\":5888:5894   */\n      dup6\n        /* \"#utility.yul\":5846:5916   */\n      tag_67\n      jump\t// in\n    tag_155:\n        /* \"#utility.yul\":5926:5998   */\n      tag_156\n        /* \"#utility.yul\":5994:5996   */\n      0x40\n        /* \"#utility.yul\":5983:5992   */\n      dup4\n        /* \"#utility.yul\":5979:5997   */\n      add\n        /* \"#utility.yul\":5970:5976   */\n      dup5\n        /* \"#utility.yul\":5926:5998   */\n      tag_68\n      jump\t// in\n    tag_156:\n        /* \"#utility.yul\":5476:6005   */\n      swap5\n      swap4\n      pop\n      pop\n      pop\n      pop\n      jump\t// out\n        /* \"#utility.yul\":6011:6191   */\n    tag_69:\n        /* \"#utility.yul\":6059:6136   */\n      0x4e487b7100000000000000000000000000000000000000000000000000000000\n        /* \"#utility.yul\":6056:6057   */\n      0x00\n        /* \"#utility.yul\":6049:6137   */\n      mstore\n        /* \"#utility.yul\":6156:6160   */\n      0x22\n        /* \"#utility.yul\":6153:6154   */\n      0x04\n        /* \"#utility.yul\":6146:6161   */\n      mstore\n        /* \"#utility.yul\":6180:6184   */\n      0x24\n        /* \"#utility.yul\":6177:6178   */\n      0x00\n        /* \"#utility.yul\":6170:6185   */\n      revert\n        /* \"#utility.yul\":6197:6517   */\n    tag_27:\n        /* \"#utility.yul\":6241:6247   */\n      0x00\n        /* \"#utility.yul\":6278:6279   */\n      0x02\n        /* \"#utility.yul\":6272:6276   */\n      dup3\n        /* \"#utility.yul\":6268:6280   */\n      div\n        /* \"#utility.yul\":6258:6280   */\n      swap1\n      pop\n        /* \"#utility.yul\":6325:6326   */\n      0x01\n        /* \"#utility.yul\":6319:6323   */\n      dup3\n        /* \"#utility.yul\":6315:6327   */\n      and\n        /* \"#utility.yul\":6346:6364   */\n      dup1\n        /* \"#utility.yul\":6336:6417   */\n      tag_159\n      jumpi\n        /* \"#utility.yul\":6402:6406   */\n      0x7f\n        /* \"#utility.yul\":6394:6400   */\n      dup3\n        /* \"#utility.yul\":6390:6407   */\n      and\n        /* \"#utility.yul\":6380:6407   */\n      swap2\n      pop\n        /* \"#utility.yul\":6336:6417   */\n    tag_159:\n        /* \"#utility.yul\":6464:6466   */\n      0x20\n        /* \"#utility.yul\":6456:6462   */\n      dup3\n        /* \"#utility.yul\":6453:6467   */\n      lt\n        /* \"#utility.yul\":6433:6451   */\n      dup2\n        /* \"#utility.yul\":6430:6468   */\n      sub\n        /* \"#utility.yul\":6427:6511   */\n      tag_160\n      jumpi\n        /* \"#utility.yul\":6483:6501   */\n      tag_161\n      tag_69\n      jump\t// in\n    tag_161:\n        /* \"#utility.yul\":6427:6511   */\n    tag_160:\n        /* \"#utility.yul\":6248:6517   */\n      pop\n        /* \"#utility.yul\":6197:6517   */\n      swap2\n      swap1\n      pop\n      jump\t// out\n        /* \"#utility.yul\":6523:6664   */\n    tag_70:\n        /* \"#utility.yul\":6572:6576   */\n      0x00\n        /* \"#utility.yul\":6595:6598   */\n      dup2\n        /* \"#utility.yul\":6587:6598   */\n      swap1\n      pop\n        /* \"#utility.yul\":6618:6621   */\n      dup2\n        /* \"#utility.yul\":6615:6616   */\n      0x00\n        /* \"#utility.yul\":6608:6622   */\n      mstore\n        /* \"#utility.yul\":6652:6656   */\n      0x20\n        /* \"#utility.yul\":6649:6650   */\n      0x00\n        /* \"#utility.yul\":6639:6657   */\n      keccak256\n        /* \"#utility.yul\":6631:6657   */\n      swap1\n      pop\n        /* \"#utility.yul\":6523:6664   */\n      swap2\n      swap1\n      pop\n      jump\t// out\n        /* \"#utility.yul\":6670:6763   */\n    tag_71:\n        /* \"#utility.yul\":6707:6713   */\n      0x00\n        /* \"#utility.yul\":6754:6756   */\n      0x20\n        /* \"#utility.yul\":6749:6751   */\n      0x1f\n        /* \"#utility.yul\":6742:6747   */\n      dup4\n        /* \"#utility.yul\":6738:6752   */\n      add\n        /* \"#utility.yul\":6734:6757   */\n      div\n        /* \"#utility.yul\":6724:6757   */\n      swap1\n      pop\n        /* \"#utility.yul\":6670:6763   */\n      swap2\n      swap1\n      pop\n      jump\t// out\n        /* \"#utility.yul\":6769:6876   */\n    tag_72:\n        /* \"#utility.yul\":6813:6821   */\n      0x00\n        /* \"#utility.yul\":6863:6868   */\n      dup3\n        /* \"#utility.yul\":6857:6861   */\n      dup3\n        /* \"#utility.yul\":6853:6869   */\n      shl\n        /* \"#utility.yul\":6832:6869   */\n      swap1\n      pop\n        /* \"#utility.yul\":6769:6876   */\n      swap3\n      swap2\n      pop\n      pop\n      jump\t// out\n        /* \"#utility.yul\":6882:7275   */\n    tag_73:\n        /* \"#utility.yul\":6951:6957   */\n      0x00\n        /* \"#utility.yul\":7001:7002   */\n      0x08\n        /* \"#utility.yul\":6989:6999   */\n      dup4\n        /* \"#utility.yul\":6985:7003   */\n      mul\n        /* \"#utility.yul\":7024:7121   */\n      tag_166\n        /* \"#utility.yul\":7054:7120   */\n      0xffffffffffffffffffffffffffffffffffffffffffffffffffffffffffffffff\n        /* \"#utility.yul\":7043:7052   */\n      dup3\n        /* \"#utility.yul\":7024:7121   */\n      tag_72\n      jump\t// in\n    tag_166:\n        /* \"#utility.yul\":7142:7181   */\n      tag_167\n        /* \"#utility.yul\":7172:7180   */\n      dup7\n        /* \"#utility.yul\":7161:7170   */\n      dup4\n        /* \"#utility.yul\":7142:7181   */\n      tag_72\n      jump\t// in\n    tag_167:\n        /* \"#utility.yul\":7130:7181   */\n      swap6\n      pop\n        /* \"#utility.yul\":7214:7218   */\n      dup1\n        /* \"#utility.yul\":7210:7219   */\n      not\n        /* \"#utility.yul\":7203:7208   */\n      dup5\n        /* \"#utility.yul\":7199:7220   */\n      and\n        /* \"#utility.yul\":7190:7220   */\n      swap4\n      pop\n        /* \"#utility.yul\":7263:7267   */\n      dup1\n        /* \"#utility.yul\":7253:7261   */\n      dup7\n        /* \"#utility.yul\":7249:7268   */\n      and\n        /* \"#utility.yul\":7242:7247   */\n      dup5\n        /* \"#utility.yul\":7239:7269   */\n      or\n        /* \"#utility.yul\":7229:7269   */\n      swap3\n      pop\n        /* \"#utility.yul\":6958:7275   */\n      pop\n      pop\n        /* \"#utility.yul\":6882:7275   */\n      swap4\n      swap3\n      pop\n      pop\n      pop\n      jump\t// out\n        /* \"#utility.yul\":7281:7358   */\n    tag_74:\n        /* \"#utility.yul\":7318:7325   */\n      0x00\n        /* \"#utility.yul\":7347:7352   */\n      dup2\n        /* \"#utility.yul\":7336:7352   */\n      swap1\n      pop\n        /* \"#utility.yul\":7281:7358   */\n      swap2\n      swap1\n      pop\n      jump\t// out\n        /* \"#utility.yul\":7364:7424   */\n    tag_75:\n        /* \"#utility.yul\":7392:7395   */\n      0x00\n        /* \"#utility.yul\":7413:7418   */\n      dup2\n        /* \"#utility.yul\":7406:7418   */\n      swap1\n      pop\n        /* \"#utility.yul\":7364:7424   */\n      swap2\n      swap1\n      pop\n      jump\t// out\n        /* \"#utility.yul\":7430:7572   */\n    tag_76:\n        /* \"#utility.yul\":7480:7489   */\n      0x00\n        /* \"#utility.yul\":7513:7566   */\n      tag_171\n        /* \"#utility.yul\":7531:7565   */\n      tag_172\n        /* \"#utility.yul\":7540:7564   */\n      tag_173\n        /* \"#utility.yul\":7558:7563   */\n      dup5\n        /* \"#utility.yul\":7540:7564   */\n      tag_74\n      jump\t// in\n    tag_173:\n        /* \"#utility.yul\":7531:7565   */\n      tag_75\n      jump\t// in\n    tag_172:\n        /* \"#utility.yul\":7513:7566   */\n      tag_74\n      jump\t// in\n    tag_171:\n        /* \"#utility.yul\":7500:7566   */\n      swap1\n      pop\n        /* \"#utility.yul\":7430:7572   */\n      swap2\n      swap1\n      pop\n      jump\t// out\n        /* \"#utility.yul\":7578:7653   */\n    tag_77:\n        /* \"#utility.yul\":7621:7624   */\n      0x00\n        /* \"#utility.yul\":7642:7647   */\n      dup2\n        /* \"#utility.yul\":7635:7647   */\n      swap1\n      pop\n        /* \"#utility.yul\":7578:7653   */\n      swap2\n      swap1\n      pop\n      jump\t// out\n        /* \"#utility.yul\":7659:7928   */\n    tag_78:\n        /* \"#utility.yul\":7769:7808   */\n      tag_176\n        /* \"#utility.yul\":7800:7807   */\n      dup4\n        /* \"#utility.yul\":7769:7808   */\n      tag_76\n      jump\t// in\n    tag_176:\n        /* \"#utility.yul\":7830:7921   */\n      tag_177\n        /* \"#utility.yul\":7879:7920   */\n      tag_178\n        /* \"#utility.yul\":7903:7919   */\n      dup3\n        /* \"#utility.yul\":7879:7920   */\n      tag_77\n      jump\t// in\n    tag_178:\n        /* \"#utility.yul\":7871:7877   */\n      dup5\n        /* \"#utility.yul\":7864:7868   */\n      dup5\n        /* \"#utility.yul\":7858:7869   */\n      sload\n        /* \"#utility.yul\":7830:7921   */\n      tag_73\n      jump\t// in\n    tag_177:\n        /* \"#utility.yul\":7824:7828   */\n      dup3\n        /* \"#utility.yul\":7817:7922   */\n      sstore\n        /* \"#utility.yul\":7735:7928   */\n      pop\n        /* \"#utility.yul\":7659:7928   */\n      pop\n      pop\n      pop\n      jump\t// out\n        /* \"#utility.yul\":7934:8007   */\n    tag_79:\n        /* \"#utility.yul\":7979:7982   */\n      0x00\n        /* \"#utility.yul\":8000:8001   */\n      0x00\n        /* \"#utility.yul\":7993:8001   */\n      swap1\n      pop\n        /* \"#utility.yul\":7934:8007   */\n      swap1\n      jump\t// out\n        /* \"#utility.yul\":8013:8202   */\n    tag_80:\n        /* \"#utility.yul\":8090:8122   */\n      tag_181\n      tag_79\n      jump\t// in\n    tag_181:\n        /* \"#utility.yul\":8131:8196   */\n      tag_182\n        /* \"#utility.yul\":8189:8195   */\n      dup2\n        /* \"#utility.yul\":8181:8187   */\n      dup5\n        /* \"#utility.yul\":8175:8179   */\n      dup5\n        /* \"#utility.yul\":8131:8196   */\n      tag_78\n      jump\t// in\n    tag_182:\n        /* \"#utility.yul\":8066:8202   */\n      pop\n        /* \"#utility.yul\":8013:8202   */\n      pop\n      pop\n      jump\t// out\n        /* \"#utility.yul\":8208:8394   */\n    tag_81:\n        /* \"#utility.yul\":8268:8388   */\n    tag_184:\n        /* \"#utility.yul\":8285:8288   */\n      dup2\n        /* \"#utility.yul\":8278:8283   */\n      dup2\n        /* \"#utility.yul\":8275:8289   */\n      lt\n        /* \"#utility.yul\":8268:8388   */\n      iszero\n      tag_186\n      jumpi\n        /* \"#utility.yul\":8339:8378   */\n      tag_187\n        /* \"#utility.yul\":8376:8377   */\n      0x00\n        /* \"#utility.yul\":8369:8374   */\n      dup3\n        /* \"#utility.yul\":8339:8378   */\n      tag_80\n      jump\t// in\n    tag_187:\n        /* \"#utility.yul\":8312:8313   */\n      0x01\n        /* \"#utility.yul\":8305:8310   */\n      dup2\n        /* \"#utility.yul\":8301:8314   */\n      add\n        /* \"#utility.yul\":8292:8314   */\n      swap1\n      pop\n        /* \"#utility.yul\":8268:8388   */\n      jump(tag_184)\n    tag_186:\n        /* \"#utility.yul\":8208:8394   */\n      pop\n      pop\n      jump\t// out\n        /* \"#utility.yul\":8400:8943   */\n    tag_82:\n        /* \"#utility.yul\":8501:8503   */\n      0x1f\n        /* \"#utility.yul\":8496:8499   */\n      dup3\n        /* \"#utility.yul\":8493:8504   */\n      gt\n        /* \"#utility.yul\":8490:8936   */\n      iszero\n      tag_189\n      jumpi\n        /* \"#utility.yul\":8535:8573   */\n      tag_190\n        /* \"#utility.yul\":8567:8572   */\n      dup2\n        /* \"#utility.yul\":8535:8573   */\n      tag_70\n      jump\t// in\n    tag_190:\n        /* \"#utility.yul\":8619:8648   */\n      tag_191\n        /* \"#utility.yul\":8637:8647   */\n      dup5\n        /* \"#utility.yul\":8619:8648   */\n      tag_71\n      jump\t// in\n    tag_191:\n        /* \"#utility.yul\":8609:8617   */\n      dup2\n        /* \"#utility.yul\":8605:8649   */\n      add\n        /* \"#utility.yul\":8802:8804   */\n      0x20\n        /* \"#utility.yul\":8790:8800   */\n      dup6\n        /* \"#utility.yul\":8787:8805   */\n      lt\n        /* \"#utility.yul\":8784:8833   */\n      iszero\n      tag_192\n      jumpi\n        /* \"#utility.yul\":8823:8831   */\n      dup2\n        /* \"#utility.yul\":8808:8831   */\n      swap1\n      pop\n        /* \"#utility.yul\":8784:8833   */\n    tag_192:\n        /* \"#utility.yul\":8846:8926   */\n      tag_193\n        /* \"#utility.yul\":8902:8924   */\n      tag_194\n        /* \"#utility.yul\":8920:8923   */\n      dup6\n        /* \"#utility.yul\":8902:8924   */\n      tag_71\n      jump\t// in\n    tag_194:\n        /* \"#utility.yul\":8892:8900   */\n      dup4\n        /* \"#utility.yul\":8888:8925   */\n      add\n        /* \"#utility.yul\":8875:8886   */\n      dup3\n        /* \"#utility.yul\":8846:8926   */\n      tag_81\n      jump\t// in\n    tag_193:\n        /* \"#utility.yul\":8505:8936   */\n      pop\n      pop\n        /* \"#utility.yul\":8490:8936   */\n    tag_189:\n        /* \"#utility.yul\":8400:8943   */\n      pop\n      pop\n      pop\n      jump\t// out\n        /* \"#utility.yul\":8949:9066   */\n    tag_83:\n        /* \"#utility.yul\":9003:9011   */\n      0x00\n        /* \"#utility.yul\":9053:9058   */\n      dup3\n        /* \"#utility.yul\":9047:9051   */\n      dup3\n        /* \"#utility.yul\":9043:9059   */\n      shr\n        /* \"#utility.yul\":9022:9059   */\n      swap1\n      pop\n        /* \"#utility.yul\":8949:9066   */\n      swap3\n      swap2\n      pop\n      pop\n      jump\t// out\n        /* \"#utility.yul\":9072:9241   */\n    tag_84:\n        /* \"#utility.yul\":9116:9122   */\n      0x00\n        /* \"#utility.yul\":9149:9200   */\n      tag_197\n        /* \"#utility.yul\":9197:9198   */\n      0x00\n        /* \"#utility.yul\":9193:9199   */\n      not\n        /* \"#utility.yul\":9185:9190   */\n      dup5\n        /* \"#utility.yul\":9182:9183   */\n      0x08\n        /* \"#utility.yul\":9178:9191   */\n      mul\n        /* \"#utility.yul\":9149:9200   */\n      tag_83\n      jump\t// in\n    tag_197:\n        /* \"#utility.yul\":9145:9201   */\n      not\n        /* \"#utility.yul\":9230:9234   */\n      dup1\n        /* \"#utility.yul\":9224:9228   */\n      dup4\n        /* \"#utility.yul\":9220:9235   */\n      and\n        /* \"#utility.yul\":9210:9235   */\n      swap2\n      pop\n        /* \"#utility.yul\":9123:9241   */\n      pop\n        /* \"#utility.yul\":9072:9241   */\n      swap3\n      swap2\n      pop\n      pop\n      jump\t// out\n        /* \"#utility.yul\":9246:9541   */\n    tag_85:\n        /* \"#utility.yul\":9322:9326   */\n      0x00\n        /* \"#utility.yul\":9468:9497   */\n      tag_199\n        /* \"#utility.yul\":9493:9496   */\n      dup4\n        /* \"#utility.yul\":9487:9491   */\n      dup4\n        /* \"#utility.yul\":9468:9497   */\n      tag_84\n      jump\t// in\n    tag_199:\n        /* \"#utility.yul\":9460:9497   */\n      swap2\n      pop\n        /* \"#utility.yul\":9530:9533   */\n      dup3\n        /* \"#utility.yul\":9527:9528   */\n      0x02\n        /* \"#utility.yul\":9523:9534   */\n      mul\n        /* \"#utility.yul\":9517:9521   */\n      dup3\n        /* \"#utility.yul\":9514:9535   */\n      or\n        /* \"#utility.yul\":9506:9535   */\n      swap1\n      pop\n        /* \"#utility.yul\":9246:9541   */\n      swap3\n      swap2\n      pop\n      pop\n      jump\t// out\n        /* \"#utility.yul\":9546:10941   */\n    tag_25:\n        /* \"#utility.yul\":9663:9700   */\n      tag_201\n        /* \"#utility.yul\":9696:9699   */\n      dup3\n        /* \"#utility.yul\":9663:9700   */\n      tag_63\n      jump\t// in\n    tag_201:\n        /* \"#utility.yul\":9765:9783   */\n      0xffffffffffffffff\n        /* \"#utility.yul\":9757:9763   */\n      dup2\n        /* \"#utility.yul\":9754:9784   */\n      gt\n        /* \"#utility.yul\":9751:9807   */\n      iszero\n      tag_202\n      jumpi\n        /* \"#utility.yul\":9787:9805   */\n      tag_203\n      tag_49\n      jump\t// in\n    tag_203:\n        /* \"#utility.yul\":9751:9807   */\n    tag_202:\n        /* \"#utility.yul\":9831:9869   */\n      tag_204\n        /* \"#utility.yul\":9863:9867   */\n      dup3\n        /* \"#utility.yul\":9857:9868   */\n      sload\n        /* \"#utility.yul\":9831:9869   */\n      tag_27\n      jump\t// in\n    tag_204:\n        /* \"#utility.yul\":9916:9983   */\n      tag_205\n        /* \"#utility.yul\":9976:9982   */\n      dup3\n        /* \"#utility.yul\":9968:9974   */\n      dup3\n        /* \"#utility.yul\":9962:9966   */\n      dup6\n        /* \"#utility.yul\":9916:9983   */\n      tag_82\n      jump\t// in\n    tag_205:\n        /* \"#utility.yul\":10010:10011   */\n      0x00\n        /* \"#utility.yul\":10034:10038   */\n      0x20\n        /* \"#utility.yul\":10021:10038   */\n      swap1\n      pop\n        /* \"#utility.yul\":10066:10068   */\n      0x1f\n        /* \"#utility.yul\":10058:10064   */\n      dup4\n        /* \"#utility.yul\":10055:10069   */\n      gt\n        /* \"#utility.yul\":10083:10084   */\n      0x01\n        /* \"#utility.yul\":10078:10696   */\n      dup2\n      eq\n      tag_207\n      jumpi\n        /* \"#utility.yul\":10740:10741   */\n      0x00\n        /* \"#utility.yul\":10757:10763   */\n      dup5\n        /* \"#utility.yul\":10754:10831   */\n      iszero\n      tag_208\n      jumpi\n        /* \"#utility.yul\":10806:10815   */\n      dup3\n        /* \"#utility.yul\":10801:10804   */\n      dup8\n        /* \"#utility.yul\":10797:10816   */\n      add\n        /* \"#utility.yul\":10791:10817   */\n      mload\n        /* \"#utility.yul\":10782:10817   */\n      swap1\n      pop\n        /* \"#utility.yul\":10754:10831   */\n    tag_208:\n        /* \"#utility.yul\":10857:10924   */\n      tag_209\n        /* \"#utility.yul\":10917:10923   */\n      dup6\n        /* \"#utility.yul\":10910:10915   */\n      dup3\n        /* \"#utility.yul\":10857:10924   */\n      tag_85\n      jump\t// in\n    tag_209:\n        /* \"#utility.yul\":10851:10855   */\n      dup7\n        /* \"#utility.yul\":10844:10925   */\n      sstore\n        /* \"#utility.yul\":10713:10935   */\n      pop\n        /* \"#utility.yul\":10048:10935   */\n      jump(tag_206)\n        /* \"#utility.yul\":10078:10696   */\n    tag_207:\n        /* \"#utility.yul\":10130:10134   */\n      0x1f\n        /* \"#utility.yul\":10126:10135   */\n      not\n        /* \"#utility.yul\":10118:10124   */\n      dup5\n        /* \"#utility.yul\":10114:10136   */\n      and\n        /* \"#utility.yul\":10164:10201   */\n      tag_210\n        /* \"#utility.yul\":10196:10200   */\n      dup7\n        /* \"#utility.yul\":10164:10201   */\n      tag_70\n      jump\t// in\n    tag_210:\n        /* \"#utility.yul\":10223:10224   */\n      0x00\n        /* \"#utility.yul\":10237:10445   */\n    tag_211:\n        /* \"#utility.yul\":10251:10258   */\n      dup3\n        /* \"#utility.yul\":10248:10249   */\n      dup2\n        /* \"#utility.yul\":10245:10259   */\n      lt\n        /* \"#utility.yul\":10237:10445   */\n      iszero\n      tag_213\n      jumpi\n        /* \"#utility.yul\":10330:10339   */\n      dup5\n        /* \"#utility.yul\":10325:10328   */\n      dup10\n        /* \"#utility.yul\":10321:10340   */\n      add\n        /* \"#utility.yul\":10315:10341   */\n      mload\n        /* \"#utility.yul\":10307:10313   */\n      dup3\n        /* \"#utility.yul\":10300:10342   */\n      sstore\n        /* \"#utility.yul\":10381:10382   */\n      0x01\n        /* \"#utility.yul\":10373:10379   */\n      dup3\n        /* \"#utility.yul\":10369:10383   */\n      add\n        /* \"#utility.yul\":10359:10383   */\n      swap2\n      pop\n        /* \"#utility.yul\":10428:10430   */\n      0x20\n        /* \"#utility.yul\":10417:10426   */\n      dup6\n        /* \"#utility.yul\":10413:10431   */\n      add\n        /* \"#utility.yul\":10400:10431   */\n      swap5\n      pop\n        /* \"#utility.yul\":10274:10278   */\n      0x20\n        /* \"#utility.yul\":10271:10272   */\n      dup2\n        /* \"#utility.yul\":10267:10279   */\n      add\n        /* \"#utility.yul\":10262:10279   */\n      swap1\n      pop\n        /* \"#utility.yul\":10237:10445   */\n      jump(tag_211)\n    tag_213:\n        /* \"#utility.yul\":10473:10479   */\n      dup7\n        /* \"#utility.yul\":10464:10471   */\n      dup4\n        /* \"#utility.yul\":10461:10480   */\n      lt\n        /* \"#utility.yul\":10458:10637   */\n      iszero\n      tag_214\n      jumpi\n        /* \"#utility.yul\":10531:10540   */\n      dup5\n        /* \"#utility.yul\":10526:10529   */\n      dup10\n        /* \"#utility.yul\":10522:10541   */\n      add\n        /* \"#utility.yul\":10516:10542   */\n      mload\n        /* \"#utility.yul\":10574:10622   */\n      tag_215\n        /* \"#utility.yul\":10616:10620   */\n      0x1f\n        /* \"#utility.yul\":10608:10614   */\n      dup10\n        /* \"#utility.yul\":10604:10621   */\n      and\n        /* \"#utility.yul\":10593:10602   */\n      dup3\n        /* \"#utility.yul\":10574:10622   */\n      tag_84\n      jump\t// in\n    tag_215:\n        /* \"#utility.yul\":10566:10572   */\n      dup4\n        /* \"#utility.yul\":10559:10623   */\n      sstore\n        /* \"#utility.yul\":10481:10637   */\n      pop\n        /* \"#utility.yul\":10458:10637   */\n    tag_214:\n        /* \"#utility.yul\":10683:10684   */\n      0x01\n        /* \"#utility.yul\":10679:10680   */\n      0x02\n        /* \"#utility.yul\":10671:10677   */\n      dup9\n        /* \"#utility.yul\":10667:10681   */\n      mul\n        /* \"#utility.yul\":10663:10685   */\n      add\n        /* \"#utility.yul\":10657:10661   */\n      dup9\n        /* \"#utility.yul\":10650:10686   */\n      sstore\n        /* \"#utility.yul\":10085:10696   */\n      pop\n      pop\n      pop\n        /* \"#utility.yul\":10048:10935   */\n    tag_206:\n      pop\n        /* \"#utility.yul\":9638:10941   */\n      pop\n      pop\n      pop\n        /* \"#utility.yul\":9546:10941   */\n      pop\n      pop\n      jump\t// out\n\n    auxdata: 0xa2646970667358221220777f7ff38e0c883826afdbbc943f99d1ec27ad88d825a9a92069951f498a433764736f6c634300081d0033\n}\n",
				"bytecode": {
					"linkReferences": {},
					"object": "6080604052348015600e575f5ffd5b506109fb8061001c5f395ff3fe608060405234801561000f575f5ffd5b506004361061004a575f3560e01c80632748663e1461004e578063a1f94f541461006a578063c2a2747b1461009c578063d781a3a5146100bc575b5f5ffd5b61006860048036038101906100639190610557565b6100dc565b005b610084600480360381019061007f919061060b565b610156565b604051610093939291906106b4565b60405180910390f35b6100a4610231565b6040516100b3939291906106b4565b60405180910390f35b6100c46102fc565b6040516100d3939291906106b4565b60405180910390f35b815f5f0190816100ec91906108f6565b50805f6001015f6101000a81548163ffffffff021916908363ffffffff160217905550335f60010160046101000a81548173ffffffffffffffffffffffffffffffffffffffff021916908373ffffffffffffffffffffffffffffffffffffffff1602179055505050565b6002602052805f5260405f205f91509050805f0180546101759061071d565b80601f01602080910402602001604051908101604052809291908181526020018280546101a19061071d565b80156101ec5780601f106101c3576101008083540402835291602001916101ec565b820191905f5260205f20905b8154815290600101906020018083116101cf57829003601f168201915b505050505090806001015f9054906101000a900463ffffffff16908060010160049054906101000a900473ffffffffffffffffffffffffffffffffffffffff16905083565b5f805f0180546102409061071d565b80601f016020809104026020016040519081016040528092919081815260200182805461026c9061071d565b80156102b75780601f1061028e576101008083540402835291602001916102b7565b820191905f5260205f20905b81548152906001019060200180831161029a57829003601f168201915b505050505090806001015f9054906101000a900463ffffffff16908060010160049054906101000a900473ffffffffffffffffffffffffffffffffffffffff16905083565b60605f5f5f5f015f6001015f9054906101000a900463ffffffff165f60010160049054906101000a900473ffffffffffffffffffffffffffffffffffffffff168280546103489061071d565b80601f01602080910402602001604051908101604052809291908181526020018280546103749061071d565b80156103bf5780601f10610396576101008083540402835291602001916103bf565b820191905f5260205f20905b8154815290600101906020018083116103a257829003601f168201915b50505050509250925092509250909192565b5f604051905090565b5f5ffd5b5f5ffd5b5f5ffd5b5f5ffd5b5f601f19601f8301169050919050565b7f4e487b71000000000000000000000000000000000000000000000000000000005f52604160045260245ffd5b610430826103ea565b810181811067ffffffffffffffff8211171561044f5761044e6103fa565b5b80604052505050565b5f6104616103d1565b905061046d8282610427565b919050565b5f67ffffffffffffffff82111561048c5761048b6103fa565b5b610495826103ea565b9050602081019050919050565b828183375f83830152505050565b5f6104c26104bd84610472565b610458565b9050828152602081018484840111156104de576104dd6103e6565b5b6104e98482856104a2565b509392505050565b5f82601f830112610505576105046103e2565b5b81356105158482602086016104b0565b91505092915050565b5f63ffffffff82169050919050565b6105368161051e565b8114610540575f5ffd5b50565b5f813590506105518161052d565b92915050565b5f5f6040838503121561056d5761056c6103da565b5b5f83013567ffffffffffffffff81111561058a576105896103de565b5b610596858286016104f1565b92505060206105a785828601610543565b9150509250929050565b5f73ffffffffffffffffffffffffffffffffffffffff82169050919050565b5f6105da826105b1565b9050919050565b6105ea816105d0565b81146105f4575f5ffd5b50565b5f81359050610605816105e1565b92915050565b5f602082840312156106205761061f6103da565b5b5f61062d848285016105f7565b91505092915050565b5f81519050919050565b5f82825260208201905092915050565b8281835e5f83830152505050565b5f61066882610636565b6106728185610640565b9350610682818560208601610650565b61068b816103ea565b840191505092915050565b61069f8161051e565b82525050565b6106ae816105d0565b82525050565b5f6060820190508181035f8301526106cc818661065e565b90506106db6020830185610696565b6106e860408301846106a5565b949350505050565b7f4e487b71000000000000000000000000000000000000000000000000000000005f52602260045260245ffd5b5f600282049050600182168061073457607f821691505b602082108103610747576107466106f0565b5b50919050565b5f819050815f5260205f209050919050565b5f6020601f8301049050919050565b5f82821b905092915050565b5f600883026107a97fffffffffffffffffffffffffffffffffffffffffffffffffffffffffffffffff8261076e565b6107b3868361076e565b95508019841693508086168417925050509392505050565b5f819050919050565b5f819050919050565b5f6107f76107f26107ed846107cb565b6107d4565b6107cb565b9050919050565b5f819050919050565b610810836107dd565b61082461081c826107fe565b84845461077a565b825550505050565b5f5f905090565b61083b61082c565b610846818484610807565b505050565b5b818110156108695761085e5f82610833565b60018101905061084c565b5050565b601f8211156108ae5761087f8161074d565b6108888461075f565b81016020851015610897578190505b6108ab6108a38561075f565b83018261084b565b50505b505050565b5f82821c905092915050565b5f6108ce5f19846008026108b3565b1980831691505092915050565b5f6108e683836108bf565b9150826002028217905092915050565b6108ff82610636565b67ffffffffffffffff811115610918576109176103fa565b5b610922825461071d565b61092d82828561086d565b5f60209050601f83116001811461095e575f841561094c578287015190505b61095685826108db565b8655506109bd565b601f19841661096c8661074d565b5f5b828110156109935784890151825560018201915060208501945060208101905061096e565b868310156109b057848901516109ac601f8916826108bf565b8355505b6001600288020188555050505b50505050505056fea2646970667358221220777f7ff38e0c883826afdbbc943f99d1ec27ad88d825a9a92069951f498a433764736f6c634300081d0033",
					"opcodes": "PUSH1 0x80 PUSH1 0x40 MSTORE CALLVALUE DUP1 ISZERO PUSH1 0xE JUMPI PUSH0 PUSH0 REVERT JUMPDEST POP PUSH2 0x9FB DUP1 PUSH2 0x1C PUSH0 CODECOPY PUSH0 RETURN INVALID PUSH1 0x80 PUSH1 0x40 MSTORE CALLVALUE DUP1 ISZERO PUSH2 0xF JUMPI PUSH0 PUSH0 REVERT JUMPDEST POP PUSH1 0x4 CALLDATASIZE LT PUSH2 0x4A JUMPI PUSH0 CALLDATALOAD PUSH1 0xE0 SHR DUP1 PUSH4 0x2748663E EQ PUSH2 0x4E JUMPI DUP1 PUSH4 0xA1F94F54 EQ PUSH2 0x6A JUMPI DUP1 PUSH4 0xC2A2747B EQ PUSH2 0x9C JUMPI DUP1 PUSH4 0xD781A3A5 EQ PUSH2 0xBC JUMPI JUMPDEST PUSH0 PUSH0 REVERT JUMPDEST PUSH2 0x68 PUSH1 0x4 DUP1 CALLDATASIZE SUB DUP2 ADD SWAP1 PUSH2 0x63 SWAP2 SWAP1 PUSH2 0x557 JUMP JUMPDEST PUSH2 0xDC JUMP JUMPDEST STOP JUMPDEST PUSH2 0x84 PUSH1 0x4 DUP1 CALLDATASIZE SUB DUP2 ADD SWAP1 PUSH2 0x7F SWAP2 SWAP1 PUSH2 0x60B JUMP JUMPDEST PUSH2 0x156 JUMP JUMPDEST PUSH1 0x40 MLOAD PUSH2 0x93 SWAP4 SWAP3 SWAP2 SWAP1 PUSH2 0x6B4 JUMP JUMPDEST PUSH1 0x40 MLOAD DUP1 SWAP2 SUB SWAP1 RETURN JUMPDEST PUSH2 0xA4 PUSH2 0x231 JUMP JUMPDEST PUSH1 0x40 MLOAD PUSH2 0xB3 SWAP4 SWAP3 SWAP2 SWAP1 PUSH2 0x6B4 JUMP JUMPDEST PUSH1 0x40 MLOAD DUP1 SWAP2 SUB SWAP1 RETURN JUMPDEST PUSH2 0xC4 PUSH2 0x2FC JUMP JUMPDEST PUSH1 0x40 MLOAD PUSH2 0xD3 SWAP4 SWAP3 SWAP2 SWAP1 PUSH2 0x6B4 JUMP JUMPDEST PUSH1 0x40 MLOAD DUP1 SWAP2 SUB SWAP1 RETURN JUMPDEST DUP2 PUSH0 PUSH0 ADD SWAP1 DUP2 PUSH2 0xEC SWAP2 SWAP1 PUSH2 0x8F6 JUMP JUMPDEST POP DUP1 PUSH0 PUSH1 0x1 ADD PUSH0 PUSH2 0x100 EXP DUP2 SLOAD DUP2 PUSH4 0xFFFFFFFF MUL NOT AND SWAP1 DUP4 PUSH4 0xFFFFFFFF AND MUL OR SWAP1 SSTORE POP CALLER PUSH0 PUSH1 0x1 ADD PUSH1 0x4 PUSH2 0x100 EXP DUP2 SLOAD DUP2 PUSH20 0xFFFFFFFFFFFFFFFFFFFFFFFFFFFFFFFFFFFFFFFF MUL NOT AND SWAP1 DUP4 PUSH20 0xFFFFFFFFFFFFFFFFFFFFFFFFFFFFFFFFFFFFFFFF AND MUL OR SWAP1 SSTORE POP POP POP JUMP JUMPDEST PUSH1 0x2 PUSH1 0x20 MSTORE DUP1 PUSH0 MSTORE PUSH1 0x40 PUSH0 KECCAK256 PUSH0 SWAP2 POP SWAP1 POP DUP1 PUSH0 ADD DUP1 SLOAD PUSH2 0x175 SWAP1 PUSH2 0x71D JUMP JUMPDEST DUP1 PUSH1 0x1F ADD PUSH1 0x20 DUP1 SWAP2 DIV MUL PUSH1 0x20 ADD PUSH1 0x40 MLOAD SWAP1 DUP2 ADD PUSH1 0x40 MSTORE DUP1 SWAP3 SWAP2 SWAP1 DUP2 DUP2 MSTORE PUSH1 0x20 ADD DUP3 DUP1 SLOAD PUSH2 0x1A1 SWAP1 PUSH2 0x71D JUMP JUMPDEST DUP1 ISZERO PUSH2 0x1EC JUMPI DUP1 PUSH1 0x1F LT PUSH2 0x1C3 JUMPI PUSH2 0x100 DUP1 DUP4 SLOAD DIV MUL DUP4 MSTORE SWAP2 PUSH1 0x20 ADD SWAP2 PUSH2 0x1EC JUMP JUMPDEST DUP3 ADD SWAP2 SWAP1 PUSH0 MSTORE PUSH1 0x20 PUSH0 KECCAK256 SWAP1 JUMPDEST DUP2 SLOAD DUP2 MSTORE SWAP1 PUSH1 0x1 ADD SWAP1 PUSH1 0x20 ADD DUP1 DUP4 GT PUSH2 0x1CF JUMPI DUP3 SWAP1 SUB PUSH1 0x1F AND DUP3 ADD SWAP2 JUMPDEST POP POP POP POP POP SWAP1 DUP1 PUSH1 0x1 ADD PUSH0 SWAP1 SLOAD SWAP1 PUSH2 0x100 EXP SWAP1 DIV PUSH4 0xFFFFFFFF AND SWAP1 DUP1 PUSH1 0x1 ADD PUSH1 0x4 SWAP1 SLOAD SWAP1 PUSH2 0x100 EXP SWAP1 DIV PUSH20 0xFFFFFFFFFFFFFFFFFFFFFFFFFFFFFFFFFFFFFFFF AND SWAP1 POP DUP4 JUMP JUMPDEST PUSH0 DUP1 PUSH0 ADD DUP1 SLOAD PUSH2 0x240 SWAP1 PUSH2 0x71D JUMP JUMPDEST DUP1 PUSH1 0x1F ADD PUSH1 0x20 DUP1 SWAP2 DIV MUL PUSH1 0x20 ADD PUSH1 0x40 MLOAD SWAP1 DUP2 ADD PUSH1 0x40 MSTORE DUP1 SWAP3 SWAP2 SWAP1 DUP2 DUP2 MSTORE PUSH1 0x20 ADD DUP3 DUP1 SLOAD PUSH2 0x26C SWAP1 PUSH2 0x71D JUMP JUMPDEST DUP1 ISZERO PUSH2 0x2B7 JUMPI DUP1 PUSH1 0x1F LT PUSH2 0x28E JUMPI PUSH2 0x100 DUP1 DUP4 SLOAD DIV MUL DUP4 MSTORE SWAP2 PUSH1 0x20 ADD SWAP2 PUSH2 0x2B7 JUMP JUMPDEST DUP3 ADD SWAP2 SWAP1 PUSH0 MSTORE PUSH1 0x20 PUSH0 KECCAK256 SWAP1 JUMPDEST DUP2 SLOAD DUP2 MSTORE SWAP1 PUSH1 0x1 ADD SWAP1 PUSH1 0x20 ADD DUP1 DUP4 GT PUSH2 0x29A JUMPI DUP3 SWAP1 SUB PUSH1 0x1F AND DUP3 ADD SWAP2 JUMPDEST POP POP POP POP POP SWAP1 DUP1 PUSH1 0x1 ADD PUSH0 SWAP1 SLOAD SWAP1 PUSH2 0x100 EXP SWAP1 DIV PUSH4 0xFFFFFFFF AND SWAP1 DUP1 PUSH1 0x1 ADD PUSH1 0x4 SWAP1 SLOAD SWAP1 PUSH2 0x100 EXP SWAP1 DIV PUSH20 0xFFFFFFFFFFFFFFFFFFFFFFFFFFFFFFFFFFFFFFFF AND SWAP1 POP DUP4 JUMP JUMPDEST PUSH1 0x60 PUSH0 PUSH0 PUSH0 PUSH0 ADD PUSH0 PUSH1 0x1 ADD PUSH0 SWAP1 SLOAD SWAP1 PUSH2 0x100 EXP SWAP1 DIV PUSH4 0xFFFFFFFF AND PUSH0 PUSH1 0x1 ADD PUSH1 0x4 SWAP1 SLOAD SWAP1 PUSH2 0x100 EXP SWAP1 DIV PUSH20 0xFFFFFFFFFFFFFFFFFFFFFFFFFFFFFFFFFFFFFFFF AND DUP3 DUP1 SLOAD PUSH2 0x348 SWAP1 PUSH2 0x71D JUMP JUMPDEST DUP1 PUSH1 0x1F ADD PUSH1 0x20 DUP1 SWAP2 DIV MUL PUSH1 0x20 ADD PUSH1 0x40 MLOAD SWAP1 DUP2 ADD PUSH1 0x40 MSTORE DUP1 SWAP3 SWAP2 SWAP1 DUP2 DUP2 MSTORE PUSH1 0x20 ADD DUP3 DUP1 SLOAD PUSH2 0x374 SWAP1 PUSH2 0x71D JUMP JUMPDEST DUP1 ISZERO PUSH2 0x3BF JUMPI DUP1 PUSH1 0x1F LT PUSH2 0x396 JUMPI PUSH2 0x100 DUP1 DUP4 SLOAD DIV MUL DUP4 MSTORE SWAP2 PUSH1 0x20 ADD SWAP2 PUSH2 0x3BF JUMP JUMPDEST DUP3 ADD SWAP2 SWAP1 PUSH0 MSTORE PUSH1 0x20 PUSH0 KECCAK256 SWAP1 JUMPDEST DUP2 SLOAD DUP2 MSTORE SWAP1 PUSH1 0x1 ADD SWAP1 PUSH1 0x20 ADD DUP1 DUP4 GT PUSH2 0x3A2 JUMPI DUP3 SWAP1 SUB PUSH1 0x1F AND DUP3 ADD SWAP2 JUMPDEST POP POP POP POP POP SWAP3 POP SWAP3 POP SWAP3 POP SWAP3 POP SWAP1 SWAP2 SWAP3 JUMP JUMPDEST PUSH0 PUSH1 0x40 MLOAD SWAP1 POP SWAP1 JUMP JUMPDEST PUSH0 PUSH0 REVERT JUMPDEST PUSH0 PUSH0 REVERT JUMPDEST PUSH0 PUSH0 REVERT JUMPDEST PUSH0 PUSH0 REVERT JUMPDEST PUSH0 PUSH1 0x1F NOT PUSH1 0x1F DUP4 ADD AND SWAP1 POP SWAP2 SWAP1 POP JUMP JUMPDEST PUSH32 0x4E487B7100000000000000000000000000000000000000000000000000000000 PUSH0 MSTORE PUSH1 0x41 PUSH1 0x4 MSTORE PUSH1 0x24 PUSH0 REVERT JUMPDEST PUSH2 0x430 DUP3 PUSH2 0x3EA JUMP JUMPDEST DUP2 ADD DUP2 DUP2 LT PUSH8 0xFFFFFFFFFFFFFFFF DUP3 GT OR ISZERO PUSH2 0x44F JUMPI PUSH2 0x44E PUSH2 0x3FA JUMP JUMPDEST JUMPDEST DUP1 PUSH1 0x40 MSTORE POP POP POP JUMP JUMPDEST PUSH0 PUSH2 0x461 PUSH2 0x3D1 JUMP JUMPDEST SWAP1 POP PUSH2 0x46D DUP3 DUP3 PUSH2 0x427 JUMP JUMPDEST SWAP2 SWAP1 POP JUMP JUMPDEST PUSH0 PUSH8 0xFFFFFFFFFFFFFFFF DUP3 GT ISZERO PUSH2 0x48C JUMPI PUSH2 0x48B PUSH2 0x3FA JUMP JUMPDEST JUMPDEST PUSH2 0x495 DUP3 PUSH2 0x3EA JUMP JUMPDEST SWAP1 POP PUSH1 0x20 DUP2 ADD SWAP1 POP SWAP2 SWAP1 POP JUMP JUMPDEST DUP3 DUP2 DUP4 CALLDATACOPY PUSH0 DUP4 DUP4 ADD MSTORE POP POP POP JUMP JUMPDEST PUSH0 PUSH2 0x4C2 PUSH2 0x4BD DUP5 PUSH2 0x472 JUMP JUMPDEST PUSH2 0x458 JUMP JUMPDEST SWAP1 POP DUP3 DUP2 MSTORE PUSH1 0x20 DUP2 ADD DUP5 DUP5 DUP5 ADD GT ISZERO PUSH2 0x4DE JUMPI PUSH2 0x4DD PUSH2 0x3E6 JUMP JUMPDEST JUMPDEST PUSH2 0x4E9 DUP5 DUP3 DUP6 PUSH2 0x4A2 JUMP JUMPDEST POP SWAP4 SWAP3 POP POP POP JUMP JUMPDEST PUSH0 DUP3 PUSH1 0x1F DUP4 ADD SLT PUSH2 0x505 JUMPI PUSH2 0x504 PUSH2 0x3E2 JUMP JUMPDEST JUMPDEST DUP2 CALLDATALOAD PUSH2 0x515 DUP5 DUP3 PUSH1 0x20 DUP7 ADD PUSH2 0x4B0 JUMP JUMPDEST SWAP2 POP POP SWAP3 SWAP2 POP POP JUMP JUMPDEST PUSH0 PUSH4 0xFFFFFFFF DUP3 AND SWAP1 POP SWAP2 SWAP1 POP JUMP JUMPDEST PUSH2 0x536 DUP2 PUSH2 0x51E JUMP JUMPDEST DUP2 EQ PUSH2 0x540 JUMPI PUSH0 PUSH0 REVERT JUMPDEST POP JUMP JUMPDEST PUSH0 DUP2 CALLDATALOAD SWAP1 POP PUSH2 0x551 DUP2 PUSH2 0x52D JUMP JUMPDEST SWAP3 SWAP2 POP POP JUMP JUMPDEST PUSH0 PUSH0 PUSH1 0x40 DUP4 DUP6 SUB SLT ISZERO PUSH2 0x56D JUMPI PUSH2 0x56C PUSH2 0x3DA JUMP JUMPDEST JUMPDEST PUSH0 DUP4 ADD CALLDATALOAD PUSH8 0xFFFFFFFFFFFFFFFF DUP2 GT ISZERO PUSH2 0x58A JUMPI PUSH2 0x589 PUSH2 0x3DE JUMP JUMPDEST JUMPDEST PUSH2 0x596 DUP6 DUP3 DUP7 ADD PUSH2 0x4F1 JUMP JUMPDEST SWAP3 POP POP PUSH1 0x20 PUSH2 0x5A7 DUP6 DUP3 DUP7 ADD PUSH2 0x543 JUMP JUMPDEST SWAP2 POP POP SWAP3 POP SWAP3 SWAP1 POP JUMP JUMPDEST PUSH0 PUSH20 0xFFFFFFFFFFFFFFFFFFFFFFFFFFFFFFFFFFFFFFFF DUP3 AND SWAP1 POP SWAP2 SWAP1 POP JUMP JUMPDEST PUSH0 PUSH2 0x5DA DUP3 PUSH2 0x5B1 JUMP JUMPDEST SWAP1 POP SWAP2 SWAP1 POP JUMP JUMPDEST PUSH2 0x5EA DUP2 PUSH2 0x5D0 JUMP JUMPDEST DUP2 EQ PUSH2 0x5F4 JUMPI PUSH0 PUSH0 REVERT JUMPDEST POP JUMP JUMPDEST PUSH0 DUP2 CALLDATALOAD SWAP1 POP PUSH2 0x605 DUP2 PUSH2 0x5E1 JUMP JUMPDEST SWAP3 SWAP2 POP POP JUMP JUMPDEST PUSH0 PUSH1 0x20 DUP3 DUP5 SUB SLT ISZERO PUSH2 0x620 JUMPI PUSH2 0x61F PUSH2 0x3DA JUMP JUMPDEST JUMPDEST PUSH0 PUSH2 0x62D DUP5 DUP3 DUP6 ADD PUSH2 0x5F7 JUMP JUMPDEST SWAP2 POP POP SWAP3 SWAP2 POP POP JUMP JUMPDEST PUSH0 DUP2 MLOAD SWAP1 POP SWAP2 SWAP1 POP JUMP JUMPDEST PUSH0 DUP3 DUP3 MSTORE PUSH1 0x20 DUP3 ADD SWAP1 POP SWAP3 SWAP2 POP POP JUMP JUMPDEST DUP3 DUP2 DUP4 MCOPY PUSH0 DUP4 DUP4 ADD MSTORE POP POP POP JUMP JUMPDEST PUSH0 PUSH2 0x668 DUP3 PUSH2 0x636 JUMP JUMPDEST PUSH2 0x672 DUP2 DUP6 PUSH2 0x640 JUMP JUMPDEST SWAP4 POP PUSH2 0x682 DUP2 DUP6 PUSH1 0x20 DUP7 ADD PUSH2 0x650 JUMP JUMPDEST PUSH2 0x68B DUP2 PUSH2 0x3EA JUMP JUMPDEST DUP5 ADD SWAP2 POP POP SWAP3 SWAP2 POP POP JUMP JUMPDEST PUSH2 0x69F DUP2 PUSH2 0x51E JUMP JUMPDEST DUP3 MSTORE POP POP JUMP JUMPDEST PUSH2 0x6AE DUP2 PUSH2 0x5D0 JUMP JUMPDEST DUP3 MSTORE POP POP JUMP JUMPDEST PUSH0 PUSH1 0x60 DUP3 ADD SWAP1 POP DUP2 DUP2 SUB PUSH0 DUP4 ADD MSTORE PUSH2 0x6CC DUP2 DUP7 PUSH2 0x65E JUMP JUMPDEST SWAP1 POP PUSH2 0x6DB PUSH1 0x20 DUP4 ADD DUP6 PUSH2 0x696 JUMP JUMPDEST PUSH2 0x6E8 PUSH1 0x40 DUP4 ADD DUP5 PUSH2 0x6A5 JUMP JUMPDEST SWAP5 SWAP4 POP POP POP POP JUMP JUMPDEST PUSH32 0x4E487B7100000000000000000000000000000000000000000000000000000000 PUSH0 MSTORE PUSH1 0x22 PUSH1 0x4 MSTORE PUSH1 0x24 PUSH0 REVERT JUMPDEST PUSH0 PUSH1 0x2 DUP3 DIV SWAP1 POP PUSH1 0x1 DUP3 AND DUP1 PUSH2 0x734 JUMPI PUSH1 0x7F DUP3 AND SWAP2 POP JUMPDEST PUSH1 0x20 DUP3 LT DUP2 SUB PUSH2 0x747 JUMPI PUSH2 0x746 PUSH2 0x6F0 JUMP JUMPDEST JUMPDEST POP SWAP2 SWAP1 POP JUMP JUMPDEST PUSH0 DUP2 SWAP1 POP DUP2 PUSH0 MSTORE PUSH1 0x20 PUSH0 KECCAK256 SWAP1 POP SWAP2 SWAP1 POP JUMP JUMPDEST PUSH0 PUSH1 0x20 PUSH1 0x1F DUP4 ADD DIV SWAP1 POP SWAP2 SWAP1 POP JUMP JUMPDEST PUSH0 DUP3 DUP3 SHL SWAP1 POP SWAP3 SWAP2 POP POP JUMP JUMPDEST PUSH0 PUSH1 0x8 DUP4 MUL PUSH2 0x7A9 PUSH32 0xFFFFFFFFFFFFFFFFFFFFFFFFFFFFFFFFFFFFFFFFFFFFFFFFFFFFFFFFFFFFFFFF DUP3 PUSH2 0x76E JUMP JUMPDEST PUSH2 0x7B3 DUP7 DUP4 PUSH2 0x76E JUMP JUMPDEST SWAP6 POP DUP1 NOT DUP5 AND SWAP4 POP DUP1 DUP7 AND DUP5 OR SWAP3 POP POP POP SWAP4 SWAP3 POP POP POP JUMP JUMPDEST PUSH0 DUP2 SWAP1 POP SWAP2 SWAP1 POP JUMP JUMPDEST PUSH0 DUP2 SWAP1 POP SWAP2 SWAP1 POP JUMP JUMPDEST PUSH0 PUSH2 0x7F7 PUSH2 0x7F2 PUSH2 0x7ED DUP5 PUSH2 0x7CB JUMP JUMPDEST PUSH2 0x7D4 JUMP JUMPDEST PUSH2 0x7CB JUMP JUMPDEST SWAP1 POP SWAP2 SWAP1 POP JUMP JUMPDEST PUSH0 DUP2 SWAP1 POP SWAP2 SWAP1 POP JUMP JUMPDEST PUSH2 0x810 DUP4 PUSH2 0x7DD JUMP JUMPDEST PUSH2 0x824 PUSH2 0x81C DUP3 PUSH2 0x7FE JUMP JUMPDEST DUP5 DUP5 SLOAD PUSH2 0x77A JUMP JUMPDEST DUP3 SSTORE POP POP POP POP JUMP JUMPDEST PUSH0 PUSH0 SWAP1 POP SWAP1 JUMP JUMPDEST PUSH2 0x83B PUSH2 0x82C JUMP JUMPDEST PUSH2 0x846 DUP2 DUP5 DUP5 PUSH2 0x807 JUMP JUMPDEST POP POP POP JUMP JUMPDEST JUMPDEST DUP2 DUP2 LT ISZERO PUSH2 0x869 JUMPI PUSH2 0x85E PUSH0 DUP3 PUSH2 0x833 JUMP JUMPDEST PUSH1 0x1 DUP2 ADD SWAP1 POP PUSH2 0x84C JUMP JUMPDEST POP POP JUMP JUMPDEST PUSH1 0x1F DUP3 GT ISZERO PUSH2 0x8AE JUMPI PUSH2 0x87F DUP2 PUSH2 0x74D JUMP JUMPDEST PUSH2 0x888 DUP5 PUSH2 0x75F JUMP JUMPDEST DUP2 ADD PUSH1 0x20 DUP6 LT ISZERO PUSH2 0x897 JUMPI DUP2 SWAP1 POP JUMPDEST PUSH2 0x8AB PUSH2 0x8A3 DUP6 PUSH2 0x75F JUMP JUMPDEST DUP4 ADD DUP3 PUSH2 0x84B JUMP JUMPDEST POP POP JUMPDEST POP POP POP JUMP JUMPDEST PUSH0 DUP3 DUP3 SHR SWAP1 POP SWAP3 SWAP2 POP POP JUMP JUMPDEST PUSH0 PUSH2 0x8CE PUSH0 NOT DUP5 PUSH1 0x8 MUL PUSH2 0x8B3 JUMP JUMPDEST NOT DUP1 DUP4 AND SWAP2 POP POP SWAP3 SWAP2 POP POP JUMP JUMPDEST PUSH0 PUSH2 0x8E6 DUP4 DUP4 PUSH2 0x8BF JUMP JUMPDEST SWAP2 POP DUP3 PUSH1 0x2 MUL DUP3 OR SWAP1 POP SWAP3 SWAP2 POP POP JUMP JUMPDEST PUSH2 0x8FF DUP3 PUSH2 0x636 JUMP JUMPDEST PUSH8 0xFFFFFFFFFFFFFFFF DUP2 GT ISZERO PUSH2 0x918 JUMPI PUSH2 0x917 PUSH2 0x3FA JUMP JUMPDEST JUMPDEST PUSH2 0x922 DUP3 SLOAD PUSH2 0x71D JUMP JUMPDEST PUSH2 0x92D DUP3 DUP3 DUP6 PUSH2 0x86D JUMP JUMPDEST PUSH0 PUSH1 0x20 SWAP1 POP PUSH1 0x1F DUP4 GT PUSH1 0x1 DUP2 EQ PUSH2 0x95E JUMPI PUSH0 DUP5 ISZERO PUSH2 0x94C JUMPI DUP3 DUP8 ADD MLOAD SWAP1 POP JUMPDEST PUSH2 0x956 DUP6 DUP3 PUSH2 0x8DB JUMP JUMPDEST DUP7 SSTORE POP PUSH2 0x9BD JUMP JUMPDEST PUSH1 0x1F NOT DUP5 AND PUSH2 0x96C DUP7 PUSH2 0x74D JUMP JUMPDEST PUSH0 JUMPDEST DUP3 DUP2 LT ISZERO PUSH2 0x993 JUMPI DUP5 DUP10 ADD MLOAD DUP3 SSTORE PUSH1 0x1 DUP3 ADD SWAP2 POP PUSH1 0x20 DUP6 ADD SWAP5 POP PUSH1 0x20 DUP2 ADD SWAP1 POP PUSH2 0x96E JUMP JUMPDEST DUP7 DUP4 LT ISZERO PUSH2 0x9B0 JUMPI DUP5 DUP10 ADD MLOAD PUSH2 0x9AC PUSH1 0x1F DUP10 AND DUP3 PUSH2 0x8BF JUMP JUMPDEST DUP4 SSTORE POP JUMPDEST PUSH1 0x1 PUSH1 0x2 DUP9 MUL ADD DUP9 SSTORE POP POP POP JUMPDEST POP POP POP POP POP POP JUMP INVALID LOG2 PUSH5 0x6970667358 0x22 SLT KECCAK256 PUSH24 0x7F7FF38E0C883826AFDBBC943F99D1EC27AD88D825A9A920 PUSH10 0x951F498A433764736F6C PUSH4 0x4300081D STOP CALLER "
				},
				"gasEstimates": {
					"creation": {
						"codeDepositCost": "511000",
						"executionCost": "541",
						"totalCost": "511541"
					},
					"external": {
						"Personcontract(address)": "infinite",
						"getPersonDetails()": "infinite",
						"p1()": "infinite",
						"setPerson(string,uint32)": "infinite"
					}
				},
				"methodIdentifiers": {
					"Personcontract(address)": "a1f94f54",
					"getPersonDetails()": "d781a3a5",
					"p1()": "c2a2747b",
					"setPerson(string,uint32)": "2748663e"
				}
			},
			"storageLayout": {
				"storage": [
					{
						"astId": 11,
						"contract": "contracts/PersonsContract.sol:Person",
						"label": "p1",
						"offset": 0,
						"slot": "0",
						"type": "t_struct(person)8_storage"
					},
					{
						"astId": 16,
						"contract": "contracts/PersonsContract.sol:Person",
						"label": "Personcontract",
						"offset": 0,
						"slot": "2",
						"type": "t_mapping(t_address,t_struct(person)8_storage)"
					}
				],
				"types": {
					"t_address": {
						"encoding": "inplace",
						"label": "address",
						"numberOfBytes": "20"
					},
					"t_mapping(t_address,t_struct(person)8_storage)": {
						"encoding": "mapping",
						"key": "t_address",
						"label": "mapping(address => struct Person.person)",
						"numberOfBytes": "32",
						"value": "t_struct(person)8_storage"
					},
					"t_string_storage": {
						"encoding": "bytes",
						"label": "string",
						"numberOfBytes": "32"
					},
					"t_struct(person)8_storage": {
						"encoding": "inplace",
						"label": "struct Person.person",
						"members": [
							{
								"astId": 3,
								"contract": "contracts/PersonsContract.sol:Person",
								"label": "name",
								"offset": 0,
								"slot": "0",
								"type": "t_string_storage"
							},
							{
								"astId": 5,
								"contract": "contracts/PersonsContract.sol:Person",
								"label": "age",
								"offset": 0,
								"slot": "1",
								"type": "t_uint32"
							},
							{
								"astId": 7,
								"contract": "contracts/PersonsContract.sol:Person",
								"label": "add",
								"offset": 4,
								"slot": "1",
								"type": "t_address"
							}
						],
						"numberOfBytes": "64"
					},
					"t_uint32": {
						"encoding": "inplace",
						"label": "uint32",
						"numberOfBytes": "4"
					}
				}
			},
			"userdoc": {
				"kind": "user",
				"methods": {},
				"version": 1
			}
		}
	}
}