{
	"contracts/Staking.sol": {
		"StakeETh": {
			"abi": [
				{
					"inputs": [],
					"stateMutability": "nonpayable",
					"type": "constructor"
				},
				{
					"inputs": [],
					"name": "Deposite",
					"outputs": [],
					"stateMutability": "payable",
					"type": "function"
				},
				{
					"inputs": [],
					"name": "Total_balance",
					"outputs": [
						{
							"internalType": "uint256",
							"name": "",
							"type": "uint256"
						}
					],
					"stateMutability": "view",
					"type": "function"
				},
				{
					"inputs": [],
					"name": "Withdraw",
					"outputs": [],
					"stateMutability": "payable",
					"type": "function"
				}
			],
			"devdoc": {
				"kind": "dev",
				"methods": {},
				"version": 1
			},
			"evm": {
				"assembly": "    /* \"contracts/Staking.sol\":64:767  contract StakeETh {... */\n  mstore(0x40, 0x80)\n    /* \"contracts/Staking.sol\":179:225  constructor(){... */\n  callvalue\n  dup1\n  iszero\n  tag_1\n  jumpi\n  0x00\n  dup1\n  revert\ntag_1:\n  pop\n    /* \"contracts/Staking.sol\":208:218  msg.sender */\n  caller\n    /* \"contracts/Staking.sol\":202:207  owner */\n  0x00\n  dup1\n    /* \"contracts/Staking.sol\":202:218  owner=msg.sender */\n  0x0100\n  exp\n  dup2\n  sload\n  dup2\n  0xffffffffffffffffffffffffffffffffffffffff\n  mul\n  not\n  and\n  swap1\n  dup4\n  0xffffffffffffffffffffffffffffffffffffffff\n  and\n  mul\n  or\n  swap1\n  sstore\n  pop\n    /* \"contracts/Staking.sol\":64:767  contract StakeETh {... */\n  dataSize(sub_0)\n  dup1\n  dataOffset(sub_0)\n  0x00\n  codecopy\n  0x00\n  return\nstop\n\nsub_0: assembly {\n        /* \"contracts/Staking.sol\":64:767  contract StakeETh {... */\n      mstore(0x40, 0x80)\n      jumpi(tag_1, lt(calldatasize, 0x04))\n      shr(0xe0, calldataload(0x00))\n      dup1\n      0x57ea89b6\n      eq\n      tag_2\n      jumpi\n      dup1\n      0x782616b0\n      eq\n      tag_3\n      jumpi\n      dup1\n      0xda68b4b4\n      eq\n      tag_4\n      jumpi\n    tag_1:\n      0x00\n      dup1\n      revert\n        /* \"contracts/Staking.sol\":435:668  function Withdraw() payable public {... */\n    tag_2:\n      tag_5\n      tag_6\n      jump\t// in\n    tag_5:\n      stop\n        /* \"contracts/Staking.sol\":673:764  function Total_balance() public view returns(uint256){... */\n    tag_3:\n      callvalue\n      dup1\n      iszero\n      tag_7\n      jumpi\n      0x00\n      dup1\n      revert\n    tag_7:\n      pop\n      tag_8\n      tag_9\n      jump\t// in\n    tag_8:\n      mload(0x40)\n      tag_10\n      swap2\n      swap1\n      tag_11\n      jump\t// in\n    tag_10:\n      mload(0x40)\n      dup1\n      swap2\n      sub\n      swap1\n      return\n        /* \"contracts/Staking.sol\":230:430  function Deposite() payable public {... */\n    tag_4:\n      tag_12\n      tag_13\n      jump\t// in\n    tag_12:\n      stop\n        /* \"contracts/Staking.sol\":435:668  function Withdraw() payable public {... */\n    tag_6:\n        /* \"contracts/Staking.sol\":514:515  0 */\n      0x00\n        /* \"contracts/Staking.sol\":488:501  Deposite_book */\n      0x01\n        /* \"contracts/Staking.sol\":488:513  Deposite_book[msg.sender] */\n      0x00\n        /* \"contracts/Staking.sol\":502:512  msg.sender */\n      caller\n        /* \"contracts/Staking.sol\":488:513  Deposite_book[msg.sender] */\n      0xffffffffffffffffffffffffffffffffffffffff\n      and\n      0xffffffffffffffffffffffffffffffffffffffff\n      and\n      dup2\n      mstore\n      0x20\n      add\n      swap1\n      dup2\n      mstore\n      0x20\n      add\n      0x00\n      keccak256\n      sload\n        /* \"contracts/Staking.sol\":488:515  Deposite_book[msg.sender]>0 */\n      gt\n        /* \"contracts/Staking.sol\":480:560  require(Deposite_book[msg.sender]>0,\"sorry you are authorized to pull your ETH\") */\n      tag_15\n      jumpi\n      mload(0x40)\n      0x08c379a000000000000000000000000000000000000000000000000000000000\n      dup2\n      mstore\n      0x04\n      add\n      tag_16\n      swap1\n      tag_17\n      jump\t// in\n    tag_16:\n      mload(0x40)\n      dup1\n      swap2\n      sub\n      swap1\n      revert\n    tag_15:\n        /* \"contracts/Staking.sol\":578:588  msg.sender */\n      caller\n        /* \"contracts/Staking.sol\":570:598  payable(msg.sender).transfer */\n      0xffffffffffffffffffffffffffffffffffffffff\n      and\n        /* \"contracts/Staking.sol\":570:627  payable(msg.sender).transfer(Deposite_book[msg.sender]/2) */\n      0x08fc\n        /* \"contracts/Staking.sol\":625:626  2 */\n      0x02\n        /* \"contracts/Staking.sol\":599:612  Deposite_book */\n      0x01\n        /* \"contracts/Staking.sol\":599:624  Deposite_book[msg.sender] */\n      0x00\n        /* \"contracts/Staking.sol\":613:623  msg.sender */\n      caller\n        /* \"contracts/Staking.sol\":599:624  Deposite_book[msg.sender] */\n      0xffffffffffffffffffffffffffffffffffffffff\n      and\n      0xffffffffffffffffffffffffffffffffffffffff\n      and\n      dup2\n      mstore\n      0x20\n      add\n      swap1\n      dup2\n      mstore\n      0x20\n      add\n      0x00\n      keccak256\n      sload\n        /* \"contracts/Staking.sol\":599:626  Deposite_book[msg.sender]/2 */\n      tag_18\n      swap2\n      swap1\n      tag_19\n      jump\t// in\n    tag_18:\n        /* \"contracts/Staking.sol\":570:627  payable(msg.sender).transfer(Deposite_book[msg.sender]/2) */\n      swap1\n      dup2\n      iszero\n      mul\n      swap1\n      mload(0x40)\n      0x00\n      mload(0x40)\n      dup1\n      dup4\n      sub\n      dup2\n      dup6\n      dup9\n      dup9\n      call\n      swap4\n      pop\n      pop\n      pop\n      pop\n      iszero\n      dup1\n      iszero\n      tag_21\n      jumpi\n      returndatasize\n      0x00\n      dup1\n      returndatacopy\n      revert(0x00, returndatasize)\n    tag_21:\n      pop\n        /* \"contracts/Staking.sol\":652:661  msg.value */\n      callvalue\n        /* \"contracts/Staking.sol\":637:650  total_balance */\n      0x02\n      0x00\n        /* \"contracts/Staking.sol\":637:661  total_balance+=msg.value */\n      dup3\n      dup3\n      sload\n      tag_22\n      swap2\n      swap1\n      tag_23\n      jump\t// in\n    tag_22:\n      swap3\n      pop\n      pop\n      dup2\n      swap1\n      sstore\n      pop\n        /* \"contracts/Staking.sol\":435:668  function Withdraw() payable public {... */\n      jump\t// out\n        /* \"contracts/Staking.sol\":673:764  function Total_balance() public view returns(uint256){... */\n    tag_9:\n        /* \"contracts/Staking.sol\":718:725  uint256 */\n      0x00\n        /* \"contracts/Staking.sol\":743:756  total_balance */\n      sload(0x02)\n        /* \"contracts/Staking.sol\":736:757  return(total_balance) */\n      swap1\n      pop\n        /* \"contracts/Staking.sol\":673:764  function Total_balance() public view returns(uint256){... */\n      swap1\n      jump\t// out\n        /* \"contracts/Staking.sol\":230:430  function Deposite() payable public {... */\n    tag_13:\n        /* \"contracts/Staking.sol\":293:294  0 */\n      0x00\n        /* \"contracts/Staking.sol\":283:292  msg.value */\n      callvalue\n        /* \"contracts/Staking.sol\":283:294  msg.value>0 */\n      gt\n        /* \"contracts/Staking.sol\":275:344  require(msg.value>0,\"sorry insufficient balance ,transaction failed\") */\n      tag_26\n      jumpi\n      mload(0x40)\n      0x08c379a000000000000000000000000000000000000000000000000000000000\n      dup2\n      mstore\n      0x04\n      add\n      tag_27\n      swap1\n      tag_28\n      jump\t// in\n    tag_27:\n      mload(0x40)\n      dup1\n      swap2\n      sub\n      swap1\n      revert\n    tag_26:\n        /* \"contracts/Staking.sol\":380:389  msg.value */\n      callvalue\n        /* \"contracts/Staking.sol\":354:367  Deposite_book */\n      0x01\n        /* \"contracts/Staking.sol\":354:379  Deposite_book[msg.sender] */\n      0x00\n        /* \"contracts/Staking.sol\":368:378  msg.sender */\n      caller\n        /* \"contracts/Staking.sol\":354:379  Deposite_book[msg.sender] */\n      0xffffffffffffffffffffffffffffffffffffffff\n      and\n      0xffffffffffffffffffffffffffffffffffffffff\n      and\n      dup2\n      mstore\n      0x20\n      add\n      swap1\n      dup2\n      mstore\n      0x20\n      add\n      0x00\n      keccak256\n        /* \"contracts/Staking.sol\":354:389  Deposite_book[msg.sender]=msg.value */\n      dup2\n      swap1\n      sstore\n      pop\n        /* \"contracts/Staking.sol\":414:423  msg.value */\n      callvalue\n        /* \"contracts/Staking.sol\":399:412  total_balance */\n      0x02\n      0x00\n        /* \"contracts/Staking.sol\":399:423  total_balance+=msg.value */\n      dup3\n      dup3\n      sload\n      tag_29\n      swap2\n      swap1\n      tag_23\n      jump\t// in\n    tag_29:\n      swap3\n      pop\n      pop\n      dup2\n      swap1\n      sstore\n      pop\n        /* \"contracts/Staking.sol\":230:430  function Deposite() payable public {... */\n      jump\t// out\n        /* \"#utility.yul\":7:84   */\n    tag_30:\n        /* \"#utility.yul\":44:51   */\n      0x00\n        /* \"#utility.yul\":73:78   */\n      dup2\n        /* \"#utility.yul\":62:78   */\n      swap1\n      pop\n        /* \"#utility.yul\":7:84   */\n      swap2\n      swap1\n      pop\n      jump\t// out\n        /* \"#utility.yul\":90:208   */\n    tag_31:\n        /* \"#utility.yul\":177:201   */\n      tag_42\n        /* \"#utility.yul\":195:200   */\n      dup2\n        /* \"#utility.yul\":177:201   */\n      tag_30\n      jump\t// in\n    tag_42:\n        /* \"#utility.yul\":172:175   */\n      dup3\n        /* \"#utility.yul\":165:202   */\n      mstore\n        /* \"#utility.yul\":90:208   */\n      pop\n      pop\n      jump\t// out\n        /* \"#utility.yul\":214:436   */\n    tag_11:\n        /* \"#utility.yul\":307:311   */\n      0x00\n        /* \"#utility.yul\":345:347   */\n      0x20\n        /* \"#utility.yul\":334:343   */\n      dup3\n        /* \"#utility.yul\":330:348   */\n      add\n        /* \"#utility.yul\":322:348   */\n      swap1\n      pop\n        /* \"#utility.yul\":358:429   */\n      tag_44\n        /* \"#utility.yul\":426:427   */\n      0x00\n        /* \"#utility.yul\":415:424   */\n      dup4\n        /* \"#utility.yul\":411:428   */\n      add\n        /* \"#utility.yul\":402:408   */\n      dup5\n        /* \"#utility.yul\":358:429   */\n      tag_31\n      jump\t// in\n    tag_44:\n        /* \"#utility.yul\":214:436   */\n      swap3\n      swap2\n      pop\n      pop\n      jump\t// out\n        /* \"#utility.yul\":442:611   */\n    tag_32:\n        /* \"#utility.yul\":526:537   */\n      0x00\n        /* \"#utility.yul\":560:566   */\n      dup3\n        /* \"#utility.yul\":555:558   */\n      dup3\n        /* \"#utility.yul\":548:567   */\n      mstore\n        /* \"#utility.yul\":600:604   */\n      0x20\n        /* \"#utility.yul\":595:598   */\n      dup3\n        /* \"#utility.yul\":591:605   */\n      add\n        /* \"#utility.yul\":576:605   */\n      swap1\n      pop\n        /* \"#utility.yul\":442:611   */\n      swap3\n      swap2\n      pop\n      pop\n      jump\t// out\n        /* \"#utility.yul\":617:845   */\n    tag_33:\n        /* \"#utility.yul\":757:791   */\n      0x736f72727920796f752061726520617574686f72697a656420746f2070756c6c\n        /* \"#utility.yul\":753:754   */\n      0x00\n        /* \"#utility.yul\":745:751   */\n      dup3\n        /* \"#utility.yul\":741:755   */\n      add\n        /* \"#utility.yul\":734:792   */\n      mstore\n        /* \"#utility.yul\":826:837   */\n      0x20796f7572204554480000000000000000000000000000000000000000000000\n        /* \"#utility.yul\":821:823   */\n      0x20\n        /* \"#utility.yul\":813:819   */\n      dup3\n        /* \"#utility.yul\":809:824   */\n      add\n        /* \"#utility.yul\":802:838   */\n      mstore\n        /* \"#utility.yul\":617:845   */\n      pop\n      jump\t// out\n        /* \"#utility.yul\":851:1217   */\n    tag_34:\n        /* \"#utility.yul\":993:996   */\n      0x00\n        /* \"#utility.yul\":1014:1081   */\n      tag_48\n        /* \"#utility.yul\":1078:1080   */\n      0x29\n        /* \"#utility.yul\":1073:1076   */\n      dup4\n        /* \"#utility.yul\":1014:1081   */\n      tag_32\n      jump\t// in\n    tag_48:\n        /* \"#utility.yul\":1007:1081   */\n      swap2\n      pop\n        /* \"#utility.yul\":1090:1183   */\n      tag_49\n        /* \"#utility.yul\":1179:1182   */\n      dup3\n        /* \"#utility.yul\":1090:1183   */\n      tag_33\n      jump\t// in\n    tag_49:\n        /* \"#utility.yul\":1208:1210   */\n      0x40\n        /* \"#utility.yul\":1203:1206   */\n      dup3\n        /* \"#utility.yul\":1199:1211   */\n      add\n        /* \"#utility.yul\":1192:1211   */\n      swap1\n      pop\n        /* \"#utility.yul\":851:1217   */\n      swap2\n      swap1\n      pop\n      jump\t// out\n        /* \"#utility.yul\":1223:1642   */\n    tag_17:\n        /* \"#utility.yul\":1389:1393   */\n      0x00\n        /* \"#utility.yul\":1427:1429   */\n      0x20\n        /* \"#utility.yul\":1416:1425   */\n      dup3\n        /* \"#utility.yul\":1412:1430   */\n      add\n        /* \"#utility.yul\":1404:1430   */\n      swap1\n      pop\n        /* \"#utility.yul\":1476:1485   */\n      dup2\n        /* \"#utility.yul\":1470:1474   */\n      dup2\n        /* \"#utility.yul\":1466:1486   */\n      sub\n        /* \"#utility.yul\":1462:1463   */\n      0x00\n        /* \"#utility.yul\":1451:1460   */\n      dup4\n        /* \"#utility.yul\":1447:1464   */\n      add\n        /* \"#utility.yul\":1440:1487   */\n      mstore\n        /* \"#utility.yul\":1504:1635   */\n      tag_51\n        /* \"#utility.yul\":1630:1634   */\n      dup2\n        /* \"#utility.yul\":1504:1635   */\n      tag_34\n      jump\t// in\n    tag_51:\n        /* \"#utility.yul\":1496:1635   */\n      swap1\n      pop\n        /* \"#utility.yul\":1223:1642   */\n      swap2\n      swap1\n      pop\n      jump\t// out\n        /* \"#utility.yul\":1648:1828   */\n    tag_35:\n        /* \"#utility.yul\":1696:1773   */\n      0x4e487b7100000000000000000000000000000000000000000000000000000000\n        /* \"#utility.yul\":1693:1694   */\n      0x00\n        /* \"#utility.yul\":1686:1774   */\n      mstore\n        /* \"#utility.yul\":1793:1797   */\n      0x12\n        /* \"#utility.yul\":1790:1791   */\n      0x04\n        /* \"#utility.yul\":1783:1798   */\n      mstore\n        /* \"#utility.yul\":1817:1821   */\n      0x24\n        /* \"#utility.yul\":1814:1815   */\n      0x00\n        /* \"#utility.yul\":1807:1822   */\n      revert\n        /* \"#utility.yul\":1834:2014   */\n    tag_36:\n        /* \"#utility.yul\":1882:1959   */\n      0x4e487b7100000000000000000000000000000000000000000000000000000000\n        /* \"#utility.yul\":1879:1880   */\n      0x00\n        /* \"#utility.yul\":1872:1960   */\n      mstore\n        /* \"#utility.yul\":1979:1983   */\n      0x11\n        /* \"#utility.yul\":1976:1977   */\n      0x04\n        /* \"#utility.yul\":1969:1984   */\n      mstore\n        /* \"#utility.yul\":2003:2007   */\n      0x24\n        /* \"#utility.yul\":2000:2001   */\n      0x00\n        /* \"#utility.yul\":1993:2008   */\n      revert\n        /* \"#utility.yul\":2020:2205   */\n    tag_19:\n        /* \"#utility.yul\":2060:2061   */\n      0x00\n        /* \"#utility.yul\":2077:2097   */\n      tag_55\n        /* \"#utility.yul\":2095:2096   */\n      dup3\n        /* \"#utility.yul\":2077:2097   */\n      tag_30\n      jump\t// in\n    tag_55:\n        /* \"#utility.yul\":2072:2097   */\n      swap2\n      pop\n        /* \"#utility.yul\":2111:2131   */\n      tag_56\n        /* \"#utility.yul\":2129:2130   */\n      dup4\n        /* \"#utility.yul\":2111:2131   */\n      tag_30\n      jump\t// in\n    tag_56:\n        /* \"#utility.yul\":2106:2131   */\n      swap3\n      pop\n        /* \"#utility.yul\":2150:2151   */\n      dup3\n        /* \"#utility.yul\":2140:2175   */\n      tag_57\n      jumpi\n        /* \"#utility.yul\":2155:2173   */\n      tag_58\n      tag_35\n      jump\t// in\n    tag_58:\n        /* \"#utility.yul\":2140:2175   */\n    tag_57:\n        /* \"#utility.yul\":2197:2198   */\n      dup3\n        /* \"#utility.yul\":2194:2195   */\n      dup3\n        /* \"#utility.yul\":2190:2199   */\n      div\n        /* \"#utility.yul\":2185:2199   */\n      swap1\n      pop\n        /* \"#utility.yul\":2020:2205   */\n      swap3\n      swap2\n      pop\n      pop\n      jump\t// out\n        /* \"#utility.yul\":2211:2402   */\n    tag_23:\n        /* \"#utility.yul\":2251:2254   */\n      0x00\n        /* \"#utility.yul\":2270:2290   */\n      tag_60\n        /* \"#utility.yul\":2288:2289   */\n      dup3\n        /* \"#utility.yul\":2270:2290   */\n      tag_30\n      jump\t// in\n    tag_60:\n        /* \"#utility.yul\":2265:2290   */\n      swap2\n      pop\n        /* \"#utility.yul\":2304:2324   */\n      tag_61\n        /* \"#utility.yul\":2322:2323   */\n      dup4\n        /* \"#utility.yul\":2304:2324   */\n      tag_30\n      jump\t// in\n    tag_61:\n        /* \"#utility.yul\":2299:2324   */\n      swap3\n      pop\n        /* \"#utility.yul\":2347:2348   */\n      dup3\n        /* \"#utility.yul\":2344:2345   */\n      dup3\n        /* \"#utility.yul\":2340:2349   */\n      add\n        /* \"#utility.yul\":2333:2349   */\n      swap1\n      pop\n        /* \"#utility.yul\":2368:2371   */\n      dup1\n        /* \"#utility.yul\":2365:2366   */\n      dup3\n        /* \"#utility.yul\":2362:2372   */\n      gt\n        /* \"#utility.yul\":2359:2395   */\n      iszero\n      tag_62\n      jumpi\n        /* \"#utility.yul\":2375:2393   */\n      tag_63\n      tag_36\n      jump\t// in\n    tag_63:\n        /* \"#utility.yul\":2359:2395   */\n    tag_62:\n        /* \"#utility.yul\":2211:2402   */\n      swap3\n      swap2\n      pop\n      pop\n      jump\t// out\n        /* \"#utility.yul\":2408:2641   */\n    tag_37:\n        /* \"#utility.yul\":2548:2582   */\n      0x736f72727920696e73756666696369656e742062616c616e6365202c7472616e\n        /* \"#utility.yul\":2544:2545   */\n      0x00\n        /* \"#utility.yul\":2536:2542   */\n      dup3\n        /* \"#utility.yul\":2532:2546   */\n      add\n        /* \"#utility.yul\":2525:2583   */\n      mstore\n        /* \"#utility.yul\":2617:2633   */\n      0x73616374696f6e206661696c6564000000000000000000000000000000000000\n        /* \"#utility.yul\":2612:2614   */\n      0x20\n        /* \"#utility.yul\":2604:2610   */\n      dup3\n        /* \"#utility.yul\":2600:2615   */\n      add\n        /* \"#utility.yul\":2593:2634   */\n      mstore\n        /* \"#utility.yul\":2408:2641   */\n      pop\n      jump\t// out\n        /* \"#utility.yul\":2647:3013   */\n    tag_38:\n        /* \"#utility.yul\":2789:2792   */\n      0x00\n        /* \"#utility.yul\":2810:2877   */\n      tag_66\n        /* \"#utility.yul\":2874:2876   */\n      0x2e\n        /* \"#utility.yul\":2869:2872   */\n      dup4\n        /* \"#utility.yul\":2810:2877   */\n      tag_32\n      jump\t// in\n    tag_66:\n        /* \"#utility.yul\":2803:2877   */\n      swap2\n      pop\n        /* \"#utility.yul\":2886:2979   */\n      tag_67\n        /* \"#utility.yul\":2975:2978   */\n      dup3\n        /* \"#utility.yul\":2886:2979   */\n      tag_37\n      jump\t// in\n    tag_67:\n        /* \"#utility.yul\":3004:3006   */\n      0x40\n        /* \"#utility.yul\":2999:3002   */\n      dup3\n        /* \"#utility.yul\":2995:3007   */\n      add\n        /* \"#utility.yul\":2988:3007   */\n      swap1\n      pop\n        /* \"#utility.yul\":2647:3013   */\n      swap2\n      swap1\n      pop\n      jump\t// out\n        /* \"#utility.yul\":3019:3438   */\n    tag_28:\n        /* \"#utility.yul\":3185:3189   */\n      0x00\n        /* \"#utility.yul\":3223:3225   */\n      0x20\n        /* \"#utility.yul\":3212:3221   */\n      dup3\n        /* \"#utility.yul\":3208:3226   */\n      add\n        /* \"#utility.yul\":3200:3226   */\n      swap1\n      pop\n        /* \"#utility.yul\":3272:3281   */\n      dup2\n        /* \"#utility.yul\":3266:3270   */\n      dup2\n        /* \"#utility.yul\":3262:3282   */\n      sub\n        /* \"#utility.yul\":3258:3259   */\n      0x00\n        /* \"#utility.yul\":3247:3256   */\n      dup4\n        /* \"#utility.yul\":3243:3260   */\n      add\n        /* \"#utility.yul\":3236:3283   */\n      mstore\n        /* \"#utility.yul\":3300:3431   */\n      tag_69\n        /* \"#utility.yul\":3426:3430   */\n      dup2\n        /* \"#utility.yul\":3300:3431   */\n      tag_38\n      jump\t// in\n    tag_69:\n        /* \"#utility.yul\":3292:3431   */\n      swap1\n      pop\n        /* \"#utility.yul\":3019:3438   */\n      swap2\n      swap1\n      pop\n      jump\t// out\n\n    auxdata: 0xa26469706673582212200dc04b1b9dd81c43dbb843948ca8c30e92efe48d02623d07cdc8cc93fea56c0b64736f6c63430008130033\n}\n",
				"bytecode": {
					"linkReferences": {},
					"object": "608060405234801561001057600080fd5b50336000806101000a81548173ffffffffffffffffffffffffffffffffffffffff021916908373ffffffffffffffffffffffffffffffffffffffff1602179055506104b5806100606000396000f3fe6080604052600436106100345760003560e01c806357ea89b614610039578063782616b014610043578063da68b4b41461006e575b600080fd5b610041610078565b005b34801561004f57600080fd5b506100586101a7565b604051610065919061026c565b60405180910390f35b6100766101b1565b005b6000600160003373ffffffffffffffffffffffffffffffffffffffff1673ffffffffffffffffffffffffffffffffffffffff16815260200190815260200160002054116100fa576040517f08c379a00000000000000000000000000000000000000000000000000000000081526004016100f19061030a565b60405180910390fd5b3373ffffffffffffffffffffffffffffffffffffffff166108fc6002600160003373ffffffffffffffffffffffffffffffffffffffff1673ffffffffffffffffffffffffffffffffffffffff168152602001908152602001600020546101609190610388565b9081150290604051600060405180830381858888f1935050505015801561018b573d6000803e3d6000fd5b50346002600082825461019e91906103b9565b92505081905550565b6000600254905090565b600034116101f4576040517f08c379a00000000000000000000000000000000000000000000000000000000081526004016101eb9061045f565b60405180910390fd5b34600160003373ffffffffffffffffffffffffffffffffffffffff1673ffffffffffffffffffffffffffffffffffffffff16815260200190815260200160002081905550346002600082825461024a91906103b9565b92505081905550565b6000819050919050565b61026681610253565b82525050565b6000602082019050610281600083018461025d565b92915050565b600082825260208201905092915050565b7f736f72727920796f752061726520617574686f72697a656420746f2070756c6c60008201527f20796f7572204554480000000000000000000000000000000000000000000000602082015250565b60006102f4602983610287565b91506102ff82610298565b604082019050919050565b60006020820190508181036000830152610323816102e7565b9050919050565b7f4e487b7100000000000000000000000000000000000000000000000000000000600052601260045260246000fd5b7f4e487b7100000000000000000000000000000000000000000000000000000000600052601160045260246000fd5b600061039382610253565b915061039e83610253565b9250826103ae576103ad61032a565b5b828204905092915050565b60006103c482610253565b91506103cf83610253565b92508282019050808211156103e7576103e6610359565b5b92915050565b7f736f72727920696e73756666696369656e742062616c616e6365202c7472616e60008201527f73616374696f6e206661696c6564000000000000000000000000000000000000602082015250565b6000610449602e83610287565b9150610454826103ed565b604082019050919050565b600060208201905081810360008301526104788161043c565b905091905056fea26469706673582212200dc04b1b9dd81c43dbb843948ca8c30e92efe48d02623d07cdc8cc93fea56c0b64736f6c63430008130033",
					"opcodes": "PUSH1 0x80 PUSH1 0x40 MSTORE CALLVALUE DUP1 ISZERO PUSH2 0x10 JUMPI PUSH1 0x0 DUP1 REVERT JUMPDEST POP CALLER PUSH1 0x0 DUP1 PUSH2 0x100 EXP DUP2 SLOAD DUP2 PUSH20 0xFFFFFFFFFFFFFFFFFFFFFFFFFFFFFFFFFFFFFFFF MUL NOT AND SWAP1 DUP4 PUSH20 0xFFFFFFFFFFFFFFFFFFFFFFFFFFFFFFFFFFFFFFFF AND MUL OR SWAP1 SSTORE POP PUSH2 0x4B5 DUP1 PUSH2 0x60 PUSH1 0x0 CODECOPY PUSH1 0x0 RETURN INVALID PUSH1 0x80 PUSH1 0x40 MSTORE PUSH1 0x4 CALLDATASIZE LT PUSH2 0x34 JUMPI PUSH1 0x0 CALLDATALOAD PUSH1 0xE0 SHR DUP1 PUSH4 0x57EA89B6 EQ PUSH2 0x39 JUMPI DUP1 PUSH4 0x782616B0 EQ PUSH2 0x43 JUMPI DUP1 PUSH4 0xDA68B4B4 EQ PUSH2 0x6E JUMPI JUMPDEST PUSH1 0x0 DUP1 REVERT JUMPDEST PUSH2 0x41 PUSH2 0x78 JUMP JUMPDEST STOP JUMPDEST CALLVALUE DUP1 ISZERO PUSH2 0x4F JUMPI PUSH1 0x0 DUP1 REVERT JUMPDEST POP PUSH2 0x58 PUSH2 0x1A7 JUMP JUMPDEST PUSH1 0x40 MLOAD PUSH2 0x65 SWAP2 SWAP1 PUSH2 0x26C JUMP JUMPDEST PUSH1 0x40 MLOAD DUP1 SWAP2 SUB SWAP1 RETURN JUMPDEST PUSH2 0x76 PUSH2 0x1B1 JUMP JUMPDEST STOP JUMPDEST PUSH1 0x0 PUSH1 0x1 PUSH1 0x0 CALLER PUSH20 0xFFFFFFFFFFFFFFFFFFFFFFFFFFFFFFFFFFFFFFFF AND PUSH20 0xFFFFFFFFFFFFFFFFFFFFFFFFFFFFFFFFFFFFFFFF AND DUP2 MSTORE PUSH1 0x20 ADD SWAP1 DUP2 MSTORE PUSH1 0x20 ADD PUSH1 0x0 KECCAK256 SLOAD GT PUSH2 0xFA JUMPI PUSH1 0x40 MLOAD PUSH32 0x8C379A000000000000000000000000000000000000000000000000000000000 DUP2 MSTORE PUSH1 0x4 ADD PUSH2 0xF1 SWAP1 PUSH2 0x30A JUMP JUMPDEST PUSH1 0x40 MLOAD DUP1 SWAP2 SUB SWAP1 REVERT JUMPDEST CALLER PUSH20 0xFFFFFFFFFFFFFFFFFFFFFFFFFFFFFFFFFFFFFFFF AND PUSH2 0x8FC PUSH1 0x2 PUSH1 0x1 PUSH1 0x0 CALLER PUSH20 0xFFFFFFFFFFFFFFFFFFFFFFFFFFFFFFFFFFFFFFFF AND PUSH20 0xFFFFFFFFFFFFFFFFFFFFFFFFFFFFFFFFFFFFFFFF AND DUP2 MSTORE PUSH1 0x20 ADD SWAP1 DUP2 MSTORE PUSH1 0x20 ADD PUSH1 0x0 KECCAK256 SLOAD PUSH2 0x160 SWAP2 SWAP1 PUSH2 0x388 JUMP JUMPDEST SWAP1 DUP2 ISZERO MUL SWAP1 PUSH1 0x40 MLOAD PUSH1 0x0 PUSH1 0x40 MLOAD DUP1 DUP4 SUB DUP2 DUP6 DUP9 DUP9 CALL SWAP4 POP POP POP POP ISZERO DUP1 ISZERO PUSH2 0x18B JUMPI RETURNDATASIZE PUSH1 0x0 DUP1 RETURNDATACOPY RETURNDATASIZE PUSH1 0x0 REVERT JUMPDEST POP CALLVALUE PUSH1 0x2 PUSH1 0x0 DUP3 DUP3 SLOAD PUSH2 0x19E SWAP2 SWAP1 PUSH2 0x3B9 JUMP JUMPDEST SWAP3 POP POP DUP2 SWAP1 SSTORE POP JUMP JUMPDEST PUSH1 0x0 PUSH1 0x2 SLOAD SWAP1 POP SWAP1 JUMP JUMPDEST PUSH1 0x0 CALLVALUE GT PUSH2 0x1F4 JUMPI PUSH1 0x40 MLOAD PUSH32 0x8C379A000000000000000000000000000000000000000000000000000000000 DUP2 MSTORE PUSH1 0x4 ADD PUSH2 0x1EB SWAP1 PUSH2 0x45F JUMP JUMPDEST PUSH1 0x40 MLOAD DUP1 SWAP2 SUB SWAP1 REVERT JUMPDEST CALLVALUE PUSH1 0x1 PUSH1 0x0 CALLER PUSH20 0xFFFFFFFFFFFFFFFFFFFFFFFFFFFFFFFFFFFFFFFF AND PUSH20 0xFFFFFFFFFFFFFFFFFFFFFFFFFFFFFFFFFFFFFFFF AND DUP2 MSTORE PUSH1 0x20 ADD SWAP1 DUP2 MSTORE PUSH1 0x20 ADD PUSH1 0x0 KECCAK256 DUP2 SWAP1 SSTORE POP CALLVALUE PUSH1 0x2 PUSH1 0x0 DUP3 DUP3 SLOAD PUSH2 0x24A SWAP2 SWAP1 PUSH2 0x3B9 JUMP JUMPDEST SWAP3 POP POP DUP2 SWAP1 SSTORE POP JUMP JUMPDEST PUSH1 0x0 DUP2 SWAP1 POP SWAP2 SWAP1 POP JUMP JUMPDEST PUSH2 0x266 DUP2 PUSH2 0x253 JUMP JUMPDEST DUP3 MSTORE POP POP JUMP JUMPDEST PUSH1 0x0 PUSH1 0x20 DUP3 ADD SWAP1 POP PUSH2 0x281 PUSH1 0x0 DUP4 ADD DUP5 PUSH2 0x25D JUMP JUMPDEST SWAP3 SWAP2 POP POP JUMP JUMPDEST PUSH1 0x0 DUP3 DUP3 MSTORE PUSH1 0x20 DUP3 ADD SWAP1 POP SWAP3 SWAP2 POP POP JUMP JUMPDEST PUSH32 0x736F72727920796F752061726520617574686F72697A656420746F2070756C6C PUSH1 0x0 DUP3 ADD MSTORE PUSH32 0x20796F7572204554480000000000000000000000000000000000000000000000 PUSH1 0x20 DUP3 ADD MSTORE POP JUMP JUMPDEST PUSH1 0x0 PUSH2 0x2F4 PUSH1 0x29 DUP4 PUSH2 0x287 JUMP JUMPDEST SWAP2 POP PUSH2 0x2FF DUP3 PUSH2 0x298 JUMP JUMPDEST PUSH1 0x40 DUP3 ADD SWAP1 POP SWAP2 SWAP1 POP JUMP JUMPDEST PUSH1 0x0 PUSH1 0x20 DUP3 ADD SWAP1 POP DUP2 DUP2 SUB PUSH1 0x0 DUP4 ADD MSTORE PUSH2 0x323 DUP2 PUSH2 0x2E7 JUMP JUMPDEST SWAP1 POP SWAP2 SWAP1 POP JUMP JUMPDEST PUSH32 0x4E487B7100000000000000000000000000000000000000000000000000000000 PUSH1 0x0 MSTORE PUSH1 0x12 PUSH1 0x4 MSTORE PUSH1 0x24 PUSH1 0x0 REVERT JUMPDEST PUSH32 0x4E487B7100000000000000000000000000000000000000000000000000000000 PUSH1 0x0 MSTORE PUSH1 0x11 PUSH1 0x4 MSTORE PUSH1 0x24 PUSH1 0x0 REVERT JUMPDEST PUSH1 0x0 PUSH2 0x393 DUP3 PUSH2 0x253 JUMP JUMPDEST SWAP2 POP PUSH2 0x39E DUP4 PUSH2 0x253 JUMP JUMPDEST SWAP3 POP DUP3 PUSH2 0x3AE JUMPI PUSH2 0x3AD PUSH2 0x32A JUMP JUMPDEST JUMPDEST DUP3 DUP3 DIV SWAP1 POP SWAP3 SWAP2 POP POP JUMP JUMPDEST PUSH1 0x0 PUSH2 0x3C4 DUP3 PUSH2 0x253 JUMP JUMPDEST SWAP2 POP PUSH2 0x3CF DUP4 PUSH2 0x253 JUMP JUMPDEST SWAP3 POP DUP3 DUP3 ADD SWAP1 POP DUP1 DUP3 GT ISZERO PUSH2 0x3E7 JUMPI PUSH2 0x3E6 PUSH2 0x359 JUMP JUMPDEST JUMPDEST SWAP3 SWAP2 POP POP JUMP JUMPDEST PUSH32 0x736F72727920696E73756666696369656E742062616C616E6365202C7472616E PUSH1 0x0 DUP3 ADD MSTORE PUSH32 0x73616374696F6E206661696C6564000000000000000000000000000000000000 PUSH1 0x20 DUP3 ADD MSTORE POP JUMP JUMPDEST PUSH1 0x0 PUSH2 0x449 PUSH1 0x2E DUP4 PUSH2 0x287 JUMP JUMPDEST SWAP2 POP PUSH2 0x454 DUP3 PUSH2 0x3ED JUMP JUMPDEST PUSH1 0x40 DUP3 ADD SWAP1 POP SWAP2 SWAP1 POP JUMP JUMPDEST PUSH1 0x0 PUSH1 0x20 DUP3 ADD SWAP1 POP DUP2 DUP2 SUB PUSH1 0x0 DUP4 ADD MSTORE PUSH2 0x478 DUP2 PUSH2 0x43C JUMP JUMPDEST SWAP1 POP SWAP2 SWAP1 POP JUMP INVALID LOG2 PUSH5 0x6970667358 0x22 SLT KECCAK256 0xD 0xC0 0x4B SHL SWAP14 0xD8 SHR NUMBER 0xDB 0xB8 NUMBER SWAP5 DUP13 0xA8 0xC3 0xE SWAP3 0xEF 0xE4 DUP14 MUL PUSH3 0x3D07CD 0xC8 0xCC SWAP4 INVALID 0xA5 PUSH13 0xB64736F6C6343000813003300 "
				},
				"gasEstimates": {
					"creation": {
						"codeDepositCost": "241000",
						"executionCost": "24547",
						"totalCost": "265547"
					},
					"external": {
						"Deposite()": "infinite",
						"Total_balance()": "2437",
						"Withdraw()": "infinite"
					}
				},
				"methodIdentifiers": {
					"Deposite()": "da68b4b4",
					"Total_balance()": "782616b0",
					"Withdraw()": "57ea89b6"
				}
			},
			"storageLayout": {
				"storage": [
					{
						"astId": 3,
						"contract": "contracts/Staking.sol:StakeETh",
						"label": "owner",
						"offset": 0,
						"slot": "0",
						"type": "t_address"
					},
					{
						"astId": 7,
						"contract": "contracts/Staking.sol:StakeETh",
						"label": "Deposite_book",
						"offset": 0,
						"slot": "1",
						"type": "t_mapping(t_address,t_uint256)"
					},
					{
						"astId": 9,
						"contract": "contracts/Staking.sol:StakeETh",
						"label": "total_balance",
						"offset": 0,
						"slot": "2",
						"type": "t_uint256"
					}
				],
				"types": {
					"t_address": {
						"encoding": "inplace",
						"label": "address",
						"numberOfBytes": "20"
					},
					"t_mapping(t_address,t_uint256)": {
						"encoding": "mapping",
						"key": "t_address",
						"label": "mapping(address => uint256)",
						"numberOfBytes": "32",
						"value": "t_uint256"
					},
					"t_uint256": {
						"encoding": "inplace",
						"label": "uint256",
						"numberOfBytes": "32"
					}
				}
			},
			"userdoc": {
				"kind": "user",
				"methods": {},
				"version": 1
			}
		}
	}
}