{
	"contracts/FeedData.sol": {
		"PriceConsumer": {
			"abi": [
				{
					"inputs": [],
					"stateMutability": "nonpayable",
					"type": "constructor"
				},
				{
					"inputs": [],
					"name": "getDecimals",
					"outputs": [
						{
							"internalType": "uint8",
							"name": "",
							"type": "uint8"
						}
					],
					"stateMutability": "view",
					"type": "function"
				},
				{
					"inputs": [],
					"name": "getDescription",
					"outputs": [
						{
							"internalType": "string",
							"name": "",
							"type": "string"
						}
					],
					"stateMutability": "view",
					"type": "function"
				},
				{
					"inputs": [],
					"name": "getLatestPrice",
					"outputs": [
						{
							"internalType": "int256",
							"name": "",
							"type": "int256"
						}
					],
					"stateMutability": "view",
					"type": "function"
				},
				{
					"inputs": [],
					"name": "getVersion",
					"outputs": [
						{
							"internalType": "uint256",
							"name": "",
							"type": "uint256"
						}
					],
					"stateMutability": "view",
					"type": "function"
				},
				{
					"inputs": [],
					"name": "latestRoundData",
					"outputs": [
						{
							"internalType": "uint80",
							"name": "roundId",
							"type": "uint80"
						},
						{
							"internalType": "int256",
							"name": "answer",
							"type": "int256"
						},
						{
							"internalType": "uint256",
							"name": "startedAt",
							"type": "uint256"
						},
						{
							"internalType": "uint256",
							"name": "updatedAt",
							"type": "uint256"
						},
						{
							"internalType": "uint80",
							"name": "answeredInRound",
							"type": "uint80"
						}
					],
					"stateMutability": "view",
					"type": "function"
				}
			],
			"devdoc": {
				"kind": "dev",
				"methods": {},
				"version": 1
			},
			"evm": {
				"assembly": "    /* \"contracts/FeedData.sol\":617:1829  contract PriceConsumer {... */\n  mstore(0x40, 0x80)\n    /* \"contracts/FeedData.sol\":822:930  constructor() {... */\n  callvalue\n  dup1\n  iszero\n  tag_1\n  jumpi\n  revert(0x00, 0x00)\ntag_1:\n  pop\n    /* \"contracts/FeedData.sol\":880:922  0x694AA1769357215DE4FAC081bf1f309aDC325306 */\n  0x694aa1769357215de4fac081bf1f309adc325306\n    /* \"contracts/FeedData.sol\":846:855  priceFeed */\n  0x00\n  0x00\n    /* \"contracts/FeedData.sol\":846:923  priceFeed = AggregatorV3Interface(0x694AA1769357215DE4FAC081bf1f309aDC325306) */\n  0x0100\n  exp\n  dup2\n  sload\n  dup2\n  0xffffffffffffffffffffffffffffffffffffffff\n  mul\n  not\n  and\n  swap1\n  dup4\n  0xffffffffffffffffffffffffffffffffffffffff\n  and\n  mul\n  or\n  swap1\n  sstore\n  pop\n    /* \"contracts/FeedData.sol\":617:1829  contract PriceConsumer {... */\n  dataSize(sub_0)\n  dup1\n  dataOffset(sub_0)\n  0x00\n  codecopy\n  0x00\n  return\nstop\n\nsub_0: assembly {\n        /* \"contracts/FeedData.sol\":617:1829  contract PriceConsumer {... */\n      mstore(0x40, 0x80)\n      callvalue\n      dup1\n      iszero\n      tag_1\n      jumpi\n      revert(0x00, 0x00)\n    tag_1:\n      pop\n      jumpi(tag_2, lt(calldatasize, 0x04))\n      shr(0xe0, calldataload(0x00))\n      dup1\n      0x0d8e6e2c\n      eq\n      tag_3\n      jumpi\n      dup1\n      0x1a092541\n      eq\n      tag_4\n      jumpi\n      dup1\n      0x8e15f473\n      eq\n      tag_5\n      jumpi\n      dup1\n      0xf0141d84\n      eq\n      tag_6\n      jumpi\n      dup1\n      0xfeaf968c\n      eq\n      tag_7\n      jumpi\n    tag_2:\n      revert(0x00, 0x00)\n        /* \"contracts/FeedData.sol\":1472:1567  function getVersion() public view returns (uint256) {... */\n    tag_3:\n      tag_8\n      tag_9\n      jump\t// in\n    tag_8:\n      mload(0x40)\n      tag_10\n      swap2\n      swap1\n      tag_11\n      jump\t// in\n    tag_10:\n      mload(0x40)\n      dup1\n      swap2\n      sub\n      swap1\n      return\n        /* \"contracts/FeedData.sol\":940:1049  function getDescription() public view returns (string memory) {... */\n    tag_4:\n      tag_12\n      tag_13\n      jump\t// in\n    tag_12:\n      mload(0x40)\n      tag_14\n      swap2\n      swap1\n      tag_15\n      jump\t// in\n    tag_14:\n      mload(0x40)\n      dup1\n      swap2\n      sub\n      swap1\n      return\n        /* \"contracts/FeedData.sol\":1059:1357  function getLatestPrice() public view returns (int) {... */\n    tag_5:\n      tag_16\n      tag_17\n      jump\t// in\n    tag_16:\n      mload(0x40)\n      tag_18\n      swap2\n      swap1\n      tag_19\n      jump\t// in\n    tag_18:\n      mload(0x40)\n      dup1\n      swap2\n      sub\n      swap1\n      return\n        /* \"contracts/FeedData.sol\":1367:1462  function getDecimals() public view returns (uint8) {... */\n    tag_6:\n      tag_20\n      tag_21\n      jump\t// in\n    tag_20:\n      mload(0x40)\n      tag_22\n      swap2\n      swap1\n      tag_23\n      jump\t// in\n    tag_22:\n      mload(0x40)\n      dup1\n      swap2\n      sub\n      swap1\n      return\n        /* \"contracts/FeedData.sol\":1577:1817  function latestRoundData() external view returns (... */\n    tag_7:\n      tag_24\n      tag_25\n      jump\t// in\n    tag_24:\n      mload(0x40)\n      tag_26\n      swap6\n      swap5\n      swap4\n      swap3\n      swap2\n      swap1\n      tag_27\n      jump\t// in\n    tag_26:\n      mload(0x40)\n      dup1\n      swap2\n      sub\n      swap1\n      return\n        /* \"contracts/FeedData.sol\":1472:1567  function getVersion() public view returns (uint256) {... */\n    tag_9:\n        /* \"contracts/FeedData.sol\":1515:1522  uint256 */\n      0x00\n        /* \"contracts/FeedData.sol\":1541:1550  priceFeed */\n      0x00\n      0x00\n      swap1\n      sload\n      swap1\n      0x0100\n      exp\n      swap1\n      div\n      0xffffffffffffffffffffffffffffffffffffffff\n      and\n        /* \"contracts/FeedData.sol\":1541:1558  priceFeed.version */\n      0xffffffffffffffffffffffffffffffffffffffff\n      and\n      0x54fd4d50\n        /* \"contracts/FeedData.sol\":1541:1560  priceFeed.version() */\n      mload(0x40)\n      dup2\n      0xffffffff\n      and\n      0xe0\n      shl\n      dup2\n      mstore\n      0x04\n      add\n      0x20\n      mload(0x40)\n      dup1\n      dup4\n      sub\n      dup2\n      dup7\n      gas\n      staticcall\n      iszero\n      dup1\n      iszero\n      tag_30\n      jumpi\n      returndatacopy(0x00, 0x00, returndatasize)\n      revert(0x00, returndatasize)\n    tag_30:\n      pop\n      pop\n      pop\n      pop\n      mload(0x40)\n      returndatasize\n      not(0x1f)\n      0x1f\n      dup3\n      add\n      and\n      dup3\n      add\n      dup1\n      0x40\n      mstore\n      pop\n      dup2\n      add\n      swap1\n      tag_31\n      swap2\n      swap1\n      tag_32\n      jump\t// in\n    tag_31:\n        /* \"contracts/FeedData.sol\":1534:1560  return priceFeed.version() */\n      swap1\n      pop\n        /* \"contracts/FeedData.sol\":1472:1567  function getVersion() public view returns (uint256) {... */\n      swap1\n      jump\t// out\n        /* \"contracts/FeedData.sol\":940:1049  function getDescription() public view returns (string memory) {... */\n    tag_13:\n        /* \"contracts/FeedData.sol\":987:1000  string memory */\n      0x60\n        /* \"contracts/FeedData.sol\":1019:1028  priceFeed */\n      0x00\n      0x00\n      swap1\n      sload\n      swap1\n      0x0100\n      exp\n      swap1\n      div\n      0xffffffffffffffffffffffffffffffffffffffff\n      and\n        /* \"contracts/FeedData.sol\":1019:1040  priceFeed.description */\n      0xffffffffffffffffffffffffffffffffffffffff\n      and\n      0x7284e416\n        /* \"contracts/FeedData.sol\":1019:1042  priceFeed.description() */\n      mload(0x40)\n      dup2\n      0xffffffff\n      and\n      0xe0\n      shl\n      dup2\n      mstore\n      0x04\n      add\n      0x00\n      mload(0x40)\n      dup1\n      dup4\n      sub\n      dup2\n      dup7\n      gas\n      staticcall\n      iszero\n      dup1\n      iszero\n      tag_35\n      jumpi\n      returndatacopy(0x00, 0x00, returndatasize)\n      revert(0x00, returndatasize)\n    tag_35:\n      pop\n      pop\n      pop\n      pop\n      mload(0x40)\n      returndatasize\n      0x00\n      dup3\n      returndatacopy\n      returndatasize\n      not(0x1f)\n      0x1f\n      dup3\n      add\n      and\n      dup3\n      add\n      dup1\n      0x40\n      mstore\n      pop\n      dup2\n      add\n      swap1\n      tag_36\n      swap2\n      swap1\n      tag_37\n      jump\t// in\n    tag_36:\n        /* \"contracts/FeedData.sol\":1012:1042  return priceFeed.description() */\n      swap1\n      pop\n        /* \"contracts/FeedData.sol\":940:1049  function getDescription() public view returns (string memory) {... */\n      swap1\n      jump\t// out\n        /* \"contracts/FeedData.sol\":1059:1357  function getLatestPrice() public view returns (int) {... */\n    tag_17:\n        /* \"contracts/FeedData.sol\":1106:1109  int */\n      0x00\n        /* \"contracts/FeedData.sol\":1169:1178  int price */\n      0x00\n        /* \"contracts/FeedData.sol\":1301:1310  priceFeed */\n      0x00\n      0x00\n      swap1\n      sload\n      swap1\n      0x0100\n      exp\n      swap1\n      div\n      0xffffffffffffffffffffffffffffffffffffffff\n      and\n        /* \"contracts/FeedData.sol\":1301:1326  priceFeed.latestRoundData */\n      0xffffffffffffffffffffffffffffffffffffffff\n      and\n      0xfeaf968c\n        /* \"contracts/FeedData.sol\":1301:1328  priceFeed.latestRoundData() */\n      mload(0x40)\n      dup2\n      0xffffffff\n      and\n      0xe0\n      shl\n      dup2\n      mstore\n      0x04\n      add\n      0xa0\n      mload(0x40)\n      dup1\n      dup4\n      sub\n      dup2\n      dup7\n      gas\n      staticcall\n      iszero\n      dup1\n      iszero\n      tag_40\n      jumpi\n      returndatacopy(0x00, 0x00, returndatasize)\n      revert(0x00, returndatasize)\n    tag_40:\n      pop\n      pop\n      pop\n      pop\n      mload(0x40)\n      returndatasize\n      not(0x1f)\n      0x1f\n      dup3\n      add\n      and\n      dup3\n      add\n      dup1\n      0x40\n      mstore\n      pop\n      dup2\n      add\n      swap1\n      tag_41\n      swap2\n      swap1\n      tag_42\n      jump\t// in\n    tag_41:\n        /* \"contracts/FeedData.sol\":1121:1328  (... */\n      pop\n      pop\n      pop\n      swap2\n      pop\n      pop\n        /* \"contracts/FeedData.sol\":1345:1350  price */\n      dup1\n        /* \"contracts/FeedData.sol\":1338:1350  return price */\n      swap2\n      pop\n      pop\n        /* \"contracts/FeedData.sol\":1059:1357  function getLatestPrice() public view returns (int) {... */\n      swap1\n      jump\t// out\n        /* \"contracts/FeedData.sol\":1367:1462  function getDecimals() public view returns (uint8) {... */\n    tag_21:\n        /* \"contracts/FeedData.sol\":1411:1416  uint8 */\n      0x00\n        /* \"contracts/FeedData.sol\":1435:1444  priceFeed */\n      0x00\n      0x00\n      swap1\n      sload\n      swap1\n      0x0100\n      exp\n      swap1\n      div\n      0xffffffffffffffffffffffffffffffffffffffff\n      and\n        /* \"contracts/FeedData.sol\":1435:1453  priceFeed.decimals */\n      0xffffffffffffffffffffffffffffffffffffffff\n      and\n      0x313ce567\n        /* \"contracts/FeedData.sol\":1435:1455  priceFeed.decimals() */\n      mload(0x40)\n      dup2\n      0xffffffff\n      and\n      0xe0\n      shl\n      dup2\n      mstore\n      0x04\n      add\n      0x20\n      mload(0x40)\n      dup1\n      dup4\n      sub\n      dup2\n      dup7\n      gas\n      staticcall\n      iszero\n      dup1\n      iszero\n      tag_45\n      jumpi\n      returndatacopy(0x00, 0x00, returndatasize)\n      revert(0x00, returndatasize)\n    tag_45:\n      pop\n      pop\n      pop\n      pop\n      mload(0x40)\n      returndatasize\n      not(0x1f)\n      0x1f\n      dup3\n      add\n      and\n      dup3\n      add\n      dup1\n      0x40\n      mstore\n      pop\n      dup2\n      add\n      swap1\n      tag_46\n      swap2\n      swap1\n      tag_47\n      jump\t// in\n    tag_46:\n        /* \"contracts/FeedData.sol\":1428:1455  return priceFeed.decimals() */\n      swap1\n      pop\n        /* \"contracts/FeedData.sol\":1367:1462  function getDecimals() public view returns (uint8) {... */\n      swap1\n      jump\t// out\n        /* \"contracts/FeedData.sol\":1577:1817  function latestRoundData() external view returns (... */\n    tag_25:\n        /* \"contracts/FeedData.sol\":1636:1650  uint80 roundId */\n      0x00\n        /* \"contracts/FeedData.sol\":1660:1673  int256 answer */\n      0x00\n        /* \"contracts/FeedData.sol\":1683:1700  uint256 startedAt */\n      0x00\n        /* \"contracts/FeedData.sol\":1710:1727  uint256 updatedAt */\n      0x00\n        /* \"contracts/FeedData.sol\":1737:1759  uint80 answeredInRound */\n      0x00\n        /* \"contracts/FeedData.sol\":1783:1792  priceFeed */\n      0x00\n      0x00\n      swap1\n      sload\n      swap1\n      0x0100\n      exp\n      swap1\n      div\n      0xffffffffffffffffffffffffffffffffffffffff\n      and\n        /* \"contracts/FeedData.sol\":1783:1808  priceFeed.latestRoundData */\n      0xffffffffffffffffffffffffffffffffffffffff\n      and\n      0xfeaf968c\n        /* \"contracts/FeedData.sol\":1783:1810  priceFeed.latestRoundData() */\n      mload(0x40)\n      dup2\n      0xffffffff\n      and\n      0xe0\n      shl\n      dup2\n      mstore\n      0x04\n      add\n      0xa0\n      mload(0x40)\n      dup1\n      dup4\n      sub\n      dup2\n      dup7\n      gas\n      staticcall\n      iszero\n      dup1\n      iszero\n      tag_50\n      jumpi\n      returndatacopy(0x00, 0x00, returndatasize)\n      revert(0x00, returndatasize)\n    tag_50:\n      pop\n      pop\n      pop\n      pop\n      mload(0x40)\n      returndatasize\n      not(0x1f)\n      0x1f\n      dup3\n      add\n      and\n      dup3\n      add\n      dup1\n      0x40\n      mstore\n      pop\n      dup2\n      add\n      swap1\n      tag_51\n      swap2\n      swap1\n      tag_42\n      jump\t// in\n    tag_51:\n        /* \"contracts/FeedData.sol\":1776:1810  return priceFeed.latestRoundData() */\n      swap5\n      pop\n      swap5\n      pop\n      swap5\n      pop\n      swap5\n      pop\n      swap5\n      pop\n        /* \"contracts/FeedData.sol\":1577:1817  function latestRoundData() external view returns (... */\n      swap1\n      swap2\n      swap3\n      swap4\n      swap5\n      jump\t// out\n        /* \"#utility.yul\":7:84   */\n    tag_52:\n        /* \"#utility.yul\":44:51   */\n      0x00\n        /* \"#utility.yul\":73:78   */\n      dup2\n        /* \"#utility.yul\":62:78   */\n      swap1\n      pop\n        /* \"#utility.yul\":7:84   */\n      swap2\n      swap1\n      pop\n      jump\t// out\n        /* \"#utility.yul\":90:208   */\n    tag_53:\n        /* \"#utility.yul\":177:201   */\n      tag_87\n        /* \"#utility.yul\":195:200   */\n      dup2\n        /* \"#utility.yul\":177:201   */\n      tag_52\n      jump\t// in\n    tag_87:\n        /* \"#utility.yul\":172:175   */\n      dup3\n        /* \"#utility.yul\":165:202   */\n      mstore\n        /* \"#utility.yul\":90:208   */\n      pop\n      pop\n      jump\t// out\n        /* \"#utility.yul\":214:436   */\n    tag_11:\n        /* \"#utility.yul\":307:311   */\n      0x00\n        /* \"#utility.yul\":345:347   */\n      0x20\n        /* \"#utility.yul\":334:343   */\n      dup3\n        /* \"#utility.yul\":330:348   */\n      add\n        /* \"#utility.yul\":322:348   */\n      swap1\n      pop\n        /* \"#utility.yul\":358:429   */\n      tag_89\n        /* \"#utility.yul\":426:427   */\n      0x00\n        /* \"#utility.yul\":415:424   */\n      dup4\n        /* \"#utility.yul\":411:428   */\n      add\n        /* \"#utility.yul\":402:408   */\n      dup5\n        /* \"#utility.yul\":358:429   */\n      tag_53\n      jump\t// in\n    tag_89:\n        /* \"#utility.yul\":214:436   */\n      swap3\n      swap2\n      pop\n      pop\n      jump\t// out\n        /* \"#utility.yul\":442:541   */\n    tag_54:\n        /* \"#utility.yul\":494:500   */\n      0x00\n        /* \"#utility.yul\":528:533   */\n      dup2\n        /* \"#utility.yul\":522:534   */\n      mload\n        /* \"#utility.yul\":512:534   */\n      swap1\n      pop\n        /* \"#utility.yul\":442:541   */\n      swap2\n      swap1\n      pop\n      jump\t// out\n        /* \"#utility.yul\":547:716   */\n    tag_55:\n        /* \"#utility.yul\":631:642   */\n      0x00\n        /* \"#utility.yul\":665:671   */\n      dup3\n        /* \"#utility.yul\":660:663   */\n      dup3\n        /* \"#utility.yul\":653:672   */\n      mstore\n        /* \"#utility.yul\":705:709   */\n      0x20\n        /* \"#utility.yul\":700:703   */\n      dup3\n        /* \"#utility.yul\":696:710   */\n      add\n        /* \"#utility.yul\":681:710   */\n      swap1\n      pop\n        /* \"#utility.yul\":547:716   */\n      swap3\n      swap2\n      pop\n      pop\n      jump\t// out\n        /* \"#utility.yul\":722:861   */\n    tag_56:\n        /* \"#utility.yul\":811:817   */\n      dup3\n        /* \"#utility.yul\":806:809   */\n      dup2\n        /* \"#utility.yul\":801:804   */\n      dup4\n        /* \"#utility.yul\":795:818   */\n      mcopy\n        /* \"#utility.yul\":852:853   */\n      0x00\n        /* \"#utility.yul\":843:849   */\n      dup4\n        /* \"#utility.yul\":838:841   */\n      dup4\n        /* \"#utility.yul\":834:850   */\n      add\n        /* \"#utility.yul\":827:854   */\n      mstore\n        /* \"#utility.yul\":722:861   */\n      pop\n      pop\n      pop\n      jump\t// out\n        /* \"#utility.yul\":867:969   */\n    tag_57:\n        /* \"#utility.yul\":908:914   */\n      0x00\n        /* \"#utility.yul\":959:961   */\n      0x1f\n        /* \"#utility.yul\":955:962   */\n      not\n        /* \"#utility.yul\":950:952   */\n      0x1f\n        /* \"#utility.yul\":943:948   */\n      dup4\n        /* \"#utility.yul\":939:953   */\n      add\n        /* \"#utility.yul\":935:963   */\n      and\n        /* \"#utility.yul\":925:963   */\n      swap1\n      pop\n        /* \"#utility.yul\":867:969   */\n      swap2\n      swap1\n      pop\n      jump\t// out\n        /* \"#utility.yul\":975:1352   */\n    tag_58:\n        /* \"#utility.yul\":1063:1066   */\n      0x00\n        /* \"#utility.yul\":1091:1130   */\n      tag_95\n        /* \"#utility.yul\":1124:1129   */\n      dup3\n        /* \"#utility.yul\":1091:1130   */\n      tag_54\n      jump\t// in\n    tag_95:\n        /* \"#utility.yul\":1146:1217   */\n      tag_96\n        /* \"#utility.yul\":1210:1216   */\n      dup2\n        /* \"#utility.yul\":1205:1208   */\n      dup6\n        /* \"#utility.yul\":1146:1217   */\n      tag_55\n      jump\t// in\n    tag_96:\n        /* \"#utility.yul\":1139:1217   */\n      swap4\n      pop\n        /* \"#utility.yul\":1226:1291   */\n      tag_97\n        /* \"#utility.yul\":1284:1290   */\n      dup2\n        /* \"#utility.yul\":1279:1282   */\n      dup6\n        /* \"#utility.yul\":1272:1276   */\n      0x20\n        /* \"#utility.yul\":1265:1270   */\n      dup7\n        /* \"#utility.yul\":1261:1277   */\n      add\n        /* \"#utility.yul\":1226:1291   */\n      tag_56\n      jump\t// in\n    tag_97:\n        /* \"#utility.yul\":1316:1345   */\n      tag_98\n        /* \"#utility.yul\":1338:1344   */\n      dup2\n        /* \"#utility.yul\":1316:1345   */\n      tag_57\n      jump\t// in\n    tag_98:\n        /* \"#utility.yul\":1311:1314   */\n      dup5\n        /* \"#utility.yul\":1307:1346   */\n      add\n        /* \"#utility.yul\":1300:1346   */\n      swap2\n      pop\n        /* \"#utility.yul\":1067:1352   */\n      pop\n        /* \"#utility.yul\":975:1352   */\n      swap3\n      swap2\n      pop\n      pop\n      jump\t// out\n        /* \"#utility.yul\":1358:1671   */\n    tag_15:\n        /* \"#utility.yul\":1471:1475   */\n      0x00\n        /* \"#utility.yul\":1509:1511   */\n      0x20\n        /* \"#utility.yul\":1498:1507   */\n      dup3\n        /* \"#utility.yul\":1494:1512   */\n      add\n        /* \"#utility.yul\":1486:1512   */\n      swap1\n      pop\n        /* \"#utility.yul\":1558:1567   */\n      dup2\n        /* \"#utility.yul\":1552:1556   */\n      dup2\n        /* \"#utility.yul\":1548:1568   */\n      sub\n        /* \"#utility.yul\":1544:1545   */\n      0x00\n        /* \"#utility.yul\":1533:1542   */\n      dup4\n        /* \"#utility.yul\":1529:1546   */\n      add\n        /* \"#utility.yul\":1522:1569   */\n      mstore\n        /* \"#utility.yul\":1586:1664   */\n      tag_100\n        /* \"#utility.yul\":1659:1663   */\n      dup2\n        /* \"#utility.yul\":1650:1656   */\n      dup5\n        /* \"#utility.yul\":1586:1664   */\n      tag_58\n      jump\t// in\n    tag_100:\n        /* \"#utility.yul\":1578:1664   */\n      swap1\n      pop\n        /* \"#utility.yul\":1358:1671   */\n      swap3\n      swap2\n      pop\n      pop\n      jump\t// out\n        /* \"#utility.yul\":1677:1753   */\n    tag_59:\n        /* \"#utility.yul\":1713:1720   */\n      0x00\n        /* \"#utility.yul\":1742:1747   */\n      dup2\n        /* \"#utility.yul\":1731:1747   */\n      swap1\n      pop\n        /* \"#utility.yul\":1677:1753   */\n      swap2\n      swap1\n      pop\n      jump\t// out\n        /* \"#utility.yul\":1759:1874   */\n    tag_60:\n        /* \"#utility.yul\":1844:1867   */\n      tag_103\n        /* \"#utility.yul\":1861:1866   */\n      dup2\n        /* \"#utility.yul\":1844:1867   */\n      tag_59\n      jump\t// in\n    tag_103:\n        /* \"#utility.yul\":1839:1842   */\n      dup3\n        /* \"#utility.yul\":1832:1868   */\n      mstore\n        /* \"#utility.yul\":1759:1874   */\n      pop\n      pop\n      jump\t// out\n        /* \"#utility.yul\":1880:2098   */\n    tag_19:\n        /* \"#utility.yul\":1971:1975   */\n      0x00\n        /* \"#utility.yul\":2009:2011   */\n      0x20\n        /* \"#utility.yul\":1998:2007   */\n      dup3\n        /* \"#utility.yul\":1994:2012   */\n      add\n        /* \"#utility.yul\":1986:2012   */\n      swap1\n      pop\n        /* \"#utility.yul\":2022:2091   */\n      tag_105\n        /* \"#utility.yul\":2088:2089   */\n      0x00\n        /* \"#utility.yul\":2077:2086   */\n      dup4\n        /* \"#utility.yul\":2073:2090   */\n      add\n        /* \"#utility.yul\":2064:2070   */\n      dup5\n        /* \"#utility.yul\":2022:2091   */\n      tag_60\n      jump\t// in\n    tag_105:\n        /* \"#utility.yul\":1880:2098   */\n      swap3\n      swap2\n      pop\n      pop\n      jump\t// out\n        /* \"#utility.yul\":2104:2190   */\n    tag_61:\n        /* \"#utility.yul\":2139:2146   */\n      0x00\n        /* \"#utility.yul\":2179:2183   */\n      0xff\n        /* \"#utility.yul\":2172:2177   */\n      dup3\n        /* \"#utility.yul\":2168:2184   */\n      and\n        /* \"#utility.yul\":2157:2184   */\n      swap1\n      pop\n        /* \"#utility.yul\":2104:2190   */\n      swap2\n      swap1\n      pop\n      jump\t// out\n        /* \"#utility.yul\":2196:2308   */\n    tag_62:\n        /* \"#utility.yul\":2279:2301   */\n      tag_108\n        /* \"#utility.yul\":2295:2300   */\n      dup2\n        /* \"#utility.yul\":2279:2301   */\n      tag_61\n      jump\t// in\n    tag_108:\n        /* \"#utility.yul\":2274:2277   */\n      dup3\n        /* \"#utility.yul\":2267:2302   */\n      mstore\n        /* \"#utility.yul\":2196:2308   */\n      pop\n      pop\n      jump\t// out\n        /* \"#utility.yul\":2314:2528   */\n    tag_23:\n        /* \"#utility.yul\":2403:2407   */\n      0x00\n        /* \"#utility.yul\":2441:2443   */\n      0x20\n        /* \"#utility.yul\":2430:2439   */\n      dup3\n        /* \"#utility.yul\":2426:2444   */\n      add\n        /* \"#utility.yul\":2418:2444   */\n      swap1\n      pop\n        /* \"#utility.yul\":2454:2521   */\n      tag_110\n        /* \"#utility.yul\":2518:2519   */\n      0x00\n        /* \"#utility.yul\":2507:2516   */\n      dup4\n        /* \"#utility.yul\":2503:2520   */\n      add\n        /* \"#utility.yul\":2494:2500   */\n      dup5\n        /* \"#utility.yul\":2454:2521   */\n      tag_62\n      jump\t// in\n    tag_110:\n        /* \"#utility.yul\":2314:2528   */\n      swap3\n      swap2\n      pop\n      pop\n      jump\t// out\n        /* \"#utility.yul\":2534:2639   */\n    tag_63:\n        /* \"#utility.yul\":2570:2577   */\n      0x00\n        /* \"#utility.yul\":2610:2632   */\n      0xffffffffffffffffffff\n        /* \"#utility.yul\":2603:2608   */\n      dup3\n        /* \"#utility.yul\":2599:2633   */\n      and\n        /* \"#utility.yul\":2588:2633   */\n      swap1\n      pop\n        /* \"#utility.yul\":2534:2639   */\n      swap2\n      swap1\n      pop\n      jump\t// out\n        /* \"#utility.yul\":2645:2760   */\n    tag_64:\n        /* \"#utility.yul\":2730:2753   */\n      tag_113\n        /* \"#utility.yul\":2747:2752   */\n      dup2\n        /* \"#utility.yul\":2730:2753   */\n      tag_63\n      jump\t// in\n    tag_113:\n        /* \"#utility.yul\":2725:2728   */\n      dup3\n        /* \"#utility.yul\":2718:2754   */\n      mstore\n        /* \"#utility.yul\":2645:2760   */\n      pop\n      pop\n      jump\t// out\n        /* \"#utility.yul\":2766:3418   */\n    tag_27:\n        /* \"#utility.yul\":2965:2969   */\n      0x00\n        /* \"#utility.yul\":3003:3006   */\n      0xa0\n        /* \"#utility.yul\":2992:3001   */\n      dup3\n        /* \"#utility.yul\":2988:3007   */\n      add\n        /* \"#utility.yul\":2980:3007   */\n      swap1\n      pop\n        /* \"#utility.yul\":3017:3086   */\n      tag_115\n        /* \"#utility.yul\":3083:3084   */\n      0x00\n        /* \"#utility.yul\":3072:3081   */\n      dup4\n        /* \"#utility.yul\":3068:3085   */\n      add\n        /* \"#utility.yul\":3059:3065   */\n      dup9\n        /* \"#utility.yul\":3017:3086   */\n      tag_64\n      jump\t// in\n    tag_115:\n        /* \"#utility.yul\":3096:3166   */\n      tag_116\n        /* \"#utility.yul\":3162:3164   */\n      0x20\n        /* \"#utility.yul\":3151:3160   */\n      dup4\n        /* \"#utility.yul\":3147:3165   */\n      add\n        /* \"#utility.yul\":3138:3144   */\n      dup8\n        /* \"#utility.yul\":3096:3166   */\n      tag_60\n      jump\t// in\n    tag_116:\n        /* \"#utility.yul\":3176:3248   */\n      tag_117\n        /* \"#utility.yul\":3244:3246   */\n      0x40\n        /* \"#utility.yul\":3233:3242   */\n      dup4\n        /* \"#utility.yul\":3229:3247   */\n      add\n        /* \"#utility.yul\":3220:3226   */\n      dup7\n        /* \"#utility.yul\":3176:3248   */\n      tag_53\n      jump\t// in\n    tag_117:\n        /* \"#utility.yul\":3258:3330   */\n      tag_118\n        /* \"#utility.yul\":3326:3328   */\n      0x60\n        /* \"#utility.yul\":3315:3324   */\n      dup4\n        /* \"#utility.yul\":3311:3329   */\n      add\n        /* \"#utility.yul\":3302:3308   */\n      dup6\n        /* \"#utility.yul\":3258:3330   */\n      tag_53\n      jump\t// in\n    tag_118:\n        /* \"#utility.yul\":3340:3411   */\n      tag_119\n        /* \"#utility.yul\":3406:3409   */\n      0x80\n        /* \"#utility.yul\":3395:3404   */\n      dup4\n        /* \"#utility.yul\":3391:3410   */\n      add\n        /* \"#utility.yul\":3382:3388   */\n      dup5\n        /* \"#utility.yul\":3340:3411   */\n      tag_64\n      jump\t// in\n    tag_119:\n        /* \"#utility.yul\":2766:3418   */\n      swap7\n      swap6\n      pop\n      pop\n      pop\n      pop\n      pop\n      pop\n      jump\t// out\n        /* \"#utility.yul\":3424:3499   */\n    tag_65:\n        /* \"#utility.yul\":3457:3463   */\n      0x00\n        /* \"#utility.yul\":3490:3492   */\n      0x40\n        /* \"#utility.yul\":3484:3493   */\n      mload\n        /* \"#utility.yul\":3474:3493   */\n      swap1\n      pop\n        /* \"#utility.yul\":3424:3499   */\n      swap1\n      jump\t// out\n        /* \"#utility.yul\":3505:3622   */\n    tag_66:\n        /* \"#utility.yul\":3614:3615   */\n      0x00\n        /* \"#utility.yul\":3611:3612   */\n      0x00\n        /* \"#utility.yul\":3604:3616   */\n      revert\n        /* \"#utility.yul\":3628:3745   */\n    tag_67:\n        /* \"#utility.yul\":3737:3738   */\n      0x00\n        /* \"#utility.yul\":3734:3735   */\n      0x00\n        /* \"#utility.yul\":3727:3739   */\n      revert\n        /* \"#utility.yul\":3751:3873   */\n    tag_68:\n        /* \"#utility.yul\":3824:3848   */\n      tag_124\n        /* \"#utility.yul\":3842:3847   */\n      dup2\n        /* \"#utility.yul\":3824:3848   */\n      tag_52\n      jump\t// in\n    tag_124:\n        /* \"#utility.yul\":3817:3822   */\n      dup2\n        /* \"#utility.yul\":3814:3849   */\n      eq\n        /* \"#utility.yul\":3804:3867   */\n      tag_125\n      jumpi\n        /* \"#utility.yul\":3863:3864   */\n      0x00\n        /* \"#utility.yul\":3860:3861   */\n      0x00\n        /* \"#utility.yul\":3853:3865   */\n      revert\n        /* \"#utility.yul\":3804:3867   */\n    tag_125:\n        /* \"#utility.yul\":3751:3873   */\n      pop\n      jump\t// out\n        /* \"#utility.yul\":3879:4022   */\n    tag_69:\n        /* \"#utility.yul\":3936:3941   */\n      0x00\n        /* \"#utility.yul\":3967:3973   */\n      dup2\n        /* \"#utility.yul\":3961:3974   */\n      mload\n        /* \"#utility.yul\":3952:3974   */\n      swap1\n      pop\n        /* \"#utility.yul\":3983:4016   */\n      tag_127\n        /* \"#utility.yul\":4010:4015   */\n      dup2\n        /* \"#utility.yul\":3983:4016   */\n      tag_68\n      jump\t// in\n    tag_127:\n        /* \"#utility.yul\":3879:4022   */\n      swap3\n      swap2\n      pop\n      pop\n      jump\t// out\n        /* \"#utility.yul\":4028:4379   */\n    tag_32:\n        /* \"#utility.yul\":4098:4104   */\n      0x00\n        /* \"#utility.yul\":4147:4149   */\n      0x20\n        /* \"#utility.yul\":4135:4144   */\n      dup3\n        /* \"#utility.yul\":4126:4133   */\n      dup5\n        /* \"#utility.yul\":4122:4145   */\n      sub\n        /* \"#utility.yul\":4118:4150   */\n      slt\n        /* \"#utility.yul\":4115:4234   */\n      iszero\n      tag_129\n      jumpi\n        /* \"#utility.yul\":4153:4232   */\n      tag_130\n      tag_66\n      jump\t// in\n    tag_130:\n        /* \"#utility.yul\":4115:4234   */\n    tag_129:\n        /* \"#utility.yul\":4273:4274   */\n      0x00\n        /* \"#utility.yul\":4298:4362   */\n      tag_131\n        /* \"#utility.yul\":4354:4361   */\n      dup5\n        /* \"#utility.yul\":4345:4351   */\n      dup3\n        /* \"#utility.yul\":4334:4343   */\n      dup6\n        /* \"#utility.yul\":4330:4352   */\n      add\n        /* \"#utility.yul\":4298:4362   */\n      tag_69\n      jump\t// in\n    tag_131:\n        /* \"#utility.yul\":4288:4362   */\n      swap2\n      pop\n        /* \"#utility.yul\":4244:4372   */\n      pop\n        /* \"#utility.yul\":4028:4379   */\n      swap3\n      swap2\n      pop\n      pop\n      jump\t// out\n        /* \"#utility.yul\":4385:4502   */\n    tag_70:\n        /* \"#utility.yul\":4494:4495   */\n      0x00\n        /* \"#utility.yul\":4491:4492   */\n      0x00\n        /* \"#utility.yul\":4484:4496   */\n      revert\n        /* \"#utility.yul\":4508:4625   */\n    tag_71:\n        /* \"#utility.yul\":4617:4618   */\n      0x00\n        /* \"#utility.yul\":4614:4615   */\n      0x00\n        /* \"#utility.yul\":4607:4619   */\n      revert\n        /* \"#utility.yul\":4631:4811   */\n    tag_72:\n        /* \"#utility.yul\":4679:4756   */\n      0x4e487b7100000000000000000000000000000000000000000000000000000000\n        /* \"#utility.yul\":4676:4677   */\n      0x00\n        /* \"#utility.yul\":4669:4757   */\n      mstore\n        /* \"#utility.yul\":4776:4780   */\n      0x41\n        /* \"#utility.yul\":4773:4774   */\n      0x04\n        /* \"#utility.yul\":4766:4781   */\n      mstore\n        /* \"#utility.yul\":4800:4804   */\n      0x24\n        /* \"#utility.yul\":4797:4798   */\n      0x00\n        /* \"#utility.yul\":4790:4805   */\n      revert\n        /* \"#utility.yul\":4817:5098   */\n    tag_73:\n        /* \"#utility.yul\":4900:4927   */\n      tag_136\n        /* \"#utility.yul\":4922:4926   */\n      dup3\n        /* \"#utility.yul\":4900:4927   */\n      tag_57\n      jump\t// in\n    tag_136:\n        /* \"#utility.yul\":4892:4898   */\n      dup2\n        /* \"#utility.yul\":4888:4928   */\n      add\n        /* \"#utility.yul\":5030:5036   */\n      dup2\n        /* \"#utility.yul\":5018:5028   */\n      dup2\n        /* \"#utility.yul\":5015:5037   */\n      lt\n        /* \"#utility.yul\":4994:5012   */\n      0xffffffffffffffff\n        /* \"#utility.yul\":4982:4992   */\n      dup3\n        /* \"#utility.yul\":4979:5013   */\n      gt\n        /* \"#utility.yul\":4976:5038   */\n      or\n        /* \"#utility.yul\":4973:5061   */\n      iszero\n      tag_137\n      jumpi\n        /* \"#utility.yul\":5041:5059   */\n      tag_138\n      tag_72\n      jump\t// in\n    tag_138:\n        /* \"#utility.yul\":4973:5061   */\n    tag_137:\n        /* \"#utility.yul\":5081:5091   */\n      dup1\n        /* \"#utility.yul\":5077:5079   */\n      0x40\n        /* \"#utility.yul\":5070:5092   */\n      mstore\n        /* \"#utility.yul\":4860:5098   */\n      pop\n        /* \"#utility.yul\":4817:5098   */\n      pop\n      pop\n      jump\t// out\n        /* \"#utility.yul\":5104:5233   */\n    tag_74:\n        /* \"#utility.yul\":5138:5144   */\n      0x00\n        /* \"#utility.yul\":5165:5185   */\n      tag_140\n      tag_65\n      jump\t// in\n    tag_140:\n        /* \"#utility.yul\":5155:5185   */\n      swap1\n      pop\n        /* \"#utility.yul\":5194:5227   */\n      tag_141\n        /* \"#utility.yul\":5222:5226   */\n      dup3\n        /* \"#utility.yul\":5214:5220   */\n      dup3\n        /* \"#utility.yul\":5194:5227   */\n      tag_73\n      jump\t// in\n    tag_141:\n        /* \"#utility.yul\":5104:5233   */\n      swap2\n      swap1\n      pop\n      jump\t// out\n        /* \"#utility.yul\":5239:5547   */\n    tag_75:\n        /* \"#utility.yul\":5301:5305   */\n      0x00\n        /* \"#utility.yul\":5391:5409   */\n      0xffffffffffffffff\n        /* \"#utility.yul\":5383:5389   */\n      dup3\n        /* \"#utility.yul\":5380:5410   */\n      gt\n        /* \"#utility.yul\":5377:5433   */\n      iszero\n      tag_143\n      jumpi\n        /* \"#utility.yul\":5413:5431   */\n      tag_144\n      tag_72\n      jump\t// in\n    tag_144:\n        /* \"#utility.yul\":5377:5433   */\n    tag_143:\n        /* \"#utility.yul\":5451:5480   */\n      tag_145\n        /* \"#utility.yul\":5473:5479   */\n      dup3\n        /* \"#utility.yul\":5451:5480   */\n      tag_57\n      jump\t// in\n    tag_145:\n        /* \"#utility.yul\":5443:5480   */\n      swap1\n      pop\n        /* \"#utility.yul\":5535:5539   */\n      0x20\n        /* \"#utility.yul\":5529:5533   */\n      dup2\n        /* \"#utility.yul\":5525:5540   */\n      add\n        /* \"#utility.yul\":5517:5540   */\n      swap1\n      pop\n        /* \"#utility.yul\":5239:5547   */\n      swap2\n      swap1\n      pop\n      jump\t// out\n        /* \"#utility.yul\":5553:5987   */\n    tag_76:\n        /* \"#utility.yul\":5642:5647   */\n      0x00\n        /* \"#utility.yul\":5667:5733   */\n      tag_147\n        /* \"#utility.yul\":5683:5732   */\n      tag_148\n        /* \"#utility.yul\":5725:5731   */\n      dup5\n        /* \"#utility.yul\":5683:5732   */\n      tag_75\n      jump\t// in\n    tag_148:\n        /* \"#utility.yul\":5667:5733   */\n      tag_74\n      jump\t// in\n    tag_147:\n        /* \"#utility.yul\":5658:5733   */\n      swap1\n      pop\n        /* \"#utility.yul\":5756:5762   */\n      dup3\n        /* \"#utility.yul\":5749:5754   */\n      dup2\n        /* \"#utility.yul\":5742:5763   */\n      mstore\n        /* \"#utility.yul\":5794:5798   */\n      0x20\n        /* \"#utility.yul\":5787:5792   */\n      dup2\n        /* \"#utility.yul\":5783:5799   */\n      add\n        /* \"#utility.yul\":5832:5835   */\n      dup5\n        /* \"#utility.yul\":5823:5829   */\n      dup5\n        /* \"#utility.yul\":5818:5821   */\n      dup5\n        /* \"#utility.yul\":5814:5830   */\n      add\n        /* \"#utility.yul\":5811:5836   */\n      gt\n        /* \"#utility.yul\":5808:5920   */\n      iszero\n      tag_149\n      jumpi\n        /* \"#utility.yul\":5839:5918   */\n      tag_150\n      tag_71\n      jump\t// in\n    tag_150:\n        /* \"#utility.yul\":5808:5920   */\n    tag_149:\n        /* \"#utility.yul\":5929:5981   */\n      tag_151\n        /* \"#utility.yul\":5974:5980   */\n      dup5\n        /* \"#utility.yul\":5969:5972   */\n      dup3\n        /* \"#utility.yul\":5964:5967   */\n      dup6\n        /* \"#utility.yul\":5929:5981   */\n      tag_56\n      jump\t// in\n    tag_151:\n        /* \"#utility.yul\":5648:5987   */\n      pop\n        /* \"#utility.yul\":5553:5987   */\n      swap4\n      swap3\n      pop\n      pop\n      pop\n      jump\t// out\n        /* \"#utility.yul\":6007:6362   */\n    tag_77:\n        /* \"#utility.yul\":6074:6079   */\n      0x00\n        /* \"#utility.yul\":6123:6126   */\n      dup3\n        /* \"#utility.yul\":6116:6120   */\n      0x1f\n        /* \"#utility.yul\":6108:6114   */\n      dup4\n        /* \"#utility.yul\":6104:6121   */\n      add\n        /* \"#utility.yul\":6100:6127   */\n      slt\n        /* \"#utility.yul\":6090:6212   */\n      tag_153\n      jumpi\n        /* \"#utility.yul\":6131:6210   */\n      tag_154\n      tag_70\n      jump\t// in\n    tag_154:\n        /* \"#utility.yul\":6090:6212   */\n    tag_153:\n        /* \"#utility.yul\":6241:6247   */\n      dup2\n        /* \"#utility.yul\":6235:6248   */\n      mload\n        /* \"#utility.yul\":6266:6356   */\n      tag_155\n        /* \"#utility.yul\":6352:6355   */\n      dup5\n        /* \"#utility.yul\":6344:6350   */\n      dup3\n        /* \"#utility.yul\":6337:6341   */\n      0x20\n        /* \"#utility.yul\":6329:6335   */\n      dup7\n        /* \"#utility.yul\":6325:6342   */\n      add\n        /* \"#utility.yul\":6266:6356   */\n      tag_76\n      jump\t// in\n    tag_155:\n        /* \"#utility.yul\":6257:6356   */\n      swap2\n      pop\n        /* \"#utility.yul\":6080:6362   */\n      pop\n        /* \"#utility.yul\":6007:6362   */\n      swap3\n      swap2\n      pop\n      pop\n      jump\t// out\n        /* \"#utility.yul\":6368:6892   */\n    tag_37:\n        /* \"#utility.yul\":6448:6454   */\n      0x00\n        /* \"#utility.yul\":6497:6499   */\n      0x20\n        /* \"#utility.yul\":6485:6494   */\n      dup3\n        /* \"#utility.yul\":6476:6483   */\n      dup5\n        /* \"#utility.yul\":6472:6495   */\n      sub\n        /* \"#utility.yul\":6468:6500   */\n      slt\n        /* \"#utility.yul\":6465:6584   */\n      iszero\n      tag_157\n      jumpi\n        /* \"#utility.yul\":6503:6582   */\n      tag_158\n      tag_66\n      jump\t// in\n    tag_158:\n        /* \"#utility.yul\":6465:6584   */\n    tag_157:\n        /* \"#utility.yul\":6644:6645   */\n      0x00\n        /* \"#utility.yul\":6633:6642   */\n      dup3\n        /* \"#utility.yul\":6629:6646   */\n      add\n        /* \"#utility.yul\":6623:6647   */\n      mload\n        /* \"#utility.yul\":6674:6692   */\n      0xffffffffffffffff\n        /* \"#utility.yul\":6666:6672   */\n      dup2\n        /* \"#utility.yul\":6663:6693   */\n      gt\n        /* \"#utility.yul\":6660:6777   */\n      iszero\n      tag_159\n      jumpi\n        /* \"#utility.yul\":6696:6775   */\n      tag_160\n      tag_67\n      jump\t// in\n    tag_160:\n        /* \"#utility.yul\":6660:6777   */\n    tag_159:\n        /* \"#utility.yul\":6801:6875   */\n      tag_161\n        /* \"#utility.yul\":6867:6874   */\n      dup5\n        /* \"#utility.yul\":6858:6864   */\n      dup3\n        /* \"#utility.yul\":6847:6856   */\n      dup6\n        /* \"#utility.yul\":6843:6865   */\n      add\n        /* \"#utility.yul\":6801:6875   */\n      tag_77\n      jump\t// in\n    tag_161:\n        /* \"#utility.yul\":6791:6875   */\n      swap2\n      pop\n        /* \"#utility.yul\":6594:6885   */\n      pop\n        /* \"#utility.yul\":6368:6892   */\n      swap3\n      swap2\n      pop\n      pop\n      jump\t// out\n        /* \"#utility.yul\":6898:7018   */\n    tag_78:\n        /* \"#utility.yul\":6970:6993   */\n      tag_163\n        /* \"#utility.yul\":6987:6992   */\n      dup2\n        /* \"#utility.yul\":6970:6993   */\n      tag_63\n      jump\t// in\n    tag_163:\n        /* \"#utility.yul\":6963:6968   */\n      dup2\n        /* \"#utility.yul\":6960:6994   */\n      eq\n        /* \"#utility.yul\":6950:7012   */\n      tag_164\n      jumpi\n        /* \"#utility.yul\":7008:7009   */\n      0x00\n        /* \"#utility.yul\":7005:7006   */\n      0x00\n        /* \"#utility.yul\":6998:7010   */\n      revert\n        /* \"#utility.yul\":6950:7012   */\n    tag_164:\n        /* \"#utility.yul\":6898:7018   */\n      pop\n      jump\t// out\n        /* \"#utility.yul\":7024:7165   */\n    tag_79:\n        /* \"#utility.yul\":7080:7085   */\n      0x00\n        /* \"#utility.yul\":7111:7117   */\n      dup2\n        /* \"#utility.yul\":7105:7118   */\n      mload\n        /* \"#utility.yul\":7096:7118   */\n      swap1\n      pop\n        /* \"#utility.yul\":7127:7159   */\n      tag_166\n        /* \"#utility.yul\":7153:7158   */\n      dup2\n        /* \"#utility.yul\":7127:7159   */\n      tag_78\n      jump\t// in\n    tag_166:\n        /* \"#utility.yul\":7024:7165   */\n      swap3\n      swap2\n      pop\n      pop\n      jump\t// out\n        /* \"#utility.yul\":7171:7291   */\n    tag_80:\n        /* \"#utility.yul\":7243:7266   */\n      tag_168\n        /* \"#utility.yul\":7260:7265   */\n      dup2\n        /* \"#utility.yul\":7243:7266   */\n      tag_59\n      jump\t// in\n    tag_168:\n        /* \"#utility.yul\":7236:7241   */\n      dup2\n        /* \"#utility.yul\":7233:7267   */\n      eq\n        /* \"#utility.yul\":7223:7285   */\n      tag_169\n      jumpi\n        /* \"#utility.yul\":7281:7282   */\n      0x00\n        /* \"#utility.yul\":7278:7279   */\n      0x00\n        /* \"#utility.yul\":7271:7283   */\n      revert\n        /* \"#utility.yul\":7223:7285   */\n    tag_169:\n        /* \"#utility.yul\":7171:7291   */\n      pop\n      jump\t// out\n        /* \"#utility.yul\":7297:7438   */\n    tag_81:\n        /* \"#utility.yul\":7353:7358   */\n      0x00\n        /* \"#utility.yul\":7384:7390   */\n      dup2\n        /* \"#utility.yul\":7378:7391   */\n      mload\n        /* \"#utility.yul\":7369:7391   */\n      swap1\n      pop\n        /* \"#utility.yul\":7400:7432   */\n      tag_171\n        /* \"#utility.yul\":7426:7431   */\n      dup2\n        /* \"#utility.yul\":7400:7432   */\n      tag_80\n      jump\t// in\n    tag_171:\n        /* \"#utility.yul\":7297:7438   */\n      swap3\n      swap2\n      pop\n      pop\n      jump\t// out\n        /* \"#utility.yul\":7444:8415   */\n    tag_42:\n        /* \"#utility.yul\":7547:7553   */\n      0x00\n        /* \"#utility.yul\":7555:7561   */\n      0x00\n        /* \"#utility.yul\":7563:7569   */\n      0x00\n        /* \"#utility.yul\":7571:7577   */\n      0x00\n        /* \"#utility.yul\":7579:7585   */\n      0x00\n        /* \"#utility.yul\":7628:7631   */\n      0xa0\n        /* \"#utility.yul\":7616:7625   */\n      dup7\n        /* \"#utility.yul\":7607:7614   */\n      dup9\n        /* \"#utility.yul\":7603:7626   */\n      sub\n        /* \"#utility.yul\":7599:7632   */\n      slt\n        /* \"#utility.yul\":7596:7716   */\n      iszero\n      tag_173\n      jumpi\n        /* \"#utility.yul\":7635:7714   */\n      tag_174\n      tag_66\n      jump\t// in\n    tag_174:\n        /* \"#utility.yul\":7596:7716   */\n    tag_173:\n        /* \"#utility.yul\":7755:7756   */\n      0x00\n        /* \"#utility.yul\":7780:7843   */\n      tag_175\n        /* \"#utility.yul\":7835:7842   */\n      dup9\n        /* \"#utility.yul\":7826:7832   */\n      dup3\n        /* \"#utility.yul\":7815:7824   */\n      dup10\n        /* \"#utility.yul\":7811:7833   */\n      add\n        /* \"#utility.yul\":7780:7843   */\n      tag_79\n      jump\t// in\n    tag_175:\n        /* \"#utility.yul\":7770:7843   */\n      swap6\n      pop\n        /* \"#utility.yul\":7726:7853   */\n      pop\n        /* \"#utility.yul\":7892:7894   */\n      0x20\n        /* \"#utility.yul\":7918:7981   */\n      tag_176\n        /* \"#utility.yul\":7973:7980   */\n      dup9\n        /* \"#utility.yul\":7964:7970   */\n      dup3\n        /* \"#utility.yul\":7953:7962   */\n      dup10\n        /* \"#utility.yul\":7949:7971   */\n      add\n        /* \"#utility.yul\":7918:7981   */\n      tag_81\n      jump\t// in\n    tag_176:\n        /* \"#utility.yul\":7908:7981   */\n      swap5\n      pop\n        /* \"#utility.yul\":7863:7991   */\n      pop\n        /* \"#utility.yul\":8030:8032   */\n      0x40\n        /* \"#utility.yul\":8056:8120   */\n      tag_177\n        /* \"#utility.yul\":8112:8119   */\n      dup9\n        /* \"#utility.yul\":8103:8109   */\n      dup3\n        /* \"#utility.yul\":8092:8101   */\n      dup10\n        /* \"#utility.yul\":8088:8110   */\n      add\n        /* \"#utility.yul\":8056:8120   */\n      tag_69\n      jump\t// in\n    tag_177:\n        /* \"#utility.yul\":8046:8120   */\n      swap4\n      pop\n        /* \"#utility.yul\":8001:8130   */\n      pop\n        /* \"#utility.yul\":8169:8171   */\n      0x60\n        /* \"#utility.yul\":8195:8259   */\n      tag_178\n        /* \"#utility.yul\":8251:8258   */\n      dup9\n        /* \"#utility.yul\":8242:8248   */\n      dup3\n        /* \"#utility.yul\":8231:8240   */\n      dup10\n        /* \"#utility.yul\":8227:8249   */\n      add\n        /* \"#utility.yul\":8195:8259   */\n      tag_69\n      jump\t// in\n    tag_178:\n        /* \"#utility.yul\":8185:8259   */\n      swap3\n      pop\n        /* \"#utility.yul\":8140:8269   */\n      pop\n        /* \"#utility.yul\":8308:8311   */\n      0x80\n        /* \"#utility.yul\":8335:8398   */\n      tag_179\n        /* \"#utility.yul\":8390:8397   */\n      dup9\n        /* \"#utility.yul\":8381:8387   */\n      dup3\n        /* \"#utility.yul\":8370:8379   */\n      dup10\n        /* \"#utility.yul\":8366:8388   */\n      add\n        /* \"#utility.yul\":8335:8398   */\n      tag_79\n      jump\t// in\n    tag_179:\n        /* \"#utility.yul\":8325:8398   */\n      swap2\n      pop\n        /* \"#utility.yul\":8279:8408   */\n      pop\n        /* \"#utility.yul\":7444:8415   */\n      swap3\n      swap6\n      pop\n      swap3\n      swap6\n      swap1\n      swap4\n      pop\n      jump\t// out\n        /* \"#utility.yul\":8421:8539   */\n    tag_82:\n        /* \"#utility.yul\":8492:8514   */\n      tag_181\n        /* \"#utility.yul\":8508:8513   */\n      dup2\n        /* \"#utility.yul\":8492:8514   */\n      tag_61\n      jump\t// in\n    tag_181:\n        /* \"#utility.yul\":8485:8490   */\n      dup2\n        /* \"#utility.yul\":8482:8515   */\n      eq\n        /* \"#utility.yul\":8472:8533   */\n      tag_182\n      jumpi\n        /* \"#utility.yul\":8529:8530   */\n      0x00\n        /* \"#utility.yul\":8526:8527   */\n      0x00\n        /* \"#utility.yul\":8519:8531   */\n      revert\n        /* \"#utility.yul\":8472:8533   */\n    tag_182:\n        /* \"#utility.yul\":8421:8539   */\n      pop\n      jump\t// out\n        /* \"#utility.yul\":8545:8684   */\n    tag_83:\n        /* \"#utility.yul\":8600:8605   */\n      0x00\n        /* \"#utility.yul\":8631:8637   */\n      dup2\n        /* \"#utility.yul\":8625:8638   */\n      mload\n        /* \"#utility.yul\":8616:8638   */\n      swap1\n      pop\n        /* \"#utility.yul\":8647:8678   */\n      tag_184\n        /* \"#utility.yul\":8672:8677   */\n      dup2\n        /* \"#utility.yul\":8647:8678   */\n      tag_82\n      jump\t// in\n    tag_184:\n        /* \"#utility.yul\":8545:8684   */\n      swap3\n      swap2\n      pop\n      pop\n      jump\t// out\n        /* \"#utility.yul\":8690:9037   */\n    tag_47:\n        /* \"#utility.yul\":8758:8764   */\n      0x00\n        /* \"#utility.yul\":8807:8809   */\n      0x20\n        /* \"#utility.yul\":8795:8804   */\n      dup3\n        /* \"#utility.yul\":8786:8793   */\n      dup5\n        /* \"#utility.yul\":8782:8805   */\n      sub\n        /* \"#utility.yul\":8778:8810   */\n      slt\n        /* \"#utility.yul\":8775:8894   */\n      iszero\n      tag_186\n      jumpi\n        /* \"#utility.yul\":8813:8892   */\n      tag_187\n      tag_66\n      jump\t// in\n    tag_187:\n        /* \"#utility.yul\":8775:8894   */\n    tag_186:\n        /* \"#utility.yul\":8933:8934   */\n      0x00\n        /* \"#utility.yul\":8958:9020   */\n      tag_188\n        /* \"#utility.yul\":9012:9019   */\n      dup5\n        /* \"#utility.yul\":9003:9009   */\n      dup3\n        /* \"#utility.yul\":8992:9001   */\n      dup6\n        /* \"#utility.yul\":8988:9010   */\n      add\n        /* \"#utility.yul\":8958:9020   */\n      tag_83\n      jump\t// in\n    tag_188:\n        /* \"#utility.yul\":8948:9020   */\n      swap2\n      pop\n        /* \"#utility.yul\":8904:9030   */\n      pop\n        /* \"#utility.yul\":8690:9037   */\n      swap3\n      swap2\n      pop\n      pop\n      jump\t// out\n\n    auxdata: 0xa2646970667358221220df676d975a9af295feb29b1b6dfa6ba5e237eb0a609162fde0154fae0e21c5d564736f6c634300081d0033\n}\n",
				"bytecode": {
					"linkReferences": {},
					"object": "6080604052348015600e575f5ffd5b5073694aa1769357215de4fac081bf1f309adc3253065f5f6101000a81548173ffffffffffffffffffffffffffffffffffffffff021916908373ffffffffffffffffffffffffffffffffffffffff1602179055506108ab8061006f5f395ff3fe608060405234801561000f575f5ffd5b5060043610610055575f3560e01c80630d8e6e2c146100595780631a092541146100775780638e15f47314610095578063f0141d84146100b3578063feaf968c146100d1575b5f5ffd5b6100616100f3565b60405161006e9190610407565b60405180910390f35b61007f610186565b60405161008c9190610490565b60405180910390f35b61009d61021d565b6040516100aa91906104c8565b60405180910390f35b6100bb6102b9565b6040516100c891906104fc565b60405180910390f35b6100d961034c565b6040516100ea959493929190610539565b60405180910390f35b5f5f5f9054906101000a900473ffffffffffffffffffffffffffffffffffffffff1673ffffffffffffffffffffffffffffffffffffffff166354fd4d506040518163ffffffff1660e01b8152600401602060405180830381865afa15801561015d573d5f5f3e3d5ffd5b505050506040513d601f19601f8201168201806040525081019061018191906105c5565b905090565b60605f5f9054906101000a900473ffffffffffffffffffffffffffffffffffffffff1673ffffffffffffffffffffffffffffffffffffffff16637284e4166040518163ffffffff1660e01b81526004015f60405180830381865afa1580156101f0573d5f5f3e3d5ffd5b505050506040513d5f823e3d601f19601f82011682018060405250810190610218919061070e565b905090565b5f5f5f5f9054906101000a900473ffffffffffffffffffffffffffffffffffffffff1673ffffffffffffffffffffffffffffffffffffffff1663feaf968c6040518163ffffffff1660e01b815260040160a060405180830381865afa158015610288573d5f5f3e3d5ffd5b505050506040513d601f19601f820116820180604052508101906102ac91906107a9565b5050509150508091505090565b5f5f5f9054906101000a900473ffffffffffffffffffffffffffffffffffffffff1673ffffffffffffffffffffffffffffffffffffffff1663313ce5676040518163ffffffff1660e01b8152600401602060405180830381865afa158015610323573d5f5f3e3d5ffd5b505050506040513d601f19601f82011682018060405250810190610347919061084a565b905090565b5f5f5f5f5f5f5f9054906101000a900473ffffffffffffffffffffffffffffffffffffffff1673ffffffffffffffffffffffffffffffffffffffff1663feaf968c6040518163ffffffff1660e01b815260040160a060405180830381865afa1580156103ba573d5f5f3e3d5ffd5b505050506040513d601f19601f820116820180604052508101906103de91906107a9565b945094509450945094509091929394565b5f819050919050565b610401816103ef565b82525050565b5f60208201905061041a5f8301846103f8565b92915050565b5f81519050919050565b5f82825260208201905092915050565b8281835e5f83830152505050565b5f601f19601f8301169050919050565b5f61046282610420565b61046c818561042a565b935061047c81856020860161043a565b61048581610448565b840191505092915050565b5f6020820190508181035f8301526104a88184610458565b905092915050565b5f819050919050565b6104c2816104b0565b82525050565b5f6020820190506104db5f8301846104b9565b92915050565b5f60ff82169050919050565b6104f6816104e1565b82525050565b5f60208201905061050f5f8301846104ed565b92915050565b5f69ffffffffffffffffffff82169050919050565b61053381610515565b82525050565b5f60a08201905061054c5f83018861052a565b61055960208301876104b9565b61056660408301866103f8565b61057360608301856103f8565b610580608083018461052a565b9695505050505050565b5f604051905090565b5f5ffd5b5f5ffd5b6105a4816103ef565b81146105ae575f5ffd5b50565b5f815190506105bf8161059b565b92915050565b5f602082840312156105da576105d9610593565b5b5f6105e7848285016105b1565b91505092915050565b5f5ffd5b5f5ffd5b7f4e487b71000000000000000000000000000000000000000000000000000000005f52604160045260245ffd5b61062e82610448565b810181811067ffffffffffffffff8211171561064d5761064c6105f8565b5b80604052505050565b5f61065f61058a565b905061066b8282610625565b919050565b5f67ffffffffffffffff82111561068a576106896105f8565b5b61069382610448565b9050602081019050919050565b5f6106b26106ad84610670565b610656565b9050828152602081018484840111156106ce576106cd6105f4565b5b6106d984828561043a565b509392505050565b5f82601f8301126106f5576106f46105f0565b5b81516107058482602086016106a0565b91505092915050565b5f6020828403121561072357610722610593565b5b5f82015167ffffffffffffffff8111156107405761073f610597565b5b61074c848285016106e1565b91505092915050565b61075e81610515565b8114610768575f5ffd5b50565b5f8151905061077981610755565b92915050565b610788816104b0565b8114610792575f5ffd5b50565b5f815190506107a38161077f565b92915050565b5f5f5f5f5f60a086880312156107c2576107c1610593565b5b5f6107cf8882890161076b565b95505060206107e088828901610795565b94505060406107f1888289016105b1565b9350506060610802888289016105b1565b92505060806108138882890161076b565b9150509295509295909350565b610829816104e1565b8114610833575f5ffd5b50565b5f8151905061084481610820565b92915050565b5f6020828403121561085f5761085e610593565b5b5f61086c84828501610836565b9150509291505056fea2646970667358221220df676d975a9af295feb29b1b6dfa6ba5e237eb0a609162fde0154fae0e21c5d564736f6c634300081d0033",
					"opcodes": "PUSH1 0x80 PUSH1 0x40 MSTORE CALLVALUE DUP1 ISZERO PUSH1 0xE JUMPI PUSH0 PUSH0 REVERT JUMPDEST POP PUSH20 0x694AA1769357215DE4FAC081BF1F309ADC325306 PUSH0 PUSH0 PUSH2 0x100 EXP DUP2 SLOAD DUP2 PUSH20 0xFFFFFFFFFFFFFFFFFFFFFFFFFFFFFFFFFFFFFFFF MUL NOT AND SWAP1 DUP4 PUSH20 0xFFFFFFFFFFFFFFFFFFFFFFFFFFFFFFFFFFFFFFFF AND MUL OR SWAP1 SSTORE POP PUSH2 0x8AB DUP1 PUSH2 0x6F PUSH0 CODECOPY PUSH0 RETURN INVALID PUSH1 0x80 PUSH1 0x40 MSTORE CALLVALUE DUP1 ISZERO PUSH2 0xF JUMPI PUSH0 PUSH0 REVERT JUMPDEST POP PUSH1 0x4 CALLDATASIZE LT PUSH2 0x55 JUMPI PUSH0 CALLDATALOAD PUSH1 0xE0 SHR DUP1 PUSH4 0xD8E6E2C EQ PUSH2 0x59 JUMPI DUP1 PUSH4 0x1A092541 EQ PUSH2 0x77 JUMPI DUP1 PUSH4 0x8E15F473 EQ PUSH2 0x95 JUMPI DUP1 PUSH4 0xF0141D84 EQ PUSH2 0xB3 JUMPI DUP1 PUSH4 0xFEAF968C EQ PUSH2 0xD1 JUMPI JUMPDEST PUSH0 PUSH0 REVERT JUMPDEST PUSH2 0x61 PUSH2 0xF3 JUMP JUMPDEST PUSH1 0x40 MLOAD PUSH2 0x6E SWAP2 SWAP1 PUSH2 0x407 JUMP JUMPDEST PUSH1 0x40 MLOAD DUP1 SWAP2 SUB SWAP1 RETURN JUMPDEST PUSH2 0x7F PUSH2 0x186 JUMP JUMPDEST PUSH1 0x40 MLOAD PUSH2 0x8C SWAP2 SWAP1 PUSH2 0x490 JUMP JUMPDEST PUSH1 0x40 MLOAD DUP1 SWAP2 SUB SWAP1 RETURN JUMPDEST PUSH2 0x9D PUSH2 0x21D JUMP JUMPDEST PUSH1 0x40 MLOAD PUSH2 0xAA SWAP2 SWAP1 PUSH2 0x4C8 JUMP JUMPDEST PUSH1 0x40 MLOAD DUP1 SWAP2 SUB SWAP1 RETURN JUMPDEST PUSH2 0xBB PUSH2 0x2B9 JUMP JUMPDEST PUSH1 0x40 MLOAD PUSH2 0xC8 SWAP2 SWAP1 PUSH2 0x4FC JUMP JUMPDEST PUSH1 0x40 MLOAD DUP1 SWAP2 SUB SWAP1 RETURN JUMPDEST PUSH2 0xD9 PUSH2 0x34C JUMP JUMPDEST PUSH1 0x40 MLOAD PUSH2 0xEA SWAP6 SWAP5 SWAP4 SWAP3 SWAP2 SWAP1 PUSH2 0x539 JUMP JUMPDEST PUSH1 0x40 MLOAD DUP1 SWAP2 SUB SWAP1 RETURN JUMPDEST PUSH0 PUSH0 PUSH0 SWAP1 SLOAD SWAP1 PUSH2 0x100 EXP SWAP1 DIV PUSH20 0xFFFFFFFFFFFFFFFFFFFFFFFFFFFFFFFFFFFFFFFF AND PUSH20 0xFFFFFFFFFFFFFFFFFFFFFFFFFFFFFFFFFFFFFFFF AND PUSH4 0x54FD4D50 PUSH1 0x40 MLOAD DUP2 PUSH4 0xFFFFFFFF AND PUSH1 0xE0 SHL DUP2 MSTORE PUSH1 0x4 ADD PUSH1 0x20 PUSH1 0x40 MLOAD DUP1 DUP4 SUB DUP2 DUP7 GAS STATICCALL ISZERO DUP1 ISZERO PUSH2 0x15D JUMPI RETURNDATASIZE PUSH0 PUSH0 RETURNDATACOPY RETURNDATASIZE PUSH0 REVERT JUMPDEST POP POP POP POP PUSH1 0x40 MLOAD RETURNDATASIZE PUSH1 0x1F NOT PUSH1 0x1F DUP3 ADD AND DUP3 ADD DUP1 PUSH1 0x40 MSTORE POP DUP2 ADD SWAP1 PUSH2 0x181 SWAP2 SWAP1 PUSH2 0x5C5 JUMP JUMPDEST SWAP1 POP SWAP1 JUMP JUMPDEST PUSH1 0x60 PUSH0 PUSH0 SWAP1 SLOAD SWAP1 PUSH2 0x100 EXP SWAP1 DIV PUSH20 0xFFFFFFFFFFFFFFFFFFFFFFFFFFFFFFFFFFFFFFFF AND PUSH20 0xFFFFFFFFFFFFFFFFFFFFFFFFFFFFFFFFFFFFFFFF AND PUSH4 0x7284E416 PUSH1 0x40 MLOAD DUP2 PUSH4 0xFFFFFFFF AND PUSH1 0xE0 SHL DUP2 MSTORE PUSH1 0x4 ADD PUSH0 PUSH1 0x40 MLOAD DUP1 DUP4 SUB DUP2 DUP7 GAS STATICCALL ISZERO DUP1 ISZERO PUSH2 0x1F0 JUMPI RETURNDATASIZE PUSH0 PUSH0 RETURNDATACOPY RETURNDATASIZE PUSH0 REVERT JUMPDEST POP POP POP POP PUSH1 0x40 MLOAD RETURNDATASIZE PUSH0 DUP3 RETURNDATACOPY RETURNDATASIZE PUSH1 0x1F NOT PUSH1 0x1F DUP3 ADD AND DUP3 ADD DUP1 PUSH1 0x40 MSTORE POP DUP2 ADD SWAP1 PUSH2 0x218 SWAP2 SWAP1 PUSH2 0x70E JUMP JUMPDEST SWAP1 POP SWAP1 JUMP JUMPDEST PUSH0 PUSH0 PUSH0 PUSH0 SWAP1 SLOAD SWAP1 PUSH2 0x100 EXP SWAP1 DIV PUSH20 0xFFFFFFFFFFFFFFFFFFFFFFFFFFFFFFFFFFFFFFFF AND PUSH20 0xFFFFFFFFFFFFFFFFFFFFFFFFFFFFFFFFFFFFFFFF AND PUSH4 0xFEAF968C PUSH1 0x40 MLOAD DUP2 PUSH4 0xFFFFFFFF AND PUSH1 0xE0 SHL DUP2 MSTORE PUSH1 0x4 ADD PUSH1 0xA0 PUSH1 0x40 MLOAD DUP1 DUP4 SUB DUP2 DUP7 GAS STATICCALL ISZERO DUP1 ISZERO PUSH2 0x288 JUMPI RETURNDATASIZE PUSH0 PUSH0 RETURNDATACOPY RETURNDATASIZE PUSH0 REVERT JUMPDEST POP POP POP POP PUSH1 0x40 MLOAD RETURNDATASIZE PUSH1 0x1F NOT PUSH1 0x1F DUP3 ADD AND DUP3 ADD DUP1 PUSH1 0x40 MSTORE POP DUP2 ADD SWAP1 PUSH2 0x2AC SWAP2 SWAP1 PUSH2 0x7A9 JUMP JUMPDEST POP POP POP SWAP2 POP POP DUP1 SWAP2 POP POP SWAP1 JUMP JUMPDEST PUSH0 PUSH0 PUSH0 SWAP1 SLOAD SWAP1 PUSH2 0x100 EXP SWAP1 DIV PUSH20 0xFFFFFFFFFFFFFFFFFFFFFFFFFFFFFFFFFFFFFFFF AND PUSH20 0xFFFFFFFFFFFFFFFFFFFFFFFFFFFFFFFFFFFFFFFF AND PUSH4 0x313CE567 PUSH1 0x40 MLOAD DUP2 PUSH4 0xFFFFFFFF AND PUSH1 0xE0 SHL DUP2 MSTORE PUSH1 0x4 ADD PUSH1 0x20 PUSH1 0x40 MLOAD DUP1 DUP4 SUB DUP2 DUP7 GAS STATICCALL ISZERO DUP1 ISZERO PUSH2 0x323 JUMPI RETURNDATASIZE PUSH0 PUSH0 RETURNDATACOPY RETURNDATASIZE PUSH0 REVERT JUMPDEST POP POP POP POP PUSH1 0x40 MLOAD RETURNDATASIZE PUSH1 0x1F NOT PUSH1 0x1F DUP3 ADD AND DUP3 ADD DUP1 PUSH1 0x40 MSTORE POP DUP2 ADD SWAP1 PUSH2 0x347 SWAP2 SWAP1 PUSH2 0x84A JUMP JUMPDEST SWAP1 POP SWAP1 JUMP JUMPDEST PUSH0 PUSH0 PUSH0 PUSH0 PUSH0 PUSH0 PUSH0 SWAP1 SLOAD SWAP1 PUSH2 0x100 EXP SWAP1 DIV PUSH20 0xFFFFFFFFFFFFFFFFFFFFFFFFFFFFFFFFFFFFFFFF AND PUSH20 0xFFFFFFFFFFFFFFFFFFFFFFFFFFFFFFFFFFFFFFFF AND PUSH4 0xFEAF968C PUSH1 0x40 MLOAD DUP2 PUSH4 0xFFFFFFFF AND PUSH1 0xE0 SHL DUP2 MSTORE PUSH1 0x4 ADD PUSH1 0xA0 PUSH1 0x40 MLOAD DUP1 DUP4 SUB DUP2 DUP7 GAS STATICCALL ISZERO DUP1 ISZERO PUSH2 0x3BA JUMPI RETURNDATASIZE PUSH0 PUSH0 RETURNDATACOPY RETURNDATASIZE PUSH0 REVERT JUMPDEST POP POP POP POP PUSH1 0x40 MLOAD RETURNDATASIZE PUSH1 0x1F NOT PUSH1 0x1F DUP3 ADD AND DUP3 ADD DUP1 PUSH1 0x40 MSTORE POP DUP2 ADD SWAP1 PUSH2 0x3DE SWAP2 SWAP1 PUSH2 0x7A9 JUMP JUMPDEST SWAP5 POP SWAP5 POP SWAP5 POP SWAP5 POP SWAP5 POP SWAP1 SWAP2 SWAP3 SWAP4 SWAP5 JUMP JUMPDEST PUSH0 DUP2 SWAP1 POP SWAP2 SWAP1 POP JUMP JUMPDEST PUSH2 0x401 DUP2 PUSH2 0x3EF JUMP JUMPDEST DUP3 MSTORE POP POP JUMP JUMPDEST PUSH0 PUSH1 0x20 DUP3 ADD SWAP1 POP PUSH2 0x41A PUSH0 DUP4 ADD DUP5 PUSH2 0x3F8 JUMP JUMPDEST SWAP3 SWAP2 POP POP JUMP JUMPDEST PUSH0 DUP2 MLOAD SWAP1 POP SWAP2 SWAP1 POP JUMP JUMPDEST PUSH0 DUP3 DUP3 MSTORE PUSH1 0x20 DUP3 ADD SWAP1 POP SWAP3 SWAP2 POP POP JUMP JUMPDEST DUP3 DUP2 DUP4 MCOPY PUSH0 DUP4 DUP4 ADD MSTORE POP POP POP JUMP JUMPDEST PUSH0 PUSH1 0x1F NOT PUSH1 0x1F DUP4 ADD AND SWAP1 POP SWAP2 SWAP1 POP JUMP JUMPDEST PUSH0 PUSH2 0x462 DUP3 PUSH2 0x420 JUMP JUMPDEST PUSH2 0x46C DUP2 DUP6 PUSH2 0x42A JUMP JUMPDEST SWAP4 POP PUSH2 0x47C DUP2 DUP6 PUSH1 0x20 DUP7 ADD PUSH2 0x43A JUMP JUMPDEST PUSH2 0x485 DUP2 PUSH2 0x448 JUMP JUMPDEST DUP5 ADD SWAP2 POP POP SWAP3 SWAP2 POP POP JUMP JUMPDEST PUSH0 PUSH1 0x20 DUP3 ADD SWAP1 POP DUP2 DUP2 SUB PUSH0 DUP4 ADD MSTORE PUSH2 0x4A8 DUP2 DUP5 PUSH2 0x458 JUMP JUMPDEST SWAP1 POP SWAP3 SWAP2 POP POP JUMP JUMPDEST PUSH0 DUP2 SWAP1 POP SWAP2 SWAP1 POP JUMP JUMPDEST PUSH2 0x4C2 DUP2 PUSH2 0x4B0 JUMP JUMPDEST DUP3 MSTORE POP POP JUMP JUMPDEST PUSH0 PUSH1 0x20 DUP3 ADD SWAP1 POP PUSH2 0x4DB PUSH0 DUP4 ADD DUP5 PUSH2 0x4B9 JUMP JUMPDEST SWAP3 SWAP2 POP POP JUMP JUMPDEST PUSH0 PUSH1 0xFF DUP3 AND SWAP1 POP SWAP2 SWAP1 POP JUMP JUMPDEST PUSH2 0x4F6 DUP2 PUSH2 0x4E1 JUMP JUMPDEST DUP3 MSTORE POP POP JUMP JUMPDEST PUSH0 PUSH1 0x20 DUP3 ADD SWAP1 POP PUSH2 0x50F PUSH0 DUP4 ADD DUP5 PUSH2 0x4ED JUMP JUMPDEST SWAP3 SWAP2 POP POP JUMP JUMPDEST PUSH0 PUSH10 0xFFFFFFFFFFFFFFFFFFFF DUP3 AND SWAP1 POP SWAP2 SWAP1 POP JUMP JUMPDEST PUSH2 0x533 DUP2 PUSH2 0x515 JUMP JUMPDEST DUP3 MSTORE POP POP JUMP JUMPDEST PUSH0 PUSH1 0xA0 DUP3 ADD SWAP1 POP PUSH2 0x54C PUSH0 DUP4 ADD DUP9 PUSH2 0x52A JUMP JUMPDEST PUSH2 0x559 PUSH1 0x20 DUP4 ADD DUP8 PUSH2 0x4B9 JUMP JUMPDEST PUSH2 0x566 PUSH1 0x40 DUP4 ADD DUP7 PUSH2 0x3F8 JUMP JUMPDEST PUSH2 0x573 PUSH1 0x60 DUP4 ADD DUP6 PUSH2 0x3F8 JUMP JUMPDEST PUSH2 0x580 PUSH1 0x80 DUP4 ADD DUP5 PUSH2 0x52A JUMP JUMPDEST SWAP7 SWAP6 POP POP POP POP POP POP JUMP JUMPDEST PUSH0 PUSH1 0x40 MLOAD SWAP1 POP SWAP1 JUMP JUMPDEST PUSH0 PUSH0 REVERT JUMPDEST PUSH0 PUSH0 REVERT JUMPDEST PUSH2 0x5A4 DUP2 PUSH2 0x3EF JUMP JUMPDEST DUP2 EQ PUSH2 0x5AE JUMPI PUSH0 PUSH0 REVERT JUMPDEST POP JUMP JUMPDEST PUSH0 DUP2 MLOAD SWAP1 POP PUSH2 0x5BF DUP2 PUSH2 0x59B JUMP JUMPDEST SWAP3 SWAP2 POP POP JUMP JUMPDEST PUSH0 PUSH1 0x20 DUP3 DUP5 SUB SLT ISZERO PUSH2 0x5DA JUMPI PUSH2 0x5D9 PUSH2 0x593 JUMP JUMPDEST JUMPDEST PUSH0 PUSH2 0x5E7 DUP5 DUP3 DUP6 ADD PUSH2 0x5B1 JUMP JUMPDEST SWAP2 POP POP SWAP3 SWAP2 POP POP JUMP JUMPDEST PUSH0 PUSH0 REVERT JUMPDEST PUSH0 PUSH0 REVERT JUMPDEST PUSH32 0x4E487B7100000000000000000000000000000000000000000000000000000000 PUSH0 MSTORE PUSH1 0x41 PUSH1 0x4 MSTORE PUSH1 0x24 PUSH0 REVERT JUMPDEST PUSH2 0x62E DUP3 PUSH2 0x448 JUMP JUMPDEST DUP2 ADD DUP2 DUP2 LT PUSH8 0xFFFFFFFFFFFFFFFF DUP3 GT OR ISZERO PUSH2 0x64D JUMPI PUSH2 0x64C PUSH2 0x5F8 JUMP JUMPDEST JUMPDEST DUP1 PUSH1 0x40 MSTORE POP POP POP JUMP JUMPDEST PUSH0 PUSH2 0x65F PUSH2 0x58A JUMP JUMPDEST SWAP1 POP PUSH2 0x66B DUP3 DUP3 PUSH2 0x625 JUMP JUMPDEST SWAP2 SWAP1 POP JUMP JUMPDEST PUSH0 PUSH8 0xFFFFFFFFFFFFFFFF DUP3 GT ISZERO PUSH2 0x68A JUMPI PUSH2 0x689 PUSH2 0x5F8 JUMP JUMPDEST JUMPDEST PUSH2 0x693 DUP3 PUSH2 0x448 JUMP JUMPDEST SWAP1 POP PUSH1 0x20 DUP2 ADD SWAP1 POP SWAP2 SWAP1 POP JUMP JUMPDEST PUSH0 PUSH2 0x6B2 PUSH2 0x6AD DUP5 PUSH2 0x670 JUMP JUMPDEST PUSH2 0x656 JUMP JUMPDEST SWAP1 POP DUP3 DUP2 MSTORE PUSH1 0x20 DUP2 ADD DUP5 DUP5 DUP5 ADD GT ISZERO PUSH2 0x6CE JUMPI PUSH2 0x6CD PUSH2 0x5F4 JUMP JUMPDEST JUMPDEST PUSH2 0x6D9 DUP5 DUP3 DUP6 PUSH2 0x43A JUMP JUMPDEST POP SWAP4 SWAP3 POP POP POP JUMP JUMPDEST PUSH0 DUP3 PUSH1 0x1F DUP4 ADD SLT PUSH2 0x6F5 JUMPI PUSH2 0x6F4 PUSH2 0x5F0 JUMP JUMPDEST JUMPDEST DUP2 MLOAD PUSH2 0x705 DUP5 DUP3 PUSH1 0x20 DUP7 ADD PUSH2 0x6A0 JUMP JUMPDEST SWAP2 POP POP SWAP3 SWAP2 POP POP JUMP JUMPDEST PUSH0 PUSH1 0x20 DUP3 DUP5 SUB SLT ISZERO PUSH2 0x723 JUMPI PUSH2 0x722 PUSH2 0x593 JUMP JUMPDEST JUMPDEST PUSH0 DUP3 ADD MLOAD PUSH8 0xFFFFFFFFFFFFFFFF DUP2 GT ISZERO PUSH2 0x740 JUMPI PUSH2 0x73F PUSH2 0x597 JUMP JUMPDEST JUMPDEST PUSH2 0x74C DUP5 DUP3 DUP6 ADD PUSH2 0x6E1 JUMP JUMPDEST SWAP2 POP POP SWAP3 SWAP2 POP POP JUMP JUMPDEST PUSH2 0x75E DUP2 PUSH2 0x515 JUMP JUMPDEST DUP2 EQ PUSH2 0x768 JUMPI PUSH0 PUSH0 REVERT JUMPDEST POP JUMP JUMPDEST PUSH0 DUP2 MLOAD SWAP1 POP PUSH2 0x779 DUP2 PUSH2 0x755 JUMP JUMPDEST SWAP3 SWAP2 POP POP JUMP JUMPDEST PUSH2 0x788 DUP2 PUSH2 0x4B0 JUMP JUMPDEST DUP2 EQ PUSH2 0x792 JUMPI PUSH0 PUSH0 REVERT JUMPDEST POP JUMP JUMPDEST PUSH0 DUP2 MLOAD SWAP1 POP PUSH2 0x7A3 DUP2 PUSH2 0x77F JUMP JUMPDEST SWAP3 SWAP2 POP POP JUMP JUMPDEST PUSH0 PUSH0 PUSH0 PUSH0 PUSH0 PUSH1 0xA0 DUP7 DUP9 SUB SLT ISZERO PUSH2 0x7C2 JUMPI PUSH2 0x7C1 PUSH2 0x593 JUMP JUMPDEST JUMPDEST PUSH0 PUSH2 0x7CF DUP9 DUP3 DUP10 ADD PUSH2 0x76B JUMP JUMPDEST SWAP6 POP POP PUSH1 0x20 PUSH2 0x7E0 DUP9 DUP3 DUP10 ADD PUSH2 0x795 JUMP JUMPDEST SWAP5 POP POP PUSH1 0x40 PUSH2 0x7F1 DUP9 DUP3 DUP10 ADD PUSH2 0x5B1 JUMP JUMPDEST SWAP4 POP POP PUSH1 0x60 PUSH2 0x802 DUP9 DUP3 DUP10 ADD PUSH2 0x5B1 JUMP JUMPDEST SWAP3 POP POP PUSH1 0x80 PUSH2 0x813 DUP9 DUP3 DUP10 ADD PUSH2 0x76B JUMP JUMPDEST SWAP2 POP POP SWAP3 SWAP6 POP SWAP3 SWAP6 SWAP1 SWAP4 POP JUMP JUMPDEST PUSH2 0x829 DUP2 PUSH2 0x4E1 JUMP JUMPDEST DUP2 EQ PUSH2 0x833 JUMPI PUSH0 PUSH0 REVERT JUMPDEST POP JUMP JUMPDEST PUSH0 DUP2 MLOAD SWAP1 POP PUSH2 0x844 DUP2 PUSH2 0x820 JUMP JUMPDEST SWAP3 SWAP2 POP POP JUMP JUMPDEST PUSH0 PUSH1 0x20 DUP3 DUP5 SUB SLT ISZERO PUSH2 0x85F JUMPI PUSH2 0x85E PUSH2 0x593 JUMP JUMPDEST JUMPDEST PUSH0 PUSH2 0x86C DUP5 DUP3 DUP6 ADD PUSH2 0x836 JUMP JUMPDEST SWAP2 POP POP SWAP3 SWAP2 POP POP JUMP INVALID LOG2 PUSH5 0x6970667358 0x22 SLT KECCAK256 0xDF PUSH8 0x6D975A9AF295FEB2 SWAP12 SHL PUSH14 0xFA6BA5E237EB0A609162FDE0154F 0xAE 0xE 0x21 0xC5 0xD5 PUSH5 0x736F6C6343 STOP ADDMOD SAR STOP CALLER "
				},
				"gasEstimates": {
					"creation": {
						"codeDepositCost": "443800",
						"executionCost": "24743",
						"totalCost": "468543"
					},
					"external": {
						"getDecimals()": "infinite",
						"getDescription()": "infinite",
						"getLatestPrice()": "infinite",
						"getVersion()": "infinite",
						"latestRoundData()": "infinite"
					}
				},
				"methodIdentifiers": {
					"getDecimals()": "f0141d84",
					"getDescription()": "1a092541",
					"getLatestPrice()": "8e15f473",
					"getVersion()": "0d8e6e2c",
					"latestRoundData()": "feaf968c"
				}
			},
			"storageLayout": {
				"storage": [
					{
						"astId": 49,
						"contract": "contracts/FeedData.sol:PriceConsumer",
						"label": "priceFeed",
						"offset": 0,
						"slot": "0",
						"type": "t_contract(AggregatorV3Interface)45"
					}
				],
				"types": {
					"t_contract(AggregatorV3Interface)45": {
						"encoding": "inplace",
						"label": "contract AggregatorV3Interface",
						"numberOfBytes": "20"
					}
				}
			},
			"userdoc": {
				"kind": "user",
				"methods": {},
				"version": 1
			}
		}
	}
}