{
	"contracts/CustomLogic_flattened.sol": {
		"CustomLogic": {
			"abi": [
				{
					"inputs": [
						{
							"internalType": "uint256",
							"name": "updateInterval",
							"type": "uint256"
						}
					],
					"stateMutability": "nonpayable",
					"type": "constructor"
				},
				{
					"inputs": [
						{
							"internalType": "bytes",
							"name": "",
							"type": "bytes"
						}
					],
					"name": "checkUpkeep",
					"outputs": [
						{
							"internalType": "bool",
							"name": "upkeepNeeded",
							"type": "bool"
						},
						{
							"internalType": "bytes",
							"name": "",
							"type": "bytes"
						}
					],
					"stateMutability": "view",
					"type": "function"
				},
				{
					"inputs": [],
					"name": "counter",
					"outputs": [
						{
							"internalType": "uint256",
							"name": "",
							"type": "uint256"
						}
					],
					"stateMutability": "view",
					"type": "function"
				},
				{
					"inputs": [],
					"name": "interval",
					"outputs": [
						{
							"internalType": "uint256",
							"name": "",
							"type": "uint256"
						}
					],
					"stateMutability": "view",
					"type": "function"
				},
				{
					"inputs": [],
					"name": "lastTimeStamp",
					"outputs": [
						{
							"internalType": "uint256",
							"name": "",
							"type": "uint256"
						}
					],
					"stateMutability": "view",
					"type": "function"
				},
				{
					"inputs": [
						{
							"internalType": "bytes",
							"name": "",
							"type": "bytes"
						}
					],
					"name": "performUpkeep",
					"outputs": [],
					"stateMutability": "nonpayable",
					"type": "function"
				}
			],
			"devdoc": {
				"kind": "dev",
				"methods": {},
				"version": 1
			},
			"evm": {
				"assembly": "    /* \"contracts/CustomLogic_flattened.sol\":3383:4199  contract CustomLogic is AutomationCompatibleInterface {... */\n  mstore(0x40, 0xa0)\n    /* \"contracts/CustomLogic_flattened.sol\":3550:3697  constructor(uint256 updateInterval) {  ... */\n  callvalue\n  dup1\n  iszero\n  tag_1\n  jumpi\n  0x00\n  dup1\n  revert\ntag_1:\n  pop\n  mload(0x40)\n  sub(codesize, bytecodeSize)\n  dup1\n  bytecodeSize\n  dup4\n  codecopy\n  dup2\n  dup2\n  add\n  0x40\n  mstore\n  dup2\n  add\n  swap1\n  tag_2\n  swap2\n  swap1\n  tag_3\n  jump\t// in\ntag_2:\n    /* \"contracts/CustomLogic_flattened.sol\":3609:3623  updateInterval */\n  dup1\n    /* \"contracts/CustomLogic_flattened.sol\":3598:3623  interval = updateInterval */\n  0x80\n  dup2\n  dup2\n  mstore\n  pop\n  pop\n    /* \"contracts/CustomLogic_flattened.sol\":3651:3666  block.timestamp */\n  timestamp\n    /* \"contracts/CustomLogic_flattened.sol\":3635:3648  lastTimeStamp */\n  0x01\n    /* \"contracts/CustomLogic_flattened.sol\":3635:3666  lastTimeStamp = block.timestamp */\n  dup2\n  swap1\n  sstore\n  pop\n    /* \"contracts/CustomLogic_flattened.sol\":3687:3688  0 */\n  0x00\n    /* \"contracts/CustomLogic_flattened.sol\":3677:3684  counter */\n  dup1\n    /* \"contracts/CustomLogic_flattened.sol\":3677:3688  counter = 0 */\n  dup2\n  swap1\n  sstore\n  pop\n    /* \"contracts/CustomLogic_flattened.sol\":3550:3697  constructor(uint256 updateInterval) {  ... */\n  pop\n    /* \"contracts/CustomLogic_flattened.sol\":3383:4199  contract CustomLogic is AutomationCompatibleInterface {... */\n  jump(tag_6)\n    /* \"#utility.yul\":88:205   */\ntag_8:\n    /* \"#utility.yul\":197:198   */\n  0x00\n    /* \"#utility.yul\":194:195   */\n  dup1\n    /* \"#utility.yul\":187:199   */\n  revert\n    /* \"#utility.yul\":334:411   */\ntag_10:\n    /* \"#utility.yul\":371:378   */\n  0x00\n    /* \"#utility.yul\":400:405   */\n  dup2\n    /* \"#utility.yul\":389:405   */\n  swap1\n  pop\n    /* \"#utility.yul\":334:411   */\n  swap2\n  swap1\n  pop\n  jump\t// out\n    /* \"#utility.yul\":417:539   */\ntag_11:\n    /* \"#utility.yul\":490:514   */\n  tag_19\n    /* \"#utility.yul\":508:513   */\n  dup2\n    /* \"#utility.yul\":490:514   */\n  tag_10\n  jump\t// in\ntag_19:\n    /* \"#utility.yul\":483:488   */\n  dup2\n    /* \"#utility.yul\":480:515   */\n  eq\n    /* \"#utility.yul\":470:533   */\n  tag_20\n  jumpi\n    /* \"#utility.yul\":529:530   */\n  0x00\n    /* \"#utility.yul\":526:527   */\n  dup1\n    /* \"#utility.yul\":519:531   */\n  revert\n    /* \"#utility.yul\":470:533   */\ntag_20:\n    /* \"#utility.yul\":417:539   */\n  pop\n  jump\t// out\n    /* \"#utility.yul\":545:688   */\ntag_12:\n    /* \"#utility.yul\":602:607   */\n  0x00\n    /* \"#utility.yul\":633:639   */\n  dup2\n    /* \"#utility.yul\":627:640   */\n  mload\n    /* \"#utility.yul\":618:640   */\n  swap1\n  pop\n    /* \"#utility.yul\":649:682   */\n  tag_22\n    /* \"#utility.yul\":676:681   */\n  dup2\n    /* \"#utility.yul\":649:682   */\n  tag_11\n  jump\t// in\ntag_22:\n    /* \"#utility.yul\":545:688   */\n  swap3\n  swap2\n  pop\n  pop\n  jump\t// out\n    /* \"#utility.yul\":694:1045   */\ntag_3:\n    /* \"#utility.yul\":764:770   */\n  0x00\n    /* \"#utility.yul\":813:815   */\n  0x20\n    /* \"#utility.yul\":801:810   */\n  dup3\n    /* \"#utility.yul\":792:799   */\n  dup5\n    /* \"#utility.yul\":788:811   */\n  sub\n    /* \"#utility.yul\":784:816   */\n  slt\n    /* \"#utility.yul\":781:900   */\n  iszero\n  tag_24\n  jumpi\n    /* \"#utility.yul\":819:898   */\n  tag_25\n  tag_8\n  jump\t// in\ntag_25:\n    /* \"#utility.yul\":781:900   */\ntag_24:\n    /* \"#utility.yul\":939:940   */\n  0x00\n    /* \"#utility.yul\":964:1028   */\n  tag_26\n    /* \"#utility.yul\":1020:1027   */\n  dup5\n    /* \"#utility.yul\":1011:1017   */\n  dup3\n    /* \"#utility.yul\":1000:1009   */\n  dup6\n    /* \"#utility.yul\":996:1018   */\n  add\n    /* \"#utility.yul\":964:1028   */\n  tag_12\n  jump\t// in\ntag_26:\n    /* \"#utility.yul\":954:1028   */\n  swap2\n  pop\n    /* \"#utility.yul\":910:1038   */\n  pop\n    /* \"#utility.yul\":694:1045   */\n  swap3\n  swap2\n  pop\n  pop\n  jump\t// out\n    /* \"contracts/CustomLogic_flattened.sol\":3383:4199  contract CustomLogic is AutomationCompatibleInterface {... */\ntag_6:\n  mload(0x80)\n  codecopy(0x00, dataOffset(sub_0), dataSize(sub_0))\n  0x00\n  assignImmutable(\"0xcc143a676b82d5e07b2c9d57717b403ab3c58caa273a42cdb95b15980141a86c\")\n  return(0x00, dataSize(sub_0))\nstop\n\nsub_0: assembly {\n        /* \"contracts/CustomLogic_flattened.sol\":3383:4199  contract CustomLogic is AutomationCompatibleInterface {... */\n      mstore(0x40, 0x80)\n      callvalue\n      dup1\n      iszero\n      tag_1\n      jumpi\n      0x00\n      dup1\n      revert\n    tag_1:\n      pop\n      jumpi(tag_2, lt(calldatasize, 0x04))\n      shr(0xe0, calldataload(0x00))\n      dup1\n      0x3f3b3b27\n      eq\n      tag_3\n      jumpi\n      dup1\n      0x4585e33b\n      eq\n      tag_4\n      jumpi\n      dup1\n      0x61bc221a\n      eq\n      tag_5\n      jumpi\n      dup1\n      0x6e04ff0d\n      eq\n      tag_6\n      jumpi\n      dup1\n      0x947a36fb\n      eq\n      tag_7\n      jumpi\n    tag_2:\n      0x00\n      dup1\n      revert\n        /* \"contracts/CustomLogic_flattened.sol\":3515:3543  uint256 public lastTimeStamp */\n    tag_3:\n      tag_8\n      tag_9\n      jump\t// in\n    tag_8:\n      mload(0x40)\n      tag_10\n      swap2\n      swap1\n      tag_11\n      jump\t// in\n    tag_10:\n      mload(0x40)\n      dup1\n      swap2\n      sub\n      swap1\n      return\n        /* \"contracts/CustomLogic_flattened.sol\":3971:4195  function performUpkeep(bytes calldata) external override {  ... */\n    tag_4:\n      tag_12\n      0x04\n      dup1\n      calldatasize\n      sub\n      dup2\n      add\n      swap1\n      tag_13\n      swap2\n      swap1\n      tag_14\n      jump\t// in\n    tag_13:\n      tag_15\n      jump\t// in\n    tag_12:\n      stop\n        /* \"contracts/CustomLogic_flattened.sol\":3444:3466  uint256 public counter */\n    tag_5:\n      tag_16\n      tag_17\n      jump\t// in\n    tag_16:\n      mload(0x40)\n      tag_18\n      swap2\n      swap1\n      tag_11\n      jump\t// in\n    tag_18:\n      mload(0x40)\n      dup1\n      swap2\n      sub\n      swap1\n      return\n        /* \"contracts/CustomLogic_flattened.sol\":3703:3965  function checkUpkeep(  ... */\n    tag_6:\n      tag_19\n      0x04\n      dup1\n      calldatasize\n      sub\n      dup2\n      add\n      swap1\n      tag_20\n      swap2\n      swap1\n      tag_14\n      jump\t// in\n    tag_20:\n      tag_21\n      jump\t// in\n    tag_19:\n      mload(0x40)\n      tag_22\n      swap3\n      swap2\n      swap1\n      tag_23\n      jump\t// in\n    tag_22:\n      mload(0x40)\n      dup1\n      swap2\n      sub\n      swap1\n      return\n        /* \"contracts/CustomLogic_flattened.sol\":3474:3507  uint256 public immutable interval */\n    tag_7:\n      tag_24\n      tag_25\n      jump\t// in\n    tag_24:\n      mload(0x40)\n      tag_26\n      swap2\n      swap1\n      tag_11\n      jump\t// in\n    tag_26:\n      mload(0x40)\n      dup1\n      swap2\n      sub\n      swap1\n      return\n        /* \"contracts/CustomLogic_flattened.sol\":3515:3543  uint256 public lastTimeStamp */\n    tag_9:\n      sload(0x01)\n      dup2\n      jump\t// out\n        /* \"contracts/CustomLogic_flattened.sol\":3971:4195  function performUpkeep(bytes calldata) external override {  ... */\n    tag_15:\n        /* \"contracts/CustomLogic_flattened.sol\":4080:4088  interval */\n      immutable(\"0xcc143a676b82d5e07b2c9d57717b403ab3c58caa273a42cdb95b15980141a86c\")\n        /* \"contracts/CustomLogic_flattened.sol\":4063:4076  lastTimeStamp */\n      sload(0x01)\n        /* \"contracts/CustomLogic_flattened.sol\":4045:4060  block.timestamp */\n      timestamp\n        /* \"contracts/CustomLogic_flattened.sol\":4045:4076  block.timestamp - lastTimeStamp */\n      tag_28\n      swap2\n      swap1\n      tag_29\n      jump\t// in\n    tag_28:\n        /* \"contracts/CustomLogic_flattened.sol\":4044:4088  (block.timestamp - lastTimeStamp) > interval */\n      gt\n        /* \"contracts/CustomLogic_flattened.sol\":4040:4187  if ((block.timestamp - lastTimeStamp) > interval) {  ... */\n      iszero\n      tag_30\n      jumpi\n        /* \"contracts/CustomLogic_flattened.sol\":4122:4137  block.timestamp */\n      timestamp\n        /* \"contracts/CustomLogic_flattened.sol\":4106:4119  lastTimeStamp */\n      0x01\n        /* \"contracts/CustomLogic_flattened.sol\":4106:4137  lastTimeStamp = block.timestamp */\n      dup2\n      swap1\n      sstore\n      pop\n        /* \"contracts/CustomLogic_flattened.sol\":4173:4174  1 */\n      0x01\n        /* \"contracts/CustomLogic_flattened.sol\":4163:4170  counter */\n      sload(0x00)\n        /* \"contracts/CustomLogic_flattened.sol\":4163:4174  counter + 1 */\n      tag_31\n      swap2\n      swap1\n      tag_32\n      jump\t// in\n    tag_31:\n        /* \"contracts/CustomLogic_flattened.sol\":4153:4160  counter */\n      0x00\n        /* \"contracts/CustomLogic_flattened.sol\":4153:4174  counter = counter + 1 */\n      dup2\n      swap1\n      sstore\n      pop\n        /* \"contracts/CustomLogic_flattened.sol\":4040:4187  if ((block.timestamp - lastTimeStamp) > interval) {  ... */\n    tag_30:\n        /* \"contracts/CustomLogic_flattened.sol\":3971:4195  function performUpkeep(bytes calldata) external override {  ... */\n      pop\n      pop\n      jump\t// out\n        /* \"contracts/CustomLogic_flattened.sol\":3444:3466  uint256 public counter */\n    tag_17:\n      sload(0x00)\n      dup2\n      jump\t// out\n        /* \"contracts/CustomLogic_flattened.sol\":3703:3965  function checkUpkeep(  ... */\n    tag_21:\n        /* \"contracts/CustomLogic_flattened.sol\":3846:3863  bool upkeepNeeded */\n      0x00\n        /* \"contracts/CustomLogic_flattened.sol\":3865:3877  bytes memory */\n      0x60\n        /* \"contracts/CustomLogic_flattened.sol\":3948:3956  interval */\n      immutable(\"0xcc143a676b82d5e07b2c9d57717b403ab3c58caa273a42cdb95b15980141a86c\")\n        /* \"contracts/CustomLogic_flattened.sol\":3931:3944  lastTimeStamp */\n      sload(0x01)\n        /* \"contracts/CustomLogic_flattened.sol\":3913:3928  block.timestamp */\n      timestamp\n        /* \"contracts/CustomLogic_flattened.sol\":3913:3944  block.timestamp - lastTimeStamp */\n      tag_34\n      swap2\n      swap1\n      tag_29\n      jump\t// in\n    tag_34:\n        /* \"contracts/CustomLogic_flattened.sol\":3912:3956  (block.timestamp - lastTimeStamp) > interval */\n      gt\n        /* \"contracts/CustomLogic_flattened.sol\":3897:3956  upkeepNeeded = (block.timestamp - lastTimeStamp) > interval */\n      swap2\n      pop\n        /* \"contracts/CustomLogic_flattened.sol\":3703:3965  function checkUpkeep(  ... */\n      swap3\n      pop\n      swap3\n      swap1\n      pop\n      jump\t// out\n        /* \"contracts/CustomLogic_flattened.sol\":3474:3507  uint256 public immutable interval */\n    tag_25:\n      immutable(\"0xcc143a676b82d5e07b2c9d57717b403ab3c58caa273a42cdb95b15980141a86c\")\n      dup2\n      jump\t// out\n        /* \"#utility.yul\":7:84   */\n    tag_35:\n        /* \"#utility.yul\":44:51   */\n      0x00\n        /* \"#utility.yul\":73:78   */\n      dup2\n        /* \"#utility.yul\":62:78   */\n      swap1\n      pop\n        /* \"#utility.yul\":7:84   */\n      swap2\n      swap1\n      pop\n      jump\t// out\n        /* \"#utility.yul\":90:208   */\n    tag_36:\n        /* \"#utility.yul\":177:201   */\n      tag_55\n        /* \"#utility.yul\":195:200   */\n      dup2\n        /* \"#utility.yul\":177:201   */\n      tag_35\n      jump\t// in\n    tag_55:\n        /* \"#utility.yul\":172:175   */\n      dup3\n        /* \"#utility.yul\":165:202   */\n      mstore\n        /* \"#utility.yul\":90:208   */\n      pop\n      pop\n      jump\t// out\n        /* \"#utility.yul\":214:436   */\n    tag_11:\n        /* \"#utility.yul\":307:311   */\n      0x00\n        /* \"#utility.yul\":345:347   */\n      0x20\n        /* \"#utility.yul\":334:343   */\n      dup3\n        /* \"#utility.yul\":330:348   */\n      add\n        /* \"#utility.yul\":322:348   */\n      swap1\n      pop\n        /* \"#utility.yul\":358:429   */\n      tag_57\n        /* \"#utility.yul\":426:427   */\n      0x00\n        /* \"#utility.yul\":415:424   */\n      dup4\n        /* \"#utility.yul\":411:428   */\n      add\n        /* \"#utility.yul\":402:408   */\n      dup5\n        /* \"#utility.yul\":358:429   */\n      tag_36\n      jump\t// in\n    tag_57:\n        /* \"#utility.yul\":214:436   */\n      swap3\n      swap2\n      pop\n      pop\n      jump\t// out\n        /* \"#utility.yul\":523:640   */\n    tag_38:\n        /* \"#utility.yul\":632:633   */\n      0x00\n        /* \"#utility.yul\":629:630   */\n      dup1\n        /* \"#utility.yul\":622:634   */\n      revert\n        /* \"#utility.yul\":646:763   */\n    tag_39:\n        /* \"#utility.yul\":755:756   */\n      0x00\n        /* \"#utility.yul\":752:753   */\n      dup1\n        /* \"#utility.yul\":745:757   */\n      revert\n        /* \"#utility.yul\":769:886   */\n    tag_40:\n        /* \"#utility.yul\":878:879   */\n      0x00\n        /* \"#utility.yul\":875:876   */\n      dup1\n        /* \"#utility.yul\":868:880   */\n      revert\n        /* \"#utility.yul\":892:1009   */\n    tag_41:\n        /* \"#utility.yul\":1001:1002   */\n      0x00\n        /* \"#utility.yul\":998:999   */\n      dup1\n        /* \"#utility.yul\":991:1003   */\n      revert\n        /* \"#utility.yul\":1015:1132   */\n    tag_42:\n        /* \"#utility.yul\":1124:1125   */\n      0x00\n        /* \"#utility.yul\":1121:1122   */\n      dup1\n        /* \"#utility.yul\":1114:1126   */\n      revert\n        /* \"#utility.yul\":1151:1703   */\n    tag_43:\n        /* \"#utility.yul\":1208:1216   */\n      0x00\n        /* \"#utility.yul\":1218:1224   */\n      dup1\n        /* \"#utility.yul\":1268:1271   */\n      dup4\n        /* \"#utility.yul\":1261:1265   */\n      0x1f\n        /* \"#utility.yul\":1253:1259   */\n      dup5\n        /* \"#utility.yul\":1249:1266   */\n      add\n        /* \"#utility.yul\":1245:1272   */\n      slt\n        /* \"#utility.yul\":1235:1357   */\n      tag_65\n      jumpi\n        /* \"#utility.yul\":1276:1355   */\n      tag_66\n      tag_40\n      jump\t// in\n    tag_66:\n        /* \"#utility.yul\":1235:1357   */\n    tag_65:\n        /* \"#utility.yul\":1389:1395   */\n      dup3\n        /* \"#utility.yul\":1376:1396   */\n      calldataload\n        /* \"#utility.yul\":1366:1396   */\n      swap1\n      pop\n        /* \"#utility.yul\":1419:1437   */\n      0xffffffffffffffff\n        /* \"#utility.yul\":1411:1417   */\n      dup2\n        /* \"#utility.yul\":1408:1438   */\n      gt\n        /* \"#utility.yul\":1405:1522   */\n      iszero\n      tag_67\n      jumpi\n        /* \"#utility.yul\":1441:1520   */\n      tag_68\n      tag_41\n      jump\t// in\n    tag_68:\n        /* \"#utility.yul\":1405:1522   */\n    tag_67:\n        /* \"#utility.yul\":1555:1559   */\n      0x20\n        /* \"#utility.yul\":1547:1553   */\n      dup4\n        /* \"#utility.yul\":1543:1560   */\n      add\n        /* \"#utility.yul\":1531:1560   */\n      swap2\n      pop\n        /* \"#utility.yul\":1609:1612   */\n      dup4\n        /* \"#utility.yul\":1601:1605   */\n      0x01\n        /* \"#utility.yul\":1593:1599   */\n      dup3\n        /* \"#utility.yul\":1589:1606   */\n      mul\n        /* \"#utility.yul\":1579:1587   */\n      dup4\n        /* \"#utility.yul\":1575:1607   */\n      add\n        /* \"#utility.yul\":1572:1613   */\n      gt\n        /* \"#utility.yul\":1569:1697   */\n      iszero\n      tag_69\n      jumpi\n        /* \"#utility.yul\":1616:1695   */\n      tag_70\n      tag_42\n      jump\t// in\n    tag_70:\n        /* \"#utility.yul\":1569:1697   */\n    tag_69:\n        /* \"#utility.yul\":1151:1703   */\n      swap3\n      pop\n      swap3\n      swap1\n      pop\n      jump\t// out\n        /* \"#utility.yul\":1709:2236   */\n    tag_14:\n        /* \"#utility.yul\":1779:1785   */\n      0x00\n        /* \"#utility.yul\":1787:1793   */\n      dup1\n        /* \"#utility.yul\":1836:1838   */\n      0x20\n        /* \"#utility.yul\":1824:1833   */\n      dup4\n        /* \"#utility.yul\":1815:1822   */\n      dup6\n        /* \"#utility.yul\":1811:1834   */\n      sub\n        /* \"#utility.yul\":1807:1839   */\n      slt\n        /* \"#utility.yul\":1804:1923   */\n      iszero\n      tag_72\n      jumpi\n        /* \"#utility.yul\":1842:1921   */\n      tag_73\n      tag_38\n      jump\t// in\n    tag_73:\n        /* \"#utility.yul\":1804:1923   */\n    tag_72:\n        /* \"#utility.yul\":1990:1991   */\n      0x00\n        /* \"#utility.yul\":1979:1988   */\n      dup4\n        /* \"#utility.yul\":1975:1992   */\n      add\n        /* \"#utility.yul\":1962:1993   */\n      calldataload\n        /* \"#utility.yul\":2020:2038   */\n      0xffffffffffffffff\n        /* \"#utility.yul\":2012:2018   */\n      dup2\n        /* \"#utility.yul\":2009:2039   */\n      gt\n        /* \"#utility.yul\":2006:2123   */\n      iszero\n      tag_74\n      jumpi\n        /* \"#utility.yul\":2042:2121   */\n      tag_75\n      tag_39\n      jump\t// in\n    tag_75:\n        /* \"#utility.yul\":2006:2123   */\n    tag_74:\n        /* \"#utility.yul\":2155:2219   */\n      tag_76\n        /* \"#utility.yul\":2211:2218   */\n      dup6\n        /* \"#utility.yul\":2202:2208   */\n      dup3\n        /* \"#utility.yul\":2191:2200   */\n      dup7\n        /* \"#utility.yul\":2187:2209   */\n      add\n        /* \"#utility.yul\":2155:2219   */\n      tag_43\n      jump\t// in\n    tag_76:\n        /* \"#utility.yul\":2137:2219   */\n      swap3\n      pop\n      swap3\n      pop\n        /* \"#utility.yul\":1933:2229   */\n      pop\n        /* \"#utility.yul\":1709:2236   */\n      swap3\n      pop\n      swap3\n      swap1\n      pop\n      jump\t// out\n        /* \"#utility.yul\":2242:2332   */\n    tag_44:\n        /* \"#utility.yul\":2276:2283   */\n      0x00\n        /* \"#utility.yul\":2319:2324   */\n      dup2\n        /* \"#utility.yul\":2312:2325   */\n      iszero\n        /* \"#utility.yul\":2305:2326   */\n      iszero\n        /* \"#utility.yul\":2294:2326   */\n      swap1\n      pop\n        /* \"#utility.yul\":2242:2332   */\n      swap2\n      swap1\n      pop\n      jump\t// out\n        /* \"#utility.yul\":2338:2447   */\n    tag_45:\n        /* \"#utility.yul\":2419:2440   */\n      tag_79\n        /* \"#utility.yul\":2434:2439   */\n      dup2\n        /* \"#utility.yul\":2419:2440   */\n      tag_44\n      jump\t// in\n    tag_79:\n        /* \"#utility.yul\":2414:2417   */\n      dup3\n        /* \"#utility.yul\":2407:2441   */\n      mstore\n        /* \"#utility.yul\":2338:2447   */\n      pop\n      pop\n      jump\t// out\n        /* \"#utility.yul\":2453:2551   */\n    tag_46:\n        /* \"#utility.yul\":2504:2510   */\n      0x00\n        /* \"#utility.yul\":2538:2543   */\n      dup2\n        /* \"#utility.yul\":2532:2544   */\n      mload\n        /* \"#utility.yul\":2522:2544   */\n      swap1\n      pop\n        /* \"#utility.yul\":2453:2551   */\n      swap2\n      swap1\n      pop\n      jump\t// out\n        /* \"#utility.yul\":2557:2725   */\n    tag_47:\n        /* \"#utility.yul\":2640:2651   */\n      0x00\n        /* \"#utility.yul\":2674:2680   */\n      dup3\n        /* \"#utility.yul\":2669:2672   */\n      dup3\n        /* \"#utility.yul\":2662:2681   */\n      mstore\n        /* \"#utility.yul\":2714:2718   */\n      0x20\n        /* \"#utility.yul\":2709:2712   */\n      dup3\n        /* \"#utility.yul\":2705:2719   */\n      add\n        /* \"#utility.yul\":2690:2719   */\n      swap1\n      pop\n        /* \"#utility.yul\":2557:2725   */\n      swap3\n      swap2\n      pop\n      pop\n      jump\t// out\n        /* \"#utility.yul\":2731:2977   */\n    tag_48:\n        /* \"#utility.yul\":2812:2813   */\n      0x00\n        /* \"#utility.yul\":2822:2935   */\n    tag_83:\n        /* \"#utility.yul\":2836:2842   */\n      dup4\n        /* \"#utility.yul\":2833:2834   */\n      dup2\n        /* \"#utility.yul\":2830:2843   */\n      lt\n        /* \"#utility.yul\":2822:2935   */\n      iszero\n      tag_85\n      jumpi\n        /* \"#utility.yul\":2921:2922   */\n      dup1\n        /* \"#utility.yul\":2916:2919   */\n      dup3\n        /* \"#utility.yul\":2912:2923   */\n      add\n        /* \"#utility.yul\":2906:2924   */\n      mload\n        /* \"#utility.yul\":2902:2903   */\n      dup2\n        /* \"#utility.yul\":2897:2900   */\n      dup5\n        /* \"#utility.yul\":2893:2904   */\n      add\n        /* \"#utility.yul\":2886:2925   */\n      mstore\n        /* \"#utility.yul\":2858:2860   */\n      0x20\n        /* \"#utility.yul\":2855:2856   */\n      dup2\n        /* \"#utility.yul\":2851:2861   */\n      add\n        /* \"#utility.yul\":2846:2861   */\n      swap1\n      pop\n        /* \"#utility.yul\":2822:2935   */\n      jump(tag_83)\n    tag_85:\n        /* \"#utility.yul\":2969:2970   */\n      0x00\n        /* \"#utility.yul\":2960:2966   */\n      dup5\n        /* \"#utility.yul\":2955:2958   */\n      dup5\n        /* \"#utility.yul\":2951:2967   */\n      add\n        /* \"#utility.yul\":2944:2971   */\n      mstore\n        /* \"#utility.yul\":2793:2977   */\n      pop\n        /* \"#utility.yul\":2731:2977   */\n      pop\n      pop\n      pop\n      jump\t// out\n        /* \"#utility.yul\":2983:3085   */\n    tag_49:\n        /* \"#utility.yul\":3024:3030   */\n      0x00\n        /* \"#utility.yul\":3075:3077   */\n      0x1f\n        /* \"#utility.yul\":3071:3078   */\n      not\n        /* \"#utility.yul\":3066:3068   */\n      0x1f\n        /* \"#utility.yul\":3059:3064   */\n      dup4\n        /* \"#utility.yul\":3055:3069   */\n      add\n        /* \"#utility.yul\":3051:3079   */\n      and\n        /* \"#utility.yul\":3041:3079   */\n      swap1\n      pop\n        /* \"#utility.yul\":2983:3085   */\n      swap2\n      swap1\n      pop\n      jump\t// out\n        /* \"#utility.yul\":3091:3464   */\n    tag_50:\n        /* \"#utility.yul\":3177:3180   */\n      0x00\n        /* \"#utility.yul\":3205:3243   */\n      tag_88\n        /* \"#utility.yul\":3237:3242   */\n      dup3\n        /* \"#utility.yul\":3205:3243   */\n      tag_46\n      jump\t// in\n    tag_88:\n        /* \"#utility.yul\":3259:3329   */\n      tag_89\n        /* \"#utility.yul\":3322:3328   */\n      dup2\n        /* \"#utility.yul\":3317:3320   */\n      dup6\n        /* \"#utility.yul\":3259:3329   */\n      tag_47\n      jump\t// in\n    tag_89:\n        /* \"#utility.yul\":3252:3329   */\n      swap4\n      pop\n        /* \"#utility.yul\":3338:3403   */\n      tag_90\n        /* \"#utility.yul\":3396:3402   */\n      dup2\n        /* \"#utility.yul\":3391:3394   */\n      dup6\n        /* \"#utility.yul\":3384:3388   */\n      0x20\n        /* \"#utility.yul\":3377:3382   */\n      dup7\n        /* \"#utility.yul\":3373:3389   */\n      add\n        /* \"#utility.yul\":3338:3403   */\n      tag_48\n      jump\t// in\n    tag_90:\n        /* \"#utility.yul\":3428:3457   */\n      tag_91\n        /* \"#utility.yul\":3450:3456   */\n      dup2\n        /* \"#utility.yul\":3428:3457   */\n      tag_49\n      jump\t// in\n    tag_91:\n        /* \"#utility.yul\":3423:3426   */\n      dup5\n        /* \"#utility.yul\":3419:3458   */\n      add\n        /* \"#utility.yul\":3412:3458   */\n      swap2\n      pop\n        /* \"#utility.yul\":3181:3464   */\n      pop\n        /* \"#utility.yul\":3091:3464   */\n      swap3\n      swap2\n      pop\n      pop\n      jump\t// out\n        /* \"#utility.yul\":3470:3877   */\n    tag_23:\n        /* \"#utility.yul\":3603:3607   */\n      0x00\n        /* \"#utility.yul\":3641:3643   */\n      0x40\n        /* \"#utility.yul\":3630:3639   */\n      dup3\n        /* \"#utility.yul\":3626:3644   */\n      add\n        /* \"#utility.yul\":3618:3644   */\n      swap1\n      pop\n        /* \"#utility.yul\":3654:3719   */\n      tag_93\n        /* \"#utility.yul\":3716:3717   */\n      0x00\n        /* \"#utility.yul\":3705:3714   */\n      dup4\n        /* \"#utility.yul\":3701:3718   */\n      add\n        /* \"#utility.yul\":3692:3698   */\n      dup6\n        /* \"#utility.yul\":3654:3719   */\n      tag_45\n      jump\t// in\n    tag_93:\n        /* \"#utility.yul\":3766:3775   */\n      dup2\n        /* \"#utility.yul\":3760:3764   */\n      dup2\n        /* \"#utility.yul\":3756:3776   */\n      sub\n        /* \"#utility.yul\":3751:3753   */\n      0x20\n        /* \"#utility.yul\":3740:3749   */\n      dup4\n        /* \"#utility.yul\":3736:3754   */\n      add\n        /* \"#utility.yul\":3729:3777   */\n      mstore\n        /* \"#utility.yul\":3794:3870   */\n      tag_94\n        /* \"#utility.yul\":3865:3869   */\n      dup2\n        /* \"#utility.yul\":3856:3862   */\n      dup5\n        /* \"#utility.yul\":3794:3870   */\n      tag_50\n      jump\t// in\n    tag_94:\n        /* \"#utility.yul\":3786:3870   */\n      swap1\n      pop\n        /* \"#utility.yul\":3470:3877   */\n      swap4\n      swap3\n      pop\n      pop\n      pop\n      jump\t// out\n        /* \"#utility.yul\":3883:4063   */\n    tag_51:\n        /* \"#utility.yul\":3931:4008   */\n      0x4e487b7100000000000000000000000000000000000000000000000000000000\n        /* \"#utility.yul\":3928:3929   */\n      0x00\n        /* \"#utility.yul\":3921:4009   */\n      mstore\n        /* \"#utility.yul\":4028:4032   */\n      0x11\n        /* \"#utility.yul\":4025:4026   */\n      0x04\n        /* \"#utility.yul\":4018:4033   */\n      mstore\n        /* \"#utility.yul\":4052:4056   */\n      0x24\n        /* \"#utility.yul\":4049:4050   */\n      0x00\n        /* \"#utility.yul\":4042:4057   */\n      revert\n        /* \"#utility.yul\":4069:4263   */\n    tag_29:\n        /* \"#utility.yul\":4109:4113   */\n      0x00\n        /* \"#utility.yul\":4129:4149   */\n      tag_97\n        /* \"#utility.yul\":4147:4148   */\n      dup3\n        /* \"#utility.yul\":4129:4149   */\n      tag_35\n      jump\t// in\n    tag_97:\n        /* \"#utility.yul\":4124:4149   */\n      swap2\n      pop\n        /* \"#utility.yul\":4163:4183   */\n      tag_98\n        /* \"#utility.yul\":4181:4182   */\n      dup4\n        /* \"#utility.yul\":4163:4183   */\n      tag_35\n      jump\t// in\n    tag_98:\n        /* \"#utility.yul\":4158:4183   */\n      swap3\n      pop\n        /* \"#utility.yul\":4207:4208   */\n      dup3\n        /* \"#utility.yul\":4204:4205   */\n      dup3\n        /* \"#utility.yul\":4200:4209   */\n      sub\n        /* \"#utility.yul\":4192:4209   */\n      swap1\n      pop\n        /* \"#utility.yul\":4231:4232   */\n      dup2\n        /* \"#utility.yul\":4225:4229   */\n      dup2\n        /* \"#utility.yul\":4222:4233   */\n      gt\n        /* \"#utility.yul\":4219:4256   */\n      iszero\n      tag_99\n      jumpi\n        /* \"#utility.yul\":4236:4254   */\n      tag_100\n      tag_51\n      jump\t// in\n    tag_100:\n        /* \"#utility.yul\":4219:4256   */\n    tag_99:\n        /* \"#utility.yul\":4069:4263   */\n      swap3\n      swap2\n      pop\n      pop\n      jump\t// out\n        /* \"#utility.yul\":4269:4460   */\n    tag_32:\n        /* \"#utility.yul\":4309:4312   */\n      0x00\n        /* \"#utility.yul\":4328:4348   */\n      tag_102\n        /* \"#utility.yul\":4346:4347   */\n      dup3\n        /* \"#utility.yul\":4328:4348   */\n      tag_35\n      jump\t// in\n    tag_102:\n        /* \"#utility.yul\":4323:4348   */\n      swap2\n      pop\n        /* \"#utility.yul\":4362:4382   */\n      tag_103\n        /* \"#utility.yul\":4380:4381   */\n      dup4\n        /* \"#utility.yul\":4362:4382   */\n      tag_35\n      jump\t// in\n    tag_103:\n        /* \"#utility.yul\":4357:4382   */\n      swap3\n      pop\n        /* \"#utility.yul\":4405:4406   */\n      dup3\n        /* \"#utility.yul\":4402:4403   */\n      dup3\n        /* \"#utility.yul\":4398:4407   */\n      add\n        /* \"#utility.yul\":4391:4407   */\n      swap1\n      pop\n        /* \"#utility.yul\":4426:4429   */\n      dup1\n        /* \"#utility.yul\":4423:4424   */\n      dup3\n        /* \"#utility.yul\":4420:4430   */\n      gt\n        /* \"#utility.yul\":4417:4453   */\n      iszero\n      tag_104\n      jumpi\n        /* \"#utility.yul\":4433:4451   */\n      tag_105\n      tag_51\n      jump\t// in\n    tag_105:\n        /* \"#utility.yul\":4417:4453   */\n    tag_104:\n        /* \"#utility.yul\":4269:4460   */\n      swap3\n      swap2\n      pop\n      pop\n      jump\t// out\n\n    auxdata: 0xa2646970667358221220a97c1da4230cd0dca1e61407107b87f7e8c6b0f807b53b51179a8f565632eb3964736f6c63430008130033\n}\n",
				"bytecode": {
					"linkReferences": {},
					"object": "60a060405234801561001057600080fd5b5060405161053d38038061053d83398181016040528101906100329190610089565b80608081815250504260018190555060008081905550506100b6565b600080fd5b6000819050919050565b61006681610053565b811461007157600080fd5b50565b6000815190506100838161005d565b92915050565b60006020828403121561009f5761009e61004e565b5b60006100ad84828501610074565b91505092915050565b60805161045e6100df6000396000818161010b0152818161016b01526101a4015261045e6000f3fe608060405234801561001057600080fd5b50600436106100575760003560e01c80633f3b3b271461005c5780634585e33b1461007a57806361bc221a146100965780636e04ff0d146100b4578063947a36fb146100e5575b600080fd5b610064610103565b60405161007191906101df565b60405180910390f35b610094600480360381019061008f9190610269565b610109565b005b61009e61015f565b6040516100ab91906101df565b60405180910390f35b6100ce60048036038101906100c99190610269565b610165565b6040516100dc929190610361565b60405180910390f35b6100ed6101a2565b6040516100fa91906101df565b60405180910390f35b60015481565b7f00000000000000000000000000000000000000000000000000000000000000006001544261013891906103c0565b111561015b5742600181905550600160005461015491906103f4565b6000819055505b5050565b60005481565b600060607f00000000000000000000000000000000000000000000000000000000000000006001544261019891906103c0565b1191509250929050565b7f000000000000000000000000000000000000000000000000000000000000000081565b6000819050919050565b6101d9816101c6565b82525050565b60006020820190506101f460008301846101d0565b92915050565b600080fd5b600080fd5b600080fd5b600080fd5b600080fd5b60008083601f84011261022957610228610204565b5b8235905067ffffffffffffffff81111561024657610245610209565b5b6020830191508360018202830111156102625761026161020e565b5b9250929050565b600080602083850312156102805761027f6101fa565b5b600083013567ffffffffffffffff81111561029e5761029d6101ff565b5b6102aa85828601610213565b92509250509250929050565b60008115159050919050565b6102cb816102b6565b82525050565b600081519050919050565b600082825260208201905092915050565b60005b8381101561030b5780820151818401526020810190506102f0565b60008484015250505050565b6000601f19601f8301169050919050565b6000610333826102d1565b61033d81856102dc565b935061034d8185602086016102ed565b61035681610317565b840191505092915050565b600060408201905061037660008301856102c2565b81810360208301526103888184610328565b90509392505050565b7f4e487b7100000000000000000000000000000000000000000000000000000000600052601160045260246000fd5b60006103cb826101c6565b91506103d6836101c6565b92508282039050818111156103ee576103ed610391565b5b92915050565b60006103ff826101c6565b915061040a836101c6565b925082820190508082111561042257610421610391565b5b9291505056fea2646970667358221220a97c1da4230cd0dca1e61407107b87f7e8c6b0f807b53b51179a8f565632eb3964736f6c63430008130033",
					"opcodes": "PUSH1 0xA0 PUSH1 0x40 MSTORE CALLVALUE DUP1 ISZERO PUSH2 0x10 JUMPI PUSH1 0x0 DUP1 REVERT JUMPDEST POP PUSH1 0x40 MLOAD PUSH2 0x53D CODESIZE SUB DUP1 PUSH2 0x53D DUP4 CODECOPY DUP2 DUP2 ADD PUSH1 0x40 MSTORE DUP2 ADD SWAP1 PUSH2 0x32 SWAP2 SWAP1 PUSH2 0x89 JUMP JUMPDEST DUP1 PUSH1 0x80 DUP2 DUP2 MSTORE POP POP TIMESTAMP PUSH1 0x1 DUP2 SWAP1 SSTORE POP PUSH1 0x0 DUP1 DUP2 SWAP1 SSTORE POP POP PUSH2 0xB6 JUMP JUMPDEST PUSH1 0x0 DUP1 REVERT JUMPDEST PUSH1 0x0 DUP2 SWAP1 POP SWAP2 SWAP1 POP JUMP JUMPDEST PUSH2 0x66 DUP2 PUSH2 0x53 JUMP JUMPDEST DUP2 EQ PUSH2 0x71 JUMPI PUSH1 0x0 DUP1 REVERT JUMPDEST POP JUMP JUMPDEST PUSH1 0x0 DUP2 MLOAD SWAP1 POP PUSH2 0x83 DUP2 PUSH2 0x5D JUMP JUMPDEST SWAP3 SWAP2 POP POP JUMP JUMPDEST PUSH1 0x0 PUSH1 0x20 DUP3 DUP5 SUB SLT ISZERO PUSH2 0x9F JUMPI PUSH2 0x9E PUSH2 0x4E JUMP JUMPDEST JUMPDEST PUSH1 0x0 PUSH2 0xAD DUP5 DUP3 DUP6 ADD PUSH2 0x74 JUMP JUMPDEST SWAP2 POP POP SWAP3 SWAP2 POP POP JUMP JUMPDEST PUSH1 0x80 MLOAD PUSH2 0x45E PUSH2 0xDF PUSH1 0x0 CODECOPY PUSH1 0x0 DUP2 DUP2 PUSH2 0x10B ADD MSTORE DUP2 DUP2 PUSH2 0x16B ADD MSTORE PUSH2 0x1A4 ADD MSTORE PUSH2 0x45E PUSH1 0x0 RETURN INVALID PUSH1 0x80 PUSH1 0x40 MSTORE CALLVALUE DUP1 ISZERO PUSH2 0x10 JUMPI PUSH1 0x0 DUP1 REVERT JUMPDEST POP PUSH1 0x4 CALLDATASIZE LT PUSH2 0x57 JUMPI PUSH1 0x0 CALLDATALOAD PUSH1 0xE0 SHR DUP1 PUSH4 0x3F3B3B27 EQ PUSH2 0x5C JUMPI DUP1 PUSH4 0x4585E33B EQ PUSH2 0x7A JUMPI DUP1 PUSH4 0x61BC221A EQ PUSH2 0x96 JUMPI DUP1 PUSH4 0x6E04FF0D EQ PUSH2 0xB4 JUMPI DUP1 PUSH4 0x947A36FB EQ PUSH2 0xE5 JUMPI JUMPDEST PUSH1 0x0 DUP1 REVERT JUMPDEST PUSH2 0x64 PUSH2 0x103 JUMP JUMPDEST PUSH1 0x40 MLOAD PUSH2 0x71 SWAP2 SWAP1 PUSH2 0x1DF JUMP JUMPDEST PUSH1 0x40 MLOAD DUP1 SWAP2 SUB SWAP1 RETURN JUMPDEST PUSH2 0x94 PUSH1 0x4 DUP1 CALLDATASIZE SUB DUP2 ADD SWAP1 PUSH2 0x8F SWAP2 SWAP1 PUSH2 0x269 JUMP JUMPDEST PUSH2 0x109 JUMP JUMPDEST STOP JUMPDEST PUSH2 0x9E PUSH2 0x15F JUMP JUMPDEST PUSH1 0x40 MLOAD PUSH2 0xAB SWAP2 SWAP1 PUSH2 0x1DF JUMP JUMPDEST PUSH1 0x40 MLOAD DUP1 SWAP2 SUB SWAP1 RETURN JUMPDEST PUSH2 0xCE PUSH1 0x4 DUP1 CALLDATASIZE SUB DUP2 ADD SWAP1 PUSH2 0xC9 SWAP2 SWAP1 PUSH2 0x269 JUMP JUMPDEST PUSH2 0x165 JUMP JUMPDEST PUSH1 0x40 MLOAD PUSH2 0xDC SWAP3 SWAP2 SWAP1 PUSH2 0x361 JUMP JUMPDEST PUSH1 0x40 MLOAD DUP1 SWAP2 SUB SWAP1 RETURN JUMPDEST PUSH2 0xED PUSH2 0x1A2 JUMP JUMPDEST PUSH1 0x40 MLOAD PUSH2 0xFA SWAP2 SWAP1 PUSH2 0x1DF JUMP JUMPDEST PUSH1 0x40 MLOAD DUP1 SWAP2 SUB SWAP1 RETURN JUMPDEST PUSH1 0x1 SLOAD DUP2 JUMP JUMPDEST PUSH32 0x0 PUSH1 0x1 SLOAD TIMESTAMP PUSH2 0x138 SWAP2 SWAP1 PUSH2 0x3C0 JUMP JUMPDEST GT ISZERO PUSH2 0x15B JUMPI TIMESTAMP PUSH1 0x1 DUP2 SWAP1 SSTORE POP PUSH1 0x1 PUSH1 0x0 SLOAD PUSH2 0x154 SWAP2 SWAP1 PUSH2 0x3F4 JUMP JUMPDEST PUSH1 0x0 DUP2 SWAP1 SSTORE POP JUMPDEST POP POP JUMP JUMPDEST PUSH1 0x0 SLOAD DUP2 JUMP JUMPDEST PUSH1 0x0 PUSH1 0x60 PUSH32 0x0 PUSH1 0x1 SLOAD TIMESTAMP PUSH2 0x198 SWAP2 SWAP1 PUSH2 0x3C0 JUMP JUMPDEST GT SWAP2 POP SWAP3 POP SWAP3 SWAP1 POP JUMP JUMPDEST PUSH32 0x0 DUP2 JUMP JUMPDEST PUSH1 0x0 DUP2 SWAP1 POP SWAP2 SWAP1 POP JUMP JUMPDEST PUSH2 0x1D9 DUP2 PUSH2 0x1C6 JUMP JUMPDEST DUP3 MSTORE POP POP JUMP JUMPDEST PUSH1 0x0 PUSH1 0x20 DUP3 ADD SWAP1 POP PUSH2 0x1F4 PUSH1 0x0 DUP4 ADD DUP5 PUSH2 0x1D0 JUMP JUMPDEST SWAP3 SWAP2 POP POP JUMP JUMPDEST PUSH1 0x0 DUP1 REVERT JUMPDEST PUSH1 0x0 DUP1 REVERT JUMPDEST PUSH1 0x0 DUP1 REVERT JUMPDEST PUSH1 0x0 DUP1 REVERT JUMPDEST PUSH1 0x0 DUP1 REVERT JUMPDEST PUSH1 0x0 DUP1 DUP4 PUSH1 0x1F DUP5 ADD SLT PUSH2 0x229 JUMPI PUSH2 0x228 PUSH2 0x204 JUMP JUMPDEST JUMPDEST DUP3 CALLDATALOAD SWAP1 POP PUSH8 0xFFFFFFFFFFFFFFFF DUP2 GT ISZERO PUSH2 0x246 JUMPI PUSH2 0x245 PUSH2 0x209 JUMP JUMPDEST JUMPDEST PUSH1 0x20 DUP4 ADD SWAP2 POP DUP4 PUSH1 0x1 DUP3 MUL DUP4 ADD GT ISZERO PUSH2 0x262 JUMPI PUSH2 0x261 PUSH2 0x20E JUMP JUMPDEST JUMPDEST SWAP3 POP SWAP3 SWAP1 POP JUMP JUMPDEST PUSH1 0x0 DUP1 PUSH1 0x20 DUP4 DUP6 SUB SLT ISZERO PUSH2 0x280 JUMPI PUSH2 0x27F PUSH2 0x1FA JUMP JUMPDEST JUMPDEST PUSH1 0x0 DUP4 ADD CALLDATALOAD PUSH8 0xFFFFFFFFFFFFFFFF DUP2 GT ISZERO PUSH2 0x29E JUMPI PUSH2 0x29D PUSH2 0x1FF JUMP JUMPDEST JUMPDEST PUSH2 0x2AA DUP6 DUP3 DUP7 ADD PUSH2 0x213 JUMP JUMPDEST SWAP3 POP SWAP3 POP POP SWAP3 POP SWAP3 SWAP1 POP JUMP JUMPDEST PUSH1 0x0 DUP2 ISZERO ISZERO SWAP1 POP SWAP2 SWAP1 POP JUMP JUMPDEST PUSH2 0x2CB DUP2 PUSH2 0x2B6 JUMP JUMPDEST DUP3 MSTORE POP POP JUMP JUMPDEST PUSH1 0x0 DUP2 MLOAD SWAP1 POP SWAP2 SWAP1 POP JUMP JUMPDEST PUSH1 0x0 DUP3 DUP3 MSTORE PUSH1 0x20 DUP3 ADD SWAP1 POP SWAP3 SWAP2 POP POP JUMP JUMPDEST PUSH1 0x0 JUMPDEST DUP4 DUP2 LT ISZERO PUSH2 0x30B JUMPI DUP1 DUP3 ADD MLOAD DUP2 DUP5 ADD MSTORE PUSH1 0x20 DUP2 ADD SWAP1 POP PUSH2 0x2F0 JUMP JUMPDEST PUSH1 0x0 DUP5 DUP5 ADD MSTORE POP POP POP POP JUMP JUMPDEST PUSH1 0x0 PUSH1 0x1F NOT PUSH1 0x1F DUP4 ADD AND SWAP1 POP SWAP2 SWAP1 POP JUMP JUMPDEST PUSH1 0x0 PUSH2 0x333 DUP3 PUSH2 0x2D1 JUMP JUMPDEST PUSH2 0x33D DUP2 DUP6 PUSH2 0x2DC JUMP JUMPDEST SWAP4 POP PUSH2 0x34D DUP2 DUP6 PUSH1 0x20 DUP7 ADD PUSH2 0x2ED JUMP JUMPDEST PUSH2 0x356 DUP2 PUSH2 0x317 JUMP JUMPDEST DUP5 ADD SWAP2 POP POP SWAP3 SWAP2 POP POP JUMP JUMPDEST PUSH1 0x0 PUSH1 0x40 DUP3 ADD SWAP1 POP PUSH2 0x376 PUSH1 0x0 DUP4 ADD DUP6 PUSH2 0x2C2 JUMP JUMPDEST DUP2 DUP2 SUB PUSH1 0x20 DUP4 ADD MSTORE PUSH2 0x388 DUP2 DUP5 PUSH2 0x328 JUMP JUMPDEST SWAP1 POP SWAP4 SWAP3 POP POP POP JUMP JUMPDEST PUSH32 0x4E487B7100000000000000000000000000000000000000000000000000000000 PUSH1 0x0 MSTORE PUSH1 0x11 PUSH1 0x4 MSTORE PUSH1 0x24 PUSH1 0x0 REVERT JUMPDEST PUSH1 0x0 PUSH2 0x3CB DUP3 PUSH2 0x1C6 JUMP JUMPDEST SWAP2 POP PUSH2 0x3D6 DUP4 PUSH2 0x1C6 JUMP JUMPDEST SWAP3 POP DUP3 DUP3 SUB SWAP1 POP DUP2 DUP2 GT ISZERO PUSH2 0x3EE JUMPI PUSH2 0x3ED PUSH2 0x391 JUMP JUMPDEST JUMPDEST SWAP3 SWAP2 POP POP JUMP JUMPDEST PUSH1 0x0 PUSH2 0x3FF DUP3 PUSH2 0x1C6 JUMP JUMPDEST SWAP2 POP PUSH2 0x40A DUP4 PUSH2 0x1C6 JUMP JUMPDEST SWAP3 POP DUP3 DUP3 ADD SWAP1 POP DUP1 DUP3 GT ISZERO PUSH2 0x422 JUMPI PUSH2 0x421 PUSH2 0x391 JUMP JUMPDEST JUMPDEST SWAP3 SWAP2 POP POP JUMP INVALID LOG2 PUSH5 0x6970667358 0x22 SLT KECCAK256 0xA9 PUSH29 0x1DA4230CD0DCA1E61407107B87F7E8C6B0F807B53B51179A8F565632EB CODECOPY PUSH5 0x736F6C6343 STOP ADDMOD SGT STOP CALLER "
				},
				"gasEstimates": {
					"creation": {
						"codeDepositCost": "223600",
						"executionCost": "infinite",
						"totalCost": "infinite"
					},
					"external": {
						"checkUpkeep(bytes)": "infinite",
						"counter()": "2451",
						"interval()": "infinite",
						"lastTimeStamp()": "2407",
						"performUpkeep(bytes)": "infinite"
					}
				},
				"methodIdentifiers": {
					"checkUpkeep(bytes)": "6e04ff0d",
					"counter()": "61bc221a",
					"interval()": "947a36fb",
					"lastTimeStamp()": "3f3b3b27",
					"performUpkeep(bytes)": "4585e33b"
				}
			},
			"storageLayout": {
				"storage": [
					{
						"astId": 66,
						"contract": "contracts/CustomLogic_flattened.sol:CustomLogic",
						"label": "counter",
						"offset": 0,
						"slot": "0",
						"type": "t_uint256"
					},
					{
						"astId": 70,
						"contract": "contracts/CustomLogic_flattened.sol:CustomLogic",
						"label": "lastTimeStamp",
						"offset": 0,
						"slot": "1",
						"type": "t_uint256"
					}
				],
				"types": {
					"t_uint256": {
						"encoding": "inplace",
						"label": "uint256",
						"numberOfBytes": "32"
					}
				}
			},
			"userdoc": {
				"kind": "user",
				"methods": {},
				"version": 1
			}
		}
	}
}