{
	"contracts/Try_API.sol": {
		"CatFactConsumer": {
			"abi": [
				{
					"inputs": [],
					"stateMutability": "nonpayable",
					"type": "constructor"
				},
				{
					"inputs": [],
					"name": "EmptySource",
					"type": "error"
				},
				{
					"inputs": [],
					"name": "NoInlineSecrets",
					"type": "error"
				},
				{
					"inputs": [],
					"name": "OnlyRouterCanFulfill",
					"type": "error"
				},
				{
					"inputs": [
						{
							"internalType": "bytes32",
							"name": "requestId",
							"type": "bytes32"
						}
					],
					"name": "UnexpectedRequestID",
					"type": "error"
				},
				{
					"anonymous": false,
					"inputs": [
						{
							"indexed": true,
							"internalType": "address",
							"name": "from",
							"type": "address"
						},
						{
							"indexed": true,
							"internalType": "address",
							"name": "to",
							"type": "address"
						}
					],
					"name": "OwnershipTransferRequested",
					"type": "event"
				},
				{
					"anonymous": false,
					"inputs": [
						{
							"indexed": true,
							"internalType": "address",
							"name": "from",
							"type": "address"
						},
						{
							"indexed": true,
							"internalType": "address",
							"name": "to",
							"type": "address"
						}
					],
					"name": "OwnershipTransferred",
					"type": "event"
				},
				{
					"anonymous": false,
					"inputs": [
						{
							"indexed": true,
							"internalType": "bytes32",
							"name": "id",
							"type": "bytes32"
						}
					],
					"name": "RequestFulfilled",
					"type": "event"
				},
				{
					"anonymous": false,
					"inputs": [
						{
							"indexed": true,
							"internalType": "bytes32",
							"name": "id",
							"type": "bytes32"
						}
					],
					"name": "RequestSent",
					"type": "event"
				},
				{
					"anonymous": false,
					"inputs": [
						{
							"indexed": true,
							"internalType": "bytes32",
							"name": "requestId",
							"type": "bytes32"
						},
						{
							"indexed": false,
							"internalType": "string",
							"name": "fact",
							"type": "string"
						},
						{
							"indexed": false,
							"internalType": "bytes",
							"name": "response",
							"type": "bytes"
						},
						{
							"indexed": false,
							"internalType": "bytes",
							"name": "err",
							"type": "bytes"
						}
					],
					"name": "Response",
					"type": "event"
				},
				{
					"inputs": [],
					"name": "acceptOwnership",
					"outputs": [],
					"stateMutability": "nonpayable",
					"type": "function"
				},
				{
					"inputs": [],
					"name": "fact",
					"outputs": [
						{
							"internalType": "string",
							"name": "",
							"type": "string"
						}
					],
					"stateMutability": "view",
					"type": "function"
				},
				{
					"inputs": [
						{
							"internalType": "bytes32",
							"name": "requestId",
							"type": "bytes32"
						},
						{
							"internalType": "bytes",
							"name": "response",
							"type": "bytes"
						},
						{
							"internalType": "bytes",
							"name": "err",
							"type": "bytes"
						}
					],
					"name": "handleOracleFulfillment",
					"outputs": [],
					"stateMutability": "nonpayable",
					"type": "function"
				},
				{
					"inputs": [],
					"name": "hasReceivedFact",
					"outputs": [
						{
							"internalType": "bool",
							"name": "",
							"type": "bool"
						}
					],
					"stateMutability": "view",
					"type": "function"
				},
				{
					"inputs": [],
					"name": "owner",
					"outputs": [
						{
							"internalType": "address",
							"name": "",
							"type": "address"
						}
					],
					"stateMutability": "view",
					"type": "function"
				},
				{
					"inputs": [],
					"name": "s_lastError",
					"outputs": [
						{
							"internalType": "bytes",
							"name": "",
							"type": "bytes"
						}
					],
					"stateMutability": "view",
					"type": "function"
				},
				{
					"inputs": [],
					"name": "s_lastRequestId",
					"outputs": [
						{
							"internalType": "bytes32",
							"name": "",
							"type": "bytes32"
						}
					],
					"stateMutability": "view",
					"type": "function"
				},
				{
					"inputs": [],
					"name": "s_lastResponse",
					"outputs": [
						{
							"internalType": "bytes",
							"name": "",
							"type": "bytes"
						}
					],
					"stateMutability": "view",
					"type": "function"
				},
				{
					"inputs": [
						{
							"internalType": "uint64",
							"name": "subscriptionId",
							"type": "uint64"
						}
					],
					"name": "sendRequest",
					"outputs": [
						{
							"internalType": "bytes32",
							"name": "requestId",
							"type": "bytes32"
						}
					],
					"stateMutability": "nonpayable",
					"type": "function"
				},
				{
					"inputs": [
						{
							"internalType": "address",
							"name": "to",
							"type": "address"
						}
					],
					"name": "transferOwnership",
					"outputs": [],
					"stateMutability": "nonpayable",
					"type": "function"
				}
			],
			"devdoc": {
				"details": "Uses the cat facts API (https://catfact.ninja/fact)",
				"kind": "dev",
				"methods": {
					"handleOracleFulfillment(bytes32,bytes,bytes)": {
						"details": "Either response or error parameter will be set, but never both.",
						"params": {
							"err": "Aggregated error either from the request's source code or from the execution pipeline.",
							"requestId": "The requestId returned by FunctionsClient.sendRequest().",
							"response": "Aggregated response from the request's source code."
						}
					},
					"hasReceivedFact()": {
						"returns": {
							"_0": "bool True if a fact has been received, false otherwise"
						}
					},
					"sendRequest(uint64)": {
						"params": {
							"subscriptionId": "The ID for the Chainlink subscription"
						},
						"returns": {
							"requestId": "The ID of the request"
						}
					}
				},
				"title": "CatFactConsumer",
				"version": 1
			},
			"evm": {
				"assembly": "    /* \"contracts/Try_API.sol\":535:4376  contract CatFactConsumer is FunctionsClient, ConfirmedOwner {... */\n  mstore(0x40, 0xa0)\n    /* \"contracts/Try_API.sol\":1256:1298  0xA9d587a00A31A52Ed70D6026794a8FC5E2F5dCb0 */\n  0xa9d587a00a31a52ed70d6026794a8fc5e2f5dcb0\n    /* \"contracts/Try_API.sol\":1239:1298  address router = 0xA9d587a00A31A52Ed70D6026794a8FC5E2F5dCb0 */\n  0x05\n  exp(0x0100, 0x00)\n  dup2\n  sload\n  dup2\n  0xffffffffffffffffffffffffffffffffffffffff\n  mul\n  not\n  and\n  swap1\n  dup4\n  0xffffffffffffffffffffffffffffffffffffffff\n  and\n  mul\n  or\n  swap1\n  sstore\n  pop\n    /* \"contracts/Try_API.sol\":1413:1729  string source =... */\n  mload(0x40)\n  dup1\n  0x0100\n  add\n  0x40\n  mstore\n  dup1\n  0xd6\n  dup2\n  mstore\n  0x20\n  add\n  data_9129edf49cfd6e53197c32f13b0309bffe903d33b69983cb72c931ee27a6d12b\n  0xd6\n  swap2\n  codecopy\n  0x06\n  swap1\n  dup2\n  tag_1\n  swap2\n  swap1\n  tag_2\n  jump\t// in\ntag_1:\n  pop\n    /* \"contracts/Try_API.sol\":1779:1785  300000 */\n  0x0493e0\n    /* \"contracts/Try_API.sol\":1761:1785  uint32 gasLimit = 300000 */\n  0x07\n  exp(0x0100, 0x00)\n  dup2\n  sload\n  dup2\n  0xffffffff\n  mul\n  not\n  and\n  swap1\n  dup4\n  0xffffffff\n  and\n  mul\n  or\n  swap1\n  sstore\n  pop\n    /* \"contracts/Try_API.sol\":1973:2039  0x66756e2d6176616c616e6368652d66756a692d31000000000000000000000000 */\n  0x66756e2d6176616c616e6368652d66756a692d31000000000000000000000000\n    /* \"contracts/Try_API.sol\":1949:2039  bytes32 donID =... */\n  0x00\n  shl\n  0x08\n  sstore\n    /* \"contracts/Try_API.sol\":2242:2309  constructor() FunctionsClient(router) ConfirmedOwner(msg.sender) {} */\n  callvalue\n  dup1\n  iszero\n  tag_3\n  jumpi\n  0x00\n  dup1\n  revert\ntag_3:\n  pop\n    /* \"contracts/Try_API.sol\":2295:2305  msg.sender */\n  caller\n    /* \"@chainlink/contracts/src/v0.8/shared/access/ConfirmedOwner.sol\":355:363  newOwner */\n  dup1\n    /* \"@chainlink/contracts/src/v0.8/shared/access/ConfirmedOwner.sol\":373:374  0 */\n  0x00\n    /* \"contracts/Try_API.sol\":2272:2278  router */\n  0x05\n  0x00\n  swap1\n  sload\n  swap1\n  0x0100\n  exp\n  swap1\n  div\n  0xffffffffffffffffffffffffffffffffffffffff\n  and\n    /* \"@chainlink/contracts/src/v0.8/functions/v1_0_0/FunctionsClient.sol\":764:770  router */\n  dup1\n    /* \"@chainlink/contracts/src/v0.8/functions/v1_0_0/FunctionsClient.sol\":736:771  i_router = IFunctionsRouter(router) */\n  0xffffffffffffffffffffffffffffffffffffffff\n  and\n  0x80\n  dup2\n  0xffffffffffffffffffffffffffffffffffffffff\n  and\n  dup2\n  mstore\n  pop\n  pop\n    /* \"@chainlink/contracts/src/v0.8/functions/v1_0_0/FunctionsClient.sol\":702:776  constructor(address router) {... */\n  pop\n    /* \"@chainlink/contracts/src/v0.8/shared/access/ConfirmedOwnerWithProposal.sol\":618:619  0 */\n  0x00\n    /* \"@chainlink/contracts/src/v0.8/shared/access/ConfirmedOwnerWithProposal.sol\":598:620  newOwner != address(0) */\n  0xffffffffffffffffffffffffffffffffffffffff\n  and\n    /* \"@chainlink/contracts/src/v0.8/shared/access/ConfirmedOwnerWithProposal.sol\":598:606  newOwner */\n  dup3\n    /* \"@chainlink/contracts/src/v0.8/shared/access/ConfirmedOwnerWithProposal.sol\":598:620  newOwner != address(0) */\n  0xffffffffffffffffffffffffffffffffffffffff\n  and\n  sub\n    /* \"@chainlink/contracts/src/v0.8/shared/access/ConfirmedOwnerWithProposal.sol\":590:649  require(newOwner != address(0), \"Cannot set owner to zero\") */\n  tag_10\n  jumpi\n  mload(0x40)\n  0x08c379a000000000000000000000000000000000000000000000000000000000\n  dup2\n  mstore\n  0x04\n  add\n  tag_11\n  swap1\n  tag_12\n  jump\t// in\ntag_11:\n  mload(0x40)\n  dup1\n  swap2\n  sub\n  swap1\n  revert\ntag_10:\n    /* \"@chainlink/contracts/src/v0.8/shared/access/ConfirmedOwnerWithProposal.sol\":666:674  newOwner */\n  dup2\n    /* \"@chainlink/contracts/src/v0.8/shared/access/ConfirmedOwnerWithProposal.sol\":656:663  s_owner */\n  0x00\n  dup1\n    /* \"@chainlink/contracts/src/v0.8/shared/access/ConfirmedOwnerWithProposal.sol\":656:674  s_owner = newOwner */\n  0x0100\n  exp\n  dup2\n  sload\n  dup2\n  0xffffffffffffffffffffffffffffffffffffffff\n  mul\n  not\n  and\n  swap1\n  dup4\n  0xffffffffffffffffffffffffffffffffffffffff\n  and\n  mul\n  or\n  swap1\n  sstore\n  pop\n    /* \"@chainlink/contracts/src/v0.8/shared/access/ConfirmedOwnerWithProposal.sol\":708:709  0 */\n  0x00\n    /* \"@chainlink/contracts/src/v0.8/shared/access/ConfirmedOwnerWithProposal.sol\":684:710  pendingOwner != address(0) */\n  0xffffffffffffffffffffffffffffffffffffffff\n  and\n    /* \"@chainlink/contracts/src/v0.8/shared/access/ConfirmedOwnerWithProposal.sol\":684:696  pendingOwner */\n  dup2\n    /* \"@chainlink/contracts/src/v0.8/shared/access/ConfirmedOwnerWithProposal.sol\":684:710  pendingOwner != address(0) */\n  0xffffffffffffffffffffffffffffffffffffffff\n  and\n  eq\n    /* \"@chainlink/contracts/src/v0.8/shared/access/ConfirmedOwnerWithProposal.sol\":680:759  if (pendingOwner != address(0)) {... */\n  tag_13\n  jumpi\n    /* \"@chainlink/contracts/src/v0.8/shared/access/ConfirmedOwnerWithProposal.sol\":720:752  _transferOwnership(pendingOwner) */\n  tag_14\n    /* \"@chainlink/contracts/src/v0.8/shared/access/ConfirmedOwnerWithProposal.sol\":739:751  pendingOwner */\n  dup2\n    /* \"@chainlink/contracts/src/v0.8/shared/access/ConfirmedOwnerWithProposal.sol\":720:738  _transferOwnership */\n  shl(0x20, tag_15)\n    /* \"@chainlink/contracts/src/v0.8/shared/access/ConfirmedOwnerWithProposal.sol\":720:752  _transferOwnership(pendingOwner) */\n  0x20\n  shr\n  jump\t// in\ntag_14:\n    /* \"@chainlink/contracts/src/v0.8/shared/access/ConfirmedOwnerWithProposal.sol\":680:759  if (pendingOwner != address(0)) {... */\ntag_13:\n    /* \"@chainlink/contracts/src/v0.8/shared/access/ConfirmedOwnerWithProposal.sol\":481:763  constructor(address newOwner, address pendingOwner) {... */\n  pop\n  pop\n    /* \"@chainlink/contracts/src/v0.8/shared/access/ConfirmedOwner.sol\":298:379  constructor(address newOwner) ConfirmedOwnerWithProposal(newOwner, address(0)) {} */\n  pop\n    /* \"contracts/Try_API.sol\":535:4376  contract CatFactConsumer is FunctionsClient, ConfirmedOwner {... */\n  jump(tag_18)\n    /* \"@chainlink/contracts/src/v0.8/shared/access/ConfirmedOwnerWithProposal.sol\":1536:1775  function _transferOwnership(address to) private {... */\ntag_15:\n    /* \"@chainlink/contracts/src/v0.8/shared/access/ConfirmedOwnerWithProposal.sol\":1655:1665  msg.sender */\n  caller\n    /* \"@chainlink/contracts/src/v0.8/shared/access/ConfirmedOwnerWithProposal.sol\":1649:1665  to != msg.sender */\n  0xffffffffffffffffffffffffffffffffffffffff\n  and\n    /* \"@chainlink/contracts/src/v0.8/shared/access/ConfirmedOwnerWithProposal.sol\":1649:1651  to */\n  dup2\n    /* \"@chainlink/contracts/src/v0.8/shared/access/ConfirmedOwnerWithProposal.sol\":1649:1665  to != msg.sender */\n  0xffffffffffffffffffffffffffffffffffffffff\n  and\n  sub\n    /* \"@chainlink/contracts/src/v0.8/shared/access/ConfirmedOwnerWithProposal.sol\":1641:1693  require(to != msg.sender, \"Cannot transfer to self\") */\n  tag_20\n  jumpi\n  mload(0x40)\n  0x08c379a000000000000000000000000000000000000000000000000000000000\n  dup2\n  mstore\n  0x04\n  add\n  tag_21\n  swap1\n  tag_22\n  jump\t// in\ntag_21:\n  mload(0x40)\n  dup1\n  swap2\n  sub\n  swap1\n  revert\ntag_20:\n    /* \"@chainlink/contracts/src/v0.8/shared/access/ConfirmedOwnerWithProposal.sol\":1717:1719  to */\n  dup1\n    /* \"@chainlink/contracts/src/v0.8/shared/access/ConfirmedOwnerWithProposal.sol\":1700:1714  s_pendingOwner */\n  0x01\n  0x00\n    /* \"@chainlink/contracts/src/v0.8/shared/access/ConfirmedOwnerWithProposal.sol\":1700:1719  s_pendingOwner = to */\n  0x0100\n  exp\n  dup2\n  sload\n  dup2\n  0xffffffffffffffffffffffffffffffffffffffff\n  mul\n  not\n  and\n  swap1\n  dup4\n  0xffffffffffffffffffffffffffffffffffffffff\n  and\n  mul\n  or\n  swap1\n  sstore\n  pop\n    /* \"@chainlink/contracts/src/v0.8/shared/access/ConfirmedOwnerWithProposal.sol\":1767:1769  to */\n  dup1\n    /* \"@chainlink/contracts/src/v0.8/shared/access/ConfirmedOwnerWithProposal.sol\":1731:1770  OwnershipTransferRequested(s_owner, to) */\n  0xffffffffffffffffffffffffffffffffffffffff\n  and\n    /* \"@chainlink/contracts/src/v0.8/shared/access/ConfirmedOwnerWithProposal.sol\":1758:1765  s_owner */\n  0x00\n  dup1\n  sload\n  swap1\n  0x0100\n  exp\n  swap1\n  div\n  0xffffffffffffffffffffffffffffffffffffffff\n  and\n    /* \"@chainlink/contracts/src/v0.8/shared/access/ConfirmedOwnerWithProposal.sol\":1731:1770  OwnershipTransferRequested(s_owner, to) */\n  0xffffffffffffffffffffffffffffffffffffffff\n  and\n  0xed8889f560326eb138920d842192f0eb3dd22b4f139c87a2c57538e05bae1278\n  mload(0x40)\n  mload(0x40)\n  dup1\n  swap2\n  sub\n  swap1\n  log3\n    /* \"@chainlink/contracts/src/v0.8/shared/access/ConfirmedOwnerWithProposal.sol\":1536:1775  function _transferOwnership(address to) private {... */\n  pop\n  jump\t// out\n    /* \"#utility.yul\":7:106   */\ntag_23:\n    /* \"#utility.yul\":59:65   */\n  0x00\n    /* \"#utility.yul\":93:98   */\n  dup2\n    /* \"#utility.yul\":87:99   */\n  mload\n    /* \"#utility.yul\":77:99   */\n  swap1\n  pop\n    /* \"#utility.yul\":7:106   */\n  swap2\n  swap1\n  pop\n  jump\t// out\n    /* \"#utility.yul\":112:292   */\ntag_24:\n    /* \"#utility.yul\":160:237   */\n  0x4e487b7100000000000000000000000000000000000000000000000000000000\n    /* \"#utility.yul\":157:158   */\n  0x00\n    /* \"#utility.yul\":150:238   */\n  mstore\n    /* \"#utility.yul\":257:261   */\n  0x41\n    /* \"#utility.yul\":254:255   */\n  0x04\n    /* \"#utility.yul\":247:262   */\n  mstore\n    /* \"#utility.yul\":281:285   */\n  0x24\n    /* \"#utility.yul\":278:279   */\n  0x00\n    /* \"#utility.yul\":271:286   */\n  revert\n    /* \"#utility.yul\":298:478   */\ntag_25:\n    /* \"#utility.yul\":346:423   */\n  0x4e487b7100000000000000000000000000000000000000000000000000000000\n    /* \"#utility.yul\":343:344   */\n  0x00\n    /* \"#utility.yul\":336:424   */\n  mstore\n    /* \"#utility.yul\":443:447   */\n  0x22\n    /* \"#utility.yul\":440:441   */\n  0x04\n    /* \"#utility.yul\":433:448   */\n  mstore\n    /* \"#utility.yul\":467:471   */\n  0x24\n    /* \"#utility.yul\":464:465   */\n  0x00\n    /* \"#utility.yul\":457:472   */\n  revert\n    /* \"#utility.yul\":484:804   */\ntag_26:\n    /* \"#utility.yul\":528:534   */\n  0x00\n    /* \"#utility.yul\":565:566   */\n  0x02\n    /* \"#utility.yul\":559:563   */\n  dup3\n    /* \"#utility.yul\":555:567   */\n  div\n    /* \"#utility.yul\":545:567   */\n  swap1\n  pop\n    /* \"#utility.yul\":612:613   */\n  0x01\n    /* \"#utility.yul\":606:610   */\n  dup3\n    /* \"#utility.yul\":602:614   */\n  and\n    /* \"#utility.yul\":633:651   */\n  dup1\n    /* \"#utility.yul\":623:704   */\n  tag_53\n  jumpi\n    /* \"#utility.yul\":689:693   */\n  0x7f\n    /* \"#utility.yul\":681:687   */\n  dup3\n    /* \"#utility.yul\":677:694   */\n  and\n    /* \"#utility.yul\":667:694   */\n  swap2\n  pop\n    /* \"#utility.yul\":623:704   */\ntag_53:\n    /* \"#utility.yul\":751:753   */\n  0x20\n    /* \"#utility.yul\":743:749   */\n  dup3\n    /* \"#utility.yul\":740:754   */\n  lt\n    /* \"#utility.yul\":720:738   */\n  dup2\n    /* \"#utility.yul\":717:755   */\n  sub\n    /* \"#utility.yul\":714:798   */\n  tag_54\n  jumpi\n    /* \"#utility.yul\":770:788   */\n  tag_55\n  tag_25\n  jump\t// in\ntag_55:\n    /* \"#utility.yul\":714:798   */\ntag_54:\n    /* \"#utility.yul\":535:804   */\n  pop\n    /* \"#utility.yul\":484:804   */\n  swap2\n  swap1\n  pop\n  jump\t// out\n    /* \"#utility.yul\":810:951   */\ntag_27:\n    /* \"#utility.yul\":859:863   */\n  0x00\n    /* \"#utility.yul\":882:885   */\n  dup2\n    /* \"#utility.yul\":874:885   */\n  swap1\n  pop\n    /* \"#utility.yul\":905:908   */\n  dup2\n    /* \"#utility.yul\":902:903   */\n  0x00\n    /* \"#utility.yul\":895:909   */\n  mstore\n    /* \"#utility.yul\":939:943   */\n  0x20\n    /* \"#utility.yul\":936:937   */\n  0x00\n    /* \"#utility.yul\":926:944   */\n  keccak256\n    /* \"#utility.yul\":918:944   */\n  swap1\n  pop\n    /* \"#utility.yul\":810:951   */\n  swap2\n  swap1\n  pop\n  jump\t// out\n    /* \"#utility.yul\":957:1050   */\ntag_28:\n    /* \"#utility.yul\":994:1000   */\n  0x00\n    /* \"#utility.yul\":1041:1043   */\n  0x20\n    /* \"#utility.yul\":1036:1038   */\n  0x1f\n    /* \"#utility.yul\":1029:1034   */\n  dup4\n    /* \"#utility.yul\":1025:1039   */\n  add\n    /* \"#utility.yul\":1021:1044   */\n  div\n    /* \"#utility.yul\":1011:1044   */\n  swap1\n  pop\n    /* \"#utility.yul\":957:1050   */\n  swap2\n  swap1\n  pop\n  jump\t// out\n    /* \"#utility.yul\":1056:1163   */\ntag_29:\n    /* \"#utility.yul\":1100:1108   */\n  0x00\n    /* \"#utility.yul\":1150:1155   */\n  dup3\n    /* \"#utility.yul\":1144:1148   */\n  dup3\n    /* \"#utility.yul\":1140:1156   */\n  shl\n    /* \"#utility.yul\":1119:1156   */\n  swap1\n  pop\n    /* \"#utility.yul\":1056:1163   */\n  swap3\n  swap2\n  pop\n  pop\n  jump\t// out\n    /* \"#utility.yul\":1169:1562   */\ntag_30:\n    /* \"#utility.yul\":1238:1244   */\n  0x00\n    /* \"#utility.yul\":1288:1289   */\n  0x08\n    /* \"#utility.yul\":1276:1286   */\n  dup4\n    /* \"#utility.yul\":1272:1290   */\n  mul\n    /* \"#utility.yul\":1311:1408   */\n  tag_60\n    /* \"#utility.yul\":1341:1407   */\n  0xffffffffffffffffffffffffffffffffffffffffffffffffffffffffffffffff\n    /* \"#utility.yul\":1330:1339   */\n  dup3\n    /* \"#utility.yul\":1311:1408   */\n  tag_29\n  jump\t// in\ntag_60:\n    /* \"#utility.yul\":1429:1468   */\n  tag_61\n    /* \"#utility.yul\":1459:1467   */\n  dup7\n    /* \"#utility.yul\":1448:1457   */\n  dup4\n    /* \"#utility.yul\":1429:1468   */\n  tag_29\n  jump\t// in\ntag_61:\n    /* \"#utility.yul\":1417:1468   */\n  swap6\n  pop\n    /* \"#utility.yul\":1501:1505   */\n  dup1\n    /* \"#utility.yul\":1497:1506   */\n  not\n    /* \"#utility.yul\":1490:1495   */\n  dup5\n    /* \"#utility.yul\":1486:1507   */\n  and\n    /* \"#utility.yul\":1477:1507   */\n  swap4\n  pop\n    /* \"#utility.yul\":1550:1554   */\n  dup1\n    /* \"#utility.yul\":1540:1548   */\n  dup7\n    /* \"#utility.yul\":1536:1555   */\n  and\n    /* \"#utility.yul\":1529:1534   */\n  dup5\n    /* \"#utility.yul\":1526:1556   */\n  or\n    /* \"#utility.yul\":1516:1556   */\n  swap3\n  pop\n    /* \"#utility.yul\":1245:1562   */\n  pop\n  pop\n    /* \"#utility.yul\":1169:1562   */\n  swap4\n  swap3\n  pop\n  pop\n  pop\n  jump\t// out\n    /* \"#utility.yul\":1568:1645   */\ntag_31:\n    /* \"#utility.yul\":1605:1612   */\n  0x00\n    /* \"#utility.yul\":1634:1639   */\n  dup2\n    /* \"#utility.yul\":1623:1639   */\n  swap1\n  pop\n    /* \"#utility.yul\":1568:1645   */\n  swap2\n  swap1\n  pop\n  jump\t// out\n    /* \"#utility.yul\":1651:1711   */\ntag_32:\n    /* \"#utility.yul\":1679:1682   */\n  0x00\n    /* \"#utility.yul\":1700:1705   */\n  dup2\n    /* \"#utility.yul\":1693:1705   */\n  swap1\n  pop\n    /* \"#utility.yul\":1651:1711   */\n  swap2\n  swap1\n  pop\n  jump\t// out\n    /* \"#utility.yul\":1717:1859   */\ntag_33:\n    /* \"#utility.yul\":1767:1776   */\n  0x00\n    /* \"#utility.yul\":1800:1853   */\n  tag_65\n    /* \"#utility.yul\":1818:1852   */\n  tag_66\n    /* \"#utility.yul\":1827:1851   */\n  tag_67\n    /* \"#utility.yul\":1845:1850   */\n  dup5\n    /* \"#utility.yul\":1827:1851   */\n  tag_31\n  jump\t// in\ntag_67:\n    /* \"#utility.yul\":1818:1852   */\n  tag_32\n  jump\t// in\ntag_66:\n    /* \"#utility.yul\":1800:1853   */\n  tag_31\n  jump\t// in\ntag_65:\n    /* \"#utility.yul\":1787:1853   */\n  swap1\n  pop\n    /* \"#utility.yul\":1717:1859   */\n  swap2\n  swap1\n  pop\n  jump\t// out\n    /* \"#utility.yul\":1865:1940   */\ntag_34:\n    /* \"#utility.yul\":1908:1911   */\n  0x00\n    /* \"#utility.yul\":1929:1934   */\n  dup2\n    /* \"#utility.yul\":1922:1934   */\n  swap1\n  pop\n    /* \"#utility.yul\":1865:1940   */\n  swap2\n  swap1\n  pop\n  jump\t// out\n    /* \"#utility.yul\":1946:2215   */\ntag_35:\n    /* \"#utility.yul\":2056:2095   */\n  tag_70\n    /* \"#utility.yul\":2087:2094   */\n  dup4\n    /* \"#utility.yul\":2056:2095   */\n  tag_33\n  jump\t// in\ntag_70:\n    /* \"#utility.yul\":2117:2208   */\n  tag_71\n    /* \"#utility.yul\":2166:2207   */\n  tag_72\n    /* \"#utility.yul\":2190:2206   */\n  dup3\n    /* \"#utility.yul\":2166:2207   */\n  tag_34\n  jump\t// in\ntag_72:\n    /* \"#utility.yul\":2158:2164   */\n  dup5\n    /* \"#utility.yul\":2151:2155   */\n  dup5\n    /* \"#utility.yul\":2145:2156   */\n  sload\n    /* \"#utility.yul\":2117:2208   */\n  tag_30\n  jump\t// in\ntag_71:\n    /* \"#utility.yul\":2111:2115   */\n  dup3\n    /* \"#utility.yul\":2104:2209   */\n  sstore\n    /* \"#utility.yul\":2022:2215   */\n  pop\n    /* \"#utility.yul\":1946:2215   */\n  pop\n  pop\n  pop\n  jump\t// out\n    /* \"#utility.yul\":2221:2294   */\ntag_36:\n    /* \"#utility.yul\":2266:2269   */\n  0x00\n    /* \"#utility.yul\":2221:2294   */\n  swap1\n  jump\t// out\n    /* \"#utility.yul\":2300:2489   */\ntag_37:\n    /* \"#utility.yul\":2377:2409   */\n  tag_75\n  tag_36\n  jump\t// in\ntag_75:\n    /* \"#utility.yul\":2418:2483   */\n  tag_76\n    /* \"#utility.yul\":2476:2482   */\n  dup2\n    /* \"#utility.yul\":2468:2474   */\n  dup5\n    /* \"#utility.yul\":2462:2466   */\n  dup5\n    /* \"#utility.yul\":2418:2483   */\n  tag_35\n  jump\t// in\ntag_76:\n    /* \"#utility.yul\":2353:2489   */\n  pop\n    /* \"#utility.yul\":2300:2489   */\n  pop\n  pop\n  jump\t// out\n    /* \"#utility.yul\":2495:2681   */\ntag_38:\n    /* \"#utility.yul\":2555:2675   */\ntag_78:\n    /* \"#utility.yul\":2572:2575   */\n  dup2\n    /* \"#utility.yul\":2565:2570   */\n  dup2\n    /* \"#utility.yul\":2562:2576   */\n  lt\n    /* \"#utility.yul\":2555:2675   */\n  iszero\n  tag_80\n  jumpi\n    /* \"#utility.yul\":2626:2665   */\n  tag_81\n    /* \"#utility.yul\":2663:2664   */\n  0x00\n    /* \"#utility.yul\":2656:2661   */\n  dup3\n    /* \"#utility.yul\":2626:2665   */\n  tag_37\n  jump\t// in\ntag_81:\n    /* \"#utility.yul\":2599:2600   */\n  0x01\n    /* \"#utility.yul\":2592:2597   */\n  dup2\n    /* \"#utility.yul\":2588:2601   */\n  add\n    /* \"#utility.yul\":2579:2601   */\n  swap1\n  pop\n    /* \"#utility.yul\":2555:2675   */\n  jump(tag_78)\ntag_80:\n    /* \"#utility.yul\":2495:2681   */\n  pop\n  pop\n  jump\t// out\n    /* \"#utility.yul\":2687:3230   */\ntag_39:\n    /* \"#utility.yul\":2788:2790   */\n  0x1f\n    /* \"#utility.yul\":2783:2786   */\n  dup3\n    /* \"#utility.yul\":2780:2791   */\n  gt\n    /* \"#utility.yul\":2777:3223   */\n  iszero\n  tag_83\n  jumpi\n    /* \"#utility.yul\":2822:2860   */\n  tag_84\n    /* \"#utility.yul\":2854:2859   */\n  dup2\n    /* \"#utility.yul\":2822:2860   */\n  tag_27\n  jump\t// in\ntag_84:\n    /* \"#utility.yul\":2906:2935   */\n  tag_85\n    /* \"#utility.yul\":2924:2934   */\n  dup5\n    /* \"#utility.yul\":2906:2935   */\n  tag_28\n  jump\t// in\ntag_85:\n    /* \"#utility.yul\":2896:2904   */\n  dup2\n    /* \"#utility.yul\":2892:2936   */\n  add\n    /* \"#utility.yul\":3089:3091   */\n  0x20\n    /* \"#utility.yul\":3077:3087   */\n  dup6\n    /* \"#utility.yul\":3074:3092   */\n  lt\n    /* \"#utility.yul\":3071:3120   */\n  iszero\n  tag_86\n  jumpi\n    /* \"#utility.yul\":3110:3118   */\n  dup2\n    /* \"#utility.yul\":3095:3118   */\n  swap1\n  pop\n    /* \"#utility.yul\":3071:3120   */\ntag_86:\n    /* \"#utility.yul\":3133:3213   */\n  tag_87\n    /* \"#utility.yul\":3189:3211   */\n  tag_88\n    /* \"#utility.yul\":3207:3210   */\n  dup6\n    /* \"#utility.yul\":3189:3211   */\n  tag_28\n  jump\t// in\ntag_88:\n    /* \"#utility.yul\":3179:3187   */\n  dup4\n    /* \"#utility.yul\":3175:3212   */\n  add\n    /* \"#utility.yul\":3162:3173   */\n  dup3\n    /* \"#utility.yul\":3133:3213   */\n  tag_38\n  jump\t// in\ntag_87:\n    /* \"#utility.yul\":2792:3223   */\n  pop\n  pop\n    /* \"#utility.yul\":2777:3223   */\ntag_83:\n    /* \"#utility.yul\":2687:3230   */\n  pop\n  pop\n  pop\n  jump\t// out\n    /* \"#utility.yul\":3236:3353   */\ntag_40:\n    /* \"#utility.yul\":3290:3298   */\n  0x00\n    /* \"#utility.yul\":3340:3345   */\n  dup3\n    /* \"#utility.yul\":3334:3338   */\n  dup3\n    /* \"#utility.yul\":3330:3346   */\n  shr\n    /* \"#utility.yul\":3309:3346   */\n  swap1\n  pop\n    /* \"#utility.yul\":3236:3353   */\n  swap3\n  swap2\n  pop\n  pop\n  jump\t// out\n    /* \"#utility.yul\":3359:3528   */\ntag_41:\n    /* \"#utility.yul\":3403:3409   */\n  0x00\n    /* \"#utility.yul\":3436:3487   */\n  tag_91\n    /* \"#utility.yul\":3484:3485   */\n  0x00\n    /* \"#utility.yul\":3480:3486   */\n  not\n    /* \"#utility.yul\":3472:3477   */\n  dup5\n    /* \"#utility.yul\":3469:3470   */\n  0x08\n    /* \"#utility.yul\":3465:3478   */\n  mul\n    /* \"#utility.yul\":3436:3487   */\n  tag_40\n  jump\t// in\ntag_91:\n    /* \"#utility.yul\":3432:3488   */\n  not\n    /* \"#utility.yul\":3517:3521   */\n  dup1\n    /* \"#utility.yul\":3511:3515   */\n  dup4\n    /* \"#utility.yul\":3507:3522   */\n  and\n    /* \"#utility.yul\":3497:3522   */\n  swap2\n  pop\n    /* \"#utility.yul\":3410:3528   */\n  pop\n    /* \"#utility.yul\":3359:3528   */\n  swap3\n  swap2\n  pop\n  pop\n  jump\t// out\n    /* \"#utility.yul\":3533:3828   */\ntag_42:\n    /* \"#utility.yul\":3609:3613   */\n  0x00\n    /* \"#utility.yul\":3755:3784   */\n  tag_93\n    /* \"#utility.yul\":3780:3783   */\n  dup4\n    /* \"#utility.yul\":3774:3778   */\n  dup4\n    /* \"#utility.yul\":3755:3784   */\n  tag_41\n  jump\t// in\ntag_93:\n    /* \"#utility.yul\":3747:3784   */\n  swap2\n  pop\n    /* \"#utility.yul\":3817:3820   */\n  dup3\n    /* \"#utility.yul\":3814:3815   */\n  0x02\n    /* \"#utility.yul\":3810:3821   */\n  mul\n    /* \"#utility.yul\":3804:3808   */\n  dup3\n    /* \"#utility.yul\":3801:3822   */\n  or\n    /* \"#utility.yul\":3793:3822   */\n  swap1\n  pop\n    /* \"#utility.yul\":3533:3828   */\n  swap3\n  swap2\n  pop\n  pop\n  jump\t// out\n    /* \"#utility.yul\":3833:5228   */\ntag_2:\n    /* \"#utility.yul\":3950:3987   */\n  tag_95\n    /* \"#utility.yul\":3983:3986   */\n  dup3\n    /* \"#utility.yul\":3950:3987   */\n  tag_23\n  jump\t// in\ntag_95:\n    /* \"#utility.yul\":4052:4070   */\n  0xffffffffffffffff\n    /* \"#utility.yul\":4044:4050   */\n  dup2\n    /* \"#utility.yul\":4041:4071   */\n  gt\n    /* \"#utility.yul\":4038:4094   */\n  iszero\n  tag_96\n  jumpi\n    /* \"#utility.yul\":4074:4092   */\n  tag_97\n  tag_24\n  jump\t// in\ntag_97:\n    /* \"#utility.yul\":4038:4094   */\ntag_96:\n    /* \"#utility.yul\":4118:4156   */\n  tag_98\n    /* \"#utility.yul\":4150:4154   */\n  dup3\n    /* \"#utility.yul\":4144:4155   */\n  sload\n    /* \"#utility.yul\":4118:4156   */\n  tag_26\n  jump\t// in\ntag_98:\n    /* \"#utility.yul\":4203:4270   */\n  tag_99\n    /* \"#utility.yul\":4263:4269   */\n  dup3\n    /* \"#utility.yul\":4255:4261   */\n  dup3\n    /* \"#utility.yul\":4249:4253   */\n  dup6\n    /* \"#utility.yul\":4203:4270   */\n  tag_39\n  jump\t// in\ntag_99:\n    /* \"#utility.yul\":4297:4298   */\n  0x00\n    /* \"#utility.yul\":4321:4325   */\n  0x20\n    /* \"#utility.yul\":4308:4325   */\n  swap1\n  pop\n    /* \"#utility.yul\":4353:4355   */\n  0x1f\n    /* \"#utility.yul\":4345:4351   */\n  dup4\n    /* \"#utility.yul\":4342:4356   */\n  gt\n    /* \"#utility.yul\":4370:4371   */\n  0x01\n    /* \"#utility.yul\":4365:4983   */\n  dup2\n  eq\n  tag_101\n  jumpi\n    /* \"#utility.yul\":5027:5028   */\n  0x00\n    /* \"#utility.yul\":5044:5050   */\n  dup5\n    /* \"#utility.yul\":5041:5118   */\n  iszero\n  tag_102\n  jumpi\n    /* \"#utility.yul\":5093:5102   */\n  dup3\n    /* \"#utility.yul\":5088:5091   */\n  dup8\n    /* \"#utility.yul\":5084:5103   */\n  add\n    /* \"#utility.yul\":5078:5104   */\n  mload\n    /* \"#utility.yul\":5069:5104   */\n  swap1\n  pop\n    /* \"#utility.yul\":5041:5118   */\ntag_102:\n    /* \"#utility.yul\":5144:5211   */\n  tag_103\n    /* \"#utility.yul\":5204:5210   */\n  dup6\n    /* \"#utility.yul\":5197:5202   */\n  dup3\n    /* \"#utility.yul\":5144:5211   */\n  tag_42\n  jump\t// in\ntag_103:\n    /* \"#utility.yul\":5138:5142   */\n  dup7\n    /* \"#utility.yul\":5131:5212   */\n  sstore\n    /* \"#utility.yul\":5000:5222   */\n  pop\n    /* \"#utility.yul\":4335:5222   */\n  jump(tag_100)\n    /* \"#utility.yul\":4365:4983   */\ntag_101:\n    /* \"#utility.yul\":4417:4421   */\n  0x1f\n    /* \"#utility.yul\":4413:4422   */\n  not\n    /* \"#utility.yul\":4405:4411   */\n  dup5\n    /* \"#utility.yul\":4401:4423   */\n  and\n    /* \"#utility.yul\":4451:4488   */\n  tag_104\n    /* \"#utility.yul\":4483:4487   */\n  dup7\n    /* \"#utility.yul\":4451:4488   */\n  tag_27\n  jump\t// in\ntag_104:\n    /* \"#utility.yul\":4510:4511   */\n  0x00\n    /* \"#utility.yul\":4524:4732   */\ntag_105:\n    /* \"#utility.yul\":4538:4545   */\n  dup3\n    /* \"#utility.yul\":4535:4536   */\n  dup2\n    /* \"#utility.yul\":4532:4546   */\n  lt\n    /* \"#utility.yul\":4524:4732   */\n  iszero\n  tag_107\n  jumpi\n    /* \"#utility.yul\":4617:4626   */\n  dup5\n    /* \"#utility.yul\":4612:4615   */\n  dup10\n    /* \"#utility.yul\":4608:4627   */\n  add\n    /* \"#utility.yul\":4602:4628   */\n  mload\n    /* \"#utility.yul\":4594:4600   */\n  dup3\n    /* \"#utility.yul\":4587:4629   */\n  sstore\n    /* \"#utility.yul\":4668:4669   */\n  0x01\n    /* \"#utility.yul\":4660:4666   */\n  dup3\n    /* \"#utility.yul\":4656:4670   */\n  add\n    /* \"#utility.yul\":4646:4670   */\n  swap2\n  pop\n    /* \"#utility.yul\":4715:4717   */\n  0x20\n    /* \"#utility.yul\":4704:4713   */\n  dup6\n    /* \"#utility.yul\":4700:4718   */\n  add\n    /* \"#utility.yul\":4687:4718   */\n  swap5\n  pop\n    /* \"#utility.yul\":4561:4565   */\n  0x20\n    /* \"#utility.yul\":4558:4559   */\n  dup2\n    /* \"#utility.yul\":4554:4566   */\n  add\n    /* \"#utility.yul\":4549:4566   */\n  swap1\n  pop\n    /* \"#utility.yul\":4524:4732   */\n  jump(tag_105)\ntag_107:\n    /* \"#utility.yul\":4760:4766   */\n  dup7\n    /* \"#utility.yul\":4751:4758   */\n  dup4\n    /* \"#utility.yul\":4748:4767   */\n  lt\n    /* \"#utility.yul\":4745:4924   */\n  iszero\n  tag_108\n  jumpi\n    /* \"#utility.yul\":4818:4827   */\n  dup5\n    /* \"#utility.yul\":4813:4816   */\n  dup10\n    /* \"#utility.yul\":4809:4828   */\n  add\n    /* \"#utility.yul\":4803:4829   */\n  mload\n    /* \"#utility.yul\":4861:4909   */\n  tag_109\n    /* \"#utility.yul\":4903:4907   */\n  0x1f\n    /* \"#utility.yul\":4895:4901   */\n  dup10\n    /* \"#utility.yul\":4891:4908   */\n  and\n    /* \"#utility.yul\":4880:4889   */\n  dup3\n    /* \"#utility.yul\":4861:4909   */\n  tag_41\n  jump\t// in\ntag_109:\n    /* \"#utility.yul\":4853:4859   */\n  dup4\n    /* \"#utility.yul\":4846:4910   */\n  sstore\n    /* \"#utility.yul\":4768:4924   */\n  pop\n    /* \"#utility.yul\":4745:4924   */\ntag_108:\n    /* \"#utility.yul\":4970:4971   */\n  0x01\n    /* \"#utility.yul\":4966:4967   */\n  0x02\n    /* \"#utility.yul\":4958:4964   */\n  dup9\n    /* \"#utility.yul\":4954:4968   */\n  mul\n    /* \"#utility.yul\":4950:4972   */\n  add\n    /* \"#utility.yul\":4944:4948   */\n  dup9\n    /* \"#utility.yul\":4937:4973   */\n  sstore\n    /* \"#utility.yul\":4372:4983   */\n  pop\n  pop\n  pop\n    /* \"#utility.yul\":4335:5222   */\ntag_100:\n  pop\n    /* \"#utility.yul\":3925:5228   */\n  pop\n  pop\n  pop\n    /* \"#utility.yul\":3833:5228   */\n  pop\n  pop\n  jump\t// out\n    /* \"#utility.yul\":5234:5403   */\ntag_43:\n    /* \"#utility.yul\":5318:5329   */\n  0x00\n    /* \"#utility.yul\":5352:5358   */\n  dup3\n    /* \"#utility.yul\":5347:5350   */\n  dup3\n    /* \"#utility.yul\":5340:5359   */\n  mstore\n    /* \"#utility.yul\":5392:5396   */\n  0x20\n    /* \"#utility.yul\":5387:5390   */\n  dup3\n    /* \"#utility.yul\":5383:5397   */\n  add\n    /* \"#utility.yul\":5368:5397   */\n  swap1\n  pop\n    /* \"#utility.yul\":5234:5403   */\n  swap3\n  swap2\n  pop\n  pop\n  jump\t// out\n    /* \"#utility.yul\":5409:5583   */\ntag_44:\n    /* \"#utility.yul\":5549:5575   */\n  0x43616e6e6f7420736574206f776e657220746f207a65726f0000000000000000\n    /* \"#utility.yul\":5545:5546   */\n  0x00\n    /* \"#utility.yul\":5537:5543   */\n  dup3\n    /* \"#utility.yul\":5533:5547   */\n  add\n    /* \"#utility.yul\":5526:5576   */\n  mstore\n    /* \"#utility.yul\":5409:5583   */\n  pop\n  jump\t// out\n    /* \"#utility.yul\":5589:5955   */\ntag_45:\n    /* \"#utility.yul\":5731:5734   */\n  0x00\n    /* \"#utility.yul\":5752:5819   */\n  tag_113\n    /* \"#utility.yul\":5816:5818   */\n  0x18\n    /* \"#utility.yul\":5811:5814   */\n  dup4\n    /* \"#utility.yul\":5752:5819   */\n  tag_43\n  jump\t// in\ntag_113:\n    /* \"#utility.yul\":5745:5819   */\n  swap2\n  pop\n    /* \"#utility.yul\":5828:5921   */\n  tag_114\n    /* \"#utility.yul\":5917:5920   */\n  dup3\n    /* \"#utility.yul\":5828:5921   */\n  tag_44\n  jump\t// in\ntag_114:\n    /* \"#utility.yul\":5946:5948   */\n  0x20\n    /* \"#utility.yul\":5941:5944   */\n  dup3\n    /* \"#utility.yul\":5937:5949   */\n  add\n    /* \"#utility.yul\":5930:5949   */\n  swap1\n  pop\n    /* \"#utility.yul\":5589:5955   */\n  swap2\n  swap1\n  pop\n  jump\t// out\n    /* \"#utility.yul\":5961:6380   */\ntag_12:\n    /* \"#utility.yul\":6127:6131   */\n  0x00\n    /* \"#utility.yul\":6165:6167   */\n  0x20\n    /* \"#utility.yul\":6154:6163   */\n  dup3\n    /* \"#utility.yul\":6150:6168   */\n  add\n    /* \"#utility.yul\":6142:6168   */\n  swap1\n  pop\n    /* \"#utility.yul\":6214:6223   */\n  dup2\n    /* \"#utility.yul\":6208:6212   */\n  dup2\n    /* \"#utility.yul\":6204:6224   */\n  sub\n    /* \"#utility.yul\":6200:6201   */\n  0x00\n    /* \"#utility.yul\":6189:6198   */\n  dup4\n    /* \"#utility.yul\":6185:6202   */\n  add\n    /* \"#utility.yul\":6178:6225   */\n  mstore\n    /* \"#utility.yul\":6242:6373   */\n  tag_116\n    /* \"#utility.yul\":6368:6372   */\n  dup2\n    /* \"#utility.yul\":6242:6373   */\n  tag_45\n  jump\t// in\ntag_116:\n    /* \"#utility.yul\":6234:6373   */\n  swap1\n  pop\n    /* \"#utility.yul\":5961:6380   */\n  swap2\n  swap1\n  pop\n  jump\t// out\n    /* \"#utility.yul\":6386:6559   */\ntag_46:\n    /* \"#utility.yul\":6526:6551   */\n  0x43616e6e6f74207472616e7366657220746f2073656c66000000000000000000\n    /* \"#utility.yul\":6522:6523   */\n  0x00\n    /* \"#utility.yul\":6514:6520   */\n  dup3\n    /* \"#utility.yul\":6510:6524   */\n  add\n    /* \"#utility.yul\":6503:6552   */\n  mstore\n    /* \"#utility.yul\":6386:6559   */\n  pop\n  jump\t// out\n    /* \"#utility.yul\":6565:6931   */\ntag_47:\n    /* \"#utility.yul\":6707:6710   */\n  0x00\n    /* \"#utility.yul\":6728:6795   */\n  tag_119\n    /* \"#utility.yul\":6792:6794   */\n  0x17\n    /* \"#utility.yul\":6787:6790   */\n  dup4\n    /* \"#utility.yul\":6728:6795   */\n  tag_43\n  jump\t// in\ntag_119:\n    /* \"#utility.yul\":6721:6795   */\n  swap2\n  pop\n    /* \"#utility.yul\":6804:6897   */\n  tag_120\n    /* \"#utility.yul\":6893:6896   */\n  dup3\n    /* \"#utility.yul\":6804:6897   */\n  tag_46\n  jump\t// in\ntag_120:\n    /* \"#utility.yul\":6922:6924   */\n  0x20\n    /* \"#utility.yul\":6917:6920   */\n  dup3\n    /* \"#utility.yul\":6913:6925   */\n  add\n    /* \"#utility.yul\":6906:6925   */\n  swap1\n  pop\n    /* \"#utility.yul\":6565:6931   */\n  swap2\n  swap1\n  pop\n  jump\t// out\n    /* \"#utility.yul\":6937:7356   */\ntag_22:\n    /* \"#utility.yul\":7103:7107   */\n  0x00\n    /* \"#utility.yul\":7141:7143   */\n  0x20\n    /* \"#utility.yul\":7130:7139   */\n  dup3\n    /* \"#utility.yul\":7126:7144   */\n  add\n    /* \"#utility.yul\":7118:7144   */\n  swap1\n  pop\n    /* \"#utility.yul\":7190:7199   */\n  dup2\n    /* \"#utility.yul\":7184:7188   */\n  dup2\n    /* \"#utility.yul\":7180:7200   */\n  sub\n    /* \"#utility.yul\":7176:7177   */\n  0x00\n    /* \"#utility.yul\":7165:7174   */\n  dup4\n    /* \"#utility.yul\":7161:7178   */\n  add\n    /* \"#utility.yul\":7154:7201   */\n  mstore\n    /* \"#utility.yul\":7218:7349   */\n  tag_122\n    /* \"#utility.yul\":7344:7348   */\n  dup2\n    /* \"#utility.yul\":7218:7349   */\n  tag_47\n  jump\t// in\ntag_122:\n    /* \"#utility.yul\":7210:7349   */\n  swap1\n  pop\n    /* \"#utility.yul\":6937:7356   */\n  swap2\n  swap1\n  pop\n  jump\t// out\n    /* \"contracts/Try_API.sol\":535:4376  contract CatFactConsumer is FunctionsClient, ConfirmedOwner {... */\ntag_18:\n  mload(0x80)\n  codecopy(0x00, dataOffset(sub_0), dataSize(sub_0))\n  0x00\n  assignImmutable(\"0x8e8fab5f003314da8d1873ea7720e8d9f47650136d916064d1edb8a11d682624\")\n  return(0x00, dataSize(sub_0))\nstop\ndata_9129edf49cfd6e53197c32f13b0309bffe903d33b69983cb72c931ee27a6d12b 636f6e737420617069526573706f6e7365203d2061776169742046756e6374696f6e732e6d616b654874747052657175657374287b75726c3a206068747470733a2f2f636174666163742e6e696e6a612f666163742f607d293b69662028617069526573706f6e73652e6572726f7229207b7468726f77204572726f72282752657175657374206661696c656427293b7d636f6e7374207b2064617461207d203d20617069526573706f6e73653b72657475726e2046756e6374696f6e732e656e636f6465537472696e6728646174612e6661637429\n\nsub_0: assembly {\n        /* \"contracts/Try_API.sol\":535:4376  contract CatFactConsumer is FunctionsClient, ConfirmedOwner {... */\n      mstore(0x40, 0x80)\n      callvalue\n      dup1\n      iszero\n      tag_1\n      jumpi\n      0x00\n      dup1\n      revert\n    tag_1:\n      pop\n      jumpi(tag_2, lt(calldatasize, 0x04))\n      shr(0xe0, calldataload(0x00))\n      dup1\n      0x73e3ce80\n      gt\n      tag_13\n      jumpi\n      dup1\n      0x73e3ce80\n      eq\n      tag_8\n      jumpi\n      dup1\n      0x79ba5097\n      eq\n      tag_9\n      jumpi\n      dup1\n      0x8da5cb5b\n      eq\n      tag_10\n      jumpi\n      dup1\n      0xb1e21749\n      eq\n      tag_11\n      jumpi\n      dup1\n      0xf2fde38b\n      eq\n      tag_12\n      jumpi\n      jump(tag_2)\n    tag_13:\n      dup1\n      0x0ca76175\n      eq\n      tag_3\n      jumpi\n      dup1\n      0x1041a361\n      eq\n      tag_4\n      jumpi\n      dup1\n      0x2f9d6254\n      eq\n      tag_5\n      jumpi\n      dup1\n      0x3944ea3a\n      eq\n      tag_6\n      jumpi\n      dup1\n      0x4b0795a8\n      eq\n      tag_7\n      jumpi\n    tag_2:\n      0x00\n      dup1\n      revert\n        /* \"@chainlink/contracts/src/v0.8/functions/v1_0_0/FunctionsClient.sol\":2078:2364  function handleOracleFulfillment(bytes32 requestId, bytes memory response, bytes memory err) external override {... */\n    tag_3:\n      tag_14\n      0x04\n      dup1\n      calldatasize\n      sub\n      dup2\n      add\n      swap1\n      tag_15\n      swap2\n      swap1\n      tag_16\n      jump\t// in\n    tag_15:\n      tag_17\n      jump\t// in\n    tag_14:\n      stop\n        /* \"contracts/Try_API.sol\":3235:3337  function hasReceivedFact() external view returns (bool) {... */\n    tag_4:\n      tag_18\n      tag_19\n      jump\t// in\n    tag_18:\n      mload(0x40)\n      tag_20\n      swap2\n      swap1\n      tag_21\n      jump\t// in\n    tag_20:\n      mload(0x40)\n      dup1\n      swap2\n      sub\n      swap1\n      return\n        /* \"contracts/Try_API.sol\":2497:3086  function sendRequest(... */\n    tag_5:\n      tag_22\n      0x04\n      dup1\n      calldatasize\n      sub\n      dup2\n      add\n      swap1\n      tag_23\n      swap2\n      swap1\n      tag_24\n      jump\t// in\n    tag_23:\n      tag_25\n      jump\t// in\n    tag_22:\n      mload(0x40)\n      tag_26\n      swap2\n      swap1\n      tag_27\n      jump\t// in\n    tag_26:\n      mload(0x40)\n      dup1\n      swap2\n      sub\n      swap1\n      return\n        /* \"contracts/Try_API.sol\":768:795  bytes public s_lastResponse */\n    tag_6:\n      tag_28\n      tag_29\n      jump\t// in\n    tag_28:\n      mload(0x40)\n      tag_30\n      swap2\n      swap1\n      tag_31\n      jump\t// in\n    tag_30:\n      mload(0x40)\n      dup1\n      swap2\n      sub\n      swap1\n      return\n        /* \"contracts/Try_API.sol\":801:825  bytes public s_lastError */\n    tag_7:\n      tag_32\n      tag_33\n      jump\t// in\n    tag_32:\n      mload(0x40)\n      tag_34\n      swap2\n      swap1\n      tag_31\n      jump\t// in\n    tag_34:\n      mload(0x40)\n      dup1\n      swap2\n      sub\n      swap1\n      return\n        /* \"contracts/Try_API.sol\":2099:2117  string public fact */\n    tag_8:\n      tag_35\n      tag_36\n      jump\t// in\n    tag_35:\n      mload(0x40)\n      tag_37\n      swap2\n      swap1\n      tag_38\n      jump\t// in\n    tag_37:\n      mload(0x40)\n      dup1\n      swap2\n      sub\n      swap1\n      return\n        /* \"@chainlink/contracts/src/v0.8/shared/access/ConfirmedOwnerWithProposal.sol\":1026:1342  function acceptOwnership() external override {... */\n    tag_9:\n      tag_39\n      tag_40\n      jump\t// in\n    tag_39:\n      stop\n        /* \"@chainlink/contracts/src/v0.8/shared/access/ConfirmedOwnerWithProposal.sol\":1382:1463  function owner() public view override returns (address) {... */\n    tag_10:\n      tag_41\n      tag_42\n      jump\t// in\n    tag_41:\n      mload(0x40)\n      tag_43\n      swap2\n      swap1\n      tag_44\n      jump\t// in\n    tag_43:\n      mload(0x40)\n      dup1\n      swap2\n      sub\n      swap1\n      return\n        /* \"contracts/Try_API.sol\":732:762  bytes32 public s_lastRequestId */\n    tag_11:\n      tag_45\n      tag_46\n      jump\t// in\n    tag_45:\n      mload(0x40)\n      tag_47\n      swap2\n      swap1\n      tag_27\n      jump\t// in\n    tag_47:\n      mload(0x40)\n      dup1\n      swap2\n      sub\n      swap1\n      return\n        /* \"@chainlink/contracts/src/v0.8/shared/access/ConfirmedOwnerWithProposal.sol\":847:945  function transferOwnership(address to) public override onlyOwner {... */\n    tag_12:\n      tag_48\n      0x04\n      dup1\n      calldatasize\n      sub\n      dup2\n      add\n      swap1\n      tag_49\n      swap2\n      swap1\n      tag_50\n      jump\t// in\n    tag_49:\n      tag_51\n      jump\t// in\n    tag_48:\n      stop\n        /* \"@chainlink/contracts/src/v0.8/functions/v1_0_0/FunctionsClient.sol\":2078:2364  function handleOracleFulfillment(bytes32 requestId, bytes memory response, bytes memory err) external override {... */\n    tag_17:\n        /* \"@chainlink/contracts/src/v0.8/functions/v1_0_0/FunctionsClient.sol\":2221:2229  i_router */\n      immutable(\"0x8e8fab5f003314da8d1873ea7720e8d9f47650136d916064d1edb8a11d682624\")\n        /* \"@chainlink/contracts/src/v0.8/functions/v1_0_0/FunctionsClient.sol\":2199:2230  msg.sender != address(i_router) */\n      0xffffffffffffffffffffffffffffffffffffffff\n      and\n        /* \"@chainlink/contracts/src/v0.8/functions/v1_0_0/FunctionsClient.sol\":2199:2209  msg.sender */\n      caller\n        /* \"@chainlink/contracts/src/v0.8/functions/v1_0_0/FunctionsClient.sol\":2199:2230  msg.sender != address(i_router) */\n      0xffffffffffffffffffffffffffffffffffffffff\n      and\n      eq\n        /* \"@chainlink/contracts/src/v0.8/functions/v1_0_0/FunctionsClient.sol\":2195:2276  if (msg.sender != address(i_router)) {... */\n      tag_53\n      jumpi\n        /* \"@chainlink/contracts/src/v0.8/functions/v1_0_0/FunctionsClient.sol\":2247:2269  OnlyRouterCanFulfill() */\n      mload(0x40)\n      0xc6829f8300000000000000000000000000000000000000000000000000000000\n      dup2\n      mstore\n      0x04\n      add\n      mload(0x40)\n      dup1\n      swap2\n      sub\n      swap1\n      revert\n        /* \"@chainlink/contracts/src/v0.8/functions/v1_0_0/FunctionsClient.sol\":2195:2276  if (msg.sender != address(i_router)) {... */\n    tag_53:\n        /* \"@chainlink/contracts/src/v0.8/functions/v1_0_0/FunctionsClient.sol\":2281:2321  fulfillRequest(requestId, response, err) */\n      tag_54\n        /* \"@chainlink/contracts/src/v0.8/functions/v1_0_0/FunctionsClient.sol\":2296:2305  requestId */\n      dup4\n        /* \"@chainlink/contracts/src/v0.8/functions/v1_0_0/FunctionsClient.sol\":2307:2315  response */\n      dup4\n        /* \"@chainlink/contracts/src/v0.8/functions/v1_0_0/FunctionsClient.sol\":2317:2320  err */\n      dup4\n        /* \"@chainlink/contracts/src/v0.8/functions/v1_0_0/FunctionsClient.sol\":2281:2295  fulfillRequest */\n      tag_55\n        /* \"@chainlink/contracts/src/v0.8/functions/v1_0_0/FunctionsClient.sol\":2281:2321  fulfillRequest(requestId, response, err) */\n      jump\t// in\n    tag_54:\n        /* \"@chainlink/contracts/src/v0.8/functions/v1_0_0/FunctionsClient.sol\":2349:2358  requestId */\n      dup3\n        /* \"@chainlink/contracts/src/v0.8/functions/v1_0_0/FunctionsClient.sol\":2332:2359  RequestFulfilled(requestId) */\n      0x85e1543bf2f84fe80c6badbce3648c8539ad1df4d2b3d822938ca0538be727e6\n      mload(0x40)\n      mload(0x40)\n      dup1\n      swap2\n      sub\n      swap1\n      log2\n        /* \"@chainlink/contracts/src/v0.8/functions/v1_0_0/FunctionsClient.sol\":2078:2364  function handleOracleFulfillment(bytes32 requestId, bytes memory response, bytes memory err) external override {... */\n      pop\n      pop\n      pop\n      jump\t// out\n        /* \"contracts/Try_API.sol\":3235:3337  function hasReceivedFact() external view returns (bool) {... */\n    tag_19:\n        /* \"contracts/Try_API.sol\":3285:3289  bool */\n      0x00\n        /* \"contracts/Try_API.sol\":3329:3330  0 */\n      dup1\n        /* \"contracts/Try_API.sol\":3314:3318  fact */\n      0x09\n        /* \"contracts/Try_API.sol\":3308:3326  bytes(fact).length */\n      dup1\n      sload\n      tag_57\n      swap1\n      tag_58\n      jump\t// in\n    tag_57:\n      swap1\n      pop\n        /* \"contracts/Try_API.sol\":3308:3330  bytes(fact).length > 0 */\n      gt\n        /* \"contracts/Try_API.sol\":3301:3330  return bytes(fact).length > 0 */\n      swap1\n      pop\n        /* \"contracts/Try_API.sol\":3235:3337  function hasReceivedFact() external view returns (bool) {... */\n      swap1\n      jump\t// out\n        /* \"contracts/Try_API.sol\":2497:3086  function sendRequest(... */\n    tag_25:\n        /* \"contracts/Try_API.sol\":2583:2600  bytes32 requestId */\n      0x00\n        /* \"@chainlink/contracts/src/v0.8/shared/access/ConfirmedOwnerWithProposal.sol\":2075:2095  _validateOwnership() */\n      tag_60\n        /* \"@chainlink/contracts/src/v0.8/shared/access/ConfirmedOwnerWithProposal.sol\":2075:2093  _validateOwnership */\n      tag_61\n        /* \"@chainlink/contracts/src/v0.8/shared/access/ConfirmedOwnerWithProposal.sol\":2075:2095  _validateOwnership() */\n      jump\t// in\n    tag_60:\n        /* \"contracts/Try_API.sol\":2612:2647  FunctionsRequest.Request memory req */\n      tag_63\n      tag_64\n      jump\t// in\n    tag_63:\n        /* \"contracts/Try_API.sol\":2657:2762  req.initializeRequest(FunctionsRequest.Location.Inline, FunctionsRequest.CodeLanguage.JavaScript, source) */\n      tag_65\n        /* \"contracts/Try_API.sol\":2679:2711  FunctionsRequest.Location.Inline */\n      0x00\n        /* \"contracts/Try_API.sol\":2713:2753  FunctionsRequest.CodeLanguage.JavaScript */\n      dup1\n        /* \"contracts/Try_API.sol\":2755:2761  source */\n      0x06\n        /* \"contracts/Try_API.sol\":2657:2762  req.initializeRequest(FunctionsRequest.Location.Inline, FunctionsRequest.CodeLanguage.JavaScript, source) */\n      dup1\n      sload\n      tag_66\n      swap1\n      tag_58\n      jump\t// in\n    tag_66:\n      dup1\n      0x1f\n      add\n      0x20\n      dup1\n      swap2\n      div\n      mul\n      0x20\n      add\n      mload(0x40)\n      swap1\n      dup2\n      add\n      0x40\n      mstore\n      dup1\n      swap3\n      swap2\n      swap1\n      dup2\n      dup2\n      mstore\n      0x20\n      add\n      dup3\n      dup1\n      sload\n      tag_67\n      swap1\n      tag_58\n      jump\t// in\n    tag_67:\n      dup1\n      iszero\n      tag_68\n      jumpi\n      dup1\n      0x1f\n      lt\n      tag_69\n      jumpi\n      0x0100\n      dup1\n      dup4\n      sload\n      div\n      mul\n      dup4\n      mstore\n      swap2\n      0x20\n      add\n      swap2\n      jump(tag_68)\n    tag_69:\n      dup3\n      add\n      swap2\n      swap1\n      0x00\n      mstore\n      keccak256(0x00, 0x20)\n      swap1\n    tag_70:\n      dup2\n      sload\n      dup2\n      mstore\n      swap1\n      0x01\n      add\n      swap1\n      0x20\n      add\n      dup1\n      dup4\n      gt\n      tag_70\n      jumpi\n      dup3\n      swap1\n      sub\n      0x1f\n      and\n      dup3\n      add\n      swap2\n    tag_68:\n      pop\n      pop\n      pop\n      pop\n      pop\n        /* \"contracts/Try_API.sol\":2657:2660  req */\n      dup5\n        /* \"contracts/Try_API.sol\":2657:2678  req.initializeRequest */\n      tag_71\n      swap1\n        /* \"contracts/Try_API.sol\":2657:2762  req.initializeRequest(FunctionsRequest.Location.Inline, FunctionsRequest.CodeLanguage.JavaScript, source) */\n      swap4\n      swap3\n      swap2\n      swap1\n      0xffffffff\n      and\n      jump\t// in\n    tag_65:\n        /* \"contracts/Try_API.sol\":2925:3046  _sendRequest(... */\n      tag_72\n        /* \"contracts/Try_API.sol\":2951:2967  req.encodeCBOR() */\n      tag_73\n        /* \"contracts/Try_API.sol\":2951:2954  req */\n      dup3\n        /* \"contracts/Try_API.sol\":2951:2965  req.encodeCBOR */\n      tag_74\n        /* \"contracts/Try_API.sol\":2951:2967  req.encodeCBOR() */\n      jump\t// in\n    tag_73:\n        /* \"contracts/Try_API.sol\":2981:2995  subscriptionId */\n      dup5\n        /* \"contracts/Try_API.sol\":3009:3017  gasLimit */\n      0x07\n      0x00\n      swap1\n      sload\n      swap1\n      0x0100\n      exp\n      swap1\n      div\n      0xffffffff\n      and\n        /* \"contracts/Try_API.sol\":3031:3036  donID */\n      sload(0x08)\n        /* \"contracts/Try_API.sol\":2925:2937  _sendRequest */\n      tag_75\n        /* \"contracts/Try_API.sol\":2925:3046  _sendRequest(... */\n      jump\t// in\n    tag_72:\n        /* \"contracts/Try_API.sol\":2907:2922  s_lastRequestId */\n      0x02\n        /* \"contracts/Try_API.sol\":2907:3046  s_lastRequestId = _sendRequest(... */\n      dup2\n      swap1\n      sstore\n      pop\n        /* \"contracts/Try_API.sol\":3064:3079  s_lastRequestId */\n      sload(0x02)\n        /* \"contracts/Try_API.sol\":3057:3079  return s_lastRequestId */\n      swap2\n      pop\n      pop\n        /* \"contracts/Try_API.sol\":2497:3086  function sendRequest(... */\n      swap2\n      swap1\n      pop\n      jump\t// out\n        /* \"contracts/Try_API.sol\":768:795  bytes public s_lastResponse */\n    tag_29:\n      0x03\n      dup1\n      sload\n      tag_76\n      swap1\n      tag_58\n      jump\t// in\n    tag_76:\n      dup1\n      0x1f\n      add\n      0x20\n      dup1\n      swap2\n      div\n      mul\n      0x20\n      add\n      mload(0x40)\n      swap1\n      dup2\n      add\n      0x40\n      mstore\n      dup1\n      swap3\n      swap2\n      swap1\n      dup2\n      dup2\n      mstore\n      0x20\n      add\n      dup3\n      dup1\n      sload\n      tag_77\n      swap1\n      tag_58\n      jump\t// in\n    tag_77:\n      dup1\n      iszero\n      tag_78\n      jumpi\n      dup1\n      0x1f\n      lt\n      tag_79\n      jumpi\n      0x0100\n      dup1\n      dup4\n      sload\n      div\n      mul\n      dup4\n      mstore\n      swap2\n      0x20\n      add\n      swap2\n      jump(tag_78)\n    tag_79:\n      dup3\n      add\n      swap2\n      swap1\n      0x00\n      mstore\n      keccak256(0x00, 0x20)\n      swap1\n    tag_80:\n      dup2\n      sload\n      dup2\n      mstore\n      swap1\n      0x01\n      add\n      swap1\n      0x20\n      add\n      dup1\n      dup4\n      gt\n      tag_80\n      jumpi\n      dup3\n      swap1\n      sub\n      0x1f\n      and\n      dup3\n      add\n      swap2\n    tag_78:\n      pop\n      pop\n      pop\n      pop\n      pop\n      dup2\n      jump\t// out\n        /* \"contracts/Try_API.sol\":801:825  bytes public s_lastError */\n    tag_33:\n      0x04\n      dup1\n      sload\n      tag_81\n      swap1\n      tag_58\n      jump\t// in\n    tag_81:\n      dup1\n      0x1f\n      add\n      0x20\n      dup1\n      swap2\n      div\n      mul\n      0x20\n      add\n      mload(0x40)\n      swap1\n      dup2\n      add\n      0x40\n      mstore\n      dup1\n      swap3\n      swap2\n      swap1\n      dup2\n      dup2\n      mstore\n      0x20\n      add\n      dup3\n      dup1\n      sload\n      tag_82\n      swap1\n      tag_58\n      jump\t// in\n    tag_82:\n      dup1\n      iszero\n      tag_83\n      jumpi\n      dup1\n      0x1f\n      lt\n      tag_84\n      jumpi\n      0x0100\n      dup1\n      dup4\n      sload\n      div\n      mul\n      dup4\n      mstore\n      swap2\n      0x20\n      add\n      swap2\n      jump(tag_83)\n    tag_84:\n      dup3\n      add\n      swap2\n      swap1\n      0x00\n      mstore\n      keccak256(0x00, 0x20)\n      swap1\n    tag_85:\n      dup2\n      sload\n      dup2\n      mstore\n      swap1\n      0x01\n      add\n      swap1\n      0x20\n      add\n      dup1\n      dup4\n      gt\n      tag_85\n      jumpi\n      dup3\n      swap1\n      sub\n      0x1f\n      and\n      dup3\n      add\n      swap2\n    tag_83:\n      pop\n      pop\n      pop\n      pop\n      pop\n      dup2\n      jump\t// out\n        /* \"contracts/Try_API.sol\":2099:2117  string public fact */\n    tag_36:\n      0x09\n      dup1\n      sload\n      tag_86\n      swap1\n      tag_58\n      jump\t// in\n    tag_86:\n      dup1\n      0x1f\n      add\n      0x20\n      dup1\n      swap2\n      div\n      mul\n      0x20\n      add\n      mload(0x40)\n      swap1\n      dup2\n      add\n      0x40\n      mstore\n      dup1\n      swap3\n      swap2\n      swap1\n      dup2\n      dup2\n      mstore\n      0x20\n      add\n      dup3\n      dup1\n      sload\n      tag_87\n      swap1\n      tag_58\n      jump\t// in\n    tag_87:\n      dup1\n      iszero\n      tag_88\n      jumpi\n      dup1\n      0x1f\n      lt\n      tag_89\n      jumpi\n      0x0100\n      dup1\n      dup4\n      sload\n      div\n      mul\n      dup4\n      mstore\n      swap2\n      0x20\n      add\n      swap2\n      jump(tag_88)\n    tag_89:\n      dup3\n      add\n      swap2\n      swap1\n      0x00\n      mstore\n      keccak256(0x00, 0x20)\n      swap1\n    tag_90:\n      dup2\n      sload\n      dup2\n      mstore\n      swap1\n      0x01\n      add\n      swap1\n      0x20\n      add\n      dup1\n      dup4\n      gt\n      tag_90\n      jumpi\n      dup3\n      swap1\n      sub\n      0x1f\n      and\n      dup3\n      add\n      swap2\n    tag_88:\n      pop\n      pop\n      pop\n      pop\n      pop\n      dup2\n      jump\t// out\n        /* \"@chainlink/contracts/src/v0.8/shared/access/ConfirmedOwnerWithProposal.sol\":1026:1342  function acceptOwnership() external override {... */\n    tag_40:\n        /* \"@chainlink/contracts/src/v0.8/shared/access/ConfirmedOwnerWithProposal.sol\":1150:1164  s_pendingOwner */\n      0x01\n      0x00\n      swap1\n      sload\n      swap1\n      0x0100\n      exp\n      swap1\n      div\n      0xffffffffffffffffffffffffffffffffffffffff\n      and\n        /* \"@chainlink/contracts/src/v0.8/shared/access/ConfirmedOwnerWithProposal.sol\":1136:1164  msg.sender == s_pendingOwner */\n      0xffffffffffffffffffffffffffffffffffffffff\n      and\n        /* \"@chainlink/contracts/src/v0.8/shared/access/ConfirmedOwnerWithProposal.sol\":1136:1146  msg.sender */\n      caller\n        /* \"@chainlink/contracts/src/v0.8/shared/access/ConfirmedOwnerWithProposal.sol\":1136:1164  msg.sender == s_pendingOwner */\n      0xffffffffffffffffffffffffffffffffffffffff\n      and\n      eq\n        /* \"@chainlink/contracts/src/v0.8/shared/access/ConfirmedOwnerWithProposal.sol\":1128:1191  require(msg.sender == s_pendingOwner, \"Must be proposed owner\") */\n      tag_92\n      jumpi\n      mload(0x40)\n      0x08c379a000000000000000000000000000000000000000000000000000000000\n      dup2\n      mstore\n      0x04\n      add\n      tag_93\n      swap1\n      tag_94\n      jump\t// in\n    tag_93:\n      mload(0x40)\n      dup1\n      swap2\n      sub\n      swap1\n      revert\n    tag_92:\n        /* \"@chainlink/contracts/src/v0.8/shared/access/ConfirmedOwnerWithProposal.sol\":1198:1214  address oldOwner */\n      0x00\n        /* \"@chainlink/contracts/src/v0.8/shared/access/ConfirmedOwnerWithProposal.sol\":1217:1224  s_owner */\n      dup1\n      0x00\n      swap1\n      sload\n      swap1\n      0x0100\n      exp\n      swap1\n      div\n      0xffffffffffffffffffffffffffffffffffffffff\n      and\n        /* \"@chainlink/contracts/src/v0.8/shared/access/ConfirmedOwnerWithProposal.sol\":1198:1224  address oldOwner = s_owner */\n      swap1\n      pop\n        /* \"@chainlink/contracts/src/v0.8/shared/access/ConfirmedOwnerWithProposal.sol\":1240:1250  msg.sender */\n      caller\n        /* \"@chainlink/contracts/src/v0.8/shared/access/ConfirmedOwnerWithProposal.sol\":1230:1237  s_owner */\n      0x00\n      dup1\n        /* \"@chainlink/contracts/src/v0.8/shared/access/ConfirmedOwnerWithProposal.sol\":1230:1250  s_owner = msg.sender */\n      0x0100\n      exp\n      dup2\n      sload\n      dup2\n      0xffffffffffffffffffffffffffffffffffffffff\n      mul\n      not\n      and\n      swap1\n      dup4\n      0xffffffffffffffffffffffffffffffffffffffff\n      and\n      mul\n      or\n      swap1\n      sstore\n      pop\n        /* \"@chainlink/contracts/src/v0.8/shared/access/ConfirmedOwnerWithProposal.sol\":1281:1282  0 */\n      0x00\n        /* \"@chainlink/contracts/src/v0.8/shared/access/ConfirmedOwnerWithProposal.sol\":1256:1270  s_pendingOwner */\n      0x01\n      0x00\n        /* \"@chainlink/contracts/src/v0.8/shared/access/ConfirmedOwnerWithProposal.sol\":1256:1283  s_pendingOwner = address(0) */\n      0x0100\n      exp\n      dup2\n      sload\n      dup2\n      0xffffffffffffffffffffffffffffffffffffffff\n      mul\n      not\n      and\n      swap1\n      dup4\n      0xffffffffffffffffffffffffffffffffffffffff\n      and\n      mul\n      or\n      swap1\n      sstore\n      pop\n        /* \"@chainlink/contracts/src/v0.8/shared/access/ConfirmedOwnerWithProposal.sol\":1326:1336  msg.sender */\n      caller\n        /* \"@chainlink/contracts/src/v0.8/shared/access/ConfirmedOwnerWithProposal.sol\":1295:1337  OwnershipTransferred(oldOwner, msg.sender) */\n      0xffffffffffffffffffffffffffffffffffffffff\n      and\n        /* \"@chainlink/contracts/src/v0.8/shared/access/ConfirmedOwnerWithProposal.sol\":1316:1324  oldOwner */\n      dup2\n        /* \"@chainlink/contracts/src/v0.8/shared/access/ConfirmedOwnerWithProposal.sol\":1295:1337  OwnershipTransferred(oldOwner, msg.sender) */\n      0xffffffffffffffffffffffffffffffffffffffff\n      and\n      0x8be0079c531659141344cd1fd0a4f28419497f9722a3daafe3b4186f6b6457e0\n      mload(0x40)\n      mload(0x40)\n      dup1\n      swap2\n      sub\n      swap1\n      log3\n        /* \"@chainlink/contracts/src/v0.8/shared/access/ConfirmedOwnerWithProposal.sol\":1071:1342  {... */\n      pop\n        /* \"@chainlink/contracts/src/v0.8/shared/access/ConfirmedOwnerWithProposal.sol\":1026:1342  function acceptOwnership() external override {... */\n      jump\t// out\n        /* \"@chainlink/contracts/src/v0.8/shared/access/ConfirmedOwnerWithProposal.sol\":1382:1463  function owner() public view override returns (address) {... */\n    tag_42:\n        /* \"@chainlink/contracts/src/v0.8/shared/access/ConfirmedOwnerWithProposal.sol\":1429:1436  address */\n      0x00\n        /* \"@chainlink/contracts/src/v0.8/shared/access/ConfirmedOwnerWithProposal.sol\":1451:1458  s_owner */\n      dup1\n      0x00\n      swap1\n      sload\n      swap1\n      0x0100\n      exp\n      swap1\n      div\n      0xffffffffffffffffffffffffffffffffffffffff\n      and\n        /* \"@chainlink/contracts/src/v0.8/shared/access/ConfirmedOwnerWithProposal.sol\":1444:1458  return s_owner */\n      swap1\n      pop\n        /* \"@chainlink/contracts/src/v0.8/shared/access/ConfirmedOwnerWithProposal.sol\":1382:1463  function owner() public view override returns (address) {... */\n      swap1\n      jump\t// out\n        /* \"contracts/Try_API.sol\":732:762  bytes32 public s_lastRequestId */\n    tag_46:\n      sload(0x02)\n      dup2\n      jump\t// out\n        /* \"@chainlink/contracts/src/v0.8/shared/access/ConfirmedOwnerWithProposal.sol\":847:945  function transferOwnership(address to) public override onlyOwner {... */\n    tag_51:\n        /* \"@chainlink/contracts/src/v0.8/shared/access/ConfirmedOwnerWithProposal.sol\":2075:2095  _validateOwnership() */\n      tag_97\n        /* \"@chainlink/contracts/src/v0.8/shared/access/ConfirmedOwnerWithProposal.sol\":2075:2093  _validateOwnership */\n      tag_61\n        /* \"@chainlink/contracts/src/v0.8/shared/access/ConfirmedOwnerWithProposal.sol\":2075:2095  _validateOwnership() */\n      jump\t// in\n    tag_97:\n        /* \"@chainlink/contracts/src/v0.8/shared/access/ConfirmedOwnerWithProposal.sol\":918:940  _transferOwnership(to) */\n      tag_99\n        /* \"@chainlink/contracts/src/v0.8/shared/access/ConfirmedOwnerWithProposal.sol\":937:939  to */\n      dup2\n        /* \"@chainlink/contracts/src/v0.8/shared/access/ConfirmedOwnerWithProposal.sol\":918:936  _transferOwnership */\n      tag_100\n        /* \"@chainlink/contracts/src/v0.8/shared/access/ConfirmedOwnerWithProposal.sol\":918:940  _transferOwnership(to) */\n      jump\t// in\n    tag_99:\n        /* \"@chainlink/contracts/src/v0.8/shared/access/ConfirmedOwnerWithProposal.sol\":847:945  function transferOwnership(address to) public override onlyOwner {... */\n      pop\n      jump\t// out\n        /* \"contracts/Try_API.sol\":3576:4374  function fulfillRequest(... */\n    tag_55:\n        /* \"contracts/Try_API.sol\":3741:3750  requestId */\n      dup3\n        /* \"contracts/Try_API.sol\":3722:3737  s_lastRequestId */\n      sload(0x02)\n        /* \"contracts/Try_API.sol\":3722:3750  s_lastRequestId != requestId */\n      eq\n        /* \"contracts/Try_API.sol\":3718:3844  if (s_lastRequestId != requestId) {... */\n      tag_102\n      jumpi\n        /* \"contracts/Try_API.sol\":3793:3802  requestId */\n      dup3\n        /* \"contracts/Try_API.sol\":3773:3803  UnexpectedRequestID(requestId) */\n      mload(0x40)\n      0xd068bf5b00000000000000000000000000000000000000000000000000000000\n      dup2\n      mstore\n      0x04\n      add\n      tag_103\n      swap2\n      swap1\n      tag_27\n      jump\t// in\n    tag_103:\n      mload(0x40)\n      dup1\n      swap2\n      sub\n      swap1\n      revert\n        /* \"contracts/Try_API.sol\":3718:3844  if (s_lastRequestId != requestId) {... */\n    tag_102:\n        /* \"contracts/Try_API.sol\":3961:3969  response */\n      dup2\n        /* \"contracts/Try_API.sol\":3944:3958  s_lastResponse */\n      0x03\n        /* \"contracts/Try_API.sol\":3944:3969  s_lastResponse = response */\n      swap1\n      dup2\n      tag_104\n      swap2\n      swap1\n      tag_105\n      jump\t// in\n    tag_104:\n      pop\n        /* \"contracts/Try_API.sol\":4110:4111  0 */\n      0x00\n        /* \"contracts/Try_API.sol\":4092:4100  response */\n      dup3\n        /* \"contracts/Try_API.sol\":4092:4107  response.length */\n      mload\n        /* \"contracts/Try_API.sol\":4092:4111  response.length > 0 */\n      gt\n        /* \"contracts/Try_API.sol\":4088:4217  if (response.length > 0) {... */\n      iszero\n      tag_106\n      jumpi\n        /* \"contracts/Try_API.sol\":4141:4149  response */\n      dup2\n        /* \"contracts/Try_API.sol\":4127:4131  fact */\n      0x09\n        /* \"contracts/Try_API.sol\":4127:4150  fact = string(response) */\n      swap1\n      dup2\n      tag_107\n      swap2\n      swap1\n      tag_108\n      jump\t// in\n    tag_107:\n      pop\n        /* \"contracts/Try_API.sol\":4088:4217  if (response.length > 0) {... */\n      jump(tag_109)\n    tag_106:\n        /* \"contracts/Try_API.sol\":4181:4206  fact = \"No fact received\" */\n      mload(0x40)\n      dup1\n      0x40\n      add\n      0x40\n      mstore\n      dup1\n      0x10\n      dup2\n      mstore\n      0x20\n      add\n      0x4e6f206661637420726563656976656400000000000000000000000000000000\n      dup2\n      mstore\n      pop\n        /* \"contracts/Try_API.sol\":4181:4185  fact */\n      0x09\n        /* \"contracts/Try_API.sol\":4181:4206  fact = \"No fact received\" */\n      swap1\n      dup2\n      tag_110\n      swap2\n      swap1\n      tag_108\n      jump\t// in\n    tag_110:\n      pop\n        /* \"contracts/Try_API.sol\":4088:4217  if (response.length > 0) {... */\n    tag_109:\n        /* \"contracts/Try_API.sol\":4249:4252  err */\n      dup1\n        /* \"contracts/Try_API.sol\":4235:4246  s_lastError */\n      0x04\n        /* \"contracts/Try_API.sol\":4235:4252  s_lastError = err */\n      swap1\n      dup2\n      tag_111\n      swap2\n      swap1\n      tag_105\n      jump\t// in\n    tag_111:\n      pop\n        /* \"contracts/Try_API.sol\":4322:4331  requestId */\n      dup3\n        /* \"contracts/Try_API.sol\":4313:4367  Response(requestId, fact, s_lastResponse, s_lastError) */\n      0x160ed0aaffbef6885155188b91459cb5a97d5daadccf7561d8c46deea6641b50\n        /* \"contracts/Try_API.sol\":4333:4337  fact */\n      0x09\n        /* \"contracts/Try_API.sol\":4339:4353  s_lastResponse */\n      0x03\n        /* \"contracts/Try_API.sol\":4355:4366  s_lastError */\n      0x04\n        /* \"contracts/Try_API.sol\":4313:4367  Response(requestId, fact, s_lastResponse, s_lastError) */\n      mload(0x40)\n      tag_112\n      swap4\n      swap3\n      swap2\n      swap1\n      tag_113\n      jump\t// in\n    tag_112:\n      mload(0x40)\n      dup1\n      swap2\n      sub\n      swap1\n      log2\n        /* \"contracts/Try_API.sol\":3576:4374  function fulfillRequest(... */\n      pop\n      pop\n      pop\n      jump\t// out\n        /* \"@chainlink/contracts/src/v0.8/shared/access/ConfirmedOwnerWithProposal.sol\":1809:1971  function _validateOwnership() internal view {... */\n    tag_61:\n        /* \"@chainlink/contracts/src/v0.8/shared/access/ConfirmedOwnerWithProposal.sol\":1932:1939  s_owner */\n      0x00\n      dup1\n      sload\n      swap1\n      0x0100\n      exp\n      swap1\n      div\n      0xffffffffffffffffffffffffffffffffffffffff\n      and\n        /* \"@chainlink/contracts/src/v0.8/shared/access/ConfirmedOwnerWithProposal.sol\":1918:1939  msg.sender == s_owner */\n      0xffffffffffffffffffffffffffffffffffffffff\n      and\n        /* \"@chainlink/contracts/src/v0.8/shared/access/ConfirmedOwnerWithProposal.sol\":1918:1928  msg.sender */\n      caller\n        /* \"@chainlink/contracts/src/v0.8/shared/access/ConfirmedOwnerWithProposal.sol\":1918:1939  msg.sender == s_owner */\n      0xffffffffffffffffffffffffffffffffffffffff\n      and\n      eq\n        /* \"@chainlink/contracts/src/v0.8/shared/access/ConfirmedOwnerWithProposal.sol\":1910:1966  require(msg.sender == s_owner, \"Only callable by owner\") */\n      tag_115\n      jumpi\n      mload(0x40)\n      0x08c379a000000000000000000000000000000000000000000000000000000000\n      dup2\n      mstore\n      0x04\n      add\n      tag_116\n      swap1\n      tag_117\n      jump\t// in\n    tag_116:\n      mload(0x40)\n      dup1\n      swap2\n      sub\n      swap1\n      revert\n    tag_115:\n        /* \"@chainlink/contracts/src/v0.8/shared/access/ConfirmedOwnerWithProposal.sol\":1809:1971  function _validateOwnership() internal view {... */\n      jump\t// out\n        /* \"@chainlink/contracts/src/v0.8/functions/v1_0_0/libraries/FunctionsRequest.sol\":3777:4084  function initializeRequest(... */\n    tag_71:\n        /* \"@chainlink/contracts/src/v0.8/functions/v1_0_0/libraries/FunctionsRequest.sol\":3961:3962  0 */\n      0x00\n        /* \"@chainlink/contracts/src/v0.8/functions/v1_0_0/libraries/FunctionsRequest.sol\":3943:3949  source */\n      dup2\n        /* \"@chainlink/contracts/src/v0.8/functions/v1_0_0/libraries/FunctionsRequest.sol\":3937:3957  bytes(source).length */\n      mload\n        /* \"@chainlink/contracts/src/v0.8/functions/v1_0_0/libraries/FunctionsRequest.sol\":3937:3962  bytes(source).length == 0 */\n      sub\n        /* \"@chainlink/contracts/src/v0.8/functions/v1_0_0/libraries/FunctionsRequest.sol\":3933:3984  if (bytes(source).length == 0) revert EmptySource() */\n      tag_119\n      jumpi\n        /* \"@chainlink/contracts/src/v0.8/functions/v1_0_0/libraries/FunctionsRequest.sol\":3971:3984  EmptySource() */\n      mload(0x40)\n      0x22ce3edd00000000000000000000000000000000000000000000000000000000\n      dup2\n      mstore\n      0x04\n      add\n      mload(0x40)\n      dup1\n      swap2\n      sub\n      swap1\n      revert\n        /* \"@chainlink/contracts/src/v0.8/functions/v1_0_0/libraries/FunctionsRequest.sol\":3933:3984  if (bytes(source).length == 0) revert EmptySource() */\n    tag_119:\n        /* \"@chainlink/contracts/src/v0.8/functions/v1_0_0/libraries/FunctionsRequest.sol\":4011:4023  codeLocation */\n      dup3\n        /* \"@chainlink/contracts/src/v0.8/functions/v1_0_0/libraries/FunctionsRequest.sol\":3991:3995  self */\n      dup5\n        /* \"@chainlink/contracts/src/v0.8/functions/v1_0_0/libraries/FunctionsRequest.sol\":3991:4008  self.codeLocation */\n      0x00\n      add\n        /* \"@chainlink/contracts/src/v0.8/functions/v1_0_0/libraries/FunctionsRequest.sol\":3991:4023  self.codeLocation = codeLocation */\n      swap1\n      0x02\n      dup2\n      gt\n      iszero\n      tag_120\n      jumpi\n      tag_121\n      tag_122\n      jump\t// in\n    tag_121:\n    tag_120:\n      swap1\n      dup2\n      0x02\n      dup2\n      gt\n      iszero\n      tag_123\n      jumpi\n      tag_124\n      tag_122\n      jump\t// in\n    tag_124:\n    tag_123:\n      dup2\n      mstore\n      pop\n      pop\n        /* \"@chainlink/contracts/src/v0.8/functions/v1_0_0/libraries/FunctionsRequest.sol\":4045:4053  language */\n      dup2\n        /* \"@chainlink/contracts/src/v0.8/functions/v1_0_0/libraries/FunctionsRequest.sol\":4029:4033  self */\n      dup5\n        /* \"@chainlink/contracts/src/v0.8/functions/v1_0_0/libraries/FunctionsRequest.sol\":4029:4042  self.language */\n      0x40\n      add\n        /* \"@chainlink/contracts/src/v0.8/functions/v1_0_0/libraries/FunctionsRequest.sol\":4029:4053  self.language = language */\n      swap1\n      0x00\n      dup2\n      gt\n      iszero\n      tag_125\n      jumpi\n      tag_126\n      tag_122\n      jump\t// in\n    tag_126:\n    tag_125:\n      swap1\n      dup2\n      0x00\n      dup2\n      gt\n      iszero\n      tag_127\n      jumpi\n      tag_128\n      tag_122\n      jump\t// in\n    tag_128:\n    tag_127:\n      dup2\n      mstore\n      pop\n      pop\n        /* \"@chainlink/contracts/src/v0.8/functions/v1_0_0/libraries/FunctionsRequest.sol\":4073:4079  source */\n      dup1\n        /* \"@chainlink/contracts/src/v0.8/functions/v1_0_0/libraries/FunctionsRequest.sol\":4059:4063  self */\n      dup5\n        /* \"@chainlink/contracts/src/v0.8/functions/v1_0_0/libraries/FunctionsRequest.sol\":4059:4070  self.source */\n      0x60\n      add\n        /* \"@chainlink/contracts/src/v0.8/functions/v1_0_0/libraries/FunctionsRequest.sol\":4059:4079  self.source = source */\n      dup2\n      swap1\n      mstore\n      pop\n        /* \"@chainlink/contracts/src/v0.8/functions/v1_0_0/libraries/FunctionsRequest.sol\":3777:4084  function initializeRequest(... */\n      pop\n      pop\n      pop\n      pop\n      jump\t// out\n        /* \"@chainlink/contracts/src/v0.8/functions/v1_0_0/libraries/FunctionsRequest.sol\":2158:3428  function encodeCBOR(Request memory self) internal pure returns (bytes memory) {... */\n    tag_74:\n        /* \"@chainlink/contracts/src/v0.8/functions/v1_0_0/libraries/FunctionsRequest.sol\":2222:2234  bytes memory */\n      0x60\n        /* \"@chainlink/contracts/src/v0.8/functions/v1_0_0/libraries/FunctionsRequest.sol\":2242:2271  CBOR.CBORBuffer memory buffer */\n      0x00\n        /* \"@chainlink/contracts/src/v0.8/functions/v1_0_0/libraries/FunctionsRequest.sol\":2274:2306  CBOR.create(DEFAULT_BUFFER_SIZE) */\n      tag_130\n        /* \"@chainlink/contracts/src/v0.8/functions/v1_0_0/libraries/FunctionsRequest.sol\":375:378  256 */\n      0x0100\n        /* \"@chainlink/contracts/src/v0.8/functions/v1_0_0/libraries/FunctionsRequest.sol\":2274:2285  CBOR.create */\n      tag_131\n        /* \"@chainlink/contracts/src/v0.8/functions/v1_0_0/libraries/FunctionsRequest.sol\":2274:2306  CBOR.create(DEFAULT_BUFFER_SIZE) */\n      jump\t// in\n    tag_130:\n        /* \"@chainlink/contracts/src/v0.8/functions/v1_0_0/libraries/FunctionsRequest.sol\":2242:2306  CBOR.CBORBuffer memory buffer = CBOR.create(DEFAULT_BUFFER_SIZE) */\n      swap1\n      pop\n        /* \"@chainlink/contracts/src/v0.8/functions/v1_0_0/libraries/FunctionsRequest.sol\":2313:2347  buffer.writeString(\"codeLocation\") */\n      tag_132\n      mload(0x40)\n      dup1\n      0x40\n      add\n      0x40\n      mstore\n      dup1\n      0x0c\n      dup2\n      mstore\n      0x20\n      add\n      0x636f64654c6f636174696f6e0000000000000000000000000000000000000000\n      dup2\n      mstore\n      pop\n        /* \"@chainlink/contracts/src/v0.8/functions/v1_0_0/libraries/FunctionsRequest.sol\":2313:2319  buffer */\n      dup3\n        /* \"@chainlink/contracts/src/v0.8/functions/v1_0_0/libraries/FunctionsRequest.sol\":2313:2331  buffer.writeString */\n      tag_133\n      swap1\n        /* \"@chainlink/contracts/src/v0.8/functions/v1_0_0/libraries/FunctionsRequest.sol\":2313:2347  buffer.writeString(\"codeLocation\") */\n      swap2\n      swap1\n      0xffffffff\n      and\n      jump\t// in\n    tag_132:\n        /* \"@chainlink/contracts/src/v0.8/functions/v1_0_0/libraries/FunctionsRequest.sol\":2353:2400  buffer.writeUInt256(uint256(self.codeLocation)) */\n      tag_134\n        /* \"@chainlink/contracts/src/v0.8/functions/v1_0_0/libraries/FunctionsRequest.sol\":2381:2385  self */\n      dup4\n        /* \"@chainlink/contracts/src/v0.8/functions/v1_0_0/libraries/FunctionsRequest.sol\":2381:2398  self.codeLocation */\n      0x00\n      add\n      mload\n        /* \"@chainlink/contracts/src/v0.8/functions/v1_0_0/libraries/FunctionsRequest.sol\":2373:2399  uint256(self.codeLocation) */\n      0x02\n      dup2\n      gt\n      iszero\n      tag_135\n      jumpi\n      tag_136\n      tag_122\n      jump\t// in\n    tag_136:\n    tag_135:\n        /* \"@chainlink/contracts/src/v0.8/functions/v1_0_0/libraries/FunctionsRequest.sol\":2353:2359  buffer */\n      dup3\n        /* \"@chainlink/contracts/src/v0.8/functions/v1_0_0/libraries/FunctionsRequest.sol\":2353:2372  buffer.writeUInt256 */\n      tag_137\n      swap1\n        /* \"@chainlink/contracts/src/v0.8/functions/v1_0_0/libraries/FunctionsRequest.sol\":2353:2400  buffer.writeUInt256(uint256(self.codeLocation)) */\n      swap2\n      swap1\n      0xffffffff\n      and\n      jump\t// in\n    tag_134:\n        /* \"@chainlink/contracts/src/v0.8/functions/v1_0_0/libraries/FunctionsRequest.sol\":2407:2437  buffer.writeString(\"language\") */\n      tag_138\n      mload(0x40)\n      dup1\n      0x40\n      add\n      0x40\n      mstore\n      dup1\n      0x08\n      dup2\n      mstore\n      0x20\n      add\n      0x6c616e6775616765000000000000000000000000000000000000000000000000\n      dup2\n      mstore\n      pop\n        /* \"@chainlink/contracts/src/v0.8/functions/v1_0_0/libraries/FunctionsRequest.sol\":2407:2413  buffer */\n      dup3\n        /* \"@chainlink/contracts/src/v0.8/functions/v1_0_0/libraries/FunctionsRequest.sol\":2407:2425  buffer.writeString */\n      tag_133\n      swap1\n        /* \"@chainlink/contracts/src/v0.8/functions/v1_0_0/libraries/FunctionsRequest.sol\":2407:2437  buffer.writeString(\"language\") */\n      swap2\n      swap1\n      0xffffffff\n      and\n      jump\t// in\n    tag_138:\n        /* \"@chainlink/contracts/src/v0.8/functions/v1_0_0/libraries/FunctionsRequest.sol\":2443:2486  buffer.writeUInt256(uint256(self.language)) */\n      tag_139\n        /* \"@chainlink/contracts/src/v0.8/functions/v1_0_0/libraries/FunctionsRequest.sol\":2471:2475  self */\n      dup4\n        /* \"@chainlink/contracts/src/v0.8/functions/v1_0_0/libraries/FunctionsRequest.sol\":2471:2484  self.language */\n      0x40\n      add\n      mload\n        /* \"@chainlink/contracts/src/v0.8/functions/v1_0_0/libraries/FunctionsRequest.sol\":2463:2485  uint256(self.language) */\n      0x00\n      dup2\n      gt\n      iszero\n      tag_140\n      jumpi\n      tag_141\n      tag_122\n      jump\t// in\n    tag_141:\n    tag_140:\n        /* \"@chainlink/contracts/src/v0.8/functions/v1_0_0/libraries/FunctionsRequest.sol\":2443:2449  buffer */\n      dup3\n        /* \"@chainlink/contracts/src/v0.8/functions/v1_0_0/libraries/FunctionsRequest.sol\":2443:2462  buffer.writeUInt256 */\n      tag_137\n      swap1\n        /* \"@chainlink/contracts/src/v0.8/functions/v1_0_0/libraries/FunctionsRequest.sol\":2443:2486  buffer.writeUInt256(uint256(self.language)) */\n      swap2\n      swap1\n      0xffffffff\n      and\n      jump\t// in\n    tag_139:\n        /* \"@chainlink/contracts/src/v0.8/functions/v1_0_0/libraries/FunctionsRequest.sol\":2493:2521  buffer.writeString(\"source\") */\n      tag_142\n      mload(0x40)\n      dup1\n      0x40\n      add\n      0x40\n      mstore\n      dup1\n      0x06\n      dup2\n      mstore\n      0x20\n      add\n      0x736f757263650000000000000000000000000000000000000000000000000000\n      dup2\n      mstore\n      pop\n        /* \"@chainlink/contracts/src/v0.8/functions/v1_0_0/libraries/FunctionsRequest.sol\":2493:2499  buffer */\n      dup3\n        /* \"@chainlink/contracts/src/v0.8/functions/v1_0_0/libraries/FunctionsRequest.sol\":2493:2511  buffer.writeString */\n      tag_133\n      swap1\n        /* \"@chainlink/contracts/src/v0.8/functions/v1_0_0/libraries/FunctionsRequest.sol\":2493:2521  buffer.writeString(\"source\") */\n      swap2\n      swap1\n      0xffffffff\n      and\n      jump\t// in\n    tag_142:\n        /* \"@chainlink/contracts/src/v0.8/functions/v1_0_0/libraries/FunctionsRequest.sol\":2527:2558  buffer.writeString(self.source) */\n      tag_143\n        /* \"@chainlink/contracts/src/v0.8/functions/v1_0_0/libraries/FunctionsRequest.sol\":2546:2550  self */\n      dup4\n        /* \"@chainlink/contracts/src/v0.8/functions/v1_0_0/libraries/FunctionsRequest.sol\":2546:2557  self.source */\n      0x60\n      add\n      mload\n        /* \"@chainlink/contracts/src/v0.8/functions/v1_0_0/libraries/FunctionsRequest.sol\":2527:2533  buffer */\n      dup3\n        /* \"@chainlink/contracts/src/v0.8/functions/v1_0_0/libraries/FunctionsRequest.sol\":2527:2545  buffer.writeString */\n      tag_133\n      swap1\n        /* \"@chainlink/contracts/src/v0.8/functions/v1_0_0/libraries/FunctionsRequest.sol\":2527:2558  buffer.writeString(self.source) */\n      swap2\n      swap1\n      0xffffffff\n      and\n      jump\t// in\n    tag_143:\n        /* \"@chainlink/contracts/src/v0.8/functions/v1_0_0/libraries/FunctionsRequest.sol\":2588:2589  0 */\n      0x00\n        /* \"@chainlink/contracts/src/v0.8/functions/v1_0_0/libraries/FunctionsRequest.sol\":2569:2573  self */\n      dup4\n        /* \"@chainlink/contracts/src/v0.8/functions/v1_0_0/libraries/FunctionsRequest.sol\":2569:2578  self.args */\n      0xa0\n      add\n      mload\n        /* \"@chainlink/contracts/src/v0.8/functions/v1_0_0/libraries/FunctionsRequest.sol\":2569:2585  self.args.length */\n      mload\n        /* \"@chainlink/contracts/src/v0.8/functions/v1_0_0/libraries/FunctionsRequest.sol\":2569:2589  self.args.length > 0 */\n      gt\n        /* \"@chainlink/contracts/src/v0.8/functions/v1_0_0/libraries/FunctionsRequest.sol\":2565:2792  if (self.args.length > 0) {... */\n      iszero\n      tag_144\n      jumpi\n        /* \"@chainlink/contracts/src/v0.8/functions/v1_0_0/libraries/FunctionsRequest.sol\":2599:2625  buffer.writeString(\"args\") */\n      tag_145\n      mload(0x40)\n      dup1\n      0x40\n      add\n      0x40\n      mstore\n      dup1\n      0x04\n      dup2\n      mstore\n      0x20\n      add\n      0x6172677300000000000000000000000000000000000000000000000000000000\n      dup2\n      mstore\n      pop\n        /* \"@chainlink/contracts/src/v0.8/functions/v1_0_0/libraries/FunctionsRequest.sol\":2599:2605  buffer */\n      dup3\n        /* \"@chainlink/contracts/src/v0.8/functions/v1_0_0/libraries/FunctionsRequest.sol\":2599:2617  buffer.writeString */\n      tag_133\n      swap1\n        /* \"@chainlink/contracts/src/v0.8/functions/v1_0_0/libraries/FunctionsRequest.sol\":2599:2625  buffer.writeString(\"args\") */\n      swap2\n      swap1\n      0xffffffff\n      and\n      jump\t// in\n    tag_145:\n        /* \"@chainlink/contracts/src/v0.8/functions/v1_0_0/libraries/FunctionsRequest.sol\":2633:2652  buffer.startArray() */\n      tag_146\n        /* \"@chainlink/contracts/src/v0.8/functions/v1_0_0/libraries/FunctionsRequest.sol\":2633:2639  buffer */\n      dup2\n        /* \"@chainlink/contracts/src/v0.8/functions/v1_0_0/libraries/FunctionsRequest.sol\":2633:2650  buffer.startArray */\n      tag_147\n        /* \"@chainlink/contracts/src/v0.8/functions/v1_0_0/libraries/FunctionsRequest.sol\":2633:2652  buffer.startArray() */\n      jump\t// in\n    tag_146:\n        /* \"@chainlink/contracts/src/v0.8/functions/v1_0_0/libraries/FunctionsRequest.sol\":2665:2674  uint256 i */\n      0x00\n        /* \"@chainlink/contracts/src/v0.8/functions/v1_0_0/libraries/FunctionsRequest.sol\":2660:2758  for (uint256 i = 0; i < self.args.length; ++i) {... */\n    tag_148:\n        /* \"@chainlink/contracts/src/v0.8/functions/v1_0_0/libraries/FunctionsRequest.sol\":2684:2688  self */\n      dup4\n        /* \"@chainlink/contracts/src/v0.8/functions/v1_0_0/libraries/FunctionsRequest.sol\":2684:2693  self.args */\n      0xa0\n      add\n      mload\n        /* \"@chainlink/contracts/src/v0.8/functions/v1_0_0/libraries/FunctionsRequest.sol\":2684:2700  self.args.length */\n      mload\n        /* \"@chainlink/contracts/src/v0.8/functions/v1_0_0/libraries/FunctionsRequest.sol\":2680:2681  i */\n      dup2\n        /* \"@chainlink/contracts/src/v0.8/functions/v1_0_0/libraries/FunctionsRequest.sol\":2680:2700  i < self.args.length */\n      lt\n        /* \"@chainlink/contracts/src/v0.8/functions/v1_0_0/libraries/FunctionsRequest.sol\":2660:2758  for (uint256 i = 0; i < self.args.length; ++i) {... */\n      iszero\n      tag_149\n      jumpi\n        /* \"@chainlink/contracts/src/v0.8/functions/v1_0_0/libraries/FunctionsRequest.sol\":2717:2749  buffer.writeString(self.args[i]) */\n      tag_151\n        /* \"@chainlink/contracts/src/v0.8/functions/v1_0_0/libraries/FunctionsRequest.sol\":2736:2740  self */\n      dup5\n        /* \"@chainlink/contracts/src/v0.8/functions/v1_0_0/libraries/FunctionsRequest.sol\":2736:2745  self.args */\n      0xa0\n      add\n      mload\n        /* \"@chainlink/contracts/src/v0.8/functions/v1_0_0/libraries/FunctionsRequest.sol\":2746:2747  i */\n      dup3\n        /* \"@chainlink/contracts/src/v0.8/functions/v1_0_0/libraries/FunctionsRequest.sol\":2736:2748  self.args[i] */\n      dup2\n      mload\n      dup2\n      lt\n      tag_152\n      jumpi\n      tag_153\n      tag_154\n      jump\t// in\n    tag_153:\n    tag_152:\n      0x20\n      mul\n      0x20\n      add\n      add\n      mload\n        /* \"@chainlink/contracts/src/v0.8/functions/v1_0_0/libraries/FunctionsRequest.sol\":2717:2723  buffer */\n      dup4\n        /* \"@chainlink/contracts/src/v0.8/functions/v1_0_0/libraries/FunctionsRequest.sol\":2717:2735  buffer.writeString */\n      tag_133\n      swap1\n        /* \"@chainlink/contracts/src/v0.8/functions/v1_0_0/libraries/FunctionsRequest.sol\":2717:2749  buffer.writeString(self.args[i]) */\n      swap2\n      swap1\n      0xffffffff\n      and\n      jump\t// in\n    tag_151:\n        /* \"@chainlink/contracts/src/v0.8/functions/v1_0_0/libraries/FunctionsRequest.sol\":2702:2705  ++i */\n      dup1\n      tag_155\n      swap1\n      tag_156\n      jump\t// in\n    tag_155:\n      swap1\n      pop\n        /* \"@chainlink/contracts/src/v0.8/functions/v1_0_0/libraries/FunctionsRequest.sol\":2660:2758  for (uint256 i = 0; i < self.args.length; ++i) {... */\n      jump(tag_148)\n    tag_149:\n      pop\n        /* \"@chainlink/contracts/src/v0.8/functions/v1_0_0/libraries/FunctionsRequest.sol\":2765:2785  buffer.endSequence() */\n      tag_157\n        /* \"@chainlink/contracts/src/v0.8/functions/v1_0_0/libraries/FunctionsRequest.sol\":2765:2771  buffer */\n      dup2\n        /* \"@chainlink/contracts/src/v0.8/functions/v1_0_0/libraries/FunctionsRequest.sol\":2765:2783  buffer.endSequence */\n      tag_158\n        /* \"@chainlink/contracts/src/v0.8/functions/v1_0_0/libraries/FunctionsRequest.sol\":2765:2785  buffer.endSequence() */\n      jump\t// in\n    tag_157:\n        /* \"@chainlink/contracts/src/v0.8/functions/v1_0_0/libraries/FunctionsRequest.sol\":2565:2792  if (self.args.length > 0) {... */\n    tag_144:\n        /* \"@chainlink/contracts/src/v0.8/functions/v1_0_0/libraries/FunctionsRequest.sol\":2842:2843  0 */\n      0x00\n        /* \"@chainlink/contracts/src/v0.8/functions/v1_0_0/libraries/FunctionsRequest.sol\":2802:2806  self */\n      dup4\n        /* \"@chainlink/contracts/src/v0.8/functions/v1_0_0/libraries/FunctionsRequest.sol\":2802:2832  self.encryptedSecretsReference */\n      0x80\n      add\n      mload\n        /* \"@chainlink/contracts/src/v0.8/functions/v1_0_0/libraries/FunctionsRequest.sol\":2802:2839  self.encryptedSecretsReference.length */\n      mload\n        /* \"@chainlink/contracts/src/v0.8/functions/v1_0_0/libraries/FunctionsRequest.sol\":2802:2843  self.encryptedSecretsReference.length > 0 */\n      gt\n        /* \"@chainlink/contracts/src/v0.8/functions/v1_0_0/libraries/FunctionsRequest.sol\":2798:3144  if (self.encryptedSecretsReference.length > 0) {... */\n      iszero\n      tag_159\n      jumpi\n        /* \"@chainlink/contracts/src/v0.8/functions/v1_0_0/libraries/FunctionsRequest.sol\":2881:2896  Location.Inline */\n      0x00\n        /* \"@chainlink/contracts/src/v0.8/functions/v1_0_0/libraries/FunctionsRequest.sol\":2857:2896  self.secretsLocation == Location.Inline */\n      0x02\n      dup2\n      gt\n      iszero\n      tag_160\n      jumpi\n      tag_161\n      tag_122\n      jump\t// in\n    tag_161:\n    tag_160:\n        /* \"@chainlink/contracts/src/v0.8/functions/v1_0_0/libraries/FunctionsRequest.sol\":2857:2861  self */\n      dup4\n        /* \"@chainlink/contracts/src/v0.8/functions/v1_0_0/libraries/FunctionsRequest.sol\":2857:2877  self.secretsLocation */\n      0x20\n      add\n      mload\n        /* \"@chainlink/contracts/src/v0.8/functions/v1_0_0/libraries/FunctionsRequest.sol\":2857:2896  self.secretsLocation == Location.Inline */\n      0x02\n      dup2\n      gt\n      iszero\n      tag_162\n      jumpi\n      tag_163\n      tag_122\n      jump\t// in\n    tag_163:\n    tag_162:\n      sub\n        /* \"@chainlink/contracts/src/v0.8/functions/v1_0_0/libraries/FunctionsRequest.sol\":2853:2941  if (self.secretsLocation == Location.Inline) {... */\n      tag_164\n      jumpi\n        /* \"@chainlink/contracts/src/v0.8/functions/v1_0_0/libraries/FunctionsRequest.sol\":2915:2932  NoInlineSecrets() */\n      mload(0x40)\n      0xa80d31f700000000000000000000000000000000000000000000000000000000\n      dup2\n      mstore\n      0x04\n      add\n      mload(0x40)\n      dup1\n      swap2\n      sub\n      swap1\n      revert\n        /* \"@chainlink/contracts/src/v0.8/functions/v1_0_0/libraries/FunctionsRequest.sol\":2853:2941  if (self.secretsLocation == Location.Inline) {... */\n    tag_164:\n        /* \"@chainlink/contracts/src/v0.8/functions/v1_0_0/libraries/FunctionsRequest.sol\":2948:2985  buffer.writeString(\"secretsLocation\") */\n      tag_165\n      mload(0x40)\n      dup1\n      0x40\n      add\n      0x40\n      mstore\n      dup1\n      0x0f\n      dup2\n      mstore\n      0x20\n      add\n      0x736563726574734c6f636174696f6e0000000000000000000000000000000000\n      dup2\n      mstore\n      pop\n        /* \"@chainlink/contracts/src/v0.8/functions/v1_0_0/libraries/FunctionsRequest.sol\":2948:2954  buffer */\n      dup3\n        /* \"@chainlink/contracts/src/v0.8/functions/v1_0_0/libraries/FunctionsRequest.sol\":2948:2966  buffer.writeString */\n      tag_133\n      swap1\n        /* \"@chainlink/contracts/src/v0.8/functions/v1_0_0/libraries/FunctionsRequest.sol\":2948:2985  buffer.writeString(\"secretsLocation\") */\n      swap2\n      swap1\n      0xffffffff\n      and\n      jump\t// in\n    tag_165:\n        /* \"@chainlink/contracts/src/v0.8/functions/v1_0_0/libraries/FunctionsRequest.sol\":2993:3043  buffer.writeUInt256(uint256(self.secretsLocation)) */\n      tag_166\n        /* \"@chainlink/contracts/src/v0.8/functions/v1_0_0/libraries/FunctionsRequest.sol\":3021:3025  self */\n      dup4\n        /* \"@chainlink/contracts/src/v0.8/functions/v1_0_0/libraries/FunctionsRequest.sol\":3021:3041  self.secretsLocation */\n      0x20\n      add\n      mload\n        /* \"@chainlink/contracts/src/v0.8/functions/v1_0_0/libraries/FunctionsRequest.sol\":3013:3042  uint256(self.secretsLocation) */\n      0x02\n      dup2\n      gt\n      iszero\n      tag_167\n      jumpi\n      tag_168\n      tag_122\n      jump\t// in\n    tag_168:\n    tag_167:\n        /* \"@chainlink/contracts/src/v0.8/functions/v1_0_0/libraries/FunctionsRequest.sol\":2993:2999  buffer */\n      dup3\n        /* \"@chainlink/contracts/src/v0.8/functions/v1_0_0/libraries/FunctionsRequest.sol\":2993:3012  buffer.writeUInt256 */\n      tag_137\n      swap1\n        /* \"@chainlink/contracts/src/v0.8/functions/v1_0_0/libraries/FunctionsRequest.sol\":2993:3043  buffer.writeUInt256(uint256(self.secretsLocation)) */\n      swap2\n      swap1\n      0xffffffff\n      and\n      jump\t// in\n    tag_166:\n        /* \"@chainlink/contracts/src/v0.8/functions/v1_0_0/libraries/FunctionsRequest.sol\":3051:3080  buffer.writeString(\"secrets\") */\n      tag_169\n      mload(0x40)\n      dup1\n      0x40\n      add\n      0x40\n      mstore\n      dup1\n      0x07\n      dup2\n      mstore\n      0x20\n      add\n      0x7365637265747300000000000000000000000000000000000000000000000000\n      dup2\n      mstore\n      pop\n        /* \"@chainlink/contracts/src/v0.8/functions/v1_0_0/libraries/FunctionsRequest.sol\":3051:3057  buffer */\n      dup3\n        /* \"@chainlink/contracts/src/v0.8/functions/v1_0_0/libraries/FunctionsRequest.sol\":3051:3069  buffer.writeString */\n      tag_133\n      swap1\n        /* \"@chainlink/contracts/src/v0.8/functions/v1_0_0/libraries/FunctionsRequest.sol\":3051:3080  buffer.writeString(\"secrets\") */\n      swap2\n      swap1\n      0xffffffff\n      and\n      jump\t// in\n    tag_169:\n        /* \"@chainlink/contracts/src/v0.8/functions/v1_0_0/libraries/FunctionsRequest.sol\":3088:3137  buffer.writeBytes(self.encryptedSecretsReference) */\n      tag_170\n        /* \"@chainlink/contracts/src/v0.8/functions/v1_0_0/libraries/FunctionsRequest.sol\":3106:3110  self */\n      dup4\n        /* \"@chainlink/contracts/src/v0.8/functions/v1_0_0/libraries/FunctionsRequest.sol\":3106:3136  self.encryptedSecretsReference */\n      0x80\n      add\n      mload\n        /* \"@chainlink/contracts/src/v0.8/functions/v1_0_0/libraries/FunctionsRequest.sol\":3088:3094  buffer */\n      dup3\n        /* \"@chainlink/contracts/src/v0.8/functions/v1_0_0/libraries/FunctionsRequest.sol\":3088:3105  buffer.writeBytes */\n      tag_171\n      swap1\n        /* \"@chainlink/contracts/src/v0.8/functions/v1_0_0/libraries/FunctionsRequest.sol\":3088:3137  buffer.writeBytes(self.encryptedSecretsReference) */\n      swap2\n      swap1\n      0xffffffff\n      and\n      jump\t// in\n    tag_170:\n        /* \"@chainlink/contracts/src/v0.8/functions/v1_0_0/libraries/FunctionsRequest.sol\":2798:3144  if (self.encryptedSecretsReference.length > 0) {... */\n    tag_159:\n        /* \"@chainlink/contracts/src/v0.8/functions/v1_0_0/libraries/FunctionsRequest.sol\":3178:3179  0 */\n      0x00\n        /* \"@chainlink/contracts/src/v0.8/functions/v1_0_0/libraries/FunctionsRequest.sol\":3154:3158  self */\n      dup4\n        /* \"@chainlink/contracts/src/v0.8/functions/v1_0_0/libraries/FunctionsRequest.sol\":3154:3168  self.bytesArgs */\n      0xc0\n      add\n      mload\n        /* \"@chainlink/contracts/src/v0.8/functions/v1_0_0/libraries/FunctionsRequest.sol\":3154:3175  self.bytesArgs.length */\n      mload\n        /* \"@chainlink/contracts/src/v0.8/functions/v1_0_0/libraries/FunctionsRequest.sol\":3154:3179  self.bytesArgs.length > 0 */\n      gt\n        /* \"@chainlink/contracts/src/v0.8/functions/v1_0_0/libraries/FunctionsRequest.sol\":3150:3396  if (self.bytesArgs.length > 0) {... */\n      iszero\n      tag_172\n      jumpi\n        /* \"@chainlink/contracts/src/v0.8/functions/v1_0_0/libraries/FunctionsRequest.sol\":3189:3220  buffer.writeString(\"bytesArgs\") */\n      tag_173\n      mload(0x40)\n      dup1\n      0x40\n      add\n      0x40\n      mstore\n      dup1\n      0x09\n      dup2\n      mstore\n      0x20\n      add\n      0x6279746573417267730000000000000000000000000000000000000000000000\n      dup2\n      mstore\n      pop\n        /* \"@chainlink/contracts/src/v0.8/functions/v1_0_0/libraries/FunctionsRequest.sol\":3189:3195  buffer */\n      dup3\n        /* \"@chainlink/contracts/src/v0.8/functions/v1_0_0/libraries/FunctionsRequest.sol\":3189:3207  buffer.writeString */\n      tag_133\n      swap1\n        /* \"@chainlink/contracts/src/v0.8/functions/v1_0_0/libraries/FunctionsRequest.sol\":3189:3220  buffer.writeString(\"bytesArgs\") */\n      swap2\n      swap1\n      0xffffffff\n      and\n      jump\t// in\n    tag_173:\n        /* \"@chainlink/contracts/src/v0.8/functions/v1_0_0/libraries/FunctionsRequest.sol\":3228:3247  buffer.startArray() */\n      tag_174\n        /* \"@chainlink/contracts/src/v0.8/functions/v1_0_0/libraries/FunctionsRequest.sol\":3228:3234  buffer */\n      dup2\n        /* \"@chainlink/contracts/src/v0.8/functions/v1_0_0/libraries/FunctionsRequest.sol\":3228:3245  buffer.startArray */\n      tag_147\n        /* \"@chainlink/contracts/src/v0.8/functions/v1_0_0/libraries/FunctionsRequest.sol\":3228:3247  buffer.startArray() */\n      jump\t// in\n    tag_174:\n        /* \"@chainlink/contracts/src/v0.8/functions/v1_0_0/libraries/FunctionsRequest.sol\":3260:3269  uint256 i */\n      0x00\n        /* \"@chainlink/contracts/src/v0.8/functions/v1_0_0/libraries/FunctionsRequest.sol\":3255:3362  for (uint256 i = 0; i < self.bytesArgs.length; ++i) {... */\n    tag_175:\n        /* \"@chainlink/contracts/src/v0.8/functions/v1_0_0/libraries/FunctionsRequest.sol\":3279:3283  self */\n      dup4\n        /* \"@chainlink/contracts/src/v0.8/functions/v1_0_0/libraries/FunctionsRequest.sol\":3279:3293  self.bytesArgs */\n      0xc0\n      add\n      mload\n        /* \"@chainlink/contracts/src/v0.8/functions/v1_0_0/libraries/FunctionsRequest.sol\":3279:3300  self.bytesArgs.length */\n      mload\n        /* \"@chainlink/contracts/src/v0.8/functions/v1_0_0/libraries/FunctionsRequest.sol\":3275:3276  i */\n      dup2\n        /* \"@chainlink/contracts/src/v0.8/functions/v1_0_0/libraries/FunctionsRequest.sol\":3275:3300  i < self.bytesArgs.length */\n      lt\n        /* \"@chainlink/contracts/src/v0.8/functions/v1_0_0/libraries/FunctionsRequest.sol\":3255:3362  for (uint256 i = 0; i < self.bytesArgs.length; ++i) {... */\n      iszero\n      tag_176\n      jumpi\n        /* \"@chainlink/contracts/src/v0.8/functions/v1_0_0/libraries/FunctionsRequest.sol\":3317:3353  buffer.writeBytes(self.bytesArgs[i]) */\n      tag_178\n        /* \"@chainlink/contracts/src/v0.8/functions/v1_0_0/libraries/FunctionsRequest.sol\":3335:3339  self */\n      dup5\n        /* \"@chainlink/contracts/src/v0.8/functions/v1_0_0/libraries/FunctionsRequest.sol\":3335:3349  self.bytesArgs */\n      0xc0\n      add\n      mload\n        /* \"@chainlink/contracts/src/v0.8/functions/v1_0_0/libraries/FunctionsRequest.sol\":3350:3351  i */\n      dup3\n        /* \"@chainlink/contracts/src/v0.8/functions/v1_0_0/libraries/FunctionsRequest.sol\":3335:3352  self.bytesArgs[i] */\n      dup2\n      mload\n      dup2\n      lt\n      tag_179\n      jumpi\n      tag_180\n      tag_154\n      jump\t// in\n    tag_180:\n    tag_179:\n      0x20\n      mul\n      0x20\n      add\n      add\n      mload\n        /* \"@chainlink/contracts/src/v0.8/functions/v1_0_0/libraries/FunctionsRequest.sol\":3317:3323  buffer */\n      dup4\n        /* \"@chainlink/contracts/src/v0.8/functions/v1_0_0/libraries/FunctionsRequest.sol\":3317:3334  buffer.writeBytes */\n      tag_171\n      swap1\n        /* \"@chainlink/contracts/src/v0.8/functions/v1_0_0/libraries/FunctionsRequest.sol\":3317:3353  buffer.writeBytes(self.bytesArgs[i]) */\n      swap2\n      swap1\n      0xffffffff\n      and\n      jump\t// in\n    tag_178:\n        /* \"@chainlink/contracts/src/v0.8/functions/v1_0_0/libraries/FunctionsRequest.sol\":3302:3305  ++i */\n      dup1\n      tag_181\n      swap1\n      tag_156\n      jump\t// in\n    tag_181:\n      swap1\n      pop\n        /* \"@chainlink/contracts/src/v0.8/functions/v1_0_0/libraries/FunctionsRequest.sol\":3255:3362  for (uint256 i = 0; i < self.bytesArgs.length; ++i) {... */\n      jump(tag_175)\n    tag_176:\n      pop\n        /* \"@chainlink/contracts/src/v0.8/functions/v1_0_0/libraries/FunctionsRequest.sol\":3369:3389  buffer.endSequence() */\n      tag_182\n        /* \"@chainlink/contracts/src/v0.8/functions/v1_0_0/libraries/FunctionsRequest.sol\":3369:3375  buffer */\n      dup2\n        /* \"@chainlink/contracts/src/v0.8/functions/v1_0_0/libraries/FunctionsRequest.sol\":3369:3387  buffer.endSequence */\n      tag_158\n        /* \"@chainlink/contracts/src/v0.8/functions/v1_0_0/libraries/FunctionsRequest.sol\":3369:3389  buffer.endSequence() */\n      jump\t// in\n    tag_182:\n        /* \"@chainlink/contracts/src/v0.8/functions/v1_0_0/libraries/FunctionsRequest.sol\":3150:3396  if (self.bytesArgs.length > 0) {... */\n    tag_172:\n        /* \"@chainlink/contracts/src/v0.8/functions/v1_0_0/libraries/FunctionsRequest.sol\":3409:3415  buffer */\n      dup1\n        /* \"@chainlink/contracts/src/v0.8/functions/v1_0_0/libraries/FunctionsRequest.sol\":3409:3419  buffer.buf */\n      0x00\n      add\n      mload\n        /* \"@chainlink/contracts/src/v0.8/functions/v1_0_0/libraries/FunctionsRequest.sol\":3409:3423  buffer.buf.buf */\n      0x00\n      add\n      mload\n        /* \"@chainlink/contracts/src/v0.8/functions/v1_0_0/libraries/FunctionsRequest.sol\":3402:3423  return buffer.buf.buf */\n      swap2\n      pop\n      pop\n        /* \"@chainlink/contracts/src/v0.8/functions/v1_0_0/libraries/FunctionsRequest.sol\":2158:3428  function encodeCBOR(Request memory self) internal pure returns (bytes memory) {... */\n      swap2\n      swap1\n      pop\n      jump\t// out\n        /* \"@chainlink/contracts/src/v0.8/functions/v1_0_0/FunctionsClient.sol\":1158:1537  function _sendRequest(... */\n    tag_75:\n        /* \"@chainlink/contracts/src/v0.8/functions/v1_0_0/FunctionsClient.sol\":1300:1307  bytes32 */\n      0x00\n        /* \"@chainlink/contracts/src/v0.8/functions/v1_0_0/FunctionsClient.sol\":1315:1332  bytes32 requestId */\n      dup1\n        /* \"@chainlink/contracts/src/v0.8/functions/v1_0_0/FunctionsClient.sol\":1335:1343  i_router */\n      immutable(\"0x8e8fab5f003314da8d1873ea7720e8d9f47650136d916064d1edb8a11d682624\")\n        /* \"@chainlink/contracts/src/v0.8/functions/v1_0_0/FunctionsClient.sol\":1335:1355  i_router.sendRequest */\n      0xffffffffffffffffffffffffffffffffffffffff\n      and\n      0x461d2762\n        /* \"@chainlink/contracts/src/v0.8/functions/v1_0_0/FunctionsClient.sol\":1363:1377  subscriptionId */\n      dup7\n        /* \"@chainlink/contracts/src/v0.8/functions/v1_0_0/FunctionsClient.sol\":1385:1389  data */\n      dup9\n        /* \"@chainlink/contracts/src/v0.8/functions/v1_0_0/libraries/FunctionsRequest.sol\":322:323  1 */\n      0x01\n        /* \"@chainlink/contracts/src/v0.8/functions/v1_0_0/FunctionsClient.sol\":1442:1458  callbackGasLimit */\n      dup9\n        /* \"@chainlink/contracts/src/v0.8/functions/v1_0_0/FunctionsClient.sol\":1466:1471  donId */\n      dup9\n        /* \"@chainlink/contracts/src/v0.8/functions/v1_0_0/FunctionsClient.sol\":1335:1477  i_router.sendRequest(... */\n      mload(0x40)\n      dup7\n      0xffffffff\n      and\n      0xe0\n      shl\n      dup2\n      mstore\n      0x04\n      add\n      tag_184\n      swap6\n      swap5\n      swap4\n      swap3\n      swap2\n      swap1\n      tag_185\n      jump\t// in\n    tag_184:\n      0x20\n      mload(0x40)\n      dup1\n      dup4\n      sub\n      dup2\n      0x00\n      dup8\n      gas\n      call\n      iszero\n      dup1\n      iszero\n      tag_187\n      jumpi\n      returndatasize\n      0x00\n      dup1\n      returndatacopy\n      revert(0x00, returndatasize)\n    tag_187:\n      pop\n      pop\n      pop\n      pop\n      mload(0x40)\n      returndatasize\n      not(0x1f)\n      0x1f\n      dup3\n      add\n      and\n      dup3\n      add\n      dup1\n      0x40\n      mstore\n      pop\n      dup2\n      add\n      swap1\n      tag_188\n      swap2\n      swap1\n      tag_189\n      jump\t// in\n    tag_188:\n        /* \"@chainlink/contracts/src/v0.8/functions/v1_0_0/FunctionsClient.sol\":1315:1477  bytes32 requestId = i_router.sendRequest(... */\n      swap1\n      pop\n        /* \"@chainlink/contracts/src/v0.8/functions/v1_0_0/FunctionsClient.sol\":1500:1509  requestId */\n      dup1\n        /* \"@chainlink/contracts/src/v0.8/functions/v1_0_0/FunctionsClient.sol\":1488:1510  RequestSent(requestId) */\n      0x1131472297a800fee664d1d89cfa8f7676ff07189ecc53f80bbb5f4969099db8\n      mload(0x40)\n      mload(0x40)\n      dup1\n      swap2\n      sub\n      swap1\n      log2\n        /* \"@chainlink/contracts/src/v0.8/functions/v1_0_0/FunctionsClient.sol\":1523:1532  requestId */\n      dup1\n        /* \"@chainlink/contracts/src/v0.8/functions/v1_0_0/FunctionsClient.sol\":1516:1532  return requestId */\n      swap2\n      pop\n      pop\n        /* \"@chainlink/contracts/src/v0.8/functions/v1_0_0/FunctionsClient.sol\":1158:1537  function _sendRequest(... */\n      swap5\n      swap4\n      pop\n      pop\n      pop\n      pop\n      jump\t// out\n        /* \"@chainlink/contracts/src/v0.8/shared/access/ConfirmedOwnerWithProposal.sol\":1536:1775  function _transferOwnership(address to) private {... */\n    tag_100:\n        /* \"@chainlink/contracts/src/v0.8/shared/access/ConfirmedOwnerWithProposal.sol\":1655:1665  msg.sender */\n      caller\n        /* \"@chainlink/contracts/src/v0.8/shared/access/ConfirmedOwnerWithProposal.sol\":1649:1665  to != msg.sender */\n      0xffffffffffffffffffffffffffffffffffffffff\n      and\n        /* \"@chainlink/contracts/src/v0.8/shared/access/ConfirmedOwnerWithProposal.sol\":1649:1651  to */\n      dup2\n        /* \"@chainlink/contracts/src/v0.8/shared/access/ConfirmedOwnerWithProposal.sol\":1649:1665  to != msg.sender */\n      0xffffffffffffffffffffffffffffffffffffffff\n      and\n      sub\n        /* \"@chainlink/contracts/src/v0.8/shared/access/ConfirmedOwnerWithProposal.sol\":1641:1693  require(to != msg.sender, \"Cannot transfer to self\") */\n      tag_191\n      jumpi\n      mload(0x40)\n      0x08c379a000000000000000000000000000000000000000000000000000000000\n      dup2\n      mstore\n      0x04\n      add\n      tag_192\n      swap1\n      tag_193\n      jump\t// in\n    tag_192:\n      mload(0x40)\n      dup1\n      swap2\n      sub\n      swap1\n      revert\n    tag_191:\n        /* \"@chainlink/contracts/src/v0.8/shared/access/ConfirmedOwnerWithProposal.sol\":1717:1719  to */\n      dup1\n        /* \"@chainlink/contracts/src/v0.8/shared/access/ConfirmedOwnerWithProposal.sol\":1700:1714  s_pendingOwner */\n      0x01\n      0x00\n        /* \"@chainlink/contracts/src/v0.8/shared/access/ConfirmedOwnerWithProposal.sol\":1700:1719  s_pendingOwner = to */\n      0x0100\n      exp\n      dup2\n      sload\n      dup2\n      0xffffffffffffffffffffffffffffffffffffffff\n      mul\n      not\n      and\n      swap1\n      dup4\n      0xffffffffffffffffffffffffffffffffffffffff\n      and\n      mul\n      or\n      swap1\n      sstore\n      pop\n        /* \"@chainlink/contracts/src/v0.8/shared/access/ConfirmedOwnerWithProposal.sol\":1767:1769  to */\n      dup1\n        /* \"@chainlink/contracts/src/v0.8/shared/access/ConfirmedOwnerWithProposal.sol\":1731:1770  OwnershipTransferRequested(s_owner, to) */\n      0xffffffffffffffffffffffffffffffffffffffff\n      and\n        /* \"@chainlink/contracts/src/v0.8/shared/access/ConfirmedOwnerWithProposal.sol\":1758:1765  s_owner */\n      0x00\n      dup1\n      sload\n      swap1\n      0x0100\n      exp\n      swap1\n      div\n      0xffffffffffffffffffffffffffffffffffffffff\n      and\n        /* \"@chainlink/contracts/src/v0.8/shared/access/ConfirmedOwnerWithProposal.sol\":1731:1770  OwnershipTransferRequested(s_owner, to) */\n      0xffffffffffffffffffffffffffffffffffffffff\n      and\n      0xed8889f560326eb138920d842192f0eb3dd22b4f139c87a2c57538e05bae1278\n      mload(0x40)\n      mload(0x40)\n      dup1\n      swap2\n      sub\n      swap1\n      log3\n        /* \"@chainlink/contracts/src/v0.8/shared/access/ConfirmedOwnerWithProposal.sol\":1536:1775  function _transferOwnership(address to) private {... */\n      pop\n      jump\t// out\n        /* \"@chainlink/contracts/src/v0.8/vendor/solidity-cborutils/v2.0.0/CBOR.sol\":1490:1663  function create(uint256 capacity) internal pure returns(CBORBuffer memory cbor) {... */\n    tag_131:\n        /* \"@chainlink/contracts/src/v0.8/vendor/solidity-cborutils/v2.0.0/CBOR.sol\":1546:1568  CBORBuffer memory cbor */\n      tag_194\n      tag_195\n      jump\t// in\n    tag_194:\n        /* \"@chainlink/contracts/src/v0.8/vendor/solidity-cborutils/v2.0.0/CBOR.sol\":1580:1611  Buffer.init(cbor.buf, capacity) */\n      tag_197\n        /* \"@chainlink/contracts/src/v0.8/vendor/solidity-cborutils/v2.0.0/CBOR.sol\":1592:1596  cbor */\n      dup2\n        /* \"@chainlink/contracts/src/v0.8/vendor/solidity-cborutils/v2.0.0/CBOR.sol\":1592:1600  cbor.buf */\n      0x00\n      add\n      mload\n        /* \"@chainlink/contracts/src/v0.8/vendor/solidity-cborutils/v2.0.0/CBOR.sol\":1602:1610  capacity */\n      dup4\n        /* \"@chainlink/contracts/src/v0.8/vendor/solidity-cborutils/v2.0.0/CBOR.sol\":1580:1591  Buffer.init */\n      tag_198\n        /* \"@chainlink/contracts/src/v0.8/vendor/solidity-cborutils/v2.0.0/CBOR.sol\":1580:1611  Buffer.init(cbor.buf, capacity) */\n      jump\t// in\n    tag_197:\n      pop\n        /* \"@chainlink/contracts/src/v0.8/vendor/solidity-cborutils/v2.0.0/CBOR.sol\":1634:1635  0 */\n      0x00\n        /* \"@chainlink/contracts/src/v0.8/vendor/solidity-cborutils/v2.0.0/CBOR.sol\":1621:1625  cbor */\n      dup2\n        /* \"@chainlink/contracts/src/v0.8/vendor/solidity-cborutils/v2.0.0/CBOR.sol\":1621:1631  cbor.depth */\n      0x20\n      add\n        /* \"@chainlink/contracts/src/v0.8/vendor/solidity-cborutils/v2.0.0/CBOR.sol\":1621:1635  cbor.depth = 0 */\n      dup2\n      dup2\n      mstore\n      pop\n      pop\n        /* \"@chainlink/contracts/src/v0.8/vendor/solidity-cborutils/v2.0.0/CBOR.sol\":1490:1663  function create(uint256 capacity) internal pure returns(CBORBuffer memory cbor) {... */\n      swap2\n      swap1\n      pop\n      jump\t// out\n        /* \"@chainlink/contracts/src/v0.8/vendor/solidity-cborutils/v2.0.0/CBOR.sol\":3021:3225  function writeString(CBORBuffer memory buf, string memory value) internal pure {... */\n    tag_133:\n        /* \"@chainlink/contracts/src/v0.8/vendor/solidity-cborutils/v2.0.0/CBOR.sol\":3110:3180  writeFixedNumeric(buf, MAJOR_TYPE_STRING, uint64(bytes(value).length)) */\n      tag_200\n        /* \"@chainlink/contracts/src/v0.8/vendor/solidity-cborutils/v2.0.0/CBOR.sol\":3128:3131  buf */\n      dup3\n        /* \"@chainlink/contracts/src/v0.8/vendor/solidity-cborutils/v2.0.0/CBOR.sol\":998:999  3 */\n      0x03\n        /* \"@chainlink/contracts/src/v0.8/vendor/solidity-cborutils/v2.0.0/CBOR.sol\":3165:3170  value */\n      dup4\n        /* \"@chainlink/contracts/src/v0.8/vendor/solidity-cborutils/v2.0.0/CBOR.sol\":3159:3178  bytes(value).length */\n      mload\n        /* \"@chainlink/contracts/src/v0.8/vendor/solidity-cborutils/v2.0.0/CBOR.sol\":3110:3127  writeFixedNumeric */\n      tag_201\n        /* \"@chainlink/contracts/src/v0.8/vendor/solidity-cborutils/v2.0.0/CBOR.sol\":3110:3180  writeFixedNumeric(buf, MAJOR_TYPE_STRING, uint64(bytes(value).length)) */\n      jump\t// in\n    tag_200:\n        /* \"@chainlink/contracts/src/v0.8/vendor/solidity-cborutils/v2.0.0/CBOR.sol\":3190:3218  buf.buf.append(bytes(value)) */\n      tag_202\n        /* \"@chainlink/contracts/src/v0.8/vendor/solidity-cborutils/v2.0.0/CBOR.sol\":3211:3216  value */\n      dup2\n        /* \"@chainlink/contracts/src/v0.8/vendor/solidity-cborutils/v2.0.0/CBOR.sol\":3190:3193  buf */\n      dup4\n        /* \"@chainlink/contracts/src/v0.8/vendor/solidity-cborutils/v2.0.0/CBOR.sol\":3190:3197  buf.buf */\n      0x00\n      add\n      mload\n        /* \"@chainlink/contracts/src/v0.8/vendor/solidity-cborutils/v2.0.0/CBOR.sol\":3190:3204  buf.buf.append */\n      tag_203\n      swap1\n        /* \"@chainlink/contracts/src/v0.8/vendor/solidity-cborutils/v2.0.0/CBOR.sol\":3190:3218  buf.buf.append(bytes(value)) */\n      swap2\n      swap1\n      0xffffffff\n      and\n      jump\t// in\n    tag_202:\n      pop\n        /* \"@chainlink/contracts/src/v0.8/vendor/solidity-cborutils/v2.0.0/CBOR.sol\":3021:3225  function writeString(CBORBuffer memory buf, string memory value) internal pure {... */\n      pop\n      pop\n      jump\t// out\n        /* \"@chainlink/contracts/src/v0.8/vendor/solidity-cborutils/v2.0.0/CBOR.sol\":1832:2034  function writeUInt256(CBORBuffer memory buf, uint256 value) internal pure {... */\n    tag_137:\n        /* \"@chainlink/contracts/src/v0.8/vendor/solidity-cborutils/v2.0.0/CBOR.sol\":1916:1983  buf.buf.appendUint8(uint8((MAJOR_TYPE_TAG << 5) | TAG_TYPE_BIGNUM)) */\n      tag_205\n        /* \"@chainlink/contracts/src/v0.8/vendor/solidity-cborutils/v2.0.0/CBOR.sol\":1246:1247  2 */\n      0x02\n        /* \"@chainlink/contracts/src/v0.8/vendor/solidity-cborutils/v2.0.0/CBOR.sol\":1961:1962  5 */\n      0x05\n        /* \"@chainlink/contracts/src/v0.8/vendor/solidity-cborutils/v2.0.0/CBOR.sol\":1141:1142  6 */\n      0x06\n        /* \"@chainlink/contracts/src/v0.8/vendor/solidity-cborutils/v2.0.0/CBOR.sol\":1943:1962  MAJOR_TYPE_TAG << 5 */\n      0xff\n      and\n      swap1\n      shl\n        /* \"@chainlink/contracts/src/v0.8/vendor/solidity-cborutils/v2.0.0/CBOR.sol\":1942:1981  (MAJOR_TYPE_TAG << 5) | TAG_TYPE_BIGNUM */\n      or\n        /* \"@chainlink/contracts/src/v0.8/vendor/solidity-cborutils/v2.0.0/CBOR.sol\":1916:1919  buf */\n      dup4\n        /* \"@chainlink/contracts/src/v0.8/vendor/solidity-cborutils/v2.0.0/CBOR.sol\":1916:1923  buf.buf */\n      0x00\n      add\n      mload\n        /* \"@chainlink/contracts/src/v0.8/vendor/solidity-cborutils/v2.0.0/CBOR.sol\":1916:1935  buf.buf.appendUint8 */\n      tag_206\n      swap1\n        /* \"@chainlink/contracts/src/v0.8/vendor/solidity-cborutils/v2.0.0/CBOR.sol\":1916:1983  buf.buf.appendUint8(uint8((MAJOR_TYPE_TAG << 5) | TAG_TYPE_BIGNUM)) */\n      swap2\n      swap1\n      0xffffffff\n      and\n      jump\t// in\n    tag_205:\n      pop\n        /* \"@chainlink/contracts/src/v0.8/vendor/solidity-cborutils/v2.0.0/CBOR.sol\":1993:2027  writeBytes(buf, abi.encode(value)) */\n      tag_207\n        /* \"@chainlink/contracts/src/v0.8/vendor/solidity-cborutils/v2.0.0/CBOR.sol\":2004:2007  buf */\n      dup3\n        /* \"@chainlink/contracts/src/v0.8/vendor/solidity-cborutils/v2.0.0/CBOR.sol\":2020:2025  value */\n      dup3\n        /* \"@chainlink/contracts/src/v0.8/vendor/solidity-cborutils/v2.0.0/CBOR.sol\":2009:2026  abi.encode(value) */\n      add(0x20, mload(0x40))\n      tag_208\n      swap2\n      swap1\n      tag_209\n      jump\t// in\n    tag_208:\n      mload(0x40)\n      0x20\n      dup2\n      dup4\n      sub\n      sub\n      dup2\n      mstore\n      swap1\n      0x40\n      mstore\n        /* \"@chainlink/contracts/src/v0.8/vendor/solidity-cborutils/v2.0.0/CBOR.sol\":1993:2003  writeBytes */\n      tag_171\n        /* \"@chainlink/contracts/src/v0.8/vendor/solidity-cborutils/v2.0.0/CBOR.sol\":1993:2027  writeBytes(buf, abi.encode(value)) */\n      jump\t// in\n    tag_207:\n        /* \"@chainlink/contracts/src/v0.8/vendor/solidity-cborutils/v2.0.0/CBOR.sol\":1832:2034  function writeUInt256(CBORBuffer memory buf, uint256 value) internal pure {... */\n      pop\n      pop\n      jump\t// out\n        /* \"@chainlink/contracts/src/v0.8/vendor/solidity-cborutils/v2.0.0/CBOR.sol\":3607:3753  function startArray(CBORBuffer memory buf) internal pure {... */\n    tag_147:\n        /* \"@chainlink/contracts/src/v0.8/vendor/solidity-cborutils/v2.0.0/CBOR.sol\":3674:3722  writeIndefiniteLengthType(buf, MAJOR_TYPE_ARRAY) */\n      tag_211\n        /* \"@chainlink/contracts/src/v0.8/vendor/solidity-cborutils/v2.0.0/CBOR.sol\":3700:3703  buf */\n      dup2\n        /* \"@chainlink/contracts/src/v0.8/vendor/solidity-cborutils/v2.0.0/CBOR.sol\":1047:1048  4 */\n      0x04\n        /* \"@chainlink/contracts/src/v0.8/vendor/solidity-cborutils/v2.0.0/CBOR.sol\":3674:3699  writeIndefiniteLengthType */\n      tag_212\n        /* \"@chainlink/contracts/src/v0.8/vendor/solidity-cborutils/v2.0.0/CBOR.sol\":3674:3722  writeIndefiniteLengthType(buf, MAJOR_TYPE_ARRAY) */\n      jump\t// in\n    tag_211:\n        /* \"@chainlink/contracts/src/v0.8/vendor/solidity-cborutils/v2.0.0/CBOR.sol\":3745:3746  1 */\n      0x01\n        /* \"@chainlink/contracts/src/v0.8/vendor/solidity-cborutils/v2.0.0/CBOR.sol\":3732:3735  buf */\n      dup2\n        /* \"@chainlink/contracts/src/v0.8/vendor/solidity-cborutils/v2.0.0/CBOR.sol\":3732:3741  buf.depth */\n      0x20\n      add\n        /* \"@chainlink/contracts/src/v0.8/vendor/solidity-cborutils/v2.0.0/CBOR.sol\":3732:3746  buf.depth += 1 */\n      dup2\n      dup2\n      mload\n      tag_213\n      swap2\n      swap1\n      tag_214\n      jump\t// in\n    tag_213:\n      swap2\n      pop\n      dup2\n      dup2\n      mstore\n      pop\n      pop\n        /* \"@chainlink/contracts/src/v0.8/vendor/solidity-cborutils/v2.0.0/CBOR.sol\":3607:3753  function startArray(CBORBuffer memory buf) internal pure {... */\n      pop\n      jump\t// out\n        /* \"@chainlink/contracts/src/v0.8/vendor/solidity-cborutils/v2.0.0/CBOR.sol\":4211:4365  function endSequence(CBORBuffer memory buf) internal pure {... */\n    tag_158:\n        /* \"@chainlink/contracts/src/v0.8/vendor/solidity-cborutils/v2.0.0/CBOR.sol\":4279:4334  writeIndefiniteLengthType(buf, MAJOR_TYPE_CONTENT_FREE) */\n      tag_216\n        /* \"@chainlink/contracts/src/v0.8/vendor/solidity-cborutils/v2.0.0/CBOR.sol\":4305:4308  buf */\n      dup2\n        /* \"@chainlink/contracts/src/v0.8/vendor/solidity-cborutils/v2.0.0/CBOR.sol\":1197:1198  7 */\n      0x07\n        /* \"@chainlink/contracts/src/v0.8/vendor/solidity-cborutils/v2.0.0/CBOR.sol\":4279:4304  writeIndefiniteLengthType */\n      tag_212\n        /* \"@chainlink/contracts/src/v0.8/vendor/solidity-cborutils/v2.0.0/CBOR.sol\":4279:4334  writeIndefiniteLengthType(buf, MAJOR_TYPE_CONTENT_FREE) */\n      jump\t// in\n    tag_216:\n        /* \"@chainlink/contracts/src/v0.8/vendor/solidity-cborutils/v2.0.0/CBOR.sol\":4357:4358  1 */\n      0x01\n        /* \"@chainlink/contracts/src/v0.8/vendor/solidity-cborutils/v2.0.0/CBOR.sol\":4344:4347  buf */\n      dup2\n        /* \"@chainlink/contracts/src/v0.8/vendor/solidity-cborutils/v2.0.0/CBOR.sol\":4344:4353  buf.depth */\n      0x20\n      add\n        /* \"@chainlink/contracts/src/v0.8/vendor/solidity-cborutils/v2.0.0/CBOR.sol\":4344:4358  buf.depth -= 1 */\n      dup2\n      dup2\n      mload\n      tag_217\n      swap2\n      swap1\n      tag_218\n      jump\t// in\n    tag_217:\n      swap2\n      pop\n      dup2\n      dup2\n      mstore\n      pop\n      pop\n        /* \"@chainlink/contracts/src/v0.8/vendor/solidity-cborutils/v2.0.0/CBOR.sol\":4211:4365  function endSequence(CBORBuffer memory buf) internal pure {... */\n      pop\n      jump\t// out\n        /* \"@chainlink/contracts/src/v0.8/vendor/solidity-cborutils/v2.0.0/CBOR.sol\":2828:3015  function writeBytes(CBORBuffer memory buf, bytes memory value) internal pure {... */\n    tag_171:\n        /* \"@chainlink/contracts/src/v0.8/vendor/solidity-cborutils/v2.0.0/CBOR.sol\":2915:2977  writeFixedNumeric(buf, MAJOR_TYPE_BYTES, uint64(value.length)) */\n      tag_220\n        /* \"@chainlink/contracts/src/v0.8/vendor/solidity-cborutils/v2.0.0/CBOR.sol\":2933:2936  buf */\n      dup3\n        /* \"@chainlink/contracts/src/v0.8/vendor/solidity-cborutils/v2.0.0/CBOR.sol\":948:949  2 */\n      0x02\n        /* \"@chainlink/contracts/src/v0.8/vendor/solidity-cborutils/v2.0.0/CBOR.sol\":2963:2968  value */\n      dup4\n        /* \"@chainlink/contracts/src/v0.8/vendor/solidity-cborutils/v2.0.0/CBOR.sol\":2963:2975  value.length */\n      mload\n        /* \"@chainlink/contracts/src/v0.8/vendor/solidity-cborutils/v2.0.0/CBOR.sol\":2915:2932  writeFixedNumeric */\n      tag_201\n        /* \"@chainlink/contracts/src/v0.8/vendor/solidity-cborutils/v2.0.0/CBOR.sol\":2915:2977  writeFixedNumeric(buf, MAJOR_TYPE_BYTES, uint64(value.length)) */\n      jump\t// in\n    tag_220:\n        /* \"@chainlink/contracts/src/v0.8/vendor/solidity-cborutils/v2.0.0/CBOR.sol\":2987:3008  buf.buf.append(value) */\n      tag_221\n        /* \"@chainlink/contracts/src/v0.8/vendor/solidity-cborutils/v2.0.0/CBOR.sol\":3002:3007  value */\n      dup2\n        /* \"@chainlink/contracts/src/v0.8/vendor/solidity-cborutils/v2.0.0/CBOR.sol\":2987:2990  buf */\n      dup4\n        /* \"@chainlink/contracts/src/v0.8/vendor/solidity-cborutils/v2.0.0/CBOR.sol\":2987:2994  buf.buf */\n      0x00\n      add\n      mload\n        /* \"@chainlink/contracts/src/v0.8/vendor/solidity-cborutils/v2.0.0/CBOR.sol\":2987:3001  buf.buf.append */\n      tag_203\n      swap1\n        /* \"@chainlink/contracts/src/v0.8/vendor/solidity-cborutils/v2.0.0/CBOR.sol\":2987:3008  buf.buf.append(value) */\n      swap2\n      swap1\n      0xffffffff\n      and\n      jump\t// in\n    tag_221:\n      pop\n        /* \"@chainlink/contracts/src/v0.8/vendor/solidity-cborutils/v2.0.0/CBOR.sol\":2828:3015  function writeBytes(CBORBuffer memory buf, bytes memory value) internal pure {... */\n      pop\n      pop\n      jump\t// out\n        /* \"@chainlink/contracts/src/v0.8/vendor/@ensdomains/buffer/v0.1.0/Buffer.sol\":1020:1575  function init(buffer memory buf, uint capacity) internal pure returns(buffer memory) {... */\n    tag_198:\n        /* \"@chainlink/contracts/src/v0.8/vendor/@ensdomains/buffer/v0.1.0/Buffer.sol\":1090:1103  buffer memory */\n      tag_222\n      tag_223\n      jump\t// in\n    tag_222:\n        /* \"@chainlink/contracts/src/v0.8/vendor/@ensdomains/buffer/v0.1.0/Buffer.sol\":1136:1137  0 */\n      0x00\n        /* \"@chainlink/contracts/src/v0.8/vendor/@ensdomains/buffer/v0.1.0/Buffer.sol\":1130:1132  32 */\n      0x20\n        /* \"@chainlink/contracts/src/v0.8/vendor/@ensdomains/buffer/v0.1.0/Buffer.sol\":1119:1127  capacity */\n      dup4\n        /* \"@chainlink/contracts/src/v0.8/vendor/@ensdomains/buffer/v0.1.0/Buffer.sol\":1119:1132  capacity % 32 */\n      tag_225\n      swap2\n      swap1\n      tag_226\n      jump\t// in\n    tag_225:\n        /* \"@chainlink/contracts/src/v0.8/vendor/@ensdomains/buffer/v0.1.0/Buffer.sol\":1119:1137  capacity % 32 != 0 */\n      eq\n        /* \"@chainlink/contracts/src/v0.8/vendor/@ensdomains/buffer/v0.1.0/Buffer.sol\":1115:1196  if (capacity % 32 != 0) {... */\n      tag_227\n      jumpi\n        /* \"@chainlink/contracts/src/v0.8/vendor/@ensdomains/buffer/v0.1.0/Buffer.sol\":1182:1184  32 */\n      0x20\n        /* \"@chainlink/contracts/src/v0.8/vendor/@ensdomains/buffer/v0.1.0/Buffer.sol\":1171:1179  capacity */\n      dup3\n        /* \"@chainlink/contracts/src/v0.8/vendor/@ensdomains/buffer/v0.1.0/Buffer.sol\":1171:1184  capacity % 32 */\n      tag_228\n      swap2\n      swap1\n      tag_226\n      jump\t// in\n    tag_228:\n        /* \"@chainlink/contracts/src/v0.8/vendor/@ensdomains/buffer/v0.1.0/Buffer.sol\":1165:1167  32 */\n      0x20\n        /* \"@chainlink/contracts/src/v0.8/vendor/@ensdomains/buffer/v0.1.0/Buffer.sol\":1165:1185  32 - (capacity % 32) */\n      tag_229\n      swap2\n      swap1\n      tag_218\n      jump\t// in\n    tag_229:\n        /* \"@chainlink/contracts/src/v0.8/vendor/@ensdomains/buffer/v0.1.0/Buffer.sol\":1153:1185  capacity += 32 - (capacity % 32) */\n      dup3\n      tag_230\n      swap2\n      swap1\n      tag_214\n      jump\t// in\n    tag_230:\n      swap2\n      pop\n        /* \"@chainlink/contracts/src/v0.8/vendor/@ensdomains/buffer/v0.1.0/Buffer.sol\":1115:1196  if (capacity % 32 != 0) {... */\n    tag_227:\n        /* \"@chainlink/contracts/src/v0.8/vendor/@ensdomains/buffer/v0.1.0/Buffer.sol\":1266:1274  capacity */\n      dup2\n        /* \"@chainlink/contracts/src/v0.8/vendor/@ensdomains/buffer/v0.1.0/Buffer.sol\":1251:1254  buf */\n      dup4\n        /* \"@chainlink/contracts/src/v0.8/vendor/@ensdomains/buffer/v0.1.0/Buffer.sol\":1251:1263  buf.capacity */\n      0x20\n      add\n        /* \"@chainlink/contracts/src/v0.8/vendor/@ensdomains/buffer/v0.1.0/Buffer.sol\":1251:1274  buf.capacity = capacity */\n      dup2\n      dup2\n      mstore\n      pop\n      pop\n        /* \"@chainlink/contracts/src/v0.8/vendor/@ensdomains/buffer/v0.1.0/Buffer.sol\":1324:1328  0x40 */\n      0x40\n        /* \"@chainlink/contracts/src/v0.8/vendor/@ensdomains/buffer/v0.1.0/Buffer.sol\":1318:1329  mload(0x40) */\n      mload\n        /* \"@chainlink/contracts/src/v0.8/vendor/@ensdomains/buffer/v0.1.0/Buffer.sol\":1354:1357  ptr */\n      dup1\n        /* \"@chainlink/contracts/src/v0.8/vendor/@ensdomains/buffer/v0.1.0/Buffer.sol\":1349:1352  buf */\n      dup5\n        /* \"@chainlink/contracts/src/v0.8/vendor/@ensdomains/buffer/v0.1.0/Buffer.sol\":1342:1358  mstore(buf, ptr) */\n      mstore\n        /* \"@chainlink/contracts/src/v0.8/vendor/@ensdomains/buffer/v0.1.0/Buffer.sol\":1383:1384  0 */\n      0x00\n        /* \"@chainlink/contracts/src/v0.8/vendor/@ensdomains/buffer/v0.1.0/Buffer.sol\":1378:1381  ptr */\n      dup2\n        /* \"@chainlink/contracts/src/v0.8/vendor/@ensdomains/buffer/v0.1.0/Buffer.sol\":1371:1385  mstore(ptr, 0) */\n      mstore\n        /* \"@chainlink/contracts/src/v0.8/vendor/@ensdomains/buffer/v0.1.0/Buffer.sol\":1426:1434  capacity */\n      dup3\n        /* \"@chainlink/contracts/src/v0.8/vendor/@ensdomains/buffer/v0.1.0/Buffer.sol\":1421:1424  ptr */\n      dup2\n        /* \"@chainlink/contracts/src/v0.8/vendor/@ensdomains/buffer/v0.1.0/Buffer.sol\":1417:1435  add(ptr, capacity) */\n      add\n        /* \"@chainlink/contracts/src/v0.8/vendor/@ensdomains/buffer/v0.1.0/Buffer.sol\":1413:1415  32 */\n      0x20\n        /* \"@chainlink/contracts/src/v0.8/vendor/@ensdomains/buffer/v0.1.0/Buffer.sol\":1409:1436  add(32, add(ptr, capacity)) */\n      add\n        /* \"@chainlink/contracts/src/v0.8/vendor/@ensdomains/buffer/v0.1.0/Buffer.sol\":1460:1463  ptr */\n      dup2\n        /* \"@chainlink/contracts/src/v0.8/vendor/@ensdomains/buffer/v0.1.0/Buffer.sol\":1455:1458  fpm */\n      dup2\n        /* \"@chainlink/contracts/src/v0.8/vendor/@ensdomains/buffer/v0.1.0/Buffer.sol\":1452:1464  lt(fpm, ptr) */\n      lt\n        /* \"@chainlink/contracts/src/v0.8/vendor/@ensdomains/buffer/v0.1.0/Buffer.sol\":1449:1509  if lt(fpm, ptr) {... */\n      iszero\n      tag_231\n      jumpi\n        /* \"@chainlink/contracts/src/v0.8/vendor/@ensdomains/buffer/v0.1.0/Buffer.sol\":1493:1494  0 */\n      0x00\n        /* \"@chainlink/contracts/src/v0.8/vendor/@ensdomains/buffer/v0.1.0/Buffer.sol\":1490:1491  0 */\n      dup1\n        /* \"@chainlink/contracts/src/v0.8/vendor/@ensdomains/buffer/v0.1.0/Buffer.sol\":1483:1495  revert(0, 0) */\n      revert\n        /* \"@chainlink/contracts/src/v0.8/vendor/@ensdomains/buffer/v0.1.0/Buffer.sol\":1449:1509  if lt(fpm, ptr) {... */\n    tag_231:\n        /* \"@chainlink/contracts/src/v0.8/vendor/@ensdomains/buffer/v0.1.0/Buffer.sol\":1535:1538  fpm */\n      dup1\n        /* \"@chainlink/contracts/src/v0.8/vendor/@ensdomains/buffer/v0.1.0/Buffer.sol\":1529:1533  0x40 */\n      0x40\n        /* \"@chainlink/contracts/src/v0.8/vendor/@ensdomains/buffer/v0.1.0/Buffer.sol\":1522:1539  mstore(0x40, fpm) */\n      mstore\n        /* \"@chainlink/contracts/src/v0.8/vendor/@ensdomains/buffer/v0.1.0/Buffer.sol\":1293:1549  {... */\n      pop\n      pop\n        /* \"@chainlink/contracts/src/v0.8/vendor/@ensdomains/buffer/v0.1.0/Buffer.sol\":1565:1568  buf */\n      dup3\n        /* \"@chainlink/contracts/src/v0.8/vendor/@ensdomains/buffer/v0.1.0/Buffer.sol\":1558:1568  return buf */\n      swap1\n      pop\n        /* \"@chainlink/contracts/src/v0.8/vendor/@ensdomains/buffer/v0.1.0/Buffer.sol\":1020:1575  function init(buffer memory buf, uint capacity) internal pure returns(buffer memory) {... */\n      swap3\n      swap2\n      pop\n      pop\n      jump\t// out\n        /* \"@chainlink/contracts/src/v0.8/vendor/solidity-cborutils/v2.0.0/CBOR.sol\":6156:6915  function writeFixedNumeric(... */\n    tag_201:\n        /* \"@chainlink/contracts/src/v0.8/vendor/solidity-cborutils/v2.0.0/CBOR.sol\":6299:6301  23 */\n      0x17\n        /* \"@chainlink/contracts/src/v0.8/vendor/solidity-cborutils/v2.0.0/CBOR.sol\":6290:6295  value */\n      dup2\n        /* \"@chainlink/contracts/src/v0.8/vendor/solidity-cborutils/v2.0.0/CBOR.sol\":6290:6301  value <= 23 */\n      0xffffffffffffffff\n      and\n      gt\n        /* \"@chainlink/contracts/src/v0.8/vendor/solidity-cborutils/v2.0.0/CBOR.sol\":6286:6909  if (value <= 23) {... */\n      tag_233\n      jumpi\n        /* \"@chainlink/contracts/src/v0.8/vendor/solidity-cborutils/v2.0.0/CBOR.sol\":6317:6365  buf.buf.appendUint8(uint8((major << 5) | value)) */\n      tag_234\n        /* \"@chainlink/contracts/src/v0.8/vendor/solidity-cborutils/v2.0.0/CBOR.sol\":6358:6363  value */\n      dup2\n        /* \"@chainlink/contracts/src/v0.8/vendor/solidity-cborutils/v2.0.0/CBOR.sol\":6353:6354  5 */\n      0x05\n        /* \"@chainlink/contracts/src/v0.8/vendor/solidity-cborutils/v2.0.0/CBOR.sol\":6344:6349  major */\n      dup5\n        /* \"@chainlink/contracts/src/v0.8/vendor/solidity-cborutils/v2.0.0/CBOR.sol\":6344:6354  major << 5 */\n      0xff\n      and\n      swap1\n      shl\n        /* \"@chainlink/contracts/src/v0.8/vendor/solidity-cborutils/v2.0.0/CBOR.sol\":6343:6363  (major << 5) | value */\n      0xff\n      and\n      or\n        /* \"@chainlink/contracts/src/v0.8/vendor/solidity-cborutils/v2.0.0/CBOR.sol\":6317:6320  buf */\n      dup5\n        /* \"@chainlink/contracts/src/v0.8/vendor/solidity-cborutils/v2.0.0/CBOR.sol\":6317:6324  buf.buf */\n      0x00\n      add\n      mload\n        /* \"@chainlink/contracts/src/v0.8/vendor/solidity-cborutils/v2.0.0/CBOR.sol\":6317:6336  buf.buf.appendUint8 */\n      tag_206\n      swap1\n        /* \"@chainlink/contracts/src/v0.8/vendor/solidity-cborutils/v2.0.0/CBOR.sol\":6317:6365  buf.buf.appendUint8(uint8((major << 5) | value)) */\n      swap2\n      swap1\n      0xffffffff\n      and\n      jump\t// in\n    tag_234:\n      pop\n        /* \"@chainlink/contracts/src/v0.8/vendor/solidity-cborutils/v2.0.0/CBOR.sol\":6286:6909  if (value <= 23) {... */\n      jump(tag_235)\n    tag_233:\n        /* \"@chainlink/contracts/src/v0.8/vendor/solidity-cborutils/v2.0.0/CBOR.sol\":6395:6399  0xFF */\n      0xff\n        /* \"@chainlink/contracts/src/v0.8/vendor/solidity-cborutils/v2.0.0/CBOR.sol\":6386:6391  value */\n      dup2\n        /* \"@chainlink/contracts/src/v0.8/vendor/solidity-cborutils/v2.0.0/CBOR.sol\":6386:6399  value <= 0xFF */\n      0xffffffffffffffff\n      and\n      gt\n        /* \"@chainlink/contracts/src/v0.8/vendor/solidity-cborutils/v2.0.0/CBOR.sol\":6382:6909  if (value <= 0xFF) {... */\n      tag_236\n      jumpi\n        /* \"@chainlink/contracts/src/v0.8/vendor/solidity-cborutils/v2.0.0/CBOR.sol\":6415:6460  buf.buf.appendUint8(uint8((major << 5) | 24)) */\n      tag_237\n        /* \"@chainlink/contracts/src/v0.8/vendor/solidity-cborutils/v2.0.0/CBOR.sol\":6456:6458  24 */\n      0x18\n        /* \"@chainlink/contracts/src/v0.8/vendor/solidity-cborutils/v2.0.0/CBOR.sol\":6451:6452  5 */\n      0x05\n        /* \"@chainlink/contracts/src/v0.8/vendor/solidity-cborutils/v2.0.0/CBOR.sol\":6442:6447  major */\n      dup5\n        /* \"@chainlink/contracts/src/v0.8/vendor/solidity-cborutils/v2.0.0/CBOR.sol\":6442:6452  major << 5 */\n      0xff\n      and\n      swap1\n      shl\n        /* \"@chainlink/contracts/src/v0.8/vendor/solidity-cborutils/v2.0.0/CBOR.sol\":6441:6458  (major << 5) | 24 */\n      or\n        /* \"@chainlink/contracts/src/v0.8/vendor/solidity-cborutils/v2.0.0/CBOR.sol\":6415:6418  buf */\n      dup5\n        /* \"@chainlink/contracts/src/v0.8/vendor/solidity-cborutils/v2.0.0/CBOR.sol\":6415:6422  buf.buf */\n      0x00\n      add\n      mload\n        /* \"@chainlink/contracts/src/v0.8/vendor/solidity-cborutils/v2.0.0/CBOR.sol\":6415:6434  buf.buf.appendUint8 */\n      tag_206\n      swap1\n        /* \"@chainlink/contracts/src/v0.8/vendor/solidity-cborutils/v2.0.0/CBOR.sol\":6415:6460  buf.buf.appendUint8(uint8((major << 5) | 24)) */\n      swap2\n      swap1\n      0xffffffff\n      and\n      jump\t// in\n    tag_237:\n      pop\n        /* \"@chainlink/contracts/src/v0.8/vendor/solidity-cborutils/v2.0.0/CBOR.sol\":6474:6501  buf.buf.appendInt(value, 1) */\n      tag_238\n        /* \"@chainlink/contracts/src/v0.8/vendor/solidity-cborutils/v2.0.0/CBOR.sol\":6492:6497  value */\n      dup2\n        /* \"@chainlink/contracts/src/v0.8/vendor/solidity-cborutils/v2.0.0/CBOR.sol\":6474:6501  buf.buf.appendInt(value, 1) */\n      0xffffffffffffffff\n      and\n        /* \"@chainlink/contracts/src/v0.8/vendor/solidity-cborutils/v2.0.0/CBOR.sol\":6499:6500  1 */\n      0x01\n        /* \"@chainlink/contracts/src/v0.8/vendor/solidity-cborutils/v2.0.0/CBOR.sol\":6474:6477  buf */\n      dup6\n        /* \"@chainlink/contracts/src/v0.8/vendor/solidity-cborutils/v2.0.0/CBOR.sol\":6474:6481  buf.buf */\n      0x00\n      add\n      mload\n        /* \"@chainlink/contracts/src/v0.8/vendor/solidity-cborutils/v2.0.0/CBOR.sol\":6474:6491  buf.buf.appendInt */\n      tag_239\n      swap1\n        /* \"@chainlink/contracts/src/v0.8/vendor/solidity-cborutils/v2.0.0/CBOR.sol\":6474:6501  buf.buf.appendInt(value, 1) */\n      swap3\n      swap2\n      swap1\n      0xffffffff\n      and\n      jump\t// in\n    tag_238:\n      pop\n        /* \"@chainlink/contracts/src/v0.8/vendor/solidity-cborutils/v2.0.0/CBOR.sol\":6382:6909  if (value <= 0xFF) {... */\n      jump(tag_240)\n    tag_236:\n        /* \"@chainlink/contracts/src/v0.8/vendor/solidity-cborutils/v2.0.0/CBOR.sol\":6531:6537  0xFFFF */\n      0xffff\n        /* \"@chainlink/contracts/src/v0.8/vendor/solidity-cborutils/v2.0.0/CBOR.sol\":6522:6527  value */\n      dup2\n        /* \"@chainlink/contracts/src/v0.8/vendor/solidity-cborutils/v2.0.0/CBOR.sol\":6522:6537  value <= 0xFFFF */\n      0xffffffffffffffff\n      and\n      gt\n        /* \"@chainlink/contracts/src/v0.8/vendor/solidity-cborutils/v2.0.0/CBOR.sol\":6518:6909  if (value <= 0xFFFF) {... */\n      tag_241\n      jumpi\n        /* \"@chainlink/contracts/src/v0.8/vendor/solidity-cborutils/v2.0.0/CBOR.sol\":6553:6598  buf.buf.appendUint8(uint8((major << 5) | 25)) */\n      tag_242\n        /* \"@chainlink/contracts/src/v0.8/vendor/solidity-cborutils/v2.0.0/CBOR.sol\":6594:6596  25 */\n      0x19\n        /* \"@chainlink/contracts/src/v0.8/vendor/solidity-cborutils/v2.0.0/CBOR.sol\":6589:6590  5 */\n      0x05\n        /* \"@chainlink/contracts/src/v0.8/vendor/solidity-cborutils/v2.0.0/CBOR.sol\":6580:6585  major */\n      dup5\n        /* \"@chainlink/contracts/src/v0.8/vendor/solidity-cborutils/v2.0.0/CBOR.sol\":6580:6590  major << 5 */\n      0xff\n      and\n      swap1\n      shl\n        /* \"@chainlink/contracts/src/v0.8/vendor/solidity-cborutils/v2.0.0/CBOR.sol\":6579:6596  (major << 5) | 25 */\n      or\n        /* \"@chainlink/contracts/src/v0.8/vendor/solidity-cborutils/v2.0.0/CBOR.sol\":6553:6556  buf */\n      dup5\n        /* \"@chainlink/contracts/src/v0.8/vendor/solidity-cborutils/v2.0.0/CBOR.sol\":6553:6560  buf.buf */\n      0x00\n      add\n      mload\n        /* \"@chainlink/contracts/src/v0.8/vendor/solidity-cborutils/v2.0.0/CBOR.sol\":6553:6572  buf.buf.appendUint8 */\n      tag_206\n      swap1\n        /* \"@chainlink/contracts/src/v0.8/vendor/solidity-cborutils/v2.0.0/CBOR.sol\":6553:6598  buf.buf.appendUint8(uint8((major << 5) | 25)) */\n      swap2\n      swap1\n      0xffffffff\n      and\n      jump\t// in\n    tag_242:\n      pop\n        /* \"@chainlink/contracts/src/v0.8/vendor/solidity-cborutils/v2.0.0/CBOR.sol\":6612:6639  buf.buf.appendInt(value, 2) */\n      tag_243\n        /* \"@chainlink/contracts/src/v0.8/vendor/solidity-cborutils/v2.0.0/CBOR.sol\":6630:6635  value */\n      dup2\n        /* \"@chainlink/contracts/src/v0.8/vendor/solidity-cborutils/v2.0.0/CBOR.sol\":6612:6639  buf.buf.appendInt(value, 2) */\n      0xffffffffffffffff\n      and\n        /* \"@chainlink/contracts/src/v0.8/vendor/solidity-cborutils/v2.0.0/CBOR.sol\":6637:6638  2 */\n      0x02\n        /* \"@chainlink/contracts/src/v0.8/vendor/solidity-cborutils/v2.0.0/CBOR.sol\":6612:6615  buf */\n      dup6\n        /* \"@chainlink/contracts/src/v0.8/vendor/solidity-cborutils/v2.0.0/CBOR.sol\":6612:6619  buf.buf */\n      0x00\n      add\n      mload\n        /* \"@chainlink/contracts/src/v0.8/vendor/solidity-cborutils/v2.0.0/CBOR.sol\":6612:6629  buf.buf.appendInt */\n      tag_239\n      swap1\n        /* \"@chainlink/contracts/src/v0.8/vendor/solidity-cborutils/v2.0.0/CBOR.sol\":6612:6639  buf.buf.appendInt(value, 2) */\n      swap3\n      swap2\n      swap1\n      0xffffffff\n      and\n      jump\t// in\n    tag_243:\n      pop\n        /* \"@chainlink/contracts/src/v0.8/vendor/solidity-cborutils/v2.0.0/CBOR.sol\":6518:6909  if (value <= 0xFFFF) {... */\n      jump(tag_244)\n    tag_241:\n        /* \"@chainlink/contracts/src/v0.8/vendor/solidity-cborutils/v2.0.0/CBOR.sol\":6669:6679  0xFFFFFFFF */\n      0xffffffff\n        /* \"@chainlink/contracts/src/v0.8/vendor/solidity-cborutils/v2.0.0/CBOR.sol\":6660:6665  value */\n      dup2\n        /* \"@chainlink/contracts/src/v0.8/vendor/solidity-cborutils/v2.0.0/CBOR.sol\":6660:6679  value <= 0xFFFFFFFF */\n      0xffffffffffffffff\n      and\n      gt\n        /* \"@chainlink/contracts/src/v0.8/vendor/solidity-cborutils/v2.0.0/CBOR.sol\":6656:6909  if (value <= 0xFFFFFFFF) {... */\n      tag_245\n      jumpi\n        /* \"@chainlink/contracts/src/v0.8/vendor/solidity-cborutils/v2.0.0/CBOR.sol\":6695:6740  buf.buf.appendUint8(uint8((major << 5) | 26)) */\n      tag_246\n        /* \"@chainlink/contracts/src/v0.8/vendor/solidity-cborutils/v2.0.0/CBOR.sol\":6736:6738  26 */\n      0x1a\n        /* \"@chainlink/contracts/src/v0.8/vendor/solidity-cborutils/v2.0.0/CBOR.sol\":6731:6732  5 */\n      0x05\n        /* \"@chainlink/contracts/src/v0.8/vendor/solidity-cborutils/v2.0.0/CBOR.sol\":6722:6727  major */\n      dup5\n        /* \"@chainlink/contracts/src/v0.8/vendor/solidity-cborutils/v2.0.0/CBOR.sol\":6722:6732  major << 5 */\n      0xff\n      and\n      swap1\n      shl\n        /* \"@chainlink/contracts/src/v0.8/vendor/solidity-cborutils/v2.0.0/CBOR.sol\":6721:6738  (major << 5) | 26 */\n      or\n        /* \"@chainlink/contracts/src/v0.8/vendor/solidity-cborutils/v2.0.0/CBOR.sol\":6695:6698  buf */\n      dup5\n        /* \"@chainlink/contracts/src/v0.8/vendor/solidity-cborutils/v2.0.0/CBOR.sol\":6695:6702  buf.buf */\n      0x00\n      add\n      mload\n        /* \"@chainlink/contracts/src/v0.8/vendor/solidity-cborutils/v2.0.0/CBOR.sol\":6695:6714  buf.buf.appendUint8 */\n      tag_206\n      swap1\n        /* \"@chainlink/contracts/src/v0.8/vendor/solidity-cborutils/v2.0.0/CBOR.sol\":6695:6740  buf.buf.appendUint8(uint8((major << 5) | 26)) */\n      swap2\n      swap1\n      0xffffffff\n      and\n      jump\t// in\n    tag_246:\n      pop\n        /* \"@chainlink/contracts/src/v0.8/vendor/solidity-cborutils/v2.0.0/CBOR.sol\":6754:6781  buf.buf.appendInt(value, 4) */\n      tag_247\n        /* \"@chainlink/contracts/src/v0.8/vendor/solidity-cborutils/v2.0.0/CBOR.sol\":6772:6777  value */\n      dup2\n        /* \"@chainlink/contracts/src/v0.8/vendor/solidity-cborutils/v2.0.0/CBOR.sol\":6754:6781  buf.buf.appendInt(value, 4) */\n      0xffffffffffffffff\n      and\n        /* \"@chainlink/contracts/src/v0.8/vendor/solidity-cborutils/v2.0.0/CBOR.sol\":6779:6780  4 */\n      0x04\n        /* \"@chainlink/contracts/src/v0.8/vendor/solidity-cborutils/v2.0.0/CBOR.sol\":6754:6757  buf */\n      dup6\n        /* \"@chainlink/contracts/src/v0.8/vendor/solidity-cborutils/v2.0.0/CBOR.sol\":6754:6761  buf.buf */\n      0x00\n      add\n      mload\n        /* \"@chainlink/contracts/src/v0.8/vendor/solidity-cborutils/v2.0.0/CBOR.sol\":6754:6771  buf.buf.appendInt */\n      tag_239\n      swap1\n        /* \"@chainlink/contracts/src/v0.8/vendor/solidity-cborutils/v2.0.0/CBOR.sol\":6754:6781  buf.buf.appendInt(value, 4) */\n      swap3\n      swap2\n      swap1\n      0xffffffff\n      and\n      jump\t// in\n    tag_247:\n      pop\n        /* \"@chainlink/contracts/src/v0.8/vendor/solidity-cborutils/v2.0.0/CBOR.sol\":6656:6909  if (value <= 0xFFFFFFFF) {... */\n      jump(tag_248)\n    tag_245:\n        /* \"@chainlink/contracts/src/v0.8/vendor/solidity-cborutils/v2.0.0/CBOR.sol\":6812:6857  buf.buf.appendUint8(uint8((major << 5) | 27)) */\n      tag_249\n        /* \"@chainlink/contracts/src/v0.8/vendor/solidity-cborutils/v2.0.0/CBOR.sol\":6853:6855  27 */\n      0x1b\n        /* \"@chainlink/contracts/src/v0.8/vendor/solidity-cborutils/v2.0.0/CBOR.sol\":6848:6849  5 */\n      0x05\n        /* \"@chainlink/contracts/src/v0.8/vendor/solidity-cborutils/v2.0.0/CBOR.sol\":6839:6844  major */\n      dup5\n        /* \"@chainlink/contracts/src/v0.8/vendor/solidity-cborutils/v2.0.0/CBOR.sol\":6839:6849  major << 5 */\n      0xff\n      and\n      swap1\n      shl\n        /* \"@chainlink/contracts/src/v0.8/vendor/solidity-cborutils/v2.0.0/CBOR.sol\":6838:6855  (major << 5) | 27 */\n      or\n        /* \"@chainlink/contracts/src/v0.8/vendor/solidity-cborutils/v2.0.0/CBOR.sol\":6812:6815  buf */\n      dup5\n        /* \"@chainlink/contracts/src/v0.8/vendor/solidity-cborutils/v2.0.0/CBOR.sol\":6812:6819  buf.buf */\n      0x00\n      add\n      mload\n        /* \"@chainlink/contracts/src/v0.8/vendor/solidity-cborutils/v2.0.0/CBOR.sol\":6812:6831  buf.buf.appendUint8 */\n      tag_206\n      swap1\n        /* \"@chainlink/contracts/src/v0.8/vendor/solidity-cborutils/v2.0.0/CBOR.sol\":6812:6857  buf.buf.appendUint8(uint8((major << 5) | 27)) */\n      swap2\n      swap1\n      0xffffffff\n      and\n      jump\t// in\n    tag_249:\n      pop\n        /* \"@chainlink/contracts/src/v0.8/vendor/solidity-cborutils/v2.0.0/CBOR.sol\":6871:6898  buf.buf.appendInt(value, 8) */\n      tag_250\n        /* \"@chainlink/contracts/src/v0.8/vendor/solidity-cborutils/v2.0.0/CBOR.sol\":6889:6894  value */\n      dup2\n        /* \"@chainlink/contracts/src/v0.8/vendor/solidity-cborutils/v2.0.0/CBOR.sol\":6871:6898  buf.buf.appendInt(value, 8) */\n      0xffffffffffffffff\n      and\n        /* \"@chainlink/contracts/src/v0.8/vendor/solidity-cborutils/v2.0.0/CBOR.sol\":6896:6897  8 */\n      0x08\n        /* \"@chainlink/contracts/src/v0.8/vendor/solidity-cborutils/v2.0.0/CBOR.sol\":6871:6874  buf */\n      dup6\n        /* \"@chainlink/contracts/src/v0.8/vendor/solidity-cborutils/v2.0.0/CBOR.sol\":6871:6878  buf.buf */\n      0x00\n      add\n      mload\n        /* \"@chainlink/contracts/src/v0.8/vendor/solidity-cborutils/v2.0.0/CBOR.sol\":6871:6888  buf.buf.appendInt */\n      tag_239\n      swap1\n        /* \"@chainlink/contracts/src/v0.8/vendor/solidity-cborutils/v2.0.0/CBOR.sol\":6871:6898  buf.buf.appendInt(value, 8) */\n      swap3\n      swap2\n      swap1\n      0xffffffff\n      and\n      jump\t// in\n    tag_250:\n      pop\n        /* \"@chainlink/contracts/src/v0.8/vendor/solidity-cborutils/v2.0.0/CBOR.sol\":6656:6909  if (value <= 0xFFFFFFFF) {... */\n    tag_248:\n        /* \"@chainlink/contracts/src/v0.8/vendor/solidity-cborutils/v2.0.0/CBOR.sol\":6518:6909  if (value <= 0xFFFF) {... */\n    tag_244:\n        /* \"@chainlink/contracts/src/v0.8/vendor/solidity-cborutils/v2.0.0/CBOR.sol\":6382:6909  if (value <= 0xFF) {... */\n    tag_240:\n        /* \"@chainlink/contracts/src/v0.8/vendor/solidity-cborutils/v2.0.0/CBOR.sol\":6286:6909  if (value <= 23) {... */\n    tag_235:\n        /* \"@chainlink/contracts/src/v0.8/vendor/solidity-cborutils/v2.0.0/CBOR.sol\":6156:6915  function writeFixedNumeric(... */\n      pop\n      pop\n      pop\n      jump\t// out\n        /* \"@chainlink/contracts/src/v0.8/vendor/@ensdomains/buffer/v0.1.0/Buffer.sol\":4539:4685  function append(buffer memory buf, bytes memory data) internal pure returns (buffer memory) {... */\n    tag_203:\n        /* \"@chainlink/contracts/src/v0.8/vendor/@ensdomains/buffer/v0.1.0/Buffer.sol\":4616:4629  buffer memory */\n      tag_251\n      tag_223\n      jump\t// in\n    tag_251:\n        /* \"@chainlink/contracts/src/v0.8/vendor/@ensdomains/buffer/v0.1.0/Buffer.sol\":4648:4678  append(buf, data, data.length) */\n      tag_253\n        /* \"@chainlink/contracts/src/v0.8/vendor/@ensdomains/buffer/v0.1.0/Buffer.sol\":4655:4658  buf */\n      dup4\n        /* \"@chainlink/contracts/src/v0.8/vendor/@ensdomains/buffer/v0.1.0/Buffer.sol\":4660:4664  data */\n      dup4\n        /* \"@chainlink/contracts/src/v0.8/vendor/@ensdomains/buffer/v0.1.0/Buffer.sol\":4666:4670  data */\n      dup5\n        /* \"@chainlink/contracts/src/v0.8/vendor/@ensdomains/buffer/v0.1.0/Buffer.sol\":4666:4677  data.length */\n      mload\n        /* \"@chainlink/contracts/src/v0.8/vendor/@ensdomains/buffer/v0.1.0/Buffer.sol\":4648:4654  append */\n      tag_254\n        /* \"@chainlink/contracts/src/v0.8/vendor/@ensdomains/buffer/v0.1.0/Buffer.sol\":4648:4678  append(buf, data, data.length) */\n      jump\t// in\n    tag_253:\n        /* \"@chainlink/contracts/src/v0.8/vendor/@ensdomains/buffer/v0.1.0/Buffer.sol\":4641:4678  return append(buf, data, data.length) */\n      swap1\n      pop\n        /* \"@chainlink/contracts/src/v0.8/vendor/@ensdomains/buffer/v0.1.0/Buffer.sol\":4539:4685  function append(buffer memory buf, bytes memory data) internal pure returns (buffer memory) {... */\n      swap3\n      swap2\n      pop\n      pop\n      jump\t// out\n        /* \"@chainlink/contracts/src/v0.8/vendor/@ensdomains/buffer/v0.1.0/Buffer.sol\":4948:5647  function appendUint8(buffer memory buf, uint8 data) internal pure returns(buffer memory) {... */\n    tag_206:\n        /* \"@chainlink/contracts/src/v0.8/vendor/@ensdomains/buffer/v0.1.0/Buffer.sol\":5022:5035  buffer memory */\n      tag_255\n      tag_223\n      jump\t// in\n    tag_255:\n        /* \"@chainlink/contracts/src/v0.8/vendor/@ensdomains/buffer/v0.1.0/Buffer.sol\":5047:5055  uint off */\n      0x00\n        /* \"@chainlink/contracts/src/v0.8/vendor/@ensdomains/buffer/v0.1.0/Buffer.sol\":5058:5061  buf */\n      dup4\n        /* \"@chainlink/contracts/src/v0.8/vendor/@ensdomains/buffer/v0.1.0/Buffer.sol\":5058:5065  buf.buf */\n      0x00\n      add\n      mload\n        /* \"@chainlink/contracts/src/v0.8/vendor/@ensdomains/buffer/v0.1.0/Buffer.sol\":5058:5072  buf.buf.length */\n      mload\n        /* \"@chainlink/contracts/src/v0.8/vendor/@ensdomains/buffer/v0.1.0/Buffer.sol\":5047:5072  uint off = buf.buf.length */\n      swap1\n      pop\n        /* \"@chainlink/contracts/src/v0.8/vendor/@ensdomains/buffer/v0.1.0/Buffer.sol\":5082:5097  uint offPlusOne */\n      0x00\n        /* \"@chainlink/contracts/src/v0.8/vendor/@ensdomains/buffer/v0.1.0/Buffer.sol\":5106:5107  1 */\n      0x01\n        /* \"@chainlink/contracts/src/v0.8/vendor/@ensdomains/buffer/v0.1.0/Buffer.sol\":5100:5103  off */\n      dup3\n        /* \"@chainlink/contracts/src/v0.8/vendor/@ensdomains/buffer/v0.1.0/Buffer.sol\":5100:5107  off + 1 */\n      tag_257\n      swap2\n      swap1\n      tag_214\n      jump\t// in\n    tag_257:\n        /* \"@chainlink/contracts/src/v0.8/vendor/@ensdomains/buffer/v0.1.0/Buffer.sol\":5082:5107  uint offPlusOne = off + 1 */\n      swap1\n      pop\n        /* \"@chainlink/contracts/src/v0.8/vendor/@ensdomains/buffer/v0.1.0/Buffer.sol\":5128:5131  buf */\n      dup5\n        /* \"@chainlink/contracts/src/v0.8/vendor/@ensdomains/buffer/v0.1.0/Buffer.sol\":5128:5140  buf.capacity */\n      0x20\n      add\n      mload\n        /* \"@chainlink/contracts/src/v0.8/vendor/@ensdomains/buffer/v0.1.0/Buffer.sol\":5121:5124  off */\n      dup3\n        /* \"@chainlink/contracts/src/v0.8/vendor/@ensdomains/buffer/v0.1.0/Buffer.sol\":5121:5140  off >= buf.capacity */\n      lt\n        /* \"@chainlink/contracts/src/v0.8/vendor/@ensdomains/buffer/v0.1.0/Buffer.sol\":5117:5194  if (off >= buf.capacity) {... */\n      tag_258\n      jumpi\n        /* \"@chainlink/contracts/src/v0.8/vendor/@ensdomains/buffer/v0.1.0/Buffer.sol\":5156:5183  resize(buf, offPlusOne * 2) */\n      tag_259\n        /* \"@chainlink/contracts/src/v0.8/vendor/@ensdomains/buffer/v0.1.0/Buffer.sol\":5163:5166  buf */\n      dup6\n        /* \"@chainlink/contracts/src/v0.8/vendor/@ensdomains/buffer/v0.1.0/Buffer.sol\":5181:5182  2 */\n      0x02\n        /* \"@chainlink/contracts/src/v0.8/vendor/@ensdomains/buffer/v0.1.0/Buffer.sol\":5168:5178  offPlusOne */\n      dup4\n        /* \"@chainlink/contracts/src/v0.8/vendor/@ensdomains/buffer/v0.1.0/Buffer.sol\":5168:5182  offPlusOne * 2 */\n      tag_260\n      swap2\n      swap1\n      tag_261\n      jump\t// in\n    tag_260:\n        /* \"@chainlink/contracts/src/v0.8/vendor/@ensdomains/buffer/v0.1.0/Buffer.sol\":5156:5162  resize */\n      tag_262\n        /* \"@chainlink/contracts/src/v0.8/vendor/@ensdomains/buffer/v0.1.0/Buffer.sol\":5156:5183  resize(buf, offPlusOne * 2) */\n      jump\t// in\n    tag_259:\n        /* \"@chainlink/contracts/src/v0.8/vendor/@ensdomains/buffer/v0.1.0/Buffer.sol\":5117:5194  if (off >= buf.capacity) {... */\n    tag_258:\n        /* \"@chainlink/contracts/src/v0.8/vendor/@ensdomains/buffer/v0.1.0/Buffer.sol\":5296:5299  buf */\n      dup5\n        /* \"@chainlink/contracts/src/v0.8/vendor/@ensdomains/buffer/v0.1.0/Buffer.sol\":5290:5300  mload(buf) */\n      mload\n        /* \"@chainlink/contracts/src/v0.8/vendor/@ensdomains/buffer/v0.1.0/Buffer.sol\":5417:5419  32 */\n      0x20\n        /* \"@chainlink/contracts/src/v0.8/vendor/@ensdomains/buffer/v0.1.0/Buffer.sol\":5411:5414  off */\n      dup4\n        /* \"@chainlink/contracts/src/v0.8/vendor/@ensdomains/buffer/v0.1.0/Buffer.sol\":5403:5409  bufptr */\n      dup3\n        /* \"@chainlink/contracts/src/v0.8/vendor/@ensdomains/buffer/v0.1.0/Buffer.sol\":5399:5415  add(bufptr, off) */\n      add\n        /* \"@chainlink/contracts/src/v0.8/vendor/@ensdomains/buffer/v0.1.0/Buffer.sol\":5395:5420  add(add(bufptr, off), 32) */\n      add\n        /* \"@chainlink/contracts/src/v0.8/vendor/@ensdomains/buffer/v0.1.0/Buffer.sol\":5447:5451  data */\n      dup6\n        /* \"@chainlink/contracts/src/v0.8/vendor/@ensdomains/buffer/v0.1.0/Buffer.sol\":5441:5445  dest */\n      dup2\n        /* \"@chainlink/contracts/src/v0.8/vendor/@ensdomains/buffer/v0.1.0/Buffer.sol\":5433:5452  mstore8(dest, data) */\n      mstore8\n        /* \"@chainlink/contracts/src/v0.8/vendor/@ensdomains/buffer/v0.1.0/Buffer.sol\":5543:5549  bufptr */\n      dup2\n        /* \"@chainlink/contracts/src/v0.8/vendor/@ensdomains/buffer/v0.1.0/Buffer.sol\":5537:5550  mload(bufptr) */\n      mload\n        /* \"@chainlink/contracts/src/v0.8/vendor/@ensdomains/buffer/v0.1.0/Buffer.sol\":5525:5535  offPlusOne */\n      dup4\n        /* \"@chainlink/contracts/src/v0.8/vendor/@ensdomains/buffer/v0.1.0/Buffer.sol\":5522:5551  gt(offPlusOne, mload(bufptr)) */\n      gt\n        /* \"@chainlink/contracts/src/v0.8/vendor/@ensdomains/buffer/v0.1.0/Buffer.sol\":5519:5610  if gt(offPlusOne, mload(bufptr)) {... */\n      iszero\n      tag_263\n      jumpi\n        /* \"@chainlink/contracts/src/v0.8/vendor/@ensdomains/buffer/v0.1.0/Buffer.sol\":5585:5595  offPlusOne */\n      dup3\n        /* \"@chainlink/contracts/src/v0.8/vendor/@ensdomains/buffer/v0.1.0/Buffer.sol\":5577:5583  bufptr */\n      dup3\n        /* \"@chainlink/contracts/src/v0.8/vendor/@ensdomains/buffer/v0.1.0/Buffer.sol\":5570:5596  mstore(bufptr, offPlusOne) */\n      mstore\n        /* \"@chainlink/contracts/src/v0.8/vendor/@ensdomains/buffer/v0.1.0/Buffer.sol\":5519:5610  if gt(offPlusOne, mload(bufptr)) {... */\n    tag_263:\n        /* \"@chainlink/contracts/src/v0.8/vendor/@ensdomains/buffer/v0.1.0/Buffer.sol\":5213:5620  {... */\n      pop\n      pop\n        /* \"@chainlink/contracts/src/v0.8/vendor/@ensdomains/buffer/v0.1.0/Buffer.sol\":5637:5640  buf */\n      dup5\n        /* \"@chainlink/contracts/src/v0.8/vendor/@ensdomains/buffer/v0.1.0/Buffer.sol\":5630:5640  return buf */\n      swap3\n      pop\n      pop\n      pop\n        /* \"@chainlink/contracts/src/v0.8/vendor/@ensdomains/buffer/v0.1.0/Buffer.sol\":4948:5647  function appendUint8(buffer memory buf, uint8 data) internal pure returns(buffer memory) {... */\n      swap3\n      swap2\n      pop\n      pop\n      jump\t// out\n        /* \"@chainlink/contracts/src/v0.8/vendor/solidity-cborutils/v2.0.0/CBOR.sol\":6921:7087  function writeIndefiniteLengthType(CBORBuffer memory buf, uint8 major)... */\n    tag_212:\n        /* \"@chainlink/contracts/src/v0.8/vendor/solidity-cborutils/v2.0.0/CBOR.sol\":7035:7080  buf.buf.appendUint8(uint8((major << 5) | 31)) */\n      tag_265\n        /* \"@chainlink/contracts/src/v0.8/vendor/solidity-cborutils/v2.0.0/CBOR.sol\":7076:7078  31 */\n      0x1f\n        /* \"@chainlink/contracts/src/v0.8/vendor/solidity-cborutils/v2.0.0/CBOR.sol\":7071:7072  5 */\n      0x05\n        /* \"@chainlink/contracts/src/v0.8/vendor/solidity-cborutils/v2.0.0/CBOR.sol\":7062:7067  major */\n      dup4\n        /* \"@chainlink/contracts/src/v0.8/vendor/solidity-cborutils/v2.0.0/CBOR.sol\":7062:7072  major << 5 */\n      0xff\n      and\n      swap1\n      shl\n        /* \"@chainlink/contracts/src/v0.8/vendor/solidity-cborutils/v2.0.0/CBOR.sol\":7061:7078  (major << 5) | 31 */\n      or\n        /* \"@chainlink/contracts/src/v0.8/vendor/solidity-cborutils/v2.0.0/CBOR.sol\":7035:7038  buf */\n      dup4\n        /* \"@chainlink/contracts/src/v0.8/vendor/solidity-cborutils/v2.0.0/CBOR.sol\":7035:7042  buf.buf */\n      0x00\n      add\n      mload\n        /* \"@chainlink/contracts/src/v0.8/vendor/solidity-cborutils/v2.0.0/CBOR.sol\":7035:7054  buf.buf.appendUint8 */\n      tag_206\n      swap1\n        /* \"@chainlink/contracts/src/v0.8/vendor/solidity-cborutils/v2.0.0/CBOR.sol\":7035:7080  buf.buf.appendUint8(uint8((major << 5) | 31)) */\n      swap2\n      swap1\n      0xffffffff\n      and\n      jump\t// in\n    tag_265:\n      pop\n        /* \"@chainlink/contracts/src/v0.8/vendor/solidity-cborutils/v2.0.0/CBOR.sol\":6921:7087  function writeIndefiniteLengthType(CBORBuffer memory buf, uint8 major)... */\n      pop\n      pop\n      jump\t// out\n        /* \"@chainlink/contracts/src/v0.8/vendor/@ensdomains/buffer/v0.1.0/Buffer.sol\":8083:8878  function appendInt(buffer memory buf, uint data, uint len) internal pure returns(buffer memory) {... */\n    tag_239:\n        /* \"@chainlink/contracts/src/v0.8/vendor/@ensdomains/buffer/v0.1.0/Buffer.sol\":8164:8177  buffer memory */\n      tag_266\n      tag_223\n      jump\t// in\n    tag_266:\n        /* \"@chainlink/contracts/src/v0.8/vendor/@ensdomains/buffer/v0.1.0/Buffer.sol\":8189:8197  uint off */\n      0x00\n        /* \"@chainlink/contracts/src/v0.8/vendor/@ensdomains/buffer/v0.1.0/Buffer.sol\":8200:8203  buf */\n      dup5\n        /* \"@chainlink/contracts/src/v0.8/vendor/@ensdomains/buffer/v0.1.0/Buffer.sol\":8200:8207  buf.buf */\n      0x00\n      add\n      mload\n        /* \"@chainlink/contracts/src/v0.8/vendor/@ensdomains/buffer/v0.1.0/Buffer.sol\":8200:8214  buf.buf.length */\n      mload\n        /* \"@chainlink/contracts/src/v0.8/vendor/@ensdomains/buffer/v0.1.0/Buffer.sol\":8189:8214  uint off = buf.buf.length */\n      swap1\n      pop\n        /* \"@chainlink/contracts/src/v0.8/vendor/@ensdomains/buffer/v0.1.0/Buffer.sol\":8224:8240  uint newCapacity */\n      0x00\n        /* \"@chainlink/contracts/src/v0.8/vendor/@ensdomains/buffer/v0.1.0/Buffer.sol\":8249:8252  off */\n      dup2\n        /* \"@chainlink/contracts/src/v0.8/vendor/@ensdomains/buffer/v0.1.0/Buffer.sol\":8243:8246  len */\n      dup5\n        /* \"@chainlink/contracts/src/v0.8/vendor/@ensdomains/buffer/v0.1.0/Buffer.sol\":8243:8252  len + off */\n      tag_268\n      swap2\n      swap1\n      tag_214\n      jump\t// in\n    tag_268:\n        /* \"@chainlink/contracts/src/v0.8/vendor/@ensdomains/buffer/v0.1.0/Buffer.sol\":8224:8252  uint newCapacity = len + off */\n      swap1\n      pop\n        /* \"@chainlink/contracts/src/v0.8/vendor/@ensdomains/buffer/v0.1.0/Buffer.sol\":8280:8283  buf */\n      dup6\n        /* \"@chainlink/contracts/src/v0.8/vendor/@ensdomains/buffer/v0.1.0/Buffer.sol\":8280:8292  buf.capacity */\n      0x20\n      add\n      mload\n        /* \"@chainlink/contracts/src/v0.8/vendor/@ensdomains/buffer/v0.1.0/Buffer.sol\":8266:8277  newCapacity */\n      dup2\n        /* \"@chainlink/contracts/src/v0.8/vendor/@ensdomains/buffer/v0.1.0/Buffer.sol\":8266:8292  newCapacity > buf.capacity */\n      gt\n        /* \"@chainlink/contracts/src/v0.8/vendor/@ensdomains/buffer/v0.1.0/Buffer.sol\":8262:8347  if (newCapacity > buf.capacity) {... */\n      iszero\n      tag_269\n      jumpi\n        /* \"@chainlink/contracts/src/v0.8/vendor/@ensdomains/buffer/v0.1.0/Buffer.sol\":8308:8336  resize(buf, newCapacity * 2) */\n      tag_270\n        /* \"@chainlink/contracts/src/v0.8/vendor/@ensdomains/buffer/v0.1.0/Buffer.sol\":8315:8318  buf */\n      dup7\n        /* \"@chainlink/contracts/src/v0.8/vendor/@ensdomains/buffer/v0.1.0/Buffer.sol\":8334:8335  2 */\n      0x02\n        /* \"@chainlink/contracts/src/v0.8/vendor/@ensdomains/buffer/v0.1.0/Buffer.sol\":8320:8331  newCapacity */\n      dup4\n        /* \"@chainlink/contracts/src/v0.8/vendor/@ensdomains/buffer/v0.1.0/Buffer.sol\":8320:8335  newCapacity * 2 */\n      tag_271\n      swap2\n      swap1\n      tag_261\n      jump\t// in\n    tag_271:\n        /* \"@chainlink/contracts/src/v0.8/vendor/@ensdomains/buffer/v0.1.0/Buffer.sol\":8308:8314  resize */\n      tag_262\n        /* \"@chainlink/contracts/src/v0.8/vendor/@ensdomains/buffer/v0.1.0/Buffer.sol\":8308:8336  resize(buf, newCapacity * 2) */\n      jump\t// in\n    tag_270:\n        /* \"@chainlink/contracts/src/v0.8/vendor/@ensdomains/buffer/v0.1.0/Buffer.sol\":8262:8347  if (newCapacity > buf.capacity) {... */\n    tag_269:\n        /* \"@chainlink/contracts/src/v0.8/vendor/@ensdomains/buffer/v0.1.0/Buffer.sol\":8357:8366  uint mask */\n      0x00\n        /* \"@chainlink/contracts/src/v0.8/vendor/@ensdomains/buffer/v0.1.0/Buffer.sol\":8384:8385  1 */\n      0x01\n        /* \"@chainlink/contracts/src/v0.8/vendor/@ensdomains/buffer/v0.1.0/Buffer.sol\":8377:8380  len */\n      dup6\n        /* \"@chainlink/contracts/src/v0.8/vendor/@ensdomains/buffer/v0.1.0/Buffer.sol\":8370:8373  256 */\n      0x0100\n        /* \"@chainlink/contracts/src/v0.8/vendor/@ensdomains/buffer/v0.1.0/Buffer.sol\":8370:8380  256 ** len */\n      tag_272\n      swap2\n      swap1\n      tag_273\n      jump\t// in\n    tag_272:\n        /* \"@chainlink/contracts/src/v0.8/vendor/@ensdomains/buffer/v0.1.0/Buffer.sol\":8369:8385  (256 ** len) - 1 */\n      tag_274\n      swap2\n      swap1\n      tag_218\n      jump\t// in\n    tag_274:\n        /* \"@chainlink/contracts/src/v0.8/vendor/@ensdomains/buffer/v0.1.0/Buffer.sol\":8357:8385  uint mask = (256 ** len) - 1 */\n      swap1\n      pop\n        /* \"@chainlink/contracts/src/v0.8/vendor/@ensdomains/buffer/v0.1.0/Buffer.sol\":8487:8490  buf */\n      dup7\n        /* \"@chainlink/contracts/src/v0.8/vendor/@ensdomains/buffer/v0.1.0/Buffer.sol\":8481:8491  mload(buf) */\n      mload\n        /* \"@chainlink/contracts/src/v0.8/vendor/@ensdomains/buffer/v0.1.0/Buffer.sol\":8606:8617  newCapacity */\n      dup3\n        /* \"@chainlink/contracts/src/v0.8/vendor/@ensdomains/buffer/v0.1.0/Buffer.sol\":8598:8604  bufptr */\n      dup2\n        /* \"@chainlink/contracts/src/v0.8/vendor/@ensdomains/buffer/v0.1.0/Buffer.sol\":8594:8618  add(bufptr, newCapacity) */\n      add\n        /* \"@chainlink/contracts/src/v0.8/vendor/@ensdomains/buffer/v0.1.0/Buffer.sol\":8676:8680  data */\n      dup8\n        /* \"@chainlink/contracts/src/v0.8/vendor/@ensdomains/buffer/v0.1.0/Buffer.sol\":8668:8672  mask */\n      dup4\n        /* \"@chainlink/contracts/src/v0.8/vendor/@ensdomains/buffer/v0.1.0/Buffer.sol\":8664:8673  not(mask) */\n      not\n        /* \"@chainlink/contracts/src/v0.8/vendor/@ensdomains/buffer/v0.1.0/Buffer.sol\":8657:8661  dest */\n      dup3\n        /* \"@chainlink/contracts/src/v0.8/vendor/@ensdomains/buffer/v0.1.0/Buffer.sol\":8651:8662  mload(dest) */\n      mload\n        /* \"@chainlink/contracts/src/v0.8/vendor/@ensdomains/buffer/v0.1.0/Buffer.sol\":8647:8674  and(mload(dest), not(mask)) */\n      and\n        /* \"@chainlink/contracts/src/v0.8/vendor/@ensdomains/buffer/v0.1.0/Buffer.sol\":8644:8681  or(and(mload(dest), not(mask)), data) */\n      or\n        /* \"@chainlink/contracts/src/v0.8/vendor/@ensdomains/buffer/v0.1.0/Buffer.sol\":8638:8642  dest */\n      dup2\n        /* \"@chainlink/contracts/src/v0.8/vendor/@ensdomains/buffer/v0.1.0/Buffer.sol\":8631:8682  mstore(dest, or(and(mload(dest), not(mask)), data)) */\n      mstore\n        /* \"@chainlink/contracts/src/v0.8/vendor/@ensdomains/buffer/v0.1.0/Buffer.sol\":8774:8780  bufptr */\n      dup2\n        /* \"@chainlink/contracts/src/v0.8/vendor/@ensdomains/buffer/v0.1.0/Buffer.sol\":8768:8781  mload(bufptr) */\n      mload\n        /* \"@chainlink/contracts/src/v0.8/vendor/@ensdomains/buffer/v0.1.0/Buffer.sol\":8755:8766  newCapacity */\n      dup5\n        /* \"@chainlink/contracts/src/v0.8/vendor/@ensdomains/buffer/v0.1.0/Buffer.sol\":8752:8782  gt(newCapacity, mload(bufptr)) */\n      gt\n        /* \"@chainlink/contracts/src/v0.8/vendor/@ensdomains/buffer/v0.1.0/Buffer.sol\":8749:8842  if gt(newCapacity, mload(bufptr)) {... */\n      iszero\n      tag_275\n      jumpi\n        /* \"@chainlink/contracts/src/v0.8/vendor/@ensdomains/buffer/v0.1.0/Buffer.sol\":8816:8827  newCapacity */\n      dup4\n        /* \"@chainlink/contracts/src/v0.8/vendor/@ensdomains/buffer/v0.1.0/Buffer.sol\":8808:8814  bufptr */\n      dup3\n        /* \"@chainlink/contracts/src/v0.8/vendor/@ensdomains/buffer/v0.1.0/Buffer.sol\":8801:8828  mstore(bufptr, newCapacity) */\n      mstore\n        /* \"@chainlink/contracts/src/v0.8/vendor/@ensdomains/buffer/v0.1.0/Buffer.sol\":8749:8842  if gt(newCapacity, mload(bufptr)) {... */\n    tag_275:\n        /* \"@chainlink/contracts/src/v0.8/vendor/@ensdomains/buffer/v0.1.0/Buffer.sol\":8404:8852  {... */\n      pop\n      pop\n        /* \"@chainlink/contracts/src/v0.8/vendor/@ensdomains/buffer/v0.1.0/Buffer.sol\":8868:8871  buf */\n      dup7\n        /* \"@chainlink/contracts/src/v0.8/vendor/@ensdomains/buffer/v0.1.0/Buffer.sol\":8861:8871  return buf */\n      swap4\n      pop\n      pop\n      pop\n      pop\n        /* \"@chainlink/contracts/src/v0.8/vendor/@ensdomains/buffer/v0.1.0/Buffer.sol\":8083:8878  function appendInt(buffer memory buf, uint data, uint len) internal pure returns(buffer memory) {... */\n      swap4\n      swap3\n      pop\n      pop\n      pop\n      jump\t// out\n        /* \"@chainlink/contracts/src/v0.8/vendor/@ensdomains/buffer/v0.1.0/Buffer.sol\":2844:4271  function append(buffer memory buf, bytes memory data, uint len) internal pure returns(buffer memory) {... */\n    tag_254:\n        /* \"@chainlink/contracts/src/v0.8/vendor/@ensdomains/buffer/v0.1.0/Buffer.sol\":2930:2943  buffer memory */\n      tag_276\n      tag_223\n      jump\t// in\n    tag_276:\n        /* \"@chainlink/contracts/src/v0.8/vendor/@ensdomains/buffer/v0.1.0/Buffer.sol\":2970:2974  data */\n      dup3\n        /* \"@chainlink/contracts/src/v0.8/vendor/@ensdomains/buffer/v0.1.0/Buffer.sol\":2970:2981  data.length */\n      mload\n        /* \"@chainlink/contracts/src/v0.8/vendor/@ensdomains/buffer/v0.1.0/Buffer.sol\":2963:2966  len */\n      dup3\n        /* \"@chainlink/contracts/src/v0.8/vendor/@ensdomains/buffer/v0.1.0/Buffer.sol\":2963:2981  len <= data.length */\n      gt\n      iszero\n        /* \"@chainlink/contracts/src/v0.8/vendor/@ensdomains/buffer/v0.1.0/Buffer.sol\":2955:2982  require(len <= data.length) */\n      tag_278\n      jumpi\n      0x00\n      dup1\n      revert\n    tag_278:\n        /* \"@chainlink/contracts/src/v0.8/vendor/@ensdomains/buffer/v0.1.0/Buffer.sol\":2993:3001  uint off */\n      0x00\n        /* \"@chainlink/contracts/src/v0.8/vendor/@ensdomains/buffer/v0.1.0/Buffer.sol\":3004:3007  buf */\n      dup5\n        /* \"@chainlink/contracts/src/v0.8/vendor/@ensdomains/buffer/v0.1.0/Buffer.sol\":3004:3011  buf.buf */\n      0x00\n      add\n      mload\n        /* \"@chainlink/contracts/src/v0.8/vendor/@ensdomains/buffer/v0.1.0/Buffer.sol\":3004:3018  buf.buf.length */\n      mload\n        /* \"@chainlink/contracts/src/v0.8/vendor/@ensdomains/buffer/v0.1.0/Buffer.sol\":2993:3018  uint off = buf.buf.length */\n      swap1\n      pop\n        /* \"@chainlink/contracts/src/v0.8/vendor/@ensdomains/buffer/v0.1.0/Buffer.sol\":3028:3044  uint newCapacity */\n      0x00\n        /* \"@chainlink/contracts/src/v0.8/vendor/@ensdomains/buffer/v0.1.0/Buffer.sol\":3053:3056  len */\n      dup4\n        /* \"@chainlink/contracts/src/v0.8/vendor/@ensdomains/buffer/v0.1.0/Buffer.sol\":3047:3050  off */\n      dup3\n        /* \"@chainlink/contracts/src/v0.8/vendor/@ensdomains/buffer/v0.1.0/Buffer.sol\":3047:3056  off + len */\n      tag_279\n      swap2\n      swap1\n      tag_214\n      jump\t// in\n    tag_279:\n        /* \"@chainlink/contracts/src/v0.8/vendor/@ensdomains/buffer/v0.1.0/Buffer.sol\":3028:3056  uint newCapacity = off + len */\n      swap1\n      pop\n        /* \"@chainlink/contracts/src/v0.8/vendor/@ensdomains/buffer/v0.1.0/Buffer.sol\":3084:3087  buf */\n      dup6\n        /* \"@chainlink/contracts/src/v0.8/vendor/@ensdomains/buffer/v0.1.0/Buffer.sol\":3084:3096  buf.capacity */\n      0x20\n      add\n      mload\n        /* \"@chainlink/contracts/src/v0.8/vendor/@ensdomains/buffer/v0.1.0/Buffer.sol\":3070:3081  newCapacity */\n      dup2\n        /* \"@chainlink/contracts/src/v0.8/vendor/@ensdomains/buffer/v0.1.0/Buffer.sol\":3070:3096  newCapacity > buf.capacity */\n      gt\n        /* \"@chainlink/contracts/src/v0.8/vendor/@ensdomains/buffer/v0.1.0/Buffer.sol\":3066:3151  if (newCapacity > buf.capacity) {... */\n      iszero\n      tag_280\n      jumpi\n        /* \"@chainlink/contracts/src/v0.8/vendor/@ensdomains/buffer/v0.1.0/Buffer.sol\":3112:3140  resize(buf, newCapacity * 2) */\n      tag_281\n        /* \"@chainlink/contracts/src/v0.8/vendor/@ensdomains/buffer/v0.1.0/Buffer.sol\":3119:3122  buf */\n      dup7\n        /* \"@chainlink/contracts/src/v0.8/vendor/@ensdomains/buffer/v0.1.0/Buffer.sol\":3138:3139  2 */\n      0x02\n        /* \"@chainlink/contracts/src/v0.8/vendor/@ensdomains/buffer/v0.1.0/Buffer.sol\":3124:3135  newCapacity */\n      dup4\n        /* \"@chainlink/contracts/src/v0.8/vendor/@ensdomains/buffer/v0.1.0/Buffer.sol\":3124:3139  newCapacity * 2 */\n      tag_282\n      swap2\n      swap1\n      tag_261\n      jump\t// in\n    tag_282:\n        /* \"@chainlink/contracts/src/v0.8/vendor/@ensdomains/buffer/v0.1.0/Buffer.sol\":3112:3118  resize */\n      tag_262\n        /* \"@chainlink/contracts/src/v0.8/vendor/@ensdomains/buffer/v0.1.0/Buffer.sol\":3112:3140  resize(buf, newCapacity * 2) */\n      jump\t// in\n    tag_281:\n        /* \"@chainlink/contracts/src/v0.8/vendor/@ensdomains/buffer/v0.1.0/Buffer.sol\":3066:3151  if (newCapacity > buf.capacity) {... */\n    tag_280:\n        /* \"@chainlink/contracts/src/v0.8/vendor/@ensdomains/buffer/v0.1.0/Buffer.sol\":3161:3170  uint dest */\n      0x00\n        /* \"@chainlink/contracts/src/v0.8/vendor/@ensdomains/buffer/v0.1.0/Buffer.sol\":3180:3188  uint src */\n      dup1\n        /* \"@chainlink/contracts/src/v0.8/vendor/@ensdomains/buffer/v0.1.0/Buffer.sol\":3290:3293  buf */\n      dup8\n        /* \"@chainlink/contracts/src/v0.8/vendor/@ensdomains/buffer/v0.1.0/Buffer.sol\":3284:3294  mload(buf) */\n      mload\n        /* \"@chainlink/contracts/src/v0.8/vendor/@ensdomains/buffer/v0.1.0/Buffer.sol\":3373:3379  bufptr */\n      dup1\n        /* \"@chainlink/contracts/src/v0.8/vendor/@ensdomains/buffer/v0.1.0/Buffer.sol\":3367:3380  mload(bufptr) */\n      mload\n        /* \"@chainlink/contracts/src/v0.8/vendor/@ensdomains/buffer/v0.1.0/Buffer.sol\":3501:3504  off */\n      dup6\n        /* \"@chainlink/contracts/src/v0.8/vendor/@ensdomains/buffer/v0.1.0/Buffer.sol\":3496:3498  32 */\n      0x20\n        /* \"@chainlink/contracts/src/v0.8/vendor/@ensdomains/buffer/v0.1.0/Buffer.sol\":3488:3494  bufptr */\n      dup4\n        /* \"@chainlink/contracts/src/v0.8/vendor/@ensdomains/buffer/v0.1.0/Buffer.sol\":3484:3499  add(bufptr, 32) */\n      add\n        /* \"@chainlink/contracts/src/v0.8/vendor/@ensdomains/buffer/v0.1.0/Buffer.sol\":3480:3505  add(add(bufptr, 32), off) */\n      add\n        /* \"@chainlink/contracts/src/v0.8/vendor/@ensdomains/buffer/v0.1.0/Buffer.sol\":3472:3505  dest := add(add(bufptr, 32), off) */\n      swap4\n      pop\n        /* \"@chainlink/contracts/src/v0.8/vendor/@ensdomains/buffer/v0.1.0/Buffer.sol\":3595:3601  buflen */\n      dup1\n        /* \"@chainlink/contracts/src/v0.8/vendor/@ensdomains/buffer/v0.1.0/Buffer.sol\":3582:3593  newCapacity */\n      dup6\n        /* \"@chainlink/contracts/src/v0.8/vendor/@ensdomains/buffer/v0.1.0/Buffer.sol\":3579:3602  gt(newCapacity, buflen) */\n      gt\n        /* \"@chainlink/contracts/src/v0.8/vendor/@ensdomains/buffer/v0.1.0/Buffer.sol\":3576:3662  if gt(newCapacity, buflen) {... */\n      iszero\n      tag_283\n      jumpi\n        /* \"@chainlink/contracts/src/v0.8/vendor/@ensdomains/buffer/v0.1.0/Buffer.sol\":3636:3647  newCapacity */\n      dup5\n        /* \"@chainlink/contracts/src/v0.8/vendor/@ensdomains/buffer/v0.1.0/Buffer.sol\":3628:3634  bufptr */\n      dup3\n        /* \"@chainlink/contracts/src/v0.8/vendor/@ensdomains/buffer/v0.1.0/Buffer.sol\":3621:3648  mstore(bufptr, newCapacity) */\n      mstore\n        /* \"@chainlink/contracts/src/v0.8/vendor/@ensdomains/buffer/v0.1.0/Buffer.sol\":3576:3662  if gt(newCapacity, buflen) {... */\n    tag_283:\n        /* \"@chainlink/contracts/src/v0.8/vendor/@ensdomains/buffer/v0.1.0/Buffer.sol\":3692:3694  32 */\n      0x20\n        /* \"@chainlink/contracts/src/v0.8/vendor/@ensdomains/buffer/v0.1.0/Buffer.sol\":3686:3690  data */\n      dup10\n        /* \"@chainlink/contracts/src/v0.8/vendor/@ensdomains/buffer/v0.1.0/Buffer.sol\":3682:3695  add(data, 32) */\n      add\n        /* \"@chainlink/contracts/src/v0.8/vendor/@ensdomains/buffer/v0.1.0/Buffer.sol\":3675:3695  src := add(data, 32) */\n      swap3\n      pop\n        /* \"@chainlink/contracts/src/v0.8/vendor/@ensdomains/buffer/v0.1.0/Buffer.sol\":3207:3705  {... */\n      pop\n      pop\n        /* \"@chainlink/contracts/src/v0.8/vendor/@ensdomains/buffer/v0.1.0/Buffer.sol\":3765:3930  for (; len >= 32; len -= 32) {... */\n    tag_284:\n        /* \"@chainlink/contracts/src/v0.8/vendor/@ensdomains/buffer/v0.1.0/Buffer.sol\":3779:3781  32 */\n      0x20\n        /* \"@chainlink/contracts/src/v0.8/vendor/@ensdomains/buffer/v0.1.0/Buffer.sol\":3772:3775  len */\n      dup7\n        /* \"@chainlink/contracts/src/v0.8/vendor/@ensdomains/buffer/v0.1.0/Buffer.sol\":3772:3781  len >= 32 */\n      lt\n        /* \"@chainlink/contracts/src/v0.8/vendor/@ensdomains/buffer/v0.1.0/Buffer.sol\":3765:3930  for (; len >= 32; len -= 32) {... */\n      tag_285\n      jumpi\n        /* \"@chainlink/contracts/src/v0.8/vendor/@ensdomains/buffer/v0.1.0/Buffer.sol\":3854:3857  src */\n      dup1\n        /* \"@chainlink/contracts/src/v0.8/vendor/@ensdomains/buffer/v0.1.0/Buffer.sol\":3848:3858  mload(src) */\n      mload\n        /* \"@chainlink/contracts/src/v0.8/vendor/@ensdomains/buffer/v0.1.0/Buffer.sol\":3842:3846  dest */\n      dup3\n        /* \"@chainlink/contracts/src/v0.8/vendor/@ensdomains/buffer/v0.1.0/Buffer.sol\":3835:3859  mstore(dest, mload(src)) */\n      mstore\n        /* \"@chainlink/contracts/src/v0.8/vendor/@ensdomains/buffer/v0.1.0/Buffer.sol\":3894:3896  32 */\n      0x20\n        /* \"@chainlink/contracts/src/v0.8/vendor/@ensdomains/buffer/v0.1.0/Buffer.sol\":3886:3896  dest += 32 */\n      dup3\n      tag_287\n      swap2\n      swap1\n      tag_214\n      jump\t// in\n    tag_287:\n      swap2\n      pop\n        /* \"@chainlink/contracts/src/v0.8/vendor/@ensdomains/buffer/v0.1.0/Buffer.sol\":3917:3919  32 */\n      0x20\n        /* \"@chainlink/contracts/src/v0.8/vendor/@ensdomains/buffer/v0.1.0/Buffer.sol\":3910:3919  src += 32 */\n      dup2\n      tag_288\n      swap2\n      swap1\n      tag_214\n      jump\t// in\n    tag_288:\n      swap1\n      pop\n        /* \"@chainlink/contracts/src/v0.8/vendor/@ensdomains/buffer/v0.1.0/Buffer.sol\":3790:3792  32 */\n      0x20\n        /* \"@chainlink/contracts/src/v0.8/vendor/@ensdomains/buffer/v0.1.0/Buffer.sol\":3783:3792  len -= 32 */\n      dup7\n      tag_289\n      swap2\n      swap1\n      tag_218\n      jump\t// in\n    tag_289:\n      swap6\n      pop\n        /* \"@chainlink/contracts/src/v0.8/vendor/@ensdomains/buffer/v0.1.0/Buffer.sol\":3765:3930  for (; len >= 32; len -= 32) {... */\n      jump(tag_284)\n    tag_285:\n        /* \"@chainlink/contracts/src/v0.8/vendor/@ensdomains/buffer/v0.1.0/Buffer.sol\":3996:4005  uint mask */\n      0x00\n        /* \"@chainlink/contracts/src/v0.8/vendor/@ensdomains/buffer/v0.1.0/Buffer.sol\":4030:4031  1 */\n      0x01\n        /* \"@chainlink/contracts/src/v0.8/vendor/@ensdomains/buffer/v0.1.0/Buffer.sol\":4022:4025  len */\n      dup8\n        /* \"@chainlink/contracts/src/v0.8/vendor/@ensdomains/buffer/v0.1.0/Buffer.sol\":4017:4019  32 */\n      0x20\n        /* \"@chainlink/contracts/src/v0.8/vendor/@ensdomains/buffer/v0.1.0/Buffer.sol\":4017:4025  32 - len */\n      sub\n        /* \"@chainlink/contracts/src/v0.8/vendor/@ensdomains/buffer/v0.1.0/Buffer.sol\":4009:4012  256 */\n      0x0100\n        /* \"@chainlink/contracts/src/v0.8/vendor/@ensdomains/buffer/v0.1.0/Buffer.sol\":4009:4026  256 ** (32 - len) */\n      exp\n        /* \"@chainlink/contracts/src/v0.8/vendor/@ensdomains/buffer/v0.1.0/Buffer.sol\":4008:4031  (256 ** (32 - len)) - 1 */\n      sub\n        /* \"@chainlink/contracts/src/v0.8/vendor/@ensdomains/buffer/v0.1.0/Buffer.sol\":3996:4031  uint mask = (256 ** (32 - len)) - 1 */\n      swap1\n      pop\n        /* \"@chainlink/contracts/src/v0.8/vendor/@ensdomains/buffer/v0.1.0/Buffer.sol\":4107:4111  mask */\n      dup1\n        /* \"@chainlink/contracts/src/v0.8/vendor/@ensdomains/buffer/v0.1.0/Buffer.sol\":4103:4112  not(mask) */\n      not\n        /* \"@chainlink/contracts/src/v0.8/vendor/@ensdomains/buffer/v0.1.0/Buffer.sol\":4097:4100  src */\n      dup3\n        /* \"@chainlink/contracts/src/v0.8/vendor/@ensdomains/buffer/v0.1.0/Buffer.sol\":4091:4101  mload(src) */\n      mload\n        /* \"@chainlink/contracts/src/v0.8/vendor/@ensdomains/buffer/v0.1.0/Buffer.sol\":4087:4113  and(mload(src), not(mask)) */\n      and\n        /* \"@chainlink/contracts/src/v0.8/vendor/@ensdomains/buffer/v0.1.0/Buffer.sol\":4163:4167  mask */\n      dup2\n        /* \"@chainlink/contracts/src/v0.8/vendor/@ensdomains/buffer/v0.1.0/Buffer.sol\":4156:4160  dest */\n      dup5\n        /* \"@chainlink/contracts/src/v0.8/vendor/@ensdomains/buffer/v0.1.0/Buffer.sol\":4150:4161  mload(dest) */\n      mload\n        /* \"@chainlink/contracts/src/v0.8/vendor/@ensdomains/buffer/v0.1.0/Buffer.sol\":4146:4168  and(mload(dest), mask) */\n      and\n        /* \"@chainlink/contracts/src/v0.8/vendor/@ensdomains/buffer/v0.1.0/Buffer.sol\":4211:4218  srcpart */\n      dup2\n        /* \"@chainlink/contracts/src/v0.8/vendor/@ensdomains/buffer/v0.1.0/Buffer.sol\":4201:4209  destpart */\n      dup2\n        /* \"@chainlink/contracts/src/v0.8/vendor/@ensdomains/buffer/v0.1.0/Buffer.sol\":4198:4219  or(destpart, srcpart) */\n      or\n        /* \"@chainlink/contracts/src/v0.8/vendor/@ensdomains/buffer/v0.1.0/Buffer.sol\":4192:4196  dest */\n      dup6\n        /* \"@chainlink/contracts/src/v0.8/vendor/@ensdomains/buffer/v0.1.0/Buffer.sol\":4185:4220  mstore(dest, or(destpart, srcpart)) */\n      mstore\n        /* \"@chainlink/contracts/src/v0.8/vendor/@ensdomains/buffer/v0.1.0/Buffer.sol\":4054:4234  {... */\n      pop\n      pop\n      pop\n        /* \"@chainlink/contracts/src/v0.8/vendor/@ensdomains/buffer/v0.1.0/Buffer.sol\":4261:4264  buf */\n      dup8\n        /* \"@chainlink/contracts/src/v0.8/vendor/@ensdomains/buffer/v0.1.0/Buffer.sol\":4254:4264  return buf */\n      swap5\n      pop\n      pop\n      pop\n      pop\n      pop\n        /* \"@chainlink/contracts/src/v0.8/vendor/@ensdomains/buffer/v0.1.0/Buffer.sol\":2844:4271  function append(buffer memory buf, bytes memory data, uint len) internal pure returns(buffer memory) {... */\n      swap4\n      swap3\n      pop\n      pop\n      pop\n      jump\t// out\n        /* \"@chainlink/contracts/src/v0.8/vendor/@ensdomains/buffer/v0.1.0/Buffer.sol\":2004:2171  function resize(buffer memory buf, uint capacity) private pure {... */\n    tag_262:\n        /* \"@chainlink/contracts/src/v0.8/vendor/@ensdomains/buffer/v0.1.0/Buffer.sol\":2077:2096  bytes memory oldbuf */\n      0x00\n        /* \"@chainlink/contracts/src/v0.8/vendor/@ensdomains/buffer/v0.1.0/Buffer.sol\":2099:2102  buf */\n      dup3\n        /* \"@chainlink/contracts/src/v0.8/vendor/@ensdomains/buffer/v0.1.0/Buffer.sol\":2099:2106  buf.buf */\n      0x00\n      add\n      mload\n        /* \"@chainlink/contracts/src/v0.8/vendor/@ensdomains/buffer/v0.1.0/Buffer.sol\":2077:2106  bytes memory oldbuf = buf.buf */\n      swap1\n      pop\n        /* \"@chainlink/contracts/src/v0.8/vendor/@ensdomains/buffer/v0.1.0/Buffer.sol\":2116:2135  init(buf, capacity) */\n      tag_291\n        /* \"@chainlink/contracts/src/v0.8/vendor/@ensdomains/buffer/v0.1.0/Buffer.sol\":2121:2124  buf */\n      dup4\n        /* \"@chainlink/contracts/src/v0.8/vendor/@ensdomains/buffer/v0.1.0/Buffer.sol\":2126:2134  capacity */\n      dup4\n        /* \"@chainlink/contracts/src/v0.8/vendor/@ensdomains/buffer/v0.1.0/Buffer.sol\":2116:2120  init */\n      tag_198\n        /* \"@chainlink/contracts/src/v0.8/vendor/@ensdomains/buffer/v0.1.0/Buffer.sol\":2116:2135  init(buf, capacity) */\n      jump\t// in\n    tag_291:\n      pop\n        /* \"@chainlink/contracts/src/v0.8/vendor/@ensdomains/buffer/v0.1.0/Buffer.sol\":2145:2164  append(buf, oldbuf) */\n      tag_292\n        /* \"@chainlink/contracts/src/v0.8/vendor/@ensdomains/buffer/v0.1.0/Buffer.sol\":2152:2155  buf */\n      dup4\n        /* \"@chainlink/contracts/src/v0.8/vendor/@ensdomains/buffer/v0.1.0/Buffer.sol\":2157:2163  oldbuf */\n      dup3\n        /* \"@chainlink/contracts/src/v0.8/vendor/@ensdomains/buffer/v0.1.0/Buffer.sol\":2145:2151  append */\n      tag_203\n        /* \"@chainlink/contracts/src/v0.8/vendor/@ensdomains/buffer/v0.1.0/Buffer.sol\":2145:2164  append(buf, oldbuf) */\n      jump\t// in\n    tag_292:\n      pop\n        /* \"@chainlink/contracts/src/v0.8/vendor/@ensdomains/buffer/v0.1.0/Buffer.sol\":2067:2171  {... */\n      pop\n        /* \"@chainlink/contracts/src/v0.8/vendor/@ensdomains/buffer/v0.1.0/Buffer.sol\":2004:2171  function resize(buffer memory buf, uint capacity) private pure {... */\n      pop\n      pop\n      jump\t// out\n    tag_64:\n      mload(0x40)\n      dup1\n      0xe0\n      add\n      0x40\n      mstore\n      dup1\n      0x00\n      0x02\n      dup2\n      gt\n      iszero\n      tag_293\n      jumpi\n      tag_294\n      tag_122\n      jump\t// in\n    tag_294:\n    tag_293:\n      dup2\n      mstore\n      0x20\n      add\n      0x00\n      0x02\n      dup2\n      gt\n      iszero\n      tag_295\n      jumpi\n      tag_296\n      tag_122\n      jump\t// in\n    tag_296:\n    tag_295:\n      dup2\n      mstore\n      0x20\n      add\n      0x00\n      dup1\n      dup2\n      gt\n      iszero\n      tag_297\n      jumpi\n      tag_298\n      tag_122\n      jump\t// in\n    tag_298:\n    tag_297:\n      dup2\n      mstore\n      0x20\n      add\n      0x60\n      dup2\n      mstore\n      0x20\n      add\n      0x60\n      dup2\n      mstore\n      0x20\n      add\n      0x60\n      dup2\n      mstore\n      0x20\n      add\n      0x60\n      dup2\n      mstore\n      pop\n      swap1\n      jump\t// out\n    tag_195:\n      mload(0x40)\n      dup1\n      0x40\n      add\n      0x40\n      mstore\n      dup1\n      tag_299\n      tag_223\n      jump\t// in\n    tag_299:\n      dup2\n      mstore\n      0x20\n      add\n      0x00\n      dup2\n      mstore\n      pop\n      swap1\n      jump\t// out\n    tag_223:\n      mload(0x40)\n      dup1\n      0x40\n      add\n      0x40\n      mstore\n      dup1\n      0x60\n      dup2\n      mstore\n      0x20\n      add\n      0x00\n      dup2\n      mstore\n      pop\n      swap1\n      jump\t// out\n        /* \"#utility.yul\":7:82   */\n    tag_300:\n        /* \"#utility.yul\":40:46   */\n      0x00\n        /* \"#utility.yul\":73:75   */\n      0x40\n        /* \"#utility.yul\":67:76   */\n      mload\n        /* \"#utility.yul\":57:76   */\n      swap1\n      pop\n        /* \"#utility.yul\":7:82   */\n      swap1\n      jump\t// out\n        /* \"#utility.yul\":88:205   */\n    tag_301:\n        /* \"#utility.yul\":197:198   */\n      0x00\n        /* \"#utility.yul\":194:195   */\n      dup1\n        /* \"#utility.yul\":187:199   */\n      revert\n        /* \"#utility.yul\":211:328   */\n    tag_302:\n        /* \"#utility.yul\":320:321   */\n      0x00\n        /* \"#utility.yul\":317:318   */\n      dup1\n        /* \"#utility.yul\":310:322   */\n      revert\n        /* \"#utility.yul\":334:411   */\n    tag_303:\n        /* \"#utility.yul\":371:378   */\n      0x00\n        /* \"#utility.yul\":400:405   */\n      dup2\n        /* \"#utility.yul\":389:405   */\n      swap1\n      pop\n        /* \"#utility.yul\":334:411   */\n      swap2\n      swap1\n      pop\n      jump\t// out\n        /* \"#utility.yul\":417:539   */\n    tag_304:\n        /* \"#utility.yul\":490:514   */\n      tag_379\n        /* \"#utility.yul\":508:513   */\n      dup2\n        /* \"#utility.yul\":490:514   */\n      tag_303\n      jump\t// in\n    tag_379:\n        /* \"#utility.yul\":483:488   */\n      dup2\n        /* \"#utility.yul\":480:515   */\n      eq\n        /* \"#utility.yul\":470:533   */\n      tag_380\n      jumpi\n        /* \"#utility.yul\":529:530   */\n      0x00\n        /* \"#utility.yul\":526:527   */\n      dup1\n        /* \"#utility.yul\":519:531   */\n      revert\n        /* \"#utility.yul\":470:533   */\n    tag_380:\n        /* \"#utility.yul\":417:539   */\n      pop\n      jump\t// out\n        /* \"#utility.yul\":545:684   */\n    tag_305:\n        /* \"#utility.yul\":591:596   */\n      0x00\n        /* \"#utility.yul\":629:635   */\n      dup2\n        /* \"#utility.yul\":616:636   */\n      calldataload\n        /* \"#utility.yul\":607:636   */\n      swap1\n      pop\n        /* \"#utility.yul\":645:678   */\n      tag_382\n        /* \"#utility.yul\":672:677   */\n      dup2\n        /* \"#utility.yul\":645:678   */\n      tag_304\n      jump\t// in\n    tag_382:\n        /* \"#utility.yul\":545:684   */\n      swap3\n      swap2\n      pop\n      pop\n      jump\t// out\n        /* \"#utility.yul\":690:807   */\n    tag_306:\n        /* \"#utility.yul\":799:800   */\n      0x00\n        /* \"#utility.yul\":796:797   */\n      dup1\n        /* \"#utility.yul\":789:801   */\n      revert\n        /* \"#utility.yul\":813:930   */\n    tag_307:\n        /* \"#utility.yul\":922:923   */\n      0x00\n        /* \"#utility.yul\":919:920   */\n      dup1\n        /* \"#utility.yul\":912:924   */\n      revert\n        /* \"#utility.yul\":936:1038   */\n    tag_308:\n        /* \"#utility.yul\":977:983   */\n      0x00\n        /* \"#utility.yul\":1028:1030   */\n      0x1f\n        /* \"#utility.yul\":1024:1031   */\n      not\n        /* \"#utility.yul\":1019:1021   */\n      0x1f\n        /* \"#utility.yul\":1012:1017   */\n      dup4\n        /* \"#utility.yul\":1008:1022   */\n      add\n        /* \"#utility.yul\":1004:1032   */\n      and\n        /* \"#utility.yul\":994:1032   */\n      swap1\n      pop\n        /* \"#utility.yul\":936:1038   */\n      swap2\n      swap1\n      pop\n      jump\t// out\n        /* \"#utility.yul\":1044:1224   */\n    tag_309:\n        /* \"#utility.yul\":1092:1169   */\n      0x4e487b7100000000000000000000000000000000000000000000000000000000\n        /* \"#utility.yul\":1089:1090   */\n      0x00\n        /* \"#utility.yul\":1082:1170   */\n      mstore\n        /* \"#utility.yul\":1189:1193   */\n      0x41\n        /* \"#utility.yul\":1186:1187   */\n      0x04\n        /* \"#utility.yul\":1179:1194   */\n      mstore\n        /* \"#utility.yul\":1213:1217   */\n      0x24\n        /* \"#utility.yul\":1210:1211   */\n      0x00\n        /* \"#utility.yul\":1203:1218   */\n      revert\n        /* \"#utility.yul\":1230:1511   */\n    tag_310:\n        /* \"#utility.yul\":1313:1340   */\n      tag_388\n        /* \"#utility.yul\":1335:1339   */\n      dup3\n        /* \"#utility.yul\":1313:1340   */\n      tag_308\n      jump\t// in\n    tag_388:\n        /* \"#utility.yul\":1305:1311   */\n      dup2\n        /* \"#utility.yul\":1301:1341   */\n      add\n        /* \"#utility.yul\":1443:1449   */\n      dup2\n        /* \"#utility.yul\":1431:1441   */\n      dup2\n        /* \"#utility.yul\":1428:1450   */\n      lt\n        /* \"#utility.yul\":1407:1425   */\n      0xffffffffffffffff\n        /* \"#utility.yul\":1395:1405   */\n      dup3\n        /* \"#utility.yul\":1392:1426   */\n      gt\n        /* \"#utility.yul\":1389:1451   */\n      or\n        /* \"#utility.yul\":1386:1474   */\n      iszero\n      tag_389\n      jumpi\n        /* \"#utility.yul\":1454:1472   */\n      tag_390\n      tag_309\n      jump\t// in\n    tag_390:\n        /* \"#utility.yul\":1386:1474   */\n    tag_389:\n        /* \"#utility.yul\":1494:1504   */\n      dup1\n        /* \"#utility.yul\":1490:1492   */\n      0x40\n        /* \"#utility.yul\":1483:1505   */\n      mstore\n        /* \"#utility.yul\":1273:1511   */\n      pop\n        /* \"#utility.yul\":1230:1511   */\n      pop\n      pop\n      jump\t// out\n        /* \"#utility.yul\":1517:1646   */\n    tag_311:\n        /* \"#utility.yul\":1551:1557   */\n      0x00\n        /* \"#utility.yul\":1578:1598   */\n      tag_392\n      tag_300\n      jump\t// in\n    tag_392:\n        /* \"#utility.yul\":1568:1598   */\n      swap1\n      pop\n        /* \"#utility.yul\":1607:1640   */\n      tag_393\n        /* \"#utility.yul\":1635:1639   */\n      dup3\n        /* \"#utility.yul\":1627:1633   */\n      dup3\n        /* \"#utility.yul\":1607:1640   */\n      tag_310\n      jump\t// in\n    tag_393:\n        /* \"#utility.yul\":1517:1646   */\n      swap2\n      swap1\n      pop\n      jump\t// out\n        /* \"#utility.yul\":1652:1959   */\n    tag_312:\n        /* \"#utility.yul\":1713:1717   */\n      0x00\n        /* \"#utility.yul\":1803:1821   */\n      0xffffffffffffffff\n        /* \"#utility.yul\":1795:1801   */\n      dup3\n        /* \"#utility.yul\":1792:1822   */\n      gt\n        /* \"#utility.yul\":1789:1845   */\n      iszero\n      tag_395\n      jumpi\n        /* \"#utility.yul\":1825:1843   */\n      tag_396\n      tag_309\n      jump\t// in\n    tag_396:\n        /* \"#utility.yul\":1789:1845   */\n    tag_395:\n        /* \"#utility.yul\":1863:1892   */\n      tag_397\n        /* \"#utility.yul\":1885:1891   */\n      dup3\n        /* \"#utility.yul\":1863:1892   */\n      tag_308\n      jump\t// in\n    tag_397:\n        /* \"#utility.yul\":1855:1892   */\n      swap1\n      pop\n        /* \"#utility.yul\":1947:1951   */\n      0x20\n        /* \"#utility.yul\":1941:1945   */\n      dup2\n        /* \"#utility.yul\":1937:1952   */\n      add\n        /* \"#utility.yul\":1929:1952   */\n      swap1\n      pop\n        /* \"#utility.yul\":1652:1959   */\n      swap2\n      swap1\n      pop\n      jump\t// out\n        /* \"#utility.yul\":1965:2111   */\n    tag_313:\n        /* \"#utility.yul\":2062:2068   */\n      dup3\n        /* \"#utility.yul\":2057:2060   */\n      dup2\n        /* \"#utility.yul\":2052:2055   */\n      dup4\n        /* \"#utility.yul\":2039:2069   */\n      calldatacopy\n        /* \"#utility.yul\":2103:2104   */\n      0x00\n        /* \"#utility.yul\":2094:2100   */\n      dup4\n        /* \"#utility.yul\":2089:2092   */\n      dup4\n        /* \"#utility.yul\":2085:2101   */\n      add\n        /* \"#utility.yul\":2078:2105   */\n      mstore\n        /* \"#utility.yul\":1965:2111   */\n      pop\n      pop\n      pop\n      jump\t// out\n        /* \"#utility.yul\":2117:2540   */\n    tag_314:\n        /* \"#utility.yul\":2194:2199   */\n      0x00\n        /* \"#utility.yul\":2219:2284   */\n      tag_400\n        /* \"#utility.yul\":2235:2283   */\n      tag_401\n        /* \"#utility.yul\":2276:2282   */\n      dup5\n        /* \"#utility.yul\":2235:2283   */\n      tag_312\n      jump\t// in\n    tag_401:\n        /* \"#utility.yul\":2219:2284   */\n      tag_311\n      jump\t// in\n    tag_400:\n        /* \"#utility.yul\":2210:2284   */\n      swap1\n      pop\n        /* \"#utility.yul\":2307:2313   */\n      dup3\n        /* \"#utility.yul\":2300:2305   */\n      dup2\n        /* \"#utility.yul\":2293:2314   */\n      mstore\n        /* \"#utility.yul\":2345:2349   */\n      0x20\n        /* \"#utility.yul\":2338:2343   */\n      dup2\n        /* \"#utility.yul\":2334:2350   */\n      add\n        /* \"#utility.yul\":2383:2386   */\n      dup5\n        /* \"#utility.yul\":2374:2380   */\n      dup5\n        /* \"#utility.yul\":2369:2372   */\n      dup5\n        /* \"#utility.yul\":2365:2381   */\n      add\n        /* \"#utility.yul\":2362:2387   */\n      gt\n        /* \"#utility.yul\":2359:2471   */\n      iszero\n      tag_402\n      jumpi\n        /* \"#utility.yul\":2390:2469   */\n      tag_403\n      tag_307\n      jump\t// in\n    tag_403:\n        /* \"#utility.yul\":2359:2471   */\n    tag_402:\n        /* \"#utility.yul\":2480:2534   */\n      tag_404\n        /* \"#utility.yul\":2527:2533   */\n      dup5\n        /* \"#utility.yul\":2522:2525   */\n      dup3\n        /* \"#utility.yul\":2517:2520   */\n      dup6\n        /* \"#utility.yul\":2480:2534   */\n      tag_313\n      jump\t// in\n    tag_404:\n        /* \"#utility.yul\":2200:2540   */\n      pop\n        /* \"#utility.yul\":2117:2540   */\n      swap4\n      swap3\n      pop\n      pop\n      pop\n      jump\t// out\n        /* \"#utility.yul\":2559:2897   */\n    tag_315:\n        /* \"#utility.yul\":2614:2619   */\n      0x00\n        /* \"#utility.yul\":2663:2666   */\n      dup3\n        /* \"#utility.yul\":2656:2660   */\n      0x1f\n        /* \"#utility.yul\":2648:2654   */\n      dup4\n        /* \"#utility.yul\":2644:2661   */\n      add\n        /* \"#utility.yul\":2640:2667   */\n      slt\n        /* \"#utility.yul\":2630:2752   */\n      tag_406\n      jumpi\n        /* \"#utility.yul\":2671:2750   */\n      tag_407\n      tag_306\n      jump\t// in\n    tag_407:\n        /* \"#utility.yul\":2630:2752   */\n    tag_406:\n        /* \"#utility.yul\":2788:2794   */\n      dup2\n        /* \"#utility.yul\":2775:2795   */\n      calldataload\n        /* \"#utility.yul\":2813:2891   */\n      tag_408\n        /* \"#utility.yul\":2887:2890   */\n      dup5\n        /* \"#utility.yul\":2879:2885   */\n      dup3\n        /* \"#utility.yul\":2872:2876   */\n      0x20\n        /* \"#utility.yul\":2864:2870   */\n      dup7\n        /* \"#utility.yul\":2860:2877   */\n      add\n        /* \"#utility.yul\":2813:2891   */\n      tag_314\n      jump\t// in\n    tag_408:\n        /* \"#utility.yul\":2804:2891   */\n      swap2\n      pop\n        /* \"#utility.yul\":2620:2897   */\n      pop\n        /* \"#utility.yul\":2559:2897   */\n      swap3\n      swap2\n      pop\n      pop\n      jump\t// out\n        /* \"#utility.yul\":2903:3878   */\n    tag_16:\n        /* \"#utility.yul\":2998:3004   */\n      0x00\n        /* \"#utility.yul\":3006:3012   */\n      dup1\n        /* \"#utility.yul\":3014:3020   */\n      0x00\n        /* \"#utility.yul\":3063:3065   */\n      0x60\n        /* \"#utility.yul\":3051:3060   */\n      dup5\n        /* \"#utility.yul\":3042:3049   */\n      dup7\n        /* \"#utility.yul\":3038:3061   */\n      sub\n        /* \"#utility.yul\":3034:3066   */\n      slt\n        /* \"#utility.yul\":3031:3150   */\n      iszero\n      tag_410\n      jumpi\n        /* \"#utility.yul\":3069:3148   */\n      tag_411\n      tag_301\n      jump\t// in\n    tag_411:\n        /* \"#utility.yul\":3031:3150   */\n    tag_410:\n        /* \"#utility.yul\":3189:3190   */\n      0x00\n        /* \"#utility.yul\":3214:3267   */\n      tag_412\n        /* \"#utility.yul\":3259:3266   */\n      dup7\n        /* \"#utility.yul\":3250:3256   */\n      dup3\n        /* \"#utility.yul\":3239:3248   */\n      dup8\n        /* \"#utility.yul\":3235:3257   */\n      add\n        /* \"#utility.yul\":3214:3267   */\n      tag_305\n      jump\t// in\n    tag_412:\n        /* \"#utility.yul\":3204:3267   */\n      swap4\n      pop\n        /* \"#utility.yul\":3160:3277   */\n      pop\n        /* \"#utility.yul\":3344:3346   */\n      0x20\n        /* \"#utility.yul\":3333:3342   */\n      dup5\n        /* \"#utility.yul\":3329:3347   */\n      add\n        /* \"#utility.yul\":3316:3348   */\n      calldataload\n        /* \"#utility.yul\":3375:3393   */\n      0xffffffffffffffff\n        /* \"#utility.yul\":3367:3373   */\n      dup2\n        /* \"#utility.yul\":3364:3394   */\n      gt\n        /* \"#utility.yul\":3361:3478   */\n      iszero\n      tag_413\n      jumpi\n        /* \"#utility.yul\":3397:3476   */\n      tag_414\n      tag_302\n      jump\t// in\n    tag_414:\n        /* \"#utility.yul\":3361:3478   */\n    tag_413:\n        /* \"#utility.yul\":3502:3564   */\n      tag_415\n        /* \"#utility.yul\":3556:3563   */\n      dup7\n        /* \"#utility.yul\":3547:3553   */\n      dup3\n        /* \"#utility.yul\":3536:3545   */\n      dup8\n        /* \"#utility.yul\":3532:3554   */\n      add\n        /* \"#utility.yul\":3502:3564   */\n      tag_315\n      jump\t// in\n    tag_415:\n        /* \"#utility.yul\":3492:3564   */\n      swap3\n      pop\n        /* \"#utility.yul\":3287:3574   */\n      pop\n        /* \"#utility.yul\":3641:3643   */\n      0x40\n        /* \"#utility.yul\":3630:3639   */\n      dup5\n        /* \"#utility.yul\":3626:3644   */\n      add\n        /* \"#utility.yul\":3613:3645   */\n      calldataload\n        /* \"#utility.yul\":3672:3690   */\n      0xffffffffffffffff\n        /* \"#utility.yul\":3664:3670   */\n      dup2\n        /* \"#utility.yul\":3661:3691   */\n      gt\n        /* \"#utility.yul\":3658:3775   */\n      iszero\n      tag_416\n      jumpi\n        /* \"#utility.yul\":3694:3773   */\n      tag_417\n      tag_302\n      jump\t// in\n    tag_417:\n        /* \"#utility.yul\":3658:3775   */\n    tag_416:\n        /* \"#utility.yul\":3799:3861   */\n      tag_418\n        /* \"#utility.yul\":3853:3860   */\n      dup7\n        /* \"#utility.yul\":3844:3850   */\n      dup3\n        /* \"#utility.yul\":3833:3842   */\n      dup8\n        /* \"#utility.yul\":3829:3851   */\n      add\n        /* \"#utility.yul\":3799:3861   */\n      tag_315\n      jump\t// in\n    tag_418:\n        /* \"#utility.yul\":3789:3861   */\n      swap2\n      pop\n        /* \"#utility.yul\":3584:3871   */\n      pop\n        /* \"#utility.yul\":2903:3878   */\n      swap3\n      pop\n      swap3\n      pop\n      swap3\n      jump\t// out\n        /* \"#utility.yul\":3884:3974   */\n    tag_316:\n        /* \"#utility.yul\":3918:3925   */\n      0x00\n        /* \"#utility.yul\":3961:3966   */\n      dup2\n        /* \"#utility.yul\":3954:3967   */\n      iszero\n        /* \"#utility.yul\":3947:3968   */\n      iszero\n        /* \"#utility.yul\":3936:3968   */\n      swap1\n      pop\n        /* \"#utility.yul\":3884:3974   */\n      swap2\n      swap1\n      pop\n      jump\t// out\n        /* \"#utility.yul\":3980:4089   */\n    tag_317:\n        /* \"#utility.yul\":4061:4082   */\n      tag_421\n        /* \"#utility.yul\":4076:4081   */\n      dup2\n        /* \"#utility.yul\":4061:4082   */\n      tag_316\n      jump\t// in\n    tag_421:\n        /* \"#utility.yul\":4056:4059   */\n      dup3\n        /* \"#utility.yul\":4049:4083   */\n      mstore\n        /* \"#utility.yul\":3980:4089   */\n      pop\n      pop\n      jump\t// out\n        /* \"#utility.yul\":4095:4305   */\n    tag_21:\n        /* \"#utility.yul\":4182:4186   */\n      0x00\n        /* \"#utility.yul\":4220:4222   */\n      0x20\n        /* \"#utility.yul\":4209:4218   */\n      dup3\n        /* \"#utility.yul\":4205:4223   */\n      add\n        /* \"#utility.yul\":4197:4223   */\n      swap1\n      pop\n        /* \"#utility.yul\":4233:4298   */\n      tag_423\n        /* \"#utility.yul\":4295:4296   */\n      0x00\n        /* \"#utility.yul\":4284:4293   */\n      dup4\n        /* \"#utility.yul\":4280:4297   */\n      add\n        /* \"#utility.yul\":4271:4277   */\n      dup5\n        /* \"#utility.yul\":4233:4298   */\n      tag_317\n      jump\t// in\n    tag_423:\n        /* \"#utility.yul\":4095:4305   */\n      swap3\n      swap2\n      pop\n      pop\n      jump\t// out\n        /* \"#utility.yul\":4311:4412   */\n    tag_318:\n        /* \"#utility.yul\":4347:4354   */\n      0x00\n        /* \"#utility.yul\":4387:4405   */\n      0xffffffffffffffff\n        /* \"#utility.yul\":4380:4385   */\n      dup3\n        /* \"#utility.yul\":4376:4406   */\n      and\n        /* \"#utility.yul\":4365:4406   */\n      swap1\n      pop\n        /* \"#utility.yul\":4311:4412   */\n      swap2\n      swap1\n      pop\n      jump\t// out\n        /* \"#utility.yul\":4418:4538   */\n    tag_319:\n        /* \"#utility.yul\":4490:4513   */\n      tag_426\n        /* \"#utility.yul\":4507:4512   */\n      dup2\n        /* \"#utility.yul\":4490:4513   */\n      tag_318\n      jump\t// in\n    tag_426:\n        /* \"#utility.yul\":4483:4488   */\n      dup2\n        /* \"#utility.yul\":4480:4514   */\n      eq\n        /* \"#utility.yul\":4470:4532   */\n      tag_427\n      jumpi\n        /* \"#utility.yul\":4528:4529   */\n      0x00\n        /* \"#utility.yul\":4525:4526   */\n      dup1\n        /* \"#utility.yul\":4518:4530   */\n      revert\n        /* \"#utility.yul\":4470:4532   */\n    tag_427:\n        /* \"#utility.yul\":4418:4538   */\n      pop\n      jump\t// out\n        /* \"#utility.yul\":4544:4681   */\n    tag_320:\n        /* \"#utility.yul\":4589:4594   */\n      0x00\n        /* \"#utility.yul\":4627:4633   */\n      dup2\n        /* \"#utility.yul\":4614:4634   */\n      calldataload\n        /* \"#utility.yul\":4605:4634   */\n      swap1\n      pop\n        /* \"#utility.yul\":4643:4675   */\n      tag_429\n        /* \"#utility.yul\":4669:4674   */\n      dup2\n        /* \"#utility.yul\":4643:4675   */\n      tag_319\n      jump\t// in\n    tag_429:\n        /* \"#utility.yul\":4544:4681   */\n      swap3\n      swap2\n      pop\n      pop\n      jump\t// out\n        /* \"#utility.yul\":4687:5014   */\n    tag_24:\n        /* \"#utility.yul\":4745:4751   */\n      0x00\n        /* \"#utility.yul\":4794:4796   */\n      0x20\n        /* \"#utility.yul\":4782:4791   */\n      dup3\n        /* \"#utility.yul\":4773:4780   */\n      dup5\n        /* \"#utility.yul\":4769:4792   */\n      sub\n        /* \"#utility.yul\":4765:4797   */\n      slt\n        /* \"#utility.yul\":4762:4881   */\n      iszero\n      tag_431\n      jumpi\n        /* \"#utility.yul\":4800:4879   */\n      tag_432\n      tag_301\n      jump\t// in\n    tag_432:\n        /* \"#utility.yul\":4762:4881   */\n    tag_431:\n        /* \"#utility.yul\":4920:4921   */\n      0x00\n        /* \"#utility.yul\":4945:4997   */\n      tag_433\n        /* \"#utility.yul\":4989:4996   */\n      dup5\n        /* \"#utility.yul\":4980:4986   */\n      dup3\n        /* \"#utility.yul\":4969:4978   */\n      dup6\n        /* \"#utility.yul\":4965:4987   */\n      add\n        /* \"#utility.yul\":4945:4997   */\n      tag_320\n      jump\t// in\n    tag_433:\n        /* \"#utility.yul\":4935:4997   */\n      swap2\n      pop\n        /* \"#utility.yul\":4891:5007   */\n      pop\n        /* \"#utility.yul\":4687:5014   */\n      swap3\n      swap2\n      pop\n      pop\n      jump\t// out\n        /* \"#utility.yul\":5020:5138   */\n    tag_321:\n        /* \"#utility.yul\":5107:5131   */\n      tag_435\n        /* \"#utility.yul\":5125:5130   */\n      dup2\n        /* \"#utility.yul\":5107:5131   */\n      tag_303\n      jump\t// in\n    tag_435:\n        /* \"#utility.yul\":5102:5105   */\n      dup3\n        /* \"#utility.yul\":5095:5132   */\n      mstore\n        /* \"#utility.yul\":5020:5138   */\n      pop\n      pop\n      jump\t// out\n        /* \"#utility.yul\":5144:5366   */\n    tag_27:\n        /* \"#utility.yul\":5237:5241   */\n      0x00\n        /* \"#utility.yul\":5275:5277   */\n      0x20\n        /* \"#utility.yul\":5264:5273   */\n      dup3\n        /* \"#utility.yul\":5260:5278   */\n      add\n        /* \"#utility.yul\":5252:5278   */\n      swap1\n      pop\n        /* \"#utility.yul\":5288:5359   */\n      tag_437\n        /* \"#utility.yul\":5356:5357   */\n      0x00\n        /* \"#utility.yul\":5345:5354   */\n      dup4\n        /* \"#utility.yul\":5341:5358   */\n      add\n        /* \"#utility.yul\":5332:5338   */\n      dup5\n        /* \"#utility.yul\":5288:5359   */\n      tag_321\n      jump\t// in\n    tag_437:\n        /* \"#utility.yul\":5144:5366   */\n      swap3\n      swap2\n      pop\n      pop\n      jump\t// out\n        /* \"#utility.yul\":5372:5470   */\n    tag_322:\n        /* \"#utility.yul\":5423:5429   */\n      0x00\n        /* \"#utility.yul\":5457:5462   */\n      dup2\n        /* \"#utility.yul\":5451:5463   */\n      mload\n        /* \"#utility.yul\":5441:5463   */\n      swap1\n      pop\n        /* \"#utility.yul\":5372:5470   */\n      swap2\n      swap1\n      pop\n      jump\t// out\n        /* \"#utility.yul\":5476:5644   */\n    tag_323:\n        /* \"#utility.yul\":5559:5570   */\n      0x00\n        /* \"#utility.yul\":5593:5599   */\n      dup3\n        /* \"#utility.yul\":5588:5591   */\n      dup3\n        /* \"#utility.yul\":5581:5600   */\n      mstore\n        /* \"#utility.yul\":5633:5637   */\n      0x20\n        /* \"#utility.yul\":5628:5631   */\n      dup3\n        /* \"#utility.yul\":5624:5638   */\n      add\n        /* \"#utility.yul\":5609:5638   */\n      swap1\n      pop\n        /* \"#utility.yul\":5476:5644   */\n      swap3\n      swap2\n      pop\n      pop\n      jump\t// out\n        /* \"#utility.yul\":5650:5896   */\n    tag_324:\n        /* \"#utility.yul\":5731:5732   */\n      0x00\n        /* \"#utility.yul\":5741:5854   */\n    tag_441:\n        /* \"#utility.yul\":5755:5761   */\n      dup4\n        /* \"#utility.yul\":5752:5753   */\n      dup2\n        /* \"#utility.yul\":5749:5762   */\n      lt\n        /* \"#utility.yul\":5741:5854   */\n      iszero\n      tag_443\n      jumpi\n        /* \"#utility.yul\":5840:5841   */\n      dup1\n        /* \"#utility.yul\":5835:5838   */\n      dup3\n        /* \"#utility.yul\":5831:5842   */\n      add\n        /* \"#utility.yul\":5825:5843   */\n      mload\n        /* \"#utility.yul\":5821:5822   */\n      dup2\n        /* \"#utility.yul\":5816:5819   */\n      dup5\n        /* \"#utility.yul\":5812:5823   */\n      add\n        /* \"#utility.yul\":5805:5844   */\n      mstore\n        /* \"#utility.yul\":5777:5779   */\n      0x20\n        /* \"#utility.yul\":5774:5775   */\n      dup2\n        /* \"#utility.yul\":5770:5780   */\n      add\n        /* \"#utility.yul\":5765:5780   */\n      swap1\n      pop\n        /* \"#utility.yul\":5741:5854   */\n      jump(tag_441)\n    tag_443:\n        /* \"#utility.yul\":5888:5889   */\n      0x00\n        /* \"#utility.yul\":5879:5885   */\n      dup5\n        /* \"#utility.yul\":5874:5877   */\n      dup5\n        /* \"#utility.yul\":5870:5886   */\n      add\n        /* \"#utility.yul\":5863:5890   */\n      mstore\n        /* \"#utility.yul\":5712:5896   */\n      pop\n        /* \"#utility.yul\":5650:5896   */\n      pop\n      pop\n      pop\n      jump\t// out\n        /* \"#utility.yul\":5902:6275   */\n    tag_325:\n        /* \"#utility.yul\":5988:5991   */\n      0x00\n        /* \"#utility.yul\":6016:6054   */\n      tag_445\n        /* \"#utility.yul\":6048:6053   */\n      dup3\n        /* \"#utility.yul\":6016:6054   */\n      tag_322\n      jump\t// in\n    tag_445:\n        /* \"#utility.yul\":6070:6140   */\n      tag_446\n        /* \"#utility.yul\":6133:6139   */\n      dup2\n        /* \"#utility.yul\":6128:6131   */\n      dup6\n        /* \"#utility.yul\":6070:6140   */\n      tag_323\n      jump\t// in\n    tag_446:\n        /* \"#utility.yul\":6063:6140   */\n      swap4\n      pop\n        /* \"#utility.yul\":6149:6214   */\n      tag_447\n        /* \"#utility.yul\":6207:6213   */\n      dup2\n        /* \"#utility.yul\":6202:6205   */\n      dup6\n        /* \"#utility.yul\":6195:6199   */\n      0x20\n        /* \"#utility.yul\":6188:6193   */\n      dup7\n        /* \"#utility.yul\":6184:6200   */\n      add\n        /* \"#utility.yul\":6149:6214   */\n      tag_324\n      jump\t// in\n    tag_447:\n        /* \"#utility.yul\":6239:6268   */\n      tag_448\n        /* \"#utility.yul\":6261:6267   */\n      dup2\n        /* \"#utility.yul\":6239:6268   */\n      tag_308\n      jump\t// in\n    tag_448:\n        /* \"#utility.yul\":6234:6237   */\n      dup5\n        /* \"#utility.yul\":6230:6269   */\n      add\n        /* \"#utility.yul\":6223:6269   */\n      swap2\n      pop\n        /* \"#utility.yul\":5992:6275   */\n      pop\n        /* \"#utility.yul\":5902:6275   */\n      swap3\n      swap2\n      pop\n      pop\n      jump\t// out\n        /* \"#utility.yul\":6281:6590   */\n    tag_31:\n        /* \"#utility.yul\":6392:6396   */\n      0x00\n        /* \"#utility.yul\":6430:6432   */\n      0x20\n        /* \"#utility.yul\":6419:6428   */\n      dup3\n        /* \"#utility.yul\":6415:6433   */\n      add\n        /* \"#utility.yul\":6407:6433   */\n      swap1\n      pop\n        /* \"#utility.yul\":6479:6488   */\n      dup2\n        /* \"#utility.yul\":6473:6477   */\n      dup2\n        /* \"#utility.yul\":6469:6489   */\n      sub\n        /* \"#utility.yul\":6465:6466   */\n      0x00\n        /* \"#utility.yul\":6454:6463   */\n      dup4\n        /* \"#utility.yul\":6450:6467   */\n      add\n        /* \"#utility.yul\":6443:6490   */\n      mstore\n        /* \"#utility.yul\":6507:6583   */\n      tag_450\n        /* \"#utility.yul\":6578:6582   */\n      dup2\n        /* \"#utility.yul\":6569:6575   */\n      dup5\n        /* \"#utility.yul\":6507:6583   */\n      tag_325\n      jump\t// in\n    tag_450:\n        /* \"#utility.yul\":6499:6583   */\n      swap1\n      pop\n        /* \"#utility.yul\":6281:6590   */\n      swap3\n      swap2\n      pop\n      pop\n      jump\t// out\n        /* \"#utility.yul\":6596:6695   */\n    tag_326:\n        /* \"#utility.yul\":6648:6654   */\n      0x00\n        /* \"#utility.yul\":6682:6687   */\n      dup2\n        /* \"#utility.yul\":6676:6688   */\n      mload\n        /* \"#utility.yul\":6666:6688   */\n      swap1\n      pop\n        /* \"#utility.yul\":6596:6695   */\n      swap2\n      swap1\n      pop\n      jump\t// out\n        /* \"#utility.yul\":6701:6870   */\n    tag_327:\n        /* \"#utility.yul\":6785:6796   */\n      0x00\n        /* \"#utility.yul\":6819:6825   */\n      dup3\n        /* \"#utility.yul\":6814:6817   */\n      dup3\n        /* \"#utility.yul\":6807:6826   */\n      mstore\n        /* \"#utility.yul\":6859:6863   */\n      0x20\n        /* \"#utility.yul\":6854:6857   */\n      dup3\n        /* \"#utility.yul\":6850:6864   */\n      add\n        /* \"#utility.yul\":6835:6864   */\n      swap1\n      pop\n        /* \"#utility.yul\":6701:6870   */\n      swap3\n      swap2\n      pop\n      pop\n      jump\t// out\n        /* \"#utility.yul\":6876:7253   */\n    tag_328:\n        /* \"#utility.yul\":6964:6967   */\n      0x00\n        /* \"#utility.yul\":6992:7031   */\n      tag_454\n        /* \"#utility.yul\":7025:7030   */\n      dup3\n        /* \"#utility.yul\":6992:7031   */\n      tag_326\n      jump\t// in\n    tag_454:\n        /* \"#utility.yul\":7047:7118   */\n      tag_455\n        /* \"#utility.yul\":7111:7117   */\n      dup2\n        /* \"#utility.yul\":7106:7109   */\n      dup6\n        /* \"#utility.yul\":7047:7118   */\n      tag_327\n      jump\t// in\n    tag_455:\n        /* \"#utility.yul\":7040:7118   */\n      swap4\n      pop\n        /* \"#utility.yul\":7127:7192   */\n      tag_456\n        /* \"#utility.yul\":7185:7191   */\n      dup2\n        /* \"#utility.yul\":7180:7183   */\n      dup6\n        /* \"#utility.yul\":7173:7177   */\n      0x20\n        /* \"#utility.yul\":7166:7171   */\n      dup7\n        /* \"#utility.yul\":7162:7178   */\n      add\n        /* \"#utility.yul\":7127:7192   */\n      tag_324\n      jump\t// in\n    tag_456:\n        /* \"#utility.yul\":7217:7246   */\n      tag_457\n        /* \"#utility.yul\":7239:7245   */\n      dup2\n        /* \"#utility.yul\":7217:7246   */\n      tag_308\n      jump\t// in\n    tag_457:\n        /* \"#utility.yul\":7212:7215   */\n      dup5\n        /* \"#utility.yul\":7208:7247   */\n      add\n        /* \"#utility.yul\":7201:7247   */\n      swap2\n      pop\n        /* \"#utility.yul\":6968:7253   */\n      pop\n        /* \"#utility.yul\":6876:7253   */\n      swap3\n      swap2\n      pop\n      pop\n      jump\t// out\n        /* \"#utility.yul\":7259:7572   */\n    tag_38:\n        /* \"#utility.yul\":7372:7376   */\n      0x00\n        /* \"#utility.yul\":7410:7412   */\n      0x20\n        /* \"#utility.yul\":7399:7408   */\n      dup3\n        /* \"#utility.yul\":7395:7413   */\n      add\n        /* \"#utility.yul\":7387:7413   */\n      swap1\n      pop\n        /* \"#utility.yul\":7459:7468   */\n      dup2\n        /* \"#utility.yul\":7453:7457   */\n      dup2\n        /* \"#utility.yul\":7449:7469   */\n      sub\n        /* \"#utility.yul\":7445:7446   */\n      0x00\n        /* \"#utility.yul\":7434:7443   */\n      dup4\n        /* \"#utility.yul\":7430:7447   */\n      add\n        /* \"#utility.yul\":7423:7470   */\n      mstore\n        /* \"#utility.yul\":7487:7565   */\n      tag_459\n        /* \"#utility.yul\":7560:7564   */\n      dup2\n        /* \"#utility.yul\":7551:7557   */\n      dup5\n        /* \"#utility.yul\":7487:7565   */\n      tag_328\n      jump\t// in\n    tag_459:\n        /* \"#utility.yul\":7479:7565   */\n      swap1\n      pop\n        /* \"#utility.yul\":7259:7572   */\n      swap3\n      swap2\n      pop\n      pop\n      jump\t// out\n        /* \"#utility.yul\":7578:7704   */\n    tag_329:\n        /* \"#utility.yul\":7615:7622   */\n      0x00\n        /* \"#utility.yul\":7655:7697   */\n      0xffffffffffffffffffffffffffffffffffffffff\n        /* \"#utility.yul\":7648:7653   */\n      dup3\n        /* \"#utility.yul\":7644:7698   */\n      and\n        /* \"#utility.yul\":7633:7698   */\n      swap1\n      pop\n        /* \"#utility.yul\":7578:7704   */\n      swap2\n      swap1\n      pop\n      jump\t// out\n        /* \"#utility.yul\":7710:7806   */\n    tag_330:\n        /* \"#utility.yul\":7747:7754   */\n      0x00\n        /* \"#utility.yul\":7776:7800   */\n      tag_462\n        /* \"#utility.yul\":7794:7799   */\n      dup3\n        /* \"#utility.yul\":7776:7800   */\n      tag_329\n      jump\t// in\n    tag_462:\n        /* \"#utility.yul\":7765:7800   */\n      swap1\n      pop\n        /* \"#utility.yul\":7710:7806   */\n      swap2\n      swap1\n      pop\n      jump\t// out\n        /* \"#utility.yul\":7812:7930   */\n    tag_331:\n        /* \"#utility.yul\":7899:7923   */\n      tag_464\n        /* \"#utility.yul\":7917:7922   */\n      dup2\n        /* \"#utility.yul\":7899:7923   */\n      tag_330\n      jump\t// in\n    tag_464:\n        /* \"#utility.yul\":7894:7897   */\n      dup3\n        /* \"#utility.yul\":7887:7924   */\n      mstore\n        /* \"#utility.yul\":7812:7930   */\n      pop\n      pop\n      jump\t// out\n        /* \"#utility.yul\":7936:8158   */\n    tag_44:\n        /* \"#utility.yul\":8029:8033   */\n      0x00\n        /* \"#utility.yul\":8067:8069   */\n      0x20\n        /* \"#utility.yul\":8056:8065   */\n      dup3\n        /* \"#utility.yul\":8052:8070   */\n      add\n        /* \"#utility.yul\":8044:8070   */\n      swap1\n      pop\n        /* \"#utility.yul\":8080:8151   */\n      tag_466\n        /* \"#utility.yul\":8148:8149   */\n      0x00\n        /* \"#utility.yul\":8137:8146   */\n      dup4\n        /* \"#utility.yul\":8133:8150   */\n      add\n        /* \"#utility.yul\":8124:8130   */\n      dup5\n        /* \"#utility.yul\":8080:8151   */\n      tag_331\n      jump\t// in\n    tag_466:\n        /* \"#utility.yul\":7936:8158   */\n      swap3\n      swap2\n      pop\n      pop\n      jump\t// out\n        /* \"#utility.yul\":8164:8286   */\n    tag_332:\n        /* \"#utility.yul\":8237:8261   */\n      tag_468\n        /* \"#utility.yul\":8255:8260   */\n      dup2\n        /* \"#utility.yul\":8237:8261   */\n      tag_330\n      jump\t// in\n    tag_468:\n        /* \"#utility.yul\":8230:8235   */\n      dup2\n        /* \"#utility.yul\":8227:8262   */\n      eq\n        /* \"#utility.yul\":8217:8280   */\n      tag_469\n      jumpi\n        /* \"#utility.yul\":8276:8277   */\n      0x00\n        /* \"#utility.yul\":8273:8274   */\n      dup1\n        /* \"#utility.yul\":8266:8278   */\n      revert\n        /* \"#utility.yul\":8217:8280   */\n    tag_469:\n        /* \"#utility.yul\":8164:8286   */\n      pop\n      jump\t// out\n        /* \"#utility.yul\":8292:8431   */\n    tag_333:\n        /* \"#utility.yul\":8338:8343   */\n      0x00\n        /* \"#utility.yul\":8376:8382   */\n      dup2\n        /* \"#utility.yul\":8363:8383   */\n      calldataload\n        /* \"#utility.yul\":8354:8383   */\n      swap1\n      pop\n        /* \"#utility.yul\":8392:8425   */\n      tag_471\n        /* \"#utility.yul\":8419:8424   */\n      dup2\n        /* \"#utility.yul\":8392:8425   */\n      tag_332\n      jump\t// in\n    tag_471:\n        /* \"#utility.yul\":8292:8431   */\n      swap3\n      swap2\n      pop\n      pop\n      jump\t// out\n        /* \"#utility.yul\":8437:8766   */\n    tag_50:\n        /* \"#utility.yul\":8496:8502   */\n      0x00\n        /* \"#utility.yul\":8545:8547   */\n      0x20\n        /* \"#utility.yul\":8533:8542   */\n      dup3\n        /* \"#utility.yul\":8524:8531   */\n      dup5\n        /* \"#utility.yul\":8520:8543   */\n      sub\n        /* \"#utility.yul\":8516:8548   */\n      slt\n        /* \"#utility.yul\":8513:8632   */\n      iszero\n      tag_473\n      jumpi\n        /* \"#utility.yul\":8551:8630   */\n      tag_474\n      tag_301\n      jump\t// in\n    tag_474:\n        /* \"#utility.yul\":8513:8632   */\n    tag_473:\n        /* \"#utility.yul\":8671:8672   */\n      0x00\n        /* \"#utility.yul\":8696:8749   */\n      tag_475\n        /* \"#utility.yul\":8741:8748   */\n      dup5\n        /* \"#utility.yul\":8732:8738   */\n      dup3\n        /* \"#utility.yul\":8721:8730   */\n      dup6\n        /* \"#utility.yul\":8717:8739   */\n      add\n        /* \"#utility.yul\":8696:8749   */\n      tag_333\n      jump\t// in\n    tag_475:\n        /* \"#utility.yul\":8686:8749   */\n      swap2\n      pop\n        /* \"#utility.yul\":8642:8759   */\n      pop\n        /* \"#utility.yul\":8437:8766   */\n      swap3\n      swap2\n      pop\n      pop\n      jump\t// out\n        /* \"#utility.yul\":8772:8952   */\n    tag_334:\n        /* \"#utility.yul\":8820:8897   */\n      0x4e487b7100000000000000000000000000000000000000000000000000000000\n        /* \"#utility.yul\":8817:8818   */\n      0x00\n        /* \"#utility.yul\":8810:8898   */\n      mstore\n        /* \"#utility.yul\":8917:8921   */\n      0x22\n        /* \"#utility.yul\":8914:8915   */\n      0x04\n        /* \"#utility.yul\":8907:8922   */\n      mstore\n        /* \"#utility.yul\":8941:8945   */\n      0x24\n        /* \"#utility.yul\":8938:8939   */\n      0x00\n        /* \"#utility.yul\":8931:8946   */\n      revert\n        /* \"#utility.yul\":8958:9278   */\n    tag_58:\n        /* \"#utility.yul\":9002:9008   */\n      0x00\n        /* \"#utility.yul\":9039:9040   */\n      0x02\n        /* \"#utility.yul\":9033:9037   */\n      dup3\n        /* \"#utility.yul\":9029:9041   */\n      div\n        /* \"#utility.yul\":9019:9041   */\n      swap1\n      pop\n        /* \"#utility.yul\":9086:9087   */\n      0x01\n        /* \"#utility.yul\":9080:9084   */\n      dup3\n        /* \"#utility.yul\":9076:9088   */\n      and\n        /* \"#utility.yul\":9107:9125   */\n      dup1\n        /* \"#utility.yul\":9097:9178   */\n      tag_478\n      jumpi\n        /* \"#utility.yul\":9163:9167   */\n      0x7f\n        /* \"#utility.yul\":9155:9161   */\n      dup3\n        /* \"#utility.yul\":9151:9168   */\n      and\n        /* \"#utility.yul\":9141:9168   */\n      swap2\n      pop\n        /* \"#utility.yul\":9097:9178   */\n    tag_478:\n        /* \"#utility.yul\":9225:9227   */\n      0x20\n        /* \"#utility.yul\":9217:9223   */\n      dup3\n        /* \"#utility.yul\":9214:9228   */\n      lt\n        /* \"#utility.yul\":9194:9212   */\n      dup2\n        /* \"#utility.yul\":9191:9229   */\n      sub\n        /* \"#utility.yul\":9188:9272   */\n      tag_479\n      jumpi\n        /* \"#utility.yul\":9244:9262   */\n      tag_480\n      tag_334\n      jump\t// in\n    tag_480:\n        /* \"#utility.yul\":9188:9272   */\n    tag_479:\n        /* \"#utility.yul\":9009:9278   */\n      pop\n        /* \"#utility.yul\":8958:9278   */\n      swap2\n      swap1\n      pop\n      jump\t// out\n        /* \"#utility.yul\":9284:9456   */\n    tag_335:\n        /* \"#utility.yul\":9424:9448   */\n      0x4d7573742062652070726f706f736564206f776e657200000000000000000000\n        /* \"#utility.yul\":9420:9421   */\n      0x00\n        /* \"#utility.yul\":9412:9418   */\n      dup3\n        /* \"#utility.yul\":9408:9422   */\n      add\n        /* \"#utility.yul\":9401:9449   */\n      mstore\n        /* \"#utility.yul\":9284:9456   */\n      pop\n      jump\t// out\n        /* \"#utility.yul\":9462:9828   */\n    tag_336:\n        /* \"#utility.yul\":9604:9607   */\n      0x00\n        /* \"#utility.yul\":9625:9692   */\n      tag_483\n        /* \"#utility.yul\":9689:9691   */\n      0x16\n        /* \"#utility.yul\":9684:9687   */\n      dup4\n        /* \"#utility.yul\":9625:9692   */\n      tag_327\n      jump\t// in\n    tag_483:\n        /* \"#utility.yul\":9618:9692   */\n      swap2\n      pop\n        /* \"#utility.yul\":9701:9794   */\n      tag_484\n        /* \"#utility.yul\":9790:9793   */\n      dup3\n        /* \"#utility.yul\":9701:9794   */\n      tag_335\n      jump\t// in\n    tag_484:\n        /* \"#utility.yul\":9819:9821   */\n      0x20\n        /* \"#utility.yul\":9814:9817   */\n      dup3\n        /* \"#utility.yul\":9810:9822   */\n      add\n        /* \"#utility.yul\":9803:9822   */\n      swap1\n      pop\n        /* \"#utility.yul\":9462:9828   */\n      swap2\n      swap1\n      pop\n      jump\t// out\n        /* \"#utility.yul\":9834:10253   */\n    tag_94:\n        /* \"#utility.yul\":10000:10004   */\n      0x00\n        /* \"#utility.yul\":10038:10040   */\n      0x20\n        /* \"#utility.yul\":10027:10036   */\n      dup3\n        /* \"#utility.yul\":10023:10041   */\n      add\n        /* \"#utility.yul\":10015:10041   */\n      swap1\n      pop\n        /* \"#utility.yul\":10087:10096   */\n      dup2\n        /* \"#utility.yul\":10081:10085   */\n      dup2\n        /* \"#utility.yul\":10077:10097   */\n      sub\n        /* \"#utility.yul\":10073:10074   */\n      0x00\n        /* \"#utility.yul\":10062:10071   */\n      dup4\n        /* \"#utility.yul\":10058:10075   */\n      add\n        /* \"#utility.yul\":10051:10098   */\n      mstore\n        /* \"#utility.yul\":10115:10246   */\n      tag_486\n        /* \"#utility.yul\":10241:10245   */\n      dup2\n        /* \"#utility.yul\":10115:10246   */\n      tag_336\n      jump\t// in\n    tag_486:\n        /* \"#utility.yul\":10107:10246   */\n      swap1\n      pop\n        /* \"#utility.yul\":9834:10253   */\n      swap2\n      swap1\n      pop\n      jump\t// out\n        /* \"#utility.yul\":10259:10399   */\n    tag_337:\n        /* \"#utility.yul\":10307:10311   */\n      0x00\n        /* \"#utility.yul\":10330:10333   */\n      dup2\n        /* \"#utility.yul\":10322:10333   */\n      swap1\n      pop\n        /* \"#utility.yul\":10353:10356   */\n      dup2\n        /* \"#utility.yul\":10350:10351   */\n      0x00\n        /* \"#utility.yul\":10343:10357   */\n      mstore\n        /* \"#utility.yul\":10387:10391   */\n      0x20\n        /* \"#utility.yul\":10384:10385   */\n      0x00\n        /* \"#utility.yul\":10374:10392   */\n      keccak256\n        /* \"#utility.yul\":10366:10392   */\n      swap1\n      pop\n        /* \"#utility.yul\":10259:10399   */\n      swap2\n      swap1\n      pop\n      jump\t// out\n        /* \"#utility.yul\":10405:10498   */\n    tag_338:\n        /* \"#utility.yul\":10442:10448   */\n      0x00\n        /* \"#utility.yul\":10489:10491   */\n      0x20\n        /* \"#utility.yul\":10484:10486   */\n      0x1f\n        /* \"#utility.yul\":10477:10482   */\n      dup4\n        /* \"#utility.yul\":10473:10487   */\n      add\n        /* \"#utility.yul\":10469:10492   */\n      div\n        /* \"#utility.yul\":10459:10492   */\n      swap1\n      pop\n        /* \"#utility.yul\":10405:10498   */\n      swap2\n      swap1\n      pop\n      jump\t// out\n        /* \"#utility.yul\":10504:10611   */\n    tag_339:\n        /* \"#utility.yul\":10548:10556   */\n      0x00\n        /* \"#utility.yul\":10598:10603   */\n      dup3\n        /* \"#utility.yul\":10592:10596   */\n      dup3\n        /* \"#utility.yul\":10588:10604   */\n      shl\n        /* \"#utility.yul\":10567:10604   */\n      swap1\n      pop\n        /* \"#utility.yul\":10504:10611   */\n      swap3\n      swap2\n      pop\n      pop\n      jump\t// out\n        /* \"#utility.yul\":10617:11010   */\n    tag_340:\n        /* \"#utility.yul\":10686:10692   */\n      0x00\n        /* \"#utility.yul\":10736:10737   */\n      0x08\n        /* \"#utility.yul\":10724:10734   */\n      dup4\n        /* \"#utility.yul\":10720:10738   */\n      mul\n        /* \"#utility.yul\":10759:10856   */\n      tag_491\n        /* \"#utility.yul\":10789:10855   */\n      0xffffffffffffffffffffffffffffffffffffffffffffffffffffffffffffffff\n        /* \"#utility.yul\":10778:10787   */\n      dup3\n        /* \"#utility.yul\":10759:10856   */\n      tag_339\n      jump\t// in\n    tag_491:\n        /* \"#utility.yul\":10877:10916   */\n      tag_492\n        /* \"#utility.yul\":10907:10915   */\n      dup7\n        /* \"#utility.yul\":10896:10905   */\n      dup4\n        /* \"#utility.yul\":10877:10916   */\n      tag_339\n      jump\t// in\n    tag_492:\n        /* \"#utility.yul\":10865:10916   */\n      swap6\n      pop\n        /* \"#utility.yul\":10949:10953   */\n      dup1\n        /* \"#utility.yul\":10945:10954   */\n      not\n        /* \"#utility.yul\":10938:10943   */\n      dup5\n        /* \"#utility.yul\":10934:10955   */\n      and\n        /* \"#utility.yul\":10925:10955   */\n      swap4\n      pop\n        /* \"#utility.yul\":10998:11002   */\n      dup1\n        /* \"#utility.yul\":10988:10996   */\n      dup7\n        /* \"#utility.yul\":10984:11003   */\n      and\n        /* \"#utility.yul\":10977:10982   */\n      dup5\n        /* \"#utility.yul\":10974:11004   */\n      or\n        /* \"#utility.yul\":10964:11004   */\n      swap3\n      pop\n        /* \"#utility.yul\":10693:11010   */\n      pop\n      pop\n        /* \"#utility.yul\":10617:11010   */\n      swap4\n      swap3\n      pop\n      pop\n      pop\n      jump\t// out\n        /* \"#utility.yul\":11016:11093   */\n    tag_341:\n        /* \"#utility.yul\":11053:11060   */\n      0x00\n        /* \"#utility.yul\":11082:11087   */\n      dup2\n        /* \"#utility.yul\":11071:11087   */\n      swap1\n      pop\n        /* \"#utility.yul\":11016:11093   */\n      swap2\n      swap1\n      pop\n      jump\t// out\n        /* \"#utility.yul\":11099:11159   */\n    tag_342:\n        /* \"#utility.yul\":11127:11130   */\n      0x00\n        /* \"#utility.yul\":11148:11153   */\n      dup2\n        /* \"#utility.yul\":11141:11153   */\n      swap1\n      pop\n        /* \"#utility.yul\":11099:11159   */\n      swap2\n      swap1\n      pop\n      jump\t// out\n        /* \"#utility.yul\":11165:11307   */\n    tag_343:\n        /* \"#utility.yul\":11215:11224   */\n      0x00\n        /* \"#utility.yul\":11248:11301   */\n      tag_496\n        /* \"#utility.yul\":11266:11300   */\n      tag_497\n        /* \"#utility.yul\":11275:11299   */\n      tag_498\n        /* \"#utility.yul\":11293:11298   */\n      dup5\n        /* \"#utility.yul\":11275:11299   */\n      tag_341\n      jump\t// in\n    tag_498:\n        /* \"#utility.yul\":11266:11300   */\n      tag_342\n      jump\t// in\n    tag_497:\n        /* \"#utility.yul\":11248:11301   */\n      tag_341\n      jump\t// in\n    tag_496:\n        /* \"#utility.yul\":11235:11301   */\n      swap1\n      pop\n        /* \"#utility.yul\":11165:11307   */\n      swap2\n      swap1\n      pop\n      jump\t// out\n        /* \"#utility.yul\":11313:11388   */\n    tag_344:\n        /* \"#utility.yul\":11356:11359   */\n      0x00\n        /* \"#utility.yul\":11377:11382   */\n      dup2\n        /* \"#utility.yul\":11370:11382   */\n      swap1\n      pop\n        /* \"#utility.yul\":11313:11388   */\n      swap2\n      swap1\n      pop\n      jump\t// out\n        /* \"#utility.yul\":11394:11663   */\n    tag_345:\n        /* \"#utility.yul\":11504:11543   */\n      tag_501\n        /* \"#utility.yul\":11535:11542   */\n      dup4\n        /* \"#utility.yul\":11504:11543   */\n      tag_343\n      jump\t// in\n    tag_501:\n        /* \"#utility.yul\":11565:11656   */\n      tag_502\n        /* \"#utility.yul\":11614:11655   */\n      tag_503\n        /* \"#utility.yul\":11638:11654   */\n      dup3\n        /* \"#utility.yul\":11614:11655   */\n      tag_344\n      jump\t// in\n    tag_503:\n        /* \"#utility.yul\":11606:11612   */\n      dup5\n        /* \"#utility.yul\":11599:11603   */\n      dup5\n        /* \"#utility.yul\":11593:11604   */\n      sload\n        /* \"#utility.yul\":11565:11656   */\n      tag_340\n      jump\t// in\n    tag_502:\n        /* \"#utility.yul\":11559:11563   */\n      dup3\n        /* \"#utility.yul\":11552:11657   */\n      sstore\n        /* \"#utility.yul\":11470:11663   */\n      pop\n        /* \"#utility.yul\":11394:11663   */\n      pop\n      pop\n      pop\n      jump\t// out\n        /* \"#utility.yul\":11669:11742   */\n    tag_346:\n        /* \"#utility.yul\":11714:11717   */\n      0x00\n        /* \"#utility.yul\":11669:11742   */\n      swap1\n      jump\t// out\n        /* \"#utility.yul\":11748:11937   */\n    tag_347:\n        /* \"#utility.yul\":11825:11857   */\n      tag_506\n      tag_346\n      jump\t// in\n    tag_506:\n        /* \"#utility.yul\":11866:11931   */\n      tag_507\n        /* \"#utility.yul\":11924:11930   */\n      dup2\n        /* \"#utility.yul\":11916:11922   */\n      dup5\n        /* \"#utility.yul\":11910:11914   */\n      dup5\n        /* \"#utility.yul\":11866:11931   */\n      tag_345\n      jump\t// in\n    tag_507:\n        /* \"#utility.yul\":11801:11937   */\n      pop\n        /* \"#utility.yul\":11748:11937   */\n      pop\n      pop\n      jump\t// out\n        /* \"#utility.yul\":11943:12129   */\n    tag_348:\n        /* \"#utility.yul\":12003:12123   */\n    tag_509:\n        /* \"#utility.yul\":12020:12023   */\n      dup2\n        /* \"#utility.yul\":12013:12018   */\n      dup2\n        /* \"#utility.yul\":12010:12024   */\n      lt\n        /* \"#utility.yul\":12003:12123   */\n      iszero\n      tag_511\n      jumpi\n        /* \"#utility.yul\":12074:12113   */\n      tag_512\n        /* \"#utility.yul\":12111:12112   */\n      0x00\n        /* \"#utility.yul\":12104:12109   */\n      dup3\n        /* \"#utility.yul\":12074:12113   */\n      tag_347\n      jump\t// in\n    tag_512:\n        /* \"#utility.yul\":12047:12048   */\n      0x01\n        /* \"#utility.yul\":12040:12045   */\n      dup2\n        /* \"#utility.yul\":12036:12049   */\n      add\n        /* \"#utility.yul\":12027:12049   */\n      swap1\n      pop\n        /* \"#utility.yul\":12003:12123   */\n      jump(tag_509)\n    tag_511:\n        /* \"#utility.yul\":11943:12129   */\n      pop\n      pop\n      jump\t// out\n        /* \"#utility.yul\":12135:12676   */\n    tag_349:\n        /* \"#utility.yul\":12235:12237   */\n      0x1f\n        /* \"#utility.yul\":12230:12233   */\n      dup3\n        /* \"#utility.yul\":12227:12238   */\n      gt\n        /* \"#utility.yul\":12224:12669   */\n      iszero\n      tag_514\n      jumpi\n        /* \"#utility.yul\":12269:12306   */\n      tag_515\n        /* \"#utility.yul\":12300:12305   */\n      dup2\n        /* \"#utility.yul\":12269:12306   */\n      tag_337\n      jump\t// in\n    tag_515:\n        /* \"#utility.yul\":12352:12381   */\n      tag_516\n        /* \"#utility.yul\":12370:12380   */\n      dup5\n        /* \"#utility.yul\":12352:12381   */\n      tag_338\n      jump\t// in\n    tag_516:\n        /* \"#utility.yul\":12342:12350   */\n      dup2\n        /* \"#utility.yul\":12338:12382   */\n      add\n        /* \"#utility.yul\":12535:12537   */\n      0x20\n        /* \"#utility.yul\":12523:12533   */\n      dup6\n        /* \"#utility.yul\":12520:12538   */\n      lt\n        /* \"#utility.yul\":12517:12566   */\n      iszero\n      tag_517\n      jumpi\n        /* \"#utility.yul\":12556:12564   */\n      dup2\n        /* \"#utility.yul\":12541:12564   */\n      swap1\n      pop\n        /* \"#utility.yul\":12517:12566   */\n    tag_517:\n        /* \"#utility.yul\":12579:12659   */\n      tag_518\n        /* \"#utility.yul\":12635:12657   */\n      tag_519\n        /* \"#utility.yul\":12653:12656   */\n      dup6\n        /* \"#utility.yul\":12635:12657   */\n      tag_338\n      jump\t// in\n    tag_519:\n        /* \"#utility.yul\":12625:12633   */\n      dup4\n        /* \"#utility.yul\":12621:12658   */\n      add\n        /* \"#utility.yul\":12608:12619   */\n      dup3\n        /* \"#utility.yul\":12579:12659   */\n      tag_348\n      jump\t// in\n    tag_518:\n        /* \"#utility.yul\":12239:12669   */\n      pop\n      pop\n        /* \"#utility.yul\":12224:12669   */\n    tag_514:\n        /* \"#utility.yul\":12135:12676   */\n      pop\n      pop\n      pop\n      jump\t// out\n        /* \"#utility.yul\":12682:12799   */\n    tag_350:\n        /* \"#utility.yul\":12736:12744   */\n      0x00\n        /* \"#utility.yul\":12786:12791   */\n      dup3\n        /* \"#utility.yul\":12780:12784   */\n      dup3\n        /* \"#utility.yul\":12776:12792   */\n      shr\n        /* \"#utility.yul\":12755:12792   */\n      swap1\n      pop\n        /* \"#utility.yul\":12682:12799   */\n      swap3\n      swap2\n      pop\n      pop\n      jump\t// out\n        /* \"#utility.yul\":12805:12974   */\n    tag_351:\n        /* \"#utility.yul\":12849:12855   */\n      0x00\n        /* \"#utility.yul\":12882:12933   */\n      tag_522\n        /* \"#utility.yul\":12930:12931   */\n      0x00\n        /* \"#utility.yul\":12926:12932   */\n      not\n        /* \"#utility.yul\":12918:12923   */\n      dup5\n        /* \"#utility.yul\":12915:12916   */\n      0x08\n        /* \"#utility.yul\":12911:12924   */\n      mul\n        /* \"#utility.yul\":12882:12933   */\n      tag_350\n      jump\t// in\n    tag_522:\n        /* \"#utility.yul\":12878:12934   */\n      not\n        /* \"#utility.yul\":12963:12967   */\n      dup1\n        /* \"#utility.yul\":12957:12961   */\n      dup4\n        /* \"#utility.yul\":12953:12968   */\n      and\n        /* \"#utility.yul\":12943:12968   */\n      swap2\n      pop\n        /* \"#utility.yul\":12856:12974   */\n      pop\n        /* \"#utility.yul\":12805:12974   */\n      swap3\n      swap2\n      pop\n      pop\n      jump\t// out\n        /* \"#utility.yul\":12979:13274   */\n    tag_352:\n        /* \"#utility.yul\":13055:13059   */\n      0x00\n        /* \"#utility.yul\":13201:13230   */\n      tag_524\n        /* \"#utility.yul\":13226:13229   */\n      dup4\n        /* \"#utility.yul\":13220:13224   */\n      dup4\n        /* \"#utility.yul\":13201:13230   */\n      tag_351\n      jump\t// in\n    tag_524:\n        /* \"#utility.yul\":13193:13230   */\n      swap2\n      pop\n        /* \"#utility.yul\":13263:13266   */\n      dup3\n        /* \"#utility.yul\":13260:13261   */\n      0x02\n        /* \"#utility.yul\":13256:13267   */\n      mul\n        /* \"#utility.yul\":13250:13254   */\n      dup3\n        /* \"#utility.yul\":13247:13268   */\n      or\n        /* \"#utility.yul\":13239:13268   */\n      swap1\n      pop\n        /* \"#utility.yul\":12979:13274   */\n      swap3\n      swap2\n      pop\n      pop\n      jump\t// out\n        /* \"#utility.yul\":13279:14669   */\n    tag_105:\n        /* \"#utility.yul\":13394:13430   */\n      tag_526\n        /* \"#utility.yul\":13426:13429   */\n      dup3\n        /* \"#utility.yul\":13394:13430   */\n      tag_322\n      jump\t// in\n    tag_526:\n        /* \"#utility.yul\":13495:13513   */\n      0xffffffffffffffff\n        /* \"#utility.yul\":13487:13493   */\n      dup2\n        /* \"#utility.yul\":13484:13514   */\n      gt\n        /* \"#utility.yul\":13481:13537   */\n      iszero\n      tag_527\n      jumpi\n        /* \"#utility.yul\":13517:13535   */\n      tag_528\n      tag_309\n      jump\t// in\n    tag_528:\n        /* \"#utility.yul\":13481:13537   */\n    tag_527:\n        /* \"#utility.yul\":13561:13599   */\n      tag_529\n        /* \"#utility.yul\":13593:13597   */\n      dup3\n        /* \"#utility.yul\":13587:13598   */\n      sload\n        /* \"#utility.yul\":13561:13599   */\n      tag_58\n      jump\t// in\n    tag_529:\n        /* \"#utility.yul\":13646:13712   */\n      tag_530\n        /* \"#utility.yul\":13705:13711   */\n      dup3\n        /* \"#utility.yul\":13697:13703   */\n      dup3\n        /* \"#utility.yul\":13691:13695   */\n      dup6\n        /* \"#utility.yul\":13646:13712   */\n      tag_349\n      jump\t// in\n    tag_530:\n        /* \"#utility.yul\":13739:13740   */\n      0x00\n        /* \"#utility.yul\":13763:13767   */\n      0x20\n        /* \"#utility.yul\":13750:13767   */\n      swap1\n      pop\n        /* \"#utility.yul\":13795:13797   */\n      0x1f\n        /* \"#utility.yul\":13787:13793   */\n      dup4\n        /* \"#utility.yul\":13784:13798   */\n      gt\n        /* \"#utility.yul\":13812:13813   */\n      0x01\n        /* \"#utility.yul\":13807:14424   */\n      dup2\n      eq\n      tag_532\n      jumpi\n        /* \"#utility.yul\":14468:14469   */\n      0x00\n        /* \"#utility.yul\":14485:14491   */\n      dup5\n        /* \"#utility.yul\":14482:14559   */\n      iszero\n      tag_533\n      jumpi\n        /* \"#utility.yul\":14534:14543   */\n      dup3\n        /* \"#utility.yul\":14529:14532   */\n      dup8\n        /* \"#utility.yul\":14525:14544   */\n      add\n        /* \"#utility.yul\":14519:14545   */\n      mload\n        /* \"#utility.yul\":14510:14545   */\n      swap1\n      pop\n        /* \"#utility.yul\":14482:14559   */\n    tag_533:\n        /* \"#utility.yul\":14585:14652   */\n      tag_534\n        /* \"#utility.yul\":14645:14651   */\n      dup6\n        /* \"#utility.yul\":14638:14643   */\n      dup3\n        /* \"#utility.yul\":14585:14652   */\n      tag_352\n      jump\t// in\n    tag_534:\n        /* \"#utility.yul\":14579:14583   */\n      dup7\n        /* \"#utility.yul\":14572:14653   */\n      sstore\n        /* \"#utility.yul\":14441:14663   */\n      pop\n        /* \"#utility.yul\":13777:14663   */\n      jump(tag_531)\n        /* \"#utility.yul\":13807:14424   */\n    tag_532:\n        /* \"#utility.yul\":13859:13863   */\n      0x1f\n        /* \"#utility.yul\":13855:13864   */\n      not\n        /* \"#utility.yul\":13847:13853   */\n      dup5\n        /* \"#utility.yul\":13843:13865   */\n      and\n        /* \"#utility.yul\":13893:13929   */\n      tag_535\n        /* \"#utility.yul\":13924:13928   */\n      dup7\n        /* \"#utility.yul\":13893:13929   */\n      tag_337\n      jump\t// in\n    tag_535:\n        /* \"#utility.yul\":13951:13952   */\n      0x00\n        /* \"#utility.yul\":13965:14173   */\n    tag_536:\n        /* \"#utility.yul\":13979:13986   */\n      dup3\n        /* \"#utility.yul\":13976:13977   */\n      dup2\n        /* \"#utility.yul\":13973:13987   */\n      lt\n        /* \"#utility.yul\":13965:14173   */\n      iszero\n      tag_538\n      jumpi\n        /* \"#utility.yul\":14058:14067   */\n      dup5\n        /* \"#utility.yul\":14053:14056   */\n      dup10\n        /* \"#utility.yul\":14049:14068   */\n      add\n        /* \"#utility.yul\":14043:14069   */\n      mload\n        /* \"#utility.yul\":14035:14041   */\n      dup3\n        /* \"#utility.yul\":14028:14070   */\n      sstore\n        /* \"#utility.yul\":14109:14110   */\n      0x01\n        /* \"#utility.yul\":14101:14107   */\n      dup3\n        /* \"#utility.yul\":14097:14111   */\n      add\n        /* \"#utility.yul\":14087:14111   */\n      swap2\n      pop\n        /* \"#utility.yul\":14156:14158   */\n      0x20\n        /* \"#utility.yul\":14145:14154   */\n      dup6\n        /* \"#utility.yul\":14141:14159   */\n      add\n        /* \"#utility.yul\":14128:14159   */\n      swap5\n      pop\n        /* \"#utility.yul\":14002:14006   */\n      0x20\n        /* \"#utility.yul\":13999:14000   */\n      dup2\n        /* \"#utility.yul\":13995:14007   */\n      add\n        /* \"#utility.yul\":13990:14007   */\n      swap1\n      pop\n        /* \"#utility.yul\":13965:14173   */\n      jump(tag_536)\n    tag_538:\n        /* \"#utility.yul\":14201:14207   */\n      dup7\n        /* \"#utility.yul\":14192:14199   */\n      dup4\n        /* \"#utility.yul\":14189:14208   */\n      lt\n        /* \"#utility.yul\":14186:14365   */\n      iszero\n      tag_539\n      jumpi\n        /* \"#utility.yul\":14259:14268   */\n      dup5\n        /* \"#utility.yul\":14254:14257   */\n      dup10\n        /* \"#utility.yul\":14250:14269   */\n      add\n        /* \"#utility.yul\":14244:14270   */\n      mload\n        /* \"#utility.yul\":14302:14350   */\n      tag_540\n        /* \"#utility.yul\":14344:14348   */\n      0x1f\n        /* \"#utility.yul\":14336:14342   */\n      dup10\n        /* \"#utility.yul\":14332:14349   */\n      and\n        /* \"#utility.yul\":14321:14330   */\n      dup3\n        /* \"#utility.yul\":14302:14350   */\n      tag_351\n      jump\t// in\n    tag_540:\n        /* \"#utility.yul\":14294:14300   */\n      dup4\n        /* \"#utility.yul\":14287:14351   */\n      sstore\n        /* \"#utility.yul\":14209:14365   */\n      pop\n        /* \"#utility.yul\":14186:14365   */\n    tag_539:\n        /* \"#utility.yul\":14411:14412   */\n      0x01\n        /* \"#utility.yul\":14407:14408   */\n      0x02\n        /* \"#utility.yul\":14399:14405   */\n      dup9\n        /* \"#utility.yul\":14395:14409   */\n      mul\n        /* \"#utility.yul\":14391:14413   */\n      add\n        /* \"#utility.yul\":14385:14389   */\n      dup9\n        /* \"#utility.yul\":14378:14414   */\n      sstore\n        /* \"#utility.yul\":13814:14424   */\n      pop\n      pop\n      pop\n        /* \"#utility.yul\":13777:14663   */\n    tag_531:\n      pop\n        /* \"#utility.yul\":13369:14669   */\n      pop\n      pop\n      pop\n        /* \"#utility.yul\":13279:14669   */\n      pop\n      pop\n      jump\t// out\n        /* \"#utility.yul\":14675:14816   */\n    tag_353:\n        /* \"#utility.yul\":14724:14728   */\n      0x00\n        /* \"#utility.yul\":14747:14750   */\n      dup2\n        /* \"#utility.yul\":14739:14750   */\n      swap1\n      pop\n        /* \"#utility.yul\":14770:14773   */\n      dup2\n        /* \"#utility.yul\":14767:14768   */\n      0x00\n        /* \"#utility.yul\":14760:14774   */\n      mstore\n        /* \"#utility.yul\":14804:14808   */\n      0x20\n        /* \"#utility.yul\":14801:14802   */\n      0x00\n        /* \"#utility.yul\":14791:14809   */\n      keccak256\n        /* \"#utility.yul\":14783:14809   */\n      swap1\n      pop\n        /* \"#utility.yul\":14675:14816   */\n      swap2\n      swap1\n      pop\n      jump\t// out\n        /* \"#utility.yul\":14822:15365   */\n    tag_354:\n        /* \"#utility.yul\":14923:14925   */\n      0x1f\n        /* \"#utility.yul\":14918:14921   */\n      dup3\n        /* \"#utility.yul\":14915:14926   */\n      gt\n        /* \"#utility.yul\":14912:15358   */\n      iszero\n      tag_543\n      jumpi\n        /* \"#utility.yul\":14957:14995   */\n      tag_544\n        /* \"#utility.yul\":14989:14994   */\n      dup2\n        /* \"#utility.yul\":14957:14995   */\n      tag_353\n      jump\t// in\n    tag_544:\n        /* \"#utility.yul\":15041:15070   */\n      tag_545\n        /* \"#utility.yul\":15059:15069   */\n      dup5\n        /* \"#utility.yul\":15041:15070   */\n      tag_338\n      jump\t// in\n    tag_545:\n        /* \"#utility.yul\":15031:15039   */\n      dup2\n        /* \"#utility.yul\":15027:15071   */\n      add\n        /* \"#utility.yul\":15224:15226   */\n      0x20\n        /* \"#utility.yul\":15212:15222   */\n      dup6\n        /* \"#utility.yul\":15209:15227   */\n      lt\n        /* \"#utility.yul\":15206:15255   */\n      iszero\n      tag_546\n      jumpi\n        /* \"#utility.yul\":15245:15253   */\n      dup2\n        /* \"#utility.yul\":15230:15253   */\n      swap1\n      pop\n        /* \"#utility.yul\":15206:15255   */\n    tag_546:\n        /* \"#utility.yul\":15268:15348   */\n      tag_547\n        /* \"#utility.yul\":15324:15346   */\n      tag_548\n        /* \"#utility.yul\":15342:15345   */\n      dup6\n        /* \"#utility.yul\":15324:15346   */\n      tag_338\n      jump\t// in\n    tag_548:\n        /* \"#utility.yul\":15314:15322   */\n      dup4\n        /* \"#utility.yul\":15310:15347   */\n      add\n        /* \"#utility.yul\":15297:15308   */\n      dup3\n        /* \"#utility.yul\":15268:15348   */\n      tag_348\n      jump\t// in\n    tag_547:\n        /* \"#utility.yul\":14927:15358   */\n      pop\n      pop\n        /* \"#utility.yul\":14912:15358   */\n    tag_543:\n        /* \"#utility.yul\":14822:15365   */\n      pop\n      pop\n      pop\n      jump\t// out\n        /* \"#utility.yul\":15371:16766   */\n    tag_108:\n        /* \"#utility.yul\":15488:15525   */\n      tag_550\n        /* \"#utility.yul\":15521:15524   */\n      dup3\n        /* \"#utility.yul\":15488:15525   */\n      tag_326\n      jump\t// in\n    tag_550:\n        /* \"#utility.yul\":15590:15608   */\n      0xffffffffffffffff\n        /* \"#utility.yul\":15582:15588   */\n      dup2\n        /* \"#utility.yul\":15579:15609   */\n      gt\n        /* \"#utility.yul\":15576:15632   */\n      iszero\n      tag_551\n      jumpi\n        /* \"#utility.yul\":15612:15630   */\n      tag_552\n      tag_309\n      jump\t// in\n    tag_552:\n        /* \"#utility.yul\":15576:15632   */\n    tag_551:\n        /* \"#utility.yul\":15656:15694   */\n      tag_553\n        /* \"#utility.yul\":15688:15692   */\n      dup3\n        /* \"#utility.yul\":15682:15693   */\n      sload\n        /* \"#utility.yul\":15656:15694   */\n      tag_58\n      jump\t// in\n    tag_553:\n        /* \"#utility.yul\":15741:15808   */\n      tag_554\n        /* \"#utility.yul\":15801:15807   */\n      dup3\n        /* \"#utility.yul\":15793:15799   */\n      dup3\n        /* \"#utility.yul\":15787:15791   */\n      dup6\n        /* \"#utility.yul\":15741:15808   */\n      tag_354\n      jump\t// in\n    tag_554:\n        /* \"#utility.yul\":15835:15836   */\n      0x00\n        /* \"#utility.yul\":15859:15863   */\n      0x20\n        /* \"#utility.yul\":15846:15863   */\n      swap1\n      pop\n        /* \"#utility.yul\":15891:15893   */\n      0x1f\n        /* \"#utility.yul\":15883:15889   */\n      dup4\n        /* \"#utility.yul\":15880:15894   */\n      gt\n        /* \"#utility.yul\":15908:15909   */\n      0x01\n        /* \"#utility.yul\":15903:16521   */\n      dup2\n      eq\n      tag_556\n      jumpi\n        /* \"#utility.yul\":16565:16566   */\n      0x00\n        /* \"#utility.yul\":16582:16588   */\n      dup5\n        /* \"#utility.yul\":16579:16656   */\n      iszero\n      tag_557\n      jumpi\n        /* \"#utility.yul\":16631:16640   */\n      dup3\n        /* \"#utility.yul\":16626:16629   */\n      dup8\n        /* \"#utility.yul\":16622:16641   */\n      add\n        /* \"#utility.yul\":16616:16642   */\n      mload\n        /* \"#utility.yul\":16607:16642   */\n      swap1\n      pop\n        /* \"#utility.yul\":16579:16656   */\n    tag_557:\n        /* \"#utility.yul\":16682:16749   */\n      tag_558\n        /* \"#utility.yul\":16742:16748   */\n      dup6\n        /* \"#utility.yul\":16735:16740   */\n      dup3\n        /* \"#utility.yul\":16682:16749   */\n      tag_352\n      jump\t// in\n    tag_558:\n        /* \"#utility.yul\":16676:16680   */\n      dup7\n        /* \"#utility.yul\":16669:16750   */\n      sstore\n        /* \"#utility.yul\":16538:16760   */\n      pop\n        /* \"#utility.yul\":15873:16760   */\n      jump(tag_555)\n        /* \"#utility.yul\":15903:16521   */\n    tag_556:\n        /* \"#utility.yul\":15955:15959   */\n      0x1f\n        /* \"#utility.yul\":15951:15960   */\n      not\n        /* \"#utility.yul\":15943:15949   */\n      dup5\n        /* \"#utility.yul\":15939:15961   */\n      and\n        /* \"#utility.yul\":15989:16026   */\n      tag_559\n        /* \"#utility.yul\":16021:16025   */\n      dup7\n        /* \"#utility.yul\":15989:16026   */\n      tag_353\n      jump\t// in\n    tag_559:\n        /* \"#utility.yul\":16048:16049   */\n      0x00\n        /* \"#utility.yul\":16062:16270   */\n    tag_560:\n        /* \"#utility.yul\":16076:16083   */\n      dup3\n        /* \"#utility.yul\":16073:16074   */\n      dup2\n        /* \"#utility.yul\":16070:16084   */\n      lt\n        /* \"#utility.yul\":16062:16270   */\n      iszero\n      tag_562\n      jumpi\n        /* \"#utility.yul\":16155:16164   */\n      dup5\n        /* \"#utility.yul\":16150:16153   */\n      dup10\n        /* \"#utility.yul\":16146:16165   */\n      add\n        /* \"#utility.yul\":16140:16166   */\n      mload\n        /* \"#utility.yul\":16132:16138   */\n      dup3\n        /* \"#utility.yul\":16125:16167   */\n      sstore\n        /* \"#utility.yul\":16206:16207   */\n      0x01\n        /* \"#utility.yul\":16198:16204   */\n      dup3\n        /* \"#utility.yul\":16194:16208   */\n      add\n        /* \"#utility.yul\":16184:16208   */\n      swap2\n      pop\n        /* \"#utility.yul\":16253:16255   */\n      0x20\n        /* \"#utility.yul\":16242:16251   */\n      dup6\n        /* \"#utility.yul\":16238:16256   */\n      add\n        /* \"#utility.yul\":16225:16256   */\n      swap5\n      pop\n        /* \"#utility.yul\":16099:16103   */\n      0x20\n        /* \"#utility.yul\":16096:16097   */\n      dup2\n        /* \"#utility.yul\":16092:16104   */\n      add\n        /* \"#utility.yul\":16087:16104   */\n      swap1\n      pop\n        /* \"#utility.yul\":16062:16270   */\n      jump(tag_560)\n    tag_562:\n        /* \"#utility.yul\":16298:16304   */\n      dup7\n        /* \"#utility.yul\":16289:16296   */\n      dup4\n        /* \"#utility.yul\":16286:16305   */\n      lt\n        /* \"#utility.yul\":16283:16462   */\n      iszero\n      tag_563\n      jumpi\n        /* \"#utility.yul\":16356:16365   */\n      dup5\n        /* \"#utility.yul\":16351:16354   */\n      dup10\n        /* \"#utility.yul\":16347:16366   */\n      add\n        /* \"#utility.yul\":16341:16367   */\n      mload\n        /* \"#utility.yul\":16399:16447   */\n      tag_564\n        /* \"#utility.yul\":16441:16445   */\n      0x1f\n        /* \"#utility.yul\":16433:16439   */\n      dup10\n        /* \"#utility.yul\":16429:16446   */\n      and\n        /* \"#utility.yul\":16418:16427   */\n      dup3\n        /* \"#utility.yul\":16399:16447   */\n      tag_351\n      jump\t// in\n    tag_564:\n        /* \"#utility.yul\":16391:16397   */\n      dup4\n        /* \"#utility.yul\":16384:16448   */\n      sstore\n        /* \"#utility.yul\":16306:16462   */\n      pop\n        /* \"#utility.yul\":16283:16462   */\n    tag_563:\n        /* \"#utility.yul\":16508:16509   */\n      0x01\n        /* \"#utility.yul\":16504:16505   */\n      0x02\n        /* \"#utility.yul\":16496:16502   */\n      dup9\n        /* \"#utility.yul\":16492:16506   */\n      mul\n        /* \"#utility.yul\":16488:16510   */\n      add\n        /* \"#utility.yul\":16482:16486   */\n      dup9\n        /* \"#utility.yul\":16475:16511   */\n      sstore\n        /* \"#utility.yul\":15910:16521   */\n      pop\n      pop\n      pop\n        /* \"#utility.yul\":15873:16760   */\n    tag_555:\n      pop\n        /* \"#utility.yul\":15463:16766   */\n      pop\n      pop\n      pop\n        /* \"#utility.yul\":15371:16766   */\n      pop\n      pop\n      jump\t// out\n        /* \"#utility.yul\":16796:17627   */\n    tag_355:\n        /* \"#utility.yul\":16881:16884   */\n      0x00\n        /* \"#utility.yul\":16918:16923   */\n      dup2\n        /* \"#utility.yul\":16912:16924   */\n      sload\n        /* \"#utility.yul\":16947:16983   */\n      tag_566\n        /* \"#utility.yul\":16973:16982   */\n      dup2\n        /* \"#utility.yul\":16947:16983   */\n      tag_58\n      jump\t// in\n    tag_566:\n        /* \"#utility.yul\":16999:17070   */\n      tag_567\n        /* \"#utility.yul\":17063:17069   */\n      dup2\n        /* \"#utility.yul\":17058:17061   */\n      dup7\n        /* \"#utility.yul\":16999:17070   */\n      tag_327\n      jump\t// in\n    tag_567:\n        /* \"#utility.yul\":16992:17070   */\n      swap5\n      pop\n        /* \"#utility.yul\":17101:17102   */\n      0x01\n        /* \"#utility.yul\":17090:17099   */\n      dup3\n        /* \"#utility.yul\":17086:17103   */\n      and\n        /* \"#utility.yul\":17117:17118   */\n      0x00\n        /* \"#utility.yul\":17112:17276   */\n      dup2\n      eq\n      tag_569\n      jumpi\n        /* \"#utility.yul\":17290:17291   */\n      0x01\n        /* \"#utility.yul\":17285:17621   */\n      dup2\n      eq\n      tag_570\n      jumpi\n        /* \"#utility.yul\":17079:17621   */\n      jump(tag_568)\n        /* \"#utility.yul\":17112:17276   */\n    tag_569:\n        /* \"#utility.yul\":17196:17200   */\n      0xff\n        /* \"#utility.yul\":17192:17201   */\n      not\n        /* \"#utility.yul\":17181:17190   */\n      dup4\n        /* \"#utility.yul\":17177:17202   */\n      and\n        /* \"#utility.yul\":17172:17175   */\n      dup7\n        /* \"#utility.yul\":17165:17203   */\n      mstore\n        /* \"#utility.yul\":17256:17262   */\n      dup2\n        /* \"#utility.yul\":17249:17263   */\n      iszero\n        /* \"#utility.yul\":17242:17264   */\n      iszero\n        /* \"#utility.yul\":17236:17240   */\n      0x20\n        /* \"#utility.yul\":17232:17265   */\n      mul\n        /* \"#utility.yul\":17227:17230   */\n      dup7\n        /* \"#utility.yul\":17223:17266   */\n      add\n        /* \"#utility.yul\":17216:17266   */\n      swap4\n      pop\n        /* \"#utility.yul\":17112:17276   */\n      jump(tag_568)\n        /* \"#utility.yul\":17285:17621   */\n    tag_570:\n        /* \"#utility.yul\":17352:17390   */\n      tag_571\n        /* \"#utility.yul\":17384:17389   */\n      dup6\n        /* \"#utility.yul\":17352:17390   */\n      tag_353\n      jump\t// in\n    tag_571:\n        /* \"#utility.yul\":17412:17413   */\n      0x00\n        /* \"#utility.yul\":17426:17580   */\n    tag_572:\n        /* \"#utility.yul\":17440:17446   */\n      dup4\n        /* \"#utility.yul\":17437:17438   */\n      dup2\n        /* \"#utility.yul\":17434:17447   */\n      lt\n        /* \"#utility.yul\":17426:17580   */\n      iszero\n      tag_574\n      jumpi\n        /* \"#utility.yul\":17514:17521   */\n      dup2\n        /* \"#utility.yul\":17508:17522   */\n      sload\n        /* \"#utility.yul\":17504:17505   */\n      dup2\n        /* \"#utility.yul\":17499:17502   */\n      dup10\n        /* \"#utility.yul\":17495:17506   */\n      add\n        /* \"#utility.yul\":17488:17523   */\n      mstore\n        /* \"#utility.yul\":17564:17565   */\n      0x01\n        /* \"#utility.yul\":17555:17562   */\n      dup3\n        /* \"#utility.yul\":17551:17566   */\n      add\n        /* \"#utility.yul\":17540:17566   */\n      swap2\n      pop\n        /* \"#utility.yul\":17462:17466   */\n      0x20\n        /* \"#utility.yul\":17459:17460   */\n      dup2\n        /* \"#utility.yul\":17455:17467   */\n      add\n        /* \"#utility.yul\":17450:17467   */\n      swap1\n      pop\n        /* \"#utility.yul\":17426:17580   */\n      jump(tag_572)\n    tag_574:\n        /* \"#utility.yul\":17609:17610   */\n      dup1\n        /* \"#utility.yul\":17604:17607   */\n      dup9\n        /* \"#utility.yul\":17600:17611   */\n      add\n        /* \"#utility.yul\":17593:17611   */\n      swap6\n      pop\n        /* \"#utility.yul\":17292:17621   */\n      pop\n      pop\n        /* \"#utility.yul\":17079:17621   */\n    tag_568:\n      pop\n        /* \"#utility.yul\":16885:17627   */\n      pop\n      pop\n        /* \"#utility.yul\":16796:17627   */\n      swap3\n      swap2\n      pop\n      pop\n      jump\t// out\n        /* \"#utility.yul\":17655:18482   */\n    tag_356:\n        /* \"#utility.yul\":17738:17741   */\n      0x00\n        /* \"#utility.yul\":17775:17780   */\n      dup2\n        /* \"#utility.yul\":17769:17781   */\n      sload\n        /* \"#utility.yul\":17804:17840   */\n      tag_576\n        /* \"#utility.yul\":17830:17839   */\n      dup2\n        /* \"#utility.yul\":17804:17840   */\n      tag_58\n      jump\t// in\n    tag_576:\n        /* \"#utility.yul\":17856:17926   */\n      tag_577\n        /* \"#utility.yul\":17919:17925   */\n      dup2\n        /* \"#utility.yul\":17914:17917   */\n      dup7\n        /* \"#utility.yul\":17856:17926   */\n      tag_323\n      jump\t// in\n    tag_577:\n        /* \"#utility.yul\":17849:17926   */\n      swap5\n      pop\n        /* \"#utility.yul\":17957:17958   */\n      0x01\n        /* \"#utility.yul\":17946:17955   */\n      dup3\n        /* \"#utility.yul\":17942:17959   */\n      and\n        /* \"#utility.yul\":17973:17974   */\n      0x00\n        /* \"#utility.yul\":17968:18132   */\n      dup2\n      eq\n      tag_579\n      jumpi\n        /* \"#utility.yul\":18146:18147   */\n      0x01\n        /* \"#utility.yul\":18141:18476   */\n      dup2\n      eq\n      tag_580\n      jumpi\n        /* \"#utility.yul\":17935:18476   */\n      jump(tag_578)\n        /* \"#utility.yul\":17968:18132   */\n    tag_579:\n        /* \"#utility.yul\":18052:18056   */\n      0xff\n        /* \"#utility.yul\":18048:18057   */\n      not\n        /* \"#utility.yul\":18037:18046   */\n      dup4\n        /* \"#utility.yul\":18033:18058   */\n      and\n        /* \"#utility.yul\":18028:18031   */\n      dup7\n        /* \"#utility.yul\":18021:18059   */\n      mstore\n        /* \"#utility.yul\":18112:18118   */\n      dup2\n        /* \"#utility.yul\":18105:18119   */\n      iszero\n        /* \"#utility.yul\":18098:18120   */\n      iszero\n        /* \"#utility.yul\":18092:18096   */\n      0x20\n        /* \"#utility.yul\":18088:18121   */\n      mul\n        /* \"#utility.yul\":18083:18086   */\n      dup7\n        /* \"#utility.yul\":18079:18122   */\n      add\n        /* \"#utility.yul\":18072:18122   */\n      swap4\n      pop\n        /* \"#utility.yul\":17968:18132   */\n      jump(tag_578)\n        /* \"#utility.yul\":18141:18476   */\n    tag_580:\n        /* \"#utility.yul\":18208:18245   */\n      tag_581\n        /* \"#utility.yul\":18239:18244   */\n      dup6\n        /* \"#utility.yul\":18208:18245   */\n      tag_337\n      jump\t// in\n    tag_581:\n        /* \"#utility.yul\":18267:18268   */\n      0x00\n        /* \"#utility.yul\":18281:18435   */\n    tag_582:\n        /* \"#utility.yul\":18295:18301   */\n      dup4\n        /* \"#utility.yul\":18292:18293   */\n      dup2\n        /* \"#utility.yul\":18289:18302   */\n      lt\n        /* \"#utility.yul\":18281:18435   */\n      iszero\n      tag_584\n      jumpi\n        /* \"#utility.yul\":18369:18376   */\n      dup2\n        /* \"#utility.yul\":18363:18377   */\n      sload\n        /* \"#utility.yul\":18359:18360   */\n      dup2\n        /* \"#utility.yul\":18354:18357   */\n      dup10\n        /* \"#utility.yul\":18350:18361   */\n      add\n        /* \"#utility.yul\":18343:18378   */\n      mstore\n        /* \"#utility.yul\":18419:18420   */\n      0x01\n        /* \"#utility.yul\":18410:18417   */\n      dup3\n        /* \"#utility.yul\":18406:18421   */\n      add\n        /* \"#utility.yul\":18395:18421   */\n      swap2\n      pop\n        /* \"#utility.yul\":18317:18321   */\n      0x20\n        /* \"#utility.yul\":18314:18315   */\n      dup2\n        /* \"#utility.yul\":18310:18322   */\n      add\n        /* \"#utility.yul\":18305:18322   */\n      swap1\n      pop\n        /* \"#utility.yul\":18281:18435   */\n      jump(tag_582)\n    tag_584:\n        /* \"#utility.yul\":18464:18465   */\n      dup1\n        /* \"#utility.yul\":18459:18462   */\n      dup9\n        /* \"#utility.yul\":18455:18466   */\n      add\n        /* \"#utility.yul\":18448:18466   */\n      swap6\n      pop\n        /* \"#utility.yul\":18148:18476   */\n      pop\n      pop\n        /* \"#utility.yul\":17935:18476   */\n    tag_578:\n      pop\n        /* \"#utility.yul\":17742:18482   */\n      pop\n      pop\n        /* \"#utility.yul\":17655:18482   */\n      swap3\n      swap2\n      pop\n      pop\n      jump\t// out\n        /* \"#utility.yul\":18488:19177   */\n    tag_113:\n        /* \"#utility.yul\":18684:18688   */\n      0x00\n        /* \"#utility.yul\":18722:18724   */\n      0x60\n        /* \"#utility.yul\":18711:18720   */\n      dup3\n        /* \"#utility.yul\":18707:18725   */\n      add\n        /* \"#utility.yul\":18699:18725   */\n      swap1\n      pop\n        /* \"#utility.yul\":18771:18780   */\n      dup2\n        /* \"#utility.yul\":18765:18769   */\n      dup2\n        /* \"#utility.yul\":18761:18781   */\n      sub\n        /* \"#utility.yul\":18757:18758   */\n      0x00\n        /* \"#utility.yul\":18746:18755   */\n      dup4\n        /* \"#utility.yul\":18742:18759   */\n      add\n        /* \"#utility.yul\":18735:18782   */\n      mstore\n        /* \"#utility.yul\":18799:18874   */\n      tag_586\n        /* \"#utility.yul\":18869:18873   */\n      dup2\n        /* \"#utility.yul\":18860:18866   */\n      dup7\n        /* \"#utility.yul\":18799:18874   */\n      tag_355\n      jump\t// in\n    tag_586:\n        /* \"#utility.yul\":18791:18874   */\n      swap1\n      pop\n        /* \"#utility.yul\":18921:18930   */\n      dup2\n        /* \"#utility.yul\":18915:18919   */\n      dup2\n        /* \"#utility.yul\":18911:18931   */\n      sub\n        /* \"#utility.yul\":18906:18908   */\n      0x20\n        /* \"#utility.yul\":18895:18904   */\n      dup4\n        /* \"#utility.yul\":18891:18909   */\n      add\n        /* \"#utility.yul\":18884:18932   */\n      mstore\n        /* \"#utility.yul\":18949:19022   */\n      tag_587\n        /* \"#utility.yul\":19017:19021   */\n      dup2\n        /* \"#utility.yul\":19008:19014   */\n      dup6\n        /* \"#utility.yul\":18949:19022   */\n      tag_356\n      jump\t// in\n    tag_587:\n        /* \"#utility.yul\":18941:19022   */\n      swap1\n      pop\n        /* \"#utility.yul\":19069:19078   */\n      dup2\n        /* \"#utility.yul\":19063:19067   */\n      dup2\n        /* \"#utility.yul\":19059:19079   */\n      sub\n        /* \"#utility.yul\":19054:19056   */\n      0x40\n        /* \"#utility.yul\":19043:19052   */\n      dup4\n        /* \"#utility.yul\":19039:19057   */\n      add\n        /* \"#utility.yul\":19032:19080   */\n      mstore\n        /* \"#utility.yul\":19097:19170   */\n      tag_588\n        /* \"#utility.yul\":19165:19169   */\n      dup2\n        /* \"#utility.yul\":19156:19162   */\n      dup5\n        /* \"#utility.yul\":19097:19170   */\n      tag_356\n      jump\t// in\n    tag_588:\n        /* \"#utility.yul\":19089:19170   */\n      swap1\n      pop\n        /* \"#utility.yul\":18488:19177   */\n      swap5\n      swap4\n      pop\n      pop\n      pop\n      pop\n      jump\t// out\n        /* \"#utility.yul\":19183:19355   */\n    tag_357:\n        /* \"#utility.yul\":19323:19347   */\n      0x4f6e6c792063616c6c61626c65206279206f776e657200000000000000000000\n        /* \"#utility.yul\":19319:19320   */\n      0x00\n        /* \"#utility.yul\":19311:19317   */\n      dup3\n        /* \"#utility.yul\":19307:19321   */\n      add\n        /* \"#utility.yul\":19300:19348   */\n      mstore\n        /* \"#utility.yul\":19183:19355   */\n      pop\n      jump\t// out\n        /* \"#utility.yul\":19361:19727   */\n    tag_358:\n        /* \"#utility.yul\":19503:19506   */\n      0x00\n        /* \"#utility.yul\":19524:19591   */\n      tag_591\n        /* \"#utility.yul\":19588:19590   */\n      0x16\n        /* \"#utility.yul\":19583:19586   */\n      dup4\n        /* \"#utility.yul\":19524:19591   */\n      tag_327\n      jump\t// in\n    tag_591:\n        /* \"#utility.yul\":19517:19591   */\n      swap2\n      pop\n        /* \"#utility.yul\":19600:19693   */\n      tag_592\n        /* \"#utility.yul\":19689:19692   */\n      dup3\n        /* \"#utility.yul\":19600:19693   */\n      tag_357\n      jump\t// in\n    tag_592:\n        /* \"#utility.yul\":19718:19720   */\n      0x20\n        /* \"#utility.yul\":19713:19716   */\n      dup3\n        /* \"#utility.yul\":19709:19721   */\n      add\n        /* \"#utility.yul\":19702:19721   */\n      swap1\n      pop\n        /* \"#utility.yul\":19361:19727   */\n      swap2\n      swap1\n      pop\n      jump\t// out\n        /* \"#utility.yul\":19733:20152   */\n    tag_117:\n        /* \"#utility.yul\":19899:19903   */\n      0x00\n        /* \"#utility.yul\":19937:19939   */\n      0x20\n        /* \"#utility.yul\":19926:19935   */\n      dup3\n        /* \"#utility.yul\":19922:19940   */\n      add\n        /* \"#utility.yul\":19914:19940   */\n      swap1\n      pop\n        /* \"#utility.yul\":19986:19995   */\n      dup2\n        /* \"#utility.yul\":19980:19984   */\n      dup2\n        /* \"#utility.yul\":19976:19996   */\n      sub\n        /* \"#utility.yul\":19972:19973   */\n      0x00\n        /* \"#utility.yul\":19961:19970   */\n      dup4\n        /* \"#utility.yul\":19957:19974   */\n      add\n        /* \"#utility.yul\":19950:19997   */\n      mstore\n        /* \"#utility.yul\":20014:20145   */\n      tag_594\n        /* \"#utility.yul\":20140:20144   */\n      dup2\n        /* \"#utility.yul\":20014:20145   */\n      tag_358\n      jump\t// in\n    tag_594:\n        /* \"#utility.yul\":20006:20145   */\n      swap1\n      pop\n        /* \"#utility.yul\":19733:20152   */\n      swap2\n      swap1\n      pop\n      jump\t// out\n        /* \"#utility.yul\":20158:20338   */\n    tag_122:\n        /* \"#utility.yul\":20206:20283   */\n      0x4e487b7100000000000000000000000000000000000000000000000000000000\n        /* \"#utility.yul\":20203:20204   */\n      0x00\n        /* \"#utility.yul\":20196:20284   */\n      mstore\n        /* \"#utility.yul\":20303:20307   */\n      0x21\n        /* \"#utility.yul\":20300:20301   */\n      0x04\n        /* \"#utility.yul\":20293:20308   */\n      mstore\n        /* \"#utility.yul\":20327:20331   */\n      0x24\n        /* \"#utility.yul\":20324:20325   */\n      0x00\n        /* \"#utility.yul\":20317:20332   */\n      revert\n        /* \"#utility.yul\":20344:20524   */\n    tag_154:\n        /* \"#utility.yul\":20392:20469   */\n      0x4e487b7100000000000000000000000000000000000000000000000000000000\n        /* \"#utility.yul\":20389:20390   */\n      0x00\n        /* \"#utility.yul\":20382:20470   */\n      mstore\n        /* \"#utility.yul\":20489:20493   */\n      0x32\n        /* \"#utility.yul\":20486:20487   */\n      0x04\n        /* \"#utility.yul\":20479:20494   */\n      mstore\n        /* \"#utility.yul\":20513:20517   */\n      0x24\n        /* \"#utility.yul\":20510:20511   */\n      0x00\n        /* \"#utility.yul\":20503:20518   */\n      revert\n        /* \"#utility.yul\":20530:20710   */\n    tag_359:\n        /* \"#utility.yul\":20578:20655   */\n      0x4e487b7100000000000000000000000000000000000000000000000000000000\n        /* \"#utility.yul\":20575:20576   */\n      0x00\n        /* \"#utility.yul\":20568:20656   */\n      mstore\n        /* \"#utility.yul\":20675:20679   */\n      0x11\n        /* \"#utility.yul\":20672:20673   */\n      0x04\n        /* \"#utility.yul\":20665:20680   */\n      mstore\n        /* \"#utility.yul\":20699:20703   */\n      0x24\n        /* \"#utility.yul\":20696:20697   */\n      0x00\n        /* \"#utility.yul\":20689:20704   */\n      revert\n        /* \"#utility.yul\":20716:20949   */\n    tag_156:\n        /* \"#utility.yul\":20755:20758   */\n      0x00\n        /* \"#utility.yul\":20778:20802   */\n      tag_599\n        /* \"#utility.yul\":20796:20801   */\n      dup3\n        /* \"#utility.yul\":20778:20802   */\n      tag_341\n      jump\t// in\n    tag_599:\n        /* \"#utility.yul\":20769:20802   */\n      swap2\n      pop\n        /* \"#utility.yul\":20824:20890   */\n      0xffffffffffffffffffffffffffffffffffffffffffffffffffffffffffffffff\n        /* \"#utility.yul\":20817:20822   */\n      dup3\n        /* \"#utility.yul\":20814:20891   */\n      sub\n        /* \"#utility.yul\":20811:20914   */\n      tag_600\n      jumpi\n        /* \"#utility.yul\":20894:20912   */\n      tag_601\n      tag_359\n      jump\t// in\n    tag_601:\n        /* \"#utility.yul\":20811:20914   */\n    tag_600:\n        /* \"#utility.yul\":20941:20942   */\n      0x01\n        /* \"#utility.yul\":20934:20939   */\n      dup3\n        /* \"#utility.yul\":20930:20943   */\n      add\n        /* \"#utility.yul\":20923:20943   */\n      swap1\n      pop\n        /* \"#utility.yul\":20716:20949   */\n      swap2\n      swap1\n      pop\n      jump\t// out\n        /* \"#utility.yul\":20955:21070   */\n    tag_360:\n        /* \"#utility.yul\":21040:21063   */\n      tag_603\n        /* \"#utility.yul\":21057:21062   */\n      dup2\n        /* \"#utility.yul\":21040:21063   */\n      tag_318\n      jump\t// in\n    tag_603:\n        /* \"#utility.yul\":21035:21038   */\n      dup3\n        /* \"#utility.yul\":21028:21064   */\n      mstore\n        /* \"#utility.yul\":20955:21070   */\n      pop\n      pop\n      jump\t// out\n        /* \"#utility.yul\":21076:21165   */\n    tag_361:\n        /* \"#utility.yul\":21112:21119   */\n      0x00\n        /* \"#utility.yul\":21152:21158   */\n      0xffff\n        /* \"#utility.yul\":21145:21150   */\n      dup3\n        /* \"#utility.yul\":21141:21159   */\n      and\n        /* \"#utility.yul\":21130:21159   */\n      swap1\n      pop\n        /* \"#utility.yul\":21076:21165   */\n      swap2\n      swap1\n      pop\n      jump\t// out\n        /* \"#utility.yul\":21171:21286   */\n    tag_362:\n        /* \"#utility.yul\":21256:21279   */\n      tag_606\n        /* \"#utility.yul\":21273:21278   */\n      dup2\n        /* \"#utility.yul\":21256:21279   */\n      tag_361\n      jump\t// in\n    tag_606:\n        /* \"#utility.yul\":21251:21254   */\n      dup3\n        /* \"#utility.yul\":21244:21280   */\n      mstore\n        /* \"#utility.yul\":21171:21286   */\n      pop\n      pop\n      jump\t// out\n        /* \"#utility.yul\":21292:21385   */\n    tag_363:\n        /* \"#utility.yul\":21328:21335   */\n      0x00\n        /* \"#utility.yul\":21368:21378   */\n      0xffffffff\n        /* \"#utility.yul\":21361:21366   */\n      dup3\n        /* \"#utility.yul\":21357:21379   */\n      and\n        /* \"#utility.yul\":21346:21379   */\n      swap1\n      pop\n        /* \"#utility.yul\":21292:21385   */\n      swap2\n      swap1\n      pop\n      jump\t// out\n        /* \"#utility.yul\":21391:21506   */\n    tag_364:\n        /* \"#utility.yul\":21476:21499   */\n      tag_609\n        /* \"#utility.yul\":21493:21498   */\n      dup2\n        /* \"#utility.yul\":21476:21499   */\n      tag_363\n      jump\t// in\n    tag_609:\n        /* \"#utility.yul\":21471:21474   */\n      dup3\n        /* \"#utility.yul\":21464:21500   */\n      mstore\n        /* \"#utility.yul\":21391:21506   */\n      pop\n      pop\n      jump\t// out\n        /* \"#utility.yul\":21512:22251   */\n    tag_185:\n        /* \"#utility.yul\":21729:21733   */\n      0x00\n        /* \"#utility.yul\":21767:21770   */\n      0xa0\n        /* \"#utility.yul\":21756:21765   */\n      dup3\n        /* \"#utility.yul\":21752:21771   */\n      add\n        /* \"#utility.yul\":21744:21771   */\n      swap1\n      pop\n        /* \"#utility.yul\":21781:21850   */\n      tag_611\n        /* \"#utility.yul\":21847:21848   */\n      0x00\n        /* \"#utility.yul\":21836:21845   */\n      dup4\n        /* \"#utility.yul\":21832:21849   */\n      add\n        /* \"#utility.yul\":21823:21829   */\n      dup9\n        /* \"#utility.yul\":21781:21850   */\n      tag_360\n      jump\t// in\n    tag_611:\n        /* \"#utility.yul\":21897:21906   */\n      dup2\n        /* \"#utility.yul\":21891:21895   */\n      dup2\n        /* \"#utility.yul\":21887:21907   */\n      sub\n        /* \"#utility.yul\":21882:21884   */\n      0x20\n        /* \"#utility.yul\":21871:21880   */\n      dup4\n        /* \"#utility.yul\":21867:21885   */\n      add\n        /* \"#utility.yul\":21860:21908   */\n      mstore\n        /* \"#utility.yul\":21925:22001   */\n      tag_612\n        /* \"#utility.yul\":21996:22000   */\n      dup2\n        /* \"#utility.yul\":21987:21993   */\n      dup8\n        /* \"#utility.yul\":21925:22001   */\n      tag_325\n      jump\t// in\n    tag_612:\n        /* \"#utility.yul\":21917:22001   */\n      swap1\n      pop\n        /* \"#utility.yul\":22011:22081   */\n      tag_613\n        /* \"#utility.yul\":22077:22079   */\n      0x40\n        /* \"#utility.yul\":22066:22075   */\n      dup4\n        /* \"#utility.yul\":22062:22080   */\n      add\n        /* \"#utility.yul\":22053:22059   */\n      dup7\n        /* \"#utility.yul\":22011:22081   */\n      tag_362\n      jump\t// in\n    tag_613:\n        /* \"#utility.yul\":22091:22161   */\n      tag_614\n        /* \"#utility.yul\":22157:22159   */\n      0x60\n        /* \"#utility.yul\":22146:22155   */\n      dup4\n        /* \"#utility.yul\":22142:22160   */\n      add\n        /* \"#utility.yul\":22133:22139   */\n      dup6\n        /* \"#utility.yul\":22091:22161   */\n      tag_364\n      jump\t// in\n    tag_614:\n        /* \"#utility.yul\":22171:22244   */\n      tag_615\n        /* \"#utility.yul\":22239:22242   */\n      0x80\n        /* \"#utility.yul\":22228:22237   */\n      dup4\n        /* \"#utility.yul\":22224:22243   */\n      add\n        /* \"#utility.yul\":22215:22221   */\n      dup5\n        /* \"#utility.yul\":22171:22244   */\n      tag_321\n      jump\t// in\n    tag_615:\n        /* \"#utility.yul\":21512:22251   */\n      swap7\n      swap6\n      pop\n      pop\n      pop\n      pop\n      pop\n      pop\n      jump\t// out\n        /* \"#utility.yul\":22257:22400   */\n    tag_365:\n        /* \"#utility.yul\":22314:22319   */\n      0x00\n        /* \"#utility.yul\":22345:22351   */\n      dup2\n        /* \"#utility.yul\":22339:22352   */\n      mload\n        /* \"#utility.yul\":22330:22352   */\n      swap1\n      pop\n        /* \"#utility.yul\":22361:22394   */\n      tag_617\n        /* \"#utility.yul\":22388:22393   */\n      dup2\n        /* \"#utility.yul\":22361:22394   */\n      tag_304\n      jump\t// in\n    tag_617:\n        /* \"#utility.yul\":22257:22400   */\n      swap3\n      swap2\n      pop\n      pop\n      jump\t// out\n        /* \"#utility.yul\":22406:22757   */\n    tag_189:\n        /* \"#utility.yul\":22476:22482   */\n      0x00\n        /* \"#utility.yul\":22525:22527   */\n      0x20\n        /* \"#utility.yul\":22513:22522   */\n      dup3\n        /* \"#utility.yul\":22504:22511   */\n      dup5\n        /* \"#utility.yul\":22500:22523   */\n      sub\n        /* \"#utility.yul\":22496:22528   */\n      slt\n        /* \"#utility.yul\":22493:22612   */\n      iszero\n      tag_619\n      jumpi\n        /* \"#utility.yul\":22531:22610   */\n      tag_620\n      tag_301\n      jump\t// in\n    tag_620:\n        /* \"#utility.yul\":22493:22612   */\n    tag_619:\n        /* \"#utility.yul\":22651:22652   */\n      0x00\n        /* \"#utility.yul\":22676:22740   */\n      tag_621\n        /* \"#utility.yul\":22732:22739   */\n      dup5\n        /* \"#utility.yul\":22723:22729   */\n      dup3\n        /* \"#utility.yul\":22712:22721   */\n      dup6\n        /* \"#utility.yul\":22708:22730   */\n      add\n        /* \"#utility.yul\":22676:22740   */\n      tag_365\n      jump\t// in\n    tag_621:\n        /* \"#utility.yul\":22666:22740   */\n      swap2\n      pop\n        /* \"#utility.yul\":22622:22750   */\n      pop\n        /* \"#utility.yul\":22406:22757   */\n      swap3\n      swap2\n      pop\n      pop\n      jump\t// out\n        /* \"#utility.yul\":22763:22936   */\n    tag_366:\n        /* \"#utility.yul\":22903:22928   */\n      0x43616e6e6f74207472616e7366657220746f2073656c66000000000000000000\n        /* \"#utility.yul\":22899:22900   */\n      0x00\n        /* \"#utility.yul\":22891:22897   */\n      dup3\n        /* \"#utility.yul\":22887:22901   */\n      add\n        /* \"#utility.yul\":22880:22929   */\n      mstore\n        /* \"#utility.yul\":22763:22936   */\n      pop\n      jump\t// out\n        /* \"#utility.yul\":22942:23308   */\n    tag_367:\n        /* \"#utility.yul\":23084:23087   */\n      0x00\n        /* \"#utility.yul\":23105:23172   */\n      tag_624\n        /* \"#utility.yul\":23169:23171   */\n      0x17\n        /* \"#utility.yul\":23164:23167   */\n      dup4\n        /* \"#utility.yul\":23105:23172   */\n      tag_327\n      jump\t// in\n    tag_624:\n        /* \"#utility.yul\":23098:23172   */\n      swap2\n      pop\n        /* \"#utility.yul\":23181:23274   */\n      tag_625\n        /* \"#utility.yul\":23270:23273   */\n      dup3\n        /* \"#utility.yul\":23181:23274   */\n      tag_366\n      jump\t// in\n    tag_625:\n        /* \"#utility.yul\":23299:23301   */\n      0x20\n        /* \"#utility.yul\":23294:23297   */\n      dup3\n        /* \"#utility.yul\":23290:23302   */\n      add\n        /* \"#utility.yul\":23283:23302   */\n      swap1\n      pop\n        /* \"#utility.yul\":22942:23308   */\n      swap2\n      swap1\n      pop\n      jump\t// out\n        /* \"#utility.yul\":23314:23733   */\n    tag_193:\n        /* \"#utility.yul\":23480:23484   */\n      0x00\n        /* \"#utility.yul\":23518:23520   */\n      0x20\n        /* \"#utility.yul\":23507:23516   */\n      dup3\n        /* \"#utility.yul\":23503:23521   */\n      add\n        /* \"#utility.yul\":23495:23521   */\n      swap1\n      pop\n        /* \"#utility.yul\":23567:23576   */\n      dup2\n        /* \"#utility.yul\":23561:23565   */\n      dup2\n        /* \"#utility.yul\":23557:23577   */\n      sub\n        /* \"#utility.yul\":23553:23554   */\n      0x00\n        /* \"#utility.yul\":23542:23551   */\n      dup4\n        /* \"#utility.yul\":23538:23555   */\n      add\n        /* \"#utility.yul\":23531:23578   */\n      mstore\n        /* \"#utility.yul\":23595:23726   */\n      tag_627\n        /* \"#utility.yul\":23721:23725   */\n      dup2\n        /* \"#utility.yul\":23595:23726   */\n      tag_367\n      jump\t// in\n    tag_627:\n        /* \"#utility.yul\":23587:23726   */\n      swap1\n      pop\n        /* \"#utility.yul\":23314:23733   */\n      swap2\n      swap1\n      pop\n      jump\t// out\n        /* \"#utility.yul\":23739:23857   */\n    tag_368:\n        /* \"#utility.yul\":23826:23850   */\n      tag_629\n        /* \"#utility.yul\":23844:23849   */\n      dup2\n        /* \"#utility.yul\":23826:23850   */\n      tag_341\n      jump\t// in\n    tag_629:\n        /* \"#utility.yul\":23821:23824   */\n      dup3\n        /* \"#utility.yul\":23814:23851   */\n      mstore\n        /* \"#utility.yul\":23739:23857   */\n      pop\n      pop\n      jump\t// out\n        /* \"#utility.yul\":23863:24085   */\n    tag_209:\n        /* \"#utility.yul\":23956:23960   */\n      0x00\n        /* \"#utility.yul\":23994:23996   */\n      0x20\n        /* \"#utility.yul\":23983:23992   */\n      dup3\n        /* \"#utility.yul\":23979:23997   */\n      add\n        /* \"#utility.yul\":23971:23997   */\n      swap1\n      pop\n        /* \"#utility.yul\":24007:24078   */\n      tag_631\n        /* \"#utility.yul\":24075:24076   */\n      0x00\n        /* \"#utility.yul\":24064:24073   */\n      dup4\n        /* \"#utility.yul\":24060:24077   */\n      add\n        /* \"#utility.yul\":24051:24057   */\n      dup5\n        /* \"#utility.yul\":24007:24078   */\n      tag_368\n      jump\t// in\n    tag_631:\n        /* \"#utility.yul\":23863:24085   */\n      swap3\n      swap2\n      pop\n      pop\n      jump\t// out\n        /* \"#utility.yul\":24091:24282   */\n    tag_214:\n        /* \"#utility.yul\":24131:24134   */\n      0x00\n        /* \"#utility.yul\":24150:24170   */\n      tag_633\n        /* \"#utility.yul\":24168:24169   */\n      dup3\n        /* \"#utility.yul\":24150:24170   */\n      tag_341\n      jump\t// in\n    tag_633:\n        /* \"#utility.yul\":24145:24170   */\n      swap2\n      pop\n        /* \"#utility.yul\":24184:24204   */\n      tag_634\n        /* \"#utility.yul\":24202:24203   */\n      dup4\n        /* \"#utility.yul\":24184:24204   */\n      tag_341\n      jump\t// in\n    tag_634:\n        /* \"#utility.yul\":24179:24204   */\n      swap3\n      pop\n        /* \"#utility.yul\":24227:24228   */\n      dup3\n        /* \"#utility.yul\":24224:24225   */\n      dup3\n        /* \"#utility.yul\":24220:24229   */\n      add\n        /* \"#utility.yul\":24213:24229   */\n      swap1\n      pop\n        /* \"#utility.yul\":24248:24251   */\n      dup1\n        /* \"#utility.yul\":24245:24246   */\n      dup3\n        /* \"#utility.yul\":24242:24252   */\n      gt\n        /* \"#utility.yul\":24239:24275   */\n      iszero\n      tag_635\n      jumpi\n        /* \"#utility.yul\":24255:24273   */\n      tag_636\n      tag_359\n      jump\t// in\n    tag_636:\n        /* \"#utility.yul\":24239:24275   */\n    tag_635:\n        /* \"#utility.yul\":24091:24282   */\n      swap3\n      swap2\n      pop\n      pop\n      jump\t// out\n        /* \"#utility.yul\":24288:24482   */\n    tag_218:\n        /* \"#utility.yul\":24328:24332   */\n      0x00\n        /* \"#utility.yul\":24348:24368   */\n      tag_638\n        /* \"#utility.yul\":24366:24367   */\n      dup3\n        /* \"#utility.yul\":24348:24368   */\n      tag_341\n      jump\t// in\n    tag_638:\n        /* \"#utility.yul\":24343:24368   */\n      swap2\n      pop\n        /* \"#utility.yul\":24382:24402   */\n      tag_639\n        /* \"#utility.yul\":24400:24401   */\n      dup4\n        /* \"#utility.yul\":24382:24402   */\n      tag_341\n      jump\t// in\n    tag_639:\n        /* \"#utility.yul\":24377:24402   */\n      swap3\n      pop\n        /* \"#utility.yul\":24426:24427   */\n      dup3\n        /* \"#utility.yul\":24423:24424   */\n      dup3\n        /* \"#utility.yul\":24419:24428   */\n      sub\n        /* \"#utility.yul\":24411:24428   */\n      swap1\n      pop\n        /* \"#utility.yul\":24450:24451   */\n      dup2\n        /* \"#utility.yul\":24444:24448   */\n      dup2\n        /* \"#utility.yul\":24441:24452   */\n      gt\n        /* \"#utility.yul\":24438:24475   */\n      iszero\n      tag_640\n      jumpi\n        /* \"#utility.yul\":24455:24473   */\n      tag_641\n      tag_359\n      jump\t// in\n    tag_641:\n        /* \"#utility.yul\":24438:24475   */\n    tag_640:\n        /* \"#utility.yul\":24288:24482   */\n      swap3\n      swap2\n      pop\n      pop\n      jump\t// out\n        /* \"#utility.yul\":24488:24668   */\n    tag_369:\n        /* \"#utility.yul\":24536:24613   */\n      0x4e487b7100000000000000000000000000000000000000000000000000000000\n        /* \"#utility.yul\":24533:24534   */\n      0x00\n        /* \"#utility.yul\":24526:24614   */\n      mstore\n        /* \"#utility.yul\":24633:24637   */\n      0x12\n        /* \"#utility.yul\":24630:24631   */\n      0x04\n        /* \"#utility.yul\":24623:24638   */\n      mstore\n        /* \"#utility.yul\":24657:24661   */\n      0x24\n        /* \"#utility.yul\":24654:24655   */\n      0x00\n        /* \"#utility.yul\":24647:24662   */\n      revert\n        /* \"#utility.yul\":24674:24850   */\n    tag_226:\n        /* \"#utility.yul\":24706:24707   */\n      0x00\n        /* \"#utility.yul\":24723:24743   */\n      tag_644\n        /* \"#utility.yul\":24741:24742   */\n      dup3\n        /* \"#utility.yul\":24723:24743   */\n      tag_341\n      jump\t// in\n    tag_644:\n        /* \"#utility.yul\":24718:24743   */\n      swap2\n      pop\n        /* \"#utility.yul\":24757:24777   */\n      tag_645\n        /* \"#utility.yul\":24775:24776   */\n      dup4\n        /* \"#utility.yul\":24757:24777   */\n      tag_341\n      jump\t// in\n    tag_645:\n        /* \"#utility.yul\":24752:24777   */\n      swap3\n      pop\n        /* \"#utility.yul\":24796:24797   */\n      dup3\n        /* \"#utility.yul\":24786:24821   */\n      tag_646\n      jumpi\n        /* \"#utility.yul\":24801:24819   */\n      tag_647\n      tag_369\n      jump\t// in\n    tag_647:\n        /* \"#utility.yul\":24786:24821   */\n    tag_646:\n        /* \"#utility.yul\":24842:24843   */\n      dup3\n        /* \"#utility.yul\":24839:24840   */\n      dup3\n        /* \"#utility.yul\":24835:24844   */\n      mod\n        /* \"#utility.yul\":24830:24844   */\n      swap1\n      pop\n        /* \"#utility.yul\":24674:24850   */\n      swap3\n      swap2\n      pop\n      pop\n      jump\t// out\n        /* \"#utility.yul\":24856:25266   */\n    tag_261:\n        /* \"#utility.yul\":24896:24903   */\n      0x00\n        /* \"#utility.yul\":24919:24939   */\n      tag_649\n        /* \"#utility.yul\":24937:24938   */\n      dup3\n        /* \"#utility.yul\":24919:24939   */\n      tag_341\n      jump\t// in\n    tag_649:\n        /* \"#utility.yul\":24914:24939   */\n      swap2\n      pop\n        /* \"#utility.yul\":24953:24973   */\n      tag_650\n        /* \"#utility.yul\":24971:24972   */\n      dup4\n        /* \"#utility.yul\":24953:24973   */\n      tag_341\n      jump\t// in\n    tag_650:\n        /* \"#utility.yul\":24948:24973   */\n      swap3\n      pop\n        /* \"#utility.yul\":25008:25009   */\n      dup3\n        /* \"#utility.yul\":25005:25006   */\n      dup3\n        /* \"#utility.yul\":25001:25010   */\n      mul\n        /* \"#utility.yul\":25030:25060   */\n      tag_651\n        /* \"#utility.yul\":25048:25059   */\n      dup2\n        /* \"#utility.yul\":25030:25060   */\n      tag_341\n      jump\t// in\n    tag_651:\n        /* \"#utility.yul\":25019:25060   */\n      swap2\n      pop\n        /* \"#utility.yul\":25209:25210   */\n      dup3\n        /* \"#utility.yul\":25200:25207   */\n      dup3\n        /* \"#utility.yul\":25196:25211   */\n      div\n        /* \"#utility.yul\":25193:25194   */\n      dup5\n        /* \"#utility.yul\":25190:25212   */\n      eq\n        /* \"#utility.yul\":25170:25171   */\n      dup4\n        /* \"#utility.yul\":25163:25172   */\n      iszero\n        /* \"#utility.yul\":25143:25226   */\n      or\n        /* \"#utility.yul\":25120:25259   */\n      tag_652\n      jumpi\n        /* \"#utility.yul\":25239:25257   */\n      tag_653\n      tag_359\n      jump\t// in\n    tag_653:\n        /* \"#utility.yul\":25120:25259   */\n    tag_652:\n        /* \"#utility.yul\":24904:25266   */\n      pop\n        /* \"#utility.yul\":24856:25266   */\n      swap3\n      swap2\n      pop\n      pop\n      jump\t// out\n        /* \"#utility.yul\":25272:25374   */\n    tag_370:\n        /* \"#utility.yul\":25314:25322   */\n      0x00\n        /* \"#utility.yul\":25361:25366   */\n      dup2\n        /* \"#utility.yul\":25358:25359   */\n      0x01\n        /* \"#utility.yul\":25354:25367   */\n      shr\n        /* \"#utility.yul\":25333:25367   */\n      swap1\n      pop\n        /* \"#utility.yul\":25272:25374   */\n      swap2\n      swap1\n      pop\n      jump\t// out\n        /* \"#utility.yul\":25380:26228   */\n    tag_371:\n        /* \"#utility.yul\":25441:25446   */\n      0x00\n        /* \"#utility.yul\":25448:25452   */\n      dup1\n        /* \"#utility.yul\":25472:25478   */\n      dup3\n        /* \"#utility.yul\":25463:25478   */\n      swap2\n      pop\n        /* \"#utility.yul\":25496:25501   */\n      dup4\n        /* \"#utility.yul\":25487:25501   */\n      swap1\n      pop\n        /* \"#utility.yul\":25510:26222   */\n    tag_656:\n        /* \"#utility.yul\":25531:25532   */\n      0x01\n        /* \"#utility.yul\":25521:25529   */\n      dup6\n        /* \"#utility.yul\":25518:25533   */\n      gt\n        /* \"#utility.yul\":25510:26222   */\n      iszero\n      tag_658\n      jumpi\n        /* \"#utility.yul\":25626:25630   */\n      dup1\n        /* \"#utility.yul\":25621:25624   */\n      dup7\n        /* \"#utility.yul\":25617:25631   */\n      div\n        /* \"#utility.yul\":25611:25615   */\n      dup2\n        /* \"#utility.yul\":25608:25632   */\n      gt\n        /* \"#utility.yul\":25605:25655   */\n      iszero\n      tag_659\n      jumpi\n        /* \"#utility.yul\":25635:25653   */\n      tag_660\n      tag_359\n      jump\t// in\n    tag_660:\n        /* \"#utility.yul\":25605:25655   */\n    tag_659:\n        /* \"#utility.yul\":25685:25686   */\n      0x01\n        /* \"#utility.yul\":25675:25683   */\n      dup6\n        /* \"#utility.yul\":25671:25687   */\n      and\n        /* \"#utility.yul\":25668:26119   */\n      iszero\n      tag_661\n      jumpi\n        /* \"#utility.yul\":26100:26104   */\n      dup1\n        /* \"#utility.yul\":26093:26098   */\n      dup3\n        /* \"#utility.yul\":26089:26105   */\n      mul\n        /* \"#utility.yul\":26080:26105   */\n      swap2\n      pop\n        /* \"#utility.yul\":25668:26119   */\n    tag_661:\n        /* \"#utility.yul\":26150:26154   */\n      dup1\n        /* \"#utility.yul\":26144:26148   */\n      dup2\n        /* \"#utility.yul\":26140:26155   */\n      mul\n        /* \"#utility.yul\":26132:26155   */\n      swap1\n      pop\n        /* \"#utility.yul\":26180:26212   */\n      tag_662\n        /* \"#utility.yul\":26203:26211   */\n      dup6\n        /* \"#utility.yul\":26180:26212   */\n      tag_370\n      jump\t// in\n    tag_662:\n        /* \"#utility.yul\":26168:26212   */\n      swap5\n      pop\n        /* \"#utility.yul\":25510:26222   */\n      jump(tag_656)\n    tag_658:\n        /* \"#utility.yul\":25380:26228   */\n      swap5\n      pop\n      swap5\n      swap3\n      pop\n      pop\n      pop\n      jump\t// out\n        /* \"#utility.yul\":26234:27307   */\n    tag_372:\n        /* \"#utility.yul\":26288:26293   */\n      0x00\n        /* \"#utility.yul\":26479:26487   */\n      dup3\n        /* \"#utility.yul\":26469:26509   */\n      tag_664\n      jumpi\n        /* \"#utility.yul\":26500:26501   */\n      0x01\n        /* \"#utility.yul\":26491:26501   */\n      swap1\n      pop\n        /* \"#utility.yul\":26502:26507   */\n      jump(tag_663)\n        /* \"#utility.yul\":26469:26509   */\n    tag_664:\n        /* \"#utility.yul\":26528:26532   */\n      dup2\n        /* \"#utility.yul\":26518:26554   */\n      tag_665\n      jumpi\n        /* \"#utility.yul\":26545:26546   */\n      0x00\n        /* \"#utility.yul\":26536:26546   */\n      swap1\n      pop\n        /* \"#utility.yul\":26547:26552   */\n      jump(tag_663)\n        /* \"#utility.yul\":26518:26554   */\n    tag_665:\n        /* \"#utility.yul\":26614:26618   */\n      dup2\n        /* \"#utility.yul\":26662:26663   */\n      0x01\n        /* \"#utility.yul\":26657:26684   */\n      dup2\n      eq\n      tag_667\n      jumpi\n        /* \"#utility.yul\":26698:26699   */\n      0x02\n        /* \"#utility.yul\":26693:26884   */\n      dup2\n      eq\n      tag_668\n      jumpi\n        /* \"#utility.yul\":26607:26884   */\n      jump(tag_666)\n        /* \"#utility.yul\":26657:26684   */\n    tag_667:\n        /* \"#utility.yul\":26675:26676   */\n      0x01\n        /* \"#utility.yul\":26666:26676   */\n      swap2\n      pop\n        /* \"#utility.yul\":26677:26682   */\n      pop\n      jump(tag_663)\n        /* \"#utility.yul\":26693:26884   */\n    tag_668:\n        /* \"#utility.yul\":26738:26741   */\n      0xff\n        /* \"#utility.yul\":26728:26736   */\n      dup5\n        /* \"#utility.yul\":26725:26742   */\n      gt\n        /* \"#utility.yul\":26722:26765   */\n      iszero\n      tag_669\n      jumpi\n        /* \"#utility.yul\":26745:26763   */\n      tag_670\n      tag_359\n      jump\t// in\n    tag_670:\n        /* \"#utility.yul\":26722:26765   */\n    tag_669:\n        /* \"#utility.yul\":26794:26802   */\n      dup4\n        /* \"#utility.yul\":26791:26792   */\n      0x02\n        /* \"#utility.yul\":26787:26803   */\n      exp\n        /* \"#utility.yul\":26778:26803   */\n      swap2\n      pop\n        /* \"#utility.yul\":26829:26832   */\n      dup5\n        /* \"#utility.yul\":26822:26827   */\n      dup3\n        /* \"#utility.yul\":26819:26833   */\n      gt\n        /* \"#utility.yul\":26816:26856   */\n      iszero\n      tag_671\n      jumpi\n        /* \"#utility.yul\":26836:26854   */\n      tag_672\n      tag_359\n      jump\t// in\n    tag_672:\n        /* \"#utility.yul\":26816:26856   */\n    tag_671:\n        /* \"#utility.yul\":26869:26874   */\n      pop\n      jump(tag_663)\n        /* \"#utility.yul\":26607:26884   */\n    tag_666:\n      pop\n        /* \"#utility.yul\":26993:26995   */\n      0x20\n        /* \"#utility.yul\":26983:26991   */\n      dup4\n        /* \"#utility.yul\":26980:26996   */\n      lt\n        /* \"#utility.yul\":26974:26977   */\n      0x0133\n        /* \"#utility.yul\":26968:26972   */\n      dup4\n        /* \"#utility.yul\":26965:26978   */\n      lt\n        /* \"#utility.yul\":26961:26997   */\n      and\n        /* \"#utility.yul\":26943:26945   */\n      0x4e\n        /* \"#utility.yul\":26933:26941   */\n      dup5\n        /* \"#utility.yul\":26930:26946   */\n      lt\n        /* \"#utility.yul\":26925:26927   */\n      0x0b\n        /* \"#utility.yul\":26919:26923   */\n      dup5\n        /* \"#utility.yul\":26916:26928   */\n      lt\n        /* \"#utility.yul\":26912:26947   */\n      and\n        /* \"#utility.yul\":26896:27007   */\n      or\n        /* \"#utility.yul\":26893:27139   */\n      iszero\n      tag_673\n      jumpi\n        /* \"#utility.yul\":27049:27057   */\n      dup3\n        /* \"#utility.yul\":27043:27047   */\n      dup3\n        /* \"#utility.yul\":27039:27058   */\n      exp\n        /* \"#utility.yul\":27030:27058   */\n      swap1\n      pop\n        /* \"#utility.yul\":27084:27087   */\n      dup4\n        /* \"#utility.yul\":27077:27082   */\n      dup2\n        /* \"#utility.yul\":27074:27088   */\n      gt\n        /* \"#utility.yul\":27071:27111   */\n      iszero\n      tag_674\n      jumpi\n        /* \"#utility.yul\":27091:27109   */\n      tag_675\n      tag_359\n      jump\t// in\n    tag_675:\n        /* \"#utility.yul\":27071:27111   */\n    tag_674:\n        /* \"#utility.yul\":27124:27129   */\n      jump(tag_663)\n        /* \"#utility.yul\":26893:27139   */\n    tag_673:\n        /* \"#utility.yul\":27164:27206   */\n      tag_676\n        /* \"#utility.yul\":27202:27205   */\n      dup5\n        /* \"#utility.yul\":27192:27200   */\n      dup5\n        /* \"#utility.yul\":27186:27190   */\n      dup5\n        /* \"#utility.yul\":27183:27184   */\n      0x01\n        /* \"#utility.yul\":27164:27206   */\n      tag_371\n      jump\t// in\n    tag_676:\n        /* \"#utility.yul\":27149:27206   */\n      swap3\n      pop\n      swap1\n      pop\n        /* \"#utility.yul\":27238:27242   */\n      dup2\n        /* \"#utility.yul\":27233:27236   */\n      dup5\n        /* \"#utility.yul\":27229:27243   */\n      div\n        /* \"#utility.yul\":27222:27227   */\n      dup2\n        /* \"#utility.yul\":27219:27244   */\n      gt\n        /* \"#utility.yul\":27216:27267   */\n      iszero\n      tag_677\n      jumpi\n        /* \"#utility.yul\":27247:27265   */\n      tag_678\n      tag_359\n      jump\t// in\n    tag_678:\n        /* \"#utility.yul\":27216:27267   */\n    tag_677:\n        /* \"#utility.yul\":27296:27300   */\n      dup2\n        /* \"#utility.yul\":27289:27294   */\n      dup2\n        /* \"#utility.yul\":27285:27301   */\n      mul\n        /* \"#utility.yul\":27276:27301   */\n      swap1\n      pop\n        /* \"#utility.yul\":26234:27307   */\n    tag_663:\n      swap4\n      swap3\n      pop\n      pop\n      pop\n      jump\t// out\n        /* \"#utility.yul\":27313:27598   */\n    tag_273:\n        /* \"#utility.yul\":27373:27378   */\n      0x00\n        /* \"#utility.yul\":27397:27420   */\n      tag_680\n        /* \"#utility.yul\":27415:27419   */\n      dup3\n        /* \"#utility.yul\":27397:27420   */\n      tag_341\n      jump\t// in\n    tag_680:\n        /* \"#utility.yul\":27389:27420   */\n      swap2\n      pop\n        /* \"#utility.yul\":27441:27468   */\n      tag_681\n        /* \"#utility.yul\":27459:27467   */\n      dup4\n        /* \"#utility.yul\":27441:27468   */\n      tag_341\n      jump\t// in\n    tag_681:\n        /* \"#utility.yul\":27429:27468   */\n      swap3\n      pop\n        /* \"#utility.yul\":27487:27591   */\n      tag_682\n        /* \"#utility.yul\":27524:27590   */\n      0xffffffffffffffffffffffffffffffffffffffffffffffffffffffffffffffff\n        /* \"#utility.yul\":27514:27522   */\n      dup5\n        /* \"#utility.yul\":27508:27512   */\n      dup5\n        /* \"#utility.yul\":27487:27591   */\n      tag_372\n      jump\t// in\n    tag_682:\n        /* \"#utility.yul\":27478:27591   */\n      swap1\n      pop\n        /* \"#utility.yul\":27313:27598   */\n      swap3\n      swap2\n      pop\n      pop\n      jump\t// out\n\n    auxdata: 0xa2646970667358221220f4a67320a0d202505db843cdf3a9d53ed43570bd6e9bb137913b558a42e4375064736f6c63430008130033\n}\n",
				"bytecode": {
					"linkReferences": {},
					"object": "60a060405273a9d587a00a31a52ed70d6026794a8fc5e2f5dcb0600560006101000a81548173ffffffffffffffffffffffffffffffffffffffff021916908373ffffffffffffffffffffffffffffffffffffffff16021790555060405180610100016040528060d6815260200162002d9760d6913960069081620000849190620005e5565b50620493e0600760006101000a81548163ffffffff021916908363ffffffff1602179055507f66756e2d6176616c616e6368652d66756a692d3100000000000000000000000060001b600855348015620000dd57600080fd5b5033806000600560009054906101000a900473ffffffffffffffffffffffffffffffffffffffff168073ffffffffffffffffffffffffffffffffffffffff1660808173ffffffffffffffffffffffffffffffffffffffff168152505050600073ffffffffffffffffffffffffffffffffffffffff168273ffffffffffffffffffffffffffffffffffffffff1603620001ac576040517f08c379a0000000000000000000000000000000000000000000000000000000008152600401620001a3906200072d565b60405180910390fd5b816000806101000a81548173ffffffffffffffffffffffffffffffffffffffff021916908373ffffffffffffffffffffffffffffffffffffffff160217905550600073ffffffffffffffffffffffffffffffffffffffff168173ffffffffffffffffffffffffffffffffffffffff1614620002335762000232816200023c60201b60201c565b5b505050620007c1565b3373ffffffffffffffffffffffffffffffffffffffff168173ffffffffffffffffffffffffffffffffffffffff1603620002ad576040517f08c379a0000000000000000000000000000000000000000000000000000000008152600401620002a4906200079f565b60405180910390fd5b80600160006101000a81548173ffffffffffffffffffffffffffffffffffffffff021916908373ffffffffffffffffffffffffffffffffffffffff1602179055508073ffffffffffffffffffffffffffffffffffffffff1660008054906101000a900473ffffffffffffffffffffffffffffffffffffffff1673ffffffffffffffffffffffffffffffffffffffff167fed8889f560326eb138920d842192f0eb3dd22b4f139c87a2c57538e05bae127860405160405180910390a350565b600081519050919050565b7f4e487b7100000000000000000000000000000000000000000000000000000000600052604160045260246000fd5b7f4e487b7100000000000000000000000000000000000000000000000000000000600052602260045260246000fd5b60006002820490506001821680620003ed57607f821691505b602082108103620004035762000402620003a5565b5b50919050565b60008190508160005260206000209050919050565b60006020601f8301049050919050565b600082821b905092915050565b6000600883026200046d7fffffffffffffffffffffffffffffffffffffffffffffffffffffffffffffffff826200042e565b6200047986836200042e565b95508019841693508086168417925050509392505050565b6000819050919050565b6000819050919050565b6000620004c6620004c0620004ba8462000491565b6200049b565b62000491565b9050919050565b6000819050919050565b620004e283620004a5565b620004fa620004f182620004cd565b8484546200043b565b825550505050565b600090565b6200051162000502565b6200051e818484620004d7565b505050565b5b8181101562000546576200053a60008262000507565b60018101905062000524565b5050565b601f82111562000595576200055f8162000409565b6200056a846200041e565b810160208510156200057a578190505b6200059262000589856200041e565b83018262000523565b50505b505050565b600082821c905092915050565b6000620005ba600019846008026200059a565b1980831691505092915050565b6000620005d58383620005a7565b9150826002028217905092915050565b620005f0826200036b565b67ffffffffffffffff8111156200060c576200060b62000376565b5b620006188254620003d4565b620006258282856200054a565b600060209050601f8311600181146200065d576000841562000648578287015190505b620006548582620005c7565b865550620006c4565b601f1984166200066d8662000409565b60005b82811015620006975784890151825560018201915060208501945060208101905062000670565b86831015620006b75784890151620006b3601f891682620005a7565b8355505b6001600288020188555050505b505050505050565b600082825260208201905092915050565b7f43616e6e6f7420736574206f776e657220746f207a65726f0000000000000000600082015250565b600062000715601883620006cc565b91506200072282620006dd565b602082019050919050565b60006020820190508181036000830152620007488162000706565b9050919050565b7f43616e6e6f74207472616e7366657220746f2073656c66000000000000000000600082015250565b600062000787601783620006cc565b915062000794826200074f565b602082019050919050565b60006020820190508181036000830152620007ba8162000778565b9050919050565b6080516125b3620007e4600039600081816101cb0152610d7c01526125b36000f3fe608060405234801561001057600080fd5b506004361061009e5760003560e01c806373e3ce801161006657806373e3ce801461014957806379ba5097146101675780638da5cb5b14610171578063b1e217491461018f578063f2fde38b146101ad5761009e565b80630ca76175146100a35780631041a361146100bf5780632f9d6254146100dd5780633944ea3a1461010d5780634b0795a81461012b575b600080fd5b6100bd60048036038101906100b8919061173d565b6101c9565b005b6100c761028b565b6040516100d491906117e3565b60405180910390f35b6100f760048036038101906100f2919061183e565b6102a3565b604051610104919061187a565b60405180910390f35b610115610390565b6040516101229190611914565b60405180910390f35b61013361041e565b6040516101409190611914565b60405180910390f35b6101516104ac565b60405161015e919061198b565b60405180910390f35b61016f61053a565b005b6101796106cf565b60405161018691906119ee565b60405180910390f35b6101976106f8565b6040516101a4919061187a565b60405180910390f35b6101c760048036038101906101c29190611a35565b6106fe565b005b7f000000000000000000000000000000000000000000000000000000000000000073ffffffffffffffffffffffffffffffffffffffff163373ffffffffffffffffffffffffffffffffffffffff161461024e576040517fc6829f8300000000000000000000000000000000000000000000000000000000815260040160405180910390fd5b610259838383610712565b827f85e1543bf2f84fe80c6badbce3648c8539ad1df4d2b3d822938ca0538be727e660405160405180910390a2505050565b6000806009805461029b90611a91565b905011905090565b60006102ad610821565b6102b5611501565b610357600080600680546102c890611a91565b80601f01602080910402602001604051908101604052809291908181526020018280546102f490611a91565b80156103415780601f1061031657610100808354040283529160200191610341565b820191906000526020600020905b81548152906001019060200180831161032457829003601f168201915b5050505050846108b1909392919063ffffffff16565b61037f6103638261095b565b84600760009054906101000a900463ffffffff16600854610d77565b600281905550600254915050919050565b6003805461039d90611a91565b80601f01602080910402602001604051908101604052809291908181526020018280546103c990611a91565b80156104165780601f106103eb57610100808354040283529160200191610416565b820191906000526020600020905b8154815290600101906020018083116103f957829003601f168201915b505050505081565b6004805461042b90611a91565b80601f016020809104026020016040519081016040528092919081815260200182805461045790611a91565b80156104a45780601f10610479576101008083540402835291602001916104a4565b820191906000526020600020905b81548152906001019060200180831161048757829003601f168201915b505050505081565b600980546104b990611a91565b80601f01602080910402602001604051908101604052809291908181526020018280546104e590611a91565b80156105325780601f1061050757610100808354040283529160200191610532565b820191906000526020600020905b81548152906001019060200180831161051557829003601f168201915b505050505081565b600160009054906101000a900473ffffffffffffffffffffffffffffffffffffffff1673ffffffffffffffffffffffffffffffffffffffff163373ffffffffffffffffffffffffffffffffffffffff16146105ca576040517f08c379a00000000000000000000000000000000000000000000000000000000081526004016105c190611b0e565b60405180910390fd5b60008060009054906101000a900473ffffffffffffffffffffffffffffffffffffffff169050336000806101000a81548173ffffffffffffffffffffffffffffffffffffffff021916908373ffffffffffffffffffffffffffffffffffffffff1602179055506000600160006101000a81548173ffffffffffffffffffffffffffffffffffffffff021916908373ffffffffffffffffffffffffffffffffffffffff1602179055503373ffffffffffffffffffffffffffffffffffffffff168173ffffffffffffffffffffffffffffffffffffffff167f8be0079c531659141344cd1fd0a4f28419497f9722a3daafe3b4186f6b6457e060405160405180910390a350565b60008060009054906101000a900473ffffffffffffffffffffffffffffffffffffffff16905090565b60025481565b610706610821565b61070f81610e5a565b50565b826002541461075857826040517fd068bf5b00000000000000000000000000000000000000000000000000000000815260040161074f919061187a565b60405180910390fd5b81600390816107679190611ce4565b506000825111156107875781600990816107819190611e11565b506107cd565b6040518060400160405280601081526020017f4e6f206661637420726563656976656400000000000000000000000000000000815250600990816107cb9190611e11565b505b80600490816107dc9190611ce4565b50827f160ed0aaffbef6885155188b91459cb5a97d5daadccf7561d8c46deea6641b5060096003600460405161081493929190611feb565b60405180910390a2505050565b60008054906101000a900473ffffffffffffffffffffffffffffffffffffffff1673ffffffffffffffffffffffffffffffffffffffff163373ffffffffffffffffffffffffffffffffffffffff16146108af576040517f08c379a00000000000000000000000000000000000000000000000000000000081526004016108a690612083565b60405180910390fd5b565b60008151036108ec576040517f22ce3edd00000000000000000000000000000000000000000000000000000000815260040160405180910390fd5b8284600001906002811115610904576109036120a3565b5b90816002811115610918576109176120a3565b5b815250508184604001906000811115610934576109336120a3565b5b90816000811115610948576109476120a3565b5b8152505080846060018190525050505050565b6060600061096a610100610f86565b90506109b46040518060400160405280600c81526020017f636f64654c6f636174696f6e000000000000000000000000000000000000000081525082610fad90919063ffffffff16565b6109dd836000015160028111156109ce576109cd6120a3565b5b82610fd690919063ffffffff16565b610a256040518060400160405280600881526020017f6c616e677561676500000000000000000000000000000000000000000000000081525082610fad90919063ffffffff16565b610a4e83604001516000811115610a3f57610a3e6120a3565b5b82610fd690919063ffffffff16565b610a966040518060400160405280600681526020017f736f75726365000000000000000000000000000000000000000000000000000081525082610fad90919063ffffffff16565b610aad836060015182610fad90919063ffffffff16565b60008360a00151511115610b6957610b036040518060400160405280600481526020017f617267730000000000000000000000000000000000000000000000000000000081525082610fad90919063ffffffff16565b610b0c81611026565b60005b8360a0015151811015610b5e57610b4d8460a001518281518110610b3657610b356120d2565b5b602002602001015183610fad90919063ffffffff16565b80610b5790612130565b9050610b0f565b50610b688161104e565b5b60008360800151511115610caa5760006002811115610b8b57610b8a6120a3565b5b83602001516002811115610ba257610ba16120a3565b5b03610bd9576040517fa80d31f700000000000000000000000000000000000000000000000000000000815260040160405180910390fd5b610c216040518060400160405280600f81526020017f736563726574734c6f636174696f6e000000000000000000000000000000000081525082610fad90919063ffffffff16565b610c4a83602001516002811115610c3b57610c3a6120a3565b5b82610fd690919063ffffffff16565b610c926040518060400160405280600781526020017f736563726574730000000000000000000000000000000000000000000000000081525082610fad90919063ffffffff16565b610ca983608001518261107690919063ffffffff16565b5b60008360c00151511115610d6657610d006040518060400160405280600981526020017f627974657341726773000000000000000000000000000000000000000000000081525082610fad90919063ffffffff16565b610d0981611026565b60005b8360c0015151811015610d5b57610d4a8460c001518281518110610d3357610d326120d2565b5b60200260200101518361107690919063ffffffff16565b80610d5490612130565b9050610d0c565b50610d658161104e565b5b806000015160000151915050919050565b6000807f000000000000000000000000000000000000000000000000000000000000000073ffffffffffffffffffffffffffffffffffffffff1663461d27628688600188886040518663ffffffff1660e01b8152600401610ddc9594939291906121c3565b6020604051808303816000875af1158015610dfb573d6000803e3d6000fd5b505050506040513d601f19601f82011682018060405250810190610e1f9190612232565b9050807f1131472297a800fee664d1d89cfa8f7676ff07189ecc53f80bbb5f4969099db860405160405180910390a280915050949350505050565b3373ffffffffffffffffffffffffffffffffffffffff168173ffffffffffffffffffffffffffffffffffffffff1603610ec8576040517f08c379a0000000000000000000000000000000000000000000000000000000008152600401610ebf906122ab565b60405180910390fd5b80600160006101000a81548173ffffffffffffffffffffffffffffffffffffffff021916908373ffffffffffffffffffffffffffffffffffffffff1602179055508073ffffffffffffffffffffffffffffffffffffffff1660008054906101000a900473ffffffffffffffffffffffffffffffffffffffff1673ffffffffffffffffffffffffffffffffffffffff167fed8889f560326eb138920d842192f0eb3dd22b4f139c87a2c57538e05bae127860405160405180910390a350565b610f8e611573565b610f9c81600001518361109f565b506000816020018181525050919050565b610fba8260038351611118565b610fd18183600001516112c190919063ffffffff16565b505050565b610ff860026005600660ff16901b1783600001516112dd90919063ffffffff16565b50611022828260405160200161100e91906122da565b604051602081830303815290604052611076565b5050565b611031816004611347565b60018160200181815161104491906122f5565b9150818152505050565b611059816007611347565b60018160200181815161106c9190612329565b9150818152505050565b6110838260028351611118565b61109a8183600001516112c190919063ffffffff16565b505050565b6110a7611593565b60006020836110b6919061238c565b146110e2576020826110c8919061238c565b60206110d49190612329565b826110df91906122f5565b91505b81836020018181525050604051808452600081528281016020018181101561110957600080fd5b80604052505082905092915050565b60178167ffffffffffffffff16116111535761114d8160058460ff16901b60ff161784600001516112dd90919063ffffffff16565b506112bc565b60ff8167ffffffffffffffff16116111b157611186601860058460ff16901b1784600001516112dd90919063ffffffff16565b506111ab8167ffffffffffffffff166001856000015161136d9092919063ffffffff16565b506112bb565b61ffff8167ffffffffffffffff1611611210576111e5601960058460ff16901b1784600001516112dd90919063ffffffff16565b5061120a8167ffffffffffffffff166002856000015161136d9092919063ffffffff16565b506112ba565b63ffffffff8167ffffffffffffffff161161127157611246601a60058460ff16901b1784600001516112dd90919063ffffffff16565b5061126b8167ffffffffffffffff166004856000015161136d9092919063ffffffff16565b506112b9565b611292601b60058460ff16901b1784600001516112dd90919063ffffffff16565b506112b78167ffffffffffffffff166008856000015161136d9092919063ffffffff16565b505b5b5b5b505050565b6112c9611593565b6112d5838384516113fa565b905092915050565b6112e5611593565b6000836000015151905060006001826112fe91906122f5565b905084602001518210611322576113218560028361131c91906123bd565b6114dd565b5b8451602083820101858153815183111561133a578282525b5050849250505092915050565b611368601f60058360ff16901b1783600001516112dd90919063ffffffff16565b505050565b611375611593565b600084600001515190506000818461138d91906122f5565b905085602001518111156113b2576113b1866002836113ac91906123bd565b6114dd565b5b60006001856101006113c49190612532565b6113ce9190612329565b9050865182810187831982511617815281518411156113eb578382525b50508693505050509392505050565b611402611593565b825182111561141057600080fd5b600084600001515190506000838261142891906122f5565b9050856020015181111561144d5761144c8660028361144791906123bd565b6114dd565b5b60008087518051856020830101935080851115611468578482525b60208901925050505b602086106114af578051825260208261148a91906122f5565b915060208161149991906122f5565b90506020866114a89190612329565b9550611471565b60006001876020036101000a0390508019825116818451168181178552505050879450505050509392505050565b6000826000015190506114f0838361109f565b506114fb83826112c1565b50505050565b6040518060e00160405280600060028111156115205761151f6120a3565b5b815260200160006002811115611539576115386120a3565b5b8152602001600080811115611551576115506120a3565b5b8152602001606081526020016060815260200160608152602001606081525090565b6040518060400160405280611586611593565b8152602001600081525090565b604051806040016040528060608152602001600081525090565b6000604051905090565b600080fd5b600080fd5b6000819050919050565b6115d4816115c1565b81146115df57600080fd5b50565b6000813590506115f1816115cb565b92915050565b600080fd5b600080fd5b6000601f19601f8301169050919050565b7f4e487b7100000000000000000000000000000000000000000000000000000000600052604160045260246000fd5b61164a82611601565b810181811067ffffffffffffffff8211171561166957611668611612565b5b80604052505050565b600061167c6115ad565b90506116888282611641565b919050565b600067ffffffffffffffff8211156116a8576116a7611612565b5b6116b182611601565b9050602081019050919050565b82818337600083830152505050565b60006116e06116db8461168d565b611672565b9050828152602081018484840111156116fc576116fb6115fc565b5b6117078482856116be565b509392505050565b600082601f830112611724576117236115f7565b5b81356117348482602086016116cd565b91505092915050565b600080600060608486031215611756576117556115b7565b5b6000611764868287016115e2565b935050602084013567ffffffffffffffff811115611785576117846115bc565b5b6117918682870161170f565b925050604084013567ffffffffffffffff8111156117b2576117b16115bc565b5b6117be8682870161170f565b9150509250925092565b60008115159050919050565b6117dd816117c8565b82525050565b60006020820190506117f860008301846117d4565b92915050565b600067ffffffffffffffff82169050919050565b61181b816117fe565b811461182657600080fd5b50565b60008135905061183881611812565b92915050565b600060208284031215611854576118536115b7565b5b600061186284828501611829565b91505092915050565b611874816115c1565b82525050565b600060208201905061188f600083018461186b565b92915050565b600081519050919050565b600082825260208201905092915050565b60005b838110156118cf5780820151818401526020810190506118b4565b60008484015250505050565b60006118e682611895565b6118f081856118a0565b93506119008185602086016118b1565b61190981611601565b840191505092915050565b6000602082019050818103600083015261192e81846118db565b905092915050565b600081519050919050565b600082825260208201905092915050565b600061195d82611936565b6119678185611941565b93506119778185602086016118b1565b61198081611601565b840191505092915050565b600060208201905081810360008301526119a58184611952565b905092915050565b600073ffffffffffffffffffffffffffffffffffffffff82169050919050565b60006119d8826119ad565b9050919050565b6119e8816119cd565b82525050565b6000602082019050611a0360008301846119df565b92915050565b611a12816119cd565b8114611a1d57600080fd5b50565b600081359050611a2f81611a09565b92915050565b600060208284031215611a4b57611a4a6115b7565b5b6000611a5984828501611a20565b91505092915050565b7f4e487b7100000000000000000000000000000000000000000000000000000000600052602260045260246000fd5b60006002820490506001821680611aa957607f821691505b602082108103611abc57611abb611a62565b5b50919050565b7f4d7573742062652070726f706f736564206f776e657200000000000000000000600082015250565b6000611af8601683611941565b9150611b0382611ac2565b602082019050919050565b60006020820190508181036000830152611b2781611aeb565b9050919050565b60008190508160005260206000209050919050565b60006020601f8301049050919050565b600082821b905092915050565b600060088302611b907fffffffffffffffffffffffffffffffffffffffffffffffffffffffffffffffff82611b53565b611b9a8683611b53565b95508019841693508086168417925050509392505050565b6000819050919050565b6000819050919050565b6000611be1611bdc611bd784611bb2565b611bbc565b611bb2565b9050919050565b6000819050919050565b611bfb83611bc6565b611c0f611c0782611be8565b848454611b60565b825550505050565b600090565b611c24611c17565b611c2f818484611bf2565b505050565b5b81811015611c5357611c48600082611c1c565b600181019050611c35565b5050565b601f821115611c9857611c6981611b2e565b611c7284611b43565b81016020851015611c81578190505b611c95611c8d85611b43565b830182611c34565b50505b505050565b600082821c905092915050565b6000611cbb60001984600802611c9d565b1980831691505092915050565b6000611cd48383611caa565b9150826002028217905092915050565b611ced82611895565b67ffffffffffffffff811115611d0657611d05611612565b5b611d108254611a91565b611d1b828285611c57565b600060209050601f831160018114611d4e5760008415611d3c578287015190505b611d468582611cc8565b865550611dae565b601f198416611d5c86611b2e565b60005b82811015611d8457848901518255600182019150602085019450602081019050611d5f565b86831015611da15784890151611d9d601f891682611caa565b8355505b6001600288020188555050505b505050505050565b60008190508160005260206000209050919050565b601f821115611e0c57611ddd81611db6565b611de684611b43565b81016020851015611df5578190505b611e09611e0185611b43565b830182611c34565b50505b505050565b611e1a82611936565b67ffffffffffffffff811115611e3357611e32611612565b5b611e3d8254611a91565b611e48828285611dcb565b600060209050601f831160018114611e7b5760008415611e69578287015190505b611e738582611cc8565b865550611edb565b601f198416611e8986611db6565b60005b82811015611eb157848901518255600182019150602085019450602081019050611e8c565b86831015611ece5784890151611eca601f891682611caa565b8355505b6001600288020188555050505b505050505050565b60008154611ef081611a91565b611efa8186611941565b94506001821660008114611f155760018114611f2b57611f5e565b60ff198316865281151560200286019350611f5e565b611f3485611db6565b60005b83811015611f5657815481890152600182019150602081019050611f37565b808801955050505b50505092915050565b60008154611f7481611a91565b611f7e81866118a0565b94506001821660008114611f995760018114611faf57611fe2565b60ff198316865281151560200286019350611fe2565b611fb885611b2e565b60005b83811015611fda57815481890152600182019150602081019050611fbb565b808801955050505b50505092915050565b600060608201905081810360008301526120058186611ee3565b905081810360208301526120198185611f67565b9050818103604083015261202d8184611f67565b9050949350505050565b7f4f6e6c792063616c6c61626c65206279206f776e657200000000000000000000600082015250565b600061206d601683611941565b915061207882612037565b602082019050919050565b6000602082019050818103600083015261209c81612060565b9050919050565b7f4e487b7100000000000000000000000000000000000000000000000000000000600052602160045260246000fd5b7f4e487b7100000000000000000000000000000000000000000000000000000000600052603260045260246000fd5b7f4e487b7100000000000000000000000000000000000000000000000000000000600052601160045260246000fd5b600061213b82611bb2565b91507fffffffffffffffffffffffffffffffffffffffffffffffffffffffffffffffff820361216d5761216c612101565b5b600182019050919050565b612181816117fe565b82525050565b600061ffff82169050919050565b61219e81612187565b82525050565b600063ffffffff82169050919050565b6121bd816121a4565b82525050565b600060a0820190506121d86000830188612178565b81810360208301526121ea81876118db565b90506121f96040830186612195565b61220660608301856121b4565b612213608083018461186b565b9695505050505050565b60008151905061222c816115cb565b92915050565b600060208284031215612248576122476115b7565b5b60006122568482850161221d565b91505092915050565b7f43616e6e6f74207472616e7366657220746f2073656c66000000000000000000600082015250565b6000612295601783611941565b91506122a08261225f565b602082019050919050565b600060208201905081810360008301526122c481612288565b9050919050565b6122d481611bb2565b82525050565b60006020820190506122ef60008301846122cb565b92915050565b600061230082611bb2565b915061230b83611bb2565b925082820190508082111561232357612322612101565b5b92915050565b600061233482611bb2565b915061233f83611bb2565b925082820390508181111561235757612356612101565b5b92915050565b7f4e487b7100000000000000000000000000000000000000000000000000000000600052601260045260246000fd5b600061239782611bb2565b91506123a283611bb2565b9250826123b2576123b161235d565b5b828206905092915050565b60006123c882611bb2565b91506123d383611bb2565b92508282026123e181611bb2565b915082820484148315176123f8576123f7612101565b5b5092915050565b60008160011c9050919050565b6000808291508390505b60018511156124565780860481111561243257612431612101565b5b60018516156124415780820291505b808102905061244f856123ff565b9450612416565b94509492505050565b60008261246f576001905061252b565b8161247d576000905061252b565b8160018114612493576002811461249d576124cc565b600191505061252b565b60ff8411156124af576124ae612101565b5b8360020a9150848211156124c6576124c5612101565b5b5061252b565b5060208310610133831016604e8410600b84101617156125015782820a9050838111156124fc576124fb612101565b5b61252b565b61250e848484600161240c565b9250905081840481111561252557612524612101565b5b81810290505b9392505050565b600061253d82611bb2565b915061254883611bb2565b92506125757fffffffffffffffffffffffffffffffffffffffffffffffffffffffffffffffff848461245f565b90509291505056fea2646970667358221220f4a67320a0d202505db843cdf3a9d53ed43570bd6e9bb137913b558a42e4375064736f6c63430008130033636f6e737420617069526573706f6e7365203d2061776169742046756e6374696f6e732e6d616b654874747052657175657374287b75726c3a206068747470733a2f2f636174666163742e6e696e6a612f666163742f607d293b69662028617069526573706f6e73652e6572726f7229207b7468726f77204572726f72282752657175657374206661696c656427293b7d636f6e7374207b2064617461207d203d20617069526573706f6e73653b72657475726e2046756e6374696f6e732e656e636f6465537472696e6728646174612e6661637429",
					"opcodes": "PUSH1 0xA0 PUSH1 0x40 MSTORE PUSH20 0xA9D587A00A31A52ED70D6026794A8FC5E2F5DCB0 PUSH1 0x5 PUSH1 0x0 PUSH2 0x100 EXP DUP2 SLOAD DUP2 PUSH20 0xFFFFFFFFFFFFFFFFFFFFFFFFFFFFFFFFFFFFFFFF MUL NOT AND SWAP1 DUP4 PUSH20 0xFFFFFFFFFFFFFFFFFFFFFFFFFFFFFFFFFFFFFFFF AND MUL OR SWAP1 SSTORE POP PUSH1 0x40 MLOAD DUP1 PUSH2 0x100 ADD PUSH1 0x40 MSTORE DUP1 PUSH1 0xD6 DUP2 MSTORE PUSH1 0x20 ADD PUSH3 0x2D97 PUSH1 0xD6 SWAP2 CODECOPY PUSH1 0x6 SWAP1 DUP2 PUSH3 0x84 SWAP2 SWAP1 PUSH3 0x5E5 JUMP JUMPDEST POP PUSH3 0x493E0 PUSH1 0x7 PUSH1 0x0 PUSH2 0x100 EXP DUP2 SLOAD DUP2 PUSH4 0xFFFFFFFF MUL NOT AND SWAP1 DUP4 PUSH4 0xFFFFFFFF AND MUL OR SWAP1 SSTORE POP PUSH32 0x66756E2D6176616C616E6368652D66756A692D31000000000000000000000000 PUSH1 0x0 SHL PUSH1 0x8 SSTORE CALLVALUE DUP1 ISZERO PUSH3 0xDD JUMPI PUSH1 0x0 DUP1 REVERT JUMPDEST POP CALLER DUP1 PUSH1 0x0 PUSH1 0x5 PUSH1 0x0 SWAP1 SLOAD SWAP1 PUSH2 0x100 EXP SWAP1 DIV PUSH20 0xFFFFFFFFFFFFFFFFFFFFFFFFFFFFFFFFFFFFFFFF AND DUP1 PUSH20 0xFFFFFFFFFFFFFFFFFFFFFFFFFFFFFFFFFFFFFFFF AND PUSH1 0x80 DUP2 PUSH20 0xFFFFFFFFFFFFFFFFFFFFFFFFFFFFFFFFFFFFFFFF AND DUP2 MSTORE POP POP POP PUSH1 0x0 PUSH20 0xFFFFFFFFFFFFFFFFFFFFFFFFFFFFFFFFFFFFFFFF AND DUP3 PUSH20 0xFFFFFFFFFFFFFFFFFFFFFFFFFFFFFFFFFFFFFFFF AND SUB PUSH3 0x1AC JUMPI PUSH1 0x40 MLOAD PUSH32 0x8C379A000000000000000000000000000000000000000000000000000000000 DUP2 MSTORE PUSH1 0x4 ADD PUSH3 0x1A3 SWAP1 PUSH3 0x72D JUMP JUMPDEST PUSH1 0x40 MLOAD DUP1 SWAP2 SUB SWAP1 REVERT JUMPDEST DUP2 PUSH1 0x0 DUP1 PUSH2 0x100 EXP DUP2 SLOAD DUP2 PUSH20 0xFFFFFFFFFFFFFFFFFFFFFFFFFFFFFFFFFFFFFFFF MUL NOT AND SWAP1 DUP4 PUSH20 0xFFFFFFFFFFFFFFFFFFFFFFFFFFFFFFFFFFFFFFFF AND MUL OR SWAP1 SSTORE POP PUSH1 0x0 PUSH20 0xFFFFFFFFFFFFFFFFFFFFFFFFFFFFFFFFFFFFFFFF AND DUP2 PUSH20 0xFFFFFFFFFFFFFFFFFFFFFFFFFFFFFFFFFFFFFFFF AND EQ PUSH3 0x233 JUMPI PUSH3 0x232 DUP2 PUSH3 0x23C PUSH1 0x20 SHL PUSH1 0x20 SHR JUMP JUMPDEST JUMPDEST POP POP POP PUSH3 0x7C1 JUMP JUMPDEST CALLER PUSH20 0xFFFFFFFFFFFFFFFFFFFFFFFFFFFFFFFFFFFFFFFF AND DUP2 PUSH20 0xFFFFFFFFFFFFFFFFFFFFFFFFFFFFFFFFFFFFFFFF AND SUB PUSH3 0x2AD JUMPI PUSH1 0x40 MLOAD PUSH32 0x8C379A000000000000000000000000000000000000000000000000000000000 DUP2 MSTORE PUSH1 0x4 ADD PUSH3 0x2A4 SWAP1 PUSH3 0x79F JUMP JUMPDEST PUSH1 0x40 MLOAD DUP1 SWAP2 SUB SWAP1 REVERT JUMPDEST DUP1 PUSH1 0x1 PUSH1 0x0 PUSH2 0x100 EXP DUP2 SLOAD DUP2 PUSH20 0xFFFFFFFFFFFFFFFFFFFFFFFFFFFFFFFFFFFFFFFF MUL NOT AND SWAP1 DUP4 PUSH20 0xFFFFFFFFFFFFFFFFFFFFFFFFFFFFFFFFFFFFFFFF AND MUL OR SWAP1 SSTORE POP DUP1 PUSH20 0xFFFFFFFFFFFFFFFFFFFFFFFFFFFFFFFFFFFFFFFF AND PUSH1 0x0 DUP1 SLOAD SWAP1 PUSH2 0x100 EXP SWAP1 DIV PUSH20 0xFFFFFFFFFFFFFFFFFFFFFFFFFFFFFFFFFFFFFFFF AND PUSH20 0xFFFFFFFFFFFFFFFFFFFFFFFFFFFFFFFFFFFFFFFF AND PUSH32 0xED8889F560326EB138920D842192F0EB3DD22B4F139C87A2C57538E05BAE1278 PUSH1 0x40 MLOAD PUSH1 0x40 MLOAD DUP1 SWAP2 SUB SWAP1 LOG3 POP JUMP JUMPDEST PUSH1 0x0 DUP2 MLOAD SWAP1 POP SWAP2 SWAP1 POP JUMP JUMPDEST PUSH32 0x4E487B7100000000000000000000000000000000000000000000000000000000 PUSH1 0x0 MSTORE PUSH1 0x41 PUSH1 0x4 MSTORE PUSH1 0x24 PUSH1 0x0 REVERT JUMPDEST PUSH32 0x4E487B7100000000000000000000000000000000000000000000000000000000 PUSH1 0x0 MSTORE PUSH1 0x22 PUSH1 0x4 MSTORE PUSH1 0x24 PUSH1 0x0 REVERT JUMPDEST PUSH1 0x0 PUSH1 0x2 DUP3 DIV SWAP1 POP PUSH1 0x1 DUP3 AND DUP1 PUSH3 0x3ED JUMPI PUSH1 0x7F DUP3 AND SWAP2 POP JUMPDEST PUSH1 0x20 DUP3 LT DUP2 SUB PUSH3 0x403 JUMPI PUSH3 0x402 PUSH3 0x3A5 JUMP JUMPDEST JUMPDEST POP SWAP2 SWAP1 POP JUMP JUMPDEST PUSH1 0x0 DUP2 SWAP1 POP DUP2 PUSH1 0x0 MSTORE PUSH1 0x20 PUSH1 0x0 KECCAK256 SWAP1 POP SWAP2 SWAP1 POP JUMP JUMPDEST PUSH1 0x0 PUSH1 0x20 PUSH1 0x1F DUP4 ADD DIV SWAP1 POP SWAP2 SWAP1 POP JUMP JUMPDEST PUSH1 0x0 DUP3 DUP3 SHL SWAP1 POP SWAP3 SWAP2 POP POP JUMP JUMPDEST PUSH1 0x0 PUSH1 0x8 DUP4 MUL PUSH3 0x46D PUSH32 0xFFFFFFFFFFFFFFFFFFFFFFFFFFFFFFFFFFFFFFFFFFFFFFFFFFFFFFFFFFFFFFFF DUP3 PUSH3 0x42E JUMP JUMPDEST PUSH3 0x479 DUP7 DUP4 PUSH3 0x42E JUMP JUMPDEST SWAP6 POP DUP1 NOT DUP5 AND SWAP4 POP DUP1 DUP7 AND DUP5 OR SWAP3 POP POP POP SWAP4 SWAP3 POP POP POP JUMP JUMPDEST PUSH1 0x0 DUP2 SWAP1 POP SWAP2 SWAP1 POP JUMP JUMPDEST PUSH1 0x0 DUP2 SWAP1 POP SWAP2 SWAP1 POP JUMP JUMPDEST PUSH1 0x0 PUSH3 0x4C6 PUSH3 0x4C0 PUSH3 0x4BA DUP5 PUSH3 0x491 JUMP JUMPDEST PUSH3 0x49B JUMP JUMPDEST PUSH3 0x491 JUMP JUMPDEST SWAP1 POP SWAP2 SWAP1 POP JUMP JUMPDEST PUSH1 0x0 DUP2 SWAP1 POP SWAP2 SWAP1 POP JUMP JUMPDEST PUSH3 0x4E2 DUP4 PUSH3 0x4A5 JUMP JUMPDEST PUSH3 0x4FA PUSH3 0x4F1 DUP3 PUSH3 0x4CD JUMP JUMPDEST DUP5 DUP5 SLOAD PUSH3 0x43B JUMP JUMPDEST DUP3 SSTORE POP POP POP POP JUMP JUMPDEST PUSH1 0x0 SWAP1 JUMP JUMPDEST PUSH3 0x511 PUSH3 0x502 JUMP JUMPDEST PUSH3 0x51E DUP2 DUP5 DUP5 PUSH3 0x4D7 JUMP JUMPDEST POP POP POP JUMP JUMPDEST JUMPDEST DUP2 DUP2 LT ISZERO PUSH3 0x546 JUMPI PUSH3 0x53A PUSH1 0x0 DUP3 PUSH3 0x507 JUMP JUMPDEST PUSH1 0x1 DUP2 ADD SWAP1 POP PUSH3 0x524 JUMP JUMPDEST POP POP JUMP JUMPDEST PUSH1 0x1F DUP3 GT ISZERO PUSH3 0x595 JUMPI PUSH3 0x55F DUP2 PUSH3 0x409 JUMP JUMPDEST PUSH3 0x56A DUP5 PUSH3 0x41E JUMP JUMPDEST DUP2 ADD PUSH1 0x20 DUP6 LT ISZERO PUSH3 0x57A JUMPI DUP2 SWAP1 POP JUMPDEST PUSH3 0x592 PUSH3 0x589 DUP6 PUSH3 0x41E JUMP JUMPDEST DUP4 ADD DUP3 PUSH3 0x523 JUMP JUMPDEST POP POP JUMPDEST POP POP POP JUMP JUMPDEST PUSH1 0x0 DUP3 DUP3 SHR SWAP1 POP SWAP3 SWAP2 POP POP JUMP JUMPDEST PUSH1 0x0 PUSH3 0x5BA PUSH1 0x0 NOT DUP5 PUSH1 0x8 MUL PUSH3 0x59A JUMP JUMPDEST NOT DUP1 DUP4 AND SWAP2 POP POP SWAP3 SWAP2 POP POP JUMP JUMPDEST PUSH1 0x0 PUSH3 0x5D5 DUP4 DUP4 PUSH3 0x5A7 JUMP JUMPDEST SWAP2 POP DUP3 PUSH1 0x2 MUL DUP3 OR SWAP1 POP SWAP3 SWAP2 POP POP JUMP JUMPDEST PUSH3 0x5F0 DUP3 PUSH3 0x36B JUMP JUMPDEST PUSH8 0xFFFFFFFFFFFFFFFF DUP2 GT ISZERO PUSH3 0x60C JUMPI PUSH3 0x60B PUSH3 0x376 JUMP JUMPDEST JUMPDEST PUSH3 0x618 DUP3 SLOAD PUSH3 0x3D4 JUMP JUMPDEST PUSH3 0x625 DUP3 DUP3 DUP6 PUSH3 0x54A JUMP JUMPDEST PUSH1 0x0 PUSH1 0x20 SWAP1 POP PUSH1 0x1F DUP4 GT PUSH1 0x1 DUP2 EQ PUSH3 0x65D JUMPI PUSH1 0x0 DUP5 ISZERO PUSH3 0x648 JUMPI DUP3 DUP8 ADD MLOAD SWAP1 POP JUMPDEST PUSH3 0x654 DUP6 DUP3 PUSH3 0x5C7 JUMP JUMPDEST DUP7 SSTORE POP PUSH3 0x6C4 JUMP JUMPDEST PUSH1 0x1F NOT DUP5 AND PUSH3 0x66D DUP7 PUSH3 0x409 JUMP JUMPDEST PUSH1 0x0 JUMPDEST DUP3 DUP2 LT ISZERO PUSH3 0x697 JUMPI DUP5 DUP10 ADD MLOAD DUP3 SSTORE PUSH1 0x1 DUP3 ADD SWAP2 POP PUSH1 0x20 DUP6 ADD SWAP5 POP PUSH1 0x20 DUP2 ADD SWAP1 POP PUSH3 0x670 JUMP JUMPDEST DUP7 DUP4 LT ISZERO PUSH3 0x6B7 JUMPI DUP5 DUP10 ADD MLOAD PUSH3 0x6B3 PUSH1 0x1F DUP10 AND DUP3 PUSH3 0x5A7 JUMP JUMPDEST DUP4 SSTORE POP JUMPDEST PUSH1 0x1 PUSH1 0x2 DUP9 MUL ADD DUP9 SSTORE POP POP POP JUMPDEST POP POP POP POP POP POP JUMP JUMPDEST PUSH1 0x0 DUP3 DUP3 MSTORE PUSH1 0x20 DUP3 ADD SWAP1 POP SWAP3 SWAP2 POP POP JUMP JUMPDEST PUSH32 0x43616E6E6F7420736574206F776E657220746F207A65726F0000000000000000 PUSH1 0x0 DUP3 ADD MSTORE POP JUMP JUMPDEST PUSH1 0x0 PUSH3 0x715 PUSH1 0x18 DUP4 PUSH3 0x6CC JUMP JUMPDEST SWAP2 POP PUSH3 0x722 DUP3 PUSH3 0x6DD JUMP JUMPDEST PUSH1 0x20 DUP3 ADD SWAP1 POP SWAP2 SWAP1 POP JUMP JUMPDEST PUSH1 0x0 PUSH1 0x20 DUP3 ADD SWAP1 POP DUP2 DUP2 SUB PUSH1 0x0 DUP4 ADD MSTORE PUSH3 0x748 DUP2 PUSH3 0x706 JUMP JUMPDEST SWAP1 POP SWAP2 SWAP1 POP JUMP JUMPDEST PUSH32 0x43616E6E6F74207472616E7366657220746F2073656C66000000000000000000 PUSH1 0x0 DUP3 ADD MSTORE POP JUMP JUMPDEST PUSH1 0x0 PUSH3 0x787 PUSH1 0x17 DUP4 PUSH3 0x6CC JUMP JUMPDEST SWAP2 POP PUSH3 0x794 DUP3 PUSH3 0x74F JUMP JUMPDEST PUSH1 0x20 DUP3 ADD SWAP1 POP SWAP2 SWAP1 POP JUMP JUMPDEST PUSH1 0x0 PUSH1 0x20 DUP3 ADD SWAP1 POP DUP2 DUP2 SUB PUSH1 0x0 DUP4 ADD MSTORE PUSH3 0x7BA DUP2 PUSH3 0x778 JUMP JUMPDEST SWAP1 POP SWAP2 SWAP1 POP JUMP JUMPDEST PUSH1 0x80 MLOAD PUSH2 0x25B3 PUSH3 0x7E4 PUSH1 0x0 CODECOPY PUSH1 0x0 DUP2 DUP2 PUSH2 0x1CB ADD MSTORE PUSH2 0xD7C ADD MSTORE PUSH2 0x25B3 PUSH1 0x0 RETURN INVALID PUSH1 0x80 PUSH1 0x40 MSTORE CALLVALUE DUP1 ISZERO PUSH2 0x10 JUMPI PUSH1 0x0 DUP1 REVERT JUMPDEST POP PUSH1 0x4 CALLDATASIZE LT PUSH2 0x9E JUMPI PUSH1 0x0 CALLDATALOAD PUSH1 0xE0 SHR DUP1 PUSH4 0x73E3CE80 GT PUSH2 0x66 JUMPI DUP1 PUSH4 0x73E3CE80 EQ PUSH2 0x149 JUMPI DUP1 PUSH4 0x79BA5097 EQ PUSH2 0x167 JUMPI DUP1 PUSH4 0x8DA5CB5B EQ PUSH2 0x171 JUMPI DUP1 PUSH4 0xB1E21749 EQ PUSH2 0x18F JUMPI DUP1 PUSH4 0xF2FDE38B EQ PUSH2 0x1AD JUMPI PUSH2 0x9E JUMP JUMPDEST DUP1 PUSH4 0xCA76175 EQ PUSH2 0xA3 JUMPI DUP1 PUSH4 0x1041A361 EQ PUSH2 0xBF JUMPI DUP1 PUSH4 0x2F9D6254 EQ PUSH2 0xDD JUMPI DUP1 PUSH4 0x3944EA3A EQ PUSH2 0x10D JUMPI DUP1 PUSH4 0x4B0795A8 EQ PUSH2 0x12B JUMPI JUMPDEST PUSH1 0x0 DUP1 REVERT JUMPDEST PUSH2 0xBD PUSH1 0x4 DUP1 CALLDATASIZE SUB DUP2 ADD SWAP1 PUSH2 0xB8 SWAP2 SWAP1 PUSH2 0x173D JUMP JUMPDEST PUSH2 0x1C9 JUMP JUMPDEST STOP JUMPDEST PUSH2 0xC7 PUSH2 0x28B JUMP JUMPDEST PUSH1 0x40 MLOAD PUSH2 0xD4 SWAP2 SWAP1 PUSH2 0x17E3 JUMP JUMPDEST PUSH1 0x40 MLOAD DUP1 SWAP2 SUB SWAP1 RETURN JUMPDEST PUSH2 0xF7 PUSH1 0x4 DUP1 CALLDATASIZE SUB DUP2 ADD SWAP1 PUSH2 0xF2 SWAP2 SWAP1 PUSH2 0x183E JUMP JUMPDEST PUSH2 0x2A3 JUMP JUMPDEST PUSH1 0x40 MLOAD PUSH2 0x104 SWAP2 SWAP1 PUSH2 0x187A JUMP JUMPDEST PUSH1 0x40 MLOAD DUP1 SWAP2 SUB SWAP1 RETURN JUMPDEST PUSH2 0x115 PUSH2 0x390 JUMP JUMPDEST PUSH1 0x40 MLOAD PUSH2 0x122 SWAP2 SWAP1 PUSH2 0x1914 JUMP JUMPDEST PUSH1 0x40 MLOAD DUP1 SWAP2 SUB SWAP1 RETURN JUMPDEST PUSH2 0x133 PUSH2 0x41E JUMP JUMPDEST PUSH1 0x40 MLOAD PUSH2 0x140 SWAP2 SWAP1 PUSH2 0x1914 JUMP JUMPDEST PUSH1 0x40 MLOAD DUP1 SWAP2 SUB SWAP1 RETURN JUMPDEST PUSH2 0x151 PUSH2 0x4AC JUMP JUMPDEST PUSH1 0x40 MLOAD PUSH2 0x15E SWAP2 SWAP1 PUSH2 0x198B JUMP JUMPDEST PUSH1 0x40 MLOAD DUP1 SWAP2 SUB SWAP1 RETURN JUMPDEST PUSH2 0x16F PUSH2 0x53A JUMP JUMPDEST STOP JUMPDEST PUSH2 0x179 PUSH2 0x6CF JUMP JUMPDEST PUSH1 0x40 MLOAD PUSH2 0x186 SWAP2 SWAP1 PUSH2 0x19EE JUMP JUMPDEST PUSH1 0x40 MLOAD DUP1 SWAP2 SUB SWAP1 RETURN JUMPDEST PUSH2 0x197 PUSH2 0x6F8 JUMP JUMPDEST PUSH1 0x40 MLOAD PUSH2 0x1A4 SWAP2 SWAP1 PUSH2 0x187A JUMP JUMPDEST PUSH1 0x40 MLOAD DUP1 SWAP2 SUB SWAP1 RETURN JUMPDEST PUSH2 0x1C7 PUSH1 0x4 DUP1 CALLDATASIZE SUB DUP2 ADD SWAP1 PUSH2 0x1C2 SWAP2 SWAP1 PUSH2 0x1A35 JUMP JUMPDEST PUSH2 0x6FE JUMP JUMPDEST STOP JUMPDEST PUSH32 0x0 PUSH20 0xFFFFFFFFFFFFFFFFFFFFFFFFFFFFFFFFFFFFFFFF AND CALLER PUSH20 0xFFFFFFFFFFFFFFFFFFFFFFFFFFFFFFFFFFFFFFFF AND EQ PUSH2 0x24E JUMPI PUSH1 0x40 MLOAD PUSH32 0xC6829F8300000000000000000000000000000000000000000000000000000000 DUP2 MSTORE PUSH1 0x4 ADD PUSH1 0x40 MLOAD DUP1 SWAP2 SUB SWAP1 REVERT JUMPDEST PUSH2 0x259 DUP4 DUP4 DUP4 PUSH2 0x712 JUMP JUMPDEST DUP3 PUSH32 0x85E1543BF2F84FE80C6BADBCE3648C8539AD1DF4D2B3D822938CA0538BE727E6 PUSH1 0x40 MLOAD PUSH1 0x40 MLOAD DUP1 SWAP2 SUB SWAP1 LOG2 POP POP POP JUMP JUMPDEST PUSH1 0x0 DUP1 PUSH1 0x9 DUP1 SLOAD PUSH2 0x29B SWAP1 PUSH2 0x1A91 JUMP JUMPDEST SWAP1 POP GT SWAP1 POP SWAP1 JUMP JUMPDEST PUSH1 0x0 PUSH2 0x2AD PUSH2 0x821 JUMP JUMPDEST PUSH2 0x2B5 PUSH2 0x1501 JUMP JUMPDEST PUSH2 0x357 PUSH1 0x0 DUP1 PUSH1 0x6 DUP1 SLOAD PUSH2 0x2C8 SWAP1 PUSH2 0x1A91 JUMP JUMPDEST DUP1 PUSH1 0x1F ADD PUSH1 0x20 DUP1 SWAP2 DIV MUL PUSH1 0x20 ADD PUSH1 0x40 MLOAD SWAP1 DUP2 ADD PUSH1 0x40 MSTORE DUP1 SWAP3 SWAP2 SWAP1 DUP2 DUP2 MSTORE PUSH1 0x20 ADD DUP3 DUP1 SLOAD PUSH2 0x2F4 SWAP1 PUSH2 0x1A91 JUMP JUMPDEST DUP1 ISZERO PUSH2 0x341 JUMPI DUP1 PUSH1 0x1F LT PUSH2 0x316 JUMPI PUSH2 0x100 DUP1 DUP4 SLOAD DIV MUL DUP4 MSTORE SWAP2 PUSH1 0x20 ADD SWAP2 PUSH2 0x341 JUMP JUMPDEST DUP3 ADD SWAP2 SWAP1 PUSH1 0x0 MSTORE PUSH1 0x20 PUSH1 0x0 KECCAK256 SWAP1 JUMPDEST DUP2 SLOAD DUP2 MSTORE SWAP1 PUSH1 0x1 ADD SWAP1 PUSH1 0x20 ADD DUP1 DUP4 GT PUSH2 0x324 JUMPI DUP3 SWAP1 SUB PUSH1 0x1F AND DUP3 ADD SWAP2 JUMPDEST POP POP POP POP POP DUP5 PUSH2 0x8B1 SWAP1 SWAP4 SWAP3 SWAP2 SWAP1 PUSH4 0xFFFFFFFF AND JUMP JUMPDEST PUSH2 0x37F PUSH2 0x363 DUP3 PUSH2 0x95B JUMP JUMPDEST DUP5 PUSH1 0x7 PUSH1 0x0 SWAP1 SLOAD SWAP1 PUSH2 0x100 EXP SWAP1 DIV PUSH4 0xFFFFFFFF AND PUSH1 0x8 SLOAD PUSH2 0xD77 JUMP JUMPDEST PUSH1 0x2 DUP2 SWAP1 SSTORE POP PUSH1 0x2 SLOAD SWAP2 POP POP SWAP2 SWAP1 POP JUMP JUMPDEST PUSH1 0x3 DUP1 SLOAD PUSH2 0x39D SWAP1 PUSH2 0x1A91 JUMP JUMPDEST DUP1 PUSH1 0x1F ADD PUSH1 0x20 DUP1 SWAP2 DIV MUL PUSH1 0x20 ADD PUSH1 0x40 MLOAD SWAP1 DUP2 ADD PUSH1 0x40 MSTORE DUP1 SWAP3 SWAP2 SWAP1 DUP2 DUP2 MSTORE PUSH1 0x20 ADD DUP3 DUP1 SLOAD PUSH2 0x3C9 SWAP1 PUSH2 0x1A91 JUMP JUMPDEST DUP1 ISZERO PUSH2 0x416 JUMPI DUP1 PUSH1 0x1F LT PUSH2 0x3EB JUMPI PUSH2 0x100 DUP1 DUP4 SLOAD DIV MUL DUP4 MSTORE SWAP2 PUSH1 0x20 ADD SWAP2 PUSH2 0x416 JUMP JUMPDEST DUP3 ADD SWAP2 SWAP1 PUSH1 0x0 MSTORE PUSH1 0x20 PUSH1 0x0 KECCAK256 SWAP1 JUMPDEST DUP2 SLOAD DUP2 MSTORE SWAP1 PUSH1 0x1 ADD SWAP1 PUSH1 0x20 ADD DUP1 DUP4 GT PUSH2 0x3F9 JUMPI DUP3 SWAP1 SUB PUSH1 0x1F AND DUP3 ADD SWAP2 JUMPDEST POP POP POP POP POP DUP2 JUMP JUMPDEST PUSH1 0x4 DUP1 SLOAD PUSH2 0x42B SWAP1 PUSH2 0x1A91 JUMP JUMPDEST DUP1 PUSH1 0x1F ADD PUSH1 0x20 DUP1 SWAP2 DIV MUL PUSH1 0x20 ADD PUSH1 0x40 MLOAD SWAP1 DUP2 ADD PUSH1 0x40 MSTORE DUP1 SWAP3 SWAP2 SWAP1 DUP2 DUP2 MSTORE PUSH1 0x20 ADD DUP3 DUP1 SLOAD PUSH2 0x457 SWAP1 PUSH2 0x1A91 JUMP JUMPDEST DUP1 ISZERO PUSH2 0x4A4 JUMPI DUP1 PUSH1 0x1F LT PUSH2 0x479 JUMPI PUSH2 0x100 DUP1 DUP4 SLOAD DIV MUL DUP4 MSTORE SWAP2 PUSH1 0x20 ADD SWAP2 PUSH2 0x4A4 JUMP JUMPDEST DUP3 ADD SWAP2 SWAP1 PUSH1 0x0 MSTORE PUSH1 0x20 PUSH1 0x0 KECCAK256 SWAP1 JUMPDEST DUP2 SLOAD DUP2 MSTORE SWAP1 PUSH1 0x1 ADD SWAP1 PUSH1 0x20 ADD DUP1 DUP4 GT PUSH2 0x487 JUMPI DUP3 SWAP1 SUB PUSH1 0x1F AND DUP3 ADD SWAP2 JUMPDEST POP POP POP POP POP DUP2 JUMP JUMPDEST PUSH1 0x9 DUP1 SLOAD PUSH2 0x4B9 SWAP1 PUSH2 0x1A91 JUMP JUMPDEST DUP1 PUSH1 0x1F ADD PUSH1 0x20 DUP1 SWAP2 DIV MUL PUSH1 0x20 ADD PUSH1 0x40 MLOAD SWAP1 DUP2 ADD PUSH1 0x40 MSTORE DUP1 SWAP3 SWAP2 SWAP1 DUP2 DUP2 MSTORE PUSH1 0x20 ADD DUP3 DUP1 SLOAD PUSH2 0x4E5 SWAP1 PUSH2 0x1A91 JUMP JUMPDEST DUP1 ISZERO PUSH2 0x532 JUMPI DUP1 PUSH1 0x1F LT PUSH2 0x507 JUMPI PUSH2 0x100 DUP1 DUP4 SLOAD DIV MUL DUP4 MSTORE SWAP2 PUSH1 0x20 ADD SWAP2 PUSH2 0x532 JUMP JUMPDEST DUP3 ADD SWAP2 SWAP1 PUSH1 0x0 MSTORE PUSH1 0x20 PUSH1 0x0 KECCAK256 SWAP1 JUMPDEST DUP2 SLOAD DUP2 MSTORE SWAP1 PUSH1 0x1 ADD SWAP1 PUSH1 0x20 ADD DUP1 DUP4 GT PUSH2 0x515 JUMPI DUP3 SWAP1 SUB PUSH1 0x1F AND DUP3 ADD SWAP2 JUMPDEST POP POP POP POP POP DUP2 JUMP JUMPDEST PUSH1 0x1 PUSH1 0x0 SWAP1 SLOAD SWAP1 PUSH2 0x100 EXP SWAP1 DIV PUSH20 0xFFFFFFFFFFFFFFFFFFFFFFFFFFFFFFFFFFFFFFFF AND PUSH20 0xFFFFFFFFFFFFFFFFFFFFFFFFFFFFFFFFFFFFFFFF AND CALLER PUSH20 0xFFFFFFFFFFFFFFFFFFFFFFFFFFFFFFFFFFFFFFFF AND EQ PUSH2 0x5CA JUMPI PUSH1 0x40 MLOAD PUSH32 0x8C379A000000000000000000000000000000000000000000000000000000000 DUP2 MSTORE PUSH1 0x4 ADD PUSH2 0x5C1 SWAP1 PUSH2 0x1B0E JUMP JUMPDEST PUSH1 0x40 MLOAD DUP1 SWAP2 SUB SWAP1 REVERT JUMPDEST PUSH1 0x0 DUP1 PUSH1 0x0 SWAP1 SLOAD SWAP1 PUSH2 0x100 EXP SWAP1 DIV PUSH20 0xFFFFFFFFFFFFFFFFFFFFFFFFFFFFFFFFFFFFFFFF AND SWAP1 POP CALLER PUSH1 0x0 DUP1 PUSH2 0x100 EXP DUP2 SLOAD DUP2 PUSH20 0xFFFFFFFFFFFFFFFFFFFFFFFFFFFFFFFFFFFFFFFF MUL NOT AND SWAP1 DUP4 PUSH20 0xFFFFFFFFFFFFFFFFFFFFFFFFFFFFFFFFFFFFFFFF AND MUL OR SWAP1 SSTORE POP PUSH1 0x0 PUSH1 0x1 PUSH1 0x0 PUSH2 0x100 EXP DUP2 SLOAD DUP2 PUSH20 0xFFFFFFFFFFFFFFFFFFFFFFFFFFFFFFFFFFFFFFFF MUL NOT AND SWAP1 DUP4 PUSH20 0xFFFFFFFFFFFFFFFFFFFFFFFFFFFFFFFFFFFFFFFF AND MUL OR SWAP1 SSTORE POP CALLER PUSH20 0xFFFFFFFFFFFFFFFFFFFFFFFFFFFFFFFFFFFFFFFF AND DUP2 PUSH20 0xFFFFFFFFFFFFFFFFFFFFFFFFFFFFFFFFFFFFFFFF AND PUSH32 0x8BE0079C531659141344CD1FD0A4F28419497F9722A3DAAFE3B4186F6B6457E0 PUSH1 0x40 MLOAD PUSH1 0x40 MLOAD DUP1 SWAP2 SUB SWAP1 LOG3 POP JUMP JUMPDEST PUSH1 0x0 DUP1 PUSH1 0x0 SWAP1 SLOAD SWAP1 PUSH2 0x100 EXP SWAP1 DIV PUSH20 0xFFFFFFFFFFFFFFFFFFFFFFFFFFFFFFFFFFFFFFFF AND SWAP1 POP SWAP1 JUMP JUMPDEST PUSH1 0x2 SLOAD DUP2 JUMP JUMPDEST PUSH2 0x706 PUSH2 0x821 JUMP JUMPDEST PUSH2 0x70F DUP2 PUSH2 0xE5A JUMP JUMPDEST POP JUMP JUMPDEST DUP3 PUSH1 0x2 SLOAD EQ PUSH2 0x758 JUMPI DUP3 PUSH1 0x40 MLOAD PUSH32 0xD068BF5B00000000000000000000000000000000000000000000000000000000 DUP2 MSTORE PUSH1 0x4 ADD PUSH2 0x74F SWAP2 SWAP1 PUSH2 0x187A JUMP JUMPDEST PUSH1 0x40 MLOAD DUP1 SWAP2 SUB SWAP1 REVERT JUMPDEST DUP2 PUSH1 0x3 SWAP1 DUP2 PUSH2 0x767 SWAP2 SWAP1 PUSH2 0x1CE4 JUMP JUMPDEST POP PUSH1 0x0 DUP3 MLOAD GT ISZERO PUSH2 0x787 JUMPI DUP2 PUSH1 0x9 SWAP1 DUP2 PUSH2 0x781 SWAP2 SWAP1 PUSH2 0x1E11 JUMP JUMPDEST POP PUSH2 0x7CD JUMP JUMPDEST PUSH1 0x40 MLOAD DUP1 PUSH1 0x40 ADD PUSH1 0x40 MSTORE DUP1 PUSH1 0x10 DUP2 MSTORE PUSH1 0x20 ADD PUSH32 0x4E6F206661637420726563656976656400000000000000000000000000000000 DUP2 MSTORE POP PUSH1 0x9 SWAP1 DUP2 PUSH2 0x7CB SWAP2 SWAP1 PUSH2 0x1E11 JUMP JUMPDEST POP JUMPDEST DUP1 PUSH1 0x4 SWAP1 DUP2 PUSH2 0x7DC SWAP2 SWAP1 PUSH2 0x1CE4 JUMP JUMPDEST POP DUP3 PUSH32 0x160ED0AAFFBEF6885155188B91459CB5A97D5DAADCCF7561D8C46DEEA6641B50 PUSH1 0x9 PUSH1 0x3 PUSH1 0x4 PUSH1 0x40 MLOAD PUSH2 0x814 SWAP4 SWAP3 SWAP2 SWAP1 PUSH2 0x1FEB JUMP JUMPDEST PUSH1 0x40 MLOAD DUP1 SWAP2 SUB SWAP1 LOG2 POP POP POP JUMP JUMPDEST PUSH1 0x0 DUP1 SLOAD SWAP1 PUSH2 0x100 EXP SWAP1 DIV PUSH20 0xFFFFFFFFFFFFFFFFFFFFFFFFFFFFFFFFFFFFFFFF AND PUSH20 0xFFFFFFFFFFFFFFFFFFFFFFFFFFFFFFFFFFFFFFFF AND CALLER PUSH20 0xFFFFFFFFFFFFFFFFFFFFFFFFFFFFFFFFFFFFFFFF AND EQ PUSH2 0x8AF JUMPI PUSH1 0x40 MLOAD PUSH32 0x8C379A000000000000000000000000000000000000000000000000000000000 DUP2 MSTORE PUSH1 0x4 ADD PUSH2 0x8A6 SWAP1 PUSH2 0x2083 JUMP JUMPDEST PUSH1 0x40 MLOAD DUP1 SWAP2 SUB SWAP1 REVERT JUMPDEST JUMP JUMPDEST PUSH1 0x0 DUP2 MLOAD SUB PUSH2 0x8EC JUMPI PUSH1 0x40 MLOAD PUSH32 0x22CE3EDD00000000000000000000000000000000000000000000000000000000 DUP2 MSTORE PUSH1 0x4 ADD PUSH1 0x40 MLOAD DUP1 SWAP2 SUB SWAP1 REVERT JUMPDEST DUP3 DUP5 PUSH1 0x0 ADD SWAP1 PUSH1 0x2 DUP2 GT ISZERO PUSH2 0x904 JUMPI PUSH2 0x903 PUSH2 0x20A3 JUMP JUMPDEST JUMPDEST SWAP1 DUP2 PUSH1 0x2 DUP2 GT ISZERO PUSH2 0x918 JUMPI PUSH2 0x917 PUSH2 0x20A3 JUMP JUMPDEST JUMPDEST DUP2 MSTORE POP POP DUP2 DUP5 PUSH1 0x40 ADD SWAP1 PUSH1 0x0 DUP2 GT ISZERO PUSH2 0x934 JUMPI PUSH2 0x933 PUSH2 0x20A3 JUMP JUMPDEST JUMPDEST SWAP1 DUP2 PUSH1 0x0 DUP2 GT ISZERO PUSH2 0x948 JUMPI PUSH2 0x947 PUSH2 0x20A3 JUMP JUMPDEST JUMPDEST DUP2 MSTORE POP POP DUP1 DUP5 PUSH1 0x60 ADD DUP2 SWAP1 MSTORE POP POP POP POP POP JUMP JUMPDEST PUSH1 0x60 PUSH1 0x0 PUSH2 0x96A PUSH2 0x100 PUSH2 0xF86 JUMP JUMPDEST SWAP1 POP PUSH2 0x9B4 PUSH1 0x40 MLOAD DUP1 PUSH1 0x40 ADD PUSH1 0x40 MSTORE DUP1 PUSH1 0xC DUP2 MSTORE PUSH1 0x20 ADD PUSH32 0x636F64654C6F636174696F6E0000000000000000000000000000000000000000 DUP2 MSTORE POP DUP3 PUSH2 0xFAD SWAP1 SWAP2 SWAP1 PUSH4 0xFFFFFFFF AND JUMP JUMPDEST PUSH2 0x9DD DUP4 PUSH1 0x0 ADD MLOAD PUSH1 0x2 DUP2 GT ISZERO PUSH2 0x9CE JUMPI PUSH2 0x9CD PUSH2 0x20A3 JUMP JUMPDEST JUMPDEST DUP3 PUSH2 0xFD6 SWAP1 SWAP2 SWAP1 PUSH4 0xFFFFFFFF AND JUMP JUMPDEST PUSH2 0xA25 PUSH1 0x40 MLOAD DUP1 PUSH1 0x40 ADD PUSH1 0x40 MSTORE DUP1 PUSH1 0x8 DUP2 MSTORE PUSH1 0x20 ADD PUSH32 0x6C616E6775616765000000000000000000000000000000000000000000000000 DUP2 MSTORE POP DUP3 PUSH2 0xFAD SWAP1 SWAP2 SWAP1 PUSH4 0xFFFFFFFF AND JUMP JUMPDEST PUSH2 0xA4E DUP4 PUSH1 0x40 ADD MLOAD PUSH1 0x0 DUP2 GT ISZERO PUSH2 0xA3F JUMPI PUSH2 0xA3E PUSH2 0x20A3 JUMP JUMPDEST JUMPDEST DUP3 PUSH2 0xFD6 SWAP1 SWAP2 SWAP1 PUSH4 0xFFFFFFFF AND JUMP JUMPDEST PUSH2 0xA96 PUSH1 0x40 MLOAD DUP1 PUSH1 0x40 ADD PUSH1 0x40 MSTORE DUP1 PUSH1 0x6 DUP2 MSTORE PUSH1 0x20 ADD PUSH32 0x736F757263650000000000000000000000000000000000000000000000000000 DUP2 MSTORE POP DUP3 PUSH2 0xFAD SWAP1 SWAP2 SWAP1 PUSH4 0xFFFFFFFF AND JUMP JUMPDEST PUSH2 0xAAD DUP4 PUSH1 0x60 ADD MLOAD DUP3 PUSH2 0xFAD SWAP1 SWAP2 SWAP1 PUSH4 0xFFFFFFFF AND JUMP JUMPDEST PUSH1 0x0 DUP4 PUSH1 0xA0 ADD MLOAD MLOAD GT ISZERO PUSH2 0xB69 JUMPI PUSH2 0xB03 PUSH1 0x40 MLOAD DUP1 PUSH1 0x40 ADD PUSH1 0x40 MSTORE DUP1 PUSH1 0x4 DUP2 MSTORE PUSH1 0x20 ADD PUSH32 0x6172677300000000000000000000000000000000000000000000000000000000 DUP2 MSTORE POP DUP3 PUSH2 0xFAD SWAP1 SWAP2 SWAP1 PUSH4 0xFFFFFFFF AND JUMP JUMPDEST PUSH2 0xB0C DUP2 PUSH2 0x1026 JUMP JUMPDEST PUSH1 0x0 JUMPDEST DUP4 PUSH1 0xA0 ADD MLOAD MLOAD DUP2 LT ISZERO PUSH2 0xB5E JUMPI PUSH2 0xB4D DUP5 PUSH1 0xA0 ADD MLOAD DUP3 DUP2 MLOAD DUP2 LT PUSH2 0xB36 JUMPI PUSH2 0xB35 PUSH2 0x20D2 JUMP JUMPDEST JUMPDEST PUSH1 0x20 MUL PUSH1 0x20 ADD ADD MLOAD DUP4 PUSH2 0xFAD SWAP1 SWAP2 SWAP1 PUSH4 0xFFFFFFFF AND JUMP JUMPDEST DUP1 PUSH2 0xB57 SWAP1 PUSH2 0x2130 JUMP JUMPDEST SWAP1 POP PUSH2 0xB0F JUMP JUMPDEST POP PUSH2 0xB68 DUP2 PUSH2 0x104E JUMP JUMPDEST JUMPDEST PUSH1 0x0 DUP4 PUSH1 0x80 ADD MLOAD MLOAD GT ISZERO PUSH2 0xCAA JUMPI PUSH1 0x0 PUSH1 0x2 DUP2 GT ISZERO PUSH2 0xB8B JUMPI PUSH2 0xB8A PUSH2 0x20A3 JUMP JUMPDEST JUMPDEST DUP4 PUSH1 0x20 ADD MLOAD PUSH1 0x2 DUP2 GT ISZERO PUSH2 0xBA2 JUMPI PUSH2 0xBA1 PUSH2 0x20A3 JUMP JUMPDEST JUMPDEST SUB PUSH2 0xBD9 JUMPI PUSH1 0x40 MLOAD PUSH32 0xA80D31F700000000000000000000000000000000000000000000000000000000 DUP2 MSTORE PUSH1 0x4 ADD PUSH1 0x40 MLOAD DUP1 SWAP2 SUB SWAP1 REVERT JUMPDEST PUSH2 0xC21 PUSH1 0x40 MLOAD DUP1 PUSH1 0x40 ADD PUSH1 0x40 MSTORE DUP1 PUSH1 0xF DUP2 MSTORE PUSH1 0x20 ADD PUSH32 0x736563726574734C6F636174696F6E0000000000000000000000000000000000 DUP2 MSTORE POP DUP3 PUSH2 0xFAD SWAP1 SWAP2 SWAP1 PUSH4 0xFFFFFFFF AND JUMP JUMPDEST PUSH2 0xC4A DUP4 PUSH1 0x20 ADD MLOAD PUSH1 0x2 DUP2 GT ISZERO PUSH2 0xC3B JUMPI PUSH2 0xC3A PUSH2 0x20A3 JUMP JUMPDEST JUMPDEST DUP3 PUSH2 0xFD6 SWAP1 SWAP2 SWAP1 PUSH4 0xFFFFFFFF AND JUMP JUMPDEST PUSH2 0xC92 PUSH1 0x40 MLOAD DUP1 PUSH1 0x40 ADD PUSH1 0x40 MSTORE DUP1 PUSH1 0x7 DUP2 MSTORE PUSH1 0x20 ADD PUSH32 0x7365637265747300000000000000000000000000000000000000000000000000 DUP2 MSTORE POP DUP3 PUSH2 0xFAD SWAP1 SWAP2 SWAP1 PUSH4 0xFFFFFFFF AND JUMP JUMPDEST PUSH2 0xCA9 DUP4 PUSH1 0x80 ADD MLOAD DUP3 PUSH2 0x1076 SWAP1 SWAP2 SWAP1 PUSH4 0xFFFFFFFF AND JUMP JUMPDEST JUMPDEST PUSH1 0x0 DUP4 PUSH1 0xC0 ADD MLOAD MLOAD GT ISZERO PUSH2 0xD66 JUMPI PUSH2 0xD00 PUSH1 0x40 MLOAD DUP1 PUSH1 0x40 ADD PUSH1 0x40 MSTORE DUP1 PUSH1 0x9 DUP2 MSTORE PUSH1 0x20 ADD PUSH32 0x6279746573417267730000000000000000000000000000000000000000000000 DUP2 MSTORE POP DUP3 PUSH2 0xFAD SWAP1 SWAP2 SWAP1 PUSH4 0xFFFFFFFF AND JUMP JUMPDEST PUSH2 0xD09 DUP2 PUSH2 0x1026 JUMP JUMPDEST PUSH1 0x0 JUMPDEST DUP4 PUSH1 0xC0 ADD MLOAD MLOAD DUP2 LT ISZERO PUSH2 0xD5B JUMPI PUSH2 0xD4A DUP5 PUSH1 0xC0 ADD MLOAD DUP3 DUP2 MLOAD DUP2 LT PUSH2 0xD33 JUMPI PUSH2 0xD32 PUSH2 0x20D2 JUMP JUMPDEST JUMPDEST PUSH1 0x20 MUL PUSH1 0x20 ADD ADD MLOAD DUP4 PUSH2 0x1076 SWAP1 SWAP2 SWAP1 PUSH4 0xFFFFFFFF AND JUMP JUMPDEST DUP1 PUSH2 0xD54 SWAP1 PUSH2 0x2130 JUMP JUMPDEST SWAP1 POP PUSH2 0xD0C JUMP JUMPDEST POP PUSH2 0xD65 DUP2 PUSH2 0x104E JUMP JUMPDEST JUMPDEST DUP1 PUSH1 0x0 ADD MLOAD PUSH1 0x0 ADD MLOAD SWAP2 POP POP SWAP2 SWAP1 POP JUMP JUMPDEST PUSH1 0x0 DUP1 PUSH32 0x0 PUSH20 0xFFFFFFFFFFFFFFFFFFFFFFFFFFFFFFFFFFFFFFFF AND PUSH4 0x461D2762 DUP7 DUP9 PUSH1 0x1 DUP9 DUP9 PUSH1 0x40 MLOAD DUP7 PUSH4 0xFFFFFFFF AND PUSH1 0xE0 SHL DUP2 MSTORE PUSH1 0x4 ADD PUSH2 0xDDC SWAP6 SWAP5 SWAP4 SWAP3 SWAP2 SWAP1 PUSH2 0x21C3 JUMP JUMPDEST PUSH1 0x20 PUSH1 0x40 MLOAD DUP1 DUP4 SUB DUP2 PUSH1 0x0 DUP8 GAS CALL ISZERO DUP1 ISZERO PUSH2 0xDFB JUMPI RETURNDATASIZE PUSH1 0x0 DUP1 RETURNDATACOPY RETURNDATASIZE PUSH1 0x0 REVERT JUMPDEST POP POP POP POP PUSH1 0x40 MLOAD RETURNDATASIZE PUSH1 0x1F NOT PUSH1 0x1F DUP3 ADD AND DUP3 ADD DUP1 PUSH1 0x40 MSTORE POP DUP2 ADD SWAP1 PUSH2 0xE1F SWAP2 SWAP1 PUSH2 0x2232 JUMP JUMPDEST SWAP1 POP DUP1 PUSH32 0x1131472297A800FEE664D1D89CFA8F7676FF07189ECC53F80BBB5F4969099DB8 PUSH1 0x40 MLOAD PUSH1 0x40 MLOAD DUP1 SWAP2 SUB SWAP1 LOG2 DUP1 SWAP2 POP POP SWAP5 SWAP4 POP POP POP POP JUMP JUMPDEST CALLER PUSH20 0xFFFFFFFFFFFFFFFFFFFFFFFFFFFFFFFFFFFFFFFF AND DUP2 PUSH20 0xFFFFFFFFFFFFFFFFFFFFFFFFFFFFFFFFFFFFFFFF AND SUB PUSH2 0xEC8 JUMPI PUSH1 0x40 MLOAD PUSH32 0x8C379A000000000000000000000000000000000000000000000000000000000 DUP2 MSTORE PUSH1 0x4 ADD PUSH2 0xEBF SWAP1 PUSH2 0x22AB JUMP JUMPDEST PUSH1 0x40 MLOAD DUP1 SWAP2 SUB SWAP1 REVERT JUMPDEST DUP1 PUSH1 0x1 PUSH1 0x0 PUSH2 0x100 EXP DUP2 SLOAD DUP2 PUSH20 0xFFFFFFFFFFFFFFFFFFFFFFFFFFFFFFFFFFFFFFFF MUL NOT AND SWAP1 DUP4 PUSH20 0xFFFFFFFFFFFFFFFFFFFFFFFFFFFFFFFFFFFFFFFF AND MUL OR SWAP1 SSTORE POP DUP1 PUSH20 0xFFFFFFFFFFFFFFFFFFFFFFFFFFFFFFFFFFFFFFFF AND PUSH1 0x0 DUP1 SLOAD SWAP1 PUSH2 0x100 EXP SWAP1 DIV PUSH20 0xFFFFFFFFFFFFFFFFFFFFFFFFFFFFFFFFFFFFFFFF AND PUSH20 0xFFFFFFFFFFFFFFFFFFFFFFFFFFFFFFFFFFFFFFFF AND PUSH32 0xED8889F560326EB138920D842192F0EB3DD22B4F139C87A2C57538E05BAE1278 PUSH1 0x40 MLOAD PUSH1 0x40 MLOAD DUP1 SWAP2 SUB SWAP1 LOG3 POP JUMP JUMPDEST PUSH2 0xF8E PUSH2 0x1573 JUMP JUMPDEST PUSH2 0xF9C DUP2 PUSH1 0x0 ADD MLOAD DUP4 PUSH2 0x109F JUMP JUMPDEST POP PUSH1 0x0 DUP2 PUSH1 0x20 ADD DUP2 DUP2 MSTORE POP POP SWAP2 SWAP1 POP JUMP JUMPDEST PUSH2 0xFBA DUP3 PUSH1 0x3 DUP4 MLOAD PUSH2 0x1118 JUMP JUMPDEST PUSH2 0xFD1 DUP2 DUP4 PUSH1 0x0 ADD MLOAD PUSH2 0x12C1 SWAP1 SWAP2 SWAP1 PUSH4 0xFFFFFFFF AND JUMP JUMPDEST POP POP POP JUMP JUMPDEST PUSH2 0xFF8 PUSH1 0x2 PUSH1 0x5 PUSH1 0x6 PUSH1 0xFF AND SWAP1 SHL OR DUP4 PUSH1 0x0 ADD MLOAD PUSH2 0x12DD SWAP1 SWAP2 SWAP1 PUSH4 0xFFFFFFFF AND JUMP JUMPDEST POP PUSH2 0x1022 DUP3 DUP3 PUSH1 0x40 MLOAD PUSH1 0x20 ADD PUSH2 0x100E SWAP2 SWAP1 PUSH2 0x22DA JUMP JUMPDEST PUSH1 0x40 MLOAD PUSH1 0x20 DUP2 DUP4 SUB SUB DUP2 MSTORE SWAP1 PUSH1 0x40 MSTORE PUSH2 0x1076 JUMP JUMPDEST POP POP JUMP JUMPDEST PUSH2 0x1031 DUP2 PUSH1 0x4 PUSH2 0x1347 JUMP JUMPDEST PUSH1 0x1 DUP2 PUSH1 0x20 ADD DUP2 DUP2 MLOAD PUSH2 0x1044 SWAP2 SWAP1 PUSH2 0x22F5 JUMP JUMPDEST SWAP2 POP DUP2 DUP2 MSTORE POP POP POP JUMP JUMPDEST PUSH2 0x1059 DUP2 PUSH1 0x7 PUSH2 0x1347 JUMP JUMPDEST PUSH1 0x1 DUP2 PUSH1 0x20 ADD DUP2 DUP2 MLOAD PUSH2 0x106C SWAP2 SWAP1 PUSH2 0x2329 JUMP JUMPDEST SWAP2 POP DUP2 DUP2 MSTORE POP POP POP JUMP JUMPDEST PUSH2 0x1083 DUP3 PUSH1 0x2 DUP4 MLOAD PUSH2 0x1118 JUMP JUMPDEST PUSH2 0x109A DUP2 DUP4 PUSH1 0x0 ADD MLOAD PUSH2 0x12C1 SWAP1 SWAP2 SWAP1 PUSH4 0xFFFFFFFF AND JUMP JUMPDEST POP POP POP JUMP JUMPDEST PUSH2 0x10A7 PUSH2 0x1593 JUMP JUMPDEST PUSH1 0x0 PUSH1 0x20 DUP4 PUSH2 0x10B6 SWAP2 SWAP1 PUSH2 0x238C JUMP JUMPDEST EQ PUSH2 0x10E2 JUMPI PUSH1 0x20 DUP3 PUSH2 0x10C8 SWAP2 SWAP1 PUSH2 0x238C JUMP JUMPDEST PUSH1 0x20 PUSH2 0x10D4 SWAP2 SWAP1 PUSH2 0x2329 JUMP JUMPDEST DUP3 PUSH2 0x10DF SWAP2 SWAP1 PUSH2 0x22F5 JUMP JUMPDEST SWAP2 POP JUMPDEST DUP2 DUP4 PUSH1 0x20 ADD DUP2 DUP2 MSTORE POP POP PUSH1 0x40 MLOAD DUP1 DUP5 MSTORE PUSH1 0x0 DUP2 MSTORE DUP3 DUP2 ADD PUSH1 0x20 ADD DUP2 DUP2 LT ISZERO PUSH2 0x1109 JUMPI PUSH1 0x0 DUP1 REVERT JUMPDEST DUP1 PUSH1 0x40 MSTORE POP POP DUP3 SWAP1 POP SWAP3 SWAP2 POP POP JUMP JUMPDEST PUSH1 0x17 DUP2 PUSH8 0xFFFFFFFFFFFFFFFF AND GT PUSH2 0x1153 JUMPI PUSH2 0x114D DUP2 PUSH1 0x5 DUP5 PUSH1 0xFF AND SWAP1 SHL PUSH1 0xFF AND OR DUP5 PUSH1 0x0 ADD MLOAD PUSH2 0x12DD SWAP1 SWAP2 SWAP1 PUSH4 0xFFFFFFFF AND JUMP JUMPDEST POP PUSH2 0x12BC JUMP JUMPDEST PUSH1 0xFF DUP2 PUSH8 0xFFFFFFFFFFFFFFFF AND GT PUSH2 0x11B1 JUMPI PUSH2 0x1186 PUSH1 0x18 PUSH1 0x5 DUP5 PUSH1 0xFF AND SWAP1 SHL OR DUP5 PUSH1 0x0 ADD MLOAD PUSH2 0x12DD SWAP1 SWAP2 SWAP1 PUSH4 0xFFFFFFFF AND JUMP JUMPDEST POP PUSH2 0x11AB DUP2 PUSH8 0xFFFFFFFFFFFFFFFF AND PUSH1 0x1 DUP6 PUSH1 0x0 ADD MLOAD PUSH2 0x136D SWAP1 SWAP3 SWAP2 SWAP1 PUSH4 0xFFFFFFFF AND JUMP JUMPDEST POP PUSH2 0x12BB JUMP JUMPDEST PUSH2 0xFFFF DUP2 PUSH8 0xFFFFFFFFFFFFFFFF AND GT PUSH2 0x1210 JUMPI PUSH2 0x11E5 PUSH1 0x19 PUSH1 0x5 DUP5 PUSH1 0xFF AND SWAP1 SHL OR DUP5 PUSH1 0x0 ADD MLOAD PUSH2 0x12DD SWAP1 SWAP2 SWAP1 PUSH4 0xFFFFFFFF AND JUMP JUMPDEST POP PUSH2 0x120A DUP2 PUSH8 0xFFFFFFFFFFFFFFFF AND PUSH1 0x2 DUP6 PUSH1 0x0 ADD MLOAD PUSH2 0x136D SWAP1 SWAP3 SWAP2 SWAP1 PUSH4 0xFFFFFFFF AND JUMP JUMPDEST POP PUSH2 0x12BA JUMP JUMPDEST PUSH4 0xFFFFFFFF DUP2 PUSH8 0xFFFFFFFFFFFFFFFF AND GT PUSH2 0x1271 JUMPI PUSH2 0x1246 PUSH1 0x1A PUSH1 0x5 DUP5 PUSH1 0xFF AND SWAP1 SHL OR DUP5 PUSH1 0x0 ADD MLOAD PUSH2 0x12DD SWAP1 SWAP2 SWAP1 PUSH4 0xFFFFFFFF AND JUMP JUMPDEST POP PUSH2 0x126B DUP2 PUSH8 0xFFFFFFFFFFFFFFFF AND PUSH1 0x4 DUP6 PUSH1 0x0 ADD MLOAD PUSH2 0x136D SWAP1 SWAP3 SWAP2 SWAP1 PUSH4 0xFFFFFFFF AND JUMP JUMPDEST POP PUSH2 0x12B9 JUMP JUMPDEST PUSH2 0x1292 PUSH1 0x1B PUSH1 0x5 DUP5 PUSH1 0xFF AND SWAP1 SHL OR DUP5 PUSH1 0x0 ADD MLOAD PUSH2 0x12DD SWAP1 SWAP2 SWAP1 PUSH4 0xFFFFFFFF AND JUMP JUMPDEST POP PUSH2 0x12B7 DUP2 PUSH8 0xFFFFFFFFFFFFFFFF AND PUSH1 0x8 DUP6 PUSH1 0x0 ADD MLOAD PUSH2 0x136D SWAP1 SWAP3 SWAP2 SWAP1 PUSH4 0xFFFFFFFF AND JUMP JUMPDEST POP JUMPDEST JUMPDEST JUMPDEST JUMPDEST POP POP POP JUMP JUMPDEST PUSH2 0x12C9 PUSH2 0x1593 JUMP JUMPDEST PUSH2 0x12D5 DUP4 DUP4 DUP5 MLOAD PUSH2 0x13FA JUMP JUMPDEST SWAP1 POP SWAP3 SWAP2 POP POP JUMP JUMPDEST PUSH2 0x12E5 PUSH2 0x1593 JUMP JUMPDEST PUSH1 0x0 DUP4 PUSH1 0x0 ADD MLOAD MLOAD SWAP1 POP PUSH1 0x0 PUSH1 0x1 DUP3 PUSH2 0x12FE SWAP2 SWAP1 PUSH2 0x22F5 JUMP JUMPDEST SWAP1 POP DUP5 PUSH1 0x20 ADD MLOAD DUP3 LT PUSH2 0x1322 JUMPI PUSH2 0x1321 DUP6 PUSH1 0x2 DUP4 PUSH2 0x131C SWAP2 SWAP1 PUSH2 0x23BD JUMP JUMPDEST PUSH2 0x14DD JUMP JUMPDEST JUMPDEST DUP5 MLOAD PUSH1 0x20 DUP4 DUP3 ADD ADD DUP6 DUP2 MSTORE8 DUP2 MLOAD DUP4 GT ISZERO PUSH2 0x133A JUMPI DUP3 DUP3 MSTORE JUMPDEST POP POP DUP5 SWAP3 POP POP POP SWAP3 SWAP2 POP POP JUMP JUMPDEST PUSH2 0x1368 PUSH1 0x1F PUSH1 0x5 DUP4 PUSH1 0xFF AND SWAP1 SHL OR DUP4 PUSH1 0x0 ADD MLOAD PUSH2 0x12DD SWAP1 SWAP2 SWAP1 PUSH4 0xFFFFFFFF AND JUMP JUMPDEST POP POP POP JUMP JUMPDEST PUSH2 0x1375 PUSH2 0x1593 JUMP JUMPDEST PUSH1 0x0 DUP5 PUSH1 0x0 ADD MLOAD MLOAD SWAP1 POP PUSH1 0x0 DUP2 DUP5 PUSH2 0x138D SWAP2 SWAP1 PUSH2 0x22F5 JUMP JUMPDEST SWAP1 POP DUP6 PUSH1 0x20 ADD MLOAD DUP2 GT ISZERO PUSH2 0x13B2 JUMPI PUSH2 0x13B1 DUP7 PUSH1 0x2 DUP4 PUSH2 0x13AC SWAP2 SWAP1 PUSH2 0x23BD JUMP JUMPDEST PUSH2 0x14DD JUMP JUMPDEST JUMPDEST PUSH1 0x0 PUSH1 0x1 DUP6 PUSH2 0x100 PUSH2 0x13C4 SWAP2 SWAP1 PUSH2 0x2532 JUMP JUMPDEST PUSH2 0x13CE SWAP2 SWAP1 PUSH2 0x2329 JUMP JUMPDEST SWAP1 POP DUP7 MLOAD DUP3 DUP2 ADD DUP8 DUP4 NOT DUP3 MLOAD AND OR DUP2 MSTORE DUP2 MLOAD DUP5 GT ISZERO PUSH2 0x13EB JUMPI DUP4 DUP3 MSTORE JUMPDEST POP POP DUP7 SWAP4 POP POP POP POP SWAP4 SWAP3 POP POP POP JUMP JUMPDEST PUSH2 0x1402 PUSH2 0x1593 JUMP JUMPDEST DUP3 MLOAD DUP3 GT ISZERO PUSH2 0x1410 JUMPI PUSH1 0x0 DUP1 REVERT JUMPDEST PUSH1 0x0 DUP5 PUSH1 0x0 ADD MLOAD MLOAD SWAP1 POP PUSH1 0x0 DUP4 DUP3 PUSH2 0x1428 SWAP2 SWAP1 PUSH2 0x22F5 JUMP JUMPDEST SWAP1 POP DUP6 PUSH1 0x20 ADD MLOAD DUP2 GT ISZERO PUSH2 0x144D JUMPI PUSH2 0x144C DUP7 PUSH1 0x2 DUP4 PUSH2 0x1447 SWAP2 SWAP1 PUSH2 0x23BD JUMP JUMPDEST PUSH2 0x14DD JUMP JUMPDEST JUMPDEST PUSH1 0x0 DUP1 DUP8 MLOAD DUP1 MLOAD DUP6 PUSH1 0x20 DUP4 ADD ADD SWAP4 POP DUP1 DUP6 GT ISZERO PUSH2 0x1468 JUMPI DUP5 DUP3 MSTORE JUMPDEST PUSH1 0x20 DUP10 ADD SWAP3 POP POP POP JUMPDEST PUSH1 0x20 DUP7 LT PUSH2 0x14AF JUMPI DUP1 MLOAD DUP3 MSTORE PUSH1 0x20 DUP3 PUSH2 0x148A SWAP2 SWAP1 PUSH2 0x22F5 JUMP JUMPDEST SWAP2 POP PUSH1 0x20 DUP2 PUSH2 0x1499 SWAP2 SWAP1 PUSH2 0x22F5 JUMP JUMPDEST SWAP1 POP PUSH1 0x20 DUP7 PUSH2 0x14A8 SWAP2 SWAP1 PUSH2 0x2329 JUMP JUMPDEST SWAP6 POP PUSH2 0x1471 JUMP JUMPDEST PUSH1 0x0 PUSH1 0x1 DUP8 PUSH1 0x20 SUB PUSH2 0x100 EXP SUB SWAP1 POP DUP1 NOT DUP3 MLOAD AND DUP2 DUP5 MLOAD AND DUP2 DUP2 OR DUP6 MSTORE POP POP POP DUP8 SWAP5 POP POP POP POP POP SWAP4 SWAP3 POP POP POP JUMP JUMPDEST PUSH1 0x0 DUP3 PUSH1 0x0 ADD MLOAD SWAP1 POP PUSH2 0x14F0 DUP4 DUP4 PUSH2 0x109F JUMP JUMPDEST POP PUSH2 0x14FB DUP4 DUP3 PUSH2 0x12C1 JUMP JUMPDEST POP POP POP POP JUMP JUMPDEST PUSH1 0x40 MLOAD DUP1 PUSH1 0xE0 ADD PUSH1 0x40 MSTORE DUP1 PUSH1 0x0 PUSH1 0x2 DUP2 GT ISZERO PUSH2 0x1520 JUMPI PUSH2 0x151F PUSH2 0x20A3 JUMP JUMPDEST JUMPDEST DUP2 MSTORE PUSH1 0x20 ADD PUSH1 0x0 PUSH1 0x2 DUP2 GT ISZERO PUSH2 0x1539 JUMPI PUSH2 0x1538 PUSH2 0x20A3 JUMP JUMPDEST JUMPDEST DUP2 MSTORE PUSH1 0x20 ADD PUSH1 0x0 DUP1 DUP2 GT ISZERO PUSH2 0x1551 JUMPI PUSH2 0x1550 PUSH2 0x20A3 JUMP JUMPDEST JUMPDEST DUP2 MSTORE PUSH1 0x20 ADD PUSH1 0x60 DUP2 MSTORE PUSH1 0x20 ADD PUSH1 0x60 DUP2 MSTORE PUSH1 0x20 ADD PUSH1 0x60 DUP2 MSTORE PUSH1 0x20 ADD PUSH1 0x60 DUP2 MSTORE POP SWAP1 JUMP JUMPDEST PUSH1 0x40 MLOAD DUP1 PUSH1 0x40 ADD PUSH1 0x40 MSTORE DUP1 PUSH2 0x1586 PUSH2 0x1593 JUMP JUMPDEST DUP2 MSTORE PUSH1 0x20 ADD PUSH1 0x0 DUP2 MSTORE POP SWAP1 JUMP JUMPDEST PUSH1 0x40 MLOAD DUP1 PUSH1 0x40 ADD PUSH1 0x40 MSTORE DUP1 PUSH1 0x60 DUP2 MSTORE PUSH1 0x20 ADD PUSH1 0x0 DUP2 MSTORE POP SWAP1 JUMP JUMPDEST PUSH1 0x0 PUSH1 0x40 MLOAD SWAP1 POP SWAP1 JUMP JUMPDEST PUSH1 0x0 DUP1 REVERT JUMPDEST PUSH1 0x0 DUP1 REVERT JUMPDEST PUSH1 0x0 DUP2 SWAP1 POP SWAP2 SWAP1 POP JUMP JUMPDEST PUSH2 0x15D4 DUP2 PUSH2 0x15C1 JUMP JUMPDEST DUP2 EQ PUSH2 0x15DF JUMPI PUSH1 0x0 DUP1 REVERT JUMPDEST POP JUMP JUMPDEST PUSH1 0x0 DUP2 CALLDATALOAD SWAP1 POP PUSH2 0x15F1 DUP2 PUSH2 0x15CB JUMP JUMPDEST SWAP3 SWAP2 POP POP JUMP JUMPDEST PUSH1 0x0 DUP1 REVERT JUMPDEST PUSH1 0x0 DUP1 REVERT JUMPDEST PUSH1 0x0 PUSH1 0x1F NOT PUSH1 0x1F DUP4 ADD AND SWAP1 POP SWAP2 SWAP1 POP JUMP JUMPDEST PUSH32 0x4E487B7100000000000000000000000000000000000000000000000000000000 PUSH1 0x0 MSTORE PUSH1 0x41 PUSH1 0x4 MSTORE PUSH1 0x24 PUSH1 0x0 REVERT JUMPDEST PUSH2 0x164A DUP3 PUSH2 0x1601 JUMP JUMPDEST DUP2 ADD DUP2 DUP2 LT PUSH8 0xFFFFFFFFFFFFFFFF DUP3 GT OR ISZERO PUSH2 0x1669 JUMPI PUSH2 0x1668 PUSH2 0x1612 JUMP JUMPDEST JUMPDEST DUP1 PUSH1 0x40 MSTORE POP POP POP JUMP JUMPDEST PUSH1 0x0 PUSH2 0x167C PUSH2 0x15AD JUMP JUMPDEST SWAP1 POP PUSH2 0x1688 DUP3 DUP3 PUSH2 0x1641 JUMP JUMPDEST SWAP2 SWAP1 POP JUMP JUMPDEST PUSH1 0x0 PUSH8 0xFFFFFFFFFFFFFFFF DUP3 GT ISZERO PUSH2 0x16A8 JUMPI PUSH2 0x16A7 PUSH2 0x1612 JUMP JUMPDEST JUMPDEST PUSH2 0x16B1 DUP3 PUSH2 0x1601 JUMP JUMPDEST SWAP1 POP PUSH1 0x20 DUP2 ADD SWAP1 POP SWAP2 SWAP1 POP JUMP JUMPDEST DUP3 DUP2 DUP4 CALLDATACOPY PUSH1 0x0 DUP4 DUP4 ADD MSTORE POP POP POP JUMP JUMPDEST PUSH1 0x0 PUSH2 0x16E0 PUSH2 0x16DB DUP5 PUSH2 0x168D JUMP JUMPDEST PUSH2 0x1672 JUMP JUMPDEST SWAP1 POP DUP3 DUP2 MSTORE PUSH1 0x20 DUP2 ADD DUP5 DUP5 DUP5 ADD GT ISZERO PUSH2 0x16FC JUMPI PUSH2 0x16FB PUSH2 0x15FC JUMP JUMPDEST JUMPDEST PUSH2 0x1707 DUP5 DUP3 DUP6 PUSH2 0x16BE JUMP JUMPDEST POP SWAP4 SWAP3 POP POP POP JUMP JUMPDEST PUSH1 0x0 DUP3 PUSH1 0x1F DUP4 ADD SLT PUSH2 0x1724 JUMPI PUSH2 0x1723 PUSH2 0x15F7 JUMP JUMPDEST JUMPDEST DUP2 CALLDATALOAD PUSH2 0x1734 DUP5 DUP3 PUSH1 0x20 DUP7 ADD PUSH2 0x16CD JUMP JUMPDEST SWAP2 POP POP SWAP3 SWAP2 POP POP JUMP JUMPDEST PUSH1 0x0 DUP1 PUSH1 0x0 PUSH1 0x60 DUP5 DUP7 SUB SLT ISZERO PUSH2 0x1756 JUMPI PUSH2 0x1755 PUSH2 0x15B7 JUMP JUMPDEST JUMPDEST PUSH1 0x0 PUSH2 0x1764 DUP7 DUP3 DUP8 ADD PUSH2 0x15E2 JUMP JUMPDEST SWAP4 POP POP PUSH1 0x20 DUP5 ADD CALLDATALOAD PUSH8 0xFFFFFFFFFFFFFFFF DUP2 GT ISZERO PUSH2 0x1785 JUMPI PUSH2 0x1784 PUSH2 0x15BC JUMP JUMPDEST JUMPDEST PUSH2 0x1791 DUP7 DUP3 DUP8 ADD PUSH2 0x170F JUMP JUMPDEST SWAP3 POP POP PUSH1 0x40 DUP5 ADD CALLDATALOAD PUSH8 0xFFFFFFFFFFFFFFFF DUP2 GT ISZERO PUSH2 0x17B2 JUMPI PUSH2 0x17B1 PUSH2 0x15BC JUMP JUMPDEST JUMPDEST PUSH2 0x17BE DUP7 DUP3 DUP8 ADD PUSH2 0x170F JUMP JUMPDEST SWAP2 POP POP SWAP3 POP SWAP3 POP SWAP3 JUMP JUMPDEST PUSH1 0x0 DUP2 ISZERO ISZERO SWAP1 POP SWAP2 SWAP1 POP JUMP JUMPDEST PUSH2 0x17DD DUP2 PUSH2 0x17C8 JUMP JUMPDEST DUP3 MSTORE POP POP JUMP JUMPDEST PUSH1 0x0 PUSH1 0x20 DUP3 ADD SWAP1 POP PUSH2 0x17F8 PUSH1 0x0 DUP4 ADD DUP5 PUSH2 0x17D4 JUMP JUMPDEST SWAP3 SWAP2 POP POP JUMP JUMPDEST PUSH1 0x0 PUSH8 0xFFFFFFFFFFFFFFFF DUP3 AND SWAP1 POP SWAP2 SWAP1 POP JUMP JUMPDEST PUSH2 0x181B DUP2 PUSH2 0x17FE JUMP JUMPDEST DUP2 EQ PUSH2 0x1826 JUMPI PUSH1 0x0 DUP1 REVERT JUMPDEST POP JUMP JUMPDEST PUSH1 0x0 DUP2 CALLDATALOAD SWAP1 POP PUSH2 0x1838 DUP2 PUSH2 0x1812 JUMP JUMPDEST SWAP3 SWAP2 POP POP JUMP JUMPDEST PUSH1 0x0 PUSH1 0x20 DUP3 DUP5 SUB SLT ISZERO PUSH2 0x1854 JUMPI PUSH2 0x1853 PUSH2 0x15B7 JUMP JUMPDEST JUMPDEST PUSH1 0x0 PUSH2 0x1862 DUP5 DUP3 DUP6 ADD PUSH2 0x1829 JUMP JUMPDEST SWAP2 POP POP SWAP3 SWAP2 POP POP JUMP JUMPDEST PUSH2 0x1874 DUP2 PUSH2 0x15C1 JUMP JUMPDEST DUP3 MSTORE POP POP JUMP JUMPDEST PUSH1 0x0 PUSH1 0x20 DUP3 ADD SWAP1 POP PUSH2 0x188F PUSH1 0x0 DUP4 ADD DUP5 PUSH2 0x186B JUMP JUMPDEST SWAP3 SWAP2 POP POP JUMP JUMPDEST PUSH1 0x0 DUP2 MLOAD SWAP1 POP SWAP2 SWAP1 POP JUMP JUMPDEST PUSH1 0x0 DUP3 DUP3 MSTORE PUSH1 0x20 DUP3 ADD SWAP1 POP SWAP3 SWAP2 POP POP JUMP JUMPDEST PUSH1 0x0 JUMPDEST DUP4 DUP2 LT ISZERO PUSH2 0x18CF JUMPI DUP1 DUP3 ADD MLOAD DUP2 DUP5 ADD MSTORE PUSH1 0x20 DUP2 ADD SWAP1 POP PUSH2 0x18B4 JUMP JUMPDEST PUSH1 0x0 DUP5 DUP5 ADD MSTORE POP POP POP POP JUMP JUMPDEST PUSH1 0x0 PUSH2 0x18E6 DUP3 PUSH2 0x1895 JUMP JUMPDEST PUSH2 0x18F0 DUP2 DUP6 PUSH2 0x18A0 JUMP JUMPDEST SWAP4 POP PUSH2 0x1900 DUP2 DUP6 PUSH1 0x20 DUP7 ADD PUSH2 0x18B1 JUMP JUMPDEST PUSH2 0x1909 DUP2 PUSH2 0x1601 JUMP JUMPDEST DUP5 ADD SWAP2 POP POP SWAP3 SWAP2 POP POP JUMP JUMPDEST PUSH1 0x0 PUSH1 0x20 DUP3 ADD SWAP1 POP DUP2 DUP2 SUB PUSH1 0x0 DUP4 ADD MSTORE PUSH2 0x192E DUP2 DUP5 PUSH2 0x18DB JUMP JUMPDEST SWAP1 POP SWAP3 SWAP2 POP POP JUMP JUMPDEST PUSH1 0x0 DUP2 MLOAD SWAP1 POP SWAP2 SWAP1 POP JUMP JUMPDEST PUSH1 0x0 DUP3 DUP3 MSTORE PUSH1 0x20 DUP3 ADD SWAP1 POP SWAP3 SWAP2 POP POP JUMP JUMPDEST PUSH1 0x0 PUSH2 0x195D DUP3 PUSH2 0x1936 JUMP JUMPDEST PUSH2 0x1967 DUP2 DUP6 PUSH2 0x1941 JUMP JUMPDEST SWAP4 POP PUSH2 0x1977 DUP2 DUP6 PUSH1 0x20 DUP7 ADD PUSH2 0x18B1 JUMP JUMPDEST PUSH2 0x1980 DUP2 PUSH2 0x1601 JUMP JUMPDEST DUP5 ADD SWAP2 POP POP SWAP3 SWAP2 POP POP JUMP JUMPDEST PUSH1 0x0 PUSH1 0x20 DUP3 ADD SWAP1 POP DUP2 DUP2 SUB PUSH1 0x0 DUP4 ADD MSTORE PUSH2 0x19A5 DUP2 DUP5 PUSH2 0x1952 JUMP JUMPDEST SWAP1 POP SWAP3 SWAP2 POP POP JUMP JUMPDEST PUSH1 0x0 PUSH20 0xFFFFFFFFFFFFFFFFFFFFFFFFFFFFFFFFFFFFFFFF DUP3 AND SWAP1 POP SWAP2 SWAP1 POP JUMP JUMPDEST PUSH1 0x0 PUSH2 0x19D8 DUP3 PUSH2 0x19AD JUMP JUMPDEST SWAP1 POP SWAP2 SWAP1 POP JUMP JUMPDEST PUSH2 0x19E8 DUP2 PUSH2 0x19CD JUMP JUMPDEST DUP3 MSTORE POP POP JUMP JUMPDEST PUSH1 0x0 PUSH1 0x20 DUP3 ADD SWAP1 POP PUSH2 0x1A03 PUSH1 0x0 DUP4 ADD DUP5 PUSH2 0x19DF JUMP JUMPDEST SWAP3 SWAP2 POP POP JUMP JUMPDEST PUSH2 0x1A12 DUP2 PUSH2 0x19CD JUMP JUMPDEST DUP2 EQ PUSH2 0x1A1D JUMPI PUSH1 0x0 DUP1 REVERT JUMPDEST POP JUMP JUMPDEST PUSH1 0x0 DUP2 CALLDATALOAD SWAP1 POP PUSH2 0x1A2F DUP2 PUSH2 0x1A09 JUMP JUMPDEST SWAP3 SWAP2 POP POP JUMP JUMPDEST PUSH1 0x0 PUSH1 0x20 DUP3 DUP5 SUB SLT ISZERO PUSH2 0x1A4B JUMPI PUSH2 0x1A4A PUSH2 0x15B7 JUMP JUMPDEST JUMPDEST PUSH1 0x0 PUSH2 0x1A59 DUP5 DUP3 DUP6 ADD PUSH2 0x1A20 JUMP JUMPDEST SWAP2 POP POP SWAP3 SWAP2 POP POP JUMP JUMPDEST PUSH32 0x4E487B7100000000000000000000000000000000000000000000000000000000 PUSH1 0x0 MSTORE PUSH1 0x22 PUSH1 0x4 MSTORE PUSH1 0x24 PUSH1 0x0 REVERT JUMPDEST PUSH1 0x0 PUSH1 0x2 DUP3 DIV SWAP1 POP PUSH1 0x1 DUP3 AND DUP1 PUSH2 0x1AA9 JUMPI PUSH1 0x7F DUP3 AND SWAP2 POP JUMPDEST PUSH1 0x20 DUP3 LT DUP2 SUB PUSH2 0x1ABC JUMPI PUSH2 0x1ABB PUSH2 0x1A62 JUMP JUMPDEST JUMPDEST POP SWAP2 SWAP1 POP JUMP JUMPDEST PUSH32 0x4D7573742062652070726F706F736564206F776E657200000000000000000000 PUSH1 0x0 DUP3 ADD MSTORE POP JUMP JUMPDEST PUSH1 0x0 PUSH2 0x1AF8 PUSH1 0x16 DUP4 PUSH2 0x1941 JUMP JUMPDEST SWAP2 POP PUSH2 0x1B03 DUP3 PUSH2 0x1AC2 JUMP JUMPDEST PUSH1 0x20 DUP3 ADD SWAP1 POP SWAP2 SWAP1 POP JUMP JUMPDEST PUSH1 0x0 PUSH1 0x20 DUP3 ADD SWAP1 POP DUP2 DUP2 SUB PUSH1 0x0 DUP4 ADD MSTORE PUSH2 0x1B27 DUP2 PUSH2 0x1AEB JUMP JUMPDEST SWAP1 POP SWAP2 SWAP1 POP JUMP JUMPDEST PUSH1 0x0 DUP2 SWAP1 POP DUP2 PUSH1 0x0 MSTORE PUSH1 0x20 PUSH1 0x0 KECCAK256 SWAP1 POP SWAP2 SWAP1 POP JUMP JUMPDEST PUSH1 0x0 PUSH1 0x20 PUSH1 0x1F DUP4 ADD DIV SWAP1 POP SWAP2 SWAP1 POP JUMP JUMPDEST PUSH1 0x0 DUP3 DUP3 SHL SWAP1 POP SWAP3 SWAP2 POP POP JUMP JUMPDEST PUSH1 0x0 PUSH1 0x8 DUP4 MUL PUSH2 0x1B90 PUSH32 0xFFFFFFFFFFFFFFFFFFFFFFFFFFFFFFFFFFFFFFFFFFFFFFFFFFFFFFFFFFFFFFFF DUP3 PUSH2 0x1B53 JUMP JUMPDEST PUSH2 0x1B9A DUP7 DUP4 PUSH2 0x1B53 JUMP JUMPDEST SWAP6 POP DUP1 NOT DUP5 AND SWAP4 POP DUP1 DUP7 AND DUP5 OR SWAP3 POP POP POP SWAP4 SWAP3 POP POP POP JUMP JUMPDEST PUSH1 0x0 DUP2 SWAP1 POP SWAP2 SWAP1 POP JUMP JUMPDEST PUSH1 0x0 DUP2 SWAP1 POP SWAP2 SWAP1 POP JUMP JUMPDEST PUSH1 0x0 PUSH2 0x1BE1 PUSH2 0x1BDC PUSH2 0x1BD7 DUP5 PUSH2 0x1BB2 JUMP JUMPDEST PUSH2 0x1BBC JUMP JUMPDEST PUSH2 0x1BB2 JUMP JUMPDEST SWAP1 POP SWAP2 SWAP1 POP JUMP JUMPDEST PUSH1 0x0 DUP2 SWAP1 POP SWAP2 SWAP1 POP JUMP JUMPDEST PUSH2 0x1BFB DUP4 PUSH2 0x1BC6 JUMP JUMPDEST PUSH2 0x1C0F PUSH2 0x1C07 DUP3 PUSH2 0x1BE8 JUMP JUMPDEST DUP5 DUP5 SLOAD PUSH2 0x1B60 JUMP JUMPDEST DUP3 SSTORE POP POP POP POP JUMP JUMPDEST PUSH1 0x0 SWAP1 JUMP JUMPDEST PUSH2 0x1C24 PUSH2 0x1C17 JUMP JUMPDEST PUSH2 0x1C2F DUP2 DUP5 DUP5 PUSH2 0x1BF2 JUMP JUMPDEST POP POP POP JUMP JUMPDEST JUMPDEST DUP2 DUP2 LT ISZERO PUSH2 0x1C53 JUMPI PUSH2 0x1C48 PUSH1 0x0 DUP3 PUSH2 0x1C1C JUMP JUMPDEST PUSH1 0x1 DUP2 ADD SWAP1 POP PUSH2 0x1C35 JUMP JUMPDEST POP POP JUMP JUMPDEST PUSH1 0x1F DUP3 GT ISZERO PUSH2 0x1C98 JUMPI PUSH2 0x1C69 DUP2 PUSH2 0x1B2E JUMP JUMPDEST PUSH2 0x1C72 DUP5 PUSH2 0x1B43 JUMP JUMPDEST DUP2 ADD PUSH1 0x20 DUP6 LT ISZERO PUSH2 0x1C81 JUMPI DUP2 SWAP1 POP JUMPDEST PUSH2 0x1C95 PUSH2 0x1C8D DUP6 PUSH2 0x1B43 JUMP JUMPDEST DUP4 ADD DUP3 PUSH2 0x1C34 JUMP JUMPDEST POP POP JUMPDEST POP POP POP JUMP JUMPDEST PUSH1 0x0 DUP3 DUP3 SHR SWAP1 POP SWAP3 SWAP2 POP POP JUMP JUMPDEST PUSH1 0x0 PUSH2 0x1CBB PUSH1 0x0 NOT DUP5 PUSH1 0x8 MUL PUSH2 0x1C9D JUMP JUMPDEST NOT DUP1 DUP4 AND SWAP2 POP POP SWAP3 SWAP2 POP POP JUMP JUMPDEST PUSH1 0x0 PUSH2 0x1CD4 DUP4 DUP4 PUSH2 0x1CAA JUMP JUMPDEST SWAP2 POP DUP3 PUSH1 0x2 MUL DUP3 OR SWAP1 POP SWAP3 SWAP2 POP POP JUMP JUMPDEST PUSH2 0x1CED DUP3 PUSH2 0x1895 JUMP JUMPDEST PUSH8 0xFFFFFFFFFFFFFFFF DUP2 GT ISZERO PUSH2 0x1D06 JUMPI PUSH2 0x1D05 PUSH2 0x1612 JUMP JUMPDEST JUMPDEST PUSH2 0x1D10 DUP3 SLOAD PUSH2 0x1A91 JUMP JUMPDEST PUSH2 0x1D1B DUP3 DUP3 DUP6 PUSH2 0x1C57 JUMP JUMPDEST PUSH1 0x0 PUSH1 0x20 SWAP1 POP PUSH1 0x1F DUP4 GT PUSH1 0x1 DUP2 EQ PUSH2 0x1D4E JUMPI PUSH1 0x0 DUP5 ISZERO PUSH2 0x1D3C JUMPI DUP3 DUP8 ADD MLOAD SWAP1 POP JUMPDEST PUSH2 0x1D46 DUP6 DUP3 PUSH2 0x1CC8 JUMP JUMPDEST DUP7 SSTORE POP PUSH2 0x1DAE JUMP JUMPDEST PUSH1 0x1F NOT DUP5 AND PUSH2 0x1D5C DUP7 PUSH2 0x1B2E JUMP JUMPDEST PUSH1 0x0 JUMPDEST DUP3 DUP2 LT ISZERO PUSH2 0x1D84 JUMPI DUP5 DUP10 ADD MLOAD DUP3 SSTORE PUSH1 0x1 DUP3 ADD SWAP2 POP PUSH1 0x20 DUP6 ADD SWAP5 POP PUSH1 0x20 DUP2 ADD SWAP1 POP PUSH2 0x1D5F JUMP JUMPDEST DUP7 DUP4 LT ISZERO PUSH2 0x1DA1 JUMPI DUP5 DUP10 ADD MLOAD PUSH2 0x1D9D PUSH1 0x1F DUP10 AND DUP3 PUSH2 0x1CAA JUMP JUMPDEST DUP4 SSTORE POP JUMPDEST PUSH1 0x1 PUSH1 0x2 DUP9 MUL ADD DUP9 SSTORE POP POP POP JUMPDEST POP POP POP POP POP POP JUMP JUMPDEST PUSH1 0x0 DUP2 SWAP1 POP DUP2 PUSH1 0x0 MSTORE PUSH1 0x20 PUSH1 0x0 KECCAK256 SWAP1 POP SWAP2 SWAP1 POP JUMP JUMPDEST PUSH1 0x1F DUP3 GT ISZERO PUSH2 0x1E0C JUMPI PUSH2 0x1DDD DUP2 PUSH2 0x1DB6 JUMP JUMPDEST PUSH2 0x1DE6 DUP5 PUSH2 0x1B43 JUMP JUMPDEST DUP2 ADD PUSH1 0x20 DUP6 LT ISZERO PUSH2 0x1DF5 JUMPI DUP2 SWAP1 POP JUMPDEST PUSH2 0x1E09 PUSH2 0x1E01 DUP6 PUSH2 0x1B43 JUMP JUMPDEST DUP4 ADD DUP3 PUSH2 0x1C34 JUMP JUMPDEST POP POP JUMPDEST POP POP POP JUMP JUMPDEST PUSH2 0x1E1A DUP3 PUSH2 0x1936 JUMP JUMPDEST PUSH8 0xFFFFFFFFFFFFFFFF DUP2 GT ISZERO PUSH2 0x1E33 JUMPI PUSH2 0x1E32 PUSH2 0x1612 JUMP JUMPDEST JUMPDEST PUSH2 0x1E3D DUP3 SLOAD PUSH2 0x1A91 JUMP JUMPDEST PUSH2 0x1E48 DUP3 DUP3 DUP6 PUSH2 0x1DCB JUMP JUMPDEST PUSH1 0x0 PUSH1 0x20 SWAP1 POP PUSH1 0x1F DUP4 GT PUSH1 0x1 DUP2 EQ PUSH2 0x1E7B JUMPI PUSH1 0x0 DUP5 ISZERO PUSH2 0x1E69 JUMPI DUP3 DUP8 ADD MLOAD SWAP1 POP JUMPDEST PUSH2 0x1E73 DUP6 DUP3 PUSH2 0x1CC8 JUMP JUMPDEST DUP7 SSTORE POP PUSH2 0x1EDB JUMP JUMPDEST PUSH1 0x1F NOT DUP5 AND PUSH2 0x1E89 DUP7 PUSH2 0x1DB6 JUMP JUMPDEST PUSH1 0x0 JUMPDEST DUP3 DUP2 LT ISZERO PUSH2 0x1EB1 JUMPI DUP5 DUP10 ADD MLOAD DUP3 SSTORE PUSH1 0x1 DUP3 ADD SWAP2 POP PUSH1 0x20 DUP6 ADD SWAP5 POP PUSH1 0x20 DUP2 ADD SWAP1 POP PUSH2 0x1E8C JUMP JUMPDEST DUP7 DUP4 LT ISZERO PUSH2 0x1ECE JUMPI DUP5 DUP10 ADD MLOAD PUSH2 0x1ECA PUSH1 0x1F DUP10 AND DUP3 PUSH2 0x1CAA JUMP JUMPDEST DUP4 SSTORE POP JUMPDEST PUSH1 0x1 PUSH1 0x2 DUP9 MUL ADD DUP9 SSTORE POP POP POP JUMPDEST POP POP POP POP POP POP JUMP JUMPDEST PUSH1 0x0 DUP2 SLOAD PUSH2 0x1EF0 DUP2 PUSH2 0x1A91 JUMP JUMPDEST PUSH2 0x1EFA DUP2 DUP7 PUSH2 0x1941 JUMP JUMPDEST SWAP5 POP PUSH1 0x1 DUP3 AND PUSH1 0x0 DUP2 EQ PUSH2 0x1F15 JUMPI PUSH1 0x1 DUP2 EQ PUSH2 0x1F2B JUMPI PUSH2 0x1F5E JUMP JUMPDEST PUSH1 0xFF NOT DUP4 AND DUP7 MSTORE DUP2 ISZERO ISZERO PUSH1 0x20 MUL DUP7 ADD SWAP4 POP PUSH2 0x1F5E JUMP JUMPDEST PUSH2 0x1F34 DUP6 PUSH2 0x1DB6 JUMP JUMPDEST PUSH1 0x0 JUMPDEST DUP4 DUP2 LT ISZERO PUSH2 0x1F56 JUMPI DUP2 SLOAD DUP2 DUP10 ADD MSTORE PUSH1 0x1 DUP3 ADD SWAP2 POP PUSH1 0x20 DUP2 ADD SWAP1 POP PUSH2 0x1F37 JUMP JUMPDEST DUP1 DUP9 ADD SWAP6 POP POP POP JUMPDEST POP POP POP SWAP3 SWAP2 POP POP JUMP JUMPDEST PUSH1 0x0 DUP2 SLOAD PUSH2 0x1F74 DUP2 PUSH2 0x1A91 JUMP JUMPDEST PUSH2 0x1F7E DUP2 DUP7 PUSH2 0x18A0 JUMP JUMPDEST SWAP5 POP PUSH1 0x1 DUP3 AND PUSH1 0x0 DUP2 EQ PUSH2 0x1F99 JUMPI PUSH1 0x1 DUP2 EQ PUSH2 0x1FAF JUMPI PUSH2 0x1FE2 JUMP JUMPDEST PUSH1 0xFF NOT DUP4 AND DUP7 MSTORE DUP2 ISZERO ISZERO PUSH1 0x20 MUL DUP7 ADD SWAP4 POP PUSH2 0x1FE2 JUMP JUMPDEST PUSH2 0x1FB8 DUP6 PUSH2 0x1B2E JUMP JUMPDEST PUSH1 0x0 JUMPDEST DUP4 DUP2 LT ISZERO PUSH2 0x1FDA JUMPI DUP2 SLOAD DUP2 DUP10 ADD MSTORE PUSH1 0x1 DUP3 ADD SWAP2 POP PUSH1 0x20 DUP2 ADD SWAP1 POP PUSH2 0x1FBB JUMP JUMPDEST DUP1 DUP9 ADD SWAP6 POP POP POP JUMPDEST POP POP POP SWAP3 SWAP2 POP POP JUMP JUMPDEST PUSH1 0x0 PUSH1 0x60 DUP3 ADD SWAP1 POP DUP2 DUP2 SUB PUSH1 0x0 DUP4 ADD MSTORE PUSH2 0x2005 DUP2 DUP7 PUSH2 0x1EE3 JUMP JUMPDEST SWAP1 POP DUP2 DUP2 SUB PUSH1 0x20 DUP4 ADD MSTORE PUSH2 0x2019 DUP2 DUP6 PUSH2 0x1F67 JUMP JUMPDEST SWAP1 POP DUP2 DUP2 SUB PUSH1 0x40 DUP4 ADD MSTORE PUSH2 0x202D DUP2 DUP5 PUSH2 0x1F67 JUMP JUMPDEST SWAP1 POP SWAP5 SWAP4 POP POP POP POP JUMP JUMPDEST PUSH32 0x4F6E6C792063616C6C61626C65206279206F776E657200000000000000000000 PUSH1 0x0 DUP3 ADD MSTORE POP JUMP JUMPDEST PUSH1 0x0 PUSH2 0x206D PUSH1 0x16 DUP4 PUSH2 0x1941 JUMP JUMPDEST SWAP2 POP PUSH2 0x2078 DUP3 PUSH2 0x2037 JUMP JUMPDEST PUSH1 0x20 DUP3 ADD SWAP1 POP SWAP2 SWAP1 POP JUMP JUMPDEST PUSH1 0x0 PUSH1 0x20 DUP3 ADD SWAP1 POP DUP2 DUP2 SUB PUSH1 0x0 DUP4 ADD MSTORE PUSH2 0x209C DUP2 PUSH2 0x2060 JUMP JUMPDEST SWAP1 POP SWAP2 SWAP1 POP JUMP JUMPDEST PUSH32 0x4E487B7100000000000000000000000000000000000000000000000000000000 PUSH1 0x0 MSTORE PUSH1 0x21 PUSH1 0x4 MSTORE PUSH1 0x24 PUSH1 0x0 REVERT JUMPDEST PUSH32 0x4E487B7100000000000000000000000000000000000000000000000000000000 PUSH1 0x0 MSTORE PUSH1 0x32 PUSH1 0x4 MSTORE PUSH1 0x24 PUSH1 0x0 REVERT JUMPDEST PUSH32 0x4E487B7100000000000000000000000000000000000000000000000000000000 PUSH1 0x0 MSTORE PUSH1 0x11 PUSH1 0x4 MSTORE PUSH1 0x24 PUSH1 0x0 REVERT JUMPDEST PUSH1 0x0 PUSH2 0x213B DUP3 PUSH2 0x1BB2 JUMP JUMPDEST SWAP2 POP PUSH32 0xFFFFFFFFFFFFFFFFFFFFFFFFFFFFFFFFFFFFFFFFFFFFFFFFFFFFFFFFFFFFFFFF DUP3 SUB PUSH2 0x216D JUMPI PUSH2 0x216C PUSH2 0x2101 JUMP JUMPDEST JUMPDEST PUSH1 0x1 DUP3 ADD SWAP1 POP SWAP2 SWAP1 POP JUMP JUMPDEST PUSH2 0x2181 DUP2 PUSH2 0x17FE JUMP JUMPDEST DUP3 MSTORE POP POP JUMP JUMPDEST PUSH1 0x0 PUSH2 0xFFFF DUP3 AND SWAP1 POP SWAP2 SWAP1 POP JUMP JUMPDEST PUSH2 0x219E DUP2 PUSH2 0x2187 JUMP JUMPDEST DUP3 MSTORE POP POP JUMP JUMPDEST PUSH1 0x0 PUSH4 0xFFFFFFFF DUP3 AND SWAP1 POP SWAP2 SWAP1 POP JUMP JUMPDEST PUSH2 0x21BD DUP2 PUSH2 0x21A4 JUMP JUMPDEST DUP3 MSTORE POP POP JUMP JUMPDEST PUSH1 0x0 PUSH1 0xA0 DUP3 ADD SWAP1 POP PUSH2 0x21D8 PUSH1 0x0 DUP4 ADD DUP9 PUSH2 0x2178 JUMP JUMPDEST DUP2 DUP2 SUB PUSH1 0x20 DUP4 ADD MSTORE PUSH2 0x21EA DUP2 DUP8 PUSH2 0x18DB JUMP JUMPDEST SWAP1 POP PUSH2 0x21F9 PUSH1 0x40 DUP4 ADD DUP7 PUSH2 0x2195 JUMP JUMPDEST PUSH2 0x2206 PUSH1 0x60 DUP4 ADD DUP6 PUSH2 0x21B4 JUMP JUMPDEST PUSH2 0x2213 PUSH1 0x80 DUP4 ADD DUP5 PUSH2 0x186B JUMP JUMPDEST SWAP7 SWAP6 POP POP POP POP POP POP JUMP JUMPDEST PUSH1 0x0 DUP2 MLOAD SWAP1 POP PUSH2 0x222C DUP2 PUSH2 0x15CB JUMP JUMPDEST SWAP3 SWAP2 POP POP JUMP JUMPDEST PUSH1 0x0 PUSH1 0x20 DUP3 DUP5 SUB SLT ISZERO PUSH2 0x2248 JUMPI PUSH2 0x2247 PUSH2 0x15B7 JUMP JUMPDEST JUMPDEST PUSH1 0x0 PUSH2 0x2256 DUP5 DUP3 DUP6 ADD PUSH2 0x221D JUMP JUMPDEST SWAP2 POP POP SWAP3 SWAP2 POP POP JUMP JUMPDEST PUSH32 0x43616E6E6F74207472616E7366657220746F2073656C66000000000000000000 PUSH1 0x0 DUP3 ADD MSTORE POP JUMP JUMPDEST PUSH1 0x0 PUSH2 0x2295 PUSH1 0x17 DUP4 PUSH2 0x1941 JUMP JUMPDEST SWAP2 POP PUSH2 0x22A0 DUP3 PUSH2 0x225F JUMP JUMPDEST PUSH1 0x20 DUP3 ADD SWAP1 POP SWAP2 SWAP1 POP JUMP JUMPDEST PUSH1 0x0 PUSH1 0x20 DUP3 ADD SWAP1 POP DUP2 DUP2 SUB PUSH1 0x0 DUP4 ADD MSTORE PUSH2 0x22C4 DUP2 PUSH2 0x2288 JUMP JUMPDEST SWAP1 POP SWAP2 SWAP1 POP JUMP JUMPDEST PUSH2 0x22D4 DUP2 PUSH2 0x1BB2 JUMP JUMPDEST DUP3 MSTORE POP POP JUMP JUMPDEST PUSH1 0x0 PUSH1 0x20 DUP3 ADD SWAP1 POP PUSH2 0x22EF PUSH1 0x0 DUP4 ADD DUP5 PUSH2 0x22CB JUMP JUMPDEST SWAP3 SWAP2 POP POP JUMP JUMPDEST PUSH1 0x0 PUSH2 0x2300 DUP3 PUSH2 0x1BB2 JUMP JUMPDEST SWAP2 POP PUSH2 0x230B DUP4 PUSH2 0x1BB2 JUMP JUMPDEST SWAP3 POP DUP3 DUP3 ADD SWAP1 POP DUP1 DUP3 GT ISZERO PUSH2 0x2323 JUMPI PUSH2 0x2322 PUSH2 0x2101 JUMP JUMPDEST JUMPDEST SWAP3 SWAP2 POP POP JUMP JUMPDEST PUSH1 0x0 PUSH2 0x2334 DUP3 PUSH2 0x1BB2 JUMP JUMPDEST SWAP2 POP PUSH2 0x233F DUP4 PUSH2 0x1BB2 JUMP JUMPDEST SWAP3 POP DUP3 DUP3 SUB SWAP1 POP DUP2 DUP2 GT ISZERO PUSH2 0x2357 JUMPI PUSH2 0x2356 PUSH2 0x2101 JUMP JUMPDEST JUMPDEST SWAP3 SWAP2 POP POP JUMP JUMPDEST PUSH32 0x4E487B7100000000000000000000000000000000000000000000000000000000 PUSH1 0x0 MSTORE PUSH1 0x12 PUSH1 0x4 MSTORE PUSH1 0x24 PUSH1 0x0 REVERT JUMPDEST PUSH1 0x0 PUSH2 0x2397 DUP3 PUSH2 0x1BB2 JUMP JUMPDEST SWAP2 POP PUSH2 0x23A2 DUP4 PUSH2 0x1BB2 JUMP JUMPDEST SWAP3 POP DUP3 PUSH2 0x23B2 JUMPI PUSH2 0x23B1 PUSH2 0x235D JUMP JUMPDEST JUMPDEST DUP3 DUP3 MOD SWAP1 POP SWAP3 SWAP2 POP POP JUMP JUMPDEST PUSH1 0x0 PUSH2 0x23C8 DUP3 PUSH2 0x1BB2 JUMP JUMPDEST SWAP2 POP PUSH2 0x23D3 DUP4 PUSH2 0x1BB2 JUMP JUMPDEST SWAP3 POP DUP3 DUP3 MUL PUSH2 0x23E1 DUP2 PUSH2 0x1BB2 JUMP JUMPDEST SWAP2 POP DUP3 DUP3 DIV DUP5 EQ DUP4 ISZERO OR PUSH2 0x23F8 JUMPI PUSH2 0x23F7 PUSH2 0x2101 JUMP JUMPDEST JUMPDEST POP SWAP3 SWAP2 POP POP JUMP JUMPDEST PUSH1 0x0 DUP2 PUSH1 0x1 SHR SWAP1 POP SWAP2 SWAP1 POP JUMP JUMPDEST PUSH1 0x0 DUP1 DUP3 SWAP2 POP DUP4 SWAP1 POP JUMPDEST PUSH1 0x1 DUP6 GT ISZERO PUSH2 0x2456 JUMPI DUP1 DUP7 DIV DUP2 GT ISZERO PUSH2 0x2432 JUMPI PUSH2 0x2431 PUSH2 0x2101 JUMP JUMPDEST JUMPDEST PUSH1 0x1 DUP6 AND ISZERO PUSH2 0x2441 JUMPI DUP1 DUP3 MUL SWAP2 POP JUMPDEST DUP1 DUP2 MUL SWAP1 POP PUSH2 0x244F DUP6 PUSH2 0x23FF JUMP JUMPDEST SWAP5 POP PUSH2 0x2416 JUMP JUMPDEST SWAP5 POP SWAP5 SWAP3 POP POP POP JUMP JUMPDEST PUSH1 0x0 DUP3 PUSH2 0x246F JUMPI PUSH1 0x1 SWAP1 POP PUSH2 0x252B JUMP JUMPDEST DUP2 PUSH2 0x247D JUMPI PUSH1 0x0 SWAP1 POP PUSH2 0x252B JUMP JUMPDEST DUP2 PUSH1 0x1 DUP2 EQ PUSH2 0x2493 JUMPI PUSH1 0x2 DUP2 EQ PUSH2 0x249D JUMPI PUSH2 0x24CC JUMP JUMPDEST PUSH1 0x1 SWAP2 POP POP PUSH2 0x252B JUMP JUMPDEST PUSH1 0xFF DUP5 GT ISZERO PUSH2 0x24AF JUMPI PUSH2 0x24AE PUSH2 0x2101 JUMP JUMPDEST JUMPDEST DUP4 PUSH1 0x2 EXP SWAP2 POP DUP5 DUP3 GT ISZERO PUSH2 0x24C6 JUMPI PUSH2 0x24C5 PUSH2 0x2101 JUMP JUMPDEST JUMPDEST POP PUSH2 0x252B JUMP JUMPDEST POP PUSH1 0x20 DUP4 LT PUSH2 0x133 DUP4 LT AND PUSH1 0x4E DUP5 LT PUSH1 0xB DUP5 LT AND OR ISZERO PUSH2 0x2501 JUMPI DUP3 DUP3 EXP SWAP1 POP DUP4 DUP2 GT ISZERO PUSH2 0x24FC JUMPI PUSH2 0x24FB PUSH2 0x2101 JUMP JUMPDEST JUMPDEST PUSH2 0x252B JUMP JUMPDEST PUSH2 0x250E DUP5 DUP5 DUP5 PUSH1 0x1 PUSH2 0x240C JUMP JUMPDEST SWAP3 POP SWAP1 POP DUP2 DUP5 DIV DUP2 GT ISZERO PUSH2 0x2525 JUMPI PUSH2 0x2524 PUSH2 0x2101 JUMP JUMPDEST JUMPDEST DUP2 DUP2 MUL SWAP1 POP JUMPDEST SWAP4 SWAP3 POP POP POP JUMP JUMPDEST PUSH1 0x0 PUSH2 0x253D DUP3 PUSH2 0x1BB2 JUMP JUMPDEST SWAP2 POP PUSH2 0x2548 DUP4 PUSH2 0x1BB2 JUMP JUMPDEST SWAP3 POP PUSH2 0x2575 PUSH32 0xFFFFFFFFFFFFFFFFFFFFFFFFFFFFFFFFFFFFFFFFFFFFFFFFFFFFFFFFFFFFFFFF DUP5 DUP5 PUSH2 0x245F JUMP JUMPDEST SWAP1 POP SWAP3 SWAP2 POP POP JUMP INVALID LOG2 PUSH5 0x6970667358 0x22 SLT KECCAK256 DELEGATECALL 0xA6 PUSH20 0x20A0D202505DB843CDF3A9D53ED43570BD6E9BB1 CALLDATACOPY SWAP2 EXTCODESIZE SSTORE DUP11 TIMESTAMP 0xE4 CALLDATACOPY POP PUSH5 0x736F6C6343 STOP ADDMOD SGT STOP CALLER PUSH4 0x6F6E7374 KECCAK256 PUSH2 0x7069 MSTORE PUSH6 0x73706F6E7365 KECCAK256 RETURNDATASIZE KECCAK256 PUSH2 0x7761 PUSH10 0x742046756E6374696F6E PUSH20 0x2E6D616B654874747052657175657374287B7572 PUSH13 0x3A206068747470733A2F2F6361 PUSH21 0x666163742E6E696E6A612F666163742F607D293B69 PUSH7 0x20286170695265 PUSH20 0x706F6E73652E6572726F7229207B7468726F7720 GASLIMIT PUSH19 0x726F72282752657175657374206661696C6564 0x27 0x29 EXTCODESIZE PUSH30 0x636F6E7374207B2064617461207D203D20617069526573706F6E73653B72 PUSH6 0x7475726E2046 PUSH22 0x6E6374696F6E732E656E636F6465537472696E672864 PUSH2 0x7461 0x2E PUSH7 0x61637429000000 "
				},
				"gasEstimates": {
					"creation": {
						"codeDepositCost": "1930200",
						"executionCost": "infinite",
						"totalCost": "infinite"
					},
					"external": {
						"acceptOwnership()": "54562",
						"fact()": "infinite",
						"handleOracleFulfillment(bytes32,bytes,bytes)": "infinite",
						"hasReceivedFact()": "2605",
						"owner()": "2566",
						"s_lastError()": "infinite",
						"s_lastRequestId()": "2495",
						"s_lastResponse()": "infinite",
						"sendRequest(uint64)": "infinite",
						"transferOwnership(address)": "30742"
					},
					"internal": {
						"fulfillRequest(bytes32,bytes memory,bytes memory)": "infinite"
					}
				},
				"methodIdentifiers": {
					"acceptOwnership()": "79ba5097",
					"fact()": "73e3ce80",
					"handleOracleFulfillment(bytes32,bytes,bytes)": "0ca76175",
					"hasReceivedFact()": "1041a361",
					"owner()": "8da5cb5b",
					"s_lastError()": "4b0795a8",
					"s_lastRequestId()": "b1e21749",
					"s_lastResponse()": "3944ea3a",
					"sendRequest(uint64)": "2f9d6254",
					"transferOwnership(address)": "f2fde38b"
				}
			},
			"storageLayout": {
				"storage": [
					{
						"astId": 816,
						"contract": "contracts/Try_API.sol:CatFactConsumer",
						"label": "s_owner",
						"offset": 0,
						"slot": "0",
						"type": "t_address"
					},
					{
						"astId": 818,
						"contract": "contracts/Try_API.sol:CatFactConsumer",
						"label": "s_pendingOwner",
						"offset": 0,
						"slot": "1",
						"type": "t_address"
					},
					{
						"astId": 2285,
						"contract": "contracts/Try_API.sol:CatFactConsumer",
						"label": "s_lastRequestId",
						"offset": 0,
						"slot": "2",
						"type": "t_bytes32"
					},
					{
						"astId": 2287,
						"contract": "contracts/Try_API.sol:CatFactConsumer",
						"label": "s_lastResponse",
						"offset": 0,
						"slot": "3",
						"type": "t_bytes_storage"
					},
					{
						"astId": 2289,
						"contract": "contracts/Try_API.sol:CatFactConsumer",
						"label": "s_lastError",
						"offset": 0,
						"slot": "4",
						"type": "t_bytes_storage"
					},
					{
						"astId": 2306,
						"contract": "contracts/Try_API.sol:CatFactConsumer",
						"label": "router",
						"offset": 0,
						"slot": "5",
						"type": "t_address"
					},
					{
						"astId": 2309,
						"contract": "contracts/Try_API.sol:CatFactConsumer",
						"label": "source",
						"offset": 0,
						"slot": "6",
						"type": "t_string_storage"
					},
					{
						"astId": 2312,
						"contract": "contracts/Try_API.sol:CatFactConsumer",
						"label": "gasLimit",
						"offset": 0,
						"slot": "7",
						"type": "t_uint32"
					},
					{
						"astId": 2315,
						"contract": "contracts/Try_API.sol:CatFactConsumer",
						"label": "donID",
						"offset": 0,
						"slot": "8",
						"type": "t_bytes32"
					},
					{
						"astId": 2317,
						"contract": "contracts/Try_API.sol:CatFactConsumer",
						"label": "fact",
						"offset": 0,
						"slot": "9",
						"type": "t_string_storage"
					}
				],
				"types": {
					"t_address": {
						"encoding": "inplace",
						"label": "address",
						"numberOfBytes": "20"
					},
					"t_bytes32": {
						"encoding": "inplace",
						"label": "bytes32",
						"numberOfBytes": "32"
					},
					"t_bytes_storage": {
						"encoding": "bytes",
						"label": "bytes",
						"numberOfBytes": "32"
					},
					"t_string_storage": {
						"encoding": "bytes",
						"label": "string",
						"numberOfBytes": "32"
					},
					"t_uint32": {
						"encoding": "inplace",
						"label": "uint32",
						"numberOfBytes": "4"
					}
				}
			},
			"userdoc": {
				"kind": "user",
				"methods": {
					"acceptOwnership()": {
						"notice": "Allows an ownership transfer to be completed by the recipient."
					},
					"constructor": {
						"notice": "Initializes the contract with the Chainlink router address and sets the contract owner"
					},
					"handleOracleFulfillment(bytes32,bytes,bytes)": {
						"notice": "Chainlink Functions response handler called by the Functions Router during fullilment from the designated transmitter node in an OCR round."
					},
					"hasReceivedFact()": {
						"notice": "Check if a cat fact has been received"
					},
					"owner()": {
						"notice": "Get the current owner"
					},
					"sendRequest(uint64)": {
						"notice": "Sends an HTTP request for a cat fact"
					},
					"transferOwnership(address)": {
						"notice": "Allows an owner to begin transferring ownership to a new address."
					}
				},
				"notice": "This contract fetches random cat facts using Chainlink Functions",
				"version": 1
			}
		}
	}
}