{
	"data": {
		"bytecode": {
			"linkReferences": {},
			"object": "608060405234801561000f575f5ffd5b505f6008642e90edd000600460405161002790610094565b610033939291906101cd565b604051809103905ff08015801561004c573d5f5f3e3d5ffd5b509050805f5f6101000a81548173ffffffffffffffffffffffffffffffffffffffff021916908373ffffffffffffffffffffffffffffffffffffffff16021790555050610215565b610b1f80610b4483390190565b5f819050919050565b5f60ff82169050919050565b5f819050919050565b5f6100d96100d46100cf846100a1565b6100b6565b6100aa565b9050919050565b6100e9816100bf565b82525050565b5f819050919050565b5f819050919050565b5f61011b610116610111846100ef565b6100b6565b6100f8565b9050919050565b61012b81610101565b82525050565b5f82825260208201905092915050565b7f455448202f2055534400000000000000000000000000000000000000000000005f82015250565b5f610175600983610131565b915061018082610141565b602082019050919050565b5f819050919050565b5f819050919050565b5f6101b76101b26101ad8461018b565b6100b6565b610194565b9050919050565b6101c78161019d565b82525050565b5f6080820190506101e05f8301866100e0565b6101ed6020830185610122565b81810360408301526101fe81610169565b905061020d60608301846101be565b949350505050565b610922806102225f395ff3fe608060405234801561000f575f5ffd5b5060043610610055575f3560e01c80630d8e6e2c146100595780631a092541146100775780638e15f473146100955780639a6fc8f5146100b3578063f0141d84146100e7575b5f5ffd5b610061610105565b60405161006e9190610426565b60405180910390f35b61007f610198565b60405161008c91906104af565b60405180910390f35b61009d61022f565b6040516100aa91906104e7565b60405180910390f35b6100cd60048036038101906100c89190610550565b6102cb565b6040516100de95949392919061058a565b60405180910390f35b6100ef61037b565b6040516100fc91906105f6565b60405180910390f35b5f5f5f9054906101000a900473ffffffffffffffffffffffffffffffffffffffff1673ffffffffffffffffffffffffffffffffffffffff166354fd4d506040518163ffffffff1660e01b8152600401602060405180830381865afa15801561016f573d5f5f3e3d5ffd5b505050506040513d601f19601f820116820180604052508101906101939190610639565b905090565b60605f5f9054906101000a900473ffffffffffffffffffffffffffffffffffffffff1673ffffffffffffffffffffffffffffffffffffffff16637284e4166040518163ffffffff1660e01b81526004015f60405180830381865afa158015610202573d5f5f3e3d5ffd5b505050506040513d5f823e3d601f19601f8201168201806040525081019061022a9190610782565b905090565b5f5f5f5f9054906101000a900473ffffffffffffffffffffffffffffffffffffffff1673ffffffffffffffffffffffffffffffffffffffff1663feaf968c6040518163ffffffff1660e01b815260040160a060405180830381865afa15801561029a573d5f5f3e3d5ffd5b505050506040513d601f19601f820116820180604052508101906102be9190610807565b5050509150508091505090565b5f5f5f5f5f5f5f9054906101000a900473ffffffffffffffffffffffffffffffffffffffff1673ffffffffffffffffffffffffffffffffffffffff16639a6fc8f5876040518263ffffffff1660e01b8152600401610329919061087e565b60a060405180830381865afa158015610344573d5f5f3e3d5ffd5b505050506040513d601f19601f820116820180604052508101906103689190610807565b9450945094509450945091939590929450565b5f5f5f9054906101000a900473ffffffffffffffffffffffffffffffffffffffff1673ffffffffffffffffffffffffffffffffffffffff1663313ce5676040518163ffffffff1660e01b8152600401602060405180830381865afa1580156103e5573d5f5f3e3d5ffd5b505050506040513d601f19601f8201168201806040525081019061040991906108c1565b905090565b5f819050919050565b6104208161040e565b82525050565b5f6020820190506104395f830184610417565b92915050565b5f81519050919050565b5f82825260208201905092915050565b8281835e5f83830152505050565b5f601f19601f8301169050919050565b5f6104818261043f565b61048b8185610449565b935061049b818560208601610459565b6104a481610467565b840191505092915050565b5f6020820190508181035f8301526104c78184610477565b905092915050565b5f819050919050565b6104e1816104cf565b82525050565b5f6020820190506104fa5f8301846104d8565b92915050565b5f604051905090565b5f5ffd5b5f5ffd5b5f69ffffffffffffffffffff82169050919050565b61052f81610511565b8114610539575f5ffd5b50565b5f8135905061054a81610526565b92915050565b5f6020828403121561056557610564610509565b5b5f6105728482850161053c565b91505092915050565b61058481610511565b82525050565b5f60a08201905061059d5f83018861057b565b6105aa60208301876104d8565b6105b76040830186610417565b6105c46060830185610417565b6105d1608083018461057b565b9695505050505050565b5f60ff82169050919050565b6105f0816105db565b82525050565b5f6020820190506106095f8301846105e7565b92915050565b6106188161040e565b8114610622575f5ffd5b50565b5f815190506106338161060f565b92915050565b5f6020828403121561064e5761064d610509565b5b5f61065b84828501610625565b91505092915050565b5f5ffd5b5f5ffd5b7f4e487b71000000000000000000000000000000000000000000000000000000005f52604160045260245ffd5b6106a282610467565b810181811067ffffffffffffffff821117156106c1576106c061066c565b5b80604052505050565b5f6106d3610500565b90506106df8282610699565b919050565b5f67ffffffffffffffff8211156106fe576106fd61066c565b5b61070782610467565b9050602081019050919050565b5f610726610721846106e4565b6106ca565b90508281526020810184848401111561074257610741610668565b5b61074d848285610459565b509392505050565b5f82601f83011261076957610768610664565b5b8151610779848260208601610714565b91505092915050565b5f6020828403121561079757610796610509565b5b5f82015167ffffffffffffffff8111156107b4576107b361050d565b5b6107c084828501610755565b91505092915050565b5f815190506107d781610526565b92915050565b6107e6816104cf565b81146107f0575f5ffd5b50565b5f81519050610801816107dd565b92915050565b5f5f5f5f5f60a086880312156108205761081f610509565b5b5f61082d888289016107c9565b955050602061083e888289016107f3565b945050604061084f88828901610625565b935050606061086088828901610625565b9250506080610871888289016107c9565b9150509295509295909350565b5f6020820190506108915f83018461057b565b92915050565b6108a0816105db565b81146108aa575f5ffd5b50565b5f815190506108bb81610897565b92915050565b5f602082840312156108d6576108d5610509565b5b5f6108e3848285016108ad565b9150509291505056fea2646970667358221220e4f35c82f2bad01ffd56b542a5b17b2bc706571617a843a3a90374c1d52f77a464736f6c634300081d0033608060405234801561000f575f5ffd5b50604051610b1f380380610b1f8339818101604052810190610031919061025a565b835f5f6101000a81548160ff021916908360ff16021790555082600181905550816002908161006091906104e1565b5080600381905550505050506105b0565b5f604051905090565b5f5ffd5b5f5ffd5b5f60ff82169050919050565b61009781610082565b81146100a1575f5ffd5b50565b5f815190506100b28161008e565b92915050565b5f819050919050565b6100ca816100b8565b81146100d4575f5ffd5b50565b5f815190506100e5816100c1565b92915050565b5f5ffd5b5f5ffd5b5f601f19601f8301169050919050565b7f4e487b71000000000000000000000000000000000000000000000000000000005f52604160045260245ffd5b610139826100f3565b810181811067ffffffffffffffff8211171561015857610157610103565b5b80604052505050565b5f61016a610071565b90506101768282610130565b919050565b5f67ffffffffffffffff82111561019557610194610103565b5b61019e826100f3565b9050602081019050919050565b8281835e5f83830152505050565b5f6101cb6101c68461017b565b610161565b9050828152602081018484840111156101e7576101e66100ef565b5b6101f28482856101ab565b509392505050565b5f82601f83011261020e5761020d6100eb565b5b815161021e8482602086016101b9565b91505092915050565b5f819050919050565b61023981610227565b8114610243575f5ffd5b50565b5f8151905061025481610230565b92915050565b5f5f5f5f608085870312156102725761027161007a565b5b5f61027f878288016100a4565b9450506020610290878288016100d7565b935050604085015167ffffffffffffffff8111156102b1576102b061007e565b5b6102bd878288016101fa565b92505060606102ce87828801610246565b91505092959194509250565b5f81519050919050565b7f4e487b71000000000000000000000000000000000000000000000000000000005f52602260045260245ffd5b5f600282049050600182168061032857607f821691505b60208210810361033b5761033a6102e4565b5b50919050565b5f819050815f5260205f209050919050565b5f6020601f8301049050919050565b5f82821b905092915050565b5f6008830261039d7fffffffffffffffffffffffffffffffffffffffffffffffffffffffffffffffff82610362565b6103a78683610362565b95508019841693508086168417925050509392505050565b5f819050919050565b5f6103e26103dd6103d884610227565b6103bf565b610227565b9050919050565b5f819050919050565b6103fb836103c8565b61040f610407826103e9565b84845461036e565b825550505050565b5f5f905090565b610426610417565b6104318184846103f2565b505050565b5b81811015610454576104495f8261041e565b600181019050610437565b5050565b601f8211156104995761046a81610341565b61047384610353565b81016020851015610482578190505b61049661048e85610353565b830182610436565b50505b505050565b5f82821c905092915050565b5f6104b95f198460080261049e565b1980831691505092915050565b5f6104d183836104aa565b9150826002028217905092915050565b6104ea826102da565b67ffffffffffffffff81111561050357610502610103565b5b61050d8254610311565b610518828285610458565b5f60209050601f831160018114610549575f8415610537578287015190505b61054185826104c6565b8655506105a8565b601f19841661055786610341565b5f5b8281101561057e57848901518255600182019150602085019450602081019050610559565b8683101561059b5784890151610597601f8916826104aa565b8355505b6001600288020188555050505b505050505050565b610562806105bd5f395ff3fe608060405234801561000f575f5ffd5b5060043610610060575f3560e01c8063313ce5671461006457806354fd4d50146100825780637284e416146100a05780639a6fc8f5146100be578063d4c19bda146100f2578063feaf968c1461010e575b5f5ffd5b61006c610130565b604051610079919061025a565b60405180910390f35b61008a610144565b604051610097919061028b565b60405180910390f35b6100a861014d565b6040516100b59190610314565b60405180910390f35b6100d860048036038101906100d39190610377565b6101dd565b6040516100e99594939291906103c9565b60405180910390f35b61010c60048036038101906101079190610444565b610209565b005b610116610213565b6040516101279594939291906103c9565b60405180910390f35b5f5f5f9054906101000a900460ff16905090565b5f600354905090565b60606002805461015c9061049c565b80601f01602080910402602001604051908101604052809291908181526020018280546101889061049c565b80156101d35780601f106101aa576101008083540402835291602001916101d3565b820191905f5260205f20905b8154815290600101906020018083116101b657829003601f168201915b5050505050905090565b5f5f5f5f5f85600154610e10426101f491906104f9565b42899450945094509450945091939590929450565b8060018190555050565b5f5f5f5f5f6050600154610e104261022b91906104f9565b426050945094509450945094509091929394565b5f60ff82169050919050565b6102548161023f565b82525050565b5f60208201905061026d5f83018461024b565b92915050565b5f819050919050565b61028581610273565b82525050565b5f60208201905061029e5f83018461027c565b92915050565b5f81519050919050565b5f82825260208201905092915050565b8281835e5f83830152505050565b5f601f19601f8301169050919050565b5f6102e6826102a4565b6102f081856102ae565b93506103008185602086016102be565b610309816102cc565b840191505092915050565b5f6020820190508181035f83015261032c81846102dc565b905092915050565b5f5ffd5b5f69ffffffffffffffffffff82169050919050565b61035681610338565b8114610360575f5ffd5b50565b5f813590506103718161034d565b92915050565b5f6020828403121561038c5761038b610334565b5b5f61039984828501610363565b91505092915050565b6103ab81610338565b82525050565b5f819050919050565b6103c3816103b1565b82525050565b5f60a0820190506103dc5f8301886103a2565b6103e960208301876103ba565b6103f6604083018661027c565b610403606083018561027c565b61041060808301846103a2565b9695505050505050565b610423816103b1565b811461042d575f5ffd5b50565b5f8135905061043e8161041a565b92915050565b5f6020828403121561045957610458610334565b5b5f61046684828501610430565b91505092915050565b7f4e487b71000000000000000000000000000000000000000000000000000000005f52602260045260245ffd5b5f60028204905060018216806104b357607f821691505b6020821081036104c6576104c561046f565b5b50919050565b7f4e487b71000000000000000000000000000000000000000000000000000000005f52601160045260245ffd5b5f61050382610273565b915061050e83610273565b9250828203905081811115610526576105256104cc565b5b9291505056fea2646970667358221220dafee20f78e6fe9d72fa67add6c979d6b6b91f4ed3479e7458b4c7390702a55d64736f6c634300081d0033",
			"opcodes": "PUSH1 0x80 PUSH1 0x40 MSTORE CALLVALUE DUP1 ISZERO PUSH2 0xF JUMPI PUSH0 PUSH0 REVERT JUMPDEST POP PUSH0 PUSH1 0x8 PUSH5 0x2E90EDD000 PUSH1 0x4 PUSH1 0x40 MLOAD PUSH2 0x27 SWAP1 PUSH2 0x94 JUMP JUMPDEST PUSH2 0x33 SWAP4 SWAP3 SWAP2 SWAP1 PUSH2 0x1CD JUMP JUMPDEST PUSH1 0x40 MLOAD DUP1 SWAP2 SUB SWAP1 PUSH0 CREATE DUP1 ISZERO DUP1 ISZERO PUSH2 0x4C JUMPI RETURNDATASIZE PUSH0 PUSH0 RETURNDATACOPY RETURNDATASIZE PUSH0 REVERT JUMPDEST POP SWAP1 POP DUP1 PUSH0 PUSH0 PUSH2 0x100 EXP DUP2 SLOAD DUP2 PUSH20 0xFFFFFFFFFFFFFFFFFFFFFFFFFFFFFFFFFFFFFFFF MUL NOT AND SWAP1 DUP4 PUSH20 0xFFFFFFFFFFFFFFFFFFFFFFFFFFFFFFFFFFFFFFFF AND MUL OR SWAP1 SSTORE POP POP PUSH2 0x215 JUMP JUMPDEST PUSH2 0xB1F DUP1 PUSH2 0xB44 DUP4 CODECOPY ADD SWAP1 JUMP JUMPDEST PUSH0 DUP2 SWAP1 POP SWAP2 SWAP1 POP JUMP JUMPDEST PUSH0 PUSH1 0xFF DUP3 AND SWAP1 POP SWAP2 SWAP1 POP JUMP JUMPDEST PUSH0 DUP2 SWAP1 POP SWAP2 SWAP1 POP JUMP JUMPDEST PUSH0 PUSH2 0xD9 PUSH2 0xD4 PUSH2 0xCF DUP5 PUSH2 0xA1 JUMP JUMPDEST PUSH2 0xB6 JUMP JUMPDEST PUSH2 0xAA JUMP JUMPDEST SWAP1 POP SWAP2 SWAP1 POP JUMP JUMPDEST PUSH2 0xE9 DUP2 PUSH2 0xBF JUMP JUMPDEST DUP3 MSTORE POP POP JUMP JUMPDEST PUSH0 DUP2 SWAP1 POP SWAP2 SWAP1 POP JUMP JUMPDEST PUSH0 DUP2 SWAP1 POP SWAP2 SWAP1 POP JUMP JUMPDEST PUSH0 PUSH2 0x11B PUSH2 0x116 PUSH2 0x111 DUP5 PUSH2 0xEF JUMP JUMPDEST PUSH2 0xB6 JUMP JUMPDEST PUSH2 0xF8 JUMP JUMPDEST SWAP1 POP SWAP2 SWAP1 POP JUMP JUMPDEST PUSH2 0x12B DUP2 PUSH2 0x101 JUMP JUMPDEST DUP3 MSTORE POP POP JUMP JUMPDEST PUSH0 DUP3 DUP3 MSTORE PUSH1 0x20 DUP3 ADD SWAP1 POP SWAP3 SWAP2 POP POP JUMP JUMPDEST PUSH32 0x455448202F205553440000000000000000000000000000000000000000000000 PUSH0 DUP3 ADD MSTORE POP JUMP JUMPDEST PUSH0 PUSH2 0x175 PUSH1 0x9 DUP4 PUSH2 0x131 JUMP JUMPDEST SWAP2 POP PUSH2 0x180 DUP3 PUSH2 0x141 JUMP JUMPDEST PUSH1 0x20 DUP3 ADD SWAP1 POP SWAP2 SWAP1 POP JUMP JUMPDEST PUSH0 DUP2 SWAP1 POP SWAP2 SWAP1 POP JUMP JUMPDEST PUSH0 DUP2 SWAP1 POP SWAP2 SWAP1 POP JUMP JUMPDEST PUSH0 PUSH2 0x1B7 PUSH2 0x1B2 PUSH2 0x1AD DUP5 PUSH2 0x18B JUMP JUMPDEST PUSH2 0xB6 JUMP JUMPDEST PUSH2 0x194 JUMP JUMPDEST SWAP1 POP SWAP2 SWAP1 POP JUMP JUMPDEST PUSH2 0x1C7 DUP2 PUSH2 0x19D JUMP JUMPDEST DUP3 MSTORE POP POP JUMP JUMPDEST PUSH0 PUSH1 0x80 DUP3 ADD SWAP1 POP PUSH2 0x1E0 PUSH0 DUP4 ADD DUP7 PUSH2 0xE0 JUMP JUMPDEST PUSH2 0x1ED PUSH1 0x20 DUP4 ADD DUP6 PUSH2 0x122 JUMP JUMPDEST DUP2 DUP2 SUB PUSH1 0x40 DUP4 ADD MSTORE PUSH2 0x1FE DUP2 PUSH2 0x169 JUMP JUMPDEST SWAP1 POP PUSH2 0x20D PUSH1 0x60 DUP4 ADD DUP5 PUSH2 0x1BE JUMP JUMPDEST SWAP5 SWAP4 POP POP POP POP JUMP JUMPDEST PUSH2 0x922 DUP1 PUSH2 0x222 PUSH0 CODECOPY PUSH0 RETURN INVALID PUSH1 0x80 PUSH1 0x40 MSTORE CALLVALUE DUP1 ISZERO PUSH2 0xF JUMPI PUSH0 PUSH0 REVERT JUMPDEST POP PUSH1 0x4 CALLDATASIZE LT PUSH2 0x55 JUMPI PUSH0 CALLDATALOAD PUSH1 0xE0 SHR DUP1 PUSH4 0xD8E6E2C EQ PUSH2 0x59 JUMPI DUP1 PUSH4 0x1A092541 EQ PUSH2 0x77 JUMPI DUP1 PUSH4 0x8E15F473 EQ PUSH2 0x95 JUMPI DUP1 PUSH4 0x9A6FC8F5 EQ PUSH2 0xB3 JUMPI DUP1 PUSH4 0xF0141D84 EQ PUSH2 0xE7 JUMPI JUMPDEST PUSH0 PUSH0 REVERT JUMPDEST PUSH2 0x61 PUSH2 0x105 JUMP JUMPDEST PUSH1 0x40 MLOAD PUSH2 0x6E SWAP2 SWAP1 PUSH2 0x426 JUMP JUMPDEST PUSH1 0x40 MLOAD DUP1 SWAP2 SUB SWAP1 RETURN JUMPDEST PUSH2 0x7F PUSH2 0x198 JUMP JUMPDEST PUSH1 0x40 MLOAD PUSH2 0x8C SWAP2 SWAP1 PUSH2 0x4AF JUMP JUMPDEST PUSH1 0x40 MLOAD DUP1 SWAP2 SUB SWAP1 RETURN JUMPDEST PUSH2 0x9D PUSH2 0x22F JUMP JUMPDEST PUSH1 0x40 MLOAD PUSH2 0xAA SWAP2 SWAP1 PUSH2 0x4E7 JUMP JUMPDEST PUSH1 0x40 MLOAD DUP1 SWAP2 SUB SWAP1 RETURN JUMPDEST PUSH2 0xCD PUSH1 0x4 DUP1 CALLDATASIZE SUB DUP2 ADD SWAP1 PUSH2 0xC8 SWAP2 SWAP1 PUSH2 0x550 JUMP JUMPDEST PUSH2 0x2CB JUMP JUMPDEST PUSH1 0x40 MLOAD PUSH2 0xDE SWAP6 SWAP5 SWAP4 SWAP3 SWAP2 SWAP1 PUSH2 0x58A JUMP JUMPDEST PUSH1 0x40 MLOAD DUP1 SWAP2 SUB SWAP1 RETURN JUMPDEST PUSH2 0xEF PUSH2 0x37B JUMP JUMPDEST PUSH1 0x40 MLOAD PUSH2 0xFC SWAP2 SWAP1 PUSH2 0x5F6 JUMP JUMPDEST PUSH1 0x40 MLOAD DUP1 SWAP2 SUB SWAP1 RETURN JUMPDEST PUSH0 PUSH0 PUSH0 SWAP1 SLOAD SWAP1 PUSH2 0x100 EXP SWAP1 DIV PUSH20 0xFFFFFFFFFFFFFFFFFFFFFFFFFFFFFFFFFFFFFFFF AND PUSH20 0xFFFFFFFFFFFFFFFFFFFFFFFFFFFFFFFFFFFFFFFF AND PUSH4 0x54FD4D50 PUSH1 0x40 MLOAD DUP2 PUSH4 0xFFFFFFFF AND PUSH1 0xE0 SHL DUP2 MSTORE PUSH1 0x4 ADD PUSH1 0x20 PUSH1 0x40 MLOAD DUP1 DUP4 SUB DUP2 DUP7 GAS STATICCALL ISZERO DUP1 ISZERO PUSH2 0x16F JUMPI RETURNDATASIZE PUSH0 PUSH0 RETURNDATACOPY RETURNDATASIZE PUSH0 REVERT JUMPDEST POP POP POP POP PUSH1 0x40 MLOAD RETURNDATASIZE PUSH1 0x1F NOT PUSH1 0x1F DUP3 ADD AND DUP3 ADD DUP1 PUSH1 0x40 MSTORE POP DUP2 ADD SWAP1 PUSH2 0x193 SWAP2 SWAP1 PUSH2 0x639 JUMP JUMPDEST SWAP1 POP SWAP1 JUMP JUMPDEST PUSH1 0x60 PUSH0 PUSH0 SWAP1 SLOAD SWAP1 PUSH2 0x100 EXP SWAP1 DIV PUSH20 0xFFFFFFFFFFFFFFFFFFFFFFFFFFFFFFFFFFFFFFFF AND PUSH20 0xFFFFFFFFFFFFFFFFFFFFFFFFFFFFFFFFFFFFFFFF AND PUSH4 0x7284E416 PUSH1 0x40 MLOAD DUP2 PUSH4 0xFFFFFFFF AND PUSH1 0xE0 SHL DUP2 MSTORE PUSH1 0x4 ADD PUSH0 PUSH1 0x40 MLOAD DUP1 DUP4 SUB DUP2 DUP7 GAS STATICCALL ISZERO DUP1 ISZERO PUSH2 0x202 JUMPI RETURNDATASIZE PUSH0 PUSH0 RETURNDATACOPY RETURNDATASIZE PUSH0 REVERT JUMPDEST POP POP POP POP PUSH1 0x40 MLOAD RETURNDATASIZE PUSH0 DUP3 RETURNDATACOPY RETURNDATASIZE PUSH1 0x1F NOT PUSH1 0x1F DUP3 ADD AND DUP3 ADD DUP1 PUSH1 0x40 MSTORE POP DUP2 ADD SWAP1 PUSH2 0x22A SWAP2 SWAP1 PUSH2 0x782 JUMP JUMPDEST SWAP1 POP SWAP1 JUMP JUMPDEST PUSH0 PUSH0 PUSH0 PUSH0 SWAP1 SLOAD SWAP1 PUSH2 0x100 EXP SWAP1 DIV PUSH20 0xFFFFFFFFFFFFFFFFFFFFFFFFFFFFFFFFFFFFFFFF AND PUSH20 0xFFFFFFFFFFFFFFFFFFFFFFFFFFFFFFFFFFFFFFFF AND PUSH4 0xFEAF968C PUSH1 0x40 MLOAD DUP2 PUSH4 0xFFFFFFFF AND PUSH1 0xE0 SHL DUP2 MSTORE PUSH1 0x4 ADD PUSH1 0xA0 PUSH1 0x40 MLOAD DUP1 DUP4 SUB DUP2 DUP7 GAS STATICCALL ISZERO DUP1 ISZERO PUSH2 0x29A JUMPI RETURNDATASIZE PUSH0 PUSH0 RETURNDATACOPY RETURNDATASIZE PUSH0 REVERT JUMPDEST POP POP POP POP PUSH1 0x40 MLOAD RETURNDATASIZE PUSH1 0x1F NOT PUSH1 0x1F DUP3 ADD AND DUP3 ADD DUP1 PUSH1 0x40 MSTORE POP DUP2 ADD SWAP1 PUSH2 0x2BE SWAP2 SWAP1 PUSH2 0x807 JUMP JUMPDEST POP POP POP SWAP2 POP POP DUP1 SWAP2 POP POP SWAP1 JUMP JUMPDEST PUSH0 PUSH0 PUSH0 PUSH0 PUSH0 PUSH0 PUSH0 SWAP1 SLOAD SWAP1 PUSH2 0x100 EXP SWAP1 DIV PUSH20 0xFFFFFFFFFFFFFFFFFFFFFFFFFFFFFFFFFFFFFFFF AND PUSH20 0xFFFFFFFFFFFFFFFFFFFFFFFFFFFFFFFFFFFFFFFF AND PUSH4 0x9A6FC8F5 DUP8 PUSH1 0x40 MLOAD DUP3 PUSH4 0xFFFFFFFF AND PUSH1 0xE0 SHL DUP2 MSTORE PUSH1 0x4 ADD PUSH2 0x329 SWAP2 SWAP1 PUSH2 0x87E JUMP JUMPDEST PUSH1 0xA0 PUSH1 0x40 MLOAD DUP1 DUP4 SUB DUP2 DUP7 GAS STATICCALL ISZERO DUP1 ISZERO PUSH2 0x344 JUMPI RETURNDATASIZE PUSH0 PUSH0 RETURNDATACOPY RETURNDATASIZE PUSH0 REVERT JUMPDEST POP POP POP POP PUSH1 0x40 MLOAD RETURNDATASIZE PUSH1 0x1F NOT PUSH1 0x1F DUP3 ADD AND DUP3 ADD DUP1 PUSH1 0x40 MSTORE POP DUP2 ADD SWAP1 PUSH2 0x368 SWAP2 SWAP1 PUSH2 0x807 JUMP JUMPDEST SWAP5 POP SWAP5 POP SWAP5 POP SWAP5 POP SWAP5 POP SWAP2 SWAP4 SWAP6 SWAP1 SWAP3 SWAP5 POP JUMP JUMPDEST PUSH0 PUSH0 PUSH0 SWAP1 SLOAD SWAP1 PUSH2 0x100 EXP SWAP1 DIV PUSH20 0xFFFFFFFFFFFFFFFFFFFFFFFFFFFFFFFFFFFFFFFF AND PUSH20 0xFFFFFFFFFFFFFFFFFFFFFFFFFFFFFFFFFFFFFFFF AND PUSH4 0x313CE567 PUSH1 0x40 MLOAD DUP2 PUSH4 0xFFFFFFFF AND PUSH1 0xE0 SHL DUP2 MSTORE PUSH1 0x4 ADD PUSH1 0x20 PUSH1 0x40 MLOAD DUP1 DUP4 SUB DUP2 DUP7 GAS STATICCALL ISZERO DUP1 ISZERO PUSH2 0x3E5 JUMPI RETURNDATASIZE PUSH0 PUSH0 RETURNDATACOPY RETURNDATASIZE PUSH0 REVERT JUMPDEST POP POP POP POP PUSH1 0x40 MLOAD RETURNDATASIZE PUSH1 0x1F NOT PUSH1 0x1F DUP3 ADD AND DUP3 ADD DUP1 PUSH1 0x40 MSTORE POP DUP2 ADD SWAP1 PUSH2 0x409 SWAP2 SWAP1 PUSH2 0x8C1 JUMP JUMPDEST SWAP1 POP SWAP1 JUMP JUMPDEST PUSH0 DUP2 SWAP1 POP SWAP2 SWAP1 POP JUMP JUMPDEST PUSH2 0x420 DUP2 PUSH2 0x40E JUMP JUMPDEST DUP3 MSTORE POP POP JUMP JUMPDEST PUSH0 PUSH1 0x20 DUP3 ADD SWAP1 POP PUSH2 0x439 PUSH0 DUP4 ADD DUP5 PUSH2 0x417 JUMP JUMPDEST SWAP3 SWAP2 POP POP JUMP JUMPDEST PUSH0 DUP2 MLOAD SWAP1 POP SWAP2 SWAP1 POP JUMP JUMPDEST PUSH0 DUP3 DUP3 MSTORE PUSH1 0x20 DUP3 ADD SWAP1 POP SWAP3 SWAP2 POP POP JUMP JUMPDEST DUP3 DUP2 DUP4 MCOPY PUSH0 DUP4 DUP4 ADD MSTORE POP POP POP JUMP JUMPDEST PUSH0 PUSH1 0x1F NOT PUSH1 0x1F DUP4 ADD AND SWAP1 POP SWAP2 SWAP1 POP JUMP JUMPDEST PUSH0 PUSH2 0x481 DUP3 PUSH2 0x43F JUMP JUMPDEST PUSH2 0x48B DUP2 DUP6 PUSH2 0x449 JUMP JUMPDEST SWAP4 POP PUSH2 0x49B DUP2 DUP6 PUSH1 0x20 DUP7 ADD PUSH2 0x459 JUMP JUMPDEST PUSH2 0x4A4 DUP2 PUSH2 0x467 JUMP JUMPDEST DUP5 ADD SWAP2 POP POP SWAP3 SWAP2 POP POP JUMP JUMPDEST PUSH0 PUSH1 0x20 DUP3 ADD SWAP1 POP DUP2 DUP2 SUB PUSH0 DUP4 ADD MSTORE PUSH2 0x4C7 DUP2 DUP5 PUSH2 0x477 JUMP JUMPDEST SWAP1 POP SWAP3 SWAP2 POP POP JUMP JUMPDEST PUSH0 DUP2 SWAP1 POP SWAP2 SWAP1 POP JUMP JUMPDEST PUSH2 0x4E1 DUP2 PUSH2 0x4CF JUMP JUMPDEST DUP3 MSTORE POP POP JUMP JUMPDEST PUSH0 PUSH1 0x20 DUP3 ADD SWAP1 POP PUSH2 0x4FA PUSH0 DUP4 ADD DUP5 PUSH2 0x4D8 JUMP JUMPDEST SWAP3 SWAP2 POP POP JUMP JUMPDEST PUSH0 PUSH1 0x40 MLOAD SWAP1 POP SWAP1 JUMP JUMPDEST PUSH0 PUSH0 REVERT JUMPDEST PUSH0 PUSH0 REVERT JUMPDEST PUSH0 PUSH10 0xFFFFFFFFFFFFFFFFFFFF DUP3 AND SWAP1 POP SWAP2 SWAP1 POP JUMP JUMPDEST PUSH2 0x52F DUP2 PUSH2 0x511 JUMP JUMPDEST DUP2 EQ PUSH2 0x539 JUMPI PUSH0 PUSH0 REVERT JUMPDEST POP JUMP JUMPDEST PUSH0 DUP2 CALLDATALOAD SWAP1 POP PUSH2 0x54A DUP2 PUSH2 0x526 JUMP JUMPDEST SWAP3 SWAP2 POP POP JUMP JUMPDEST PUSH0 PUSH1 0x20 DUP3 DUP5 SUB SLT ISZERO PUSH2 0x565 JUMPI PUSH2 0x564 PUSH2 0x509 JUMP JUMPDEST JUMPDEST PUSH0 PUSH2 0x572 DUP5 DUP3 DUP6 ADD PUSH2 0x53C JUMP JUMPDEST SWAP2 POP POP SWAP3 SWAP2 POP POP JUMP JUMPDEST PUSH2 0x584 DUP2 PUSH2 0x511 JUMP JUMPDEST DUP3 MSTORE POP POP JUMP JUMPDEST PUSH0 PUSH1 0xA0 DUP3 ADD SWAP1 POP PUSH2 0x59D PUSH0 DUP4 ADD DUP9 PUSH2 0x57B JUMP JUMPDEST PUSH2 0x5AA PUSH1 0x20 DUP4 ADD DUP8 PUSH2 0x4D8 JUMP JUMPDEST PUSH2 0x5B7 PUSH1 0x40 DUP4 ADD DUP7 PUSH2 0x417 JUMP JUMPDEST PUSH2 0x5C4 PUSH1 0x60 DUP4 ADD DUP6 PUSH2 0x417 JUMP JUMPDEST PUSH2 0x5D1 PUSH1 0x80 DUP4 ADD DUP5 PUSH2 0x57B JUMP JUMPDEST SWAP7 SWAP6 POP POP POP POP POP POP JUMP JUMPDEST PUSH0 PUSH1 0xFF DUP3 AND SWAP1 POP SWAP2 SWAP1 POP JUMP JUMPDEST PUSH2 0x5F0 DUP2 PUSH2 0x5DB JUMP JUMPDEST DUP3 MSTORE POP POP JUMP JUMPDEST PUSH0 PUSH1 0x20 DUP3 ADD SWAP1 POP PUSH2 0x609 PUSH0 DUP4 ADD DUP5 PUSH2 0x5E7 JUMP JUMPDEST SWAP3 SWAP2 POP POP JUMP JUMPDEST PUSH2 0x618 DUP2 PUSH2 0x40E JUMP JUMPDEST DUP2 EQ PUSH2 0x622 JUMPI PUSH0 PUSH0 REVERT JUMPDEST POP JUMP JUMPDEST PUSH0 DUP2 MLOAD SWAP1 POP PUSH2 0x633 DUP2 PUSH2 0x60F JUMP JUMPDEST SWAP3 SWAP2 POP POP JUMP JUMPDEST PUSH0 PUSH1 0x20 DUP3 DUP5 SUB SLT ISZERO PUSH2 0x64E JUMPI PUSH2 0x64D PUSH2 0x509 JUMP JUMPDEST JUMPDEST PUSH0 PUSH2 0x65B DUP5 DUP3 DUP6 ADD PUSH2 0x625 JUMP JUMPDEST SWAP2 POP POP SWAP3 SWAP2 POP POP JUMP JUMPDEST PUSH0 PUSH0 REVERT JUMPDEST PUSH0 PUSH0 REVERT JUMPDEST PUSH32 0x4E487B7100000000000000000000000000000000000000000000000000000000 PUSH0 MSTORE PUSH1 0x41 PUSH1 0x4 MSTORE PUSH1 0x24 PUSH0 REVERT JUMPDEST PUSH2 0x6A2 DUP3 PUSH2 0x467 JUMP JUMPDEST DUP2 ADD DUP2 DUP2 LT PUSH8 0xFFFFFFFFFFFFFFFF DUP3 GT OR ISZERO PUSH2 0x6C1 JUMPI PUSH2 0x6C0 PUSH2 0x66C JUMP JUMPDEST JUMPDEST DUP1 PUSH1 0x40 MSTORE POP POP POP JUMP JUMPDEST PUSH0 PUSH2 0x6D3 PUSH2 0x500 JUMP JUMPDEST SWAP1 POP PUSH2 0x6DF DUP3 DUP3 PUSH2 0x699 JUMP JUMPDEST SWAP2 SWAP1 POP JUMP JUMPDEST PUSH0 PUSH8 0xFFFFFFFFFFFFFFFF DUP3 GT ISZERO PUSH2 0x6FE JUMPI PUSH2 0x6FD PUSH2 0x66C JUMP JUMPDEST JUMPDEST PUSH2 0x707 DUP3 PUSH2 0x467 JUMP JUMPDEST SWAP1 POP PUSH1 0x20 DUP2 ADD SWAP1 POP SWAP2 SWAP1 POP JUMP JUMPDEST PUSH0 PUSH2 0x726 PUSH2 0x721 DUP5 PUSH2 0x6E4 JUMP JUMPDEST PUSH2 0x6CA JUMP JUMPDEST SWAP1 POP DUP3 DUP2 MSTORE PUSH1 0x20 DUP2 ADD DUP5 DUP5 DUP5 ADD GT ISZERO PUSH2 0x742 JUMPI PUSH2 0x741 PUSH2 0x668 JUMP JUMPDEST JUMPDEST PUSH2 0x74D DUP5 DUP3 DUP6 PUSH2 0x459 JUMP JUMPDEST POP SWAP4 SWAP3 POP POP POP JUMP JUMPDEST PUSH0 DUP3 PUSH1 0x1F DUP4 ADD SLT PUSH2 0x769 JUMPI PUSH2 0x768 PUSH2 0x664 JUMP JUMPDEST JUMPDEST DUP2 MLOAD PUSH2 0x779 DUP5 DUP3 PUSH1 0x20 DUP7 ADD PUSH2 0x714 JUMP JUMPDEST SWAP2 POP POP SWAP3 SWAP2 POP POP JUMP JUMPDEST PUSH0 PUSH1 0x20 DUP3 DUP5 SUB SLT ISZERO PUSH2 0x797 JUMPI PUSH2 0x796 PUSH2 0x509 JUMP JUMPDEST JUMPDEST PUSH0 DUP3 ADD MLOAD PUSH8 0xFFFFFFFFFFFFFFFF DUP2 GT ISZERO PUSH2 0x7B4 JUMPI PUSH2 0x7B3 PUSH2 0x50D JUMP JUMPDEST JUMPDEST PUSH2 0x7C0 DUP5 DUP3 DUP6 ADD PUSH2 0x755 JUMP JUMPDEST SWAP2 POP POP SWAP3 SWAP2 POP POP JUMP JUMPDEST PUSH0 DUP2 MLOAD SWAP1 POP PUSH2 0x7D7 DUP2 PUSH2 0x526 JUMP JUMPDEST SWAP3 SWAP2 POP POP JUMP JUMPDEST PUSH2 0x7E6 DUP2 PUSH2 0x4CF JUMP JUMPDEST DUP2 EQ PUSH2 0x7F0 JUMPI PUSH0 PUSH0 REVERT JUMPDEST POP JUMP JUMPDEST PUSH0 DUP2 MLOAD SWAP1 POP PUSH2 0x801 DUP2 PUSH2 0x7DD JUMP JUMPDEST SWAP3 SWAP2 POP POP JUMP JUMPDEST PUSH0 PUSH0 PUSH0 PUSH0 PUSH0 PUSH1 0xA0 DUP7 DUP9 SUB SLT ISZERO PUSH2 0x820 JUMPI PUSH2 0x81F PUSH2 0x509 JUMP JUMPDEST JUMPDEST PUSH0 PUSH2 0x82D DUP9 DUP3 DUP10 ADD PUSH2 0x7C9 JUMP JUMPDEST SWAP6 POP POP PUSH1 0x20 PUSH2 0x83E DUP9 DUP3 DUP10 ADD PUSH2 0x7F3 JUMP JUMPDEST SWAP5 POP POP PUSH1 0x40 PUSH2 0x84F DUP9 DUP3 DUP10 ADD PUSH2 0x625 JUMP JUMPDEST SWAP4 POP POP PUSH1 0x60 PUSH2 0x860 DUP9 DUP3 DUP10 ADD PUSH2 0x625 JUMP JUMPDEST SWAP3 POP POP PUSH1 0x80 PUSH2 0x871 DUP9 DUP3 DUP10 ADD PUSH2 0x7C9 JUMP JUMPDEST SWAP2 POP POP SWAP3 SWAP6 POP SWAP3 SWAP6 SWAP1 SWAP4 POP JUMP JUMPDEST PUSH0 PUSH1 0x20 DUP3 ADD SWAP1 POP PUSH2 0x891 PUSH0 DUP4 ADD DUP5 PUSH2 0x57B JUMP JUMPDEST SWAP3 SWAP2 POP POP JUMP JUMPDEST PUSH2 0x8A0 DUP2 PUSH2 0x5DB JUMP JUMPDEST DUP2 EQ PUSH2 0x8AA JUMPI PUSH0 PUSH0 REVERT JUMPDEST POP JUMP JUMPDEST PUSH0 DUP2 MLOAD SWAP1 POP PUSH2 0x8BB DUP2 PUSH2 0x897 JUMP JUMPDEST SWAP3 SWAP2 POP POP JUMP JUMPDEST PUSH0 PUSH1 0x20 DUP3 DUP5 SUB SLT ISZERO PUSH2 0x8D6 JUMPI PUSH2 0x8D5 PUSH2 0x509 JUMP JUMPDEST JUMPDEST PUSH0 PUSH2 0x8E3 DUP5 DUP3 DUP6 ADD PUSH2 0x8AD JUMP JUMPDEST SWAP2 POP POP SWAP3 SWAP2 POP POP JUMP INVALID LOG2 PUSH5 0x6970667358 0x22 SLT KECCAK256 RETF RETURN TLOAD DUP3 CALLCODE 0xBA 0xD0 0x1F REVERT JUMP 0xB5 TIMESTAMP 0xA5 0xB1 PUSH28 0x2BC706571617A843A3A90374C1D52F77A464736F6C634300081D0033 PUSH1 0x80 PUSH1 0x40 MSTORE CALLVALUE DUP1 ISZERO PUSH2 0xF JUMPI PUSH0 PUSH0 REVERT JUMPDEST POP PUSH1 0x40 MLOAD PUSH2 0xB1F CODESIZE SUB DUP1 PUSH2 0xB1F DUP4 CODECOPY DUP2 DUP2 ADD PUSH1 0x40 MSTORE DUP2 ADD SWAP1 PUSH2 0x31 SWAP2 SWAP1 PUSH2 0x25A JUMP JUMPDEST DUP4 PUSH0 PUSH0 PUSH2 0x100 EXP DUP2 SLOAD DUP2 PUSH1 0xFF MUL NOT AND SWAP1 DUP4 PUSH1 0xFF AND MUL OR SWAP1 SSTORE POP DUP3 PUSH1 0x1 DUP2 SWAP1 SSTORE POP DUP2 PUSH1 0x2 SWAP1 DUP2 PUSH2 0x60 SWAP2 SWAP1 PUSH2 0x4E1 JUMP JUMPDEST POP DUP1 PUSH1 0x3 DUP2 SWAP1 SSTORE POP POP POP POP POP PUSH2 0x5B0 JUMP JUMPDEST PUSH0 PUSH1 0x40 MLOAD SWAP1 POP SWAP1 JUMP JUMPDEST PUSH0 PUSH0 REVERT JUMPDEST PUSH0 PUSH0 REVERT JUMPDEST PUSH0 PUSH1 0xFF DUP3 AND SWAP1 POP SWAP2 SWAP1 POP JUMP JUMPDEST PUSH2 0x97 DUP2 PUSH2 0x82 JUMP JUMPDEST DUP2 EQ PUSH2 0xA1 JUMPI PUSH0 PUSH0 REVERT JUMPDEST POP JUMP JUMPDEST PUSH0 DUP2 MLOAD SWAP1 POP PUSH2 0xB2 DUP2 PUSH2 0x8E JUMP JUMPDEST SWAP3 SWAP2 POP POP JUMP JUMPDEST PUSH0 DUP2 SWAP1 POP SWAP2 SWAP1 POP JUMP JUMPDEST PUSH2 0xCA DUP2 PUSH2 0xB8 JUMP JUMPDEST DUP2 EQ PUSH2 0xD4 JUMPI PUSH0 PUSH0 REVERT JUMPDEST POP JUMP JUMPDEST PUSH0 DUP2 MLOAD SWAP1 POP PUSH2 0xE5 DUP2 PUSH2 0xC1 JUMP JUMPDEST SWAP3 SWAP2 POP POP JUMP JUMPDEST PUSH0 PUSH0 REVERT JUMPDEST PUSH0 PUSH0 REVERT JUMPDEST PUSH0 PUSH1 0x1F NOT PUSH1 0x1F DUP4 ADD AND SWAP1 POP SWAP2 SWAP1 POP JUMP JUMPDEST PUSH32 0x4E487B7100000000000000000000000000000000000000000000000000000000 PUSH0 MSTORE PUSH1 0x41 PUSH1 0x4 MSTORE PUSH1 0x24 PUSH0 REVERT JUMPDEST PUSH2 0x139 DUP3 PUSH2 0xF3 JUMP JUMPDEST DUP2 ADD DUP2 DUP2 LT PUSH8 0xFFFFFFFFFFFFFFFF DUP3 GT OR ISZERO PUSH2 0x158 JUMPI PUSH2 0x157 PUSH2 0x103 JUMP JUMPDEST JUMPDEST DUP1 PUSH1 0x40 MSTORE POP POP POP JUMP JUMPDEST PUSH0 PUSH2 0x16A PUSH2 0x71 JUMP JUMPDEST SWAP1 POP PUSH2 0x176 DUP3 DUP3 PUSH2 0x130 JUMP JUMPDEST SWAP2 SWAP1 POP JUMP JUMPDEST PUSH0 PUSH8 0xFFFFFFFFFFFFFFFF DUP3 GT ISZERO PUSH2 0x195 JUMPI PUSH2 0x194 PUSH2 0x103 JUMP JUMPDEST JUMPDEST PUSH2 0x19E DUP3 PUSH2 0xF3 JUMP JUMPDEST SWAP1 POP PUSH1 0x20 DUP2 ADD SWAP1 POP SWAP2 SWAP1 POP JUMP JUMPDEST DUP3 DUP2 DUP4 MCOPY PUSH0 DUP4 DUP4 ADD MSTORE POP POP POP JUMP JUMPDEST PUSH0 PUSH2 0x1CB PUSH2 0x1C6 DUP5 PUSH2 0x17B JUMP JUMPDEST PUSH2 0x161 JUMP JUMPDEST SWAP1 POP DUP3 DUP2 MSTORE PUSH1 0x20 DUP2 ADD DUP5 DUP5 DUP5 ADD GT ISZERO PUSH2 0x1E7 JUMPI PUSH2 0x1E6 PUSH2 0xEF JUMP JUMPDEST JUMPDEST PUSH2 0x1F2 DUP5 DUP3 DUP6 PUSH2 0x1AB JUMP JUMPDEST POP SWAP4 SWAP3 POP POP POP JUMP JUMPDEST PUSH0 DUP3 PUSH1 0x1F DUP4 ADD SLT PUSH2 0x20E JUMPI PUSH2 0x20D PUSH2 0xEB JUMP JUMPDEST JUMPDEST DUP2 MLOAD PUSH2 0x21E DUP5 DUP3 PUSH1 0x20 DUP7 ADD PUSH2 0x1B9 JUMP JUMPDEST SWAP2 POP POP SWAP3 SWAP2 POP POP JUMP JUMPDEST PUSH0 DUP2 SWAP1 POP SWAP2 SWAP1 POP JUMP JUMPDEST PUSH2 0x239 DUP2 PUSH2 0x227 JUMP JUMPDEST DUP2 EQ PUSH2 0x243 JUMPI PUSH0 PUSH0 REVERT JUMPDEST POP JUMP JUMPDEST PUSH0 DUP2 MLOAD SWAP1 POP PUSH2 0x254 DUP2 PUSH2 0x230 JUMP JUMPDEST SWAP3 SWAP2 POP POP JUMP JUMPDEST PUSH0 PUSH0 PUSH0 PUSH0 PUSH1 0x80 DUP6 DUP8 SUB SLT ISZERO PUSH2 0x272 JUMPI PUSH2 0x271 PUSH2 0x7A JUMP JUMPDEST JUMPDEST PUSH0 PUSH2 0x27F DUP8 DUP3 DUP9 ADD PUSH2 0xA4 JUMP JUMPDEST SWAP5 POP POP PUSH1 0x20 PUSH2 0x290 DUP8 DUP3 DUP9 ADD PUSH2 0xD7 JUMP JUMPDEST SWAP4 POP POP PUSH1 0x40 DUP6 ADD MLOAD PUSH8 0xFFFFFFFFFFFFFFFF DUP2 GT ISZERO PUSH2 0x2B1 JUMPI PUSH2 0x2B0 PUSH2 0x7E JUMP JUMPDEST JUMPDEST PUSH2 0x2BD DUP8 DUP3 DUP9 ADD PUSH2 0x1FA JUMP JUMPDEST SWAP3 POP POP PUSH1 0x60 PUSH2 0x2CE DUP8 DUP3 DUP9 ADD PUSH2 0x246 JUMP JUMPDEST SWAP2 POP POP SWAP3 SWAP6 SWAP2 SWAP5 POP SWAP3 POP JUMP JUMPDEST PUSH0 DUP2 MLOAD SWAP1 POP SWAP2 SWAP1 POP JUMP JUMPDEST PUSH32 0x4E487B7100000000000000000000000000000000000000000000000000000000 PUSH0 MSTORE PUSH1 0x22 PUSH1 0x4 MSTORE PUSH1 0x24 PUSH0 REVERT JUMPDEST PUSH0 PUSH1 0x2 DUP3 DIV SWAP1 POP PUSH1 0x1 DUP3 AND DUP1 PUSH2 0x328 JUMPI PUSH1 0x7F DUP3 AND SWAP2 POP JUMPDEST PUSH1 0x20 DUP3 LT DUP2 SUB PUSH2 0x33B JUMPI PUSH2 0x33A PUSH2 0x2E4 JUMP JUMPDEST JUMPDEST POP SWAP2 SWAP1 POP JUMP JUMPDEST PUSH0 DUP2 SWAP1 POP DUP2 PUSH0 MSTORE PUSH1 0x20 PUSH0 KECCAK256 SWAP1 POP SWAP2 SWAP1 POP JUMP JUMPDEST PUSH0 PUSH1 0x20 PUSH1 0x1F DUP4 ADD DIV SWAP1 POP SWAP2 SWAP1 POP JUMP JUMPDEST PUSH0 DUP3 DUP3 SHL SWAP1 POP SWAP3 SWAP2 POP POP JUMP JUMPDEST PUSH0 PUSH1 0x8 DUP4 MUL PUSH2 0x39D PUSH32 0xFFFFFFFFFFFFFFFFFFFFFFFFFFFFFFFFFFFFFFFFFFFFFFFFFFFFFFFFFFFFFFFF DUP3 PUSH2 0x362 JUMP JUMPDEST PUSH2 0x3A7 DUP7 DUP4 PUSH2 0x362 JUMP JUMPDEST SWAP6 POP DUP1 NOT DUP5 AND SWAP4 POP DUP1 DUP7 AND DUP5 OR SWAP3 POP POP POP SWAP4 SWAP3 POP POP POP JUMP JUMPDEST PUSH0 DUP2 SWAP1 POP SWAP2 SWAP1 POP JUMP JUMPDEST PUSH0 PUSH2 0x3E2 PUSH2 0x3DD PUSH2 0x3D8 DUP5 PUSH2 0x227 JUMP JUMPDEST PUSH2 0x3BF JUMP JUMPDEST PUSH2 0x227 JUMP JUMPDEST SWAP1 POP SWAP2 SWAP1 POP JUMP JUMPDEST PUSH0 DUP2 SWAP1 POP SWAP2 SWAP1 POP JUMP JUMPDEST PUSH2 0x3FB DUP4 PUSH2 0x3C8 JUMP JUMPDEST PUSH2 0x40F PUSH2 0x407 DUP3 PUSH2 0x3E9 JUMP JUMPDEST DUP5 DUP5 SLOAD PUSH2 0x36E JUMP JUMPDEST DUP3 SSTORE POP POP POP POP JUMP JUMPDEST PUSH0 PUSH0 SWAP1 POP SWAP1 JUMP JUMPDEST PUSH2 0x426 PUSH2 0x417 JUMP JUMPDEST PUSH2 0x431 DUP2 DUP5 DUP5 PUSH2 0x3F2 JUMP JUMPDEST POP POP POP JUMP JUMPDEST JUMPDEST DUP2 DUP2 LT ISZERO PUSH2 0x454 JUMPI PUSH2 0x449 PUSH0 DUP3 PUSH2 0x41E JUMP JUMPDEST PUSH1 0x1 DUP2 ADD SWAP1 POP PUSH2 0x437 JUMP JUMPDEST POP POP JUMP JUMPDEST PUSH1 0x1F DUP3 GT ISZERO PUSH2 0x499 JUMPI PUSH2 0x46A DUP2 PUSH2 0x341 JUMP JUMPDEST PUSH2 0x473 DUP5 PUSH2 0x353 JUMP JUMPDEST DUP2 ADD PUSH1 0x20 DUP6 LT ISZERO PUSH2 0x482 JUMPI DUP2 SWAP1 POP JUMPDEST PUSH2 0x496 PUSH2 0x48E DUP6 PUSH2 0x353 JUMP JUMPDEST DUP4 ADD DUP3 PUSH2 0x436 JUMP JUMPDEST POP POP JUMPDEST POP POP POP JUMP JUMPDEST PUSH0 DUP3 DUP3 SHR SWAP1 POP SWAP3 SWAP2 POP POP JUMP JUMPDEST PUSH0 PUSH2 0x4B9 PUSH0 NOT DUP5 PUSH1 0x8 MUL PUSH2 0x49E JUMP JUMPDEST NOT DUP1 DUP4 AND SWAP2 POP POP SWAP3 SWAP2 POP POP JUMP JUMPDEST PUSH0 PUSH2 0x4D1 DUP4 DUP4 PUSH2 0x4AA JUMP JUMPDEST SWAP2 POP DUP3 PUSH1 0x2 MUL DUP3 OR SWAP1 POP SWAP3 SWAP2 POP POP JUMP JUMPDEST PUSH2 0x4EA DUP3 PUSH2 0x2DA JUMP JUMPDEST PUSH8 0xFFFFFFFFFFFFFFFF DUP2 GT ISZERO PUSH2 0x503 JUMPI PUSH2 0x502 PUSH2 0x103 JUMP JUMPDEST JUMPDEST PUSH2 0x50D DUP3 SLOAD PUSH2 0x311 JUMP JUMPDEST PUSH2 0x518 DUP3 DUP3 DUP6 PUSH2 0x458 JUMP JUMPDEST PUSH0 PUSH1 0x20 SWAP1 POP PUSH1 0x1F DUP4 GT PUSH1 0x1 DUP2 EQ PUSH2 0x549 JUMPI PUSH0 DUP5 ISZERO PUSH2 0x537 JUMPI DUP3 DUP8 ADD MLOAD SWAP1 POP JUMPDEST PUSH2 0x541 DUP6 DUP3 PUSH2 0x4C6 JUMP JUMPDEST DUP7 SSTORE POP PUSH2 0x5A8 JUMP JUMPDEST PUSH1 0x1F NOT DUP5 AND PUSH2 0x557 DUP7 PUSH2 0x341 JUMP JUMPDEST PUSH0 JUMPDEST DUP3 DUP2 LT ISZERO PUSH2 0x57E JUMPI DUP5 DUP10 ADD MLOAD DUP3 SSTORE PUSH1 0x1 DUP3 ADD SWAP2 POP PUSH1 0x20 DUP6 ADD SWAP5 POP PUSH1 0x20 DUP2 ADD SWAP1 POP PUSH2 0x559 JUMP JUMPDEST DUP7 DUP4 LT ISZERO PUSH2 0x59B JUMPI DUP5 DUP10 ADD MLOAD PUSH2 0x597 PUSH1 0x1F DUP10 AND DUP3 PUSH2 0x4AA JUMP JUMPDEST DUP4 SSTORE POP JUMPDEST PUSH1 0x1 PUSH1 0x2 DUP9 MUL ADD DUP9 SSTORE POP POP POP JUMPDEST POP POP POP POP POP POP JUMP JUMPDEST PUSH2 0x562 DUP1 PUSH2 0x5BD PUSH0 CODECOPY PUSH0 RETURN INVALID PUSH1 0x80 PUSH1 0x40 MSTORE CALLVALUE DUP1 ISZERO PUSH2 0xF JUMPI PUSH0 PUSH0 REVERT JUMPDEST POP PUSH1 0x4 CALLDATASIZE LT PUSH2 0x60 JUMPI PUSH0 CALLDATALOAD PUSH1 0xE0 SHR DUP1 PUSH4 0x313CE567 EQ PUSH2 0x64 JUMPI DUP1 PUSH4 0x54FD4D50 EQ PUSH2 0x82 JUMPI DUP1 PUSH4 0x7284E416 EQ PUSH2 0xA0 JUMPI DUP1 PUSH4 0x9A6FC8F5 EQ PUSH2 0xBE JUMPI DUP1 PUSH4 0xD4C19BDA EQ PUSH2 0xF2 JUMPI DUP1 PUSH4 0xFEAF968C EQ PUSH2 0x10E JUMPI JUMPDEST PUSH0 PUSH0 REVERT JUMPDEST PUSH2 0x6C PUSH2 0x130 JUMP JUMPDEST PUSH1 0x40 MLOAD PUSH2 0x79 SWAP2 SWAP1 PUSH2 0x25A JUMP JUMPDEST PUSH1 0x40 MLOAD DUP1 SWAP2 SUB SWAP1 RETURN JUMPDEST PUSH2 0x8A PUSH2 0x144 JUMP JUMPDEST PUSH1 0x40 MLOAD PUSH2 0x97 SWAP2 SWAP1 PUSH2 0x28B JUMP JUMPDEST PUSH1 0x40 MLOAD DUP1 SWAP2 SUB SWAP1 RETURN JUMPDEST PUSH2 0xA8 PUSH2 0x14D JUMP JUMPDEST PUSH1 0x40 MLOAD PUSH2 0xB5 SWAP2 SWAP1 PUSH2 0x314 JUMP JUMPDEST PUSH1 0x40 MLOAD DUP1 SWAP2 SUB SWAP1 RETURN JUMPDEST PUSH2 0xD8 PUSH1 0x4 DUP1 CALLDATASIZE SUB DUP2 ADD SWAP1 PUSH2 0xD3 SWAP2 SWAP1 PUSH2 0x377 JUMP JUMPDEST PUSH2 0x1DD JUMP JUMPDEST PUSH1 0x40 MLOAD PUSH2 0xE9 SWAP6 SWAP5 SWAP4 SWAP3 SWAP2 SWAP1 PUSH2 0x3C9 JUMP JUMPDEST PUSH1 0x40 MLOAD DUP1 SWAP2 SUB SWAP1 RETURN JUMPDEST PUSH2 0x10C PUSH1 0x4 DUP1 CALLDATASIZE SUB DUP2 ADD SWAP1 PUSH2 0x107 SWAP2 SWAP1 PUSH2 0x444 JUMP JUMPDEST PUSH2 0x209 JUMP JUMPDEST STOP JUMPDEST PUSH2 0x116 PUSH2 0x213 JUMP JUMPDEST PUSH1 0x40 MLOAD PUSH2 0x127 SWAP6 SWAP5 SWAP4 SWAP3 SWAP2 SWAP1 PUSH2 0x3C9 JUMP JUMPDEST PUSH1 0x40 MLOAD DUP1 SWAP2 SUB SWAP1 RETURN JUMPDEST PUSH0 PUSH0 PUSH0 SWAP1 SLOAD SWAP1 PUSH2 0x100 EXP SWAP1 DIV PUSH1 0xFF AND SWAP1 POP SWAP1 JUMP JUMPDEST PUSH0 PUSH1 0x3 SLOAD SWAP1 POP SWAP1 JUMP JUMPDEST PUSH1 0x60 PUSH1 0x2 DUP1 SLOAD PUSH2 0x15C SWAP1 PUSH2 0x49C JUMP JUMPDEST DUP1 PUSH1 0x1F ADD PUSH1 0x20 DUP1 SWAP2 DIV MUL PUSH1 0x20 ADD PUSH1 0x40 MLOAD SWAP1 DUP2 ADD PUSH1 0x40 MSTORE DUP1 SWAP3 SWAP2 SWAP1 DUP2 DUP2 MSTORE PUSH1 0x20 ADD DUP3 DUP1 SLOAD PUSH2 0x188 SWAP1 PUSH2 0x49C JUMP JUMPDEST DUP1 ISZERO PUSH2 0x1D3 JUMPI DUP1 PUSH1 0x1F LT PUSH2 0x1AA JUMPI PUSH2 0x100 DUP1 DUP4 SLOAD DIV MUL DUP4 MSTORE SWAP2 PUSH1 0x20 ADD SWAP2 PUSH2 0x1D3 JUMP JUMPDEST DUP3 ADD SWAP2 SWAP1 PUSH0 MSTORE PUSH1 0x20 PUSH0 KECCAK256 SWAP1 JUMPDEST DUP2 SLOAD DUP2 MSTORE SWAP1 PUSH1 0x1 ADD SWAP1 PUSH1 0x20 ADD DUP1 DUP4 GT PUSH2 0x1B6 JUMPI DUP3 SWAP1 SUB PUSH1 0x1F AND DUP3 ADD SWAP2 JUMPDEST POP POP POP POP POP SWAP1 POP SWAP1 JUMP JUMPDEST PUSH0 PUSH0 PUSH0 PUSH0 PUSH0 DUP6 PUSH1 0x1 SLOAD PUSH2 0xE10 TIMESTAMP PUSH2 0x1F4 SWAP2 SWAP1 PUSH2 0x4F9 JUMP JUMPDEST TIMESTAMP DUP10 SWAP5 POP SWAP5 POP SWAP5 POP SWAP5 POP SWAP5 POP SWAP2 SWAP4 SWAP6 SWAP1 SWAP3 SWAP5 POP JUMP JUMPDEST DUP1 PUSH1 0x1 DUP2 SWAP1 SSTORE POP POP JUMP JUMPDEST PUSH0 PUSH0 PUSH0 PUSH0 PUSH0 PUSH1 0x50 PUSH1 0x1 SLOAD PUSH2 0xE10 TIMESTAMP PUSH2 0x22B SWAP2 SWAP1 PUSH2 0x4F9 JUMP JUMPDEST TIMESTAMP PUSH1 0x50 SWAP5 POP SWAP5 POP SWAP5 POP SWAP5 POP SWAP5 POP SWAP1 SWAP2 SWAP3 SWAP4 SWAP5 JUMP JUMPDEST PUSH0 PUSH1 0xFF DUP3 AND SWAP1 POP SWAP2 SWAP1 POP JUMP JUMPDEST PUSH2 0x254 DUP2 PUSH2 0x23F JUMP JUMPDEST DUP3 MSTORE POP POP JUMP JUMPDEST PUSH0 PUSH1 0x20 DUP3 ADD SWAP1 POP PUSH2 0x26D PUSH0 DUP4 ADD DUP5 PUSH2 0x24B JUMP JUMPDEST SWAP3 SWAP2 POP POP JUMP JUMPDEST PUSH0 DUP2 SWAP1 POP SWAP2 SWAP1 POP JUMP JUMPDEST PUSH2 0x285 DUP2 PUSH2 0x273 JUMP JUMPDEST DUP3 MSTORE POP POP JUMP JUMPDEST PUSH0 PUSH1 0x20 DUP3 ADD SWAP1 POP PUSH2 0x29E PUSH0 DUP4 ADD DUP5 PUSH2 0x27C JUMP JUMPDEST SWAP3 SWAP2 POP POP JUMP JUMPDEST PUSH0 DUP2 MLOAD SWAP1 POP SWAP2 SWAP1 POP JUMP JUMPDEST PUSH0 DUP3 DUP3 MSTORE PUSH1 0x20 DUP3 ADD SWAP1 POP SWAP3 SWAP2 POP POP JUMP JUMPDEST DUP3 DUP2 DUP4 MCOPY PUSH0 DUP4 DUP4 ADD MSTORE POP POP POP JUMP JUMPDEST PUSH0 PUSH1 0x1F NOT PUSH1 0x1F DUP4 ADD AND SWAP1 POP SWAP2 SWAP1 POP JUMP JUMPDEST PUSH0 PUSH2 0x2E6 DUP3 PUSH2 0x2A4 JUMP JUMPDEST PUSH2 0x2F0 DUP2 DUP6 PUSH2 0x2AE JUMP JUMPDEST SWAP4 POP PUSH2 0x300 DUP2 DUP6 PUSH1 0x20 DUP7 ADD PUSH2 0x2BE JUMP JUMPDEST PUSH2 0x309 DUP2 PUSH2 0x2CC JUMP JUMPDEST DUP5 ADD SWAP2 POP POP SWAP3 SWAP2 POP POP JUMP JUMPDEST PUSH0 PUSH1 0x20 DUP3 ADD SWAP1 POP DUP2 DUP2 SUB PUSH0 DUP4 ADD MSTORE PUSH2 0x32C DUP2 DUP5 PUSH2 0x2DC JUMP JUMPDEST SWAP1 POP SWAP3 SWAP2 POP POP JUMP JUMPDEST PUSH0 PUSH0 REVERT JUMPDEST PUSH0 PUSH10 0xFFFFFFFFFFFFFFFFFFFF DUP3 AND SWAP1 POP SWAP2 SWAP1 POP JUMP JUMPDEST PUSH2 0x356 DUP2 PUSH2 0x338 JUMP JUMPDEST DUP2 EQ PUSH2 0x360 JUMPI PUSH0 PUSH0 REVERT JUMPDEST POP JUMP JUMPDEST PUSH0 DUP2 CALLDATALOAD SWAP1 POP PUSH2 0x371 DUP2 PUSH2 0x34D JUMP JUMPDEST SWAP3 SWAP2 POP POP JUMP JUMPDEST PUSH0 PUSH1 0x20 DUP3 DUP5 SUB SLT ISZERO PUSH2 0x38C JUMPI PUSH2 0x38B PUSH2 0x334 JUMP JUMPDEST JUMPDEST PUSH0 PUSH2 0x399 DUP5 DUP3 DUP6 ADD PUSH2 0x363 JUMP JUMPDEST SWAP2 POP POP SWAP3 SWAP2 POP POP JUMP JUMPDEST PUSH2 0x3AB DUP2 PUSH2 0x338 JUMP JUMPDEST DUP3 MSTORE POP POP JUMP JUMPDEST PUSH0 DUP2 SWAP1 POP SWAP2 SWAP1 POP JUMP JUMPDEST PUSH2 0x3C3 DUP2 PUSH2 0x3B1 JUMP JUMPDEST DUP3 MSTORE POP POP JUMP JUMPDEST PUSH0 PUSH1 0xA0 DUP3 ADD SWAP1 POP PUSH2 0x3DC PUSH0 DUP4 ADD DUP9 PUSH2 0x3A2 JUMP JUMPDEST PUSH2 0x3E9 PUSH1 0x20 DUP4 ADD DUP8 PUSH2 0x3BA JUMP JUMPDEST PUSH2 0x3F6 PUSH1 0x40 DUP4 ADD DUP7 PUSH2 0x27C JUMP JUMPDEST PUSH2 0x403 PUSH1 0x60 DUP4 ADD DUP6 PUSH2 0x27C JUMP JUMPDEST PUSH2 0x410 PUSH1 0x80 DUP4 ADD DUP5 PUSH2 0x3A2 JUMP JUMPDEST SWAP7 SWAP6 POP POP POP POP POP POP JUMP JUMPDEST PUSH2 0x423 DUP2 PUSH2 0x3B1 JUMP JUMPDEST DUP2 EQ PUSH2 0x42D JUMPI PUSH0 PUSH0 REVERT JUMPDEST POP JUMP JUMPDEST PUSH0 DUP2 CALLDATALOAD SWAP1 POP PUSH2 0x43E DUP2 PUSH2 0x41A JUMP JUMPDEST SWAP3 SWAP2 POP POP JUMP JUMPDEST PUSH0 PUSH1 0x20 DUP3 DUP5 SUB SLT ISZERO PUSH2 0x459 JUMPI PUSH2 0x458 PUSH2 0x334 JUMP JUMPDEST JUMPDEST PUSH0 PUSH2 0x466 DUP5 DUP3 DUP6 ADD PUSH2 0x430 JUMP JUMPDEST SWAP2 POP POP SWAP3 SWAP2 POP POP JUMP JUMPDEST PUSH32 0x4E487B7100000000000000000000000000000000000000000000000000000000 PUSH0 MSTORE PUSH1 0x22 PUSH1 0x4 MSTORE PUSH1 0x24 PUSH0 REVERT JUMPDEST PUSH0 PUSH1 0x2 DUP3 DIV SWAP1 POP PUSH1 0x1 DUP3 AND DUP1 PUSH2 0x4B3 JUMPI PUSH1 0x7F DUP3 AND SWAP2 POP JUMPDEST PUSH1 0x20 DUP3 LT DUP2 SUB PUSH2 0x4C6 JUMPI PUSH2 0x4C5 PUSH2 0x46F JUMP JUMPDEST JUMPDEST POP SWAP2 SWAP1 POP JUMP JUMPDEST PUSH32 0x4E487B7100000000000000000000000000000000000000000000000000000000 PUSH0 MSTORE PUSH1 0x11 PUSH1 0x4 MSTORE PUSH1 0x24 PUSH0 REVERT JUMPDEST PUSH0 PUSH2 0x503 DUP3 PUSH2 0x273 JUMP JUMPDEST SWAP2 POP PUSH2 0x50E DUP4 PUSH2 0x273 JUMP JUMPDEST SWAP3 POP DUP3 DUP3 SUB SWAP1 POP DUP2 DUP2 GT ISZERO PUSH2 0x526 JUMPI PUSH2 0x525 PUSH2 0x4CC JUMP JUMPDEST JUMPDEST SWAP3 SWAP2 POP POP JUMP INVALID LOG2 PUSH5 0x6970667358 0x22 SLT KECCAK256 0xDA INVALID 0xE2 0xF PUSH25 0xE6FE9D72FA67ADD6C979D6B6B91F4ED3479E7458B4C7390702 0xA5 TSTORE PUSH5 0x736F6C6343 STOP ADDMOD SAR STOP CALLER "
		},
		"gasEstimates": {
			"creation": {
				"codeDepositCost": "467600",
				"executionCost": "infinite",
				"totalCost": "infinite"
			},
			"external": {
				"getDecimals()": "infinite",
				"getDescription()": "infinite",
				"getLatestPrice()": "infinite",
				"getRoundData(uint80)": "infinite",
				"getVersion()": "infinite"
			}
		},
		"methodIdentifiers": {
			"getDecimals()": "f0141d84",
			"getDescription()": "1a092541",
			"getLatestPrice()": "8e15f473",
			"getRoundData(uint80)": "9a6fc8f5",
			"getVersion()": "0d8e6e2c"
		}
	},
	"abi": [
		{
			"inputs": [],
			"stateMutability": "nonpayable",
			"type": "constructor"
		},
		{
			"inputs": [],
			"name": "getDecimals",
			"outputs": [
				{
					"internalType": "uint8",
					"name": "",
					"type": "uint8"
				}
			],
			"stateMutability": "view",
			"type": "function"
		},
		{
			"inputs": [],
			"name": "getDescription",
			"outputs": [
				{
					"internalType": "string",
					"name": "",
					"type": "string"
				}
			],
			"stateMutability": "view",
			"type": "function"
		},
		{
			"inputs": [],
			"name": "getLatestPrice",
			"outputs": [
				{
					"internalType": "int256",
					"name": "",
					"type": "int256"
				}
			],
			"stateMutability": "view",
			"type": "function"
		},
		{
			"inputs": [
				{
					"internalType": "uint80",
					"name": "_roundId",
					"type": "uint80"
				}
			],
			"name": "getRoundData",
			"outputs": [
				{
					"internalType": "uint80",
					"name": "roundId",
					"type": "uint80"
				},
				{
					"internalType": "int256",
					"name": "answer",
					"type": "int256"
				},
				{
					"internalType": "uint256",
					"name": "startedAt",
					"type": "uint256"
				},
				{
					"internalType": "uint256",
					"name": "updatedAt",
					"type": "uint256"
				},
				{
					"internalType": "uint80",
					"name": "answeredInRound",
					"type": "uint80"
				}
			],
			"stateMutability": "view",
			"type": "function"
		},
		{
			"inputs": [],
			"name": "getVersion",
			"outputs": [
				{
					"internalType": "uint256",
					"name": "",
					"type": "uint256"
				}
			],
			"stateMutability": "view",
			"type": "function"
		}
	]
}