{
	"data": {
		"bytecode": {
			"linkReferences": {},
			"object": "608060405260056000806101000a81548160ff021916908360ff1602179055506010600060016101000a81548161ffff021916908361ffff1602179055507fffffffffffffffffffffffffffffffffffffffffffffffffffffffffffffffb66001556001600260006101000a81548160ff02191690831515021790555073742d35cc6634c0532925a3b844bc454e4438f44e600260016101000a81548173ffffffffffffffffffffffffffffffffffffffff021916908373ffffffffffffffffffffffffffffffffffffffff1602179055506040518060400160405280601481526020017f54616e7a696d20486f737361696e20536166696e00000000000000000000000081525060039081620001179190620003d3565b503480156200012557600080fd5b50604051620009523803806200095283398181016040528101906200014b9190620004f0565b806004819055505062000522565b600081519050919050565b7f4e487b7100000000000000000000000000000000000000000000000000000000600052604160045260246000fd5b7f4e487b7100000000000000000000000000000000000000000000000000000000600052602260045260246000fd5b60006002820490506001821680620001db57607f821691505b602082108103620001f157620001f062000193565b5b50919050565b60008190508160005260206000209050919050565b60006020601f8301049050919050565b600082821b905092915050565b6000600883026200025b7fffffffffffffffffffffffffffffffffffffffffffffffffffffffffffffffff826200021c565b6200026786836200021c565b95508019841693508086168417925050509392505050565b6000819050919050565b6000819050919050565b6000620002b4620002ae620002a8846200027f565b62000289565b6200027f565b9050919050565b6000819050919050565b620002d08362000293565b620002e8620002df82620002bb565b84845462000229565b825550505050565b600090565b620002ff620002f0565b6200030c818484620002c5565b505050565b5b81811015620003345762000328600082620002f5565b60018101905062000312565b5050565b601f82111562000383576200034d81620001f7565b62000358846200020c565b8101602085101562000368578190505b6200038062000377856200020c565b83018262000311565b50505b505050565b600082821c905092915050565b6000620003a86000198460080262000388565b1980831691505092915050565b6000620003c3838362000395565b9150826002028217905092915050565b620003de8262000159565b67ffffffffffffffff811115620003fa57620003f962000164565b5b620004068254620001c2565b6200041382828562000338565b600060209050601f8311600181146200044b576000841562000436578287015190505b620004428582620003b5565b865550620004b2565b601f1984166200045b86620001f7565b60005b8281101562000485578489015182556001820191506020850194506020810190506200045e565b86831015620004a55784890151620004a1601f89168262000395565b8355505b6001600288020188555050505b505050505050565b600080fd5b620004ca816200027f565b8114620004d657600080fd5b50565b600081519050620004ea81620004bf565b92915050565b600060208284031215620005095762000508620004ba565b5b60006200051984828501620004d9565b91505092915050565b61042080620005326000396000f3fe608060405234801561001057600080fd5b50600436106100575760003560e01c80631003e2d21461005c578063131e2f181461007857806327ee58a61461009457806367e0badb146100b0578063eba31cc4146100ce575b600080fd5b610076600480360381019061007191906101dd565b6100ea565b005b610092600480360381019061008d91906101dd565b610106565b005b6100ae60048036038101906100a991906101dd565b610122565b005b6100b861013e565b6040516100c59190610219565b60405180910390f35b6100e860048036038101906100e391906101dd565b610148565b005b80600460008282546100fc9190610263565b9250508190555050565b80600460008282546101189190610297565b9250508190555050565b806004600082825461013491906102d9565b9250508190555050565b6000600454905090565b6000810361018b576040517f08c379a00000000000000000000000000000000000000000000000000000000081526004016101829061036a565b60405180910390fd5b8060045461019991906103b9565b60048190555050565b600080fd5b6000819050919050565b6101ba816101a7565b81146101c557600080fd5b50565b6000813590506101d7816101b1565b92915050565b6000602082840312156101f3576101f26101a2565b5b6000610201848285016101c8565b91505092915050565b610213816101a7565b82525050565b600060208201905061022e600083018461020a565b92915050565b7f4e487b7100000000000000000000000000000000000000000000000000000000600052601160045260246000fd5b600061026e826101a7565b9150610279836101a7565b925082820190508082111561029157610290610234565b5b92915050565b60006102a2826101a7565b91506102ad836101a7565b92508282026102bb816101a7565b915082820484148315176102d2576102d1610234565b5b5092915050565b60006102e4826101a7565b91506102ef836101a7565b925082820390508181111561030757610306610234565b5b92915050565b600082825260208201905092915050565b7f56616c75652063616e6e6f74206265207a65726f000000000000000000000000600082015250565b600061035460148361030d565b915061035f8261031e565b602082019050919050565b6000602082019050818103600083015261038381610347565b9050919050565b7f4e487b7100000000000000000000000000000000000000000000000000000000600052601260045260246000fd5b60006103c4826101a7565b91506103cf836101a7565b9250826103df576103de61038a565b5b82820490509291505056fea26469706673582212204299e7469e05dad5cf06aa9bf6bd18d89f5f4cbadc1f053672bcc53cdcc5e08764736f6c63430008130033",
			"opcodes": "PUSH1 0x80 PUSH1 0x40 MSTORE PUSH1 0x5 PUSH1 0x0 DUP1 PUSH2 0x100 EXP DUP2 SLOAD DUP2 PUSH1 0xFF MUL NOT AND SWAP1 DUP4 PUSH1 0xFF AND MUL OR SWAP1 SSTORE POP PUSH1 0x10 PUSH1 0x0 PUSH1 0x1 PUSH2 0x100 EXP DUP2 SLOAD DUP2 PUSH2 0xFFFF MUL NOT AND SWAP1 DUP4 PUSH2 0xFFFF AND MUL OR SWAP1 SSTORE POP PUSH32 0xFFFFFFFFFFFFFFFFFFFFFFFFFFFFFFFFFFFFFFFFFFFFFFFFFFFFFFFFFFFFFFB6 PUSH1 0x1 SSTORE PUSH1 0x1 PUSH1 0x2 PUSH1 0x0 PUSH2 0x100 EXP DUP2 SLOAD DUP2 PUSH1 0xFF MUL NOT AND SWAP1 DUP4 ISZERO ISZERO MUL OR SWAP1 SSTORE POP PUSH20 0x742D35CC6634C0532925A3B844BC454E4438F44E PUSH1 0x2 PUSH1 0x1 PUSH2 0x100 EXP DUP2 SLOAD DUP2 PUSH20 0xFFFFFFFFFFFFFFFFFFFFFFFFFFFFFFFFFFFFFFFF MUL NOT AND SWAP1 DUP4 PUSH20 0xFFFFFFFFFFFFFFFFFFFFFFFFFFFFFFFFFFFFFFFF AND MUL OR SWAP1 SSTORE POP PUSH1 0x40 MLOAD DUP1 PUSH1 0x40 ADD PUSH1 0x40 MSTORE DUP1 PUSH1 0x14 DUP2 MSTORE PUSH1 0x20 ADD PUSH32 0x54616E7A696D20486F737361696E20536166696E000000000000000000000000 DUP2 MSTORE POP PUSH1 0x3 SWAP1 DUP2 PUSH3 0x117 SWAP2 SWAP1 PUSH3 0x3D3 JUMP JUMPDEST POP CALLVALUE DUP1 ISZERO PUSH3 0x125 JUMPI PUSH1 0x0 DUP1 REVERT JUMPDEST POP PUSH1 0x40 MLOAD PUSH3 0x952 CODESIZE SUB DUP1 PUSH3 0x952 DUP4 CODECOPY DUP2 DUP2 ADD PUSH1 0x40 MSTORE DUP2 ADD SWAP1 PUSH3 0x14B SWAP2 SWAP1 PUSH3 0x4F0 JUMP JUMPDEST DUP1 PUSH1 0x4 DUP2 SWAP1 SSTORE POP POP PUSH3 0x522 JUMP JUMPDEST PUSH1 0x0 DUP2 MLOAD SWAP1 POP SWAP2 SWAP1 POP JUMP JUMPDEST PUSH32 0x4E487B7100000000000000000000000000000000000000000000000000000000 PUSH1 0x0 MSTORE PUSH1 0x41 PUSH1 0x4 MSTORE PUSH1 0x24 PUSH1 0x0 REVERT JUMPDEST PUSH32 0x4E487B7100000000000000000000000000000000000000000000000000000000 PUSH1 0x0 MSTORE PUSH1 0x22 PUSH1 0x4 MSTORE PUSH1 0x24 PUSH1 0x0 REVERT JUMPDEST PUSH1 0x0 PUSH1 0x2 DUP3 DIV SWAP1 POP PUSH1 0x1 DUP3 AND DUP1 PUSH3 0x1DB JUMPI PUSH1 0x7F DUP3 AND SWAP2 POP JUMPDEST PUSH1 0x20 DUP3 LT DUP2 SUB PUSH3 0x1F1 JUMPI PUSH3 0x1F0 PUSH3 0x193 JUMP JUMPDEST JUMPDEST POP SWAP2 SWAP1 POP JUMP JUMPDEST PUSH1 0x0 DUP2 SWAP1 POP DUP2 PUSH1 0x0 MSTORE PUSH1 0x20 PUSH1 0x0 KECCAK256 SWAP1 POP SWAP2 SWAP1 POP JUMP JUMPDEST PUSH1 0x0 PUSH1 0x20 PUSH1 0x1F DUP4 ADD DIV SWAP1 POP SWAP2 SWAP1 POP JUMP JUMPDEST PUSH1 0x0 DUP3 DUP3 SHL SWAP1 POP SWAP3 SWAP2 POP POP JUMP JUMPDEST PUSH1 0x0 PUSH1 0x8 DUP4 MUL PUSH3 0x25B PUSH32 0xFFFFFFFFFFFFFFFFFFFFFFFFFFFFFFFFFFFFFFFFFFFFFFFFFFFFFFFFFFFFFFFF DUP3 PUSH3 0x21C JUMP JUMPDEST PUSH3 0x267 DUP7 DUP4 PUSH3 0x21C JUMP JUMPDEST SWAP6 POP DUP1 NOT DUP5 AND SWAP4 POP DUP1 DUP7 AND DUP5 OR SWAP3 POP POP POP SWAP4 SWAP3 POP POP POP JUMP JUMPDEST PUSH1 0x0 DUP2 SWAP1 POP SWAP2 SWAP1 POP JUMP JUMPDEST PUSH1 0x0 DUP2 SWAP1 POP SWAP2 SWAP1 POP JUMP JUMPDEST PUSH1 0x0 PUSH3 0x2B4 PUSH3 0x2AE PUSH3 0x2A8 DUP5 PUSH3 0x27F JUMP JUMPDEST PUSH3 0x289 JUMP JUMPDEST PUSH3 0x27F JUMP JUMPDEST SWAP1 POP SWAP2 SWAP1 POP JUMP JUMPDEST PUSH1 0x0 DUP2 SWAP1 POP SWAP2 SWAP1 POP JUMP JUMPDEST PUSH3 0x2D0 DUP4 PUSH3 0x293 JUMP JUMPDEST PUSH3 0x2E8 PUSH3 0x2DF DUP3 PUSH3 0x2BB JUMP JUMPDEST DUP5 DUP5 SLOAD PUSH3 0x229 JUMP JUMPDEST DUP3 SSTORE POP POP POP POP JUMP JUMPDEST PUSH1 0x0 SWAP1 JUMP JUMPDEST PUSH3 0x2FF PUSH3 0x2F0 JUMP JUMPDEST PUSH3 0x30C DUP2 DUP5 DUP5 PUSH3 0x2C5 JUMP JUMPDEST POP POP POP JUMP JUMPDEST JUMPDEST DUP2 DUP2 LT ISZERO PUSH3 0x334 JUMPI PUSH3 0x328 PUSH1 0x0 DUP3 PUSH3 0x2F5 JUMP JUMPDEST PUSH1 0x1 DUP2 ADD SWAP1 POP PUSH3 0x312 JUMP JUMPDEST POP POP JUMP JUMPDEST PUSH1 0x1F DUP3 GT ISZERO PUSH3 0x383 JUMPI PUSH3 0x34D DUP2 PUSH3 0x1F7 JUMP JUMPDEST PUSH3 0x358 DUP5 PUSH3 0x20C JUMP JUMPDEST DUP2 ADD PUSH1 0x20 DUP6 LT ISZERO PUSH3 0x368 JUMPI DUP2 SWAP1 POP JUMPDEST PUSH3 0x380 PUSH3 0x377 DUP6 PUSH3 0x20C JUMP JUMPDEST DUP4 ADD DUP3 PUSH3 0x311 JUMP JUMPDEST POP POP JUMPDEST POP POP POP JUMP JUMPDEST PUSH1 0x0 DUP3 DUP3 SHR SWAP1 POP SWAP3 SWAP2 POP POP JUMP JUMPDEST PUSH1 0x0 PUSH3 0x3A8 PUSH1 0x0 NOT DUP5 PUSH1 0x8 MUL PUSH3 0x388 JUMP JUMPDEST NOT DUP1 DUP4 AND SWAP2 POP POP SWAP3 SWAP2 POP POP JUMP JUMPDEST PUSH1 0x0 PUSH3 0x3C3 DUP4 DUP4 PUSH3 0x395 JUMP JUMPDEST SWAP2 POP DUP3 PUSH1 0x2 MUL DUP3 OR SWAP1 POP SWAP3 SWAP2 POP POP JUMP JUMPDEST PUSH3 0x3DE DUP3 PUSH3 0x159 JUMP JUMPDEST PUSH8 0xFFFFFFFFFFFFFFFF DUP2 GT ISZERO PUSH3 0x3FA JUMPI PUSH3 0x3F9 PUSH3 0x164 JUMP JUMPDEST JUMPDEST PUSH3 0x406 DUP3 SLOAD PUSH3 0x1C2 JUMP JUMPDEST PUSH3 0x413 DUP3 DUP3 DUP6 PUSH3 0x338 JUMP JUMPDEST PUSH1 0x0 PUSH1 0x20 SWAP1 POP PUSH1 0x1F DUP4 GT PUSH1 0x1 DUP2 EQ PUSH3 0x44B JUMPI PUSH1 0x0 DUP5 ISZERO PUSH3 0x436 JUMPI DUP3 DUP8 ADD MLOAD SWAP1 POP JUMPDEST PUSH3 0x442 DUP6 DUP3 PUSH3 0x3B5 JUMP JUMPDEST DUP7 SSTORE POP PUSH3 0x4B2 JUMP JUMPDEST PUSH1 0x1F NOT DUP5 AND PUSH3 0x45B DUP7 PUSH3 0x1F7 JUMP JUMPDEST PUSH1 0x0 JUMPDEST DUP3 DUP2 LT ISZERO PUSH3 0x485 JUMPI DUP5 DUP10 ADD MLOAD DUP3 SSTORE PUSH1 0x1 DUP3 ADD SWAP2 POP PUSH1 0x20 DUP6 ADD SWAP5 POP PUSH1 0x20 DUP2 ADD SWAP1 POP PUSH3 0x45E JUMP JUMPDEST DUP7 DUP4 LT ISZERO PUSH3 0x4A5 JUMPI DUP5 DUP10 ADD MLOAD PUSH3 0x4A1 PUSH1 0x1F DUP10 AND DUP3 PUSH3 0x395 JUMP JUMPDEST DUP4 SSTORE POP JUMPDEST PUSH1 0x1 PUSH1 0x2 DUP9 MUL ADD DUP9 SSTORE POP POP POP JUMPDEST POP POP POP POP POP POP JUMP JUMPDEST PUSH1 0x0 DUP1 REVERT JUMPDEST PUSH3 0x4CA DUP2 PUSH3 0x27F JUMP JUMPDEST DUP2 EQ PUSH3 0x4D6 JUMPI PUSH1 0x0 DUP1 REVERT JUMPDEST POP JUMP JUMPDEST PUSH1 0x0 DUP2 MLOAD SWAP1 POP PUSH3 0x4EA DUP2 PUSH3 0x4BF JUMP JUMPDEST SWAP3 SWAP2 POP POP JUMP JUMPDEST PUSH1 0x0 PUSH1 0x20 DUP3 DUP5 SUB SLT ISZERO PUSH3 0x509 JUMPI PUSH3 0x508 PUSH3 0x4BA JUMP JUMPDEST JUMPDEST PUSH1 0x0 PUSH3 0x519 DUP5 DUP3 DUP6 ADD PUSH3 0x4D9 JUMP JUMPDEST SWAP2 POP POP SWAP3 SWAP2 POP POP JUMP JUMPDEST PUSH2 0x420 DUP1 PUSH3 0x532 PUSH1 0x0 CODECOPY PUSH1 0x0 RETURN INVALID PUSH1 0x80 PUSH1 0x40 MSTORE CALLVALUE DUP1 ISZERO PUSH2 0x10 JUMPI PUSH1 0x0 DUP1 REVERT JUMPDEST POP PUSH1 0x4 CALLDATASIZE LT PUSH2 0x57 JUMPI PUSH1 0x0 CALLDATALOAD PUSH1 0xE0 SHR DUP1 PUSH4 0x1003E2D2 EQ PUSH2 0x5C JUMPI DUP1 PUSH4 0x131E2F18 EQ PUSH2 0x78 JUMPI DUP1 PUSH4 0x27EE58A6 EQ PUSH2 0x94 JUMPI DUP1 PUSH4 0x67E0BADB EQ PUSH2 0xB0 JUMPI DUP1 PUSH4 0xEBA31CC4 EQ PUSH2 0xCE JUMPI JUMPDEST PUSH1 0x0 DUP1 REVERT JUMPDEST PUSH2 0x76 PUSH1 0x4 DUP1 CALLDATASIZE SUB DUP2 ADD SWAP1 PUSH2 0x71 SWAP2 SWAP1 PUSH2 0x1DD JUMP JUMPDEST PUSH2 0xEA JUMP JUMPDEST STOP JUMPDEST PUSH2 0x92 PUSH1 0x4 DUP1 CALLDATASIZE SUB DUP2 ADD SWAP1 PUSH2 0x8D SWAP2 SWAP1 PUSH2 0x1DD JUMP JUMPDEST PUSH2 0x106 JUMP JUMPDEST STOP JUMPDEST PUSH2 0xAE PUSH1 0x4 DUP1 CALLDATASIZE SUB DUP2 ADD SWAP1 PUSH2 0xA9 SWAP2 SWAP1 PUSH2 0x1DD JUMP JUMPDEST PUSH2 0x122 JUMP JUMPDEST STOP JUMPDEST PUSH2 0xB8 PUSH2 0x13E JUMP JUMPDEST PUSH1 0x40 MLOAD PUSH2 0xC5 SWAP2 SWAP1 PUSH2 0x219 JUMP JUMPDEST PUSH1 0x40 MLOAD DUP1 SWAP2 SUB SWAP1 RETURN JUMPDEST PUSH2 0xE8 PUSH1 0x4 DUP1 CALLDATASIZE SUB DUP2 ADD SWAP1 PUSH2 0xE3 SWAP2 SWAP1 PUSH2 0x1DD JUMP JUMPDEST PUSH2 0x148 JUMP JUMPDEST STOP JUMPDEST DUP1 PUSH1 0x4 PUSH1 0x0 DUP3 DUP3 SLOAD PUSH2 0xFC SWAP2 SWAP1 PUSH2 0x263 JUMP JUMPDEST SWAP3 POP POP DUP2 SWAP1 SSTORE POP POP JUMP JUMPDEST DUP1 PUSH1 0x4 PUSH1 0x0 DUP3 DUP3 SLOAD PUSH2 0x118 SWAP2 SWAP1 PUSH2 0x297 JUMP JUMPDEST SWAP3 POP POP DUP2 SWAP1 SSTORE POP POP JUMP JUMPDEST DUP1 PUSH1 0x4 PUSH1 0x0 DUP3 DUP3 SLOAD PUSH2 0x134 SWAP2 SWAP1 PUSH2 0x2D9 JUMP JUMPDEST SWAP3 POP POP DUP2 SWAP1 SSTORE POP POP JUMP JUMPDEST PUSH1 0x0 PUSH1 0x4 SLOAD SWAP1 POP SWAP1 JUMP JUMPDEST PUSH1 0x0 DUP2 SUB PUSH2 0x18B JUMPI PUSH1 0x40 MLOAD PUSH32 0x8C379A000000000000000000000000000000000000000000000000000000000 DUP2 MSTORE PUSH1 0x4 ADD PUSH2 0x182 SWAP1 PUSH2 0x36A JUMP JUMPDEST PUSH1 0x40 MLOAD DUP1 SWAP2 SUB SWAP1 REVERT JUMPDEST DUP1 PUSH1 0x4 SLOAD PUSH2 0x199 SWAP2 SWAP1 PUSH2 0x3B9 JUMP JUMPDEST PUSH1 0x4 DUP2 SWAP1 SSTORE POP POP JUMP JUMPDEST PUSH1 0x0 DUP1 REVERT JUMPDEST PUSH1 0x0 DUP2 SWAP1 POP SWAP2 SWAP1 POP JUMP JUMPDEST PUSH2 0x1BA DUP2 PUSH2 0x1A7 JUMP JUMPDEST DUP2 EQ PUSH2 0x1C5 JUMPI PUSH1 0x0 DUP1 REVERT JUMPDEST POP JUMP JUMPDEST PUSH1 0x0 DUP2 CALLDATALOAD SWAP1 POP PUSH2 0x1D7 DUP2 PUSH2 0x1B1 JUMP JUMPDEST SWAP3 SWAP2 POP POP JUMP JUMPDEST PUSH1 0x0 PUSH1 0x20 DUP3 DUP5 SUB SLT ISZERO PUSH2 0x1F3 JUMPI PUSH2 0x1F2 PUSH2 0x1A2 JUMP JUMPDEST JUMPDEST PUSH1 0x0 PUSH2 0x201 DUP5 DUP3 DUP6 ADD PUSH2 0x1C8 JUMP JUMPDEST SWAP2 POP POP SWAP3 SWAP2 POP POP JUMP JUMPDEST PUSH2 0x213 DUP2 PUSH2 0x1A7 JUMP JUMPDEST DUP3 MSTORE POP POP JUMP JUMPDEST PUSH1 0x0 PUSH1 0x20 DUP3 ADD SWAP1 POP PUSH2 0x22E PUSH1 0x0 DUP4 ADD DUP5 PUSH2 0x20A JUMP JUMPDEST SWAP3 SWAP2 POP POP JUMP JUMPDEST PUSH32 0x4E487B7100000000000000000000000000000000000000000000000000000000 PUSH1 0x0 MSTORE PUSH1 0x11 PUSH1 0x4 MSTORE PUSH1 0x24 PUSH1 0x0 REVERT JUMPDEST PUSH1 0x0 PUSH2 0x26E DUP3 PUSH2 0x1A7 JUMP JUMPDEST SWAP2 POP PUSH2 0x279 DUP4 PUSH2 0x1A7 JUMP JUMPDEST SWAP3 POP DUP3 DUP3 ADD SWAP1 POP DUP1 DUP3 GT ISZERO PUSH2 0x291 JUMPI PUSH2 0x290 PUSH2 0x234 JUMP JUMPDEST JUMPDEST SWAP3 SWAP2 POP POP JUMP JUMPDEST PUSH1 0x0 PUSH2 0x2A2 DUP3 PUSH2 0x1A7 JUMP JUMPDEST SWAP2 POP PUSH2 0x2AD DUP4 PUSH2 0x1A7 JUMP JUMPDEST SWAP3 POP DUP3 DUP3 MUL PUSH2 0x2BB DUP2 PUSH2 0x1A7 JUMP JUMPDEST SWAP2 POP DUP3 DUP3 DIV DUP5 EQ DUP4 ISZERO OR PUSH2 0x2D2 JUMPI PUSH2 0x2D1 PUSH2 0x234 JUMP JUMPDEST JUMPDEST POP SWAP3 SWAP2 POP POP JUMP JUMPDEST PUSH1 0x0 PUSH2 0x2E4 DUP3 PUSH2 0x1A7 JUMP JUMPDEST SWAP2 POP PUSH2 0x2EF DUP4 PUSH2 0x1A7 JUMP JUMPDEST SWAP3 POP DUP3 DUP3 SUB SWAP1 POP DUP2 DUP2 GT ISZERO PUSH2 0x307 JUMPI PUSH2 0x306 PUSH2 0x234 JUMP JUMPDEST JUMPDEST SWAP3 SWAP2 POP POP JUMP JUMPDEST PUSH1 0x0 DUP3 DUP3 MSTORE PUSH1 0x20 DUP3 ADD SWAP1 POP SWAP3 SWAP2 POP POP JUMP JUMPDEST PUSH32 0x56616C75652063616E6E6F74206265207A65726F000000000000000000000000 PUSH1 0x0 DUP3 ADD MSTORE POP JUMP JUMPDEST PUSH1 0x0 PUSH2 0x354 PUSH1 0x14 DUP4 PUSH2 0x30D JUMP JUMPDEST SWAP2 POP PUSH2 0x35F DUP3 PUSH2 0x31E JUMP JUMPDEST PUSH1 0x20 DUP3 ADD SWAP1 POP SWAP2 SWAP1 POP JUMP JUMPDEST PUSH1 0x0 PUSH1 0x20 DUP3 ADD SWAP1 POP DUP2 DUP2 SUB PUSH1 0x0 DUP4 ADD MSTORE PUSH2 0x383 DUP2 PUSH2 0x347 JUMP JUMPDEST SWAP1 POP SWAP2 SWAP1 POP JUMP JUMPDEST PUSH32 0x4E487B7100000000000000000000000000000000000000000000000000000000 PUSH1 0x0 MSTORE PUSH1 0x12 PUSH1 0x4 MSTORE PUSH1 0x24 PUSH1 0x0 REVERT JUMPDEST PUSH1 0x0 PUSH2 0x3C4 DUP3 PUSH2 0x1A7 JUMP JUMPDEST SWAP2 POP PUSH2 0x3CF DUP4 PUSH2 0x1A7 JUMP JUMPDEST SWAP3 POP DUP3 PUSH2 0x3DF JUMPI PUSH2 0x3DE PUSH2 0x38A JUMP JUMPDEST JUMPDEST DUP3 DUP3 DIV SWAP1 POP SWAP3 SWAP2 POP POP JUMP INVALID LOG2 PUSH5 0x6970667358 0x22 SLT KECCAK256 TIMESTAMP SWAP10 0xE7 CHAINID SWAP15 SDIV 0xDA 0xD5 0xCF MOD 0xAA SWAP12 0xF6 0xBD XOR 0xD8 SWAP16 0x5F 0x4C 0xBA 0xDC 0x1F SDIV CALLDATASIZE PUSH19 0xBCC53CDCC5E08764736F6C6343000813003300 "
		},
		"gasEstimates": {
			"creation": {
				"codeDepositCost": "211200",
				"executionCost": "infinite",
				"totalCost": "infinite"
			},
			"external": {
				"add(uint256)": "infinite",
				"div(uint256)": "infinite",
				"getNum()": "2481",
				"mul(uint256)": "infinite",
				"sub(uint256)": "infinite"
			}
		},
		"methodIdentifiers": {
			"add(uint256)": "1003e2d2",
			"div(uint256)": "eba31cc4",
			"getNum()": "67e0badb",
			"mul(uint256)": "131e2f18",
			"sub(uint256)": "27ee58a6"
		}
	},
	"abi": [
		{
			"inputs": [
				{
					"internalType": "uint256",
					"name": "_initial_val",
					"type": "uint256"
				}
			],
			"stateMutability": "nonpayable",
			"type": "constructor"
		},
		{
			"inputs": [
				{
					"internalType": "uint256",
					"name": "val",
					"type": "uint256"
				}
			],
			"name": "add",
			"outputs": [],
			"stateMutability": "nonpayable",
			"type": "function"
		},
		{
			"inputs": [
				{
					"internalType": "uint256",
					"name": "val",
					"type": "uint256"
				}
			],
			"name": "div",
			"outputs": [],
			"stateMutability": "nonpayable",
			"type": "function"
		},
		{
			"inputs": [],
			"name": "getNum",
			"outputs": [
				{
					"internalType": "uint256",
					"name": "",
					"type": "uint256"
				}
			],
			"stateMutability": "view",
			"type": "function"
		},
		{
			"inputs": [
				{
					"internalType": "uint256",
					"name": "val",
					"type": "uint256"
				}
			],
			"name": "mul",
			"outputs": [],
			"stateMutability": "nonpayable",
			"type": "function"
		},
		{
			"inputs": [
				{
					"internalType": "uint256",
					"name": "val",
					"type": "uint256"
				}
			],
			"name": "sub",
			"outputs": [],
			"stateMutability": "nonpayable",
			"type": "function"
		}
	]
}